{"abi":[{"inputs":[{"internalType":"address","name":"_studentData","type":"address"},{"internalType":"address","name":"_schoolFiles","type":"address"},{"internalType":"address","name":"_login","type":"address"},{"internalType":"address","name":"_attendance","type":"address"},{"internalType":"address","name":"_modification","type":"address"},{"internalType":"address","name":"_performance","type":"address"}],"stateMutability":"nonpayable","type":"constructor"},{"anonymous":false,"inputs":[{"indexed":true,"internalType":"uint256","name":"_assignmentId","type":"uint256"},{"indexed":true,"internalType":"uint256","name":"_class","type":"uint256"},{"indexed":true,"internalType":"uint256","name":"_expiry","type":"uint256"}],"name":"assignmentAdded","type":"event"},{"anonymous":false,"inputs":[{"indexed":true,"internalType":"uint256","name":"_assignmentId","type":"uint256"},{"indexed":true,"internalType":"uint256","name":"_solutionId","type":"uint256"},{"indexed":true,"internalType":"uint256","name":"_studentId","type":"uint256"}],"name":"assignmentSolutionAdded","type":"event"},{"anonymous":false,"inputs":[{"indexed":true,"internalType":"uint256","name":"_studentId","type":"uint256"},{"indexed":true,"internalType":"uint256","name":"_attendanceValue","type":"uint256"},{"indexed":true,"internalType":"uint256","name":"_date","type":"uint256"}],"name":"attendanceMarked","type":"event"},{"anonymous":false,"inputs":[{"indexed":true,"internalType":"uint256","name":"_marksCardId","type":"uint256"},{"indexed":true,"internalType":"uint256","name":"_studentId","type":"uint256"},{"indexed":true,"internalType":"uint256","name":"_expiry","type":"uint256"}],"name":"marksCardAdded","type":"event"},{"anonymous":false,"inputs":[{"indexed":true,"internalType":"uint256","name":"_studentId","type":"uint256"}],"name":"modifiedFamilyDetails","type":"event"},{"anonymous":false,"inputs":[{"indexed":true,"internalType":"uint256","name":"_studentId","type":"uint256"}],"name":"modifiedFiles","type":"event"},{"anonymous":false,"inputs":[{"indexed":true,"internalType":"uint256","name":"_studentId","type":"uint256"}],"name":"modifiedGuardianDetails","type":"event"},{"anonymous":false,"inputs":[{"indexed":true,"internalType":"uint256","name":"_studentId","type":"uint256"}],"name":"modifiedMaternalDetails","type":"event"},{"anonymous":false,"inputs":[{"indexed":true,"internalType":"uint256","name":"_studentId","type":"uint256"}],"name":"modifiedNonAcademicDetails","type":"event"},{"anonymous":false,"inputs":[{"indexed":true,"internalType":"uint256","name":"_studentId","type":"uint256"}],"name":"modifiedPaternalDetails","type":"event"},{"anonymous":false,"inputs":[{"indexed":true,"internalType":"uint256","name":"_studentId","type":"uint256"}],"name":"modifiedPersonalDetails","type":"event"},{"anonymous":false,"inputs":[{"indexed":true,"internalType":"uint256","name":"_studentId","type":"uint256"}],"name":"modifiedPrimaryDetails","type":"event"},{"anonymous":false,"inputs":[{"indexed":true,"internalType":"uint256","name":"_studentId","type":"uint256"},{"indexed":true,"internalType":"uint256","name":"_rollNumber","type":"uint256"},{"indexed":true,"internalType":"uint256","name":"_class","type":"uint256"}],"name":"studentAdded","type":"event"},{"anonymous":false,"inputs":[{"indexed":true,"internalType":"uint256","name":"_studentId","type":"uint256"},{"indexed":true,"internalType":"uint256","name":"_rollNumber","type":"uint256"}],"name":"studentFound","type":"event"},{"inputs":[{"internalType":"uint256","name":"_class","type":"uint256"},{"internalType":"string","name":"_subject","type":"string"},{"internalType":"string","name":"_file","type":"string"},{"internalType":"string","name":"_topic","type":"string"},{"internalType":"uint256","name":"_expiry","type":"uint256"}],"name":"addAssignment","outputs":[],"stateMutability":"nonpayable","type":"function"},{"inputs":[{"internalType":"uint256","name":"_assignmentId","type":"uint256"},{"internalType":"string","name":"_file","type":"string"},{"internalType":"uint256","name":"_studentId","type":"uint256"}],"name":"addAssignmentSolution","outputs":[],"stateMutability":"nonpayable","type":"function"},{"inputs":[{"internalType":"uint256","name":"_studentId","type":"uint256"},{"internalType":"uint256","name":"_familyIncome","type":"uint256"},{"internalType":"uint256","name":"_primaryContact","type":"uint256"},{"internalType":"uint256","name":"_secondaryContact","type":"uint256"}],"name":"addFamilyDetails","outputs":[],"stateMutability":"nonpayable","type":"function"},{"inputs":[{"internalType":"uint256","name":"_studentId","type":"uint256"},{"internalType":"string","name":"_uploadAadharFront","type":"string"},{"internalType":"string","name":"_uploadAadharBack","type":"string"},{"internalType":"string","name":"_uploadIncomeCertificate","type":"string"},{"internalType":"string","name":"_uploadBirthCertificate","type":"string"},{"internalType":"string","name":"_uploadCasteCertificate","type":"string"}],"name":"addFiles","outputs":[],"stateMutability":"nonpayable","type":"function"},{"inputs":[{"internalType":"uint256","name":"_studentId","type":"uint256"},{"internalType":"string","name":"_guardianName","type":"string"},{"internalType":"string","name":"_guardianAddress","type":"string"}],"name":"addGuardianDetails","outputs":[],"stateMutability":"nonpayable","type":"function"},{"inputs":[{"internalType":"uint256","name":"_studentId","type":"uint256"},{"internalType":"uint256","name":"_class","type":"uint256"},{"internalType":"string","name":"_file","type":"string"},{"internalType":"uint256","name":"_expiry","type":"uint256"}],"name":"addMarksCard","outputs":[],"stateMutability":"nonpayable","type":"function"},{"inputs":[{"internalType":"uint256","name":"_studentId","type":"uint256"},{"internalType":"string","name":"_motherName","type":"string"},{"internalType":"string","name":"_motherOccupation","type":"string"},{"internalType":"string","name":"_motherEducation","type":"string"}],"name":"addMaternalDetails","outputs":[],"stateMutability":"nonpayable","type":"function"},{"inputs":[{"internalType":"uint256","name":"_studentId","type":"uint256"},{"internalType":"string","name":"_sportsInvolved","type":"string"},{"internalType":"string","name":"_sportsAchievements","type":"string"},{"internalType":"string","name":"_extraCurricullum","type":"string"},{"internalType":"string","name":"_extraCurricullumAchievements","type":"string"},{"internalType":"string","name":"_personalityDevelopment","type":"string"},{"internalType":"string","name":"_personalityDevelopmentAchievements","type":"string"}],"name":"addNonAcademic","outputs":[],"stateMutability":"nonpayable","type":"function"},{"inputs":[{"internalType":"uint256","name":"_studentId","type":"uint256"},{"internalType":"string","name":"_fatherName","type":"string"},{"internalType":"string","name":"_currentAddress","type":"string"},{"internalType":"string","name":"_officeAddress","type":"string"},{"internalType":"string","name":"_fatherOccupation","type":"string"},{"internalType":"string","name":"_fatherEducation","type":"string"}],"name":"addPaternalDetails","outputs":[],"stateMutability":"nonpayable","type":"function"},{"inputs":[{"internalType":"uint256","name":"_grade","type":"uint256"},{"internalType":"uint256","name":"_batch","type":"uint256"},{"internalType":"uint256","name":"_totalStudents","type":"uint256"},{"internalType":"uint256","name":"_passedStudents","type":"uint256"},{"internalType":"uint256","name":"_failedStudents","type":"uint256"}],"name":"addPerformanceIndicator","outputs":[],"stateMutability":"nonpayable","type":"function"},{"inputs":[{"internalType":"uint256","name":"_studentId","type":"uint256"},{"internalType":"string","name":"_religion","type":"string"},{"internalType":"string","name":"_caste","type":"string"},{"internalType":"string","name":"_nationality","type":"string"},{"internalType":"uint256","name":"_aadharNumber","type":"uint256"},{"internalType":"string","name":"_gender","type":"string"}],"name":"addPersonalDetails","outputs":[],"stateMutability":"nonpayable","type":"function"},{"inputs":[{"internalType":"string","name":"_studentName","type":"string"},{"internalType":"uint256","name":"_dob","type":"uint256"},{"internalType":"uint256","name":"_rollNumber","type":"uint256"},{"internalType":"uint256","name":"_grade","type":"uint256"},{"internalType":"string","name":"_section","type":"string"},{"internalType":"string","name":"_email","type":"string"}],"name":"addStudent","outputs":[],"stateMutability":"nonpayable","type":"function"},{"inputs":[{"internalType":"uint256","name":"_class","type":"uint256"},{"internalType":"string","name":"_exam","type":"string"},{"internalType":"string","name":"_file","type":"string"},{"internalType":"uint256","name":"_uploadTime","type":"uint256"}],"name":"addTimeTable","outputs":[],"stateMutability":"nonpayable","type":"function"},{"inputs":[],"name":"adminCount","outputs":[{"internalType":"uint256","name":"","type":"uint256"}],"stateMutability":"view","type":"function"},{"inputs":[{"internalType":"address","name":"","type":"address"}],"name":"adminToAdminId","outputs":[{"internalType":"uint256","name":"","type":"uint256"}],"stateMutability":"view","type":"function"},{"inputs":[{"internalType":"uint256","name":"_requestId","type":"uint256"}],"name":"approveRequest","outputs":[],"stateMutability":"nonpayable","type":"function"},{"inputs":[{"internalType":"uint256","name":"_requestId","type":"uint256"}],"name":"closeRequest","outputs":[],"stateMutability":"nonpayable","type":"function"},{"inputs":[],"name":"femaleStudents","outputs":[{"internalType":"uint256","name":"","type":"uint256"}],"stateMutability":"view","type":"function"},{"inputs":[{"internalType":"address","name":"admin","type":"address"}],"name":"getAdminData","outputs":[{"internalType":"string","name":"name","type":"string"},{"internalType":"string","name":"_type","type":"string"}],"stateMutability":"view","type":"function"},{"inputs":[{"internalType":"uint256","name":"_assignmentId","type":"uint256"}],"name":"getAssignmentData","outputs":[{"internalType":"string","name":"subject","type":"string"},{"internalType":"string","name":"topic","type":"string"},{"internalType":"string","name":"file","type":"string"},{"internalType":"uint256","name":"class","type":"uint256"},{"internalType":"uint256","name":"expiry","type":"uint256"}],"stateMutability":"view","type":"function"},{"inputs":[{"internalType":"uint256","name":"_assignmentSolutionId","type":"uint256"}],"name":"getAssignmentSolutionData","outputs":[{"internalType":"string","name":"file","type":"string"},{"internalType":"uint256","name":"assignmentId","type":"uint256"},{"internalType":"uint256","name":"studentId","type":"uint256"}],"stateMutability":"view","type":"function"},{"inputs":[{"internalType":"uint256","name":"_studentId","type":"uint256"},{"internalType":"uint256","name":"_date","type":"uint256"}],"name":"getAttendance","outputs":[{"internalType":"uint256","name":"attendanceMark","type":"uint256"}],"stateMutability":"view","type":"function"},{"inputs":[{"internalType":"uint256","name":"grade","type":"uint256"}],"name":"getBatchCount","outputs":[{"internalType":"uint256","name":"batchCount","type":"uint256"}],"stateMutability":"view","type":"function"},{"inputs":[{"internalType":"uint256","name":"_studentId","type":"uint256"}],"name":"getFamilyDetails","outputs":[{"internalType":"uint256","name":"_familyIncome","type":"uint256"},{"internalType":"uint256","name":"_primaryContact","type":"uint256"},{"internalType":"uint256","name":"_secondaryContact","type":"uint256"}],"stateMutability":"view","type":"function"},{"inputs":[{"internalType":"uint256","name":"_studentId","type":"uint256"}],"name":"getFiles","outputs":[{"internalType":"string","name":"_uploadAadharFront","type":"string"},{"internalType":"string","name":"_uploadAadharBack","type":"string"},{"internalType":"string","name":"_uploadIncomeCertificate","type":"string"},{"internalType":"string","name":"_uploadBirthCertificate","type":"string"},{"internalType":"string","name":"_uploadCasteCertificate","type":"string"}],"stateMutability":"view","type":"function"},{"inputs":[],"name":"getGenderKPI","outputs":[{"internalType":"uint256","name":"totalNumber","type":"uint256"},{"internalType":"uint256","name":"maleNumber","type":"uint256"},{"internalType":"uint256","name":"femaleNumber","type":"uint256"}],"stateMutability":"view","type":"function"},{"inputs":[{"internalType":"uint256","name":"_studentId","type":"uint256"}],"name":"getGuardianDetails","outputs":[{"internalType":"string","name":"_guardianName","type":"string"},{"internalType":"string","name":"_guardianAddress","type":"string"}],"stateMutability":"view","type":"function"},{"inputs":[{"internalType":"uint256","name":"_marksCardId","type":"uint256"}],"name":"getMarksCardData","outputs":[{"internalType":"uint256","name":"studentId","type":"uint256"},{"internalType":"uint256","name":"class","type":"uint256"},{"internalType":"string","name":"file","type":"string"}],"stateMutability":"view","type":"function"},{"inputs":[{"internalType":"uint256","name":"_studentId","type":"uint256"}],"name":"getMaternalDetails","outputs":[{"internalType":"string","name":"_motherName","type":"string"},{"internalType":"string","name":"_motherOccupation","type":"string"},{"internalType":"string","name":"_motherEducation","type":"string"}],"stateMutability":"view","type":"function"},{"inputs":[{"internalType":"uint256","name":"_studentId","type":"uint256"}],"name":"getNonAcademic","outputs":[{"internalType":"string","name":"_sportsInvolved","type":"string"},{"internalType":"string","name":"_sportsAchievements","type":"string"},{"internalType":"string","name":"_extraCurricullum","type":"string"},{"internalType":"string","name":"_extraCurricullumAchievements","type":"string"},{"internalType":"string","name":"_personalityDevelopment","type":"string"},{"internalType":"string","name":"_personalityDevelopmentAchievements","type":"string"}],"stateMutability":"view","type":"function"},{"inputs":[{"internalType":"uint256","name":"_studentId","type":"uint256"}],"name":"getPaternalDetails","outputs":[{"internalType":"string","name":"_fatherName","type":"string"},{"internalType":"string","name":"_currentAddress","type":"string"},{"internalType":"string","name":"_officeAddress","type":"string"},{"internalType":"string","name":"_fatherOccupation","type":"string"},{"internalType":"string","name":"_fatherEducation","type":"string"}],"stateMutability":"view","type":"function"},{"inputs":[{"internalType":"uint256","name":"_batchId","type":"uint256"},{"internalType":"uint256","name":"_grade","type":"uint256"}],"name":"getPerformanceIndicator","outputs":[{"internalType":"uint256","name":"batch","type":"uint256"},{"internalType":"uint256","name":"totalStudents","type":"uint256"},{"internalType":"uint256","name":"passedStudents","type":"uint256"},{"internalType":"uint256","name":"failedStudents","type":"uint256"}],"stateMutability":"view","type":"function"},{"inputs":[{"internalType":"uint256","name":"_studentId","type":"uint256"}],"name":"getPersonalDetails","outputs":[{"internalType":"string","name":"_religion","type":"string"},{"internalType":"string","name":"_caste","type":"string"},{"internalType":"string","name":"_nationality","type":"string"},{"internalType":"uint256","name":"_aadharNumber","type":"uint256"},{"internalType":"string","name":"_gender","type":"string"}],"stateMutability":"view","type":"function"},{"inputs":[{"internalType":"uint256","name":"_studentId","type":"uint256"}],"name":"getPrimaryDetails","outputs":[{"internalType":"string","name":"_studentName","type":"string"},{"internalType":"uint256","name":"_dob","type":"uint256"},{"internalType":"uint256","name":"_rollNumber","type":"uint256"},{"internalType":"uint256","name":"_grade","type":"uint256"},{"internalType":"string","name":"_section","type":"string"},{"internalType":"string","name":"_email","type":"string"}],"stateMutability":"view","type":"function"},{"inputs":[],"name":"getRequestCount","outputs":[{"internalType":"uint256","name":"requestCount","type":"uint256"},{"internalType":"uint256","name":"pendingRequestCount","type":"uint256"},{"internalType":"uint256","name":"rejectedRequestCount","type":"uint256"},{"internalType":"uint256","name":"approvedRequestCount","type":"uint256"},{"internalType":"uint256","name":"closedRequestCount","type":"uint256"}],"stateMutability":"view","type":"function"},{"inputs":[{"internalType":"uint256","name":"_requestId","type":"uint256"}],"name":"getRequestData","outputs":[{"internalType":"uint256","name":"studentId","type":"uint256"},{"internalType":"string","name":"title","type":"string"},{"internalType":"string","name":"description","type":"string"},{"internalType":"string","name":"file","type":"string"},{"internalType":"string","name":"status","type":"string"}],"stateMutability":"view","type":"function"},{"inputs":[],"name":"getStudentCount","outputs":[{"internalType":"uint256","name":"studentCount","type":"uint256"}],"stateMutability":"view","type":"function"},{"inputs":[{"internalType":"uint256","name":"_grade","type":"uint256"},{"internalType":"string","name":"_section","type":"string"}],"name":"getStudentsInGradeSection","outputs":[{"internalType":"uint256","name":"studentCount","type":"uint256"}],"stateMutability":"view","type":"function"},{"inputs":[{"internalType":"uint256","name":"","type":"uint256"}],"name":"gradeToNumberOfStudents","outputs":[{"internalType":"uint256","name":"","type":"uint256"}],"stateMutability":"view","type":"function"},{"inputs":[{"internalType":"string","name":"_name","type":"string"},{"internalType":"string","name":"_password","type":"string"}],"name":"loginCheck","outputs":[{"internalType":"string","name":"_loginType","type":"string"},{"internalType":"uint256","name":"_id","type":"uint256"}],"stateMutability":"view","type":"function"},{"inputs":[],"name":"maleStudents","outputs":[{"internalType":"uint256","name":"","type":"uint256"}],"stateMutability":"view","type":"function"},{"inputs":[{"internalType":"uint256","name":"_studentId","type":"uint256"},{"internalType":"uint256","name":"_attendanceValue","type":"uint256"},{"internalType":"uint256","name":"_date","type":"uint256"}],"name":"markAttendance","outputs":[],"stateMutability":"nonpayable","type":"function"},{"inputs":[{"internalType":"uint256","name":"_studentId","type":"uint256"},{"internalType":"string","name":"_studentName","type":"string"},{"internalType":"uint256","name":"_dob","type":"uint256"},{"internalType":"uint256","name":"_grade","type":"uint256"},{"internalType":"string","name":"_section","type":"string"},{"internalType":"string","name":"_email","type":"string"}],"name":"modifyPrimaryDetails","outputs":[],"stateMutability":"nonpayable","type":"function"},{"inputs":[{"internalType":"uint256","name":"_studentId","type":"uint256"},{"internalType":"string","name":"_title","type":"string"},{"internalType":"string","name":"_file","type":"string"},{"internalType":"string","name":"_description","type":"string"}],"name":"raiseRequest","outputs":[],"stateMutability":"nonpayable","type":"function"},{"inputs":[{"internalType":"uint256","name":"_requestId","type":"uint256"}],"name":"rejectRequest","outputs":[],"stateMutability":"nonpayable","type":"function"},{"inputs":[{"internalType":"uint256","name":"_rollNumber","type":"uint256"}],"name":"rollNumberToStudentId","outputs":[{"internalType":"uint256","name":"studentId","type":"uint256"}],"stateMutability":"view","type":"function"},{"inputs":[{"internalType":"string","name":"_name","type":"string"},{"internalType":"uint256","name":"_class","type":"uint256"}],"name":"searchStudent","outputs":[],"stateMutability":"nonpayable","type":"function"},{"inputs":[{"internalType":"address","name":"_newAdmin","type":"address"}],"name":"setAdmin","outputs":[],"stateMutability":"nonpayable","type":"function"},{"inputs":[{"internalType":"uint256","name":"_class","type":"uint256"}],"name":"viewClassTimeTable","outputs":[{"internalType":"string","name":"timeTableFile","type":"string"},{"internalType":"uint256","name":"uploadTime","type":"uint256"}],"stateMutability":"view","type":"function"},{"inputs":[{"internalType":"uint256","name":"_class","type":"uint256"}],"name":"viewExamTimeTable","outputs":[{"internalType":"string","name":"timeTableFile","type":"string"},{"internalType":"uint256","name":"uploadTime","type":"uint256"}],"stateMutability":"view","type":"function"}],"bytecode":"60806040523480156200001157600080fd5b5060405162004b2438038062004b248339810160408190526200003491620000d6565b600080546001600160a01b03199081166001600160a01b039889161782556001805482169789169790971787556002805482169689169690961790955560038054861694881694909417909355600480548516928716929092179091556005805490931694169390931790556006819055338252600760205260409091205562000157565b80516001600160a01b0381168114620000d157600080fd5b919050565b60008060008060008060c08789031215620000f057600080fd5b620000fb87620000b9565b95506200010b60208801620000b9565b94506200011b60408801620000b9565b93506200012b60608801620000b9565b92506200013b60808801620000b9565b91506200014b60a08801620000b9565b90509295509295509295565b6149bd80620001676000396000f3fe608060405234801561001057600080fd5b50600436106102d65760003560e01c8063a44675c911610182578063ce4c433b116100e9578063d83463c9116100a2578063f0282b7f1161007c578063f0282b7f1461072a578063f15ec62d1461073d578063f735968c14610762578063fe9240fd1461078657600080fd5b8063d83463c9146106d1578063de793630146106e4578063efbe3c5c1461071757600080fd5b8063ce4c433b14610652578063cf83522f14610665578063d4cb7cf314610678578063d5b575611461068b578063d6e54627146106ab578063d7d1bbdb146106be57600080fd5b8063c010f0501161013b578063c010f050146105c4578063c29871d7146105d7578063c42f4ff0146105ea578063c4cdc4b6146105fd578063c59a59c11461061f578063c7c62f6f1461063f57600080fd5b8063a44675c91461054d578063ab236dc91461056f578063b01b580014610582578063b03e6db614610595578063b93a6942146105a8578063bf452c59146105b157600080fd5b806347f9009e11610241578063704b6c02116101fa5780637c663e4d116101d45780637c663e4d146104e157806380f7cdce146104f45780638322f556146105155780639cdf23161461052857600080fd5b8063704b6c02146104b357806370825742146104c6578063737892b2146104ce57600080fd5b806347f9009e146103f85780634bdce352146104265780634d7b41391461044857806358e2af961461045b57806361920ee11461046e57806361dea3931461049257600080fd5b80632b7832b3116102935780632b7832b31461037e5780632d7788db146103875780633157cbca1461039a5780633fad1834146103ad57806341e0c407146103dd578063469ff627146103e557600080fd5b80630c96262d146102db57806312506f4d146102f057806323415c111461031d57806328973f6c14610341578063299f81e01461035457806329ee6be114610367575b600080fd5b6102ee6102e936600461369c565b610799565b005b6103036102fe366004613708565b610864565b604051610314959493929190613779565b60405180910390f35b61033061032b366004613708565b61091f565b6040516103149594939291906137e6565b6102ee61034f366004613839565b6109c6565b6102ee61036236600461386b565b610a96565b61037060095481565b604051908152602001610314565b61037060065481565b6102ee610395366004613708565b610b5b565b6102ee6103a836600461386b565b610be7565b6103b5610c80565b604080519586526020860194909452928401919091526060830152608082015260a001610314565b610370610edc565b6103036103f3366004613708565b610f86565b61040b610406366004613708565b610fee565b60408051938452602084019290925290820152606001610314565b610439610434366004613708565b611098565b604051610314939291906138fc565b610370610456366004613921565b611230565b6102ee610469366004613943565b6112d7565b61048161047c366004613708565b6113a2565b604051610314959493929190613a1c565b6104a56104a0366004613708565b611631565b604051610314929190613a6a565b6102ee6104c1366004613a98565b6116dc565b61040b611794565b6103706104dc366004613708565b61184f565b6102ee6104ef366004613ac1565b6118c5565b610507610502366004613708565b611977565b604051610314929190613b18565b610507610523366004613b3a565b611c77565b61053b610536366004613708565b611cff565b60405161031496959493929190613b9d565b61056061055b366004613708565b611dbc565b60405161031493929190613bf5565b6102ee61057d366004613c14565b611f45565b6102ee610590366004613cad565b611ffa565b6103706105a3366004613d14565b612169565b61037060085481565b6102ee6105bf366004613d50565b6121c9565b6102ee6105d2366004613d7c565b612295565b6102ee6105e5366004613943565b6122cb565b6102ee6105f8366004613ddf565b612396565b61061061060b366004613708565b612683565b60405161031493929190613e83565b61037061062d366004613708565b600a6020526000908152604090205481565b61050761064d366004613708565b612727565b610370610660366004613708565b612936565b6102ee610673366004613ec6565b6129d5565b6102ee610686366004613f2d565b612c3b565b610370610699366004613a98565b60076020526000908152604090205481565b6102ee6106b936600461402c565b612d09565b6102ee6106cc366004613708565b612e6e565b6102ee6106df366004614070565b612ec9565b6106f76106f2366004613921565b612f78565b604080519485526020850193909352918301526060820152608001610314565b6104a5610725366004613a98565b6130b1565b6102ee610738366004613708565b6131c6565b61075061074b366004613708565b613221565b604051610314969594939291906140bf565b610775610770366004613708565b6132cb565b604051610314959493929190614120565b6102ee61079436600461414b565b61352c565b336000908152600760205260409020546107ce5760405162461bcd60e51b81526004016107c590614186565b60405180910390fd5b600054604051630c96262d60e01b81526001600160a01b0390911690630c96262d90610802908690869086906004016141b6565b600060405180830381600087803b15801561081c57600080fd5b505af1158015610830573d6000803e3d6000fd5b50506040518592507ff694e821b05c51c18480d7226b82e9efbb59d677b79e1e1dc9615f9d404885899150600090a2505050565b33600090815260076020526040902054606090819081908190819061089b5760405162461bcd60e51b81526004016107c590614186565b60005460405163126ea08560e31b8152600481018890526001600160a01b03909116906393750428906024015b600060405180830381865afa1580156108e5573d6000803e3d6000fd5b505050506040513d6000823e601f3d908101601f1916820160405261090d919081019061422e565b939a9299509097509550909350915050565b33600090815260076020526040812054606091829182919082906109555760405162461bcd60e51b81526004016107c590614186565b6000546040516370cfa98560e01b8152600481018890526001600160a01b03909116906370cfa98590602401600060405180830381865afa15801561099e573d6000803e3d6000fd5b505050506040513d6000823e601f3d908101601f1916820160405261090d91908101906142ff565b336000908152600760205260409020546109f25760405162461bcd60e51b81526004016107c590614186565b600054604051630a25cfdb60e21b8152600481018690526024810185905260448101849052606481018390526001600160a01b03909116906328973f6c90608401600060405180830381600087803b158015610a4d57600080fd5b505af1158015610a61573d6000803e3d6000fd5b50506040518692507f27ec561b71bc19abda53e994d8016dc6ecb4153b62627c4486877edf525dff289150600090a250505050565b33600090815260076020526040902054610ac25760405162461bcd60e51b81526004016107c590614186565b60005460405163014cfc0f60e51b81526001600160a01b039091169063299f81e090610af890879087908790879060040161439b565b600060405180830381600087803b158015610b1257600080fd5b505af1158015610b26573d6000803e3d6000fd5b50506040518692507f37ade32a1f0bf2b744c389543dda460e6674b8eddd14e145397b93e682d11ddb9150600090a250505050565b33600090815260076020526040902054610b875760405162461bcd60e51b81526004016107c590614186565b60048054604051632d7788db60e01b81529182018390526001600160a01b031690632d7788db906024015b600060405180830381600087803b158015610bcc57600080fd5b505af1158015610be0573d6000803e3d6000fd5b5050505050565b33600090815260076020526040902054610c135760405162461bcd60e51b81526004016107c590614186565b600480546040516318abe5e560e11b81526001600160a01b0390911691633157cbca91610c489188918891889188910161439b565b600060405180830381600087803b158015610c6257600080fd5b505af1158015610c76573d6000803e3d6000fd5b5050505050505050565b336000908152600760205260408120548190819081908190610cb45760405162461bcd60e51b81526004016107c590614186565b60048054604080516316eb6f9360e21b815290516001600160a01b0390921692635badbe4c9282820192602092908290030181865afa158015610cfb573d6000803e3d6000fd5b505050506040513d601f19601f82011682018060405250810190610d1f91906143e5565b600480546040805163e0abba5760e01b815290516001600160a01b039092169263e0abba579282820192602092908290030181865afa158015610d66573d6000803e3d6000fd5b505050506040513d601f19601f82011682018060405250810190610d8a91906143e5565b6004805460408051633117f3cb60e01b815290516001600160a01b0390921692633117f3cb9282820192602092908290030181865afa158015610dd1573d6000803e3d6000fd5b505050506040513d601f19601f82011682018060405250810190610df591906143e5565b60048054604080516306550b6160e01b815290516001600160a01b03909216926306550b619282820192602092908290030181865afa158015610e3c573d6000803e3d6000fd5b505050506040513d601f19601f82011682018060405250810190610e6091906143e5565b60048054604080516310e2247360e31b815290516001600160a01b039092169263871123989282820192602092908290030181865afa158015610ea7573d6000803e3d6000fd5b505050506040513d601f19601f82011682018060405250810190610ecb91906143e5565b945094509450945094509091929394565b33600090815260076020526040812054610f085760405162461bcd60e51b81526004016107c590614186565b60008060009054906101000a90046001600160a01b03166001600160a01b031663e581f9ee6040518163ffffffff1660e01b8152600401602060405180830381865afa158015610f5c573d6000803e3d6000fd5b505050506040513d601f19601f82011682018060405250810190610f8091906143e5565b91505090565b336000908152600760205260409020546060908190819081908190610fbd5760405162461bcd60e51b81526004016107c590614186565b60005460405163b1e6328d60e01b8152600481018890526001600160a01b039091169063b1e6328d906024016108c8565b336000908152600760205260408120548190819061101e5760405162461bcd60e51b81526004016107c590614186565b6000546040516330267d3160e11b8152600481018690526001600160a01b039091169063604cfa6290602401606060405180830381865afa158015611067573d6000803e3d6000fd5b505050506040513d601f19601f8201168201806040525081019061108b91906143fe565b9250925092509193909250565b336000908152600760205260408120546060919081906110ca5760405162461bcd60e51b81526004016107c590614186565b6001546040516369e5ae0f60e01b8152600481018690526000916001600160a01b0316906369e5ae0f90602401600060405180830381865afa158015611114573d6000803e3d6000fd5b505050506040513d6000823e601f3d908101601f1916820160405261113c919081019061442c565b60015460405163c493adc760e01b8152600481018890529192506000916001600160a01b039091169063c493adc790602401602060405180830381865afa15801561118b573d6000803e3d6000fd5b505050506040513d601f19601f820116820180604052508101906111af91906143e5565b60015460405163077f807f60e01b8152600481018990529192506000916001600160a01b039091169063077f807f90602401602060405180830381865afa1580156111fe573d6000803e3d6000fd5b505050506040513d601f19601f8201168201806040525081019061122291906143e5565b929791965091945092505050565b3360009081526007602052604081205461125c5760405162461bcd60e51b81526004016107c590614186565b600354604051634d7b413960e01b815260048101859052602481018490526001600160a01b0390911690634d7b413990604401602060405180830381865afa1580156112ac573d6000803e3d6000fd5b505050506040513d601f19601f820116820180604052508101906112d091906143e5565b9392505050565b336000908152600760205260409020546113035760405162461bcd60e51b81526004016107c590614186565b600054604051632c7157cb60e11b81526001600160a01b03909116906358e2af969061133d90899089908990899089908990600401614460565b600060405180830381600087803b15801561135757600080fd5b505af115801561136b573d6000803e3d6000fd5b50506040518892507f1fd5e283ee7b63af97e9eb74fe5b71fff204730f3a751db70f6e714e2d86231f9150600090a2505050505050565b33600090815260076020526040812054606091829182919081906113d85760405162461bcd60e51b81526004016107c590614186565b600154604051630a18baf360e21b8152600481018890526000916001600160a01b031690632862ebcc90602401600060405180830381865afa158015611422573d6000803e3d6000fd5b505050506040513d6000823e601f3d908101601f1916820160405261144a919081019061442c565b600154604051635eb86b9560e01b8152600481018a90529192506000916001600160a01b0390911690635eb86b9590602401600060405180830381865afa158015611499573d6000803e3d6000fd5b505050506040513d6000823e601f3d908101601f191682016040526114c1919081019061442c565b60015460405163ecde140560e01b8152600481018b90529192506000916001600160a01b039091169063ecde140590602401600060405180830381865afa158015611510573d6000803e3d6000fd5b505050506040513d6000823e601f3d908101601f19168201604052611538919081019061442c565b600154604051637dfa364960e01b8152600481018c90529192506000916001600160a01b0390911690637dfa364990602401602060405180830381865afa158015611587573d6000803e3d6000fd5b505050506040513d601f19601f820116820180604052508101906115ab91906143e5565b6001546040516367379d4960e11b8152600481018d90529192506000916001600160a01b039091169063ce6f3a9290602401602060405180830381865afa1580156115fa573d6000803e3d6000fd5b505050506040513d601f19601f8201168201806040525081019061161e91906143e5565b949b939a50919850965091945092505050565b3360009081526007602052604090205460609081906116625760405162461bcd60e51b81526004016107c590614186565b600054604051632c324bfb60e11b8152600481018590526001600160a01b039091169063586497f690602401600060405180830381865afa1580156116ab573d6000803e3d6000fd5b505050506040513d6000823e601f3d908101601f191682016040526116d3919081019061448b565b91509150915091565b336000908152600760205260409020546117085760405162461bcd60e51b81526004016107c590614186565b6001600160a01b038116600090815260076020526040902054156117655760405162461bcd60e51b815260206004820152601460248201527320b236b4b71030b63932b0b23c9030b23232b21760611b60448201526064016107c5565b6006546117739060016144fa565b60068190556001600160a01b03909116600090815260076020526040902055565b33600090815260076020526040812054819081906117c45760405162461bcd60e51b81526004016107c590614186565b60008060009054906101000a90046001600160a01b03166001600160a01b031663e581f9ee6040518163ffffffff1660e01b8152600401602060405180830381865afa158015611818573d6000803e3d6000fd5b505050506040513d601f19601f8201168201806040525081019061183c91906143e5565b6008546009549195509350915050909192565b3360009081526007602052604081205461187b5760405162461bcd60e51b81526004016107c590614186565b600080546040516339bc495960e11b8152600481018590526001600160a01b039091169063737892b290602401602060405180830381865afa1580156112ac573d6000803e3d6000fd5b600154604051637c663e4d60e01b81526000916001600160a01b031690637c663e4d906118fc908890889088908890600401614512565b6020604051808303816000875af115801561191b573d6000803e3d6000fd5b505050506040513d601f19601f8201168201806040525081019061193f91906143e5565b90508185827f60cf56e8cd40d30413f6042836cfd24582eaf95589047f0883aa7209ffee9e3360405160405180910390a45050505050565b33600090815260076020526040812054606091906119a75760405162461bcd60e51b81526004016107c590614186565b6001546040805163f57c649160e01b815290516000926001600160a01b03169163f57c64919160048083019260209291908290030181865afa1580156119f1573d6000803e3d6000fd5b505050506040513d601f19601f82011682018060405250810190611a1591906143e5565b9050805b8015611c40576001546040516369d5213b60e01b81526004810183905286916001600160a01b0316906369d5213b90602401602060405180830381865afa158015611a68573d6000803e3d6000fd5b505050506040513d601f19601f82011682018060405250810190611a8c91906143e5565b148015611b3f575060408051600081526020810191829052805182206001546361590d5560e01b90935260248201849052916001600160a01b0316906361590d5590604401600060405180830381865afa158015611aee573d6000803e3d6000fd5b505050506040513d6000823e601f3d908101601f19168201604052611b16919081019061442c565b604051602001611b269190614542565b6040516020818303038152906040528051906020012014155b15611c2e57600154604051634273db4960e11b8152600481018390526001600160a01b03909116906384e7b692906024015b600060405180830381865afa158015611b8e573d6000803e3d6000fd5b505050506040513d6000823e601f3d908101601f19168201604052611bb6919081019061442c565b600154604051634a0c230360e11b8152600481018490526001600160a01b0390911690639418460690602401602060405180830381865afa158015611bff573d6000803e3d6000fd5b505050506040513d601f19601f82011682018060405250810190611c2391906143e5565b935093505050915091565b80611c388161455e565b915050611a19565b5050604080518082019091526014815273151a5b59481d18589b19481b9bdd08199bdd5b9960621b60208201529360009350915050565b6002546040516341917aab60e11b81526060916000916001600160a01b0390911690638322f55690611caf9087908790600401613a6a565b600060405180830381865afa158015611ccc573d6000803e3d6000fd5b505050506040513d6000823e601f3d908101601f19168201604052611cf49190810190614575565b909590945092505050565b33600090815260076020526040812054606091908190819084908190611d375760405162461bcd60e51b81526004016107c590614186565b600054604051630c3a356b60e11b8152600481018990526001600160a01b03909116906318746ad690602401600060405180830381865afa158015611d80573d6000803e3d6000fd5b505050506040513d6000823e601f3d908101601f19168201604052611da891908101906145bb565b949c939b5091995097509550909350915050565b336000908152600760205260408120548190606090611ded5760405162461bcd60e51b81526004016107c590614186565b600154604051633cd9996960e11b8152600481018690526000916001600160a01b0316906379b332d290602401602060405180830381865afa158015611e37573d6000803e3d6000fd5b505050506040513d601f19601f82011682018060405250810190611e5b91906143e5565b60015460405163c7e674f160e01b8152600481018890529192506000916001600160a01b039091169063c7e674f190602401602060405180830381865afa158015611eaa573d6000803e3d6000fd5b505050506040513d601f19601f82011682018060405250810190611ece91906143e5565b600154604051636338c89f60e01b8152600481018990529192506000916001600160a01b0390911690636338c89f90602401600060405180830381865afa158015611f1d573d6000803e3d6000fd5b505050506040513d6000823e601f3d908101601f19168201604052611222919081019061442c565b60015460405163ab236dc960e01b81526000916001600160a01b03169063ab236dc990611f7e9089908990899089908990600401614651565b6020604051808303816000875af1158015611f9d573d6000803e3d6000fd5b505050506040513d601f19601f82011682018060405250810190611fc191906143e5565b90508186827f289ec7e79a70db9e5a21c4aa4bc91de5745406fdc5fa52a91224e0f0e8d674af60405160405180910390a4505050505050565b336000908152600760205260409020546120265760405162461bcd60e51b81526004016107c590614186565b600080546040516216036b60eb1b81526001600160a01b039091169063b01b580090612060908a908a908a908a908a908a90600401613b9d565b6020604051808303816000875af115801561207f573d6000803e3d6000fd5b505050506040513d601f19601f820116820180604052508101906120a391906143e5565b6000858152600a60205260409020549091506120c09060016144fa565b6000858152600a6020908152604080832093909355600b905281902090516120e9908590614542565b908152602001604051809103902054600161210491906144fa565b6000858152600b6020526040908190209051612121908690614542565b908152604051908190036020018120919091558490869083907f8914be557f12c8b4ec80d2de1bbd0ce352f4e74dae0fc548a0fd56ac07b6604490600090a450505050505050565b336000908152600760205260408120546121955760405162461bcd60e51b81526004016107c590614186565b6000838152600b60205260409081902090516121b2908490614542565b908152602001604051809103902054905092915050565b336000908152600760205260409020546121f55760405162461bcd60e51b81526004016107c590614186565b60035460405163bf452c5960e01b81526004810185905260248101849052604481018390526001600160a01b039091169063bf452c5990606401600060405180830381600087803b15801561224957600080fd5b505af115801561225d573d6000803e3d6000fd5b505050508082847f3c00a957d8b0ed88bf0ad892175a6f1b9fa89360787136e23a2ffbc5dc0baaf960405160405180910390a4505050565b600154604051630c010f0560e41b81526001600160a01b039091169063c010f05090610c489087908790879087906004016146a3565b336000908152600760205260409020546122f75760405162461bcd60e51b81526004016107c590614186565b60005460405163c29871d760e01b81526001600160a01b039091169063c29871d79061233190899089908990899089908990600401614460565b600060405180830381600087803b15801561234b57600080fd5b505af115801561235f573d6000803e3d6000fd5b50506040518892507f555b9bc60a3fb514d545019e80a123678a57e43247716ec4336633cde354edbb9150600090a2505050505050565b336000908152600760205260409020546123c25760405162461bcd60e51b81526004016107c590614186565b600080546040516370cfa98560e01b8152600481018990526001600160a01b03909116906370cfa98590602401600060405180830381865afa15801561240c573d6000803e3d6000fd5b505050506040513d6000823e601f3d908101601f1916820160405261243491908101906142ff565b94505050505060405160200161245490636d616c6560e01b815260040190565b604051602081830303815290604052805190602001208160405160200161247b9190614542565b60405160208183030381529060405280519060200120036124a95760016008546124a591906146e0565b6008555b6040516566656d616c6560d01b602082015260260160405160208183030381529060405280519060200120816040516020016124e59190614542565b604051602081830303815290604052805190602001200361251357600160095461250f91906146e0565b6009555b604051636d616c6560e01b6020820152602401604051602081830303815290604052805190602001208260405160200161254d9190614542565b604051602081830303815290604052805190602001200361257a576008546125769060016144fa565b6008555b6040516566656d616c6560d01b602082015260260160405160208183030381529060405280519060200120826040516020016125b69190614542565b60405160208183030381529060405280519060200120036125e3576009546125df9060016144fa565b6009555b600054604051630c42f4ff60e41b81526001600160a01b039091169063c42f4ff09061261d908a908a908a908a908a908a906004016146f7565b600060405180830381600087803b15801561263757600080fd5b505af115801561264b573d6000803e3d6000fd5b50506040518992507f98460a57b33a0a61d5e2a18ea00e19167a3164714e5c8d5e38f025e901943caf9150600090a250505050505050565b33600090815260076020526040902054606090819081906126b65760405162461bcd60e51b81526004016107c590614186565b60005460405163670a344760e11b8152600481018690526001600160a01b039091169063ce14688e90602401600060405180830381865afa1580156126ff573d6000803e3d6000fd5b505050506040513d6000823e601f3d908101601f1916820160405261108b9190810190614750565b33600090815260076020526040812054606091906127575760405162461bcd60e51b81526004016107c590614186565b6001546040805163f57c649160e01b815290516000926001600160a01b03169163f57c64919160048083019260209291908290030181865afa1580156127a1573d6000803e3d6000fd5b505050506040513d601f19601f820116820180604052508101906127c591906143e5565b9050805b8015611c40576001546040516369d5213b60e01b81526004810183905286916001600160a01b0316906369d5213b90602401602060405180830381865afa158015612818573d6000803e3d6000fd5b505050506040513d601f19601f8201168201806040525081019061283c91906143e5565b1480156128ee575060408051600081526020810191829052805182206001546361590d5560e01b90935260248201849052916001600160a01b0316906361590d5590604401600060405180830381865afa15801561289e573d6000803e3d6000fd5b505050506040513d6000823e601f3d908101601f191682016040526128c6919081019061442c565b6040516020016128d69190614542565b60405160208183030381529060405280519060200120145b1561292457600154604051634273db4960e11b8152600481018390526001600160a01b03909116906384e7b69290602401611b71565b8061292e8161455e565b9150506127c9565b336000908152600760205260408120546129625760405162461bcd60e51b81526004016107c590614186565b60055460405163205a812d60e01b8152600481018490526001600160a01b039091169063205a812d90602401602060405180830381865afa1580156129ab573d6000803e3d6000fd5b505050506040513d601f19601f820116820180604052508101906129cf91906143e5565b92915050565b33600090815260076020526040902054612a015760405162461bcd60e51b81526004016107c590614186565b60008054604051630c3a356b60e11b81526004810189905282916001600160a01b0316906318746ad690602401600060405180830381865afa158015612a4b573d6000803e3d6000fd5b505050506040513d6000823e601f3d908101601f19168201604052612a7391908101906145bb565b506000828152600a60205260409020549196509450612a9893506001925090506146e0565b6000838152600a6020526040808220929092558681522054612abb9060016144fa565b6000868152600a6020908152604080832093909355848252600b9052819020905160019190612aeb908490614542565b908152602001604051809103902054612b0491906146e0565b6000838152600b6020526040908190209051612b21908490614542565b908152602001604051809103902081905550600b600086815260200190815260200160002084604051612b549190614542565b9081526020016040518091039020546001612b6f91906144fa565b6000868152600b6020526040908190209051612b8c908790614542565b9081526040519081900360200181209190915560005463cf83522f60e01b82526001600160a01b03169063cf83522f90612bd4908b908b908b908b908b908b906004016147cd565b600060405180830381600087803b158015612bee57600080fd5b505af1158015612c02573d6000803e3d6000fd5b50506040518a92507f95a7de7c1a5b26b7c8a7b4e1cae89c1b0c5052cc08261bc53f1453304db9c6909150600090a25050505050505050565b33600090815260076020526040902054612c675760405162461bcd60e51b81526004016107c590614186565b60005460405163d4cb7cf360e01b81526001600160a01b039091169063d4cb7cf390612ca3908a908a908a908a908a908a908a90600401614804565b600060405180830381600087803b158015612cbd57600080fd5b505af1158015612cd1573d6000803e3d6000fd5b50506040518992507f4d517f724a0c226f093f63bc90d70937f9f164a08a14a7787d8c9fb09dc1b8079150600090a250505050505050565b33600090815260076020526040902054612d355760405162461bcd60e51b81526004016107c590614186565b6000612d3f610edc565b905060015b818111612e685760008054604051630c3a356b60e11b815260048101849052829182916001600160a01b03909116906318746ad690602401600060405180830381865afa158015612d99573d6000803e3d6000fd5b505050506040513d6000823e601f3d908101601f19168201604052612dc191908101906145bb565b50509350935050925086604051602001612ddb9190614542565b6040516020818303038152906040528051906020012083604051602001612e029190614542565b6040516020818303038152906040528051906020012003612e5257858103612e5257604051829085907f78a5f595baa9b25b7a730211c5cf18e46d8c54f6cd7558ab36ff8ef5cf76d19e90600090a35b5050508080612e609061488d565b915050612d44565b50505050565b33600090815260076020526040902054612e9a5760405162461bcd60e51b81526004016107c590614186565b6004805460405163d7d1bbdb60e01b81529182018390526001600160a01b03169063d7d1bbdb90602401610bb2565b60015460405163d83463c960e01b81526000916001600160a01b03169063d83463c990612efe908790879087906004016148a6565b6020604051808303816000875af1158015612f1d573d6000803e3d6000fd5b505050506040513d601f19601f82011682018060405250810190612f4191906143e5565b90508181857f0ad6d3adecc8b5201d9897b24894ee0092797e79be758b09f0df6eecb2d105b960405160405180910390a450505050565b33600090815260076020526040812054819081908190612faa5760405162461bcd60e51b81526004016107c590614186565b600554604051630963923160e31b815260048101879052602481018890526000916001600160a01b031690634b1c918890604401602060405180830381865afa158015612ffb573d6000803e3d6000fd5b505050506040513d601f19601f8201168201806040525081019061301f91906143e5565b600554604051630de7936360e41b81526004810183905260248101899052919250600091829182916001600160a01b039091169063de79363090604401606060405180830381865afa158015613079573d6000803e3d6000fd5b505050506040513d601f19601f8201168201806040525081019061309d91906143fe565b959c919b5099509397509295505050505050565b3360009081526007602052604090205460609081906130e25760405162461bcd60e51b81526004016107c590614186565b600254604051630dc600dd60e01b81526001600160a01b03858116600483015290911690630dc600dd90602401600060405180830381865afa15801561312c573d6000803e3d6000fd5b505050506040513d6000823e601f3d908101601f19168201604052613154919081019061442c565b6002546040516393a56af360e01b81526001600160a01b038681166004830152909116906393a56af390602401600060405180830381865afa15801561319e573d6000803e3d6000fd5b505050506040513d6000823e601f3d908101601f191682016040526116d3919081019061442c565b336000908152600760205260409020546131f25760405162461bcd60e51b81526004016107c590614186565b6004805460405163f0282b7f60e01b81529182018390526001600160a01b03169063f0282b7f90602401610bb2565b336000908152600760205260409020546060908190819081908190819061325a5760405162461bcd60e51b81526004016107c590614186565b6000546040516310eb2cf960e31b8152600481018990526001600160a01b039091169063875967c890602401600060405180830381865afa1580156132a3573d6000803e3d6000fd5b505050506040513d6000823e601f3d908101601f19168201604052611da891908101906148cf565b6004805460405163d354090760e01b815291820183905260009160609182918291829186916001600160a01b03169063d354090790602401602060405180830381865afa158015613320573d6000803e3d6000fd5b505050506040513d601f19601f8201168201806040525081019061334491906143e5565b600480546040516348452cc160e11b81529182018a90529192506000916001600160a01b03169063908a598290602401600060405180830381865afa158015613391573d6000803e3d6000fd5b505050506040513d6000823e601f3d908101601f191682016040526133b9919081019061442c565b60048054604051631322e9b560e11b81529182018b90529192506000916001600160a01b031690632645d36a90602401600060405180830381865afa158015613406573d6000803e3d6000fd5b505050506040513d6000823e601f3d908101601f1916820160405261342e919081019061442c565b600480546040516334adfed760e01b81529182018c90529192506000916001600160a01b0316906334adfed790602401600060405180830381865afa15801561347b573d6000803e3d6000fd5b505050506040513d6000823e601f3d908101601f191682016040526134a3919081019061442c565b6004805460405163c8e97b1360e01b81529182018d90529192506000916001600160a01b03169063c8e97b1390602401600060405180830381865afa1580156134f0573d6000803e3d6000fd5b505050506040513d6000823e601f3d908101601f19168201604052613518919081019061442c565b949b939a5091985092965091945092505050565b336000908152600760205260409020546135585760405162461bcd60e51b81526004016107c590614186565b60055460405163fe9240fd60e01b815260048101879052602481018690526044810185905260648101849052608481018390526001600160a01b039091169063fe9240fd9060a401600060405180830381600087803b1580156135ba57600080fd5b505af11580156135ce573d6000803e3d6000fd5b505050505050505050565b634e487b7160e01b600052604160045260246000fd5b604051601f8201601f191681016001600160401b0381118282101715613617576136176135d9565b604052919050565b60006001600160401b03821115613638576136386135d9565b50601f01601f191660200190565b600082601f83011261365757600080fd5b813561366a6136658261361f565b6135ef565b81815284602083860101111561367f57600080fd5b816020850160208301376000918101602001919091529392505050565b6000806000606084860312156136b157600080fd5b8335925060208401356001600160401b03808211156136cf57600080fd5b6136db87838801613646565b935060408601359150808211156136f157600080fd5b506136fe86828701613646565b9150509250925092565b60006020828403121561371a57600080fd5b5035919050565b60005b8381101561373c578181015183820152602001613724565b83811115612e685750506000910152565b60008151808452613765816020860160208601613721565b601f01601f19169290920160200192915050565b60a08152600061378c60a083018861374d565b828103602084015261379e818861374d565b905082810360408401526137b2818761374d565b905082810360608401526137c6818661374d565b905082810360808401526137da818561374d565b98975050505050505050565b60a0815260006137f960a083018861374d565b828103602084015261380b818861374d565b9050828103604084015261381f818761374d565b905084606084015282810360808401526137da818561374d565b6000806000806080858703121561384f57600080fd5b5050823594602084013594506040840135936060013592509050565b6000806000806080858703121561388157600080fd5b8435935060208501356001600160401b038082111561389f57600080fd5b6138ab88838901613646565b945060408701359150808211156138c157600080fd5b6138cd88838901613646565b935060608701359150808211156138e357600080fd5b506138f087828801613646565b91505092959194509250565b60608152600061390f606083018661374d565b60208301949094525060400152919050565b6000806040838503121561393457600080fd5b50508035926020909101359150565b60008060008060008060c0878903121561395c57600080fd5b8635955060208701356001600160401b038082111561397a57600080fd5b6139868a838b01613646565b9650604089013591508082111561399c57600080fd5b6139a88a838b01613646565b955060608901359150808211156139be57600080fd5b6139ca8a838b01613646565b945060808901359150808211156139e057600080fd5b6139ec8a838b01613646565b935060a0890135915080821115613a0257600080fd5b50613a0f89828a01613646565b9150509295509295509295565b60a081526000613a2f60a083018861374d565b8281036020840152613a41818861374d565b90508281036040840152613a55818761374d565b60608401959095525050608001529392505050565b604081526000613a7d604083018561374d565b8281036020840152613a8f818561374d565b95945050505050565b600060208284031215613aaa57600080fd5b81356001600160a01b03811681146112d057600080fd5b60008060008060808587031215613ad757600080fd5b843593506020850135925060408501356001600160401b03811115613afb57600080fd5b613b0787828801613646565b949793965093946060013593505050565b604081526000613b2b604083018561374d565b90508260208301529392505050565b60008060408385031215613b4d57600080fd5b82356001600160401b0380821115613b6457600080fd5b613b7086838701613646565b93506020850135915080821115613b8657600080fd5b50613b9385828601613646565b9150509250929050565b60c081526000613bb060c083018961374d565b8760208401528660408401528560608401528281036080840152613bd4818661374d565b905082810360a0840152613be8818561374d565b9998505050505050505050565b838152826020820152606060408201526000613a8f606083018461374d565b600080600080600060a08688031215613c2c57600080fd5b8535945060208601356001600160401b0380821115613c4a57600080fd5b613c5689838a01613646565b95506040880135915080821115613c6c57600080fd5b613c7889838a01613646565b94506060880135915080821115613c8e57600080fd5b50613c9b88828901613646565b95989497509295608001359392505050565b60008060008060008060c08789031215613cc657600080fd5b86356001600160401b0380821115613cdd57600080fd5b613ce98a838b01613646565b975060208901359650604089013595506060890135945060808901359150808211156139e057600080fd5b60008060408385031215613d2757600080fd5b8235915060208301356001600160401b03811115613d4457600080fd5b613b9385828601613646565b600080600060608486031215613d6557600080fd5b505081359360208301359350604090920135919050565b60008060008060808587031215613d9257600080fd5b8435935060208501356001600160401b0380821115613db057600080fd5b613dbc88838901613646565b94506040870135915080821115613dd257600080fd5b50613b0787828801613646565b60008060008060008060c08789031215613df857600080fd5b8635955060208701356001600160401b0380821115613e1657600080fd5b613e228a838b01613646565b96506040890135915080821115613e3857600080fd5b613e448a838b01613646565b95506060890135915080821115613e5a57600080fd5b613e668a838b01613646565b94506080890135935060a0890135915080821115613a0257600080fd5b606081526000613e96606083018661374d565b8281036020840152613ea8818661374d565b90508281036040840152613ebc818561374d565b9695505050505050565b60008060008060008060c08789031215613edf57600080fd5b8635955060208701356001600160401b0380821115613efd57600080fd5b613f098a838b01613646565b9650604089013595506060890135945060808901359150808211156139e057600080fd5b600080600080600080600060e0888a031215613f4857600080fd5b8735965060208801356001600160401b0380821115613f6657600080fd5b613f728b838c01613646565b975060408a0135915080821115613f8857600080fd5b613f948b838c01613646565b965060608a0135915080821115613faa57600080fd5b613fb68b838c01613646565b955060808a0135915080821115613fcc57600080fd5b613fd88b838c01613646565b945060a08a0135915080821115613fee57600080fd5b613ffa8b838c01613646565b935060c08a013591508082111561401057600080fd5b5061401d8a828b01613646565b91505092959891949750929550565b6000806040838503121561403f57600080fd5b82356001600160401b0381111561405557600080fd5b61406185828601613646565b95602094909401359450505050565b60008060006060848603121561408557600080fd5b8335925060208401356001600160401b038111156140a257600080fd5b6140ae86828701613646565b925050604084013590509250925092565b60c0815260006140d260c083018961374d565b82810360208401526140e4818961374d565b905082810360408401526140f8818861374d565b9050828103606084015261410c818761374d565b90508281036080840152613bd4818661374d565b85815260a06020820152600061413960a083018761374d565b82810360408401526137b2818761374d565b600080600080600060a0868803121561416357600080fd5b505083359560208501359550604085013594606081013594506080013592509050565b6020808252601690820152752cb7ba9030b932903737ba103a34329030b236b4b71760511b604082015260600190565b8381526060602082015260006141cf606083018561374d565b8281036040840152613ebc818561374d565b600082601f8301126141f257600080fd5b81516142006136658261361f565b81815284602083860101111561421557600080fd5b614226826020830160208701613721565b949350505050565b600080600080600060a0868803121561424657600080fd5b85516001600160401b038082111561425d57600080fd5b61426989838a016141e1565b9650602088015191508082111561427f57600080fd5b61428b89838a016141e1565b955060408801519150808211156142a157600080fd5b6142ad89838a016141e1565b945060608801519150808211156142c357600080fd5b6142cf89838a016141e1565b935060808801519150808211156142e557600080fd5b506142f2888289016141e1565b9150509295509295909350565b600080600080600060a0868803121561431757600080fd5b85516001600160401b038082111561432e57600080fd5b61433a89838a016141e1565b9650602088015191508082111561435057600080fd5b61435c89838a016141e1565b9550604088015191508082111561437257600080fd5b61437e89838a016141e1565b94506060880151935060808801519150808211156142e557600080fd5b8481526080602082015260006143b4608083018661374d565b82810360408401526143c6818661374d565b905082810360608401526143da818561374d565b979650505050505050565b6000602082840312156143f757600080fd5b5051919050565b60008060006060848603121561441357600080fd5b8351925060208401519150604084015190509250925092565b60006020828403121561443e57600080fd5b81516001600160401b0381111561445457600080fd5b614226848285016141e1565b86815260c06020820152600061447960c083018861374d565b82810360408401526140f8818861374d565b6000806040838503121561449e57600080fd5b82516001600160401b03808211156144b557600080fd5b6144c1868387016141e1565b935060208501519150808211156144d757600080fd5b50613b93858286016141e1565b634e487b7160e01b600052601160045260246000fd5b6000821982111561450d5761450d6144e4565b500190565b848152836020820152608060408201526000614531608083018561374d565b905082606083015295945050505050565b60008251614554818460208701613721565b9190910192915050565b60008161456d5761456d6144e4565b506000190190565b6000806040838503121561458857600080fd5b82516001600160401b0381111561459e57600080fd5b6145aa858286016141e1565b925050602083015190509250929050565b60008060008060008060c087890312156145d457600080fd5b86516001600160401b03808211156145eb57600080fd5b6145f78a838b016141e1565b9750602089015196506040890151955060608901519450608089015191508082111561462257600080fd5b61462e8a838b016141e1565b935060a089015191508082111561464457600080fd5b50613a0f89828a016141e1565b85815260a06020820152600061466a60a083018761374d565b828103604084015261467c818761374d565b90508281036060840152614690818661374d565b9150508260808301529695505050505050565b8481526080602082015260006146bc608083018661374d565b82810360408401526146ce818661374d565b91505082606083015295945050505050565b6000828210156146f2576146f26144e4565b500390565b86815260c06020820152600061471060c083018861374d565b8281036040840152614722818861374d565b90508281036060840152614736818761374d565b905084608084015282810360a0840152613be8818561374d565b60008060006060848603121561476557600080fd5b83516001600160401b038082111561477c57600080fd5b614788878388016141e1565b9450602086015191508082111561479e57600080fd5b6147aa878388016141e1565b935060408601519150808211156147c057600080fd5b506136fe868287016141e1565b86815260c0602082015260006147e660c083018861374d565b8660408401528560608401528281036080840152613bd4818661374d565b87815260e06020820152600061481d60e083018961374d565b828103604084015261482f818961374d565b90508281036060840152614843818861374d565b90508281036080840152614857818761374d565b905082810360a084015261486b818661374d565b905082810360c084015261487f818561374d565b9a9950505050505050505050565b60006001820161489f5761489f6144e4565b5060010190565b8381526060602082015260006148bf606083018561374d565b9050826040830152949350505050565b60008060008060008060c087890312156148e857600080fd5b86516001600160401b03808211156148ff57600080fd5b61490b8a838b016141e1565b9750602089015191508082111561492157600080fd5b61492d8a838b016141e1565b9650604089015191508082111561494357600080fd5b61494f8a838b016141e1565b9550606089015191508082111561496557600080fd5b6149718a838b016141e1565b9450608089015191508082111561462257600080fdfea26469706673582212207c2e8cfa92f2bc6be4d7d0f5732283ec5f5570c4b32dd38cd4b7ad276af4832b64736f6c634300080f0033","bytecodeSha1":"561213627bc87271884b88b7c9019ff272f77690","compiler":{"evm_version":"istanbul","optimizer":{"enabled":true,"runs":200},"version":"0.8.15+commit.e14f2714"},"contractName":"SchoolAdmin","language":"Solidity","natspec":{"kind":"dev","methods":{},"version":1},"opcodes":"PUSH1 0x80 PUSH1 0x40 MSTORE CALLVALUE DUP1 ISZERO PUSH2 0x10 JUMPI PUSH1 0x0 DUP1 REVERT JUMPDEST POP PUSH1 0x4 CALLDATASIZE LT PUSH2 0x2D6 JUMPI PUSH1 0x0 CALLDATALOAD PUSH1 0xE0 SHR DUP1 PUSH4 0xA44675C9 GT PUSH2 0x182 JUMPI DUP1 PUSH4 0xCE4C433B GT PUSH2 0xE9 JUMPI DUP1 PUSH4 0xD83463C9 GT PUSH2 0xA2 JUMPI DUP1 PUSH4 0xF0282B7F GT PUSH2 0x7C JUMPI DUP1 PUSH4 0xF0282B7F EQ PUSH2 0x72A JUMPI DUP1 PUSH4 0xF15EC62D EQ PUSH2 0x73D JUMPI DUP1 PUSH4 0xF735968C EQ PUSH2 0x762 JUMPI DUP1 PUSH4 0xFE9240FD EQ PUSH2 0x786 JUMPI PUSH1 0x0 DUP1 REVERT JUMPDEST DUP1 PUSH4 0xD83463C9 EQ PUSH2 0x6D1 JUMPI DUP1 PUSH4 0xDE793630 EQ PUSH2 0x6E4 JUMPI DUP1 PUSH4 0xEFBE3C5C EQ PUSH2 0x717 JUMPI PUSH1 0x0 DUP1 REVERT JUMPDEST DUP1 PUSH4 0xCE4C433B EQ PUSH2 0x652 JUMPI DUP1 PUSH4 0xCF83522F EQ PUSH2 0x665 JUMPI DUP1 PUSH4 0xD4CB7CF3 EQ PUSH2 0x678 JUMPI DUP1 PUSH4 0xD5B57561 EQ PUSH2 0x68B JUMPI DUP1 PUSH4 0xD6E54627 EQ PUSH2 0x6AB JUMPI DUP1 PUSH4 0xD7D1BBDB EQ PUSH2 0x6BE JUMPI PUSH1 0x0 DUP1 REVERT JUMPDEST DUP1 PUSH4 0xC010F050 GT PUSH2 0x13B JUMPI DUP1 PUSH4 0xC010F050 EQ PUSH2 0x5C4 JUMPI DUP1 PUSH4 0xC29871D7 EQ PUSH2 0x5D7 JUMPI DUP1 PUSH4 0xC42F4FF0 EQ PUSH2 0x5EA JUMPI DUP1 PUSH4 0xC4CDC4B6 EQ PUSH2 0x5FD JUMPI DUP1 PUSH4 0xC59A59C1 EQ PUSH2 0x61F JUMPI DUP1 PUSH4 0xC7C62F6F EQ PUSH2 0x63F JUMPI PUSH1 0x0 DUP1 REVERT JUMPDEST DUP1 PUSH4 0xA44675C9 EQ PUSH2 0x54D JUMPI DUP1 PUSH4 0xAB236DC9 EQ PUSH2 0x56F JUMPI DUP1 PUSH4 0xB01B5800 EQ PUSH2 0x582 JUMPI DUP1 PUSH4 0xB03E6DB6 EQ PUSH2 0x595 JUMPI DUP1 PUSH4 0xB93A6942 EQ PUSH2 0x5A8 JUMPI DUP1 PUSH4 0xBF452C59 EQ PUSH2 0x5B1 JUMPI PUSH1 0x0 DUP1 REVERT JUMPDEST DUP1 PUSH4 0x47F9009E GT PUSH2 0x241 JUMPI DUP1 PUSH4 0x704B6C02 GT PUSH2 0x1FA JUMPI DUP1 PUSH4 0x7C663E4D GT PUSH2 0x1D4 JUMPI DUP1 PUSH4 0x7C663E4D EQ PUSH2 0x4E1 JUMPI DUP1 PUSH4 0x80F7CDCE EQ PUSH2 0x4F4 JUMPI DUP1 PUSH4 0x8322F556 EQ PUSH2 0x515 JUMPI DUP1 PUSH4 0x9CDF2316 EQ PUSH2 0x528 JUMPI PUSH1 0x0 DUP1 REVERT JUMPDEST DUP1 PUSH4 0x704B6C02 EQ PUSH2 0x4B3 JUMPI DUP1 PUSH4 0x70825742 EQ PUSH2 0x4C6 JUMPI DUP1 PUSH4 0x737892B2 EQ PUSH2 0x4CE JUMPI PUSH1 0x0 DUP1 REVERT JUMPDEST DUP1 PUSH4 0x47F9009E EQ PUSH2 0x3F8 JUMPI DUP1 PUSH4 0x4BDCE352 EQ PUSH2 0x426 JUMPI DUP1 PUSH4 0x4D7B4139 EQ PUSH2 0x448 JUMPI DUP1 PUSH4 0x58E2AF96 EQ PUSH2 0x45B JUMPI DUP1 PUSH4 0x61920EE1 EQ PUSH2 0x46E JUMPI DUP1 PUSH4 0x61DEA393 EQ PUSH2 0x492 JUMPI PUSH1 0x0 DUP1 REVERT JUMPDEST DUP1 PUSH4 0x2B7832B3 GT PUSH2 0x293 JUMPI DUP1 PUSH4 0x2B7832B3 EQ PUSH2 0x37E JUMPI DUP1 PUSH4 0x2D7788DB EQ PUSH2 0x387 JUMPI DUP1 PUSH4 0x3157CBCA EQ PUSH2 0x39A JUMPI DUP1 PUSH4 0x3FAD1834 EQ PUSH2 0x3AD JUMPI DUP1 PUSH4 0x41E0C407 EQ PUSH2 0x3DD JUMPI DUP1 PUSH4 0x469FF627 EQ PUSH2 0x3E5 JUMPI PUSH1 0x0 DUP1 REVERT JUMPDEST DUP1 PUSH4 0xC96262D EQ PUSH2 0x2DB JUMPI DUP1 PUSH4 0x12506F4D EQ PUSH2 0x2F0 JUMPI DUP1 PUSH4 0x23415C11 EQ PUSH2 0x31D JUMPI DUP1 PUSH4 0x28973F6C EQ PUSH2 0x341 JUMPI DUP1 PUSH4 0x299F81E0 EQ PUSH2 0x354 JUMPI DUP1 PUSH4 0x29EE6BE1 EQ PUSH2 0x367 JUMPI JUMPDEST PUSH1 0x0 DUP1 REVERT JUMPDEST PUSH2 0x2EE PUSH2 0x2E9 CALLDATASIZE PUSH1 0x4 PUSH2 0x369C JUMP JUMPDEST PUSH2 0x799 JUMP JUMPDEST STOP JUMPDEST PUSH2 0x303 PUSH2 0x2FE CALLDATASIZE PUSH1 0x4 PUSH2 0x3708 JUMP JUMPDEST PUSH2 0x864 JUMP JUMPDEST PUSH1 0x40 MLOAD PUSH2 0x314 SWAP6 SWAP5 SWAP4 SWAP3 SWAP2 SWAP1 PUSH2 0x3779 JUMP JUMPDEST PUSH1 0x40 MLOAD DUP1 SWAP2 SUB SWAP1 RETURN JUMPDEST PUSH2 0x330 PUSH2 0x32B CALLDATASIZE PUSH1 0x4 PUSH2 0x3708 JUMP JUMPDEST PUSH2 0x91F JUMP JUMPDEST PUSH1 0x40 MLOAD PUSH2 0x314 SWAP6 SWAP5 SWAP4 SWAP3 SWAP2 SWAP1 PUSH2 0x37E6 JUMP JUMPDEST PUSH2 0x2EE PUSH2 0x34F CALLDATASIZE PUSH1 0x4 PUSH2 0x3839 JUMP JUMPDEST PUSH2 0x9C6 JUMP JUMPDEST PUSH2 0x2EE PUSH2 0x362 CALLDATASIZE PUSH1 0x4 PUSH2 0x386B JUMP JUMPDEST PUSH2 0xA96 JUMP JUMPDEST PUSH2 0x370 PUSH1 0x9 SLOAD DUP2 JUMP JUMPDEST PUSH1 0x40 MLOAD SWAP1 DUP2 MSTORE PUSH1 0x20 ADD PUSH2 0x314 JUMP JUMPDEST PUSH2 0x370 PUSH1 0x6 SLOAD DUP2 JUMP JUMPDEST PUSH2 0x2EE PUSH2 0x395 CALLDATASIZE PUSH1 0x4 PUSH2 0x3708 JUMP JUMPDEST PUSH2 0xB5B JUMP JUMPDEST PUSH2 0x2EE PUSH2 0x3A8 CALLDATASIZE PUSH1 0x4 PUSH2 0x386B JUMP JUMPDEST PUSH2 0xBE7 JUMP JUMPDEST PUSH2 0x3B5 PUSH2 0xC80 JUMP JUMPDEST PUSH1 0x40 DUP1 MLOAD SWAP6 DUP7 MSTORE PUSH1 0x20 DUP7 ADD SWAP5 SWAP1 SWAP5 MSTORE SWAP3 DUP5 ADD SWAP2 SWAP1 SWAP2 MSTORE PUSH1 0x60 DUP4 ADD MSTORE PUSH1 0x80 DUP3 ADD MSTORE PUSH1 0xA0 ADD PUSH2 0x314 JUMP JUMPDEST PUSH2 0x370 PUSH2 0xEDC JUMP JUMPDEST PUSH2 0x303 PUSH2 0x3F3 CALLDATASIZE PUSH1 0x4 PUSH2 0x3708 JUMP JUMPDEST PUSH2 0xF86 JUMP JUMPDEST PUSH2 0x40B PUSH2 0x406 CALLDATASIZE PUSH1 0x4 PUSH2 0x3708 JUMP JUMPDEST PUSH2 0xFEE JUMP JUMPDEST PUSH1 0x40 DUP1 MLOAD SWAP4 DUP5 MSTORE PUSH1 0x20 DUP5 ADD SWAP3 SWAP1 SWAP3 MSTORE SWAP1 DUP3 ADD MSTORE PUSH1 0x60 ADD PUSH2 0x314 JUMP JUMPDEST PUSH2 0x439 PUSH2 0x434 CALLDATASIZE PUSH1 0x4 PUSH2 0x3708 JUMP JUMPDEST PUSH2 0x1098 JUMP JUMPDEST PUSH1 0x40 MLOAD PUSH2 0x314 SWAP4 SWAP3 SWAP2 SWAP1 PUSH2 0x38FC JUMP JUMPDEST PUSH2 0x370 PUSH2 0x456 CALLDATASIZE PUSH1 0x4 PUSH2 0x3921 JUMP JUMPDEST PUSH2 0x1230 JUMP JUMPDEST PUSH2 0x2EE PUSH2 0x469 CALLDATASIZE PUSH1 0x4 PUSH2 0x3943 JUMP JUMPDEST PUSH2 0x12D7 JUMP JUMPDEST PUSH2 0x481 PUSH2 0x47C CALLDATASIZE PUSH1 0x4 PUSH2 0x3708 JUMP JUMPDEST PUSH2 0x13A2 JUMP JUMPDEST PUSH1 0x40 MLOAD PUSH2 0x314 SWAP6 SWAP5 SWAP4 SWAP3 SWAP2 SWAP1 PUSH2 0x3A1C JUMP JUMPDEST PUSH2 0x4A5 PUSH2 0x4A0 CALLDATASIZE PUSH1 0x4 PUSH2 0x3708 JUMP JUMPDEST PUSH2 0x1631 JUMP JUMPDEST PUSH1 0x40 MLOAD PUSH2 0x314 SWAP3 SWAP2 SWAP1 PUSH2 0x3A6A JUMP JUMPDEST PUSH2 0x2EE PUSH2 0x4C1 CALLDATASIZE PUSH1 0x4 PUSH2 0x3A98 JUMP JUMPDEST PUSH2 0x16DC JUMP JUMPDEST PUSH2 0x40B PUSH2 0x1794 JUMP JUMPDEST PUSH2 0x370 PUSH2 0x4DC CALLDATASIZE PUSH1 0x4 PUSH2 0x3708 JUMP JUMPDEST PUSH2 0x184F JUMP JUMPDEST PUSH2 0x2EE PUSH2 0x4EF CALLDATASIZE PUSH1 0x4 PUSH2 0x3AC1 JUMP JUMPDEST PUSH2 0x18C5 JUMP JUMPDEST PUSH2 0x507 PUSH2 0x502 CALLDATASIZE PUSH1 0x4 PUSH2 0x3708 JUMP JUMPDEST PUSH2 0x1977 JUMP JUMPDEST PUSH1 0x40 MLOAD PUSH2 0x314 SWAP3 SWAP2 SWAP1 PUSH2 0x3B18 JUMP JUMPDEST PUSH2 0x507 PUSH2 0x523 CALLDATASIZE PUSH1 0x4 PUSH2 0x3B3A JUMP JUMPDEST PUSH2 0x1C77 JUMP JUMPDEST PUSH2 0x53B PUSH2 0x536 CALLDATASIZE PUSH1 0x4 PUSH2 0x3708 JUMP JUMPDEST PUSH2 0x1CFF JUMP JUMPDEST PUSH1 0x40 MLOAD PUSH2 0x314 SWAP7 SWAP6 SWAP5 SWAP4 SWAP3 SWAP2 SWAP1 PUSH2 0x3B9D JUMP JUMPDEST PUSH2 0x560 PUSH2 0x55B CALLDATASIZE PUSH1 0x4 PUSH2 0x3708 JUMP JUMPDEST PUSH2 0x1DBC JUMP JUMPDEST PUSH1 0x40 MLOAD PUSH2 0x314 SWAP4 SWAP3 SWAP2 SWAP1 PUSH2 0x3BF5 JUMP JUMPDEST PUSH2 0x2EE PUSH2 0x57D CALLDATASIZE PUSH1 0x4 PUSH2 0x3C14 JUMP JUMPDEST PUSH2 0x1F45 JUMP JUMPDEST PUSH2 0x2EE PUSH2 0x590 CALLDATASIZE PUSH1 0x4 PUSH2 0x3CAD JUMP JUMPDEST PUSH2 0x1FFA JUMP JUMPDEST PUSH2 0x370 PUSH2 0x5A3 CALLDATASIZE PUSH1 0x4 PUSH2 0x3D14 JUMP JUMPDEST PUSH2 0x2169 JUMP JUMPDEST PUSH2 0x370 PUSH1 0x8 SLOAD DUP2 JUMP JUMPDEST PUSH2 0x2EE PUSH2 0x5BF CALLDATASIZE PUSH1 0x4 PUSH2 0x3D50 JUMP JUMPDEST PUSH2 0x21C9 JUMP JUMPDEST PUSH2 0x2EE PUSH2 0x5D2 CALLDATASIZE PUSH1 0x4 PUSH2 0x3D7C JUMP JUMPDEST PUSH2 0x2295 JUMP JUMPDEST PUSH2 0x2EE PUSH2 0x5E5 CALLDATASIZE PUSH1 0x4 PUSH2 0x3943 JUMP JUMPDEST PUSH2 0x22CB JUMP JUMPDEST PUSH2 0x2EE PUSH2 0x5F8 CALLDATASIZE PUSH1 0x4 PUSH2 0x3DDF JUMP JUMPDEST PUSH2 0x2396 JUMP JUMPDEST PUSH2 0x610 PUSH2 0x60B CALLDATASIZE PUSH1 0x4 PUSH2 0x3708 JUMP JUMPDEST PUSH2 0x2683 JUMP JUMPDEST PUSH1 0x40 MLOAD PUSH2 0x314 SWAP4 SWAP3 SWAP2 SWAP1 PUSH2 0x3E83 JUMP JUMPDEST PUSH2 0x370 PUSH2 0x62D CALLDATASIZE PUSH1 0x4 PUSH2 0x3708 JUMP JUMPDEST PUSH1 0xA PUSH1 0x20 MSTORE PUSH1 0x0 SWAP1 DUP2 MSTORE PUSH1 0x40 SWAP1 KECCAK256 SLOAD DUP2 JUMP JUMPDEST PUSH2 0x507 PUSH2 0x64D CALLDATASIZE PUSH1 0x4 PUSH2 0x3708 JUMP JUMPDEST PUSH2 0x2727 JUMP JUMPDEST PUSH2 0x370 PUSH2 0x660 CALLDATASIZE PUSH1 0x4 PUSH2 0x3708 JUMP JUMPDEST PUSH2 0x2936 JUMP JUMPDEST PUSH2 0x2EE PUSH2 0x673 CALLDATASIZE PUSH1 0x4 PUSH2 0x3EC6 JUMP JUMPDEST PUSH2 0x29D5 JUMP JUMPDEST PUSH2 0x2EE PUSH2 0x686 CALLDATASIZE PUSH1 0x4 PUSH2 0x3F2D JUMP JUMPDEST PUSH2 0x2C3B JUMP JUMPDEST PUSH2 0x370 PUSH2 0x699 CALLDATASIZE PUSH1 0x4 PUSH2 0x3A98 JUMP JUMPDEST PUSH1 0x7 PUSH1 0x20 MSTORE PUSH1 0x0 SWAP1 DUP2 MSTORE PUSH1 0x40 SWAP1 KECCAK256 SLOAD DUP2 JUMP JUMPDEST PUSH2 0x2EE PUSH2 0x6B9 CALLDATASIZE PUSH1 0x4 PUSH2 0x402C JUMP JUMPDEST PUSH2 0x2D09 JUMP JUMPDEST PUSH2 0x2EE PUSH2 0x6CC CALLDATASIZE PUSH1 0x4 PUSH2 0x3708 JUMP JUMPDEST PUSH2 0x2E6E JUMP JUMPDEST PUSH2 0x2EE PUSH2 0x6DF CALLDATASIZE PUSH1 0x4 PUSH2 0x4070 JUMP JUMPDEST PUSH2 0x2EC9 JUMP JUMPDEST PUSH2 0x6F7 PUSH2 0x6F2 CALLDATASIZE PUSH1 0x4 PUSH2 0x3921 JUMP JUMPDEST PUSH2 0x2F78 JUMP JUMPDEST PUSH1 0x40 DUP1 MLOAD SWAP5 DUP6 MSTORE PUSH1 0x20 DUP6 ADD SWAP4 SWAP1 SWAP4 MSTORE SWAP2 DUP4 ADD MSTORE PUSH1 0x60 DUP3 ADD MSTORE PUSH1 0x80 ADD PUSH2 0x314 JUMP JUMPDEST PUSH2 0x4A5 PUSH2 0x725 CALLDATASIZE PUSH1 0x4 PUSH2 0x3A98 JUMP JUMPDEST PUSH2 0x30B1 JUMP JUMPDEST PUSH2 0x2EE PUSH2 0x738 CALLDATASIZE PUSH1 0x4 PUSH2 0x3708 JUMP JUMPDEST PUSH2 0x31C6 JUMP JUMPDEST PUSH2 0x750 PUSH2 0x74B CALLDATASIZE PUSH1 0x4 PUSH2 0x3708 JUMP JUMPDEST PUSH2 0x3221 JUMP JUMPDEST PUSH1 0x40 MLOAD PUSH2 0x314 SWAP7 SWAP6 SWAP5 SWAP4 SWAP3 SWAP2 SWAP1 PUSH2 0x40BF JUMP JUMPDEST PUSH2 0x775 PUSH2 0x770 CALLDATASIZE PUSH1 0x4 PUSH2 0x3708 JUMP JUMPDEST PUSH2 0x32CB JUMP JUMPDEST PUSH1 0x40 MLOAD PUSH2 0x314 SWAP6 SWAP5 SWAP4 SWAP3 SWAP2 SWAP1 PUSH2 0x4120 JUMP JUMPDEST PUSH2 0x2EE PUSH2 0x794 CALLDATASIZE PUSH1 0x4 PUSH2 0x414B JUMP JUMPDEST PUSH2 0x352C JUMP JUMPDEST CALLER PUSH1 0x0 SWAP1 DUP2 MSTORE PUSH1 0x7 PUSH1 0x20 MSTORE PUSH1 0x40 SWAP1 KECCAK256 SLOAD PUSH2 0x7CE JUMPI PUSH1 0x40 MLOAD PUSH3 0x461BCD PUSH1 0xE5 SHL DUP2 MSTORE PUSH1 0x4 ADD PUSH2 0x7C5 SWAP1 PUSH2 0x4186 JUMP JUMPDEST PUSH1 0x40 MLOAD DUP1 SWAP2 SUB SWAP1 REVERT JUMPDEST PUSH1 0x0 SLOAD PUSH1 0x40 MLOAD PUSH4 0xC96262D PUSH1 0xE0 SHL DUP2 MSTORE PUSH1 0x1 PUSH1 0x1 PUSH1 0xA0 SHL SUB SWAP1 SWAP2 AND SWAP1 PUSH4 0xC96262D SWAP1 PUSH2 0x802 SWAP1 DUP7 SWAP1 DUP7 SWAP1 DUP7 SWAP1 PUSH1 0x4 ADD PUSH2 0x41B6 JUMP JUMPDEST PUSH1 0x0 PUSH1 0x40 MLOAD DUP1 DUP4 SUB DUP2 PUSH1 0x0 DUP8 DUP1 EXTCODESIZE ISZERO DUP1 ISZERO PUSH2 0x81C JUMPI PUSH1 0x0 DUP1 REVERT JUMPDEST POP GAS CALL ISZERO DUP1 ISZERO PUSH2 0x830 JUMPI RETURNDATASIZE PUSH1 0x0 DUP1 RETURNDATACOPY RETURNDATASIZE PUSH1 0x0 REVERT JUMPDEST POP POP PUSH1 0x40 MLOAD DUP6 SWAP3 POP PUSH32 0xF694E821B05C51C18480D7226B82E9EFBB59D677B79E1E1DC9615F9D40488589 SWAP2 POP PUSH1 0x0 SWAP1 LOG2 POP POP POP JUMP JUMPDEST CALLER PUSH1 0x0 SWAP1 DUP2 MSTORE PUSH1 0x7 PUSH1 0x20 MSTORE PUSH1 0x40 SWAP1 KECCAK256 SLOAD PUSH1 0x60 SWAP1 DUP2 SWAP1 DUP2 SWAP1 DUP2 SWAP1 DUP2 SWAP1 PUSH2 0x89B JUMPI PUSH1 0x40 MLOAD PUSH3 0x461BCD PUSH1 0xE5 SHL DUP2 MSTORE PUSH1 0x4 ADD PUSH2 0x7C5 SWAP1 PUSH2 0x4186 JUMP JUMPDEST PUSH1 0x0 SLOAD PUSH1 0x40 MLOAD PUSH4 0x126EA085 PUSH1 0xE3 SHL DUP2 MSTORE PUSH1 0x4 DUP2 ADD DUP9 SWAP1 MSTORE PUSH1 0x1 PUSH1 0x1 PUSH1 0xA0 SHL SUB SWAP1 SWAP2 AND SWAP1 PUSH4 0x93750428 SWAP1 PUSH1 0x24 ADD JUMPDEST PUSH1 0x0 PUSH1 0x40 MLOAD DUP1 DUP4 SUB DUP2 DUP7 GAS STATICCALL ISZERO DUP1 ISZERO PUSH2 0x8E5 JUMPI RETURNDATASIZE PUSH1 0x0 DUP1 RETURNDATACOPY RETURNDATASIZE PUSH1 0x0 REVERT JUMPDEST POP POP POP POP PUSH1 0x40 MLOAD RETURNDATASIZE PUSH1 0x0 DUP3 RETURNDATACOPY PUSH1 0x1F RETURNDATASIZE SWAP1 DUP2 ADD PUSH1 0x1F NOT AND DUP3 ADD PUSH1 0x40 MSTORE PUSH2 0x90D SWAP2 SWAP1 DUP2 ADD SWAP1 PUSH2 0x422E JUMP JUMPDEST SWAP4 SWAP11 SWAP3 SWAP10 POP SWAP1 SWAP8 POP SWAP6 POP SWAP1 SWAP4 POP SWAP2 POP POP JUMP JUMPDEST CALLER PUSH1 0x0 SWAP1 DUP2 MSTORE PUSH1 0x7 PUSH1 0x20 MSTORE PUSH1 0x40 DUP2 KECCAK256 SLOAD PUSH1 0x60 SWAP2 DUP3 SWAP2 DUP3 SWAP2 SWAP1 DUP3 SWAP1 PUSH2 0x955 JUMPI PUSH1 0x40 MLOAD PUSH3 0x461BCD PUSH1 0xE5 SHL DUP2 MSTORE PUSH1 0x4 ADD PUSH2 0x7C5 SWAP1 PUSH2 0x4186 JUMP JUMPDEST PUSH1 0x0 SLOAD PUSH1 0x40 MLOAD PUSH4 0x70CFA985 PUSH1 0xE0 SHL DUP2 MSTORE PUSH1 0x4 DUP2 ADD DUP9 SWAP1 MSTORE PUSH1 0x1 PUSH1 0x1 PUSH1 0xA0 SHL SUB SWAP1 SWAP2 AND SWAP1 PUSH4 0x70CFA985 SWAP1 PUSH1 0x24 ADD PUSH1 0x0 PUSH1 0x40 MLOAD DUP1 DUP4 SUB DUP2 DUP7 GAS STATICCALL ISZERO DUP1 ISZERO PUSH2 0x99E JUMPI RETURNDATASIZE PUSH1 0x0 DUP1 RETURNDATACOPY RETURNDATASIZE PUSH1 0x0 REVERT JUMPDEST POP POP POP POP PUSH1 0x40 MLOAD RETURNDATASIZE PUSH1 0x0 DUP3 RETURNDATACOPY PUSH1 0x1F RETURNDATASIZE SWAP1 DUP2 ADD PUSH1 0x1F NOT AND DUP3 ADD PUSH1 0x40 MSTORE PUSH2 0x90D SWAP2 SWAP1 DUP2 ADD SWAP1 PUSH2 0x42FF JUMP JUMPDEST CALLER PUSH1 0x0 SWAP1 DUP2 MSTORE PUSH1 0x7 PUSH1 0x20 MSTORE PUSH1 0x40 SWAP1 KECCAK256 SLOAD PUSH2 0x9F2 JUMPI PUSH1 0x40 MLOAD PUSH3 0x461BCD PUSH1 0xE5 SHL DUP2 MSTORE PUSH1 0x4 ADD PUSH2 0x7C5 SWAP1 PUSH2 0x4186 JUMP JUMPDEST PUSH1 0x0 SLOAD PUSH1 0x40 MLOAD PUSH4 0xA25CFDB PUSH1 0xE2 SHL DUP2 MSTORE PUSH1 0x4 DUP2 ADD DUP7 SWAP1 MSTORE PUSH1 0x24 DUP2 ADD DUP6 SWAP1 MSTORE PUSH1 0x44 DUP2 ADD DUP5 SWAP1 MSTORE PUSH1 0x64 DUP2 ADD DUP4 SWAP1 MSTORE PUSH1 0x1 PUSH1 0x1 PUSH1 0xA0 SHL SUB SWAP1 SWAP2 AND SWAP1 PUSH4 0x28973F6C SWAP1 PUSH1 0x84 ADD PUSH1 0x0 PUSH1 0x40 MLOAD DUP1 DUP4 SUB DUP2 PUSH1 0x0 DUP8 DUP1 EXTCODESIZE ISZERO DUP1 ISZERO PUSH2 0xA4D JUMPI PUSH1 0x0 DUP1 REVERT JUMPDEST POP GAS CALL ISZERO DUP1 ISZERO PUSH2 0xA61 JUMPI RETURNDATASIZE PUSH1 0x0 DUP1 RETURNDATACOPY RETURNDATASIZE PUSH1 0x0 REVERT JUMPDEST POP POP PUSH1 0x40 MLOAD DUP7 SWAP3 POP PUSH32 0x27EC561B71BC19ABDA53E994D8016DC6ECB4153B62627C4486877EDF525DFF28 SWAP2 POP PUSH1 0x0 SWAP1 LOG2 POP POP POP POP JUMP JUMPDEST CALLER PUSH1 0x0 SWAP1 DUP2 MSTORE PUSH1 0x7 PUSH1 0x20 MSTORE PUSH1 0x40 SWAP1 KECCAK256 SLOAD PUSH2 0xAC2 JUMPI PUSH1 0x40 MLOAD PUSH3 0x461BCD PUSH1 0xE5 SHL DUP2 MSTORE PUSH1 0x4 ADD PUSH2 0x7C5 SWAP1 PUSH2 0x4186 JUMP JUMPDEST PUSH1 0x0 SLOAD PUSH1 0x40 MLOAD PUSH4 0x14CFC0F PUSH1 0xE5 SHL DUP2 MSTORE PUSH1 0x1 PUSH1 0x1 PUSH1 0xA0 SHL SUB SWAP1 SWAP2 AND SWAP1 PUSH4 0x299F81E0 SWAP1 PUSH2 0xAF8 SWAP1 DUP8 SWAP1 DUP8 SWAP1 DUP8 SWAP1 DUP8 SWAP1 PUSH1 0x4 ADD PUSH2 0x439B JUMP JUMPDEST PUSH1 0x0 PUSH1 0x40 MLOAD DUP1 DUP4 SUB DUP2 PUSH1 0x0 DUP8 DUP1 EXTCODESIZE ISZERO DUP1 ISZERO PUSH2 0xB12 JUMPI PUSH1 0x0 DUP1 REVERT JUMPDEST POP GAS CALL ISZERO DUP1 ISZERO PUSH2 0xB26 JUMPI RETURNDATASIZE PUSH1 0x0 DUP1 RETURNDATACOPY RETURNDATASIZE PUSH1 0x0 REVERT JUMPDEST POP POP PUSH1 0x40 MLOAD DUP7 SWAP3 POP PUSH32 0x37ADE32A1F0BF2B744C389543DDA460E6674B8EDDD14E145397B93E682D11DDB SWAP2 POP PUSH1 0x0 SWAP1 LOG2 POP POP POP POP JUMP JUMPDEST CALLER PUSH1 0x0 SWAP1 DUP2 MSTORE PUSH1 0x7 PUSH1 0x20 MSTORE PUSH1 0x40 SWAP1 KECCAK256 SLOAD PUSH2 0xB87 JUMPI PUSH1 0x40 MLOAD PUSH3 0x461BCD PUSH1 0xE5 SHL DUP2 MSTORE PUSH1 0x4 ADD PUSH2 0x7C5 SWAP1 PUSH2 0x4186 JUMP JUMPDEST PUSH1 0x4 DUP1 SLOAD PUSH1 0x40 MLOAD PUSH4 0x2D7788DB PUSH1 0xE0 SHL DUP2 MSTORE SWAP2 DUP3 ADD DUP4 SWAP1 MSTORE PUSH1 0x1 PUSH1 0x1 PUSH1 0xA0 SHL SUB AND SWAP1 PUSH4 0x2D7788DB SWAP1 PUSH1 0x24 ADD JUMPDEST PUSH1 0x0 PUSH1 0x40 MLOAD DUP1 DUP4 SUB DUP2 PUSH1 0x0 DUP8 DUP1 EXTCODESIZE ISZERO DUP1 ISZERO PUSH2 0xBCC JUMPI PUSH1 0x0 DUP1 REVERT JUMPDEST POP GAS CALL ISZERO DUP1 ISZERO PUSH2 0xBE0 JUMPI RETURNDATASIZE PUSH1 0x0 DUP1 RETURNDATACOPY RETURNDATASIZE PUSH1 0x0 REVERT JUMPDEST POP POP POP POP POP JUMP JUMPDEST CALLER PUSH1 0x0 SWAP1 DUP2 MSTORE PUSH1 0x7 PUSH1 0x20 MSTORE PUSH1 0x40 SWAP1 KECCAK256 SLOAD PUSH2 0xC13 JUMPI PUSH1 0x40 MLOAD PUSH3 0x461BCD PUSH1 0xE5 SHL DUP2 MSTORE PUSH1 0x4 ADD PUSH2 0x7C5 SWAP1 PUSH2 0x4186 JUMP JUMPDEST PUSH1 0x4 DUP1 SLOAD PUSH1 0x40 MLOAD PUSH4 0x18ABE5E5 PUSH1 0xE1 SHL DUP2 MSTORE PUSH1 0x1 PUSH1 0x1 PUSH1 0xA0 SHL SUB SWAP1 SWAP2 AND SWAP2 PUSH4 0x3157CBCA SWAP2 PUSH2 0xC48 SWAP2 DUP9 SWAP2 DUP9 SWAP2 DUP9 SWAP2 DUP9 SWAP2 ADD PUSH2 0x439B JUMP JUMPDEST PUSH1 0x0 PUSH1 0x40 MLOAD DUP1 DUP4 SUB DUP2 PUSH1 0x0 DUP8 DUP1 EXTCODESIZE ISZERO DUP1 ISZERO PUSH2 0xC62 JUMPI PUSH1 0x0 DUP1 REVERT JUMPDEST POP GAS CALL ISZERO DUP1 ISZERO PUSH2 0xC76 JUMPI RETURNDATASIZE PUSH1 0x0 DUP1 RETURNDATACOPY RETURNDATASIZE PUSH1 0x0 REVERT JUMPDEST POP POP POP POP POP POP POP POP JUMP JUMPDEST CALLER PUSH1 0x0 SWAP1 DUP2 MSTORE PUSH1 0x7 PUSH1 0x20 MSTORE PUSH1 0x40 DUP2 KECCAK256 SLOAD DUP2 SWAP1 DUP2 SWAP1 DUP2 SWAP1 DUP2 SWAP1 PUSH2 0xCB4 JUMPI PUSH1 0x40 MLOAD PUSH3 0x461BCD PUSH1 0xE5 SHL DUP2 MSTORE PUSH1 0x4 ADD PUSH2 0x7C5 SWAP1 PUSH2 0x4186 JUMP JUMPDEST PUSH1 0x4 DUP1 SLOAD PUSH1 0x40 DUP1 MLOAD PUSH4 0x16EB6F93 PUSH1 0xE2 SHL DUP2 MSTORE SWAP1 MLOAD PUSH1 0x1 PUSH1 0x1 PUSH1 0xA0 SHL SUB SWAP1 SWAP3 AND SWAP3 PUSH4 0x5BADBE4C SWAP3 DUP3 DUP3 ADD SWAP3 PUSH1 0x20 SWAP3 SWAP1 DUP3 SWAP1 SUB ADD DUP2 DUP7 GAS STATICCALL ISZERO DUP1 ISZERO PUSH2 0xCFB JUMPI RETURNDATASIZE PUSH1 0x0 DUP1 RETURNDATACOPY RETURNDATASIZE PUSH1 0x0 REVERT JUMPDEST POP POP POP POP PUSH1 0x40 MLOAD RETURNDATASIZE PUSH1 0x1F NOT PUSH1 0x1F DUP3 ADD AND DUP3 ADD DUP1 PUSH1 0x40 MSTORE POP DUP2 ADD SWAP1 PUSH2 0xD1F SWAP2 SWAP1 PUSH2 0x43E5 JUMP JUMPDEST PUSH1 0x4 DUP1 SLOAD PUSH1 0x40 DUP1 MLOAD PUSH4 0xE0ABBA57 PUSH1 0xE0 SHL DUP2 MSTORE SWAP1 MLOAD PUSH1 0x1 PUSH1 0x1 PUSH1 0xA0 SHL SUB SWAP1 SWAP3 AND SWAP3 PUSH4 0xE0ABBA57 SWAP3 DUP3 DUP3 ADD SWAP3 PUSH1 0x20 SWAP3 SWAP1 DUP3 SWAP1 SUB ADD DUP2 DUP7 GAS STATICCALL ISZERO DUP1 ISZERO PUSH2 0xD66 JUMPI RETURNDATASIZE PUSH1 0x0 DUP1 RETURNDATACOPY RETURNDATASIZE PUSH1 0x0 REVERT JUMPDEST POP POP POP POP PUSH1 0x40 MLOAD RETURNDATASIZE PUSH1 0x1F NOT PUSH1 0x1F DUP3 ADD AND DUP3 ADD DUP1 PUSH1 0x40 MSTORE POP DUP2 ADD SWAP1 PUSH2 0xD8A SWAP2 SWAP1 PUSH2 0x43E5 JUMP JUMPDEST PUSH1 0x4 DUP1 SLOAD PUSH1 0x40 DUP1 MLOAD PUSH4 0x3117F3CB PUSH1 0xE0 SHL DUP2 MSTORE SWAP1 MLOAD PUSH1 0x1 PUSH1 0x1 PUSH1 0xA0 SHL SUB SWAP1 SWAP3 AND SWAP3 PUSH4 0x3117F3CB SWAP3 DUP3 DUP3 ADD SWAP3 PUSH1 0x20 SWAP3 SWAP1 DUP3 SWAP1 SUB ADD DUP2 DUP7 GAS STATICCALL ISZERO DUP1 ISZERO PUSH2 0xDD1 JUMPI RETURNDATASIZE PUSH1 0x0 DUP1 RETURNDATACOPY RETURNDATASIZE PUSH1 0x0 REVERT JUMPDEST POP POP POP POP PUSH1 0x40 MLOAD RETURNDATASIZE PUSH1 0x1F NOT PUSH1 0x1F DUP3 ADD AND DUP3 ADD DUP1 PUSH1 0x40 MSTORE POP DUP2 ADD SWAP1 PUSH2 0xDF5 SWAP2 SWAP1 PUSH2 0x43E5 JUMP JUMPDEST PUSH1 0x4 DUP1 SLOAD PUSH1 0x40 DUP1 MLOAD PUSH4 0x6550B61 PUSH1 0xE0 SHL DUP2 MSTORE SWAP1 MLOAD PUSH1 0x1 PUSH1 0x1 PUSH1 0xA0 SHL SUB SWAP1 SWAP3 AND SWAP3 PUSH4 0x6550B61 SWAP3 DUP3 DUP3 ADD SWAP3 PUSH1 0x20 SWAP3 SWAP1 DUP3 SWAP1 SUB ADD DUP2 DUP7 GAS STATICCALL ISZERO DUP1 ISZERO PUSH2 0xE3C JUMPI RETURNDATASIZE PUSH1 0x0 DUP1 RETURNDATACOPY RETURNDATASIZE PUSH1 0x0 REVERT JUMPDEST POP POP POP POP PUSH1 0x40 MLOAD RETURNDATASIZE PUSH1 0x1F NOT PUSH1 0x1F DUP3 ADD AND DUP3 ADD DUP1 PUSH1 0x40 MSTORE POP DUP2 ADD SWAP1 PUSH2 0xE60 SWAP2 SWAP1 PUSH2 0x43E5 JUMP JUMPDEST PUSH1 0x4 DUP1 SLOAD PUSH1 0x40 DUP1 MLOAD PUSH4 0x10E22473 PUSH1 0xE3 SHL DUP2 MSTORE SWAP1 MLOAD PUSH1 0x1 PUSH1 0x1 PUSH1 0xA0 SHL SUB SWAP1 SWAP3 AND SWAP3 PUSH4 0x87112398 SWAP3 DUP3 DUP3 ADD SWAP3 PUSH1 0x20 SWAP3 SWAP1 DUP3 SWAP1 SUB ADD DUP2 DUP7 GAS STATICCALL ISZERO DUP1 ISZERO PUSH2 0xEA7 JUMPI RETURNDATASIZE PUSH1 0x0 DUP1 RETURNDATACOPY RETURNDATASIZE PUSH1 0x0 REVERT JUMPDEST POP POP POP POP PUSH1 0x40 MLOAD RETURNDATASIZE PUSH1 0x1F NOT PUSH1 0x1F DUP3 ADD AND DUP3 ADD DUP1 PUSH1 0x40 MSTORE POP DUP2 ADD SWAP1 PUSH2 0xECB SWAP2 SWAP1 PUSH2 0x43E5 JUMP JUMPDEST SWAP5 POP SWAP5 POP SWAP5 POP SWAP5 POP SWAP5 POP SWAP1 SWAP2 SWAP3 SWAP4 SWAP5 JUMP JUMPDEST CALLER PUSH1 0x0 SWAP1 DUP2 MSTORE PUSH1 0x7 PUSH1 0x20 MSTORE PUSH1 0x40 DUP2 KECCAK256 SLOAD PUSH2 0xF08 JUMPI PUSH1 0x40 MLOAD PUSH3 0x461BCD PUSH1 0xE5 SHL DUP2 MSTORE PUSH1 0x4 ADD PUSH2 0x7C5 SWAP1 PUSH2 0x4186 JUMP JUMPDEST PUSH1 0x0 DUP1 PUSH1 0x0 SWAP1 SLOAD SWAP1 PUSH2 0x100 EXP SWAP1 DIV PUSH1 0x1 PUSH1 0x1 PUSH1 0xA0 SHL SUB AND PUSH1 0x1 PUSH1 0x1 PUSH1 0xA0 SHL SUB AND PUSH4 0xE581F9EE PUSH1 0x40 MLOAD DUP2 PUSH4 0xFFFFFFFF AND PUSH1 0xE0 SHL DUP2 MSTORE PUSH1 0x4 ADD PUSH1 0x20 PUSH1 0x40 MLOAD DUP1 DUP4 SUB DUP2 DUP7 GAS STATICCALL ISZERO DUP1 ISZERO PUSH2 0xF5C JUMPI RETURNDATASIZE PUSH1 0x0 DUP1 RETURNDATACOPY RETURNDATASIZE PUSH1 0x0 REVERT JUMPDEST POP POP POP POP PUSH1 0x40 MLOAD RETURNDATASIZE PUSH1 0x1F NOT PUSH1 0x1F DUP3 ADD AND DUP3 ADD DUP1 PUSH1 0x40 MSTORE POP DUP2 ADD SWAP1 PUSH2 0xF80 SWAP2 SWAP1 PUSH2 0x43E5 JUMP JUMPDEST SWAP2 POP POP SWAP1 JUMP JUMPDEST CALLER PUSH1 0x0 SWAP1 DUP2 MSTORE PUSH1 0x7 PUSH1 0x20 MSTORE PUSH1 0x40 SWAP1 KECCAK256 SLOAD PUSH1 0x60 SWAP1 DUP2 SWAP1 DUP2 SWAP1 DUP2 SWAP1 DUP2 SWAP1 PUSH2 0xFBD JUMPI PUSH1 0x40 MLOAD PUSH3 0x461BCD PUSH1 0xE5 SHL DUP2 MSTORE PUSH1 0x4 ADD PUSH2 0x7C5 SWAP1 PUSH2 0x4186 JUMP JUMPDEST PUSH1 0x0 SLOAD PUSH1 0x40 MLOAD PUSH4 0xB1E6328D PUSH1 0xE0 SHL DUP2 MSTORE PUSH1 0x4 DUP2 ADD DUP9 SWAP1 MSTORE PUSH1 0x1 PUSH1 0x1 PUSH1 0xA0 SHL SUB SWAP1 SWAP2 AND SWAP1 PUSH4 0xB1E6328D SWAP1 PUSH1 0x24 ADD PUSH2 0x8C8 JUMP JUMPDEST CALLER PUSH1 0x0 SWAP1 DUP2 MSTORE PUSH1 0x7 PUSH1 0x20 MSTORE PUSH1 0x40 DUP2 KECCAK256 SLOAD DUP2 SWAP1 DUP2 SWAP1 PUSH2 0x101E JUMPI PUSH1 0x40 MLOAD PUSH3 0x461BCD PUSH1 0xE5 SHL DUP2 MSTORE PUSH1 0x4 ADD PUSH2 0x7C5 SWAP1 PUSH2 0x4186 JUMP JUMPDEST PUSH1 0x0 SLOAD PUSH1 0x40 MLOAD PUSH4 0x30267D31 PUSH1 0xE1 SHL DUP2 MSTORE PUSH1 0x4 DUP2 ADD DUP7 SWAP1 MSTORE PUSH1 0x1 PUSH1 0x1 PUSH1 0xA0 SHL SUB SWAP1 SWAP2 AND SWAP1 PUSH4 0x604CFA62 SWAP1 PUSH1 0x24 ADD PUSH1 0x60 PUSH1 0x40 MLOAD DUP1 DUP4 SUB DUP2 DUP7 GAS STATICCALL ISZERO DUP1 ISZERO PUSH2 0x1067 JUMPI RETURNDATASIZE PUSH1 0x0 DUP1 RETURNDATACOPY RETURNDATASIZE PUSH1 0x0 REVERT JUMPDEST POP POP POP POP PUSH1 0x40 MLOAD RETURNDATASIZE PUSH1 0x1F NOT PUSH1 0x1F DUP3 ADD AND DUP3 ADD DUP1 PUSH1 0x40 MSTORE POP DUP2 ADD SWAP1 PUSH2 0x108B SWAP2 SWAP1 PUSH2 0x43FE JUMP JUMPDEST SWAP3 POP SWAP3 POP SWAP3 POP SWAP2 SWAP4 SWAP1 SWAP3 POP JUMP JUMPDEST CALLER PUSH1 0x0 SWAP1 DUP2 MSTORE PUSH1 0x7 PUSH1 0x20 MSTORE PUSH1 0x40 DUP2 KECCAK256 SLOAD PUSH1 0x60 SWAP2 SWAP1 DUP2 SWAP1 PUSH2 0x10CA JUMPI PUSH1 0x40 MLOAD PUSH3 0x461BCD PUSH1 0xE5 SHL DUP2 MSTORE PUSH1 0x4 ADD PUSH2 0x7C5 SWAP1 PUSH2 0x4186 JUMP JUMPDEST PUSH1 0x1 SLOAD PUSH1 0x40 MLOAD PUSH4 0x69E5AE0F PUSH1 0xE0 SHL DUP2 MSTORE PUSH1 0x4 DUP2 ADD DUP7 SWAP1 MSTORE PUSH1 0x0 SWAP2 PUSH1 0x1 PUSH1 0x1 PUSH1 0xA0 SHL SUB AND SWAP1 PUSH4 0x69E5AE0F SWAP1 PUSH1 0x24 ADD PUSH1 0x0 PUSH1 0x40 MLOAD DUP1 DUP4 SUB DUP2 DUP7 GAS STATICCALL ISZERO DUP1 ISZERO PUSH2 0x1114 JUMPI RETURNDATASIZE PUSH1 0x0 DUP1 RETURNDATACOPY RETURNDATASIZE PUSH1 0x0 REVERT JUMPDEST POP POP POP POP PUSH1 0x40 MLOAD RETURNDATASIZE PUSH1 0x0 DUP3 RETURNDATACOPY PUSH1 0x1F RETURNDATASIZE SWAP1 DUP2 ADD PUSH1 0x1F NOT AND DUP3 ADD PUSH1 0x40 MSTORE PUSH2 0x113C SWAP2 SWAP1 DUP2 ADD SWAP1 PUSH2 0x442C JUMP JUMPDEST PUSH1 0x1 SLOAD PUSH1 0x40 MLOAD PUSH4 0xC493ADC7 PUSH1 0xE0 SHL DUP2 MSTORE PUSH1 0x4 DUP2 ADD DUP9 SWAP1 MSTORE SWAP2 SWAP3 POP PUSH1 0x0 SWAP2 PUSH1 0x1 PUSH1 0x1 PUSH1 0xA0 SHL SUB SWAP1 SWAP2 AND SWAP1 PUSH4 0xC493ADC7 SWAP1 PUSH1 0x24 ADD PUSH1 0x20 PUSH1 0x40 MLOAD DUP1 DUP4 SUB DUP2 DUP7 GAS STATICCALL ISZERO DUP1 ISZERO PUSH2 0x118B JUMPI RETURNDATASIZE PUSH1 0x0 DUP1 RETURNDATACOPY RETURNDATASIZE PUSH1 0x0 REVERT JUMPDEST POP POP POP POP PUSH1 0x40 MLOAD RETURNDATASIZE PUSH1 0x1F NOT PUSH1 0x1F DUP3 ADD AND DUP3 ADD DUP1 PUSH1 0x40 MSTORE POP DUP2 ADD SWAP1 PUSH2 0x11AF SWAP2 SWAP1 PUSH2 0x43E5 JUMP JUMPDEST PUSH1 0x1 SLOAD PUSH1 0x40 MLOAD PUSH4 0x77F807F PUSH1 0xE0 SHL DUP2 MSTORE PUSH1 0x4 DUP2 ADD DUP10 SWAP1 MSTORE SWAP2 SWAP3 POP PUSH1 0x0 SWAP2 PUSH1 0x1 PUSH1 0x1 PUSH1 0xA0 SHL SUB SWAP1 SWAP2 AND SWAP1 PUSH4 0x77F807F SWAP1 PUSH1 0x24 ADD PUSH1 0x20 PUSH1 0x40 MLOAD DUP1 DUP4 SUB DUP2 DUP7 GAS STATICCALL ISZERO DUP1 ISZERO PUSH2 0x11FE JUMPI RETURNDATASIZE PUSH1 0x0 DUP1 RETURNDATACOPY RETURNDATASIZE PUSH1 0x0 REVERT JUMPDEST POP POP POP POP PUSH1 0x40 MLOAD RETURNDATASIZE PUSH1 0x1F NOT PUSH1 0x1F DUP3 ADD AND DUP3 ADD DUP1 PUSH1 0x40 MSTORE POP DUP2 ADD SWAP1 PUSH2 0x1222 SWAP2 SWAP1 PUSH2 0x43E5 JUMP JUMPDEST SWAP3 SWAP8 SWAP2 SWAP7 POP SWAP2 SWAP5 POP SWAP3 POP POP POP JUMP JUMPDEST CALLER PUSH1 0x0 SWAP1 DUP2 MSTORE PUSH1 0x7 PUSH1 0x20 MSTORE PUSH1 0x40 DUP2 KECCAK256 SLOAD PUSH2 0x125C JUMPI PUSH1 0x40 MLOAD PUSH3 0x461BCD PUSH1 0xE5 SHL DUP2 MSTORE PUSH1 0x4 ADD PUSH2 0x7C5 SWAP1 PUSH2 0x4186 JUMP JUMPDEST PUSH1 0x3 SLOAD PUSH1 0x40 MLOAD PUSH4 0x4D7B4139 PUSH1 0xE0 SHL DUP2 MSTORE PUSH1 0x4 DUP2 ADD DUP6 SWAP1 MSTORE PUSH1 0x24 DUP2 ADD DUP5 SWAP1 MSTORE PUSH1 0x1 PUSH1 0x1 PUSH1 0xA0 SHL SUB SWAP1 SWAP2 AND SWAP1 PUSH4 0x4D7B4139 SWAP1 PUSH1 0x44 ADD PUSH1 0x20 PUSH1 0x40 MLOAD DUP1 DUP4 SUB DUP2 DUP7 GAS STATICCALL ISZERO DUP1 ISZERO PUSH2 0x12AC JUMPI RETURNDATASIZE PUSH1 0x0 DUP1 RETURNDATACOPY RETURNDATASIZE PUSH1 0x0 REVERT JUMPDEST POP POP POP POP PUSH1 0x40 MLOAD RETURNDATASIZE PUSH1 0x1F NOT PUSH1 0x1F DUP3 ADD AND DUP3 ADD DUP1 PUSH1 0x40 MSTORE POP DUP2 ADD SWAP1 PUSH2 0x12D0 SWAP2 SWAP1 PUSH2 0x43E5 JUMP JUMPDEST SWAP4 SWAP3 POP POP POP JUMP JUMPDEST CALLER PUSH1 0x0 SWAP1 DUP2 MSTORE PUSH1 0x7 PUSH1 0x20 MSTORE PUSH1 0x40 SWAP1 KECCAK256 SLOAD PUSH2 0x1303 JUMPI PUSH1 0x40 MLOAD PUSH3 0x461BCD PUSH1 0xE5 SHL DUP2 MSTORE PUSH1 0x4 ADD PUSH2 0x7C5 SWAP1 PUSH2 0x4186 JUMP JUMPDEST PUSH1 0x0 SLOAD PUSH1 0x40 MLOAD PUSH4 0x2C7157CB PUSH1 0xE1 SHL DUP2 MSTORE PUSH1 0x1 PUSH1 0x1 PUSH1 0xA0 SHL SUB SWAP1 SWAP2 AND SWAP1 PUSH4 0x58E2AF96 SWAP1 PUSH2 0x133D SWAP1 DUP10 SWAP1 DUP10 SWAP1 DUP10 SWAP1 DUP10 SWAP1 DUP10 SWAP1 DUP10 SWAP1 PUSH1 0x4 ADD PUSH2 0x4460 JUMP JUMPDEST PUSH1 0x0 PUSH1 0x40 MLOAD DUP1 DUP4 SUB DUP2 PUSH1 0x0 DUP8 DUP1 EXTCODESIZE ISZERO DUP1 ISZERO PUSH2 0x1357 JUMPI PUSH1 0x0 DUP1 REVERT JUMPDEST POP GAS CALL ISZERO DUP1 ISZERO PUSH2 0x136B JUMPI RETURNDATASIZE PUSH1 0x0 DUP1 RETURNDATACOPY RETURNDATASIZE PUSH1 0x0 REVERT JUMPDEST POP POP PUSH1 0x40 MLOAD DUP9 SWAP3 POP PUSH32 0x1FD5E283EE7B63AF97E9EB74FE5B71FFF204730F3A751DB70F6E714E2D86231F SWAP2 POP PUSH1 0x0 SWAP1 LOG2 POP POP POP POP POP POP JUMP JUMPDEST CALLER PUSH1 0x0 SWAP1 DUP2 MSTORE PUSH1 0x7 PUSH1 0x20 MSTORE PUSH1 0x40 DUP2 KECCAK256 SLOAD PUSH1 0x60 SWAP2 DUP3 SWAP2 DUP3 SWAP2 SWAP1 DUP2 SWAP1 PUSH2 0x13D8 JUMPI PUSH1 0x40 MLOAD PUSH3 0x461BCD PUSH1 0xE5 SHL DUP2 MSTORE PUSH1 0x4 ADD PUSH2 0x7C5 SWAP1 PUSH2 0x4186 JUMP JUMPDEST PUSH1 0x1 SLOAD PUSH1 0x40 MLOAD PUSH4 0xA18BAF3 PUSH1 0xE2 SHL DUP2 MSTORE PUSH1 0x4 DUP2 ADD DUP9 SWAP1 MSTORE PUSH1 0x0 SWAP2 PUSH1 0x1 PUSH1 0x1 PUSH1 0xA0 SHL SUB AND SWAP1 PUSH4 0x2862EBCC SWAP1 PUSH1 0x24 ADD PUSH1 0x0 PUSH1 0x40 MLOAD DUP1 DUP4 SUB DUP2 DUP7 GAS STATICCALL ISZERO DUP1 ISZERO PUSH2 0x1422 JUMPI RETURNDATASIZE PUSH1 0x0 DUP1 RETURNDATACOPY RETURNDATASIZE PUSH1 0x0 REVERT JUMPDEST POP POP POP POP PUSH1 0x40 MLOAD RETURNDATASIZE PUSH1 0x0 DUP3 RETURNDATACOPY PUSH1 0x1F RETURNDATASIZE SWAP1 DUP2 ADD PUSH1 0x1F NOT AND DUP3 ADD PUSH1 0x40 MSTORE PUSH2 0x144A SWAP2 SWAP1 DUP2 ADD SWAP1 PUSH2 0x442C JUMP JUMPDEST PUSH1 0x1 SLOAD PUSH1 0x40 MLOAD PUSH4 0x5EB86B95 PUSH1 0xE0 SHL DUP2 MSTORE PUSH1 0x4 DUP2 ADD DUP11 SWAP1 MSTORE SWAP2 SWAP3 POP PUSH1 0x0 SWAP2 PUSH1 0x1 PUSH1 0x1 PUSH1 0xA0 SHL SUB SWAP1 SWAP2 AND SWAP1 PUSH4 0x5EB86B95 SWAP1 PUSH1 0x24 ADD PUSH1 0x0 PUSH1 0x40 MLOAD DUP1 DUP4 SUB DUP2 DUP7 GAS STATICCALL ISZERO DUP1 ISZERO PUSH2 0x1499 JUMPI RETURNDATASIZE PUSH1 0x0 DUP1 RETURNDATACOPY RETURNDATASIZE PUSH1 0x0 REVERT JUMPDEST POP POP POP POP PUSH1 0x40 MLOAD RETURNDATASIZE PUSH1 0x0 DUP3 RETURNDATACOPY PUSH1 0x1F RETURNDATASIZE SWAP1 DUP2 ADD PUSH1 0x1F NOT AND DUP3 ADD PUSH1 0x40 MSTORE PUSH2 0x14C1 SWAP2 SWAP1 DUP2 ADD SWAP1 PUSH2 0x442C JUMP JUMPDEST PUSH1 0x1 SLOAD PUSH1 0x40 MLOAD PUSH4 0xECDE1405 PUSH1 0xE0 SHL DUP2 MSTORE PUSH1 0x4 DUP2 ADD DUP12 SWAP1 MSTORE SWAP2 SWAP3 POP PUSH1 0x0 SWAP2 PUSH1 0x1 PUSH1 0x1 PUSH1 0xA0 SHL SUB SWAP1 SWAP2 AND SWAP1 PUSH4 0xECDE1405 SWAP1 PUSH1 0x24 ADD PUSH1 0x0 PUSH1 0x40 MLOAD DUP1 DUP4 SUB DUP2 DUP7 GAS STATICCALL ISZERO DUP1 ISZERO PUSH2 0x1510 JUMPI RETURNDATASIZE PUSH1 0x0 DUP1 RETURNDATACOPY RETURNDATASIZE PUSH1 0x0 REVERT JUMPDEST POP POP POP POP PUSH1 0x40 MLOAD RETURNDATASIZE PUSH1 0x0 DUP3 RETURNDATACOPY PUSH1 0x1F RETURNDATASIZE SWAP1 DUP2 ADD PUSH1 0x1F NOT AND DUP3 ADD PUSH1 0x40 MSTORE PUSH2 0x1538 SWAP2 SWAP1 DUP2 ADD SWAP1 PUSH2 0x442C JUMP JUMPDEST PUSH1 0x1 SLOAD PUSH1 0x40 MLOAD PUSH4 0x7DFA3649 PUSH1 0xE0 SHL DUP2 MSTORE PUSH1 0x4 DUP2 ADD DUP13 SWAP1 MSTORE SWAP2 SWAP3 POP PUSH1 0x0 SWAP2 PUSH1 0x1 PUSH1 0x1 PUSH1 0xA0 SHL SUB SWAP1 SWAP2 AND SWAP1 PUSH4 0x7DFA3649 SWAP1 PUSH1 0x24 ADD PUSH1 0x20 PUSH1 0x40 MLOAD DUP1 DUP4 SUB DUP2 DUP7 GAS STATICCALL ISZERO DUP1 ISZERO PUSH2 0x1587 JUMPI RETURNDATASIZE PUSH1 0x0 DUP1 RETURNDATACOPY RETURNDATASIZE PUSH1 0x0 REVERT JUMPDEST POP POP POP POP PUSH1 0x40 MLOAD RETURNDATASIZE PUSH1 0x1F NOT PUSH1 0x1F DUP3 ADD AND DUP3 ADD DUP1 PUSH1 0x40 MSTORE POP DUP2 ADD SWAP1 PUSH2 0x15AB SWAP2 SWAP1 PUSH2 0x43E5 JUMP JUMPDEST PUSH1 0x1 SLOAD PUSH1 0x40 MLOAD PUSH4 0x67379D49 PUSH1 0xE1 SHL DUP2 MSTORE PUSH1 0x4 DUP2 ADD DUP14 SWAP1 MSTORE SWAP2 SWAP3 POP PUSH1 0x0 SWAP2 PUSH1 0x1 PUSH1 0x1 PUSH1 0xA0 SHL SUB SWAP1 SWAP2 AND SWAP1 PUSH4 0xCE6F3A92 SWAP1 PUSH1 0x24 ADD PUSH1 0x20 PUSH1 0x40 MLOAD DUP1 DUP4 SUB DUP2 DUP7 GAS STATICCALL ISZERO DUP1 ISZERO PUSH2 0x15FA JUMPI RETURNDATASIZE PUSH1 0x0 DUP1 RETURNDATACOPY RETURNDATASIZE PUSH1 0x0 REVERT JUMPDEST POP POP POP POP PUSH1 0x40 MLOAD RETURNDATASIZE PUSH1 0x1F NOT PUSH1 0x1F DUP3 ADD AND DUP3 ADD DUP1 PUSH1 0x40 MSTORE POP DUP2 ADD SWAP1 PUSH2 0x161E SWAP2 SWAP1 PUSH2 0x43E5 JUMP JUMPDEST SWAP5 SWAP12 SWAP4 SWAP11 POP SWAP2 SWAP9 POP SWAP7 POP SWAP2 SWAP5 POP SWAP3 POP POP POP JUMP JUMPDEST CALLER PUSH1 0x0 SWAP1 DUP2 MSTORE PUSH1 0x7 PUSH1 0x20 MSTORE PUSH1 0x40 SWAP1 KECCAK256 SLOAD PUSH1 0x60 SWAP1 DUP2 SWAP1 PUSH2 0x1662 JUMPI PUSH1 0x40 MLOAD PUSH3 0x461BCD PUSH1 0xE5 SHL DUP2 MSTORE PUSH1 0x4 ADD PUSH2 0x7C5 SWAP1 PUSH2 0x4186 JUMP JUMPDEST PUSH1 0x0 SLOAD PUSH1 0x40 MLOAD PUSH4 0x2C324BFB PUSH1 0xE1 SHL DUP2 MSTORE PUSH1 0x4 DUP2 ADD DUP6 SWAP1 MSTORE PUSH1 0x1 PUSH1 0x1 PUSH1 0xA0 SHL SUB SWAP1 SWAP2 AND SWAP1 PUSH4 0x586497F6 SWAP1 PUSH1 0x24 ADD PUSH1 0x0 PUSH1 0x40 MLOAD DUP1 DUP4 SUB DUP2 DUP7 GAS STATICCALL ISZERO DUP1 ISZERO PUSH2 0x16AB JUMPI RETURNDATASIZE PUSH1 0x0 DUP1 RETURNDATACOPY RETURNDATASIZE PUSH1 0x0 REVERT JUMPDEST POP POP POP POP PUSH1 0x40 MLOAD RETURNDATASIZE PUSH1 0x0 DUP3 RETURNDATACOPY PUSH1 0x1F RETURNDATASIZE SWAP1 DUP2 ADD PUSH1 0x1F NOT AND DUP3 ADD PUSH1 0x40 MSTORE PUSH2 0x16D3 SWAP2 SWAP1 DUP2 ADD SWAP1 PUSH2 0x448B JUMP JUMPDEST SWAP2 POP SWAP2 POP SWAP2 POP SWAP2 JUMP JUMPDEST CALLER PUSH1 0x0 SWAP1 DUP2 MSTORE PUSH1 0x7 PUSH1 0x20 MSTORE PUSH1 0x40 SWAP1 KECCAK256 SLOAD PUSH2 0x1708 JUMPI PUSH1 0x40 MLOAD PUSH3 0x461BCD PUSH1 0xE5 SHL DUP2 MSTORE PUSH1 0x4 ADD PUSH2 0x7C5 SWAP1 PUSH2 0x4186 JUMP JUMPDEST PUSH1 0x1 PUSH1 0x1 PUSH1 0xA0 SHL SUB DUP2 AND PUSH1 0x0 SWAP1 DUP2 MSTORE PUSH1 0x7 PUSH1 0x20 MSTORE PUSH1 0x40 SWAP1 KECCAK256 SLOAD ISZERO PUSH2 0x1765 JUMPI PUSH1 0x40 MLOAD PUSH3 0x461BCD PUSH1 0xE5 SHL DUP2 MSTORE PUSH1 0x20 PUSH1 0x4 DUP3 ADD MSTORE PUSH1 0x14 PUSH1 0x24 DUP3 ADD MSTORE PUSH20 0x20B236B4B71030B63932B0B23C9030B23232B217 PUSH1 0x61 SHL PUSH1 0x44 DUP3 ADD MSTORE PUSH1 0x64 ADD PUSH2 0x7C5 JUMP JUMPDEST PUSH1 0x6 SLOAD PUSH2 0x1773 SWAP1 PUSH1 0x1 PUSH2 0x44FA JUMP JUMPDEST PUSH1 0x6 DUP2 SWAP1 SSTORE PUSH1 0x1 PUSH1 0x1 PUSH1 0xA0 SHL SUB SWAP1 SWAP2 AND PUSH1 0x0 SWAP1 DUP2 MSTORE PUSH1 0x7 PUSH1 0x20 MSTORE PUSH1 0x40 SWAP1 KECCAK256 SSTORE JUMP JUMPDEST CALLER PUSH1 0x0 SWAP1 DUP2 MSTORE PUSH1 0x7 PUSH1 0x20 MSTORE PUSH1 0x40 DUP2 KECCAK256 SLOAD DUP2 SWAP1 DUP2 SWAP1 PUSH2 0x17C4 JUMPI PUSH1 0x40 MLOAD PUSH3 0x461BCD PUSH1 0xE5 SHL DUP2 MSTORE PUSH1 0x4 ADD PUSH2 0x7C5 SWAP1 PUSH2 0x4186 JUMP JUMPDEST PUSH1 0x0 DUP1 PUSH1 0x0 SWAP1 SLOAD SWAP1 PUSH2 0x100 EXP SWAP1 DIV PUSH1 0x1 PUSH1 0x1 PUSH1 0xA0 SHL SUB AND PUSH1 0x1 PUSH1 0x1 PUSH1 0xA0 SHL SUB AND PUSH4 0xE581F9EE PUSH1 0x40 MLOAD DUP2 PUSH4 0xFFFFFFFF AND PUSH1 0xE0 SHL DUP2 MSTORE PUSH1 0x4 ADD PUSH1 0x20 PUSH1 0x40 MLOAD DUP1 DUP4 SUB DUP2 DUP7 GAS STATICCALL ISZERO DUP1 ISZERO PUSH2 0x1818 JUMPI RETURNDATASIZE PUSH1 0x0 DUP1 RETURNDATACOPY RETURNDATASIZE PUSH1 0x0 REVERT JUMPDEST POP POP POP POP PUSH1 0x40 MLOAD RETURNDATASIZE PUSH1 0x1F NOT PUSH1 0x1F DUP3 ADD AND DUP3 ADD DUP1 PUSH1 0x40 MSTORE POP DUP2 ADD SWAP1 PUSH2 0x183C SWAP2 SWAP1 PUSH2 0x43E5 JUMP JUMPDEST PUSH1 0x8 SLOAD PUSH1 0x9 SLOAD SWAP2 SWAP6 POP SWAP4 POP SWAP2 POP POP SWAP1 SWAP2 SWAP3 JUMP JUMPDEST CALLER PUSH1 0x0 SWAP1 DUP2 MSTORE PUSH1 0x7 PUSH1 0x20 MSTORE PUSH1 0x40 DUP2 KECCAK256 SLOAD PUSH2 0x187B JUMPI PUSH1 0x40 MLOAD PUSH3 0x461BCD PUSH1 0xE5 SHL DUP2 MSTORE PUSH1 0x4 ADD PUSH2 0x7C5 SWAP1 PUSH2 0x4186 JUMP JUMPDEST PUSH1 0x0 DUP1 SLOAD PUSH1 0x40 MLOAD PUSH4 0x39BC4959 PUSH1 0xE1 SHL DUP2 MSTORE PUSH1 0x4 DUP2 ADD DUP6 SWAP1 MSTORE PUSH1 0x1 PUSH1 0x1 PUSH1 0xA0 SHL SUB SWAP1 SWAP2 AND SWAP1 PUSH4 0x737892B2 SWAP1 PUSH1 0x24 ADD PUSH1 0x20 PUSH1 0x40 MLOAD DUP1 DUP4 SUB DUP2 DUP7 GAS STATICCALL ISZERO DUP1 ISZERO PUSH2 0x12AC JUMPI RETURNDATASIZE PUSH1 0x0 DUP1 RETURNDATACOPY RETURNDATASIZE PUSH1 0x0 REVERT JUMPDEST PUSH1 0x1 SLOAD PUSH1 0x40 MLOAD PUSH4 0x7C663E4D PUSH1 0xE0 SHL DUP2 MSTORE PUSH1 0x0 SWAP2 PUSH1 0x1 PUSH1 0x1 PUSH1 0xA0 SHL SUB AND SWAP1 PUSH4 0x7C663E4D SWAP1 PUSH2 0x18FC SWAP1 DUP9 SWAP1 DUP9 SWAP1 DUP9 SWAP1 DUP9 SWAP1 PUSH1 0x4 ADD PUSH2 0x4512 JUMP JUMPDEST PUSH1 0x20 PUSH1 0x40 MLOAD DUP1 DUP4 SUB DUP2 PUSH1 0x0 DUP8 GAS CALL ISZERO DUP1 ISZERO PUSH2 0x191B JUMPI RETURNDATASIZE PUSH1 0x0 DUP1 RETURNDATACOPY RETURNDATASIZE PUSH1 0x0 REVERT JUMPDEST POP POP POP POP PUSH1 0x40 MLOAD RETURNDATASIZE PUSH1 0x1F NOT PUSH1 0x1F DUP3 ADD AND DUP3 ADD DUP1 PUSH1 0x40 MSTORE POP DUP2 ADD SWAP1 PUSH2 0x193F SWAP2 SWAP1 PUSH2 0x43E5 JUMP JUMPDEST SWAP1 POP DUP2 DUP6 DUP3 PUSH32 0x60CF56E8CD40D30413F6042836CFD24582EAF95589047F0883AA7209FFEE9E33 PUSH1 0x40 MLOAD PUSH1 0x40 MLOAD DUP1 SWAP2 SUB SWAP1 LOG4 POP POP POP POP POP JUMP JUMPDEST CALLER PUSH1 0x0 SWAP1 DUP2 MSTORE PUSH1 0x7 PUSH1 0x20 MSTORE PUSH1 0x40 DUP2 KECCAK256 SLOAD PUSH1 0x60 SWAP2 SWAP1 PUSH2 0x19A7 JUMPI PUSH1 0x40 MLOAD PUSH3 0x461BCD PUSH1 0xE5 SHL DUP2 MSTORE PUSH1 0x4 ADD PUSH2 0x7C5 SWAP1 PUSH2 0x4186 JUMP JUMPDEST PUSH1 0x1 SLOAD PUSH1 0x40 DUP1 MLOAD PUSH4 0xF57C6491 PUSH1 0xE0 SHL DUP2 MSTORE SWAP1 MLOAD PUSH1 0x0 SWAP3 PUSH1 0x1 PUSH1 0x1 PUSH1 0xA0 SHL SUB AND SWAP2 PUSH4 0xF57C6491 SWAP2 PUSH1 0x4 DUP1 DUP4 ADD SWAP3 PUSH1 0x20 SWAP3 SWAP2 SWAP1 DUP3 SWAP1 SUB ADD DUP2 DUP7 GAS STATICCALL ISZERO DUP1 ISZERO PUSH2 0x19F1 JUMPI RETURNDATASIZE PUSH1 0x0 DUP1 RETURNDATACOPY RETURNDATASIZE PUSH1 0x0 REVERT JUMPDEST POP POP POP POP PUSH1 0x40 MLOAD RETURNDATASIZE PUSH1 0x1F NOT PUSH1 0x1F DUP3 ADD AND DUP3 ADD DUP1 PUSH1 0x40 MSTORE POP DUP2 ADD SWAP1 PUSH2 0x1A15 SWAP2 SWAP1 PUSH2 0x43E5 JUMP JUMPDEST SWAP1 POP DUP1 JUMPDEST DUP1 ISZERO PUSH2 0x1C40 JUMPI PUSH1 0x1 SLOAD PUSH1 0x40 MLOAD PUSH4 0x69D5213B PUSH1 0xE0 SHL DUP2 MSTORE PUSH1 0x4 DUP2 ADD DUP4 SWAP1 MSTORE DUP7 SWAP2 PUSH1 0x1 PUSH1 0x1 PUSH1 0xA0 SHL SUB AND SWAP1 PUSH4 0x69D5213B SWAP1 PUSH1 0x24 ADD PUSH1 0x20 PUSH1 0x40 MLOAD DUP1 DUP4 SUB DUP2 DUP7 GAS STATICCALL ISZERO DUP1 ISZERO PUSH2 0x1A68 JUMPI RETURNDATASIZE PUSH1 0x0 DUP1 RETURNDATACOPY RETURNDATASIZE PUSH1 0x0 REVERT JUMPDEST POP POP POP POP PUSH1 0x40 MLOAD RETURNDATASIZE PUSH1 0x1F NOT PUSH1 0x1F DUP3 ADD AND DUP3 ADD DUP1 PUSH1 0x40 MSTORE POP DUP2 ADD SWAP1 PUSH2 0x1A8C SWAP2 SWAP1 PUSH2 0x43E5 JUMP JUMPDEST EQ DUP1 ISZERO PUSH2 0x1B3F JUMPI POP PUSH1 0x40 DUP1 MLOAD PUSH1 0x0 DUP2 MSTORE PUSH1 0x20 DUP2 ADD SWAP2 DUP3 SWAP1 MSTORE DUP1 MLOAD DUP3 KECCAK256 PUSH1 0x1 SLOAD PUSH4 0x61590D55 PUSH1 0xE0 SHL SWAP1 SWAP4 MSTORE PUSH1 0x24 DUP3 ADD DUP5 SWAP1 MSTORE SWAP2 PUSH1 0x1 PUSH1 0x1 PUSH1 0xA0 SHL SUB AND SWAP1 PUSH4 0x61590D55 SWAP1 PUSH1 0x44 ADD PUSH1 0x0 PUSH1 0x40 MLOAD DUP1 DUP4 SUB DUP2 DUP7 GAS STATICCALL ISZERO DUP1 ISZERO PUSH2 0x1AEE JUMPI RETURNDATASIZE PUSH1 0x0 DUP1 RETURNDATACOPY RETURNDATASIZE PUSH1 0x0 REVERT JUMPDEST POP POP POP POP PUSH1 0x40 MLOAD RETURNDATASIZE PUSH1 0x0 DUP3 RETURNDATACOPY PUSH1 0x1F RETURNDATASIZE SWAP1 DUP2 ADD PUSH1 0x1F NOT AND DUP3 ADD PUSH1 0x40 MSTORE PUSH2 0x1B16 SWAP2 SWAP1 DUP2 ADD SWAP1 PUSH2 0x442C JUMP JUMPDEST PUSH1 0x40 MLOAD PUSH1 0x20 ADD PUSH2 0x1B26 SWAP2 SWAP1 PUSH2 0x4542 JUMP JUMPDEST PUSH1 0x40 MLOAD PUSH1 0x20 DUP2 DUP4 SUB SUB DUP2 MSTORE SWAP1 PUSH1 0x40 MSTORE DUP1 MLOAD SWAP1 PUSH1 0x20 ADD KECCAK256 EQ ISZERO JUMPDEST ISZERO PUSH2 0x1C2E JUMPI PUSH1 0x1 SLOAD PUSH1 0x40 MLOAD PUSH4 0x4273DB49 PUSH1 0xE1 SHL DUP2 MSTORE PUSH1 0x4 DUP2 ADD DUP4 SWAP1 MSTORE PUSH1 0x1 PUSH1 0x1 PUSH1 0xA0 SHL SUB SWAP1 SWAP2 AND SWAP1 PUSH4 0x84E7B692 SWAP1 PUSH1 0x24 ADD JUMPDEST PUSH1 0x0 PUSH1 0x40 MLOAD DUP1 DUP4 SUB DUP2 DUP7 GAS STATICCALL ISZERO DUP1 ISZERO PUSH2 0x1B8E JUMPI RETURNDATASIZE PUSH1 0x0 DUP1 RETURNDATACOPY RETURNDATASIZE PUSH1 0x0 REVERT JUMPDEST POP POP POP POP PUSH1 0x40 MLOAD RETURNDATASIZE PUSH1 0x0 DUP3 RETURNDATACOPY PUSH1 0x1F RETURNDATASIZE SWAP1 DUP2 ADD PUSH1 0x1F NOT AND DUP3 ADD PUSH1 0x40 MSTORE PUSH2 0x1BB6 SWAP2 SWAP1 DUP2 ADD SWAP1 PUSH2 0x442C JUMP JUMPDEST PUSH1 0x1 SLOAD PUSH1 0x40 MLOAD PUSH4 0x4A0C2303 PUSH1 0xE1 SHL DUP2 MSTORE PUSH1 0x4 DUP2 ADD DUP5 SWAP1 MSTORE PUSH1 0x1 PUSH1 0x1 PUSH1 0xA0 SHL SUB SWAP1 SWAP2 AND SWAP1 PUSH4 0x94184606 SWAP1 PUSH1 0x24 ADD PUSH1 0x20 PUSH1 0x40 MLOAD DUP1 DUP4 SUB DUP2 DUP7 GAS STATICCALL ISZERO DUP1 ISZERO PUSH2 0x1BFF JUMPI RETURNDATASIZE PUSH1 0x0 DUP1 RETURNDATACOPY RETURNDATASIZE PUSH1 0x0 REVERT JUMPDEST POP POP POP POP PUSH1 0x40 MLOAD RETURNDATASIZE PUSH1 0x1F NOT PUSH1 0x1F DUP3 ADD AND DUP3 ADD DUP1 PUSH1 0x40 MSTORE POP DUP2 ADD SWAP1 PUSH2 0x1C23 SWAP2 SWAP1 PUSH2 0x43E5 JUMP JUMPDEST SWAP4 POP SWAP4 POP POP POP SWAP2 POP SWAP2 JUMP JUMPDEST DUP1 PUSH2 0x1C38 DUP2 PUSH2 0x455E JUMP JUMPDEST SWAP2 POP POP PUSH2 0x1A19 JUMP JUMPDEST POP POP PUSH1 0x40 DUP1 MLOAD DUP1 DUP3 ADD SWAP1 SWAP2 MSTORE PUSH1 0x14 DUP2 MSTORE PUSH20 0x151A5B59481D18589B19481B9BDD08199BDD5B99 PUSH1 0x62 SHL PUSH1 0x20 DUP3 ADD MSTORE SWAP4 PUSH1 0x0 SWAP4 POP SWAP2 POP POP JUMP JUMPDEST PUSH1 0x2 SLOAD PUSH1 0x40 MLOAD PUSH4 0x41917AAB PUSH1 0xE1 SHL DUP2 MSTORE PUSH1 0x60 SWAP2 PUSH1 0x0 SWAP2 PUSH1 0x1 PUSH1 0x1 PUSH1 0xA0 SHL SUB SWAP1 SWAP2 AND SWAP1 PUSH4 0x8322F556 SWAP1 PUSH2 0x1CAF SWAP1 DUP8 SWAP1 DUP8 SWAP1 PUSH1 0x4 ADD PUSH2 0x3A6A JUMP JUMPDEST PUSH1 0x0 PUSH1 0x40 MLOAD DUP1 DUP4 SUB DUP2 DUP7 GAS STATICCALL ISZERO DUP1 ISZERO PUSH2 0x1CCC JUMPI RETURNDATASIZE PUSH1 0x0 DUP1 RETURNDATACOPY RETURNDATASIZE PUSH1 0x0 REVERT JUMPDEST POP POP POP POP PUSH1 0x40 MLOAD RETURNDATASIZE PUSH1 0x0 DUP3 RETURNDATACOPY PUSH1 0x1F RETURNDATASIZE SWAP1 DUP2 ADD PUSH1 0x1F NOT AND DUP3 ADD PUSH1 0x40 MSTORE PUSH2 0x1CF4 SWAP2 SWAP1 DUP2 ADD SWAP1 PUSH2 0x4575 JUMP JUMPDEST SWAP1 SWAP6 SWAP1 SWAP5 POP SWAP3 POP POP POP JUMP JUMPDEST CALLER PUSH1 0x0 SWAP1 DUP2 MSTORE PUSH1 0x7 PUSH1 0x20 MSTORE PUSH1 0x40 DUP2 KECCAK256 SLOAD PUSH1 0x60 SWAP2 SWAP1 DUP2 SWAP1 DUP2 SWAP1 DUP5 SWAP1 DUP2 SWAP1 PUSH2 0x1D37 JUMPI PUSH1 0x40 MLOAD PUSH3 0x461BCD PUSH1 0xE5 SHL DUP2 MSTORE PUSH1 0x4 ADD PUSH2 0x7C5 SWAP1 PUSH2 0x4186 JUMP JUMPDEST PUSH1 0x0 SLOAD PUSH1 0x40 MLOAD PUSH4 0xC3A356B PUSH1 0xE1 SHL DUP2 MSTORE PUSH1 0x4 DUP2 ADD DUP10 SWAP1 MSTORE PUSH1 0x1 PUSH1 0x1 PUSH1 0xA0 SHL SUB SWAP1 SWAP2 AND SWAP1 PUSH4 0x18746AD6 SWAP1 PUSH1 0x24 ADD PUSH1 0x0 PUSH1 0x40 MLOAD DUP1 DUP4 SUB DUP2 DUP7 GAS STATICCALL ISZERO DUP1 ISZERO PUSH2 0x1D80 JUMPI RETURNDATASIZE PUSH1 0x0 DUP1 RETURNDATACOPY RETURNDATASIZE PUSH1 0x0 REVERT JUMPDEST POP POP POP POP PUSH1 0x40 MLOAD RETURNDATASIZE PUSH1 0x0 DUP3 RETURNDATACOPY PUSH1 0x1F RETURNDATASIZE SWAP1 DUP2 ADD PUSH1 0x1F NOT AND DUP3 ADD PUSH1 0x40 MSTORE PUSH2 0x1DA8 SWAP2 SWAP1 DUP2 ADD SWAP1 PUSH2 0x45BB JUMP JUMPDEST SWAP5 SWAP13 SWAP4 SWAP12 POP SWAP2 SWAP10 POP SWAP8 POP SWAP6 POP SWAP1 SWAP4 POP SWAP2 POP POP JUMP JUMPDEST CALLER PUSH1 0x0 SWAP1 DUP2 MSTORE PUSH1 0x7 PUSH1 0x20 MSTORE PUSH1 0x40 DUP2 KECCAK256 SLOAD DUP2 SWAP1 PUSH1 0x60 SWAP1 PUSH2 0x1DED JUMPI PUSH1 0x40 MLOAD PUSH3 0x461BCD PUSH1 0xE5 SHL DUP2 MSTORE PUSH1 0x4 ADD PUSH2 0x7C5 SWAP1 PUSH2 0x4186 JUMP JUMPDEST PUSH1 0x1 SLOAD PUSH1 0x40 MLOAD PUSH4 0x3CD99969 PUSH1 0xE1 SHL DUP2 MSTORE PUSH1 0x4 DUP2 ADD DUP7 SWAP1 MSTORE PUSH1 0x0 SWAP2 PUSH1 0x1 PUSH1 0x1 PUSH1 0xA0 SHL SUB AND SWAP1 PUSH4 0x79B332D2 SWAP1 PUSH1 0x24 ADD PUSH1 0x20 PUSH1 0x40 MLOAD DUP1 DUP4 SUB DUP2 DUP7 GAS STATICCALL ISZERO DUP1 ISZERO PUSH2 0x1E37 JUMPI RETURNDATASIZE PUSH1 0x0 DUP1 RETURNDATACOPY RETURNDATASIZE PUSH1 0x0 REVERT JUMPDEST POP POP POP POP PUSH1 0x40 MLOAD RETURNDATASIZE PUSH1 0x1F NOT PUSH1 0x1F DUP3 ADD AND DUP3 ADD DUP1 PUSH1 0x40 MSTORE POP DUP2 ADD SWAP1 PUSH2 0x1E5B SWAP2 SWAP1 PUSH2 0x43E5 JUMP JUMPDEST PUSH1 0x1 SLOAD PUSH1 0x40 MLOAD PUSH4 0xC7E674F1 PUSH1 0xE0 SHL DUP2 MSTORE PUSH1 0x4 DUP2 ADD DUP9 SWAP1 MSTORE SWAP2 SWAP3 POP PUSH1 0x0 SWAP2 PUSH1 0x1 PUSH1 0x1 PUSH1 0xA0 SHL SUB SWAP1 SWAP2 AND SWAP1 PUSH4 0xC7E674F1 SWAP1 PUSH1 0x24 ADD PUSH1 0x20 PUSH1 0x40 MLOAD DUP1 DUP4 SUB DUP2 DUP7 GAS STATICCALL ISZERO DUP1 ISZERO PUSH2 0x1EAA JUMPI RETURNDATASIZE PUSH1 0x0 DUP1 RETURNDATACOPY RETURNDATASIZE PUSH1 0x0 REVERT JUMPDEST POP POP POP POP PUSH1 0x40 MLOAD RETURNDATASIZE PUSH1 0x1F NOT PUSH1 0x1F DUP3 ADD AND DUP3 ADD DUP1 PUSH1 0x40 MSTORE POP DUP2 ADD SWAP1 PUSH2 0x1ECE SWAP2 SWAP1 PUSH2 0x43E5 JUMP JUMPDEST PUSH1 0x1 SLOAD PUSH1 0x40 MLOAD PUSH4 0x6338C89F PUSH1 0xE0 SHL DUP2 MSTORE PUSH1 0x4 DUP2 ADD DUP10 SWAP1 MSTORE SWAP2 SWAP3 POP PUSH1 0x0 SWAP2 PUSH1 0x1 PUSH1 0x1 PUSH1 0xA0 SHL SUB SWAP1 SWAP2 AND SWAP1 PUSH4 0x6338C89F SWAP1 PUSH1 0x24 ADD PUSH1 0x0 PUSH1 0x40 MLOAD DUP1 DUP4 SUB DUP2 DUP7 GAS STATICCALL ISZERO DUP1 ISZERO PUSH2 0x1F1D JUMPI RETURNDATASIZE PUSH1 0x0 DUP1 RETURNDATACOPY RETURNDATASIZE PUSH1 0x0 REVERT JUMPDEST POP POP POP POP PUSH1 0x40 MLOAD RETURNDATASIZE PUSH1 0x0 DUP3 RETURNDATACOPY PUSH1 0x1F RETURNDATASIZE SWAP1 DUP2 ADD PUSH1 0x1F NOT AND DUP3 ADD PUSH1 0x40 MSTORE PUSH2 0x1222 SWAP2 SWAP1 DUP2 ADD SWAP1 PUSH2 0x442C JUMP JUMPDEST PUSH1 0x1 SLOAD PUSH1 0x40 MLOAD PUSH4 0xAB236DC9 PUSH1 0xE0 SHL DUP2 MSTORE PUSH1 0x0 SWAP2 PUSH1 0x1 PUSH1 0x1 PUSH1 0xA0 SHL SUB AND SWAP1 PUSH4 0xAB236DC9 SWAP1 PUSH2 0x1F7E SWAP1 DUP10 SWAP1 DUP10 SWAP1 DUP10 SWAP1 DUP10 SWAP1 DUP10 SWAP1 PUSH1 0x4 ADD PUSH2 0x4651 JUMP JUMPDEST PUSH1 0x20 PUSH1 0x40 MLOAD DUP1 DUP4 SUB DUP2 PUSH1 0x0 DUP8 GAS CALL ISZERO DUP1 ISZERO PUSH2 0x1F9D JUMPI RETURNDATASIZE PUSH1 0x0 DUP1 RETURNDATACOPY RETURNDATASIZE PUSH1 0x0 REVERT JUMPDEST POP POP POP POP PUSH1 0x40 MLOAD RETURNDATASIZE PUSH1 0x1F NOT PUSH1 0x1F DUP3 ADD AND DUP3 ADD DUP1 PUSH1 0x40 MSTORE POP DUP2 ADD SWAP1 PUSH2 0x1FC1 SWAP2 SWAP1 PUSH2 0x43E5 JUMP JUMPDEST SWAP1 POP DUP2 DUP7 DUP3 PUSH32 0x289EC7E79A70DB9E5A21C4AA4BC91DE5745406FDC5FA52A91224E0F0E8D674AF PUSH1 0x40 MLOAD PUSH1 0x40 MLOAD DUP1 SWAP2 SUB SWAP1 LOG4 POP POP POP POP POP POP JUMP JUMPDEST CALLER PUSH1 0x0 SWAP1 DUP2 MSTORE PUSH1 0x7 PUSH1 0x20 MSTORE PUSH1 0x40 SWAP1 KECCAK256 SLOAD PUSH2 0x2026 JUMPI PUSH1 0x40 MLOAD PUSH3 0x461BCD PUSH1 0xE5 SHL DUP2 MSTORE PUSH1 0x4 ADD PUSH2 0x7C5 SWAP1 PUSH2 0x4186 JUMP JUMPDEST PUSH1 0x0 DUP1 SLOAD PUSH1 0x40 MLOAD PUSH3 0x16036B PUSH1 0xEB SHL DUP2 MSTORE PUSH1 0x1 PUSH1 0x1 PUSH1 0xA0 SHL SUB SWAP1 SWAP2 AND SWAP1 PUSH4 0xB01B5800 SWAP1 PUSH2 0x2060 SWAP1 DUP11 SWAP1 DUP11 SWAP1 DUP11 SWAP1 DUP11 SWAP1 DUP11 SWAP1 DUP11 SWAP1 PUSH1 0x4 ADD PUSH2 0x3B9D JUMP JUMPDEST PUSH1 0x20 PUSH1 0x40 MLOAD DUP1 DUP4 SUB DUP2 PUSH1 0x0 DUP8 GAS CALL ISZERO DUP1 ISZERO PUSH2 0x207F JUMPI RETURNDATASIZE PUSH1 0x0 DUP1 RETURNDATACOPY RETURNDATASIZE PUSH1 0x0 REVERT JUMPDEST POP POP POP POP PUSH1 0x40 MLOAD RETURNDATASIZE PUSH1 0x1F NOT PUSH1 0x1F DUP3 ADD AND DUP3 ADD DUP1 PUSH1 0x40 MSTORE POP DUP2 ADD SWAP1 PUSH2 0x20A3 SWAP2 SWAP1 PUSH2 0x43E5 JUMP JUMPDEST PUSH1 0x0 DUP6 DUP2 MSTORE PUSH1 0xA PUSH1 0x20 MSTORE PUSH1 0x40 SWAP1 KECCAK256 SLOAD SWAP1 SWAP2 POP PUSH2 0x20C0 SWAP1 PUSH1 0x1 PUSH2 0x44FA JUMP JUMPDEST PUSH1 0x0 DUP6 DUP2 MSTORE PUSH1 0xA PUSH1 0x20 SWAP1 DUP2 MSTORE PUSH1 0x40 DUP1 DUP4 KECCAK256 SWAP4 SWAP1 SWAP4 SSTORE PUSH1 0xB SWAP1 MSTORE DUP2 SWAP1 KECCAK256 SWAP1 MLOAD PUSH2 0x20E9 SWAP1 DUP6 SWAP1 PUSH2 0x4542 JUMP JUMPDEST SWAP1 DUP2 MSTORE PUSH1 0x20 ADD PUSH1 0x40 MLOAD DUP1 SWAP2 SUB SWAP1 KECCAK256 SLOAD PUSH1 0x1 PUSH2 0x2104 SWAP2 SWAP1 PUSH2 0x44FA JUMP JUMPDEST PUSH1 0x0 DUP6 DUP2 MSTORE PUSH1 0xB PUSH1 0x20 MSTORE PUSH1 0x40 SWAP1 DUP2 SWAP1 KECCAK256 SWAP1 MLOAD PUSH2 0x2121 SWAP1 DUP7 SWAP1 PUSH2 0x4542 JUMP JUMPDEST SWAP1 DUP2 MSTORE PUSH1 0x40 MLOAD SWAP1 DUP2 SWAP1 SUB PUSH1 0x20 ADD DUP2 KECCAK256 SWAP2 SWAP1 SWAP2 SSTORE DUP5 SWAP1 DUP7 SWAP1 DUP4 SWAP1 PUSH32 0x8914BE557F12C8B4EC80D2DE1BBD0CE352F4E74DAE0FC548A0FD56AC07B66044 SWAP1 PUSH1 0x0 SWAP1 LOG4 POP POP POP POP POP POP POP JUMP JUMPDEST CALLER PUSH1 0x0 SWAP1 DUP2 MSTORE PUSH1 0x7 PUSH1 0x20 MSTORE PUSH1 0x40 DUP2 KECCAK256 SLOAD PUSH2 0x2195 JUMPI PUSH1 0x40 MLOAD PUSH3 0x461BCD PUSH1 0xE5 SHL DUP2 MSTORE PUSH1 0x4 ADD PUSH2 0x7C5 SWAP1 PUSH2 0x4186 JUMP JUMPDEST PUSH1 0x0 DUP4 DUP2 MSTORE PUSH1 0xB PUSH1 0x20 MSTORE PUSH1 0x40 SWAP1 DUP2 SWAP1 KECCAK256 SWAP1 MLOAD PUSH2 0x21B2 SWAP1 DUP5 SWAP1 PUSH2 0x4542 JUMP JUMPDEST SWAP1 DUP2 MSTORE PUSH1 0x20 ADD PUSH1 0x40 MLOAD DUP1 SWAP2 SUB SWAP1 KECCAK256 SLOAD SWAP1 POP SWAP3 SWAP2 POP POP JUMP JUMPDEST CALLER PUSH1 0x0 SWAP1 DUP2 MSTORE PUSH1 0x7 PUSH1 0x20 MSTORE PUSH1 0x40 SWAP1 KECCAK256 SLOAD PUSH2 0x21F5 JUMPI PUSH1 0x40 MLOAD PUSH3 0x461BCD PUSH1 0xE5 SHL DUP2 MSTORE PUSH1 0x4 ADD PUSH2 0x7C5 SWAP1 PUSH2 0x4186 JUMP JUMPDEST PUSH1 0x3 SLOAD PUSH1 0x40 MLOAD PUSH4 0xBF452C59 PUSH1 0xE0 SHL DUP2 MSTORE PUSH1 0x4 DUP2 ADD DUP6 SWAP1 MSTORE PUSH1 0x24 DUP2 ADD DUP5 SWAP1 MSTORE PUSH1 0x44 DUP2 ADD DUP4 SWAP1 MSTORE PUSH1 0x1 PUSH1 0x1 PUSH1 0xA0 SHL SUB SWAP1 SWAP2 AND SWAP1 PUSH4 0xBF452C59 SWAP1 PUSH1 0x64 ADD PUSH1 0x0 PUSH1 0x40 MLOAD DUP1 DUP4 SUB DUP2 PUSH1 0x0 DUP8 DUP1 EXTCODESIZE ISZERO DUP1 ISZERO PUSH2 0x2249 JUMPI PUSH1 0x0 DUP1 REVERT JUMPDEST POP GAS CALL ISZERO DUP1 ISZERO PUSH2 0x225D JUMPI RETURNDATASIZE PUSH1 0x0 DUP1 RETURNDATACOPY RETURNDATASIZE PUSH1 0x0 REVERT JUMPDEST POP POP POP POP DUP1 DUP3 DUP5 PUSH32 0x3C00A957D8B0ED88BF0AD892175A6F1B9FA89360787136E23A2FFBC5DC0BAAF9 PUSH1 0x40 MLOAD PUSH1 0x40 MLOAD DUP1 SWAP2 SUB SWAP1 LOG4 POP POP POP JUMP JUMPDEST PUSH1 0x1 SLOAD PUSH1 0x40 MLOAD PUSH4 0xC010F05 PUSH1 0xE4 SHL DUP2 MSTORE PUSH1 0x1 PUSH1 0x1 PUSH1 0xA0 SHL SUB SWAP1 SWAP2 AND SWAP1 PUSH4 0xC010F050 SWAP1 PUSH2 0xC48 SWAP1 DUP8 SWAP1 DUP8 SWAP1 DUP8 SWAP1 DUP8 SWAP1 PUSH1 0x4 ADD PUSH2 0x46A3 JUMP JUMPDEST CALLER PUSH1 0x0 SWAP1 DUP2 MSTORE PUSH1 0x7 PUSH1 0x20 MSTORE PUSH1 0x40 SWAP1 KECCAK256 SLOAD PUSH2 0x22F7 JUMPI PUSH1 0x40 MLOAD PUSH3 0x461BCD PUSH1 0xE5 SHL DUP2 MSTORE PUSH1 0x4 ADD PUSH2 0x7C5 SWAP1 PUSH2 0x4186 JUMP JUMPDEST PUSH1 0x0 SLOAD PUSH1 0x40 MLOAD PUSH4 0xC29871D7 PUSH1 0xE0 SHL DUP2 MSTORE PUSH1 0x1 PUSH1 0x1 PUSH1 0xA0 SHL SUB SWAP1 SWAP2 AND SWAP1 PUSH4 0xC29871D7 SWAP1 PUSH2 0x2331 SWAP1 DUP10 SWAP1 DUP10 SWAP1 DUP10 SWAP1 DUP10 SWAP1 DUP10 SWAP1 DUP10 SWAP1 PUSH1 0x4 ADD PUSH2 0x4460 JUMP JUMPDEST PUSH1 0x0 PUSH1 0x40 MLOAD DUP1 DUP4 SUB DUP2 PUSH1 0x0 DUP8 DUP1 EXTCODESIZE ISZERO DUP1 ISZERO PUSH2 0x234B JUMPI PUSH1 0x0 DUP1 REVERT JUMPDEST POP GAS CALL ISZERO DUP1 ISZERO PUSH2 0x235F JUMPI RETURNDATASIZE PUSH1 0x0 DUP1 RETURNDATACOPY RETURNDATASIZE PUSH1 0x0 REVERT JUMPDEST POP POP PUSH1 0x40 MLOAD DUP9 SWAP3 POP PUSH32 0x555B9BC60A3FB514D545019E80A123678A57E43247716EC4336633CDE354EDBB SWAP2 POP PUSH1 0x0 SWAP1 LOG2 POP POP POP POP POP POP JUMP JUMPDEST CALLER PUSH1 0x0 SWAP1 DUP2 MSTORE PUSH1 0x7 PUSH1 0x20 MSTORE PUSH1 0x40 SWAP1 KECCAK256 SLOAD PUSH2 0x23C2 JUMPI PUSH1 0x40 MLOAD PUSH3 0x461BCD PUSH1 0xE5 SHL DUP2 MSTORE PUSH1 0x4 ADD PUSH2 0x7C5 SWAP1 PUSH2 0x4186 JUMP JUMPDEST PUSH1 0x0 DUP1 SLOAD PUSH1 0x40 MLOAD PUSH4 0x70CFA985 PUSH1 0xE0 SHL DUP2 MSTORE PUSH1 0x4 DUP2 ADD DUP10 SWAP1 MSTORE PUSH1 0x1 PUSH1 0x1 PUSH1 0xA0 SHL SUB SWAP1 SWAP2 AND SWAP1 PUSH4 0x70CFA985 SWAP1 PUSH1 0x24 ADD PUSH1 0x0 PUSH1 0x40 MLOAD DUP1 DUP4 SUB DUP2 DUP7 GAS STATICCALL ISZERO DUP1 ISZERO PUSH2 0x240C JUMPI RETURNDATASIZE PUSH1 0x0 DUP1 RETURNDATACOPY RETURNDATASIZE PUSH1 0x0 REVERT JUMPDEST POP POP POP POP PUSH1 0x40 MLOAD RETURNDATASIZE PUSH1 0x0 DUP3 RETURNDATACOPY PUSH1 0x1F RETURNDATASIZE SWAP1 DUP2 ADD PUSH1 0x1F NOT AND DUP3 ADD PUSH1 0x40 MSTORE PUSH2 0x2434 SWAP2 SWAP1 DUP2 ADD SWAP1 PUSH2 0x42FF JUMP JUMPDEST SWAP5 POP POP POP POP POP PUSH1 0x40 MLOAD PUSH1 0x20 ADD PUSH2 0x2454 SWAP1 PUSH4 0x6D616C65 PUSH1 0xE0 SHL DUP2 MSTORE PUSH1 0x4 ADD SWAP1 JUMP JUMPDEST PUSH1 0x40 MLOAD PUSH1 0x20 DUP2 DUP4 SUB SUB DUP2 MSTORE SWAP1 PUSH1 0x40 MSTORE DUP1 MLOAD SWAP1 PUSH1 0x20 ADD KECCAK256 DUP2 PUSH1 0x40 MLOAD PUSH1 0x20 ADD PUSH2 0x247B SWAP2 SWAP1 PUSH2 0x4542 JUMP JUMPDEST PUSH1 0x40 MLOAD PUSH1 0x20 DUP2 DUP4 SUB SUB DUP2 MSTORE SWAP1 PUSH1 0x40 MSTORE DUP1 MLOAD SWAP1 PUSH1 0x20 ADD KECCAK256 SUB PUSH2 0x24A9 JUMPI PUSH1 0x1 PUSH1 0x8 SLOAD PUSH2 0x24A5 SWAP2 SWAP1 PUSH2 0x46E0 JUMP JUMPDEST PUSH1 0x8 SSTORE JUMPDEST PUSH1 0x40 MLOAD PUSH6 0x66656D616C65 PUSH1 0xD0 SHL PUSH1 0x20 DUP3 ADD MSTORE PUSH1 0x26 ADD PUSH1 0x40 MLOAD PUSH1 0x20 DUP2 DUP4 SUB SUB DUP2 MSTORE SWAP1 PUSH1 0x40 MSTORE DUP1 MLOAD SWAP1 PUSH1 0x20 ADD KECCAK256 DUP2 PUSH1 0x40 MLOAD PUSH1 0x20 ADD PUSH2 0x24E5 SWAP2 SWAP1 PUSH2 0x4542 JUMP JUMPDEST PUSH1 0x40 MLOAD PUSH1 0x20 DUP2 DUP4 SUB SUB DUP2 MSTORE SWAP1 PUSH1 0x40 MSTORE DUP1 MLOAD SWAP1 PUSH1 0x20 ADD KECCAK256 SUB PUSH2 0x2513 JUMPI PUSH1 0x1 PUSH1 0x9 SLOAD PUSH2 0x250F SWAP2 SWAP1 PUSH2 0x46E0 JUMP JUMPDEST PUSH1 0x9 SSTORE JUMPDEST PUSH1 0x40 MLOAD PUSH4 0x6D616C65 PUSH1 0xE0 SHL PUSH1 0x20 DUP3 ADD MSTORE PUSH1 0x24 ADD PUSH1 0x40 MLOAD PUSH1 0x20 DUP2 DUP4 SUB SUB DUP2 MSTORE SWAP1 PUSH1 0x40 MSTORE DUP1 MLOAD SWAP1 PUSH1 0x20 ADD KECCAK256 DUP3 PUSH1 0x40 MLOAD PUSH1 0x20 ADD PUSH2 0x254D SWAP2 SWAP1 PUSH2 0x4542 JUMP JUMPDEST PUSH1 0x40 MLOAD PUSH1 0x20 DUP2 DUP4 SUB SUB DUP2 MSTORE SWAP1 PUSH1 0x40 MSTORE DUP1 MLOAD SWAP1 PUSH1 0x20 ADD KECCAK256 SUB PUSH2 0x257A JUMPI PUSH1 0x8 SLOAD PUSH2 0x2576 SWAP1 PUSH1 0x1 PUSH2 0x44FA JUMP JUMPDEST PUSH1 0x8 SSTORE JUMPDEST PUSH1 0x40 MLOAD PUSH6 0x66656D616C65 PUSH1 0xD0 SHL PUSH1 0x20 DUP3 ADD MSTORE PUSH1 0x26 ADD PUSH1 0x40 MLOAD PUSH1 0x20 DUP2 DUP4 SUB SUB DUP2 MSTORE SWAP1 PUSH1 0x40 MSTORE DUP1 MLOAD SWAP1 PUSH1 0x20 ADD KECCAK256 DUP3 PUSH1 0x40 MLOAD PUSH1 0x20 ADD PUSH2 0x25B6 SWAP2 SWAP1 PUSH2 0x4542 JUMP JUMPDEST PUSH1 0x40 MLOAD PUSH1 0x20 DUP2 DUP4 SUB SUB DUP2 MSTORE SWAP1 PUSH1 0x40 MSTORE DUP1 MLOAD SWAP1 PUSH1 0x20 ADD KECCAK256 SUB PUSH2 0x25E3 JUMPI PUSH1 0x9 SLOAD PUSH2 0x25DF SWAP1 PUSH1 0x1 PUSH2 0x44FA JUMP JUMPDEST PUSH1 0x9 SSTORE JUMPDEST PUSH1 0x0 SLOAD PUSH1 0x40 MLOAD PUSH4 0xC42F4FF PUSH1 0xE4 SHL DUP2 MSTORE PUSH1 0x1 PUSH1 0x1 PUSH1 0xA0 SHL SUB SWAP1 SWAP2 AND SWAP1 PUSH4 0xC42F4FF0 SWAP1 PUSH2 0x261D SWAP1 DUP11 SWAP1 DUP11 SWAP1 DUP11 SWAP1 DUP11 SWAP1 DUP11 SWAP1 DUP11 SWAP1 PUSH1 0x4 ADD PUSH2 0x46F7 JUMP JUMPDEST PUSH1 0x0 PUSH1 0x40 MLOAD DUP1 DUP4 SUB DUP2 PUSH1 0x0 DUP8 DUP1 EXTCODESIZE ISZERO DUP1 ISZERO PUSH2 0x2637 JUMPI PUSH1 0x0 DUP1 REVERT JUMPDEST POP GAS CALL ISZERO DUP1 ISZERO PUSH2 0x264B JUMPI RETURNDATASIZE PUSH1 0x0 DUP1 RETURNDATACOPY RETURNDATASIZE PUSH1 0x0 REVERT JUMPDEST POP POP PUSH1 0x40 MLOAD DUP10 SWAP3 POP PUSH32 0x98460A57B33A0A61D5E2A18EA00E19167A3164714E5C8D5E38F025E901943CAF SWAP2 POP PUSH1 0x0 SWAP1 LOG2 POP POP POP POP POP POP POP JUMP JUMPDEST CALLER PUSH1 0x0 SWAP1 DUP2 MSTORE PUSH1 0x7 PUSH1 0x20 MSTORE PUSH1 0x40 SWAP1 KECCAK256 SLOAD PUSH1 0x60 SWAP1 DUP2 SWAP1 DUP2 SWAP1 PUSH2 0x26B6 JUMPI PUSH1 0x40 MLOAD PUSH3 0x461BCD PUSH1 0xE5 SHL DUP2 MSTORE PUSH1 0x4 ADD PUSH2 0x7C5 SWAP1 PUSH2 0x4186 JUMP JUMPDEST PUSH1 0x0 SLOAD PUSH1 0x40 MLOAD PUSH4 0x670A3447 PUSH1 0xE1 SHL DUP2 MSTORE PUSH1 0x4 DUP2 ADD DUP7 SWAP1 MSTORE PUSH1 0x1 PUSH1 0x1 PUSH1 0xA0 SHL SUB SWAP1 SWAP2 AND SWAP1 PUSH4 0xCE14688E SWAP1 PUSH1 0x24 ADD PUSH1 0x0 PUSH1 0x40 MLOAD DUP1 DUP4 SUB DUP2 DUP7 GAS STATICCALL ISZERO DUP1 ISZERO PUSH2 0x26FF JUMPI RETURNDATASIZE PUSH1 0x0 DUP1 RETURNDATACOPY RETURNDATASIZE PUSH1 0x0 REVERT JUMPDEST POP POP POP POP PUSH1 0x40 MLOAD RETURNDATASIZE PUSH1 0x0 DUP3 RETURNDATACOPY PUSH1 0x1F RETURNDATASIZE SWAP1 DUP2 ADD PUSH1 0x1F NOT AND DUP3 ADD PUSH1 0x40 MSTORE PUSH2 0x108B SWAP2 SWAP1 DUP2 ADD SWAP1 PUSH2 0x4750 JUMP JUMPDEST CALLER PUSH1 0x0 SWAP1 DUP2 MSTORE PUSH1 0x7 PUSH1 0x20 MSTORE PUSH1 0x40 DUP2 KECCAK256 SLOAD PUSH1 0x60 SWAP2 SWAP1 PUSH2 0x2757 JUMPI PUSH1 0x40 MLOAD PUSH3 0x461BCD PUSH1 0xE5 SHL DUP2 MSTORE PUSH1 0x4 ADD PUSH2 0x7C5 SWAP1 PUSH2 0x4186 JUMP JUMPDEST PUSH1 0x1 SLOAD PUSH1 0x40 DUP1 MLOAD PUSH4 0xF57C6491 PUSH1 0xE0 SHL DUP2 MSTORE SWAP1 MLOAD PUSH1 0x0 SWAP3 PUSH1 0x1 PUSH1 0x1 PUSH1 0xA0 SHL SUB AND SWAP2 PUSH4 0xF57C6491 SWAP2 PUSH1 0x4 DUP1 DUP4 ADD SWAP3 PUSH1 0x20 SWAP3 SWAP2 SWAP1 DUP3 SWAP1 SUB ADD DUP2 DUP7 GAS STATICCALL ISZERO DUP1 ISZERO PUSH2 0x27A1 JUMPI RETURNDATASIZE PUSH1 0x0 DUP1 RETURNDATACOPY RETURNDATASIZE PUSH1 0x0 REVERT JUMPDEST POP POP POP POP PUSH1 0x40 MLOAD RETURNDATASIZE PUSH1 0x1F NOT PUSH1 0x1F DUP3 ADD AND DUP3 ADD DUP1 PUSH1 0x40 MSTORE POP DUP2 ADD SWAP1 PUSH2 0x27C5 SWAP2 SWAP1 PUSH2 0x43E5 JUMP JUMPDEST SWAP1 POP DUP1 JUMPDEST DUP1 ISZERO PUSH2 0x1C40 JUMPI PUSH1 0x1 SLOAD PUSH1 0x40 MLOAD PUSH4 0x69D5213B PUSH1 0xE0 SHL DUP2 MSTORE PUSH1 0x4 DUP2 ADD DUP4 SWAP1 MSTORE DUP7 SWAP2 PUSH1 0x1 PUSH1 0x1 PUSH1 0xA0 SHL SUB AND SWAP1 PUSH4 0x69D5213B SWAP1 PUSH1 0x24 ADD PUSH1 0x20 PUSH1 0x40 MLOAD DUP1 DUP4 SUB DUP2 DUP7 GAS STATICCALL ISZERO DUP1 ISZERO PUSH2 0x2818 JUMPI RETURNDATASIZE PUSH1 0x0 DUP1 RETURNDATACOPY RETURNDATASIZE PUSH1 0x0 REVERT JUMPDEST POP POP POP POP PUSH1 0x40 MLOAD RETURNDATASIZE PUSH1 0x1F NOT PUSH1 0x1F DUP3 ADD AND DUP3 ADD DUP1 PUSH1 0x40 MSTORE POP DUP2 ADD SWAP1 PUSH2 0x283C SWAP2 SWAP1 PUSH2 0x43E5 JUMP JUMPDEST EQ DUP1 ISZERO PUSH2 0x28EE JUMPI POP PUSH1 0x40 DUP1 MLOAD PUSH1 0x0 DUP2 MSTORE PUSH1 0x20 DUP2 ADD SWAP2 DUP3 SWAP1 MSTORE DUP1 MLOAD DUP3 KECCAK256 PUSH1 0x1 SLOAD PUSH4 0x61590D55 PUSH1 0xE0 SHL SWAP1 SWAP4 MSTORE PUSH1 0x24 DUP3 ADD DUP5 SWAP1 MSTORE SWAP2 PUSH1 0x1 PUSH1 0x1 PUSH1 0xA0 SHL SUB AND SWAP1 PUSH4 0x61590D55 SWAP1 PUSH1 0x44 ADD PUSH1 0x0 PUSH1 0x40 MLOAD DUP1 DUP4 SUB DUP2 DUP7 GAS STATICCALL ISZERO DUP1 ISZERO PUSH2 0x289E JUMPI RETURNDATASIZE PUSH1 0x0 DUP1 RETURNDATACOPY RETURNDATASIZE PUSH1 0x0 REVERT JUMPDEST POP POP POP POP PUSH1 0x40 MLOAD RETURNDATASIZE PUSH1 0x0 DUP3 RETURNDATACOPY PUSH1 0x1F RETURNDATASIZE SWAP1 DUP2 ADD PUSH1 0x1F NOT AND DUP3 ADD PUSH1 0x40 MSTORE PUSH2 0x28C6 SWAP2 SWAP1 DUP2 ADD SWAP1 PUSH2 0x442C JUMP JUMPDEST PUSH1 0x40 MLOAD PUSH1 0x20 ADD PUSH2 0x28D6 SWAP2 SWAP1 PUSH2 0x4542 JUMP JUMPDEST PUSH1 0x40 MLOAD PUSH1 0x20 DUP2 DUP4 SUB SUB DUP2 MSTORE SWAP1 PUSH1 0x40 MSTORE DUP1 MLOAD SWAP1 PUSH1 0x20 ADD KECCAK256 EQ JUMPDEST ISZERO PUSH2 0x2924 JUMPI PUSH1 0x1 SLOAD PUSH1 0x40 MLOAD PUSH4 0x4273DB49 PUSH1 0xE1 SHL DUP2 MSTORE PUSH1 0x4 DUP2 ADD DUP4 SWAP1 MSTORE PUSH1 0x1 PUSH1 0x1 PUSH1 0xA0 SHL SUB SWAP1 SWAP2 AND SWAP1 PUSH4 0x84E7B692 SWAP1 PUSH1 0x24 ADD PUSH2 0x1B71 JUMP JUMPDEST DUP1 PUSH2 0x292E DUP2 PUSH2 0x455E JUMP JUMPDEST SWAP2 POP POP PUSH2 0x27C9 JUMP JUMPDEST CALLER PUSH1 0x0 SWAP1 DUP2 MSTORE PUSH1 0x7 PUSH1 0x20 MSTORE PUSH1 0x40 DUP2 KECCAK256 SLOAD PUSH2 0x2962 JUMPI PUSH1 0x40 MLOAD PUSH3 0x461BCD PUSH1 0xE5 SHL DUP2 MSTORE PUSH1 0x4 ADD PUSH2 0x7C5 SWAP1 PUSH2 0x4186 JUMP JUMPDEST PUSH1 0x5 SLOAD PUSH1 0x40 MLOAD PUSH4 0x205A812D PUSH1 0xE0 SHL DUP2 MSTORE PUSH1 0x4 DUP2 ADD DUP5 SWAP1 MSTORE PUSH1 0x1 PUSH1 0x1 PUSH1 0xA0 SHL SUB SWAP1 SWAP2 AND SWAP1 PUSH4 0x205A812D SWAP1 PUSH1 0x24 ADD PUSH1 0x20 PUSH1 0x40 MLOAD DUP1 DUP4 SUB DUP2 DUP7 GAS STATICCALL ISZERO DUP1 ISZERO PUSH2 0x29AB JUMPI RETURNDATASIZE PUSH1 0x0 DUP1 RETURNDATACOPY RETURNDATASIZE PUSH1 0x0 REVERT JUMPDEST POP POP POP POP PUSH1 0x40 MLOAD RETURNDATASIZE PUSH1 0x1F NOT PUSH1 0x1F DUP3 ADD AND DUP3 ADD DUP1 PUSH1 0x40 MSTORE POP DUP2 ADD SWAP1 PUSH2 0x29CF SWAP2 SWAP1 PUSH2 0x43E5 JUMP JUMPDEST SWAP3 SWAP2 POP POP JUMP JUMPDEST CALLER PUSH1 0x0 SWAP1 DUP2 MSTORE PUSH1 0x7 PUSH1 0x20 MSTORE PUSH1 0x40 SWAP1 KECCAK256 SLOAD PUSH2 0x2A01 JUMPI PUSH1 0x40 MLOAD PUSH3 0x461BCD PUSH1 0xE5 SHL DUP2 MSTORE PUSH1 0x4 ADD PUSH2 0x7C5 SWAP1 PUSH2 0x4186 JUMP JUMPDEST PUSH1 0x0 DUP1 SLOAD PUSH1 0x40 MLOAD PUSH4 0xC3A356B PUSH1 0xE1 SHL DUP2 MSTORE PUSH1 0x4 DUP2 ADD DUP10 SWAP1 MSTORE DUP3 SWAP2 PUSH1 0x1 PUSH1 0x1 PUSH1 0xA0 SHL SUB AND SWAP1 PUSH4 0x18746AD6 SWAP1 PUSH1 0x24 ADD PUSH1 0x0 PUSH1 0x40 MLOAD DUP1 DUP4 SUB DUP2 DUP7 GAS STATICCALL ISZERO DUP1 ISZERO PUSH2 0x2A4B JUMPI RETURNDATASIZE PUSH1 0x0 DUP1 RETURNDATACOPY RETURNDATASIZE PUSH1 0x0 REVERT JUMPDEST POP POP POP POP PUSH1 0x40 MLOAD RETURNDATASIZE PUSH1 0x0 DUP3 RETURNDATACOPY PUSH1 0x1F RETURNDATASIZE SWAP1 DUP2 ADD PUSH1 0x1F NOT AND DUP3 ADD PUSH1 0x40 MSTORE PUSH2 0x2A73 SWAP2 SWAP1 DUP2 ADD SWAP1 PUSH2 0x45BB JUMP JUMPDEST POP PUSH1 0x0 DUP3 DUP2 MSTORE PUSH1 0xA PUSH1 0x20 MSTORE PUSH1 0x40 SWAP1 KECCAK256 SLOAD SWAP2 SWAP7 POP SWAP5 POP PUSH2 0x2A98 SWAP4 POP PUSH1 0x1 SWAP3 POP SWAP1 POP PUSH2 0x46E0 JUMP JUMPDEST PUSH1 0x0 DUP4 DUP2 MSTORE PUSH1 0xA PUSH1 0x20 MSTORE PUSH1 0x40 DUP1 DUP3 KECCAK256 SWAP3 SWAP1 SWAP3 SSTORE DUP7 DUP2 MSTORE KECCAK256 SLOAD PUSH2 0x2ABB SWAP1 PUSH1 0x1 PUSH2 0x44FA JUMP JUMPDEST PUSH1 0x0 DUP7 DUP2 MSTORE PUSH1 0xA PUSH1 0x20 SWAP1 DUP2 MSTORE PUSH1 0x40 DUP1 DUP4 KECCAK256 SWAP4 SWAP1 SWAP4 SSTORE DUP5 DUP3 MSTORE PUSH1 0xB SWAP1 MSTORE DUP2 SWAP1 KECCAK256 SWAP1 MLOAD PUSH1 0x1 SWAP2 SWAP1 PUSH2 0x2AEB SWAP1 DUP5 SWAP1 PUSH2 0x4542 JUMP JUMPDEST SWAP1 DUP2 MSTORE PUSH1 0x20 ADD PUSH1 0x40 MLOAD DUP1 SWAP2 SUB SWAP1 KECCAK256 SLOAD PUSH2 0x2B04 SWAP2 SWAP1 PUSH2 0x46E0 JUMP JUMPDEST PUSH1 0x0 DUP4 DUP2 MSTORE PUSH1 0xB PUSH1 0x20 MSTORE PUSH1 0x40 SWAP1 DUP2 SWAP1 KECCAK256 SWAP1 MLOAD PUSH2 0x2B21 SWAP1 DUP5 SWAP1 PUSH2 0x4542 JUMP JUMPDEST SWAP1 DUP2 MSTORE PUSH1 0x20 ADD PUSH1 0x40 MLOAD DUP1 SWAP2 SUB SWAP1 KECCAK256 DUP2 SWAP1 SSTORE POP PUSH1 0xB PUSH1 0x0 DUP7 DUP2 MSTORE PUSH1 0x20 ADD SWAP1 DUP2 MSTORE PUSH1 0x20 ADD PUSH1 0x0 KECCAK256 DUP5 PUSH1 0x40 MLOAD PUSH2 0x2B54 SWAP2 SWAP1 PUSH2 0x4542 JUMP JUMPDEST SWAP1 DUP2 MSTORE PUSH1 0x20 ADD PUSH1 0x40 MLOAD DUP1 SWAP2 SUB SWAP1 KECCAK256 SLOAD PUSH1 0x1 PUSH2 0x2B6F SWAP2 SWAP1 PUSH2 0x44FA JUMP JUMPDEST PUSH1 0x0 DUP7 DUP2 MSTORE PUSH1 0xB PUSH1 0x20 MSTORE PUSH1 0x40 SWAP1 DUP2 SWAP1 KECCAK256 SWAP1 MLOAD PUSH2 0x2B8C SWAP1 DUP8 SWAP1 PUSH2 0x4542 JUMP JUMPDEST SWAP1 DUP2 MSTORE PUSH1 0x40 MLOAD SWAP1 DUP2 SWAP1 SUB PUSH1 0x20 ADD DUP2 KECCAK256 SWAP2 SWAP1 SWAP2 SSTORE PUSH1 0x0 SLOAD PUSH4 0xCF83522F PUSH1 0xE0 SHL DUP3 MSTORE PUSH1 0x1 PUSH1 0x1 PUSH1 0xA0 SHL SUB AND SWAP1 PUSH4 0xCF83522F SWAP1 PUSH2 0x2BD4 SWAP1 DUP12 SWAP1 DUP12 SWAP1 DUP12 SWAP1 DUP12 SWAP1 DUP12 SWAP1 DUP12 SWAP1 PUSH1 0x4 ADD PUSH2 0x47CD JUMP JUMPDEST PUSH1 0x0 PUSH1 0x40 MLOAD DUP1 DUP4 SUB DUP2 PUSH1 0x0 DUP8 DUP1 EXTCODESIZE ISZERO DUP1 ISZERO PUSH2 0x2BEE JUMPI PUSH1 0x0 DUP1 REVERT JUMPDEST POP GAS CALL ISZERO DUP1 ISZERO PUSH2 0x2C02 JUMPI RETURNDATASIZE PUSH1 0x0 DUP1 RETURNDATACOPY RETURNDATASIZE PUSH1 0x0 REVERT JUMPDEST POP POP PUSH1 0x40 MLOAD DUP11 SWAP3 POP PUSH32 0x95A7DE7C1A5B26B7C8A7B4E1CAE89C1B0C5052CC08261BC53F1453304DB9C690 SWAP2 POP PUSH1 0x0 SWAP1 LOG2 POP POP POP POP POP POP POP POP JUMP JUMPDEST CALLER PUSH1 0x0 SWAP1 DUP2 MSTORE PUSH1 0x7 PUSH1 0x20 MSTORE PUSH1 0x40 SWAP1 KECCAK256 SLOAD PUSH2 0x2C67 JUMPI PUSH1 0x40 MLOAD PUSH3 0x461BCD PUSH1 0xE5 SHL DUP2 MSTORE PUSH1 0x4 ADD PUSH2 0x7C5 SWAP1 PUSH2 0x4186 JUMP JUMPDEST PUSH1 0x0 SLOAD PUSH1 0x40 MLOAD PUSH4 0xD4CB7CF3 PUSH1 0xE0 SHL DUP2 MSTORE PUSH1 0x1 PUSH1 0x1 PUSH1 0xA0 SHL SUB SWAP1 SWAP2 AND SWAP1 PUSH4 0xD4CB7CF3 SWAP1 PUSH2 0x2CA3 SWAP1 DUP11 SWAP1 DUP11 SWAP1 DUP11 SWAP1 DUP11 SWAP1 DUP11 SWAP1 DUP11 SWAP1 DUP11 SWAP1 PUSH1 0x4 ADD PUSH2 0x4804 JUMP JUMPDEST PUSH1 0x0 PUSH1 0x40 MLOAD DUP1 DUP4 SUB DUP2 PUSH1 0x0 DUP8 DUP1 EXTCODESIZE ISZERO DUP1 ISZERO PUSH2 0x2CBD JUMPI PUSH1 0x0 DUP1 REVERT JUMPDEST POP GAS CALL ISZERO DUP1 ISZERO PUSH2 0x2CD1 JUMPI RETURNDATASIZE PUSH1 0x0 DUP1 RETURNDATACOPY RETURNDATASIZE PUSH1 0x0 REVERT JUMPDEST POP POP PUSH1 0x40 MLOAD DUP10 SWAP3 POP PUSH32 0x4D517F724A0C226F093F63BC90D70937F9F164A08A14A7787D8C9FB09DC1B807 SWAP2 POP PUSH1 0x0 SWAP1 LOG2 POP POP POP POP POP POP POP JUMP JUMPDEST CALLER PUSH1 0x0 SWAP1 DUP2 MSTORE PUSH1 0x7 PUSH1 0x20 MSTORE PUSH1 0x40 SWAP1 KECCAK256 SLOAD PUSH2 0x2D35 JUMPI PUSH1 0x40 MLOAD PUSH3 0x461BCD PUSH1 0xE5 SHL DUP2 MSTORE PUSH1 0x4 ADD PUSH2 0x7C5 SWAP1 PUSH2 0x4186 JUMP JUMPDEST PUSH1 0x0 PUSH2 0x2D3F PUSH2 0xEDC JUMP JUMPDEST SWAP1 POP PUSH1 0x1 JUMPDEST DUP2 DUP2 GT PUSH2 0x2E68 JUMPI PUSH1 0x0 DUP1 SLOAD PUSH1 0x40 MLOAD PUSH4 0xC3A356B PUSH1 0xE1 SHL DUP2 MSTORE PUSH1 0x4 DUP2 ADD DUP5 SWAP1 MSTORE DUP3 SWAP2 DUP3 SWAP2 PUSH1 0x1 PUSH1 0x1 PUSH1 0xA0 SHL SUB SWAP1 SWAP2 AND SWAP1 PUSH4 0x18746AD6 SWAP1 PUSH1 0x24 ADD PUSH1 0x0 PUSH1 0x40 MLOAD DUP1 DUP4 SUB DUP2 DUP7 GAS STATICCALL ISZERO DUP1 ISZERO PUSH2 0x2D99 JUMPI RETURNDATASIZE PUSH1 0x0 DUP1 RETURNDATACOPY RETURNDATASIZE PUSH1 0x0 REVERT JUMPDEST POP POP POP POP PUSH1 0x40 MLOAD RETURNDATASIZE PUSH1 0x0 DUP3 RETURNDATACOPY PUSH1 0x1F RETURNDATASIZE SWAP1 DUP2 ADD PUSH1 0x1F NOT AND DUP3 ADD PUSH1 0x40 MSTORE PUSH2 0x2DC1 SWAP2 SWAP1 DUP2 ADD SWAP1 PUSH2 0x45BB JUMP JUMPDEST POP POP SWAP4 POP SWAP4 POP POP SWAP3 POP DUP7 PUSH1 0x40 MLOAD PUSH1 0x20 ADD PUSH2 0x2DDB SWAP2 SWAP1 PUSH2 0x4542 JUMP JUMPDEST PUSH1 0x40 MLOAD PUSH1 0x20 DUP2 DUP4 SUB SUB DUP2 MSTORE SWAP1 PUSH1 0x40 MSTORE DUP1 MLOAD SWAP1 PUSH1 0x20 ADD KECCAK256 DUP4 PUSH1 0x40 MLOAD PUSH1 0x20 ADD PUSH2 0x2E02 SWAP2 SWAP1 PUSH2 0x4542 JUMP JUMPDEST PUSH1 0x40 MLOAD PUSH1 0x20 DUP2 DUP4 SUB SUB DUP2 MSTORE SWAP1 PUSH1 0x40 MSTORE DUP1 MLOAD SWAP1 PUSH1 0x20 ADD KECCAK256 SUB PUSH2 0x2E52 JUMPI DUP6 DUP2 SUB PUSH2 0x2E52 JUMPI PUSH1 0x40 MLOAD DUP3 SWAP1 DUP6 SWAP1 PUSH32 0x78A5F595BAA9B25B7A730211C5CF18E46D8C54F6CD7558AB36FF8EF5CF76D19E SWAP1 PUSH1 0x0 SWAP1 LOG3 JUMPDEST POP POP POP DUP1 DUP1 PUSH2 0x2E60 SWAP1 PUSH2 0x488D JUMP JUMPDEST SWAP2 POP POP PUSH2 0x2D44 JUMP JUMPDEST POP POP POP POP JUMP JUMPDEST CALLER PUSH1 0x0 SWAP1 DUP2 MSTORE PUSH1 0x7 PUSH1 0x20 MSTORE PUSH1 0x40 SWAP1 KECCAK256 SLOAD PUSH2 0x2E9A JUMPI PUSH1 0x40 MLOAD PUSH3 0x461BCD PUSH1 0xE5 SHL DUP2 MSTORE PUSH1 0x4 ADD PUSH2 0x7C5 SWAP1 PUSH2 0x4186 JUMP JUMPDEST PUSH1 0x4 DUP1 SLOAD PUSH1 0x40 MLOAD PUSH4 0xD7D1BBDB PUSH1 0xE0 SHL DUP2 MSTORE SWAP2 DUP3 ADD DUP4 SWAP1 MSTORE PUSH1 0x1 PUSH1 0x1 PUSH1 0xA0 SHL SUB AND SWAP1 PUSH4 0xD7D1BBDB SWAP1 PUSH1 0x24 ADD PUSH2 0xBB2 JUMP JUMPDEST PUSH1 0x1 SLOAD PUSH1 0x40 MLOAD PUSH4 0xD83463C9 PUSH1 0xE0 SHL DUP2 MSTORE PUSH1 0x0 SWAP2 PUSH1 0x1 PUSH1 0x1 PUSH1 0xA0 SHL SUB AND SWAP1 PUSH4 0xD83463C9 SWAP1 PUSH2 0x2EFE SWAP1 DUP8 SWAP1 DUP8 SWAP1 DUP8 SWAP1 PUSH1 0x4 ADD PUSH2 0x48A6 JUMP JUMPDEST PUSH1 0x20 PUSH1 0x40 MLOAD DUP1 DUP4 SUB DUP2 PUSH1 0x0 DUP8 GAS CALL ISZERO DUP1 ISZERO PUSH2 0x2F1D JUMPI RETURNDATASIZE PUSH1 0x0 DUP1 RETURNDATACOPY RETURNDATASIZE PUSH1 0x0 REVERT JUMPDEST POP POP POP POP PUSH1 0x40 MLOAD RETURNDATASIZE PUSH1 0x1F NOT PUSH1 0x1F DUP3 ADD AND DUP3 ADD DUP1 PUSH1 0x40 MSTORE POP DUP2 ADD SWAP1 PUSH2 0x2F41 SWAP2 SWAP1 PUSH2 0x43E5 JUMP JUMPDEST SWAP1 POP DUP2 DUP2 DUP6 PUSH32 0xAD6D3ADECC8B5201D9897B24894EE0092797E79BE758B09F0DF6EECB2D105B9 PUSH1 0x40 MLOAD PUSH1 0x40 MLOAD DUP1 SWAP2 SUB SWAP1 LOG4 POP POP POP POP JUMP JUMPDEST CALLER PUSH1 0x0 SWAP1 DUP2 MSTORE PUSH1 0x7 PUSH1 0x20 MSTORE PUSH1 0x40 DUP2 KECCAK256 SLOAD DUP2 SWAP1 DUP2 SWAP1 DUP2 SWAP1 PUSH2 0x2FAA JUMPI PUSH1 0x40 MLOAD PUSH3 0x461BCD PUSH1 0xE5 SHL DUP2 MSTORE PUSH1 0x4 ADD PUSH2 0x7C5 SWAP1 PUSH2 0x4186 JUMP JUMPDEST PUSH1 0x5 SLOAD PUSH1 0x40 MLOAD PUSH4 0x9639231 PUSH1 0xE3 SHL DUP2 MSTORE PUSH1 0x4 DUP2 ADD DUP8 SWAP1 MSTORE PUSH1 0x24 DUP2 ADD DUP9 SWAP1 MSTORE PUSH1 0x0 SWAP2 PUSH1 0x1 PUSH1 0x1 PUSH1 0xA0 SHL SUB AND SWAP1 PUSH4 0x4B1C9188 SWAP1 PUSH1 0x44 ADD PUSH1 0x20 PUSH1 0x40 MLOAD DUP1 DUP4 SUB DUP2 DUP7 GAS STATICCALL ISZERO DUP1 ISZERO PUSH2 0x2FFB JUMPI RETURNDATASIZE PUSH1 0x0 DUP1 RETURNDATACOPY RETURNDATASIZE PUSH1 0x0 REVERT JUMPDEST POP POP POP POP PUSH1 0x40 MLOAD RETURNDATASIZE PUSH1 0x1F NOT PUSH1 0x1F DUP3 ADD AND DUP3 ADD DUP1 PUSH1 0x40 MSTORE POP DUP2 ADD SWAP1 PUSH2 0x301F SWAP2 SWAP1 PUSH2 0x43E5 JUMP JUMPDEST PUSH1 0x5 SLOAD PUSH1 0x40 MLOAD PUSH4 0xDE79363 PUSH1 0xE4 SHL DUP2 MSTORE PUSH1 0x4 DUP2 ADD DUP4 SWAP1 MSTORE PUSH1 0x24 DUP2 ADD DUP10 SWAP1 MSTORE SWAP2 SWAP3 POP PUSH1 0x0 SWAP2 DUP3 SWAP2 DUP3 SWAP2 PUSH1 0x1 PUSH1 0x1 PUSH1 0xA0 SHL SUB SWAP1 SWAP2 AND SWAP1 PUSH4 0xDE793630 SWAP1 PUSH1 0x44 ADD PUSH1 0x60 PUSH1 0x40 MLOAD DUP1 DUP4 SUB DUP2 DUP7 GAS STATICCALL ISZERO DUP1 ISZERO PUSH2 0x3079 JUMPI RETURNDATASIZE PUSH1 0x0 DUP1 RETURNDATACOPY RETURNDATASIZE PUSH1 0x0 REVERT JUMPDEST POP POP POP POP PUSH1 0x40 MLOAD RETURNDATASIZE PUSH1 0x1F NOT PUSH1 0x1F DUP3 ADD AND DUP3 ADD DUP1 PUSH1 0x40 MSTORE POP DUP2 ADD SWAP1 PUSH2 0x309D SWAP2 SWAP1 PUSH2 0x43FE JUMP JUMPDEST SWAP6 SWAP13 SWAP2 SWAP12 POP SWAP10 POP SWAP4 SWAP8 POP SWAP3 SWAP6 POP POP POP POP POP POP JUMP JUMPDEST CALLER PUSH1 0x0 SWAP1 DUP2 MSTORE PUSH1 0x7 PUSH1 0x20 MSTORE PUSH1 0x40 SWAP1 KECCAK256 SLOAD PUSH1 0x60 SWAP1 DUP2 SWAP1 PUSH2 0x30E2 JUMPI PUSH1 0x40 MLOAD PUSH3 0x461BCD PUSH1 0xE5 SHL DUP2 MSTORE PUSH1 0x4 ADD PUSH2 0x7C5 SWAP1 PUSH2 0x4186 JUMP JUMPDEST PUSH1 0x2 SLOAD PUSH1 0x40 MLOAD PUSH4 0xDC600DD PUSH1 0xE0 SHL DUP2 MSTORE PUSH1 0x1 PUSH1 0x1 PUSH1 0xA0 SHL SUB DUP6 DUP2 AND PUSH1 0x4 DUP4 ADD MSTORE SWAP1 SWAP2 AND SWAP1 PUSH4 0xDC600DD SWAP1 PUSH1 0x24 ADD PUSH1 0x0 PUSH1 0x40 MLOAD DUP1 DUP4 SUB DUP2 DUP7 GAS STATICCALL ISZERO DUP1 ISZERO PUSH2 0x312C JUMPI RETURNDATASIZE PUSH1 0x0 DUP1 RETURNDATACOPY RETURNDATASIZE PUSH1 0x0 REVERT JUMPDEST POP POP POP POP PUSH1 0x40 MLOAD RETURNDATASIZE PUSH1 0x0 DUP3 RETURNDATACOPY PUSH1 0x1F RETURNDATASIZE SWAP1 DUP2 ADD PUSH1 0x1F NOT AND DUP3 ADD PUSH1 0x40 MSTORE PUSH2 0x3154 SWAP2 SWAP1 DUP2 ADD SWAP1 PUSH2 0x442C JUMP JUMPDEST PUSH1 0x2 SLOAD PUSH1 0x40 MLOAD PUSH4 0x93A56AF3 PUSH1 0xE0 SHL DUP2 MSTORE PUSH1 0x1 PUSH1 0x1 PUSH1 0xA0 SHL SUB DUP7 DUP2 AND PUSH1 0x4 DUP4 ADD MSTORE SWAP1 SWAP2 AND SWAP1 PUSH4 0x93A56AF3 SWAP1 PUSH1 0x24 ADD PUSH1 0x0 PUSH1 0x40 MLOAD DUP1 DUP4 SUB DUP2 DUP7 GAS STATICCALL ISZERO DUP1 ISZERO PUSH2 0x319E JUMPI RETURNDATASIZE PUSH1 0x0 DUP1 RETURNDATACOPY RETURNDATASIZE PUSH1 0x0 REVERT JUMPDEST POP POP POP POP PUSH1 0x40 MLOAD RETURNDATASIZE PUSH1 0x0 DUP3 RETURNDATACOPY PUSH1 0x1F RETURNDATASIZE SWAP1 DUP2 ADD PUSH1 0x1F NOT AND DUP3 ADD PUSH1 0x40 MSTORE PUSH2 0x16D3 SWAP2 SWAP1 DUP2 ADD SWAP1 PUSH2 0x442C JUMP JUMPDEST CALLER PUSH1 0x0 SWAP1 DUP2 MSTORE PUSH1 0x7 PUSH1 0x20 MSTORE PUSH1 0x40 SWAP1 KECCAK256 SLOAD PUSH2 0x31F2 JUMPI PUSH1 0x40 MLOAD PUSH3 0x461BCD PUSH1 0xE5 SHL DUP2 MSTORE PUSH1 0x4 ADD PUSH2 0x7C5 SWAP1 PUSH2 0x4186 JUMP JUMPDEST PUSH1 0x4 DUP1 SLOAD PUSH1 0x40 MLOAD PUSH4 0xF0282B7F PUSH1 0xE0 SHL DUP2 MSTORE SWAP2 DUP3 ADD DUP4 SWAP1 MSTORE PUSH1 0x1 PUSH1 0x1 PUSH1 0xA0 SHL SUB AND SWAP1 PUSH4 0xF0282B7F SWAP1 PUSH1 0x24 ADD PUSH2 0xBB2 JUMP JUMPDEST CALLER PUSH1 0x0 SWAP1 DUP2 MSTORE PUSH1 0x7 PUSH1 0x20 MSTORE PUSH1 0x40 SWAP1 KECCAK256 SLOAD PUSH1 0x60 SWAP1 DUP2 SWAP1 DUP2 SWAP1 DUP2 SWAP1 DUP2 SWAP1 DUP2 SWAP1 PUSH2 0x325A JUMPI PUSH1 0x40 MLOAD PUSH3 0x461BCD PUSH1 0xE5 SHL DUP2 MSTORE PUSH1 0x4 ADD PUSH2 0x7C5 SWAP1 PUSH2 0x4186 JUMP JUMPDEST PUSH1 0x0 SLOAD PUSH1 0x40 MLOAD PUSH4 0x10EB2CF9 PUSH1 0xE3 SHL DUP2 MSTORE PUSH1 0x4 DUP2 ADD DUP10 SWAP1 MSTORE PUSH1 0x1 PUSH1 0x1 PUSH1 0xA0 SHL SUB SWAP1 SWAP2 AND SWAP1 PUSH4 0x875967C8 SWAP1 PUSH1 0x24 ADD PUSH1 0x0 PUSH1 0x40 MLOAD DUP1 DUP4 SUB DUP2 DUP7 GAS STATICCALL ISZERO DUP1 ISZERO PUSH2 0x32A3 JUMPI RETURNDATASIZE PUSH1 0x0 DUP1 RETURNDATACOPY RETURNDATASIZE PUSH1 0x0 REVERT JUMPDEST POP POP POP POP PUSH1 0x40 MLOAD RETURNDATASIZE PUSH1 0x0 DUP3 RETURNDATACOPY PUSH1 0x1F RETURNDATASIZE SWAP1 DUP2 ADD PUSH1 0x1F NOT AND DUP3 ADD PUSH1 0x40 MSTORE PUSH2 0x1DA8 SWAP2 SWAP1 DUP2 ADD SWAP1 PUSH2 0x48CF JUMP JUMPDEST PUSH1 0x4 DUP1 SLOAD PUSH1 0x40 MLOAD PUSH4 0xD3540907 PUSH1 0xE0 SHL DUP2 MSTORE SWAP2 DUP3 ADD DUP4 SWAP1 MSTORE PUSH1 0x0 SWAP2 PUSH1 0x60 SWAP2 DUP3 SWAP2 DUP3 SWAP2 DUP3 SWAP2 DUP7 SWAP2 PUSH1 0x1 PUSH1 0x1 PUSH1 0xA0 SHL SUB AND SWAP1 PUSH4 0xD3540907 SWAP1 PUSH1 0x24 ADD PUSH1 0x20 PUSH1 0x40 MLOAD DUP1 DUP4 SUB DUP2 DUP7 GAS STATICCALL ISZERO DUP1 ISZERO PUSH2 0x3320 JUMPI RETURNDATASIZE PUSH1 0x0 DUP1 RETURNDATACOPY RETURNDATASIZE PUSH1 0x0 REVERT JUMPDEST POP POP POP POP PUSH1 0x40 MLOAD RETURNDATASIZE PUSH1 0x1F NOT PUSH1 0x1F DUP3 ADD AND DUP3 ADD DUP1 PUSH1 0x40 MSTORE POP DUP2 ADD SWAP1 PUSH2 0x3344 SWAP2 SWAP1 PUSH2 0x43E5 JUMP JUMPDEST PUSH1 0x4 DUP1 SLOAD PUSH1 0x40 MLOAD PUSH4 0x48452CC1 PUSH1 0xE1 SHL DUP2 MSTORE SWAP2 DUP3 ADD DUP11 SWAP1 MSTORE SWAP2 SWAP3 POP PUSH1 0x0 SWAP2 PUSH1 0x1 PUSH1 0x1 PUSH1 0xA0 SHL SUB AND SWAP1 PUSH4 0x908A5982 SWAP1 PUSH1 0x24 ADD PUSH1 0x0 PUSH1 0x40 MLOAD DUP1 DUP4 SUB DUP2 DUP7 GAS STATICCALL ISZERO DUP1 ISZERO PUSH2 0x3391 JUMPI RETURNDATASIZE PUSH1 0x0 DUP1 RETURNDATACOPY RETURNDATASIZE PUSH1 0x0 REVERT JUMPDEST POP POP POP POP PUSH1 0x40 MLOAD RETURNDATASIZE PUSH1 0x0 DUP3 RETURNDATACOPY PUSH1 0x1F RETURNDATASIZE SWAP1 DUP2 ADD PUSH1 0x1F NOT AND DUP3 ADD PUSH1 0x40 MSTORE PUSH2 0x33B9 SWAP2 SWAP1 DUP2 ADD SWAP1 PUSH2 0x442C JUMP JUMPDEST PUSH1 0x4 DUP1 SLOAD PUSH1 0x40 MLOAD PUSH4 0x1322E9B5 PUSH1 0xE1 SHL DUP2 MSTORE SWAP2 DUP3 ADD DUP12 SWAP1 MSTORE SWAP2 SWAP3 POP PUSH1 0x0 SWAP2 PUSH1 0x1 PUSH1 0x1 PUSH1 0xA0 SHL SUB AND SWAP1 PUSH4 0x2645D36A SWAP1 PUSH1 0x24 ADD PUSH1 0x0 PUSH1 0x40 MLOAD DUP1 DUP4 SUB DUP2 DUP7 GAS STATICCALL ISZERO DUP1 ISZERO PUSH2 0x3406 JUMPI RETURNDATASIZE PUSH1 0x0 DUP1 RETURNDATACOPY RETURNDATASIZE PUSH1 0x0 REVERT JUMPDEST POP POP POP POP PUSH1 0x40 MLOAD RETURNDATASIZE PUSH1 0x0 DUP3 RETURNDATACOPY PUSH1 0x1F RETURNDATASIZE SWAP1 DUP2 ADD PUSH1 0x1F NOT AND DUP3 ADD PUSH1 0x40 MSTORE PUSH2 0x342E SWAP2 SWAP1 DUP2 ADD SWAP1 PUSH2 0x442C JUMP JUMPDEST PUSH1 0x4 DUP1 SLOAD PUSH1 0x40 MLOAD PUSH4 0x34ADFED7 PUSH1 0xE0 SHL DUP2 MSTORE SWAP2 DUP3 ADD DUP13 SWAP1 MSTORE SWAP2 SWAP3 POP PUSH1 0x0 SWAP2 PUSH1 0x1 PUSH1 0x1 PUSH1 0xA0 SHL SUB AND SWAP1 PUSH4 0x34ADFED7 SWAP1 PUSH1 0x24 ADD PUSH1 0x0 PUSH1 0x40 MLOAD DUP1 DUP4 SUB DUP2 DUP7 GAS STATICCALL ISZERO DUP1 ISZERO PUSH2 0x347B JUMPI RETURNDATASIZE PUSH1 0x0 DUP1 RETURNDATACOPY RETURNDATASIZE PUSH1 0x0 REVERT JUMPDEST POP POP POP POP PUSH1 0x40 MLOAD RETURNDATASIZE PUSH1 0x0 DUP3 RETURNDATACOPY PUSH1 0x1F RETURNDATASIZE SWAP1 DUP2 ADD PUSH1 0x1F NOT AND DUP3 ADD PUSH1 0x40 MSTORE PUSH2 0x34A3 SWAP2 SWAP1 DUP2 ADD SWAP1 PUSH2 0x442C JUMP JUMPDEST PUSH1 0x4 DUP1 SLOAD PUSH1 0x40 MLOAD PUSH4 0xC8E97B13 PUSH1 0xE0 SHL DUP2 MSTORE SWAP2 DUP3 ADD DUP14 SWAP1 MSTORE SWAP2 SWAP3 POP PUSH1 0x0 SWAP2 PUSH1 0x1 PUSH1 0x1 PUSH1 0xA0 SHL SUB AND SWAP1 PUSH4 0xC8E97B13 SWAP1 PUSH1 0x24 ADD PUSH1 0x0 PUSH1 0x40 MLOAD DUP1 DUP4 SUB DUP2 DUP7 GAS STATICCALL ISZERO DUP1 ISZERO PUSH2 0x34F0 JUMPI RETURNDATASIZE PUSH1 0x0 DUP1 RETURNDATACOPY RETURNDATASIZE PUSH1 0x0 REVERT JUMPDEST POP POP POP POP PUSH1 0x40 MLOAD RETURNDATASIZE PUSH1 0x0 DUP3 RETURNDATACOPY PUSH1 0x1F RETURNDATASIZE SWAP1 DUP2 ADD PUSH1 0x1F NOT AND DUP3 ADD PUSH1 0x40 MSTORE PUSH2 0x3518 SWAP2 SWAP1 DUP2 ADD SWAP1 PUSH2 0x442C JUMP JUMPDEST SWAP5 SWAP12 SWAP4 SWAP11 POP SWAP2 SWAP9 POP SWAP3 SWAP7 POP SWAP2 SWAP5 POP SWAP3 POP POP POP JUMP JUMPDEST CALLER PUSH1 0x0 SWAP1 DUP2 MSTORE PUSH1 0x7 PUSH1 0x20 MSTORE PUSH1 0x40 SWAP1 KECCAK256 SLOAD PUSH2 0x3558 JUMPI PUSH1 0x40 MLOAD PUSH3 0x461BCD PUSH1 0xE5 SHL DUP2 MSTORE PUSH1 0x4 ADD PUSH2 0x7C5 SWAP1 PUSH2 0x4186 JUMP JUMPDEST PUSH1 0x5 SLOAD PUSH1 0x40 MLOAD PUSH4 0xFE9240FD PUSH1 0xE0 SHL DUP2 MSTORE PUSH1 0x4 DUP2 ADD DUP8 SWAP1 MSTORE PUSH1 0x24 DUP2 ADD DUP7 SWAP1 MSTORE PUSH1 0x44 DUP2 ADD DUP6 SWAP1 MSTORE PUSH1 0x64 DUP2 ADD DUP5 SWAP1 MSTORE PUSH1 0x84 DUP2 ADD DUP4 SWAP1 MSTORE PUSH1 0x1 PUSH1 0x1 PUSH1 0xA0 SHL SUB SWAP1 SWAP2 AND SWAP1 PUSH4 0xFE9240FD SWAP1 PUSH1 0xA4 ADD PUSH1 0x0 PUSH1 0x40 MLOAD DUP1 DUP4 SUB DUP2 PUSH1 0x0 DUP8 DUP1 EXTCODESIZE ISZERO DUP1 ISZERO PUSH2 0x35BA JUMPI PUSH1 0x0 DUP1 REVERT JUMPDEST POP GAS CALL ISZERO DUP1 ISZERO PUSH2 0x35CE JUMPI RETURNDATASIZE PUSH1 0x0 DUP1 RETURNDATACOPY RETURNDATASIZE PUSH1 0x0 REVERT JUMPDEST POP POP POP POP POP POP POP POP POP JUMP JUMPDEST PUSH4 0x4E487B71 PUSH1 0xE0 SHL PUSH1 0x0 MSTORE PUSH1 0x41 PUSH1 0x4 MSTORE PUSH1 0x24 PUSH1 0x0 REVERT JUMPDEST PUSH1 0x40 MLOAD PUSH1 0x1F DUP3 ADD PUSH1 0x1F NOT AND DUP2 ADD PUSH1 0x1 PUSH1 0x1 PUSH1 0x40 SHL SUB DUP2 GT DUP3 DUP3 LT OR ISZERO PUSH2 0x3617 JUMPI PUSH2 0x3617 PUSH2 0x35D9 JUMP JUMPDEST PUSH1 0x40 MSTORE SWAP2 SWAP1 POP JUMP JUMPDEST PUSH1 0x0 PUSH1 0x1 PUSH1 0x1 PUSH1 0x40 SHL SUB DUP3 GT ISZERO PUSH2 0x3638 JUMPI PUSH2 0x3638 PUSH2 0x35D9 JUMP JUMPDEST POP PUSH1 0x1F ADD PUSH1 0x1F NOT AND PUSH1 0x20 ADD SWAP1 JUMP JUMPDEST PUSH1 0x0 DUP3 PUSH1 0x1F DUP4 ADD SLT PUSH2 0x3657 JUMPI PUSH1 0x0 DUP1 REVERT JUMPDEST DUP2 CALLDATALOAD PUSH2 0x366A PUSH2 0x3665 DUP3 PUSH2 0x361F JUMP JUMPDEST PUSH2 0x35EF JUMP JUMPDEST DUP2 DUP2 MSTORE DUP5 PUSH1 0x20 DUP4 DUP7 ADD ADD GT ISZERO PUSH2 0x367F JUMPI PUSH1 0x0 DUP1 REVERT JUMPDEST DUP2 PUSH1 0x20 DUP6 ADD PUSH1 0x20 DUP4 ADD CALLDATACOPY PUSH1 0x0 SWAP2 DUP2 ADD PUSH1 0x20 ADD SWAP2 SWAP1 SWAP2 MSTORE SWAP4 SWAP3 POP POP POP JUMP JUMPDEST PUSH1 0x0 DUP1 PUSH1 0x0 PUSH1 0x60 DUP5 DUP7 SUB SLT ISZERO PUSH2 0x36B1 JUMPI PUSH1 0x0 DUP1 REVERT JUMPDEST DUP4 CALLDATALOAD SWAP3 POP PUSH1 0x20 DUP5 ADD CALLDATALOAD PUSH1 0x1 PUSH1 0x1 PUSH1 0x40 SHL SUB DUP1 DUP3 GT ISZERO PUSH2 0x36CF JUMPI PUSH1 0x0 DUP1 REVERT JUMPDEST PUSH2 0x36DB DUP8 DUP4 DUP9 ADD PUSH2 0x3646 JUMP JUMPDEST SWAP4 POP PUSH1 0x40 DUP7 ADD CALLDATALOAD SWAP2 POP DUP1 DUP3 GT ISZERO PUSH2 0x36F1 JUMPI PUSH1 0x0 DUP1 REVERT JUMPDEST POP PUSH2 0x36FE DUP7 DUP3 DUP8 ADD PUSH2 0x3646 JUMP JUMPDEST SWAP2 POP POP SWAP3 POP SWAP3 POP SWAP3 JUMP JUMPDEST PUSH1 0x0 PUSH1 0x20 DUP3 DUP5 SUB SLT ISZERO PUSH2 0x371A JUMPI PUSH1 0x0 DUP1 REVERT JUMPDEST POP CALLDATALOAD SWAP2 SWAP1 POP JUMP JUMPDEST PUSH1 0x0 JUMPDEST DUP4 DUP2 LT ISZERO PUSH2 0x373C JUMPI DUP2 DUP2 ADD MLOAD DUP4 DUP3 ADD MSTORE PUSH1 0x20 ADD PUSH2 0x3724 JUMP JUMPDEST DUP4 DUP2 GT ISZERO PUSH2 0x2E68 JUMPI POP POP PUSH1 0x0 SWAP2 ADD MSTORE JUMP JUMPDEST PUSH1 0x0 DUP2 MLOAD DUP1 DUP5 MSTORE PUSH2 0x3765 DUP2 PUSH1 0x20 DUP7 ADD PUSH1 0x20 DUP7 ADD PUSH2 0x3721 JUMP JUMPDEST PUSH1 0x1F ADD PUSH1 0x1F NOT AND SWAP3 SWAP1 SWAP3 ADD PUSH1 0x20 ADD SWAP3 SWAP2 POP POP JUMP JUMPDEST PUSH1 0xA0 DUP2 MSTORE PUSH1 0x0 PUSH2 0x378C PUSH1 0xA0 DUP4 ADD DUP9 PUSH2 0x374D JUMP JUMPDEST DUP3 DUP2 SUB PUSH1 0x20 DUP5 ADD MSTORE PUSH2 0x379E DUP2 DUP9 PUSH2 0x374D JUMP JUMPDEST SWAP1 POP DUP3 DUP2 SUB PUSH1 0x40 DUP5 ADD MSTORE PUSH2 0x37B2 DUP2 DUP8 PUSH2 0x374D JUMP JUMPDEST SWAP1 POP DUP3 DUP2 SUB PUSH1 0x60 DUP5 ADD MSTORE PUSH2 0x37C6 DUP2 DUP7 PUSH2 0x374D JUMP JUMPDEST SWAP1 POP DUP3 DUP2 SUB PUSH1 0x80 DUP5 ADD MSTORE PUSH2 0x37DA DUP2 DUP6 PUSH2 0x374D JUMP JUMPDEST SWAP9 SWAP8 POP POP POP POP POP POP POP POP JUMP JUMPDEST PUSH1 0xA0 DUP2 MSTORE PUSH1 0x0 PUSH2 0x37F9 PUSH1 0xA0 DUP4 ADD DUP9 PUSH2 0x374D JUMP JUMPDEST DUP3 DUP2 SUB PUSH1 0x20 DUP5 ADD MSTORE PUSH2 0x380B DUP2 DUP9 PUSH2 0x374D JUMP JUMPDEST SWAP1 POP DUP3 DUP2 SUB PUSH1 0x40 DUP5 ADD MSTORE PUSH2 0x381F DUP2 DUP8 PUSH2 0x374D JUMP JUMPDEST SWAP1 POP DUP5 PUSH1 0x60 DUP5 ADD MSTORE DUP3 DUP2 SUB PUSH1 0x80 DUP5 ADD MSTORE PUSH2 0x37DA DUP2 DUP6 PUSH2 0x374D JUMP JUMPDEST PUSH1 0x0 DUP1 PUSH1 0x0 DUP1 PUSH1 0x80 DUP6 DUP8 SUB SLT ISZERO PUSH2 0x384F JUMPI PUSH1 0x0 DUP1 REVERT JUMPDEST POP POP DUP3 CALLDATALOAD SWAP5 PUSH1 0x20 DUP5 ADD CALLDATALOAD SWAP5 POP PUSH1 0x40 DUP5 ADD CALLDATALOAD SWAP4 PUSH1 0x60 ADD CALLDATALOAD SWAP3 POP SWAP1 POP JUMP JUMPDEST PUSH1 0x0 DUP1 PUSH1 0x0 DUP1 PUSH1 0x80 DUP6 DUP8 SUB SLT ISZERO PUSH2 0x3881 JUMPI PUSH1 0x0 DUP1 REVERT JUMPDEST DUP5 CALLDATALOAD SWAP4 POP PUSH1 0x20 DUP6 ADD CALLDATALOAD PUSH1 0x1 PUSH1 0x1 PUSH1 0x40 SHL SUB DUP1 DUP3 GT ISZERO PUSH2 0x389F JUMPI PUSH1 0x0 DUP1 REVERT JUMPDEST PUSH2 0x38AB DUP9 DUP4 DUP10 ADD PUSH2 0x3646 JUMP JUMPDEST SWAP5 POP PUSH1 0x40 DUP8 ADD CALLDATALOAD SWAP2 POP DUP1 DUP3 GT ISZERO PUSH2 0x38C1 JUMPI PUSH1 0x0 DUP1 REVERT JUMPDEST PUSH2 0x38CD DUP9 DUP4 DUP10 ADD PUSH2 0x3646 JUMP JUMPDEST SWAP4 POP PUSH1 0x60 DUP8 ADD CALLDATALOAD SWAP2 POP DUP1 DUP3 GT ISZERO PUSH2 0x38E3 JUMPI PUSH1 0x0 DUP1 REVERT JUMPDEST POP PUSH2 0x38F0 DUP8 DUP3 DUP9 ADD PUSH2 0x3646 JUMP JUMPDEST SWAP2 POP POP SWAP3 SWAP6 SWAP2 SWAP5 POP SWAP3 POP JUMP JUMPDEST PUSH1 0x60 DUP2 MSTORE PUSH1 0x0 PUSH2 0x390F PUSH1 0x60 DUP4 ADD DUP7 PUSH2 0x374D JUMP JUMPDEST PUSH1 0x20 DUP4 ADD SWAP5 SWAP1 SWAP5 MSTORE POP PUSH1 0x40 ADD MSTORE SWAP2 SWAP1 POP JUMP JUMPDEST PUSH1 0x0 DUP1 PUSH1 0x40 DUP4 DUP6 SUB SLT ISZERO PUSH2 0x3934 JUMPI PUSH1 0x0 DUP1 REVERT JUMPDEST POP POP DUP1 CALLDATALOAD SWAP3 PUSH1 0x20 SWAP1 SWAP2 ADD CALLDATALOAD SWAP2 POP JUMP JUMPDEST PUSH1 0x0 DUP1 PUSH1 0x0 DUP1 PUSH1 0x0 DUP1 PUSH1 0xC0 DUP8 DUP10 SUB SLT ISZERO PUSH2 0x395C JUMPI PUSH1 0x0 DUP1 REVERT JUMPDEST DUP7 CALLDATALOAD SWAP6 POP PUSH1 0x20 DUP8 ADD CALLDATALOAD PUSH1 0x1 PUSH1 0x1 PUSH1 0x40 SHL SUB DUP1 DUP3 GT ISZERO PUSH2 0x397A JUMPI PUSH1 0x0 DUP1 REVERT JUMPDEST PUSH2 0x3986 DUP11 DUP4 DUP12 ADD PUSH2 0x3646 JUMP JUMPDEST SWAP7 POP PUSH1 0x40 DUP10 ADD CALLDATALOAD SWAP2 POP DUP1 DUP3 GT ISZERO PUSH2 0x399C JUMPI PUSH1 0x0 DUP1 REVERT JUMPDEST PUSH2 0x39A8 DUP11 DUP4 DUP12 ADD PUSH2 0x3646 JUMP JUMPDEST SWAP6 POP PUSH1 0x60 DUP10 ADD CALLDATALOAD SWAP2 POP DUP1 DUP3 GT ISZERO PUSH2 0x39BE JUMPI PUSH1 0x0 DUP1 REVERT JUMPDEST PUSH2 0x39CA DUP11 DUP4 DUP12 ADD PUSH2 0x3646 JUMP JUMPDEST SWAP5 POP PUSH1 0x80 DUP10 ADD CALLDATALOAD SWAP2 POP DUP1 DUP3 GT ISZERO PUSH2 0x39E0 JUMPI PUSH1 0x0 DUP1 REVERT JUMPDEST PUSH2 0x39EC DUP11 DUP4 DUP12 ADD PUSH2 0x3646 JUMP JUMPDEST SWAP4 POP PUSH1 0xA0 DUP10 ADD CALLDATALOAD SWAP2 POP DUP1 DUP3 GT ISZERO PUSH2 0x3A02 JUMPI PUSH1 0x0 DUP1 REVERT JUMPDEST POP PUSH2 0x3A0F DUP10 DUP3 DUP11 ADD PUSH2 0x3646 JUMP JUMPDEST SWAP2 POP POP SWAP3 SWAP6 POP SWAP3 SWAP6 POP SWAP3 SWAP6 JUMP JUMPDEST PUSH1 0xA0 DUP2 MSTORE PUSH1 0x0 PUSH2 0x3A2F PUSH1 0xA0 DUP4 ADD DUP9 PUSH2 0x374D JUMP JUMPDEST DUP3 DUP2 SUB PUSH1 0x20 DUP5 ADD MSTORE PUSH2 0x3A41 DUP2 DUP9 PUSH2 0x374D JUMP JUMPDEST SWAP1 POP DUP3 DUP2 SUB PUSH1 0x40 DUP5 ADD MSTORE PUSH2 0x3A55 DUP2 DUP8 PUSH2 0x374D JUMP JUMPDEST PUSH1 0x60 DUP5 ADD SWAP6 SWAP1 SWAP6 MSTORE POP POP PUSH1 0x80 ADD MSTORE SWAP4 SWAP3 POP POP POP JUMP JUMPDEST PUSH1 0x40 DUP2 MSTORE PUSH1 0x0 PUSH2 0x3A7D PUSH1 0x40 DUP4 ADD DUP6 PUSH2 0x374D JUMP JUMPDEST DUP3 DUP2 SUB PUSH1 0x20 DUP5 ADD MSTORE PUSH2 0x3A8F DUP2 DUP6 PUSH2 0x374D JUMP JUMPDEST SWAP6 SWAP5 POP POP POP POP POP JUMP JUMPDEST PUSH1 0x0 PUSH1 0x20 DUP3 DUP5 SUB SLT ISZERO PUSH2 0x3AAA JUMPI PUSH1 0x0 DUP1 REVERT JUMPDEST DUP2 CALLDATALOAD PUSH1 0x1 PUSH1 0x1 PUSH1 0xA0 SHL SUB DUP2 AND DUP2 EQ PUSH2 0x12D0 JUMPI PUSH1 0x0 DUP1 REVERT JUMPDEST PUSH1 0x0 DUP1 PUSH1 0x0 DUP1 PUSH1 0x80 DUP6 DUP8 SUB SLT ISZERO PUSH2 0x3AD7 JUMPI PUSH1 0x0 DUP1 REVERT JUMPDEST DUP5 CALLDATALOAD SWAP4 POP PUSH1 0x20 DUP6 ADD CALLDATALOAD SWAP3 POP PUSH1 0x40 DUP6 ADD CALLDATALOAD PUSH1 0x1 PUSH1 0x1 PUSH1 0x40 SHL SUB DUP2 GT ISZERO PUSH2 0x3AFB JUMPI PUSH1 0x0 DUP1 REVERT JUMPDEST PUSH2 0x3B07 DUP8 DUP3 DUP9 ADD PUSH2 0x3646 JUMP JUMPDEST SWAP5 SWAP8 SWAP4 SWAP7 POP SWAP4 SWAP5 PUSH1 0x60 ADD CALLDATALOAD SWAP4 POP POP POP JUMP JUMPDEST PUSH1 0x40 DUP2 MSTORE PUSH1 0x0 PUSH2 0x3B2B PUSH1 0x40 DUP4 ADD DUP6 PUSH2 0x374D JUMP JUMPDEST SWAP1 POP DUP3 PUSH1 0x20 DUP4 ADD MSTORE SWAP4 SWAP3 POP POP POP JUMP JUMPDEST PUSH1 0x0 DUP1 PUSH1 0x40 DUP4 DUP6 SUB SLT ISZERO PUSH2 0x3B4D JUMPI PUSH1 0x0 DUP1 REVERT JUMPDEST DUP3 CALLDATALOAD PUSH1 0x1 PUSH1 0x1 PUSH1 0x40 SHL SUB DUP1 DUP3 GT ISZERO PUSH2 0x3B64 JUMPI PUSH1 0x0 DUP1 REVERT JUMPDEST PUSH2 0x3B70 DUP7 DUP4 DUP8 ADD PUSH2 0x3646 JUMP JUMPDEST SWAP4 POP PUSH1 0x20 DUP6 ADD CALLDATALOAD SWAP2 POP DUP1 DUP3 GT ISZERO PUSH2 0x3B86 JUMPI PUSH1 0x0 DUP1 REVERT JUMPDEST POP PUSH2 0x3B93 DUP6 DUP3 DUP7 ADD PUSH2 0x3646 JUMP JUMPDEST SWAP2 POP POP SWAP3 POP SWAP3 SWAP1 POP JUMP JUMPDEST PUSH1 0xC0 DUP2 MSTORE PUSH1 0x0 PUSH2 0x3BB0 PUSH1 0xC0 DUP4 ADD DUP10 PUSH2 0x374D JUMP JUMPDEST DUP8 PUSH1 0x20 DUP5 ADD MSTORE DUP7 PUSH1 0x40 DUP5 ADD MSTORE DUP6 PUSH1 0x60 DUP5 ADD MSTORE DUP3 DUP2 SUB PUSH1 0x80 DUP5 ADD MSTORE PUSH2 0x3BD4 DUP2 DUP7 PUSH2 0x374D JUMP JUMPDEST SWAP1 POP DUP3 DUP2 SUB PUSH1 0xA0 DUP5 ADD MSTORE PUSH2 0x3BE8 DUP2 DUP6 PUSH2 0x374D JUMP JUMPDEST SWAP10 SWAP9 POP POP POP POP POP POP POP POP POP JUMP JUMPDEST DUP4 DUP2 MSTORE DUP3 PUSH1 0x20 DUP3 ADD MSTORE PUSH1 0x60 PUSH1 0x40 DUP3 ADD MSTORE PUSH1 0x0 PUSH2 0x3A8F PUSH1 0x60 DUP4 ADD DUP5 PUSH2 0x374D JUMP JUMPDEST PUSH1 0x0 DUP1 PUSH1 0x0 DUP1 PUSH1 0x0 PUSH1 0xA0 DUP7 DUP9 SUB SLT ISZERO PUSH2 0x3C2C JUMPI PUSH1 0x0 DUP1 REVERT JUMPDEST DUP6 CALLDATALOAD SWAP5 POP PUSH1 0x20 DUP7 ADD CALLDATALOAD PUSH1 0x1 PUSH1 0x1 PUSH1 0x40 SHL SUB DUP1 DUP3 GT ISZERO PUSH2 0x3C4A JUMPI PUSH1 0x0 DUP1 REVERT JUMPDEST PUSH2 0x3C56 DUP10 DUP4 DUP11 ADD PUSH2 0x3646 JUMP JUMPDEST SWAP6 POP PUSH1 0x40 DUP9 ADD CALLDATALOAD SWAP2 POP DUP1 DUP3 GT ISZERO PUSH2 0x3C6C JUMPI PUSH1 0x0 DUP1 REVERT JUMPDEST PUSH2 0x3C78 DUP10 DUP4 DUP11 ADD PUSH2 0x3646 JUMP JUMPDEST SWAP5 POP PUSH1 0x60 DUP9 ADD CALLDATALOAD SWAP2 POP DUP1 DUP3 GT ISZERO PUSH2 0x3C8E JUMPI PUSH1 0x0 DUP1 REVERT JUMPDEST POP PUSH2 0x3C9B DUP9 DUP3 DUP10 ADD PUSH2 0x3646 JUMP JUMPDEST SWAP6 SWAP9 SWAP5 SWAP8 POP SWAP3 SWAP6 PUSH1 0x80 ADD CALLDATALOAD SWAP4 SWAP3 POP POP POP JUMP JUMPDEST PUSH1 0x0 DUP1 PUSH1 0x0 DUP1 PUSH1 0x0 DUP1 PUSH1 0xC0 DUP8 DUP10 SUB SLT ISZERO PUSH2 0x3CC6 JUMPI PUSH1 0x0 DUP1 REVERT JUMPDEST DUP7 CALLDATALOAD PUSH1 0x1 PUSH1 0x1 PUSH1 0x40 SHL SUB DUP1 DUP3 GT ISZERO PUSH2 0x3CDD JUMPI PUSH1 0x0 DUP1 REVERT JUMPDEST PUSH2 0x3CE9 DUP11 DUP4 DUP12 ADD PUSH2 0x3646 JUMP JUMPDEST SWAP8 POP PUSH1 0x20 DUP10 ADD CALLDATALOAD SWAP7 POP PUSH1 0x40 DUP10 ADD CALLDATALOAD SWAP6 POP PUSH1 0x60 DUP10 ADD CALLDATALOAD SWAP5 POP PUSH1 0x80 DUP10 ADD CALLDATALOAD SWAP2 POP DUP1 DUP3 GT ISZERO PUSH2 0x39E0 JUMPI PUSH1 0x0 DUP1 REVERT JUMPDEST PUSH1 0x0 DUP1 PUSH1 0x40 DUP4 DUP6 SUB SLT ISZERO PUSH2 0x3D27 JUMPI PUSH1 0x0 DUP1 REVERT JUMPDEST DUP3 CALLDATALOAD SWAP2 POP PUSH1 0x20 DUP4 ADD CALLDATALOAD PUSH1 0x1 PUSH1 0x1 PUSH1 0x40 SHL SUB DUP2 GT ISZERO PUSH2 0x3D44 JUMPI PUSH1 0x0 DUP1 REVERT JUMPDEST PUSH2 0x3B93 DUP6 DUP3 DUP7 ADD PUSH2 0x3646 JUMP JUMPDEST PUSH1 0x0 DUP1 PUSH1 0x0 PUSH1 0x60 DUP5 DUP7 SUB SLT ISZERO PUSH2 0x3D65 JUMPI PUSH1 0x0 DUP1 REVERT JUMPDEST POP POP DUP2 CALLDATALOAD SWAP4 PUSH1 0x20 DUP4 ADD CALLDATALOAD SWAP4 POP PUSH1 0x40 SWAP1 SWAP3 ADD CALLDATALOAD SWAP2 SWAP1 POP JUMP JUMPDEST PUSH1 0x0 DUP1 PUSH1 0x0 DUP1 PUSH1 0x80 DUP6 DUP8 SUB SLT ISZERO PUSH2 0x3D92 JUMPI PUSH1 0x0 DUP1 REVERT JUMPDEST DUP5 CALLDATALOAD SWAP4 POP PUSH1 0x20 DUP6 ADD CALLDATALOAD PUSH1 0x1 PUSH1 0x1 PUSH1 0x40 SHL SUB DUP1 DUP3 GT ISZERO PUSH2 0x3DB0 JUMPI PUSH1 0x0 DUP1 REVERT JUMPDEST PUSH2 0x3DBC DUP9 DUP4 DUP10 ADD PUSH2 0x3646 JUMP JUMPDEST SWAP5 POP PUSH1 0x40 DUP8 ADD CALLDATALOAD SWAP2 POP DUP1 DUP3 GT ISZERO PUSH2 0x3DD2 JUMPI PUSH1 0x0 DUP1 REVERT JUMPDEST POP PUSH2 0x3B07 DUP8 DUP3 DUP9 ADD PUSH2 0x3646 JUMP JUMPDEST PUSH1 0x0 DUP1 PUSH1 0x0 DUP1 PUSH1 0x0 DUP1 PUSH1 0xC0 DUP8 DUP10 SUB SLT ISZERO PUSH2 0x3DF8 JUMPI PUSH1 0x0 DUP1 REVERT JUMPDEST DUP7 CALLDATALOAD SWAP6 POP PUSH1 0x20 DUP8 ADD CALLDATALOAD PUSH1 0x1 PUSH1 0x1 PUSH1 0x40 SHL SUB DUP1 DUP3 GT ISZERO PUSH2 0x3E16 JUMPI PUSH1 0x0 DUP1 REVERT JUMPDEST PUSH2 0x3E22 DUP11 DUP4 DUP12 ADD PUSH2 0x3646 JUMP JUMPDEST SWAP7 POP PUSH1 0x40 DUP10 ADD CALLDATALOAD SWAP2 POP DUP1 DUP3 GT ISZERO PUSH2 0x3E38 JUMPI PUSH1 0x0 DUP1 REVERT JUMPDEST PUSH2 0x3E44 DUP11 DUP4 DUP12 ADD PUSH2 0x3646 JUMP JUMPDEST SWAP6 POP PUSH1 0x60 DUP10 ADD CALLDATALOAD SWAP2 POP DUP1 DUP3 GT ISZERO PUSH2 0x3E5A JUMPI PUSH1 0x0 DUP1 REVERT JUMPDEST PUSH2 0x3E66 DUP11 DUP4 DUP12 ADD PUSH2 0x3646 JUMP JUMPDEST SWAP5 POP PUSH1 0x80 DUP10 ADD CALLDATALOAD SWAP4 POP PUSH1 0xA0 DUP10 ADD CALLDATALOAD SWAP2 POP DUP1 DUP3 GT ISZERO PUSH2 0x3A02 JUMPI PUSH1 0x0 DUP1 REVERT JUMPDEST PUSH1 0x60 DUP2 MSTORE PUSH1 0x0 PUSH2 0x3E96 PUSH1 0x60 DUP4 ADD DUP7 PUSH2 0x374D JUMP JUMPDEST DUP3 DUP2 SUB PUSH1 0x20 DUP5 ADD MSTORE PUSH2 0x3EA8 DUP2 DUP7 PUSH2 0x374D JUMP JUMPDEST SWAP1 POP DUP3 DUP2 SUB PUSH1 0x40 DUP5 ADD MSTORE PUSH2 0x3EBC DUP2 DUP6 PUSH2 0x374D JUMP JUMPDEST SWAP7 SWAP6 POP POP POP POP POP POP JUMP JUMPDEST PUSH1 0x0 DUP1 PUSH1 0x0 DUP1 PUSH1 0x0 DUP1 PUSH1 0xC0 DUP8 DUP10 SUB SLT ISZERO PUSH2 0x3EDF JUMPI PUSH1 0x0 DUP1 REVERT JUMPDEST DUP7 CALLDATALOAD SWAP6 POP PUSH1 0x20 DUP8 ADD CALLDATALOAD PUSH1 0x1 PUSH1 0x1 PUSH1 0x40 SHL SUB DUP1 DUP3 GT ISZERO PUSH2 0x3EFD JUMPI PUSH1 0x0 DUP1 REVERT JUMPDEST PUSH2 0x3F09 DUP11 DUP4 DUP12 ADD PUSH2 0x3646 JUMP JUMPDEST SWAP7 POP PUSH1 0x40 DUP10 ADD CALLDATALOAD SWAP6 POP PUSH1 0x60 DUP10 ADD CALLDATALOAD SWAP5 POP PUSH1 0x80 DUP10 ADD CALLDATALOAD SWAP2 POP DUP1 DUP3 GT ISZERO PUSH2 0x39E0 JUMPI PUSH1 0x0 DUP1 REVERT JUMPDEST PUSH1 0x0 DUP1 PUSH1 0x0 DUP1 PUSH1 0x0 DUP1 PUSH1 0x0 PUSH1 0xE0 DUP9 DUP11 SUB SLT ISZERO PUSH2 0x3F48 JUMPI PUSH1 0x0 DUP1 REVERT JUMPDEST DUP8 CALLDATALOAD SWAP7 POP PUSH1 0x20 DUP9 ADD CALLDATALOAD PUSH1 0x1 PUSH1 0x1 PUSH1 0x40 SHL SUB DUP1 DUP3 GT ISZERO PUSH2 0x3F66 JUMPI PUSH1 0x0 DUP1 REVERT JUMPDEST PUSH2 0x3F72 DUP12 DUP4 DUP13 ADD PUSH2 0x3646 JUMP JUMPDEST SWAP8 POP PUSH1 0x40 DUP11 ADD CALLDATALOAD SWAP2 POP DUP1 DUP3 GT ISZERO PUSH2 0x3F88 JUMPI PUSH1 0x0 DUP1 REVERT JUMPDEST PUSH2 0x3F94 DUP12 DUP4 DUP13 ADD PUSH2 0x3646 JUMP JUMPDEST SWAP7 POP PUSH1 0x60 DUP11 ADD CALLDATALOAD SWAP2 POP DUP1 DUP3 GT ISZERO PUSH2 0x3FAA JUMPI PUSH1 0x0 DUP1 REVERT JUMPDEST PUSH2 0x3FB6 DUP12 DUP4 DUP13 ADD PUSH2 0x3646 JUMP JUMPDEST SWAP6 POP PUSH1 0x80 DUP11 ADD CALLDATALOAD SWAP2 POP DUP1 DUP3 GT ISZERO PUSH2 0x3FCC JUMPI PUSH1 0x0 DUP1 REVERT JUMPDEST PUSH2 0x3FD8 DUP12 DUP4 DUP13 ADD PUSH2 0x3646 JUMP JUMPDEST SWAP5 POP PUSH1 0xA0 DUP11 ADD CALLDATALOAD SWAP2 POP DUP1 DUP3 GT ISZERO PUSH2 0x3FEE JUMPI PUSH1 0x0 DUP1 REVERT JUMPDEST PUSH2 0x3FFA DUP12 DUP4 DUP13 ADD PUSH2 0x3646 JUMP JUMPDEST SWAP4 POP PUSH1 0xC0 DUP11 ADD CALLDATALOAD SWAP2 POP DUP1 DUP3 GT ISZERO PUSH2 0x4010 JUMPI PUSH1 0x0 DUP1 REVERT JUMPDEST POP PUSH2 0x401D DUP11 DUP3 DUP12 ADD PUSH2 0x3646 JUMP JUMPDEST SWAP2 POP POP SWAP3 SWAP6 SWAP9 SWAP2 SWAP5 SWAP8 POP SWAP3 SWAP6 POP JUMP JUMPDEST PUSH1 0x0 DUP1 PUSH1 0x40 DUP4 DUP6 SUB SLT ISZERO PUSH2 0x403F JUMPI PUSH1 0x0 DUP1 REVERT JUMPDEST DUP3 CALLDATALOAD PUSH1 0x1 PUSH1 0x1 PUSH1 0x40 SHL SUB DUP2 GT ISZERO PUSH2 0x4055 JUMPI PUSH1 0x0 DUP1 REVERT JUMPDEST PUSH2 0x4061 DUP6 DUP3 DUP7 ADD PUSH2 0x3646 JUMP JUMPDEST SWAP6 PUSH1 0x20 SWAP5 SWAP1 SWAP5 ADD CALLDATALOAD SWAP5 POP POP POP POP JUMP JUMPDEST PUSH1 0x0 DUP1 PUSH1 0x0 PUSH1 0x60 DUP5 DUP7 SUB SLT ISZERO PUSH2 0x4085 JUMPI PUSH1 0x0 DUP1 REVERT JUMPDEST DUP4 CALLDATALOAD SWAP3 POP PUSH1 0x20 DUP5 ADD CALLDATALOAD PUSH1 0x1 PUSH1 0x1 PUSH1 0x40 SHL SUB DUP2 GT ISZERO PUSH2 0x40A2 JUMPI PUSH1 0x0 DUP1 REVERT JUMPDEST PUSH2 0x40AE DUP7 DUP3 DUP8 ADD PUSH2 0x3646 JUMP JUMPDEST SWAP3 POP POP PUSH1 0x40 DUP5 ADD CALLDATALOAD SWAP1 POP SWAP3 POP SWAP3 POP SWAP3 JUMP JUMPDEST PUSH1 0xC0 DUP2 MSTORE PUSH1 0x0 PUSH2 0x40D2 PUSH1 0xC0 DUP4 ADD DUP10 PUSH2 0x374D JUMP JUMPDEST DUP3 DUP2 SUB PUSH1 0x20 DUP5 ADD MSTORE PUSH2 0x40E4 DUP2 DUP10 PUSH2 0x374D JUMP JUMPDEST SWAP1 POP DUP3 DUP2 SUB PUSH1 0x40 DUP5 ADD MSTORE PUSH2 0x40F8 DUP2 DUP9 PUSH2 0x374D JUMP JUMPDEST SWAP1 POP DUP3 DUP2 SUB PUSH1 0x60 DUP5 ADD MSTORE PUSH2 0x410C DUP2 DUP8 PUSH2 0x374D JUMP JUMPDEST SWAP1 POP DUP3 DUP2 SUB PUSH1 0x80 DUP5 ADD MSTORE PUSH2 0x3BD4 DUP2 DUP7 PUSH2 0x374D JUMP JUMPDEST DUP6 DUP2 MSTORE PUSH1 0xA0 PUSH1 0x20 DUP3 ADD MSTORE PUSH1 0x0 PUSH2 0x4139 PUSH1 0xA0 DUP4 ADD DUP8 PUSH2 0x374D JUMP JUMPDEST DUP3 DUP2 SUB PUSH1 0x40 DUP5 ADD MSTORE PUSH2 0x37B2 DUP2 DUP8 PUSH2 0x374D JUMP JUMPDEST PUSH1 0x0 DUP1 PUSH1 0x0 DUP1 PUSH1 0x0 PUSH1 0xA0 DUP7 DUP9 SUB SLT ISZERO PUSH2 0x4163 JUMPI PUSH1 0x0 DUP1 REVERT JUMPDEST POP POP DUP4 CALLDATALOAD SWAP6 PUSH1 0x20 DUP6 ADD CALLDATALOAD SWAP6 POP PUSH1 0x40 DUP6 ADD CALLDATALOAD SWAP5 PUSH1 0x60 DUP2 ADD CALLDATALOAD SWAP5 POP PUSH1 0x80 ADD CALLDATALOAD SWAP3 POP SWAP1 POP JUMP JUMPDEST PUSH1 0x20 DUP1 DUP3 MSTORE PUSH1 0x16 SWAP1 DUP3 ADD MSTORE PUSH22 0x2CB7BA9030B932903737BA103A34329030B236B4B717 PUSH1 0x51 SHL PUSH1 0x40 DUP3 ADD MSTORE PUSH1 0x60 ADD SWAP1 JUMP JUMPDEST DUP4 DUP2 MSTORE PUSH1 0x60 PUSH1 0x20 DUP3 ADD MSTORE PUSH1 0x0 PUSH2 0x41CF PUSH1 0x60 DUP4 ADD DUP6 PUSH2 0x374D JUMP JUMPDEST DUP3 DUP2 SUB PUSH1 0x40 DUP5 ADD MSTORE PUSH2 0x3EBC DUP2 DUP6 PUSH2 0x374D JUMP JUMPDEST PUSH1 0x0 DUP3 PUSH1 0x1F DUP4 ADD SLT PUSH2 0x41F2 JUMPI PUSH1 0x0 DUP1 REVERT JUMPDEST DUP2 MLOAD PUSH2 0x4200 PUSH2 0x3665 DUP3 PUSH2 0x361F JUMP JUMPDEST DUP2 DUP2 MSTORE DUP5 PUSH1 0x20 DUP4 DUP7 ADD ADD GT ISZERO PUSH2 0x4215 JUMPI PUSH1 0x0 DUP1 REVERT JUMPDEST PUSH2 0x4226 DUP3 PUSH1 0x20 DUP4 ADD PUSH1 0x20 DUP8 ADD PUSH2 0x3721 JUMP JUMPDEST SWAP5 SWAP4 POP POP POP POP JUMP JUMPDEST PUSH1 0x0 DUP1 PUSH1 0x0 DUP1 PUSH1 0x0 PUSH1 0xA0 DUP7 DUP9 SUB SLT ISZERO PUSH2 0x4246 JUMPI PUSH1 0x0 DUP1 REVERT JUMPDEST DUP6 MLOAD PUSH1 0x1 PUSH1 0x1 PUSH1 0x40 SHL SUB DUP1 DUP3 GT ISZERO PUSH2 0x425D JUMPI PUSH1 0x0 DUP1 REVERT JUMPDEST PUSH2 0x4269 DUP10 DUP4 DUP11 ADD PUSH2 0x41E1 JUMP JUMPDEST SWAP7 POP PUSH1 0x20 DUP9 ADD MLOAD SWAP2 POP DUP1 DUP3 GT ISZERO PUSH2 0x427F JUMPI PUSH1 0x0 DUP1 REVERT JUMPDEST PUSH2 0x428B DUP10 DUP4 DUP11 ADD PUSH2 0x41E1 JUMP JUMPDEST SWAP6 POP PUSH1 0x40 DUP9 ADD MLOAD SWAP2 POP DUP1 DUP3 GT ISZERO PUSH2 0x42A1 JUMPI PUSH1 0x0 DUP1 REVERT JUMPDEST PUSH2 0x42AD DUP10 DUP4 DUP11 ADD PUSH2 0x41E1 JUMP JUMPDEST SWAP5 POP PUSH1 0x60 DUP9 ADD MLOAD SWAP2 POP DUP1 DUP3 GT ISZERO PUSH2 0x42C3 JUMPI PUSH1 0x0 DUP1 REVERT JUMPDEST PUSH2 0x42CF DUP10 DUP4 DUP11 ADD PUSH2 0x41E1 JUMP JUMPDEST SWAP4 POP PUSH1 0x80 DUP9 ADD MLOAD SWAP2 POP DUP1 DUP3 GT ISZERO PUSH2 0x42E5 JUMPI PUSH1 0x0 DUP1 REVERT JUMPDEST POP PUSH2 0x42F2 DUP9 DUP3 DUP10 ADD PUSH2 0x41E1 JUMP JUMPDEST SWAP2 POP POP SWAP3 SWAP6 POP SWAP3 SWAP6 SWAP1 SWAP4 POP JUMP JUMPDEST PUSH1 0x0 DUP1 PUSH1 0x0 DUP1 PUSH1 0x0 PUSH1 0xA0 DUP7 DUP9 SUB SLT ISZERO PUSH2 0x4317 JUMPI PUSH1 0x0 DUP1 REVERT JUMPDEST DUP6 MLOAD PUSH1 0x1 PUSH1 0x1 PUSH1 0x40 SHL SUB DUP1 DUP3 GT ISZERO PUSH2 0x432E JUMPI PUSH1 0x0 DUP1 REVERT JUMPDEST PUSH2 0x433A DUP10 DUP4 DUP11 ADD PUSH2 0x41E1 JUMP JUMPDEST SWAP7 POP PUSH1 0x20 DUP9 ADD MLOAD SWAP2 POP DUP1 DUP3 GT ISZERO PUSH2 0x4350 JUMPI PUSH1 0x0 DUP1 REVERT JUMPDEST PUSH2 0x435C DUP10 DUP4 DUP11 ADD PUSH2 0x41E1 JUMP JUMPDEST SWAP6 POP PUSH1 0x40 DUP9 ADD MLOAD SWAP2 POP DUP1 DUP3 GT ISZERO PUSH2 0x4372 JUMPI PUSH1 0x0 DUP1 REVERT JUMPDEST PUSH2 0x437E DUP10 DUP4 DUP11 ADD PUSH2 0x41E1 JUMP JUMPDEST SWAP5 POP PUSH1 0x60 DUP9 ADD MLOAD SWAP4 POP PUSH1 0x80 DUP9 ADD MLOAD SWAP2 POP DUP1 DUP3 GT ISZERO PUSH2 0x42E5 JUMPI PUSH1 0x0 DUP1 REVERT JUMPDEST DUP5 DUP2 MSTORE PUSH1 0x80 PUSH1 0x20 DUP3 ADD MSTORE PUSH1 0x0 PUSH2 0x43B4 PUSH1 0x80 DUP4 ADD DUP7 PUSH2 0x374D JUMP JUMPDEST DUP3 DUP2 SUB PUSH1 0x40 DUP5 ADD MSTORE PUSH2 0x43C6 DUP2 DUP7 PUSH2 0x374D JUMP JUMPDEST SWAP1 POP DUP3 DUP2 SUB PUSH1 0x60 DUP5 ADD MSTORE PUSH2 0x43DA DUP2 DUP6 PUSH2 0x374D JUMP JUMPDEST SWAP8 SWAP7 POP POP POP POP POP POP POP JUMP JUMPDEST PUSH1 0x0 PUSH1 0x20 DUP3 DUP5 SUB SLT ISZERO PUSH2 0x43F7 JUMPI PUSH1 0x0 DUP1 REVERT JUMPDEST POP MLOAD SWAP2 SWAP1 POP JUMP JUMPDEST PUSH1 0x0 DUP1 PUSH1 0x0 PUSH1 0x60 DUP5 DUP7 SUB SLT ISZERO PUSH2 0x4413 JUMPI PUSH1 0x0 DUP1 REVERT JUMPDEST DUP4 MLOAD SWAP3 POP PUSH1 0x20 DUP5 ADD MLOAD SWAP2 POP PUSH1 0x40 DUP5 ADD MLOAD SWAP1 POP SWAP3 POP SWAP3 POP SWAP3 JUMP JUMPDEST PUSH1 0x0 PUSH1 0x20 DUP3 DUP5 SUB SLT ISZERO PUSH2 0x443E JUMPI PUSH1 0x0 DUP1 REVERT JUMPDEST DUP2 MLOAD PUSH1 0x1 PUSH1 0x1 PUSH1 0x40 SHL SUB DUP2 GT ISZERO PUSH2 0x4454 JUMPI PUSH1 0x0 DUP1 REVERT JUMPDEST PUSH2 0x4226 DUP5 DUP3 DUP6 ADD PUSH2 0x41E1 JUMP JUMPDEST DUP7 DUP2 MSTORE PUSH1 0xC0 PUSH1 0x20 DUP3 ADD MSTORE PUSH1 0x0 PUSH2 0x4479 PUSH1 0xC0 DUP4 ADD DUP9 PUSH2 0x374D JUMP JUMPDEST DUP3 DUP2 SUB PUSH1 0x40 DUP5 ADD MSTORE PUSH2 0x40F8 DUP2 DUP9 PUSH2 0x374D JUMP JUMPDEST PUSH1 0x0 DUP1 PUSH1 0x40 DUP4 DUP6 SUB SLT ISZERO PUSH2 0x449E JUMPI PUSH1 0x0 DUP1 REVERT JUMPDEST DUP3 MLOAD PUSH1 0x1 PUSH1 0x1 PUSH1 0x40 SHL SUB DUP1 DUP3 GT ISZERO PUSH2 0x44B5 JUMPI PUSH1 0x0 DUP1 REVERT JUMPDEST PUSH2 0x44C1 DUP7 DUP4 DUP8 ADD PUSH2 0x41E1 JUMP JUMPDEST SWAP4 POP PUSH1 0x20 DUP6 ADD MLOAD SWAP2 POP DUP1 DUP3 GT ISZERO PUSH2 0x44D7 JUMPI PUSH1 0x0 DUP1 REVERT JUMPDEST POP PUSH2 0x3B93 DUP6 DUP3 DUP7 ADD PUSH2 0x41E1 JUMP JUMPDEST PUSH4 0x4E487B71 PUSH1 0xE0 SHL PUSH1 0x0 MSTORE PUSH1 0x11 PUSH1 0x4 MSTORE PUSH1 0x24 PUSH1 0x0 REVERT JUMPDEST PUSH1 0x0 DUP3 NOT DUP3 GT ISZERO PUSH2 0x450D JUMPI PUSH2 0x450D PUSH2 0x44E4 JUMP JUMPDEST POP ADD SWAP1 JUMP JUMPDEST DUP5 DUP2 MSTORE DUP4 PUSH1 0x20 DUP3 ADD MSTORE PUSH1 0x80 PUSH1 0x40 DUP3 ADD MSTORE PUSH1 0x0 PUSH2 0x4531 PUSH1 0x80 DUP4 ADD DUP6 PUSH2 0x374D JUMP JUMPDEST SWAP1 POP DUP3 PUSH1 0x60 DUP4 ADD MSTORE SWAP6 SWAP5 POP POP POP POP POP JUMP JUMPDEST PUSH1 0x0 DUP3 MLOAD PUSH2 0x4554 DUP2 DUP5 PUSH1 0x20 DUP8 ADD PUSH2 0x3721 JUMP JUMPDEST SWAP2 SWAP1 SWAP2 ADD SWAP3 SWAP2 POP POP JUMP JUMPDEST PUSH1 0x0 DUP2 PUSH2 0x456D JUMPI PUSH2 0x456D PUSH2 0x44E4 JUMP JUMPDEST POP PUSH1 0x0 NOT ADD SWAP1 JUMP JUMPDEST PUSH1 0x0 DUP1 PUSH1 0x40 DUP4 DUP6 SUB SLT ISZERO PUSH2 0x4588 JUMPI PUSH1 0x0 DUP1 REVERT JUMPDEST DUP3 MLOAD PUSH1 0x1 PUSH1 0x1 PUSH1 0x40 SHL SUB DUP2 GT ISZERO PUSH2 0x459E JUMPI PUSH1 0x0 DUP1 REVERT JUMPDEST PUSH2 0x45AA DUP6 DUP3 DUP7 ADD PUSH2 0x41E1 JUMP JUMPDEST SWAP3 POP POP PUSH1 0x20 DUP4 ADD MLOAD SWAP1 POP SWAP3 POP SWAP3 SWAP1 POP JUMP JUMPDEST PUSH1 0x0 DUP1 PUSH1 0x0 DUP1 PUSH1 0x0 DUP1 PUSH1 0xC0 DUP8 DUP10 SUB SLT ISZERO PUSH2 0x45D4 JUMPI PUSH1 0x0 DUP1 REVERT JUMPDEST DUP7 MLOAD PUSH1 0x1 PUSH1 0x1 PUSH1 0x40 SHL SUB DUP1 DUP3 GT ISZERO PUSH2 0x45EB JUMPI PUSH1 0x0 DUP1 REVERT JUMPDEST PUSH2 0x45F7 DUP11 DUP4 DUP12 ADD PUSH2 0x41E1 JUMP JUMPDEST SWAP8 POP PUSH1 0x20 DUP10 ADD MLOAD SWAP7 POP PUSH1 0x40 DUP10 ADD MLOAD SWAP6 POP PUSH1 0x60 DUP10 ADD MLOAD SWAP5 POP PUSH1 0x80 DUP10 ADD MLOAD SWAP2 POP DUP1 DUP3 GT ISZERO PUSH2 0x4622 JUMPI PUSH1 0x0 DUP1 REVERT JUMPDEST PUSH2 0x462E DUP11 DUP4 DUP12 ADD PUSH2 0x41E1 JUMP JUMPDEST SWAP4 POP PUSH1 0xA0 DUP10 ADD MLOAD SWAP2 POP DUP1 DUP3 GT ISZERO PUSH2 0x4644 JUMPI PUSH1 0x0 DUP1 REVERT JUMPDEST POP PUSH2 0x3A0F DUP10 DUP3 DUP11 ADD PUSH2 0x41E1 JUMP JUMPDEST DUP6 DUP2 MSTORE PUSH1 0xA0 PUSH1 0x20 DUP3 ADD MSTORE PUSH1 0x0 PUSH2 0x466A PUSH1 0xA0 DUP4 ADD DUP8 PUSH2 0x374D JUMP JUMPDEST DUP3 DUP2 SUB PUSH1 0x40 DUP5 ADD MSTORE PUSH2 0x467C DUP2 DUP8 PUSH2 0x374D JUMP JUMPDEST SWAP1 POP DUP3 DUP2 SUB PUSH1 0x60 DUP5 ADD MSTORE PUSH2 0x4690 DUP2 DUP7 PUSH2 0x374D JUMP JUMPDEST SWAP2 POP POP DUP3 PUSH1 0x80 DUP4 ADD MSTORE SWAP7 SWAP6 POP POP POP POP POP POP JUMP JUMPDEST DUP5 DUP2 MSTORE PUSH1 0x80 PUSH1 0x20 DUP3 ADD MSTORE PUSH1 0x0 PUSH2 0x46BC PUSH1 0x80 DUP4 ADD DUP7 PUSH2 0x374D JUMP JUMPDEST DUP3 DUP2 SUB PUSH1 0x40 DUP5 ADD MSTORE PUSH2 0x46CE DUP2 DUP7 PUSH2 0x374D JUMP JUMPDEST SWAP2 POP POP DUP3 PUSH1 0x60 DUP4 ADD MSTORE SWAP6 SWAP5 POP POP POP POP POP JUMP JUMPDEST PUSH1 0x0 DUP3 DUP3 LT ISZERO PUSH2 0x46F2 JUMPI PUSH2 0x46F2 PUSH2 0x44E4 JUMP JUMPDEST POP SUB SWAP1 JUMP JUMPDEST DUP7 DUP2 MSTORE PUSH1 0xC0 PUSH1 0x20 DUP3 ADD MSTORE PUSH1 0x0 PUSH2 0x4710 PUSH1 0xC0 DUP4 ADD DUP9 PUSH2 0x374D JUMP JUMPDEST DUP3 DUP2 SUB PUSH1 0x40 DUP5 ADD MSTORE PUSH2 0x4722 DUP2 DUP9 PUSH2 0x374D JUMP JUMPDEST SWAP1 POP DUP3 DUP2 SUB PUSH1 0x60 DUP5 ADD MSTORE PUSH2 0x4736 DUP2 DUP8 PUSH2 0x374D JUMP JUMPDEST SWAP1 POP DUP5 PUSH1 0x80 DUP5 ADD MSTORE DUP3 DUP2 SUB PUSH1 0xA0 DUP5 ADD MSTORE PUSH2 0x3BE8 DUP2 DUP6 PUSH2 0x374D JUMP JUMPDEST PUSH1 0x0 DUP1 PUSH1 0x0 PUSH1 0x60 DUP5 DUP7 SUB SLT ISZERO PUSH2 0x4765 JUMPI PUSH1 0x0 DUP1 REVERT JUMPDEST DUP4 MLOAD PUSH1 0x1 PUSH1 0x1 PUSH1 0x40 SHL SUB DUP1 DUP3 GT ISZERO PUSH2 0x477C JUMPI PUSH1 0x0 DUP1 REVERT JUMPDEST PUSH2 0x4788 DUP8 DUP4 DUP9 ADD PUSH2 0x41E1 JUMP JUMPDEST SWAP5 POP PUSH1 0x20 DUP7 ADD MLOAD SWAP2 POP DUP1 DUP3 GT ISZERO PUSH2 0x479E JUMPI PUSH1 0x0 DUP1 REVERT JUMPDEST PUSH2 0x47AA DUP8 DUP4 DUP9 ADD PUSH2 0x41E1 JUMP JUMPDEST SWAP4 POP PUSH1 0x40 DUP7 ADD MLOAD SWAP2 POP DUP1 DUP3 GT ISZERO PUSH2 0x47C0 JUMPI PUSH1 0x0 DUP1 REVERT JUMPDEST POP PUSH2 0x36FE DUP7 DUP3 DUP8 ADD PUSH2 0x41E1 JUMP JUMPDEST DUP7 DUP2 MSTORE PUSH1 0xC0 PUSH1 0x20 DUP3 ADD MSTORE PUSH1 0x0 PUSH2 0x47E6 PUSH1 0xC0 DUP4 ADD DUP9 PUSH2 0x374D JUMP JUMPDEST DUP7 PUSH1 0x40 DUP5 ADD MSTORE DUP6 PUSH1 0x60 DUP5 ADD MSTORE DUP3 DUP2 SUB PUSH1 0x80 DUP5 ADD MSTORE PUSH2 0x3BD4 DUP2 DUP7 PUSH2 0x374D JUMP JUMPDEST DUP8 DUP2 MSTORE PUSH1 0xE0 PUSH1 0x20 DUP3 ADD MSTORE PUSH1 0x0 PUSH2 0x481D PUSH1 0xE0 DUP4 ADD DUP10 PUSH2 0x374D JUMP JUMPDEST DUP3 DUP2 SUB PUSH1 0x40 DUP5 ADD MSTORE PUSH2 0x482F DUP2 DUP10 PUSH2 0x374D JUMP JUMPDEST SWAP1 POP DUP3 DUP2 SUB PUSH1 0x60 DUP5 ADD MSTORE PUSH2 0x4843 DUP2 DUP9 PUSH2 0x374D JUMP JUMPDEST SWAP1 POP DUP3 DUP2 SUB PUSH1 0x80 DUP5 ADD MSTORE PUSH2 0x4857 DUP2 DUP8 PUSH2 0x374D JUMP JUMPDEST SWAP1 POP DUP3 DUP2 SUB PUSH1 0xA0 DUP5 ADD MSTORE PUSH2 0x486B DUP2 DUP7 PUSH2 0x374D JUMP JUMPDEST SWAP1 POP DUP3 DUP2 SUB PUSH1 0xC0 DUP5 ADD MSTORE PUSH2 0x487F DUP2 DUP6 PUSH2 0x374D JUMP JUMPDEST SWAP11 SWAP10 POP POP POP POP POP POP POP POP POP POP JUMP JUMPDEST PUSH1 0x0 PUSH1 0x1 DUP3 ADD PUSH2 0x489F JUMPI PUSH2 0x489F PUSH2 0x44E4 JUMP JUMPDEST POP PUSH1 0x1 ADD SWAP1 JUMP JUMPDEST DUP4 DUP2 MSTORE PUSH1 0x60 PUSH1 0x20 DUP3 ADD MSTORE PUSH1 0x0 PUSH2 0x48BF PUSH1 0x60 DUP4 ADD DUP6 PUSH2 0x374D JUMP JUMPDEST SWAP1 POP DUP3 PUSH1 0x40 DUP4 ADD MSTORE SWAP5 SWAP4 POP POP POP POP JUMP JUMPDEST PUSH1 0x0 DUP1 PUSH1 0x0 DUP1 PUSH1 0x0 DUP1 PUSH1 0xC0 DUP8 DUP10 SUB SLT ISZERO PUSH2 0x48E8 JUMPI PUSH1 0x0 DUP1 REVERT JUMPDEST DUP7 MLOAD PUSH1 0x1 PUSH1 0x1 PUSH1 0x40 SHL SUB DUP1 DUP3 GT ISZERO PUSH2 0x48FF JUMPI PUSH1 0x0 DUP1 REVERT JUMPDEST PUSH2 0x490B DUP11 DUP4 DUP12 ADD PUSH2 0x41E1 JUMP JUMPDEST SWAP8 POP PUSH1 0x20 DUP10 ADD MLOAD SWAP2 POP DUP1 DUP3 GT ISZERO PUSH2 0x4921 JUMPI PUSH1 0x0 DUP1 REVERT JUMPDEST PUSH2 0x492D DUP11 DUP4 DUP12 ADD PUSH2 0x41E1 JUMP JUMPDEST SWAP7 POP PUSH1 0x40 DUP10 ADD MLOAD SWAP2 POP DUP1 DUP3 GT ISZERO PUSH2 0x4943 JUMPI PUSH1 0x0 DUP1 REVERT JUMPDEST PUSH2 0x494F DUP11 DUP4 DUP12 ADD PUSH2 0x41E1 JUMP JUMPDEST SWAP6 POP PUSH1 0x60 DUP10 ADD MLOAD SWAP2 POP DUP1 DUP3 GT ISZERO PUSH2 0x4965 JUMPI PUSH1 0x0 DUP1 REVERT JUMPDEST PUSH2 0x4971 DUP11 DUP4 DUP12 ADD PUSH2 0x41E1 JUMP JUMPDEST SWAP5 POP PUSH1 0x80 DUP10 ADD MLOAD SWAP2 POP DUP1 DUP3 GT ISZERO PUSH2 0x4622 JUMPI PUSH1 0x0 DUP1 REVERT INVALID LOG2 PUSH5 0x6970667358 0x22 SLT KECCAK256 PUSH29 0x2E8CFA92F2BC6BE4D7D0F5732283EC5F5570C4B32DD38CD4B7AD276AF4 DUP4 0x2B PUSH5 0x736F6C6343 STOP ADDMOD 0xF STOP CALLER ","sha1":"9010e70ab72cd1cd803457e0bfb56eb676f5f77d","source":"// SPDX-License-Identifier: MIT\n\npragma solidity 0.8.15;\n\nimport \"./studentData.sol\";\nimport \"./schoolFiles.sol\";\nimport \"./login.sol\";\nimport \"./attendance.sol\";\nimport \"./modification.sol\";\nimport \"./academicPerformance.sol\";\n\ncontract SchoolAdmin {\n    StudentData studentData;\n    SchoolFiles schoolFiles;\n    Login login;\n    Attendance attendance;\n    Modification modification;\n    Performance performance;\n\n    uint256 public adminCount;\n    mapping(address => uint256) public adminToAdminId;\n\n    uint256 public maleStudents;\n    uint256 public femaleStudents;\n    mapping(uint256 => uint256) public gradeToNumberOfStudents;\n    mapping(uint256 => mapping(string => uint256))\n        private gradeToSectionToCount;\n\n    event studentAdded(\n        uint256 indexed _studentId,\n        uint256 indexed _rollNumber,\n        uint256 indexed _class\n    );\n    event modifiedPrimaryDetails(uint256 indexed _studentId);\n    event modifiedPersonalDetails(uint256 indexed _studentId);\n    event modifiedPaternalDetails(uint256 indexed _studentId);\n    event modifiedMaternalDetails(uint256 indexed _studentId);\n    event modifiedGuardianDetails(uint256 indexed _studentId);\n    event modifiedFamilyDetails(uint256 indexed _studentId);\n    event modifiedFiles(uint256 indexed _studentId);\n    event modifiedNonAcademicDetails(uint256 indexed _studentId);\n    event studentFound(uint256 indexed _studentId, uint256 indexed _rollNumber);\n    event assignmentAdded(\n        uint256 indexed _assignmentId,\n        uint256 indexed _class,\n        uint256 indexed _expiry\n    );\n    event assignmentSolutionAdded(\n        uint256 indexed _assignmentId,\n        uint256 indexed _solutionId,\n        uint256 indexed _studentId\n    );\n    event marksCardAdded(\n        uint256 indexed _marksCardId,\n        uint256 indexed _studentId,\n        uint256 indexed _expiry\n    );\n\n    event attendanceMarked(\n        uint256 indexed _studentId,\n        uint256 indexed _attendanceValue,\n        uint256 indexed _date\n    );\n\n    constructor(\n        address _studentData,\n        address _schoolFiles,\n        address _login,\n        address _attendance,\n        address _modification,\n        address _performance\n    ) {\n        studentData = StudentData(_studentData);\n        schoolFiles = SchoolFiles(_schoolFiles);\n        login = Login(_login);\n        attendance = Attendance(_attendance);\n        modification = Modification(_modification);\n        performance = Performance(_performance);\n        adminCount = 1;\n        adminToAdminId[msg.sender] = adminCount;\n    }\n\n    modifier isAdmin() {\n        require(adminToAdminId[msg.sender] > 0, \"You are not the admin.\");\n        _;\n    }\n\n    function setAdmin(address _newAdmin) public isAdmin {\n        require(adminToAdminId[_newAdmin] == 0, \"Admin already added.\");\n        adminCount = adminCount + 1;\n        adminToAdminId[_newAdmin] = adminCount;\n    }\n\n    function getStudentCount()\n        public\n        view\n        isAdmin\n        returns (uint256 studentCount)\n    {\n        uint256 _studentCount = studentData.studentCount();\n        return _studentCount;\n    }\n\n    function rollNumberToStudentId(uint256 _rollNumber)\n        public\n        view\n        isAdmin\n        returns (uint256 studentId)\n    {\n        uint256 _studentId = studentData.rollNumberToStudentId(_rollNumber);\n        return _studentId;\n    }\n\n    function getGenderKPI()\n        public\n        view\n        isAdmin\n        returns (\n            uint256 totalNumber,\n            uint256 maleNumber,\n            uint256 femaleNumber\n        )\n    {\n        uint256 _studentCount = studentData.studentCount();\n        return (_studentCount, maleStudents, femaleStudents);\n    }\n\n    function getPrimaryDetails(uint256 _studentId)\n        public\n        view\n        isAdmin\n        returns (\n            string memory _studentName,\n            uint256 _dob,\n            uint256 _rollNumber,\n            uint256 _grade,\n            string memory _section,\n            string memory _email\n        )\n    {\n        return studentData.studentIdToPrimaryDetails(_studentId);\n    }\n\n    function getPersonalDetails(uint256 _studentId)\n        public\n        view\n        isAdmin\n        returns (\n            string memory _religion,\n            string memory _caste,\n            string memory _nationality,\n            uint256 _aadharNumber,\n            string memory _gender\n        )\n    {\n        return studentData.studentIdToPersonalDetails(_studentId);\n    }\n\n    function getPaternalDetails(uint256 _studentId)\n        public\n        view\n        isAdmin\n        returns (\n            string memory _fatherName,\n            string memory _currentAddress,\n            string memory _officeAddress,\n            string memory _fatherOccupation,\n            string memory _fatherEducation\n        )\n    {\n        return studentData.studentIdToPaternalDetails(_studentId);\n    }\n\n    function getMaternalDetails(uint256 _studentId)\n        public\n        view\n        isAdmin\n        returns (\n            string memory _motherName,\n            string memory _motherOccupation,\n            string memory _motherEducation\n        )\n    {\n        return studentData.studentIdToMaternalDetails(_studentId);\n    }\n\n    function getGuardianDetails(uint256 _studentId)\n        public\n        view\n        isAdmin\n        returns (string memory _guardianName, string memory _guardianAddress)\n    {\n        return studentData.studentIdToGuardianDetails(_studentId);\n    }\n\n    function getFamilyDetails(uint256 _studentId)\n        public\n        view\n        isAdmin\n        returns (\n            uint256 _familyIncome,\n            uint256 _primaryContact,\n            uint256 _secondaryContact\n        )\n    {\n        return studentData.studentIdToFamilyDetails(_studentId);\n    }\n\n    function getFiles(uint256 _studentId)\n        public\n        view\n        isAdmin\n        returns (\n            string memory _uploadAadharFront,\n            string memory _uploadAadharBack,\n            string memory _uploadIncomeCertificate,\n            string memory _uploadBirthCertificate,\n            string memory _uploadCasteCertificate\n        )\n    {\n        return studentData.studentIdToFiles(_studentId);\n    }\n\n    function getNonAcademic(uint256 _studentId)\n        public\n        view\n        isAdmin\n        returns (\n            string memory _sportsInvolved,\n            string memory _sportsAchievements,\n            string memory _extraCurricullum,\n            string memory _extraCurricullumAchievements,\n            string memory _personalityDevelopment,\n            string memory _personalityDevelopmentAchievements\n        )\n    {\n        return studentData.studentIdToNonAcademic(_studentId);\n    }\n\n    function addStudent(\n        string memory _studentName,\n        uint256 _dob,\n        uint256 _rollNumber,\n        uint256 _grade,\n        string memory _section,\n        string memory _email\n    ) public isAdmin {\n        uint256 _studentId = studentData.addStudent(\n            _studentName,\n            _dob,\n            _rollNumber,\n            _grade,\n            _section,\n            _email\n        );\n        gradeToNumberOfStudents[_grade] = gradeToNumberOfStudents[_grade] + 1;\n\n        gradeToSectionToCount[_grade][_section] =\n            gradeToSectionToCount[_grade][_section] +\n            1;\n        emit studentAdded(_studentId, _rollNumber, _grade);\n    }\n\n    function modifyPrimaryDetails(\n        uint256 _studentId,\n        string memory _studentName,\n        uint256 _dob,\n        uint256 _grade,\n        string memory _section,\n        string memory _email\n    ) public isAdmin {\n        (\n            ,\n            ,\n            ,\n            uint256 existingGrade,\n            string memory existingSection,\n\n        ) = studentData.studentIdToPrimaryDetails(_studentId);\n\n        gradeToNumberOfStudents[existingGrade] =\n            gradeToNumberOfStudents[existingGrade] -\n            1;\n        gradeToNumberOfStudents[_grade] = gradeToNumberOfStudents[_grade] + 1;\n\n        gradeToSectionToCount[existingGrade][existingSection] =\n            gradeToSectionToCount[existingGrade][existingSection] -\n            1;\n        gradeToSectionToCount[_grade][_section] =\n            gradeToSectionToCount[_grade][_section] +\n            1;\n\n        studentData.modifyPrimaryDetails(\n            _studentId,\n            _studentName,\n            _dob,\n            _grade,\n            _section,\n            _email\n        );\n        emit modifiedPrimaryDetails(_studentId);\n    }\n\n    function addPersonalDetails(\n        uint256 _studentId,\n        string memory _religion,\n        string memory _caste,\n        string memory _nationality,\n        uint256 _aadharNumber,\n        string memory _gender\n    ) public isAdmin {\n        (, , , , string memory existingGender) = studentData\n            .studentIdToPersonalDetails(_studentId);\n\n        if (\n            keccak256(abi.encodePacked(existingGender)) ==\n            keccak256(abi.encodePacked(\"male\"))\n        ) {\n            maleStudents = maleStudents - 1;\n        }\n        if (\n            keccak256(abi.encodePacked(existingGender)) ==\n            keccak256(abi.encodePacked(\"female\"))\n        ) {\n            femaleStudents = femaleStudents - 1;\n        }\n        if (\n            keccak256(abi.encodePacked(_gender)) ==\n            keccak256(abi.encodePacked(\"male\"))\n        ) {\n            maleStudents = maleStudents + 1;\n        }\n        if (\n            keccak256(abi.encodePacked(_gender)) ==\n            keccak256(abi.encodePacked(\"female\"))\n        ) {\n            femaleStudents = femaleStudents + 1;\n        }\n\n        studentData.addPersonalDetails(\n            _studentId,\n            _religion,\n            _caste,\n            _nationality,\n            _aadharNumber,\n            _gender\n        );\n        emit modifiedPersonalDetails(_studentId);\n    }\n\n    function addPaternalDetails(\n        uint256 _studentId,\n        string memory _fatherName,\n        string memory _currentAddress,\n        string memory _officeAddress,\n        string memory _fatherOccupation,\n        string memory _fatherEducation\n    ) public isAdmin {\n        studentData.addPaternalDetails(\n            _studentId,\n            _fatherName,\n            _currentAddress,\n            _officeAddress,\n            _fatherOccupation,\n            _fatherEducation\n        );\n        emit modifiedPaternalDetails(_studentId);\n    }\n\n    function addMaternalDetails(\n        uint256 _studentId,\n        string memory _motherName,\n        string memory _motherOccupation,\n        string memory _motherEducation\n    ) public isAdmin {\n        studentData.addMaternalDetails(\n            _studentId,\n            _motherName,\n            _motherOccupation,\n            _motherEducation\n        );\n        emit modifiedMaternalDetails(_studentId);\n    }\n\n    function addGuardianDetails(\n        uint256 _studentId,\n        string memory _guardianName,\n        string memory _guardianAddress\n    ) public isAdmin {\n        studentData.addGuardianDetails(\n            _studentId,\n            _guardianName,\n            _guardianAddress\n        );\n        emit modifiedGuardianDetails(_studentId);\n    }\n\n    function addFamilyDetails(\n        uint256 _studentId,\n        uint256 _familyIncome,\n        uint256 _primaryContact,\n        uint256 _secondaryContact\n    ) public isAdmin {\n        studentData.addFamilyDetails(\n            _studentId,\n            _familyIncome,\n            _primaryContact,\n            _secondaryContact\n        );\n        emit modifiedFamilyDetails(_studentId);\n    }\n\n    function addFiles(\n        uint256 _studentId,\n        string memory _uploadAadharFront,\n        string memory _uploadAadharBack,\n        string memory _uploadIncomeCertificate,\n        string memory _uploadBirthCertificate,\n        string memory _uploadCasteCertificate\n    ) public isAdmin {\n        studentData.addFiles(\n            _studentId,\n            _uploadAadharFront,\n            _uploadAadharBack,\n            _uploadIncomeCertificate,\n            _uploadBirthCertificate,\n            _uploadCasteCertificate\n        );\n        emit modifiedFiles(_studentId);\n    }\n\n    function addNonAcademic(\n        uint256 _studentId,\n        string memory _sportsInvolved,\n        string memory _sportsAchievements,\n        string memory _extraCurricullum,\n        string memory _extraCurricullumAchievements,\n        string memory _personalityDevelopment,\n        string memory _personalityDevelopmentAchievements\n    ) public isAdmin {\n        studentData.addNonAcademic(\n            _studentId,\n            _sportsInvolved,\n            _sportsAchievements,\n            _extraCurricullum,\n            _extraCurricullumAchievements,\n            _personalityDevelopment,\n            _personalityDevelopmentAchievements\n        );\n        emit modifiedNonAcademicDetails(_studentId);\n    }\n\n    function searchStudent(string memory _name, uint256 _class) public isAdmin {\n        uint256 studentCount = getStudentCount();\n        for (uint256 studentId = 1; studentId <= studentCount; studentId++) {\n            (\n                string memory studentName,\n                ,\n                uint256 studentRollNumber,\n                uint256 studentClass,\n                ,\n\n            ) = studentData.studentIdToPrimaryDetails(studentId);\n            if (\n                keccak256(abi.encodePacked(studentName)) ==\n                keccak256(abi.encodePacked(_name))\n            ) {\n                if (studentClass == _class) {\n                    emit studentFound(studentId, studentRollNumber);\n                }\n            }\n        }\n    }\n\n    function addAssignmentSolution(\n        uint256 _assignmentId,\n        string memory _file,\n        uint256 _studentId\n    ) public {\n        uint256 assignmentSolutionId = schoolFiles.addAssignmentSolution(\n            _assignmentId,\n            _file,\n            _studentId\n        );\n        emit assignmentSolutionAdded(\n            _assignmentId,\n            assignmentSolutionId,\n            _studentId\n        );\n    }\n\n    function addAssignment(\n        uint256 _class,\n        string memory _subject,\n        string memory _file,\n        string memory _topic,\n        uint256 _expiry\n    ) public {\n        uint256 assignmentId = schoolFiles.addAssignment(\n            _class,\n            _subject,\n            _file,\n            _topic,\n            _expiry\n        );\n        emit assignmentAdded(assignmentId, _class, _expiry);\n    }\n\n    function addMarksCard(\n        uint256 _studentId,\n        uint256 _class,\n        string memory _file,\n        uint256 _expiry\n    ) public {\n        uint256 _marksCardId = schoolFiles.addMarksCard(\n            _studentId,\n            _class,\n            _file,\n            _expiry\n        );\n        emit marksCardAdded(_marksCardId, _studentId, _expiry);\n    }\n\n    function addTimeTable(\n        uint256 _class,\n        string memory _exam,\n        string memory _file,\n        uint256 _uploadTime\n    ) public {\n        schoolFiles.addTimeTable(_class, _exam, _file, _uploadTime);\n    }\n\n    function getAssignmentSolutionData(uint256 _assignmentSolutionId)\n        public\n        view\n        isAdmin\n        returns (\n            string memory file,\n            uint256 assignmentId,\n            uint256 studentId\n        )\n    {\n        string memory _file = schoolFiles.assignmentSolutionIdTofile(\n            _assignmentSolutionId\n        );\n        uint256 _assignmentId = schoolFiles.assignmentSolutionIdToAssignmentId(\n            _assignmentSolutionId\n        );\n        uint256 _studentId = schoolFiles.assignmentSolutionIdToStudentId(\n            _assignmentSolutionId\n        );\n        return (_file, _assignmentId, _studentId);\n    }\n\n    function getAssignmentData(uint256 _assignmentId)\n        public\n        view\n        isAdmin\n        returns (\n            string memory subject,\n            string memory topic,\n            string memory file,\n            uint256 class,\n            uint256 expiry\n        )\n    {\n        string memory _subject = schoolFiles.assignmentIdTosubject(\n            _assignmentId\n        );\n        string memory _topic = schoolFiles.assignmentIdToTopic(_assignmentId);\n        string memory _file = schoolFiles.assignmentIdTofile(_assignmentId);\n        uint256 _class = schoolFiles.assignmentIdToclass(_assignmentId);\n        uint256 _expiry = schoolFiles.assignmentIdToExpiry(_assignmentId);\n        return (_subject, _topic, _file, _class, _expiry);\n    }\n\n    function getMarksCardData(uint256 _marksCardId)\n        public\n        view\n        isAdmin\n        returns (\n            uint256 studentId,\n            uint256 class,\n            string memory file\n        )\n    {\n        uint256 _studentId = schoolFiles.marksCardIdTostudentId(_marksCardId);\n        uint256 _class = schoolFiles.marksCardIdToclass(_marksCardId);\n        string memory _file = schoolFiles.marksCardIdTofile(_marksCardId);\n        return (_studentId, _class, _file);\n    }\n\n    function viewClassTimeTable(uint256 _class)\n        public\n        view\n        isAdmin\n        returns (string memory timeTableFile, uint256 uploadTime)\n    {\n        uint256 timetableCount = schoolFiles.timetableCount();\n        for (\n            uint256 timeTableId = timetableCount;\n            timeTableId > 0;\n            timeTableId--\n        ) {\n            if (\n                schoolFiles.timeTableIdToclass(timeTableId) == _class &&\n                keccak256(\n                    abi.encodePacked(schoolFiles.timeTableIdToexam(timeTableId))\n                ) ==\n                keccak256(abi.encodePacked(\"\"))\n            ) {\n                {\n                    return (\n                        schoolFiles.timeTableIdTofile(timeTableId),\n                        schoolFiles.timeTableIdToUploadTime(timeTableId)\n                    );\n                }\n            }\n        }\n        return (\"Time table not found\", 0);\n    }\n\n    function viewExamTimeTable(uint256 _class)\n        public\n        view\n        isAdmin\n        returns (string memory timeTableFile, uint256 uploadTime)\n    {\n        uint256 timetableCount = schoolFiles.timetableCount();\n        for (\n            uint256 timeTableId = timetableCount;\n            timeTableId > 0;\n            timeTableId--\n        ) {\n            if (\n                schoolFiles.timeTableIdToclass(timeTableId) == _class &&\n                keccak256(\n                    abi.encodePacked(schoolFiles.timeTableIdToexam(timeTableId))\n                ) !=\n                keccak256(abi.encodePacked(\"\"))\n            ) {\n                {\n                    return (\n                        schoolFiles.timeTableIdTofile(timeTableId),\n                        schoolFiles.timeTableIdToUploadTime(timeTableId)\n                    );\n                }\n            }\n        }\n        return (\"Time table not found\", 0);\n    }\n\n    function loginCheck(string memory _name, string memory _password)\n        public\n        view\n        returns (string memory _loginType, uint256 _id)\n    {\n        (_loginType, _id) = login.loginCheck(_name, _password);\n        return (_loginType, _id);\n    }\n\n    function getAdminData(address admin)\n        public\n        view\n        isAdmin\n        returns (string memory name, string memory _type)\n    {\n        return (login.walletToName(admin), login.walletToType(admin));\n    }\n\n    function markAttendance(\n        uint256 _studentId,\n        uint256 _attendanceValue,\n        uint256 _date\n    ) public isAdmin {\n        attendance.markAttendance(_studentId, _attendanceValue, _date);\n        emit attendanceMarked(_studentId, _attendanceValue, _date);\n    }\n\n    function getAttendance(uint256 _studentId, uint256 _date)\n        public\n        view\n        isAdmin\n        returns (uint256 attendanceMark)\n    {\n        return attendance.getAttendance(_studentId, _date);\n    }\n\n    function raiseRequest(\n        uint256 _studentId,\n        string memory _title,\n        string memory _file,\n        string memory _description\n    ) public isAdmin {\n        modification.raiseRequest(_studentId, _title, _file, _description);\n    }\n\n    function closeRequest(uint256 _requestId) public isAdmin {\n        modification.closeRequest(_requestId);\n    }\n\n    function rejectRequest(uint256 _requestId) public isAdmin {\n        modification.rejectRequest(_requestId);\n    }\n\n    function approveRequest(uint256 _requestId) public isAdmin {\n        modification.approveRequest(_requestId);\n    }\n\n    function getRequestCount()\n        public\n        view\n        isAdmin\n        returns (\n            uint256 requestCount,\n            uint256 pendingRequestCount,\n            uint256 rejectedRequestCount,\n            uint256 approvedRequestCount,\n            uint256 closedRequestCount\n        )\n    {\n        return (\n            modification.requestCount(),\n            modification.pendingRequestCount(),\n            modification.rejectedRequestCount(),\n            modification.approvedRequestCount(),\n            modification.closedRequestCount()\n        );\n    }\n\n    function getRequestData(uint256 _requestId)\n        public\n        view\n        returns (\n            uint256 studentId,\n            string memory title,\n            string memory description,\n            string memory file,\n            string memory status\n        )\n    {\n        uint256 _studentId = modification.requestIdToStudentId(_requestId);\n        string memory _title = modification.requestIdTotitle(_requestId);\n        string memory _description = modification.requestIdToDescription(\n            _requestId\n        );\n        string memory _status = modification.requestIdToStatus(_requestId);\n        string memory _file = modification.requestIdToFile(_requestId);\n        return (_studentId, _title, _description, _file, _status);\n    }\n\n    function addPerformanceIndicator(\n        uint256 _grade,\n        uint256 _batch,\n        uint256 _totalStudents,\n        uint256 _passedStudents,\n        uint256 _failedStudents\n    ) public isAdmin {\n        performance.addPerformanceIndicator(\n            _grade,\n            _batch,\n            _totalStudents,\n            _passedStudents,\n            _failedStudents\n        );\n    }\n\n    function getPerformanceIndicator(uint256 _batchId, uint256 _grade)\n        public\n        view\n        isAdmin\n        returns (\n            uint256 batch,\n            uint256 totalStudents,\n            uint256 passedStudents,\n            uint256 failedStudents\n        )\n    {\n        uint256 _batch = performance.getBatchFromId(_grade, _batchId);\n        (\n            uint256 _totalStudents,\n            uint256 _passedStudents,\n            uint256 _failedStudents\n        ) = performance.getPerformanceIndicator(_batch, _grade);\n        return (_batch, _totalStudents, _passedStudents, _failedStudents);\n    }\n\n    function getBatchCount(uint256 grade)\n        public\n        view\n        isAdmin\n        returns (uint256 batchCount)\n    {\n        return performance.gradeToBatchCount(grade);\n    }\n\n    function getStudentsInGradeSection(uint256 _grade, string memory _section)\n        public\n        view\n        isAdmin\n        returns (uint256 studentCount)\n    {\n        return gradeToSectionToCount[_grade][_section];\n    }\n}\n","sourcePath":"contracts/schoolAdmin.sol","type":"contract"}