{"abi":[{"inputs":[{"internalType":"address","name":"_studentData","type":"address"},{"internalType":"address","name":"_schoolFiles","type":"address"},{"internalType":"address","name":"_login","type":"address"},{"internalType":"address","name":"_attendance","type":"address"}],"stateMutability":"nonpayable","type":"constructor"},{"anonymous":false,"inputs":[{"indexed":true,"internalType":"uint256","name":"_assignmentId","type":"uint256"},{"indexed":true,"internalType":"uint256","name":"_class","type":"uint256"},{"indexed":true,"internalType":"uint256","name":"_expiry","type":"uint256"}],"name":"assignmentAdded","type":"event"},{"anonymous":false,"inputs":[{"indexed":true,"internalType":"uint256","name":"_assignmentId","type":"uint256"},{"indexed":true,"internalType":"uint256","name":"_solutionId","type":"uint256"},{"indexed":true,"internalType":"uint256","name":"_studentId","type":"uint256"}],"name":"assignmentSolutionAdded","type":"event"},{"anonymous":false,"inputs":[{"indexed":true,"internalType":"uint256","name":"_studentId","type":"uint256"},{"indexed":true,"internalType":"uint256","name":"_attendanceValue","type":"uint256"},{"indexed":true,"internalType":"uint256","name":"_date","type":"uint256"}],"name":"attendanceMarked","type":"event"},{"anonymous":false,"inputs":[{"indexed":true,"internalType":"uint256","name":"_marksCardId","type":"uint256"},{"indexed":true,"internalType":"uint256","name":"_studentId","type":"uint256"},{"indexed":true,"internalType":"uint256","name":"_expiry","type":"uint256"}],"name":"marksCardAdded","type":"event"},{"anonymous":false,"inputs":[{"indexed":true,"internalType":"uint256","name":"_studentId","type":"uint256"},{"indexed":true,"internalType":"uint256","name":"_rollNumber","type":"uint256"},{"indexed":true,"internalType":"uint256","name":"_class","type":"uint256"}],"name":"studentAdded","type":"event"},{"anonymous":false,"inputs":[{"indexed":true,"internalType":"uint256","name":"_studentId","type":"uint256"},{"indexed":true,"internalType":"uint256","name":"_rollNumber","type":"uint256"}],"name":"studentFound","type":"event"},{"inputs":[{"internalType":"uint256","name":"_class","type":"uint256"},{"internalType":"string","name":"_subject","type":"string"},{"internalType":"string","name":"_file","type":"string"},{"internalType":"string","name":"_topic","type":"string"},{"internalType":"uint256","name":"_expiry","type":"uint256"}],"name":"addAssignment","outputs":[],"stateMutability":"nonpayable","type":"function"},{"inputs":[{"internalType":"uint256","name":"_assignmentId","type":"uint256"},{"internalType":"string","name":"_file","type":"string"},{"internalType":"uint256","name":"_studentId","type":"uint256"}],"name":"addAssignmentSolution","outputs":[],"stateMutability":"nonpayable","type":"function"},{"inputs":[{"internalType":"uint256","name":"_studentId","type":"uint256"},{"internalType":"uint256","name":"_familyIncome","type":"uint256"},{"internalType":"uint256","name":"_primaryContact","type":"uint256"},{"internalType":"uint256","name":"_secondaryContact","type":"uint256"}],"name":"addFamilyDetails","outputs":[],"stateMutability":"nonpayable","type":"function"},{"inputs":[{"internalType":"uint256","name":"_studentId","type":"uint256"},{"internalType":"string","name":"_uploadAadharFront","type":"string"},{"internalType":"string","name":"_uploadAadharBack","type":"string"},{"internalType":"string","name":"_uploadIncomeCertificate","type":"string"},{"internalType":"string","name":"_uploadBirthCertificate","type":"string"},{"internalType":"string","name":"_uploadCasteCertificate","type":"string"}],"name":"addFiles","outputs":[],"stateMutability":"nonpayable","type":"function"},{"inputs":[{"internalType":"uint256","name":"_studentId","type":"uint256"},{"internalType":"string","name":"_guardianName","type":"string"},{"internalType":"string","name":"_guardianAddress","type":"string"}],"name":"addGuardianDetails","outputs":[],"stateMutability":"nonpayable","type":"function"},{"inputs":[{"internalType":"uint256","name":"_studentId","type":"uint256"},{"internalType":"uint256","name":"_class","type":"uint256"},{"internalType":"string","name":"_file","type":"string"},{"internalType":"uint256","name":"_expiry","type":"uint256"}],"name":"addMarksCard","outputs":[],"stateMutability":"nonpayable","type":"function"},{"inputs":[{"internalType":"uint256","name":"_studentId","type":"uint256"},{"internalType":"string","name":"_motherName","type":"string"},{"internalType":"string","name":"_motherOccupation","type":"string"},{"internalType":"string","name":"_motherEducation","type":"string"}],"name":"addMaternalDetails","outputs":[],"stateMutability":"nonpayable","type":"function"},{"inputs":[{"internalType":"uint256","name":"_studentId","type":"uint256"},{"internalType":"string","name":"_sportsInvolved","type":"string"},{"internalType":"string","name":"_sportsAchievements","type":"string"},{"internalType":"string","name":"_extraCurricullum","type":"string"},{"internalType":"string","name":"_extraCurricullumAchievements","type":"string"},{"internalType":"string","name":"_personalityDevelopment","type":"string"},{"internalType":"string","name":"_personalityDevelopmentAchievements","type":"string"}],"name":"addNonAcademic","outputs":[],"stateMutability":"nonpayable","type":"function"},{"inputs":[{"internalType":"uint256","name":"_studentId","type":"uint256"},{"internalType":"string","name":"_fatherName","type":"string"},{"internalType":"string","name":"_currentAddress","type":"string"},{"internalType":"string","name":"_officeAddress","type":"string"},{"internalType":"string","name":"_fatherOccupation","type":"string"},{"internalType":"string","name":"_fatherEducation","type":"string"}],"name":"addPaternalDetails","outputs":[],"stateMutability":"nonpayable","type":"function"},{"inputs":[{"internalType":"uint256","name":"_studentId","type":"uint256"},{"internalType":"string","name":"_religion","type":"string"},{"internalType":"string","name":"_caste","type":"string"},{"internalType":"string","name":"_nationality","type":"string"},{"internalType":"uint256","name":"_aadharNumber","type":"uint256"},{"internalType":"string","name":"_gender","type":"string"}],"name":"addPersonalDetails","outputs":[],"stateMutability":"nonpayable","type":"function"},{"inputs":[{"internalType":"string","name":"_studentName","type":"string"},{"internalType":"uint256","name":"_dob","type":"uint256"},{"internalType":"uint256","name":"_rollNumber","type":"uint256"},{"internalType":"uint256","name":"_grade","type":"uint256"},{"internalType":"string","name":"_email","type":"string"}],"name":"addStudent","outputs":[],"stateMutability":"nonpayable","type":"function"},{"inputs":[{"internalType":"uint256","name":"_class","type":"uint256"},{"internalType":"string","name":"_exam","type":"string"},{"internalType":"string","name":"_file","type":"string"},{"internalType":"uint256","name":"_uploadTime","type":"uint256"}],"name":"addTimeTable","outputs":[],"stateMutability":"nonpayable","type":"function"},{"inputs":[],"name":"admin","outputs":[{"internalType":"address","name":"","type":"address"}],"stateMutability":"view","type":"function"},{"inputs":[],"name":"femaleStudents","outputs":[{"internalType":"uint256","name":"","type":"uint256"}],"stateMutability":"view","type":"function"},{"inputs":[{"internalType":"uint256","name":"_assignmentId","type":"uint256"}],"name":"getAssignmentData","outputs":[{"internalType":"string","name":"subject","type":"string"},{"internalType":"string","name":"topic","type":"string"},{"internalType":"string","name":"file","type":"string"},{"internalType":"uint256","name":"class","type":"uint256"},{"internalType":"uint256","name":"expiry","type":"uint256"}],"stateMutability":"view","type":"function"},{"inputs":[{"internalType":"uint256","name":"_assignmentSolutionId","type":"uint256"}],"name":"getAssignmentSolutionData","outputs":[{"internalType":"string","name":"file","type":"string"},{"internalType":"uint256","name":"assignmentId","type":"uint256"},{"internalType":"uint256","name":"studentId","type":"uint256"}],"stateMutability":"view","type":"function"},{"inputs":[{"internalType":"uint256","name":"_studentId","type":"uint256"},{"internalType":"uint256","name":"_date","type":"uint256"}],"name":"getAttendance","outputs":[{"internalType":"uint256","name":"attendanceMark","type":"uint256"}],"stateMutability":"view","type":"function"},{"inputs":[{"internalType":"uint256","name":"_studentId","type":"uint256"}],"name":"getFamilyDetails","outputs":[{"internalType":"uint256","name":"_familyIncome","type":"uint256"},{"internalType":"uint256","name":"_primaryContact","type":"uint256"},{"internalType":"uint256","name":"_secondaryContact","type":"uint256"}],"stateMutability":"view","type":"function"},{"inputs":[{"internalType":"uint256","name":"_studentId","type":"uint256"}],"name":"getFiles","outputs":[{"internalType":"string","name":"_uploadAadharFront","type":"string"},{"internalType":"string","name":"_uploadAadharBack","type":"string"},{"internalType":"string","name":"_uploadIncomeCertificate","type":"string"},{"internalType":"string","name":"_uploadBirthCertificate","type":"string"},{"internalType":"string","name":"_uploadCasteCertificate","type":"string"}],"stateMutability":"view","type":"function"},{"inputs":[],"name":"getGenderKPI","outputs":[{"internalType":"uint256","name":"totalNumber","type":"uint256"},{"internalType":"uint256","name":"maleNumber","type":"uint256"},{"internalType":"uint256","name":"femaleNumber","type":"uint256"}],"stateMutability":"view","type":"function"},{"inputs":[{"internalType":"uint256","name":"_studentId","type":"uint256"}],"name":"getGuardianDetails","outputs":[{"internalType":"string","name":"_guardianName","type":"string"},{"internalType":"string","name":"_guardianAddress","type":"string"}],"stateMutability":"view","type":"function"},{"inputs":[{"internalType":"uint256","name":"_marksCardId","type":"uint256"}],"name":"getMarksCardData","outputs":[{"internalType":"uint256","name":"studentId","type":"uint256"},{"internalType":"uint256","name":"class","type":"uint256"},{"internalType":"string","name":"file","type":"string"}],"stateMutability":"view","type":"function"},{"inputs":[{"internalType":"uint256","name":"_studentId","type":"uint256"}],"name":"getMaternalDetails","outputs":[{"internalType":"string","name":"_motherName","type":"string"},{"internalType":"string","name":"_motherOccupation","type":"string"},{"internalType":"string","name":"_motherEducation","type":"string"}],"stateMutability":"view","type":"function"},{"inputs":[{"internalType":"uint256","name":"_studentId","type":"uint256"}],"name":"getNonAcademic","outputs":[{"internalType":"string","name":"_sportsInvolved","type":"string"},{"internalType":"string","name":"_sportsAchievements","type":"string"},{"internalType":"string","name":"_extraCurricullum","type":"string"},{"internalType":"string","name":"_extraCurricullumAchievements","type":"string"},{"internalType":"string","name":"_personalityDevelopment","type":"string"},{"internalType":"string","name":"_personalityDevelopmentAchievements","type":"string"}],"stateMutability":"view","type":"function"},{"inputs":[{"internalType":"uint256","name":"_studentId","type":"uint256"}],"name":"getPaternalDetails","outputs":[{"internalType":"string","name":"_fatherName","type":"string"},{"internalType":"string","name":"_currentAddress","type":"string"},{"internalType":"string","name":"_officeAddress","type":"string"},{"internalType":"string","name":"_fatherOccupation","type":"string"},{"internalType":"string","name":"_fatherEducation","type":"string"}],"stateMutability":"view","type":"function"},{"inputs":[{"internalType":"uint256","name":"_studentId","type":"uint256"}],"name":"getPersonalDetails","outputs":[{"internalType":"string","name":"_religion","type":"string"},{"internalType":"string","name":"_caste","type":"string"},{"internalType":"string","name":"_nationality","type":"string"},{"internalType":"uint256","name":"_aadharNumber","type":"uint256"},{"internalType":"string","name":"_gender","type":"string"}],"stateMutability":"view","type":"function"},{"inputs":[{"internalType":"uint256","name":"_studentId","type":"uint256"}],"name":"getPrimaryDetails","outputs":[{"internalType":"string","name":"_studentName","type":"string"},{"internalType":"uint256","name":"_dob","type":"uint256"},{"internalType":"uint256","name":"_rollNumber","type":"uint256"},{"internalType":"uint256","name":"_grade","type":"uint256"},{"internalType":"string","name":"_email","type":"string"}],"stateMutability":"view","type":"function"},{"inputs":[],"name":"getStudentCount","outputs":[{"internalType":"uint256","name":"studentCount","type":"uint256"}],"stateMutability":"view","type":"function"},{"inputs":[{"internalType":"string","name":"_name","type":"string"},{"internalType":"string","name":"_password","type":"string"}],"name":"loginCheck","outputs":[{"internalType":"string","name":"_loginType","type":"string"},{"internalType":"uint256","name":"_id","type":"uint256"}],"stateMutability":"view","type":"function"},{"inputs":[],"name":"maleStudents","outputs":[{"internalType":"uint256","name":"","type":"uint256"}],"stateMutability":"view","type":"function"},{"inputs":[{"internalType":"uint256","name":"_studentId","type":"uint256"},{"internalType":"uint256","name":"_attendanceValue","type":"uint256"},{"internalType":"uint256","name":"_date","type":"uint256"}],"name":"markAttendance","outputs":[],"stateMutability":"nonpayable","type":"function"},{"inputs":[{"internalType":"uint256","name":"_studentId","type":"uint256"},{"internalType":"string","name":"_studentName","type":"string"},{"internalType":"uint256","name":"_dob","type":"uint256"},{"internalType":"uint256","name":"_grade","type":"uint256"},{"internalType":"string","name":"_email","type":"string"}],"name":"modifyPrimaryDetails","outputs":[],"stateMutability":"nonpayable","type":"function"},{"inputs":[{"internalType":"uint256","name":"_rollNumber","type":"uint256"}],"name":"rollNumberToStudentId","outputs":[{"internalType":"uint256","name":"studentId","type":"uint256"}],"stateMutability":"view","type":"function"},{"inputs":[{"internalType":"string","name":"_name","type":"string"},{"internalType":"uint256","name":"_class","type":"uint256"}],"name":"searchStudent","outputs":[],"stateMutability":"nonpayable","type":"function"},{"inputs":[{"internalType":"uint256","name":"_class","type":"uint256"}],"name":"viewClassTimeTable","outputs":[{"internalType":"string","name":"timeTableFile","type":"string"},{"internalType":"uint256","name":"uploadTime","type":"uint256"}],"stateMutability":"view","type":"function"},{"inputs":[{"internalType":"uint256","name":"_class","type":"uint256"}],"name":"viewExamTimeTable","outputs":[{"internalType":"string","name":"timeTableFile","type":"string"},{"internalType":"uint256","name":"uploadTime","type":"uint256"}],"stateMutability":"view","type":"function"}],"bytecode":"60806040523480156200001157600080fd5b5060405162003877380380620038778339810160408190526200003491620000b1565b600080546001600160a01b03199081166001600160a01b039687161790915560018054821694861694909417909355600280548416928516929092179091556003805483169190931617909155600480543392169190911790556200010e565b80516001600160a01b0381168114620000ac57600080fd5b919050565b60008060008060808587031215620000c857600080fd5b620000d38562000094565b9350620000e36020860162000094565b9250620000f36040860162000094565b9150620001036060860162000094565b905092959194509250565b613759806200011e6000396000f3fe608060405234801561001057600080fd5b506004361061021c5760003560e01c806380f7cdce11610125578063c42f4ff0116100ad578063d6e546271161007c578063d6e5462714610505578063d81d770414610518578063d83463c91461052b578063f15ec62d1461053e578063f851a4401461056357600080fd5b8063c42f4ff0146104aa578063c4cdc4b6146104bd578063c7c62f6f146104df578063d4cb7cf3146104f257600080fd5b8063ab236dc9116100f4578063ab236dc914610455578063b93a694214610468578063bf452c5914610471578063c010f05014610484578063c29871d71461049757600080fd5b806380f7cdce146103db5780638322f556146103fc5780639cdf23161461040f578063a44675c91461043357600080fd5b80634bdce352116101a857806361920ee11161017757806361920ee11461036857806361dea3931461038c57806370825742146103ad578063737892b2146103b55780637c663e4d146103c857600080fd5b80634bdce3521461030d5780634d7b41391461032f57806358e2af96146103425780635f3a3cf11461035557600080fd5b8063299f81e0116101ef578063299f81e01461029a57806329ee6be1146102ad57806341e0c407146102c4578063469ff627146102cc57806347f9009e146102df57600080fd5b80630c96262d1461022157806312506f4d1461023657806323415c111461026357806328973f6c14610287575b600080fd5b61023461022f3660046124fa565b61058e565b005b610249610244366004612566565b61062c565b60405161025a9594939291906125d7565b60405180910390f35b610276610271366004612566565b6106e5565b60405161025a959493929190612644565b610234610295366004612697565b61078c565b6102346102a83660046126c9565b610830565b6102b660065481565b60405190815260200161025a565b6102b6610890565b6102496102da366004612566565b61093b565b6102f26102ed366004612566565b6109a1565b6040805193845260208401929092529082015260600161025a565b61032061031b366004612566565b610a4c565b60405161025a9392919061275a565b6102b661033d36600461277f565b610be4565b6102346103503660046127a1565b610c8c565b61023461036336600461287a565b610d2a565b61037b610376366004612566565b610dc5565b60405161025a9594939291906128fa565b61039f61039a366004612566565b611054565b60405161025a929190612948565b6102f26110fd565b6102b66103c3366004612566565b6111b9565b6102346103d6366004612976565b611230565b6103ee6103e9366004612566565b6112e2565b60405161025a9291906129cd565b6103ee61040a3660046129ef565b6115e2565b61042261041d366004612566565b61166a565b60405161025a959493929190612a52565b610446610441366004612566565b611711565b60405161025a93929190612a89565b610234610463366004612aa8565b61189b565b6102b660055481565b61023461047f366004612b41565b611950565b610234610492366004612b6d565b611a1a565b6102346104a53660046127a1565b611a50565b6102346104b8366004612bd0565b611ab4565b6104d06104cb366004612566565b611d74565b60405161025a93929190612c74565b6103ee6104ed366004612566565b611e16565b610234610500366004612cb7565b612025565b610234610513366004612db6565b61208b565b610234610526366004612dfa565b6121ed565b610234610539366004612e60565b6122cc565b61055161054c366004612566565b61237b565b60405161025a96959493929190612eaf565b600454610576906001600160a01b031681565b6040516001600160a01b03909116815260200161025a565b6004546001600160a01b031633146105c15760405162461bcd60e51b81526004016105b890612f31565b60405180910390fd5b600054604051630c96262d60e01b81526001600160a01b0390911690630c96262d906105f590869086908690600401612f60565b600060405180830381600087803b15801561060f57600080fd5b505af1158015610623573d6000803e3d6000fd5b50505050505050565b60045460609081908190819081906001600160a01b031633146106615760405162461bcd60e51b81526004016105b890612f31565b60005460405163126ea08560e31b8152600481018890526001600160a01b03909116906393750428906024015b600060405180830381865afa1580156106ab573d6000803e3d6000fd5b505050506040513d6000823e601f3d908101601f191682016040526106d39190810190612fd8565b939a9299509097509550909350915050565b6004546060908190819060009082906001600160a01b0316331461071b5760405162461bcd60e51b81526004016105b890612f31565b6000546040516370cfa98560e01b8152600481018890526001600160a01b03909116906370cfa98590602401600060405180830381865afa158015610764573d6000803e3d6000fd5b505050506040513d6000823e601f3d908101601f191682016040526106d3919081019061309c565b6004546001600160a01b031633146107b65760405162461bcd60e51b81526004016105b890612f31565b600054604051630a25cfdb60e21b8152600481018690526024810185905260448101849052606481018390526001600160a01b03909116906328973f6c906084015b600060405180830381600087803b15801561081257600080fd5b505af1158015610826573d6000803e3d6000fd5b5050505050505050565b6004546001600160a01b0316331461085a5760405162461bcd60e51b81526004016105b890612f31565b60005460405163014cfc0f60e51b81526001600160a01b039091169063299f81e0906107f8908790879087908790600401613138565b6004546000906001600160a01b031633146108bd5760405162461bcd60e51b81526004016105b890612f31565b60008060009054906101000a90046001600160a01b03166001600160a01b031663e581f9ee6040518163ffffffff1660e01b8152600401602060405180830381865afa158015610911573d6000803e3d6000fd5b505050506040513d601f19601f820116820180604052508101906109359190613182565b91505090565b60045460609081908190819081906001600160a01b031633146109705760405162461bcd60e51b81526004016105b890612f31565b60005460405163b1e6328d60e01b8152600481018890526001600160a01b039091169063b1e6328d9060240161068e565b600454600090819081906001600160a01b031633146109d25760405162461bcd60e51b81526004016105b890612f31565b6000546040516330267d3160e11b8152600481018690526001600160a01b039091169063604cfa6290602401606060405180830381865afa158015610a1b573d6000803e3d6000fd5b505050506040513d601f19601f82011682018060405250810190610a3f919061319b565b9250925092509193909250565b60045460609060009081906001600160a01b03163314610a7e5760405162461bcd60e51b81526004016105b890612f31565b6001546040516369e5ae0f60e01b8152600481018690526000916001600160a01b0316906369e5ae0f90602401600060405180830381865afa158015610ac8573d6000803e3d6000fd5b505050506040513d6000823e601f3d908101601f19168201604052610af091908101906131c9565b60015460405163c493adc760e01b8152600481018890529192506000916001600160a01b039091169063c493adc790602401602060405180830381865afa158015610b3f573d6000803e3d6000fd5b505050506040513d601f19601f82011682018060405250810190610b639190613182565b60015460405163077f807f60e01b8152600481018990529192506000916001600160a01b039091169063077f807f90602401602060405180830381865afa158015610bb2573d6000803e3d6000fd5b505050506040513d601f19601f82011682018060405250810190610bd69190613182565b929791965091945092505050565b6004546000906001600160a01b03163314610c115760405162461bcd60e51b81526004016105b890612f31565b600354604051634d7b413960e01b815260048101859052602481018490526001600160a01b0390911690634d7b413990604401602060405180830381865afa158015610c61573d6000803e3d6000fd5b505050506040513d601f19601f82011682018060405250810190610c859190613182565b9392505050565b6004546001600160a01b03163314610cb65760405162461bcd60e51b81526004016105b890612f31565b600054604051632c7157cb60e11b81526001600160a01b03909116906358e2af9690610cf0908990899089908990899089906004016131fd565b600060405180830381600087803b158015610d0a57600080fd5b505af1158015610d1e573d6000803e3d6000fd5b50505050505050505050565b6004546001600160a01b03163314610d545760405162461bcd60e51b81526004016105b890612f31565b600054604051635f3a3cf160e01b81526001600160a01b0390911690635f3a3cf190610d8c9088908890889088908890600401613228565b600060405180830381600087803b158015610da657600080fd5b505af1158015610dba573d6000803e3d6000fd5b505050505050505050565b6004546060908190819060009081906001600160a01b03163314610dfb5760405162461bcd60e51b81526004016105b890612f31565b600154604051630a18baf360e21b8152600481018890526000916001600160a01b031690632862ebcc90602401600060405180830381865afa158015610e45573d6000803e3d6000fd5b505050506040513d6000823e601f3d908101601f19168201604052610e6d91908101906131c9565b600154604051635eb86b9560e01b8152600481018a90529192506000916001600160a01b0390911690635eb86b9590602401600060405180830381865afa158015610ebc573d6000803e3d6000fd5b505050506040513d6000823e601f3d908101601f19168201604052610ee491908101906131c9565b60015460405163ecde140560e01b8152600481018b90529192506000916001600160a01b039091169063ecde140590602401600060405180830381865afa158015610f33573d6000803e3d6000fd5b505050506040513d6000823e601f3d908101601f19168201604052610f5b91908101906131c9565b600154604051637dfa364960e01b8152600481018c90529192506000916001600160a01b0390911690637dfa364990602401602060405180830381865afa158015610faa573d6000803e3d6000fd5b505050506040513d601f19601f82011682018060405250810190610fce9190613182565b6001546040516367379d4960e11b8152600481018d90529192506000916001600160a01b039091169063ce6f3a9290602401602060405180830381865afa15801561101d573d6000803e3d6000fd5b505050506040513d601f19601f820116820180604052508101906110419190613182565b949b939a50919850965091945092505050565b60045460609081906001600160a01b031633146110835760405162461bcd60e51b81526004016105b890612f31565b600054604051632c324bfb60e11b8152600481018590526001600160a01b039091169063586497f690602401600060405180830381865afa1580156110cc573d6000803e3d6000fd5b505050506040513d6000823e601f3d908101601f191682016040526110f4919081019061325f565b91509150915091565b600454600090819081906001600160a01b0316331461112e5760405162461bcd60e51b81526004016105b890612f31565b60008060009054906101000a90046001600160a01b03166001600160a01b031663e581f9ee6040518163ffffffff1660e01b8152600401602060405180830381865afa158015611182573d6000803e3d6000fd5b505050506040513d601f19601f820116820180604052508101906111a69190613182565b6005546006549195509350915050909192565b6004546000906001600160a01b031633146111e65760405162461bcd60e51b81526004016105b890612f31565b600080546040516339bc495960e11b8152600481018590526001600160a01b039091169063737892b290602401602060405180830381865afa158015610c61573d6000803e3d6000fd5b600154604051637c663e4d60e01b81526000916001600160a01b031690637c663e4d906112679088908890889088906004016132b8565b6020604051808303816000875af1158015611286573d6000803e3d6000fd5b505050506040513d601f19601f820116820180604052508101906112aa9190613182565b90508185827f60cf56e8cd40d30413f6042836cfd24582eaf95589047f0883aa7209ffee9e3360405160405180910390a45050505050565b6004546060906000906001600160a01b031633146113125760405162461bcd60e51b81526004016105b890612f31565b6001546040805163f57c649160e01b815290516000926001600160a01b03169163f57c64919160048083019260209291908290030181865afa15801561135c573d6000803e3d6000fd5b505050506040513d601f19601f820116820180604052508101906113809190613182565b9050805b80156115ab576001546040516369d5213b60e01b81526004810183905286916001600160a01b0316906369d5213b90602401602060405180830381865afa1580156113d3573d6000803e3d6000fd5b505050506040513d601f19601f820116820180604052508101906113f79190613182565b1480156114aa575060408051600081526020810191829052805182206001546361590d5560e01b90935260248201849052916001600160a01b0316906361590d5590604401600060405180830381865afa158015611459573d6000803e3d6000fd5b505050506040513d6000823e601f3d908101601f1916820160405261148191908101906131c9565b60405160200161149191906132e8565b6040516020818303038152906040528051906020012014155b1561159957600154604051634273db4960e11b8152600481018390526001600160a01b03909116906384e7b692906024015b600060405180830381865afa1580156114f9573d6000803e3d6000fd5b505050506040513d6000823e601f3d908101601f1916820160405261152191908101906131c9565b600154604051634a0c230360e11b8152600481018490526001600160a01b0390911690639418460690602401602060405180830381865afa15801561156a573d6000803e3d6000fd5b505050506040513d601f19601f8201168201806040525081019061158e9190613182565b935093505050915091565b806115a38161331a565b915050611384565b5050604080518082019091526014815273151a5b59481d18589b19481b9bdd08199bdd5b9960621b60208201529360009350915050565b6002546040516341917aab60e11b81526060916000916001600160a01b0390911690638322f5569061161a9087908790600401612948565b600060405180830381865afa158015611637573d6000803e3d6000fd5b505050506040513d6000823e601f3d908101601f1916820160405261165f9190810190613331565b909590945092505050565b6004546060906000908190819084906001600160a01b031633146116a05760405162461bcd60e51b81526004016105b890612f31565b600054604051630c3a356b60e11b8152600481018890526001600160a01b03909116906318746ad690602401600060405180830381865afa1580156116e9573d6000803e3d6000fd5b505050506040513d6000823e601f3d908101601f191682016040526106d39190810190613377565b60045460009081906060906001600160a01b031633146117435760405162461bcd60e51b81526004016105b890612f31565b600154604051633cd9996960e11b8152600481018690526000916001600160a01b0316906379b332d290602401602060405180830381865afa15801561178d573d6000803e3d6000fd5b505050506040513d601f19601f820116820180604052508101906117b19190613182565b60015460405163c7e674f160e01b8152600481018890529192506000916001600160a01b039091169063c7e674f190602401602060405180830381865afa158015611800573d6000803e3d6000fd5b505050506040513d601f19601f820116820180604052508101906118249190613182565b600154604051636338c89f60e01b8152600481018990529192506000916001600160a01b0390911690636338c89f90602401600060405180830381865afa158015611873573d6000803e3d6000fd5b505050506040513d6000823e601f3d908101601f19168201604052610bd691908101906131c9565b60015460405163ab236dc960e01b81526000916001600160a01b03169063ab236dc9906118d490899089908990899089906004016133dd565b6020604051808303816000875af11580156118f3573d6000803e3d6000fd5b505050506040513d601f19601f820116820180604052508101906119179190613182565b90508186827f289ec7e79a70db9e5a21c4aa4bc91de5745406fdc5fa52a91224e0f0e8d674af60405160405180910390a4505050505050565b6004546001600160a01b0316331461197a5760405162461bcd60e51b81526004016105b890612f31565b60035460405163bf452c5960e01b81526004810185905260248101849052604481018390526001600160a01b039091169063bf452c5990606401600060405180830381600087803b1580156119ce57600080fd5b505af11580156119e2573d6000803e3d6000fd5b505050508082847f3c00a957d8b0ed88bf0ad892175a6f1b9fa89360787136e23a2ffbc5dc0baaf960405160405180910390a4505050565b600154604051630c010f0560e41b81526001600160a01b039091169063c010f050906107f890879087908790879060040161342f565b6004546001600160a01b03163314611a7a5760405162461bcd60e51b81526004016105b890612f31565b60005460405163c29871d760e01b81526001600160a01b039091169063c29871d790610cf0908990899089908990899089906004016131fd565b6004546001600160a01b03163314611ade5760405162461bcd60e51b81526004016105b890612f31565b600080546040516370cfa98560e01b8152600481018990526001600160a01b03909116906370cfa98590602401600060405180830381865afa158015611b28573d6000803e3d6000fd5b505050506040513d6000823e601f3d908101601f19168201604052611b50919081019061309c565b945050505050604051602001611b7090636d616c6560e01b815260040190565b6040516020818303038152906040528051906020012081604051602001611b9791906132e8565b6040516020818303038152906040528051906020012003611bc5576001600554611bc1919061346c565b6005555b6040516566656d616c6560d01b60208201526026016040516020818303038152906040528051906020012081604051602001611c0191906132e8565b6040516020818303038152906040528051906020012003611c2f576001600654611c2b919061346c565b6006555b604051636d616c6560e01b60208201526024016040516020818303038152906040528051906020012082604051602001611c6991906132e8565b6040516020818303038152906040528051906020012003611c9657600554611c92906001613483565b6005555b6040516566656d616c6560d01b60208201526026016040516020818303038152906040528051906020012082604051602001611cd291906132e8565b6040516020818303038152906040528051906020012003611cff57600654611cfb906001613483565b6006555b600054604051630c42f4ff60e41b81526001600160a01b039091169063c42f4ff090611d39908a908a908a908a908a908a9060040161349b565b600060405180830381600087803b158015611d5357600080fd5b505af1158015611d67573d6000803e3d6000fd5b5050505050505050505050565b600454606090819081906001600160a01b03163314611da55760405162461bcd60e51b81526004016105b890612f31565b60005460405163670a344760e11b8152600481018690526001600160a01b039091169063ce14688e90602401600060405180830381865afa158015611dee573d6000803e3d6000fd5b505050506040513d6000823e601f3d908101601f19168201604052610a3f91908101906134f4565b6004546060906000906001600160a01b03163314611e465760405162461bcd60e51b81526004016105b890612f31565b6001546040805163f57c649160e01b815290516000926001600160a01b03169163f57c64919160048083019260209291908290030181865afa158015611e90573d6000803e3d6000fd5b505050506040513d601f19601f82011682018060405250810190611eb49190613182565b9050805b80156115ab576001546040516369d5213b60e01b81526004810183905286916001600160a01b0316906369d5213b90602401602060405180830381865afa158015611f07573d6000803e3d6000fd5b505050506040513d601f19601f82011682018060405250810190611f2b9190613182565b148015611fdd575060408051600081526020810191829052805182206001546361590d5560e01b90935260248201849052916001600160a01b0316906361590d5590604401600060405180830381865afa158015611f8d573d6000803e3d6000fd5b505050506040513d6000823e601f3d908101601f19168201604052611fb591908101906131c9565b604051602001611fc591906132e8565b60405160208183030381529060405280519060200120145b1561201357600154604051634273db4960e11b8152600481018390526001600160a01b03909116906384e7b692906024016114dc565b8061201d8161331a565b915050611eb8565b6004546001600160a01b0316331461204f5760405162461bcd60e51b81526004016105b890612f31565b60005460405163d4cb7cf360e01b81526001600160a01b039091169063d4cb7cf390611d39908a908a908a908a908a908a908a90600401613571565b6004546001600160a01b031633146120b55760405162461bcd60e51b81526004016105b890612f31565b60006120bf610890565b905060015b8181116121e75760008054604051630c3a356b60e11b815260048101849052829182916001600160a01b03909116906318746ad690602401600060405180830381865afa158015612119573d6000803e3d6000fd5b505050506040513d6000823e601f3d908101601f191682016040526121419190810190613377565b50935093505092508660405160200161215a91906132e8565b604051602081830303815290604052805190602001208360405160200161218191906132e8565b60405160208183030381529060405280519060200120036121d1578581036121d157604051829085907f78a5f595baa9b25b7a730211c5cf18e46d8c54f6cd7558ab36ff8ef5cf76d19e90600090a35b50505080806121df906135fa565b9150506120c4565b50505050565b6004546001600160a01b031633146122175760405162461bcd60e51b81526004016105b890612f31565b600080546040516336075dc160e21b81526001600160a01b039091169063d81d7704906122509089908990899089908990600401612a52565b6020604051808303816000875af115801561226f573d6000803e3d6000fd5b505050506040513d601f19601f820116820180604052508101906122939190613182565b90508284827f8914be557f12c8b4ec80d2de1bbd0ce352f4e74dae0fc548a0fd56ac07b6604460405160405180910390a4505050505050565b60015460405163d83463c960e01b81526000916001600160a01b03169063d83463c99061230190879087908790600401613613565b6020604051808303816000875af1158015612320573d6000803e3d6000fd5b505050506040513d601f19601f820116820180604052508101906123449190613182565b90508181857f0ad6d3adecc8b5201d9897b24894ee0092797e79be758b09f0df6eecb2d105b960405160405180910390a450505050565b600454606090819081908190819081906001600160a01b031633146123b25760405162461bcd60e51b81526004016105b890612f31565b6000546040516310eb2cf960e31b8152600481018990526001600160a01b039091169063875967c890602401600060405180830381865afa1580156123fb573d6000803e3d6000fd5b505050506040513d6000823e601f3d908101601f19168201604052612423919081019061363c565b949c939b5091995097509550909350915050565b634e487b7160e01b600052604160045260246000fd5b604051601f8201601f191681016001600160401b038111828210171561247557612475612437565b604052919050565b60006001600160401b0382111561249657612496612437565b50601f01601f191660200190565b600082601f8301126124b557600080fd5b81356124c86124c38261247d565b61244d565b8181528460208386010111156124dd57600080fd5b816020850160208301376000918101602001919091529392505050565b60008060006060848603121561250f57600080fd5b8335925060208401356001600160401b038082111561252d57600080fd5b612539878388016124a4565b9350604086013591508082111561254f57600080fd5b5061255c868287016124a4565b9150509250925092565b60006020828403121561257857600080fd5b5035919050565b60005b8381101561259a578181015183820152602001612582565b838111156121e75750506000910152565b600081518084526125c381602086016020860161257f565b601f01601f19169290920160200192915050565b60a0815260006125ea60a08301886125ab565b82810360208401526125fc81886125ab565b9050828103604084015261261081876125ab565b9050828103606084015261262481866125ab565b9050828103608084015261263881856125ab565b98975050505050505050565b60a08152600061265760a08301886125ab565b828103602084015261266981886125ab565b9050828103604084015261267d81876125ab565b9050846060840152828103608084015261263881856125ab565b600080600080608085870312156126ad57600080fd5b5050823594602084013594506040840135936060013592509050565b600080600080608085870312156126df57600080fd5b8435935060208501356001600160401b03808211156126fd57600080fd5b612709888389016124a4565b9450604087013591508082111561271f57600080fd5b61272b888389016124a4565b9350606087013591508082111561274157600080fd5b5061274e878288016124a4565b91505092959194509250565b60608152600061276d60608301866125ab565b60208301949094525060400152919050565b6000806040838503121561279257600080fd5b50508035926020909101359150565b60008060008060008060c087890312156127ba57600080fd5b8635955060208701356001600160401b03808211156127d857600080fd5b6127e48a838b016124a4565b965060408901359150808211156127fa57600080fd5b6128068a838b016124a4565b9550606089013591508082111561281c57600080fd5b6128288a838b016124a4565b9450608089013591508082111561283e57600080fd5b61284a8a838b016124a4565b935060a089013591508082111561286057600080fd5b5061286d89828a016124a4565b9150509295509295509295565b600080600080600060a0868803121561289257600080fd5b8535945060208601356001600160401b03808211156128b057600080fd5b6128bc89838a016124a4565b9550604088013594506060880135935060808801359150808211156128e057600080fd5b506128ed888289016124a4565b9150509295509295909350565b60a08152600061290d60a08301886125ab565b828103602084015261291f81886125ab565b9050828103604084015261293381876125ab565b60608401959095525050608001529392505050565b60408152600061295b60408301856125ab565b828103602084015261296d81856125ab565b95945050505050565b6000806000806080858703121561298c57600080fd5b843593506020850135925060408501356001600160401b038111156129b057600080fd5b6129bc878288016124a4565b949793965093946060013593505050565b6040815260006129e060408301856125ab565b90508260208301529392505050565b60008060408385031215612a0257600080fd5b82356001600160401b0380821115612a1957600080fd5b612a25868387016124a4565b93506020850135915080821115612a3b57600080fd5b50612a48858286016124a4565b9150509250929050565b60a081526000612a6560a08301886125ab565b866020840152856040840152846060840152828103608084015261263881856125ab565b83815282602082015260606040820152600061296d60608301846125ab565b600080600080600060a08688031215612ac057600080fd5b8535945060208601356001600160401b0380821115612ade57600080fd5b612aea89838a016124a4565b95506040880135915080821115612b0057600080fd5b612b0c89838a016124a4565b94506060880135915080821115612b2257600080fd5b50612b2f888289016124a4565b95989497509295608001359392505050565b600080600060608486031215612b5657600080fd5b505081359360208301359350604090920135919050565b60008060008060808587031215612b8357600080fd5b8435935060208501356001600160401b0380821115612ba157600080fd5b612bad888389016124a4565b94506040870135915080821115612bc357600080fd5b506129bc878288016124a4565b60008060008060008060c08789031215612be957600080fd5b8635955060208701356001600160401b0380821115612c0757600080fd5b612c138a838b016124a4565b96506040890135915080821115612c2957600080fd5b612c358a838b016124a4565b95506060890135915080821115612c4b57600080fd5b612c578a838b016124a4565b94506080890135935060a089013591508082111561286057600080fd5b606081526000612c8760608301866125ab565b8281036020840152612c9981866125ab565b90508281036040840152612cad81856125ab565b9695505050505050565b600080600080600080600060e0888a031215612cd257600080fd5b8735965060208801356001600160401b0380821115612cf057600080fd5b612cfc8b838c016124a4565b975060408a0135915080821115612d1257600080fd5b612d1e8b838c016124a4565b965060608a0135915080821115612d3457600080fd5b612d408b838c016124a4565b955060808a0135915080821115612d5657600080fd5b612d628b838c016124a4565b945060a08a0135915080821115612d7857600080fd5b612d848b838c016124a4565b935060c08a0135915080821115612d9a57600080fd5b50612da78a828b016124a4565b91505092959891949750929550565b60008060408385031215612dc957600080fd5b82356001600160401b03811115612ddf57600080fd5b612deb858286016124a4565b95602094909401359450505050565b600080600080600060a08688031215612e1257600080fd5b85356001600160401b0380821115612e2957600080fd5b612e3589838a016124a4565b965060208801359550604088013594506060880135935060808801359150808211156128e057600080fd5b600080600060608486031215612e7557600080fd5b8335925060208401356001600160401b03811115612e9257600080fd5b612e9e868287016124a4565b925050604084013590509250925092565b60c081526000612ec260c08301896125ab565b8281036020840152612ed481896125ab565b90508281036040840152612ee881886125ab565b90508281036060840152612efc81876125ab565b90508281036080840152612f1081866125ab565b905082810360a0840152612f2481856125ab565b9998505050505050505050565b6020808252601590820152742cb7ba9030b932903737ba103a34329030b236b4b760591b604082015260600190565b838152606060208201526000612f7960608301856125ab565b8281036040840152612cad81856125ab565b600082601f830112612f9c57600080fd5b8151612faa6124c38261247d565b818152846020838601011115612fbf57600080fd5b612fd082602083016020870161257f565b949350505050565b600080600080600060a08688031215612ff057600080fd5b85516001600160401b038082111561300757600080fd5b61301389838a01612f8b565b9650602088015191508082111561302957600080fd5b61303589838a01612f8b565b9550604088015191508082111561304b57600080fd5b61305789838a01612f8b565b9450606088015191508082111561306d57600080fd5b61307989838a01612f8b565b9350608088015191508082111561308f57600080fd5b506128ed88828901612f8b565b600080600080600060a086880312156130b457600080fd5b85516001600160401b03808211156130cb57600080fd5b6130d789838a01612f8b565b965060208801519150808211156130ed57600080fd5b6130f989838a01612f8b565b9550604088015191508082111561310f57600080fd5b61311b89838a01612f8b565b945060608801519350608088015191508082111561308f57600080fd5b84815260806020820152600061315160808301866125ab565b828103604084015261316381866125ab565b9050828103606084015261317781856125ab565b979650505050505050565b60006020828403121561319457600080fd5b5051919050565b6000806000606084860312156131b057600080fd5b8351925060208401519150604084015190509250925092565b6000602082840312156131db57600080fd5b81516001600160401b038111156131f157600080fd5b612fd084828501612f8b565b86815260c06020820152600061321660c08301886125ab565b8281036040840152612ee881886125ab565b85815260a06020820152600061324160a08301876125ab565b856040840152846060840152828103608084015261263881856125ab565b6000806040838503121561327257600080fd5b82516001600160401b038082111561328957600080fd5b61329586838701612f8b565b935060208501519150808211156132ab57600080fd5b50612a4885828601612f8b565b8481528360208201526080604082015260006132d760808301856125ab565b905082606083015295945050505050565b600082516132fa81846020870161257f565b9190910192915050565b634e487b7160e01b600052601160045260246000fd5b60008161332957613329613304565b506000190190565b6000806040838503121561334457600080fd5b82516001600160401b0381111561335a57600080fd5b61336685828601612f8b565b925050602083015190509250929050565b600080600080600060a0868803121561338f57600080fd5b85516001600160401b03808211156133a657600080fd5b6133b289838a01612f8b565b9650602088015195506040880151945060608801519350608088015191508082111561308f57600080fd5b85815260a0602082015260006133f660a08301876125ab565b828103604084015261340881876125ab565b9050828103606084015261341c81866125ab565b9150508260808301529695505050505050565b84815260806020820152600061344860808301866125ab565b828103604084015261345a81866125ab565b91505082606083015295945050505050565b60008282101561347e5761347e613304565b500390565b6000821982111561349657613496613304565b500190565b86815260c0602082015260006134b460c08301886125ab565b82810360408401526134c681886125ab565b905082810360608401526134da81876125ab565b905084608084015282810360a0840152612f2481856125ab565b60008060006060848603121561350957600080fd5b83516001600160401b038082111561352057600080fd5b61352c87838801612f8b565b9450602086015191508082111561354257600080fd5b61354e87838801612f8b565b9350604086015191508082111561356457600080fd5b5061255c86828701612f8b565b87815260e06020820152600061358a60e08301896125ab565b828103604084015261359c81896125ab565b905082810360608401526135b081886125ab565b905082810360808401526135c481876125ab565b905082810360a08401526135d881866125ab565b905082810360c08401526135ec81856125ab565b9a9950505050505050505050565b60006001820161360c5761360c613304565b5060010190565b83815260606020820152600061362c60608301856125ab565b9050826040830152949350505050565b60008060008060008060c0878903121561365557600080fd5b86516001600160401b038082111561366c57600080fd5b6136788a838b01612f8b565b9750602089015191508082111561368e57600080fd5b61369a8a838b01612f8b565b965060408901519150808211156136b057600080fd5b6136bc8a838b01612f8b565b955060608901519150808211156136d257600080fd5b6136de8a838b01612f8b565b945060808901519150808211156136f457600080fd5b6137008a838b01612f8b565b935060a089015191508082111561371657600080fd5b5061286d89828a01612f8b56fea26469706673582212205b9bf8b7c1b835d917c4bbfe509a0725f50535ffed5c769b66c965cec8c98a6864736f6c634300080f0033","bytecodeSha1":"845d0aff34c6ce54fd71d173a43541ae7aacc85c","compiler":{"evm_version":"istanbul","optimizer":{"enabled":true,"runs":200},"version":"0.8.15+commit.e14f2714"},"contractName":"SchoolAdmin","language":"Solidity","natspec":{"kind":"dev","methods":{},"version":1},"opcodes":"PUSH1 0x80 PUSH1 0x40 MSTORE CALLVALUE DUP1 ISZERO PUSH2 0x10 JUMPI PUSH1 0x0 DUP1 REVERT JUMPDEST POP PUSH1 0x4 CALLDATASIZE LT PUSH2 0x21C JUMPI PUSH1 0x0 CALLDATALOAD PUSH1 0xE0 SHR DUP1 PUSH4 0x80F7CDCE GT PUSH2 0x125 JUMPI DUP1 PUSH4 0xC42F4FF0 GT PUSH2 0xAD JUMPI DUP1 PUSH4 0xD6E54627 GT PUSH2 0x7C JUMPI DUP1 PUSH4 0xD6E54627 EQ PUSH2 0x505 JUMPI DUP1 PUSH4 0xD81D7704 EQ PUSH2 0x518 JUMPI DUP1 PUSH4 0xD83463C9 EQ PUSH2 0x52B JUMPI DUP1 PUSH4 0xF15EC62D EQ PUSH2 0x53E JUMPI DUP1 PUSH4 0xF851A440 EQ PUSH2 0x563 JUMPI PUSH1 0x0 DUP1 REVERT JUMPDEST DUP1 PUSH4 0xC42F4FF0 EQ PUSH2 0x4AA JUMPI DUP1 PUSH4 0xC4CDC4B6 EQ PUSH2 0x4BD JUMPI DUP1 PUSH4 0xC7C62F6F EQ PUSH2 0x4DF JUMPI DUP1 PUSH4 0xD4CB7CF3 EQ PUSH2 0x4F2 JUMPI PUSH1 0x0 DUP1 REVERT JUMPDEST DUP1 PUSH4 0xAB236DC9 GT PUSH2 0xF4 JUMPI DUP1 PUSH4 0xAB236DC9 EQ PUSH2 0x455 JUMPI DUP1 PUSH4 0xB93A6942 EQ PUSH2 0x468 JUMPI DUP1 PUSH4 0xBF452C59 EQ PUSH2 0x471 JUMPI DUP1 PUSH4 0xC010F050 EQ PUSH2 0x484 JUMPI DUP1 PUSH4 0xC29871D7 EQ PUSH2 0x497 JUMPI PUSH1 0x0 DUP1 REVERT JUMPDEST DUP1 PUSH4 0x80F7CDCE EQ PUSH2 0x3DB JUMPI DUP1 PUSH4 0x8322F556 EQ PUSH2 0x3FC JUMPI DUP1 PUSH4 0x9CDF2316 EQ PUSH2 0x40F JUMPI DUP1 PUSH4 0xA44675C9 EQ PUSH2 0x433 JUMPI PUSH1 0x0 DUP1 REVERT JUMPDEST DUP1 PUSH4 0x4BDCE352 GT PUSH2 0x1A8 JUMPI DUP1 PUSH4 0x61920EE1 GT PUSH2 0x177 JUMPI DUP1 PUSH4 0x61920EE1 EQ PUSH2 0x368 JUMPI DUP1 PUSH4 0x61DEA393 EQ PUSH2 0x38C JUMPI DUP1 PUSH4 0x70825742 EQ PUSH2 0x3AD JUMPI DUP1 PUSH4 0x737892B2 EQ PUSH2 0x3B5 JUMPI DUP1 PUSH4 0x7C663E4D EQ PUSH2 0x3C8 JUMPI PUSH1 0x0 DUP1 REVERT JUMPDEST DUP1 PUSH4 0x4BDCE352 EQ PUSH2 0x30D JUMPI DUP1 PUSH4 0x4D7B4139 EQ PUSH2 0x32F JUMPI DUP1 PUSH4 0x58E2AF96 EQ PUSH2 0x342 JUMPI DUP1 PUSH4 0x5F3A3CF1 EQ PUSH2 0x355 JUMPI PUSH1 0x0 DUP1 REVERT JUMPDEST DUP1 PUSH4 0x299F81E0 GT PUSH2 0x1EF JUMPI DUP1 PUSH4 0x299F81E0 EQ PUSH2 0x29A JUMPI DUP1 PUSH4 0x29EE6BE1 EQ PUSH2 0x2AD JUMPI DUP1 PUSH4 0x41E0C407 EQ PUSH2 0x2C4 JUMPI DUP1 PUSH4 0x469FF627 EQ PUSH2 0x2CC JUMPI DUP1 PUSH4 0x47F9009E EQ PUSH2 0x2DF JUMPI PUSH1 0x0 DUP1 REVERT JUMPDEST DUP1 PUSH4 0xC96262D EQ PUSH2 0x221 JUMPI DUP1 PUSH4 0x12506F4D EQ PUSH2 0x236 JUMPI DUP1 PUSH4 0x23415C11 EQ PUSH2 0x263 JUMPI DUP1 PUSH4 0x28973F6C EQ PUSH2 0x287 JUMPI JUMPDEST PUSH1 0x0 DUP1 REVERT JUMPDEST PUSH2 0x234 PUSH2 0x22F CALLDATASIZE PUSH1 0x4 PUSH2 0x24FA JUMP JUMPDEST PUSH2 0x58E JUMP JUMPDEST STOP JUMPDEST PUSH2 0x249 PUSH2 0x244 CALLDATASIZE PUSH1 0x4 PUSH2 0x2566 JUMP JUMPDEST PUSH2 0x62C JUMP JUMPDEST PUSH1 0x40 MLOAD PUSH2 0x25A SWAP6 SWAP5 SWAP4 SWAP3 SWAP2 SWAP1 PUSH2 0x25D7 JUMP JUMPDEST PUSH1 0x40 MLOAD DUP1 SWAP2 SUB SWAP1 RETURN JUMPDEST PUSH2 0x276 PUSH2 0x271 CALLDATASIZE PUSH1 0x4 PUSH2 0x2566 JUMP JUMPDEST PUSH2 0x6E5 JUMP JUMPDEST PUSH1 0x40 MLOAD PUSH2 0x25A SWAP6 SWAP5 SWAP4 SWAP3 SWAP2 SWAP1 PUSH2 0x2644 JUMP JUMPDEST PUSH2 0x234 PUSH2 0x295 CALLDATASIZE PUSH1 0x4 PUSH2 0x2697 JUMP JUMPDEST PUSH2 0x78C JUMP JUMPDEST PUSH2 0x234 PUSH2 0x2A8 CALLDATASIZE PUSH1 0x4 PUSH2 0x26C9 JUMP JUMPDEST PUSH2 0x830 JUMP JUMPDEST PUSH2 0x2B6 PUSH1 0x6 SLOAD DUP2 JUMP JUMPDEST PUSH1 0x40 MLOAD SWAP1 DUP2 MSTORE PUSH1 0x20 ADD PUSH2 0x25A JUMP JUMPDEST PUSH2 0x2B6 PUSH2 0x890 JUMP JUMPDEST PUSH2 0x249 PUSH2 0x2DA CALLDATASIZE PUSH1 0x4 PUSH2 0x2566 JUMP JUMPDEST PUSH2 0x93B JUMP JUMPDEST PUSH2 0x2F2 PUSH2 0x2ED CALLDATASIZE PUSH1 0x4 PUSH2 0x2566 JUMP JUMPDEST PUSH2 0x9A1 JUMP JUMPDEST PUSH1 0x40 DUP1 MLOAD SWAP4 DUP5 MSTORE PUSH1 0x20 DUP5 ADD SWAP3 SWAP1 SWAP3 MSTORE SWAP1 DUP3 ADD MSTORE PUSH1 0x60 ADD PUSH2 0x25A JUMP JUMPDEST PUSH2 0x320 PUSH2 0x31B CALLDATASIZE PUSH1 0x4 PUSH2 0x2566 JUMP JUMPDEST PUSH2 0xA4C JUMP JUMPDEST PUSH1 0x40 MLOAD PUSH2 0x25A SWAP4 SWAP3 SWAP2 SWAP1 PUSH2 0x275A JUMP JUMPDEST PUSH2 0x2B6 PUSH2 0x33D CALLDATASIZE PUSH1 0x4 PUSH2 0x277F JUMP JUMPDEST PUSH2 0xBE4 JUMP JUMPDEST PUSH2 0x234 PUSH2 0x350 CALLDATASIZE PUSH1 0x4 PUSH2 0x27A1 JUMP JUMPDEST PUSH2 0xC8C JUMP JUMPDEST PUSH2 0x234 PUSH2 0x363 CALLDATASIZE PUSH1 0x4 PUSH2 0x287A JUMP JUMPDEST PUSH2 0xD2A JUMP JUMPDEST PUSH2 0x37B PUSH2 0x376 CALLDATASIZE PUSH1 0x4 PUSH2 0x2566 JUMP JUMPDEST PUSH2 0xDC5 JUMP JUMPDEST PUSH1 0x40 MLOAD PUSH2 0x25A SWAP6 SWAP5 SWAP4 SWAP3 SWAP2 SWAP1 PUSH2 0x28FA JUMP JUMPDEST PUSH2 0x39F PUSH2 0x39A CALLDATASIZE PUSH1 0x4 PUSH2 0x2566 JUMP JUMPDEST PUSH2 0x1054 JUMP JUMPDEST PUSH1 0x40 MLOAD PUSH2 0x25A SWAP3 SWAP2 SWAP1 PUSH2 0x2948 JUMP JUMPDEST PUSH2 0x2F2 PUSH2 0x10FD JUMP JUMPDEST PUSH2 0x2B6 PUSH2 0x3C3 CALLDATASIZE PUSH1 0x4 PUSH2 0x2566 JUMP JUMPDEST PUSH2 0x11B9 JUMP JUMPDEST PUSH2 0x234 PUSH2 0x3D6 CALLDATASIZE PUSH1 0x4 PUSH2 0x2976 JUMP JUMPDEST PUSH2 0x1230 JUMP JUMPDEST PUSH2 0x3EE PUSH2 0x3E9 CALLDATASIZE PUSH1 0x4 PUSH2 0x2566 JUMP JUMPDEST PUSH2 0x12E2 JUMP JUMPDEST PUSH1 0x40 MLOAD PUSH2 0x25A SWAP3 SWAP2 SWAP1 PUSH2 0x29CD JUMP JUMPDEST PUSH2 0x3EE PUSH2 0x40A CALLDATASIZE PUSH1 0x4 PUSH2 0x29EF JUMP JUMPDEST PUSH2 0x15E2 JUMP JUMPDEST PUSH2 0x422 PUSH2 0x41D CALLDATASIZE PUSH1 0x4 PUSH2 0x2566 JUMP JUMPDEST PUSH2 0x166A JUMP JUMPDEST PUSH1 0x40 MLOAD PUSH2 0x25A SWAP6 SWAP5 SWAP4 SWAP3 SWAP2 SWAP1 PUSH2 0x2A52 JUMP JUMPDEST PUSH2 0x446 PUSH2 0x441 CALLDATASIZE PUSH1 0x4 PUSH2 0x2566 JUMP JUMPDEST PUSH2 0x1711 JUMP JUMPDEST PUSH1 0x40 MLOAD PUSH2 0x25A SWAP4 SWAP3 SWAP2 SWAP1 PUSH2 0x2A89 JUMP JUMPDEST PUSH2 0x234 PUSH2 0x463 CALLDATASIZE PUSH1 0x4 PUSH2 0x2AA8 JUMP JUMPDEST PUSH2 0x189B JUMP JUMPDEST PUSH2 0x2B6 PUSH1 0x5 SLOAD DUP2 JUMP JUMPDEST PUSH2 0x234 PUSH2 0x47F CALLDATASIZE PUSH1 0x4 PUSH2 0x2B41 JUMP JUMPDEST PUSH2 0x1950 JUMP JUMPDEST PUSH2 0x234 PUSH2 0x492 CALLDATASIZE PUSH1 0x4 PUSH2 0x2B6D JUMP JUMPDEST PUSH2 0x1A1A JUMP JUMPDEST PUSH2 0x234 PUSH2 0x4A5 CALLDATASIZE PUSH1 0x4 PUSH2 0x27A1 JUMP JUMPDEST PUSH2 0x1A50 JUMP JUMPDEST PUSH2 0x234 PUSH2 0x4B8 CALLDATASIZE PUSH1 0x4 PUSH2 0x2BD0 JUMP JUMPDEST PUSH2 0x1AB4 JUMP JUMPDEST PUSH2 0x4D0 PUSH2 0x4CB CALLDATASIZE PUSH1 0x4 PUSH2 0x2566 JUMP JUMPDEST PUSH2 0x1D74 JUMP JUMPDEST PUSH1 0x40 MLOAD PUSH2 0x25A SWAP4 SWAP3 SWAP2 SWAP1 PUSH2 0x2C74 JUMP JUMPDEST PUSH2 0x3EE PUSH2 0x4ED CALLDATASIZE PUSH1 0x4 PUSH2 0x2566 JUMP JUMPDEST PUSH2 0x1E16 JUMP JUMPDEST PUSH2 0x234 PUSH2 0x500 CALLDATASIZE PUSH1 0x4 PUSH2 0x2CB7 JUMP JUMPDEST PUSH2 0x2025 JUMP JUMPDEST PUSH2 0x234 PUSH2 0x513 CALLDATASIZE PUSH1 0x4 PUSH2 0x2DB6 JUMP JUMPDEST PUSH2 0x208B JUMP JUMPDEST PUSH2 0x234 PUSH2 0x526 CALLDATASIZE PUSH1 0x4 PUSH2 0x2DFA JUMP JUMPDEST PUSH2 0x21ED JUMP JUMPDEST PUSH2 0x234 PUSH2 0x539 CALLDATASIZE PUSH1 0x4 PUSH2 0x2E60 JUMP JUMPDEST PUSH2 0x22CC JUMP JUMPDEST PUSH2 0x551 PUSH2 0x54C CALLDATASIZE PUSH1 0x4 PUSH2 0x2566 JUMP JUMPDEST PUSH2 0x237B JUMP JUMPDEST PUSH1 0x40 MLOAD PUSH2 0x25A SWAP7 SWAP6 SWAP5 SWAP4 SWAP3 SWAP2 SWAP1 PUSH2 0x2EAF JUMP JUMPDEST PUSH1 0x4 SLOAD PUSH2 0x576 SWAP1 PUSH1 0x1 PUSH1 0x1 PUSH1 0xA0 SHL SUB AND DUP2 JUMP JUMPDEST PUSH1 0x40 MLOAD PUSH1 0x1 PUSH1 0x1 PUSH1 0xA0 SHL SUB SWAP1 SWAP2 AND DUP2 MSTORE PUSH1 0x20 ADD PUSH2 0x25A JUMP JUMPDEST PUSH1 0x4 SLOAD PUSH1 0x1 PUSH1 0x1 PUSH1 0xA0 SHL SUB AND CALLER EQ PUSH2 0x5C1 JUMPI PUSH1 0x40 MLOAD PUSH3 0x461BCD PUSH1 0xE5 SHL DUP2 MSTORE PUSH1 0x4 ADD PUSH2 0x5B8 SWAP1 PUSH2 0x2F31 JUMP JUMPDEST PUSH1 0x40 MLOAD DUP1 SWAP2 SUB SWAP1 REVERT JUMPDEST PUSH1 0x0 SLOAD PUSH1 0x40 MLOAD PUSH4 0xC96262D PUSH1 0xE0 SHL DUP2 MSTORE PUSH1 0x1 PUSH1 0x1 PUSH1 0xA0 SHL SUB SWAP1 SWAP2 AND SWAP1 PUSH4 0xC96262D SWAP1 PUSH2 0x5F5 SWAP1 DUP7 SWAP1 DUP7 SWAP1 DUP7 SWAP1 PUSH1 0x4 ADD PUSH2 0x2F60 JUMP JUMPDEST PUSH1 0x0 PUSH1 0x40 MLOAD DUP1 DUP4 SUB DUP2 PUSH1 0x0 DUP8 DUP1 EXTCODESIZE ISZERO DUP1 ISZERO PUSH2 0x60F JUMPI PUSH1 0x0 DUP1 REVERT JUMPDEST POP GAS CALL ISZERO DUP1 ISZERO PUSH2 0x623 JUMPI RETURNDATASIZE PUSH1 0x0 DUP1 RETURNDATACOPY RETURNDATASIZE PUSH1 0x0 REVERT JUMPDEST POP POP POP POP POP POP POP JUMP JUMPDEST PUSH1 0x4 SLOAD PUSH1 0x60 SWAP1 DUP2 SWAP1 DUP2 SWAP1 DUP2 SWAP1 DUP2 SWAP1 PUSH1 0x1 PUSH1 0x1 PUSH1 0xA0 SHL SUB AND CALLER EQ PUSH2 0x661 JUMPI PUSH1 0x40 MLOAD PUSH3 0x461BCD PUSH1 0xE5 SHL DUP2 MSTORE PUSH1 0x4 ADD PUSH2 0x5B8 SWAP1 PUSH2 0x2F31 JUMP JUMPDEST PUSH1 0x0 SLOAD PUSH1 0x40 MLOAD PUSH4 0x126EA085 PUSH1 0xE3 SHL DUP2 MSTORE PUSH1 0x4 DUP2 ADD DUP9 SWAP1 MSTORE PUSH1 0x1 PUSH1 0x1 PUSH1 0xA0 SHL SUB SWAP1 SWAP2 AND SWAP1 PUSH4 0x93750428 SWAP1 PUSH1 0x24 ADD JUMPDEST PUSH1 0x0 PUSH1 0x40 MLOAD DUP1 DUP4 SUB DUP2 DUP7 GAS STATICCALL ISZERO DUP1 ISZERO PUSH2 0x6AB JUMPI RETURNDATASIZE PUSH1 0x0 DUP1 RETURNDATACOPY RETURNDATASIZE PUSH1 0x0 REVERT JUMPDEST POP POP POP POP PUSH1 0x40 MLOAD RETURNDATASIZE PUSH1 0x0 DUP3 RETURNDATACOPY PUSH1 0x1F RETURNDATASIZE SWAP1 DUP2 ADD PUSH1 0x1F NOT AND DUP3 ADD PUSH1 0x40 MSTORE PUSH2 0x6D3 SWAP2 SWAP1 DUP2 ADD SWAP1 PUSH2 0x2FD8 JUMP JUMPDEST SWAP4 SWAP11 SWAP3 SWAP10 POP SWAP1 SWAP8 POP SWAP6 POP SWAP1 SWAP4 POP SWAP2 POP POP JUMP JUMPDEST PUSH1 0x4 SLOAD PUSH1 0x60 SWAP1 DUP2 SWAP1 DUP2 SWAP1 PUSH1 0x0 SWAP1 DUP3 SWAP1 PUSH1 0x1 PUSH1 0x1 PUSH1 0xA0 SHL SUB AND CALLER EQ PUSH2 0x71B JUMPI PUSH1 0x40 MLOAD PUSH3 0x461BCD PUSH1 0xE5 SHL DUP2 MSTORE PUSH1 0x4 ADD PUSH2 0x5B8 SWAP1 PUSH2 0x2F31 JUMP JUMPDEST PUSH1 0x0 SLOAD PUSH1 0x40 MLOAD PUSH4 0x70CFA985 PUSH1 0xE0 SHL DUP2 MSTORE PUSH1 0x4 DUP2 ADD DUP9 SWAP1 MSTORE PUSH1 0x1 PUSH1 0x1 PUSH1 0xA0 SHL SUB SWAP1 SWAP2 AND SWAP1 PUSH4 0x70CFA985 SWAP1 PUSH1 0x24 ADD PUSH1 0x0 PUSH1 0x40 MLOAD DUP1 DUP4 SUB DUP2 DUP7 GAS STATICCALL ISZERO DUP1 ISZERO PUSH2 0x764 JUMPI RETURNDATASIZE PUSH1 0x0 DUP1 RETURNDATACOPY RETURNDATASIZE PUSH1 0x0 REVERT JUMPDEST POP POP POP POP PUSH1 0x40 MLOAD RETURNDATASIZE PUSH1 0x0 DUP3 RETURNDATACOPY PUSH1 0x1F RETURNDATASIZE SWAP1 DUP2 ADD PUSH1 0x1F NOT AND DUP3 ADD PUSH1 0x40 MSTORE PUSH2 0x6D3 SWAP2 SWAP1 DUP2 ADD SWAP1 PUSH2 0x309C JUMP JUMPDEST PUSH1 0x4 SLOAD PUSH1 0x1 PUSH1 0x1 PUSH1 0xA0 SHL SUB AND CALLER EQ PUSH2 0x7B6 JUMPI PUSH1 0x40 MLOAD PUSH3 0x461BCD PUSH1 0xE5 SHL DUP2 MSTORE PUSH1 0x4 ADD PUSH2 0x5B8 SWAP1 PUSH2 0x2F31 JUMP JUMPDEST PUSH1 0x0 SLOAD PUSH1 0x40 MLOAD PUSH4 0xA25CFDB PUSH1 0xE2 SHL DUP2 MSTORE PUSH1 0x4 DUP2 ADD DUP7 SWAP1 MSTORE PUSH1 0x24 DUP2 ADD DUP6 SWAP1 MSTORE PUSH1 0x44 DUP2 ADD DUP5 SWAP1 MSTORE PUSH1 0x64 DUP2 ADD DUP4 SWAP1 MSTORE PUSH1 0x1 PUSH1 0x1 PUSH1 0xA0 SHL SUB SWAP1 SWAP2 AND SWAP1 PUSH4 0x28973F6C SWAP1 PUSH1 0x84 ADD JUMPDEST PUSH1 0x0 PUSH1 0x40 MLOAD DUP1 DUP4 SUB DUP2 PUSH1 0x0 DUP8 DUP1 EXTCODESIZE ISZERO DUP1 ISZERO PUSH2 0x812 JUMPI PUSH1 0x0 DUP1 REVERT JUMPDEST POP GAS CALL ISZERO DUP1 ISZERO PUSH2 0x826 JUMPI RETURNDATASIZE PUSH1 0x0 DUP1 RETURNDATACOPY RETURNDATASIZE PUSH1 0x0 REVERT JUMPDEST POP POP POP POP POP POP POP POP JUMP JUMPDEST PUSH1 0x4 SLOAD PUSH1 0x1 PUSH1 0x1 PUSH1 0xA0 SHL SUB AND CALLER EQ PUSH2 0x85A JUMPI PUSH1 0x40 MLOAD PUSH3 0x461BCD PUSH1 0xE5 SHL DUP2 MSTORE PUSH1 0x4 ADD PUSH2 0x5B8 SWAP1 PUSH2 0x2F31 JUMP JUMPDEST PUSH1 0x0 SLOAD PUSH1 0x40 MLOAD PUSH4 0x14CFC0F PUSH1 0xE5 SHL DUP2 MSTORE PUSH1 0x1 PUSH1 0x1 PUSH1 0xA0 SHL SUB SWAP1 SWAP2 AND SWAP1 PUSH4 0x299F81E0 SWAP1 PUSH2 0x7F8 SWAP1 DUP8 SWAP1 DUP8 SWAP1 DUP8 SWAP1 DUP8 SWAP1 PUSH1 0x4 ADD PUSH2 0x3138 JUMP JUMPDEST PUSH1 0x4 SLOAD PUSH1 0x0 SWAP1 PUSH1 0x1 PUSH1 0x1 PUSH1 0xA0 SHL SUB AND CALLER EQ PUSH2 0x8BD JUMPI PUSH1 0x40 MLOAD PUSH3 0x461BCD PUSH1 0xE5 SHL DUP2 MSTORE PUSH1 0x4 ADD PUSH2 0x5B8 SWAP1 PUSH2 0x2F31 JUMP JUMPDEST PUSH1 0x0 DUP1 PUSH1 0x0 SWAP1 SLOAD SWAP1 PUSH2 0x100 EXP SWAP1 DIV PUSH1 0x1 PUSH1 0x1 PUSH1 0xA0 SHL SUB AND PUSH1 0x1 PUSH1 0x1 PUSH1 0xA0 SHL SUB AND PUSH4 0xE581F9EE PUSH1 0x40 MLOAD DUP2 PUSH4 0xFFFFFFFF AND PUSH1 0xE0 SHL DUP2 MSTORE PUSH1 0x4 ADD PUSH1 0x20 PUSH1 0x40 MLOAD DUP1 DUP4 SUB DUP2 DUP7 GAS STATICCALL ISZERO DUP1 ISZERO PUSH2 0x911 JUMPI RETURNDATASIZE PUSH1 0x0 DUP1 RETURNDATACOPY RETURNDATASIZE PUSH1 0x0 REVERT JUMPDEST POP POP POP POP PUSH1 0x40 MLOAD RETURNDATASIZE PUSH1 0x1F NOT PUSH1 0x1F DUP3 ADD AND DUP3 ADD DUP1 PUSH1 0x40 MSTORE POP DUP2 ADD SWAP1 PUSH2 0x935 SWAP2 SWAP1 PUSH2 0x3182 JUMP JUMPDEST SWAP2 POP POP SWAP1 JUMP JUMPDEST PUSH1 0x4 SLOAD PUSH1 0x60 SWAP1 DUP2 SWAP1 DUP2 SWAP1 DUP2 SWAP1 DUP2 SWAP1 PUSH1 0x1 PUSH1 0x1 PUSH1 0xA0 SHL SUB AND CALLER EQ PUSH2 0x970 JUMPI PUSH1 0x40 MLOAD PUSH3 0x461BCD PUSH1 0xE5 SHL DUP2 MSTORE PUSH1 0x4 ADD PUSH2 0x5B8 SWAP1 PUSH2 0x2F31 JUMP JUMPDEST PUSH1 0x0 SLOAD PUSH1 0x40 MLOAD PUSH4 0xB1E6328D PUSH1 0xE0 SHL DUP2 MSTORE PUSH1 0x4 DUP2 ADD DUP9 SWAP1 MSTORE PUSH1 0x1 PUSH1 0x1 PUSH1 0xA0 SHL SUB SWAP1 SWAP2 AND SWAP1 PUSH4 0xB1E6328D SWAP1 PUSH1 0x24 ADD PUSH2 0x68E JUMP JUMPDEST PUSH1 0x4 SLOAD PUSH1 0x0 SWAP1 DUP2 SWAP1 DUP2 SWAP1 PUSH1 0x1 PUSH1 0x1 PUSH1 0xA0 SHL SUB AND CALLER EQ PUSH2 0x9D2 JUMPI PUSH1 0x40 MLOAD PUSH3 0x461BCD PUSH1 0xE5 SHL DUP2 MSTORE PUSH1 0x4 ADD PUSH2 0x5B8 SWAP1 PUSH2 0x2F31 JUMP JUMPDEST PUSH1 0x0 SLOAD PUSH1 0x40 MLOAD PUSH4 0x30267D31 PUSH1 0xE1 SHL DUP2 MSTORE PUSH1 0x4 DUP2 ADD DUP7 SWAP1 MSTORE PUSH1 0x1 PUSH1 0x1 PUSH1 0xA0 SHL SUB SWAP1 SWAP2 AND SWAP1 PUSH4 0x604CFA62 SWAP1 PUSH1 0x24 ADD PUSH1 0x60 PUSH1 0x40 MLOAD DUP1 DUP4 SUB DUP2 DUP7 GAS STATICCALL ISZERO DUP1 ISZERO PUSH2 0xA1B JUMPI RETURNDATASIZE PUSH1 0x0 DUP1 RETURNDATACOPY RETURNDATASIZE PUSH1 0x0 REVERT JUMPDEST POP POP POP POP PUSH1 0x40 MLOAD RETURNDATASIZE PUSH1 0x1F NOT PUSH1 0x1F DUP3 ADD AND DUP3 ADD DUP1 PUSH1 0x40 MSTORE POP DUP2 ADD SWAP1 PUSH2 0xA3F SWAP2 SWAP1 PUSH2 0x319B JUMP JUMPDEST SWAP3 POP SWAP3 POP SWAP3 POP SWAP2 SWAP4 SWAP1 SWAP3 POP JUMP JUMPDEST PUSH1 0x4 SLOAD PUSH1 0x60 SWAP1 PUSH1 0x0 SWAP1 DUP2 SWAP1 PUSH1 0x1 PUSH1 0x1 PUSH1 0xA0 SHL SUB AND CALLER EQ PUSH2 0xA7E JUMPI PUSH1 0x40 MLOAD PUSH3 0x461BCD PUSH1 0xE5 SHL DUP2 MSTORE PUSH1 0x4 ADD PUSH2 0x5B8 SWAP1 PUSH2 0x2F31 JUMP JUMPDEST PUSH1 0x1 SLOAD PUSH1 0x40 MLOAD PUSH4 0x69E5AE0F PUSH1 0xE0 SHL DUP2 MSTORE PUSH1 0x4 DUP2 ADD DUP7 SWAP1 MSTORE PUSH1 0x0 SWAP2 PUSH1 0x1 PUSH1 0x1 PUSH1 0xA0 SHL SUB AND SWAP1 PUSH4 0x69E5AE0F SWAP1 PUSH1 0x24 ADD PUSH1 0x0 PUSH1 0x40 MLOAD DUP1 DUP4 SUB DUP2 DUP7 GAS STATICCALL ISZERO DUP1 ISZERO PUSH2 0xAC8 JUMPI RETURNDATASIZE PUSH1 0x0 DUP1 RETURNDATACOPY RETURNDATASIZE PUSH1 0x0 REVERT JUMPDEST POP POP POP POP PUSH1 0x40 MLOAD RETURNDATASIZE PUSH1 0x0 DUP3 RETURNDATACOPY PUSH1 0x1F RETURNDATASIZE SWAP1 DUP2 ADD PUSH1 0x1F NOT AND DUP3 ADD PUSH1 0x40 MSTORE PUSH2 0xAF0 SWAP2 SWAP1 DUP2 ADD SWAP1 PUSH2 0x31C9 JUMP JUMPDEST PUSH1 0x1 SLOAD PUSH1 0x40 MLOAD PUSH4 0xC493ADC7 PUSH1 0xE0 SHL DUP2 MSTORE PUSH1 0x4 DUP2 ADD DUP9 SWAP1 MSTORE SWAP2 SWAP3 POP PUSH1 0x0 SWAP2 PUSH1 0x1 PUSH1 0x1 PUSH1 0xA0 SHL SUB SWAP1 SWAP2 AND SWAP1 PUSH4 0xC493ADC7 SWAP1 PUSH1 0x24 ADD PUSH1 0x20 PUSH1 0x40 MLOAD DUP1 DUP4 SUB DUP2 DUP7 GAS STATICCALL ISZERO DUP1 ISZERO PUSH2 0xB3F JUMPI RETURNDATASIZE PUSH1 0x0 DUP1 RETURNDATACOPY RETURNDATASIZE PUSH1 0x0 REVERT JUMPDEST POP POP POP POP PUSH1 0x40 MLOAD RETURNDATASIZE PUSH1 0x1F NOT PUSH1 0x1F DUP3 ADD AND DUP3 ADD DUP1 PUSH1 0x40 MSTORE POP DUP2 ADD SWAP1 PUSH2 0xB63 SWAP2 SWAP1 PUSH2 0x3182 JUMP JUMPDEST PUSH1 0x1 SLOAD PUSH1 0x40 MLOAD PUSH4 0x77F807F PUSH1 0xE0 SHL DUP2 MSTORE PUSH1 0x4 DUP2 ADD DUP10 SWAP1 MSTORE SWAP2 SWAP3 POP PUSH1 0x0 SWAP2 PUSH1 0x1 PUSH1 0x1 PUSH1 0xA0 SHL SUB SWAP1 SWAP2 AND SWAP1 PUSH4 0x77F807F SWAP1 PUSH1 0x24 ADD PUSH1 0x20 PUSH1 0x40 MLOAD DUP1 DUP4 SUB DUP2 DUP7 GAS STATICCALL ISZERO DUP1 ISZERO PUSH2 0xBB2 JUMPI RETURNDATASIZE PUSH1 0x0 DUP1 RETURNDATACOPY RETURNDATASIZE PUSH1 0x0 REVERT JUMPDEST POP POP POP POP PUSH1 0x40 MLOAD RETURNDATASIZE PUSH1 0x1F NOT PUSH1 0x1F DUP3 ADD AND DUP3 ADD DUP1 PUSH1 0x40 MSTORE POP DUP2 ADD SWAP1 PUSH2 0xBD6 SWAP2 SWAP1 PUSH2 0x3182 JUMP JUMPDEST SWAP3 SWAP8 SWAP2 SWAP7 POP SWAP2 SWAP5 POP SWAP3 POP POP POP JUMP JUMPDEST PUSH1 0x4 SLOAD PUSH1 0x0 SWAP1 PUSH1 0x1 PUSH1 0x1 PUSH1 0xA0 SHL SUB AND CALLER EQ PUSH2 0xC11 JUMPI PUSH1 0x40 MLOAD PUSH3 0x461BCD PUSH1 0xE5 SHL DUP2 MSTORE PUSH1 0x4 ADD PUSH2 0x5B8 SWAP1 PUSH2 0x2F31 JUMP JUMPDEST PUSH1 0x3 SLOAD PUSH1 0x40 MLOAD PUSH4 0x4D7B4139 PUSH1 0xE0 SHL DUP2 MSTORE PUSH1 0x4 DUP2 ADD DUP6 SWAP1 MSTORE PUSH1 0x24 DUP2 ADD DUP5 SWAP1 MSTORE PUSH1 0x1 PUSH1 0x1 PUSH1 0xA0 SHL SUB SWAP1 SWAP2 AND SWAP1 PUSH4 0x4D7B4139 SWAP1 PUSH1 0x44 ADD PUSH1 0x20 PUSH1 0x40 MLOAD DUP1 DUP4 SUB DUP2 DUP7 GAS STATICCALL ISZERO DUP1 ISZERO PUSH2 0xC61 JUMPI RETURNDATASIZE PUSH1 0x0 DUP1 RETURNDATACOPY RETURNDATASIZE PUSH1 0x0 REVERT JUMPDEST POP POP POP POP PUSH1 0x40 MLOAD RETURNDATASIZE PUSH1 0x1F NOT PUSH1 0x1F DUP3 ADD AND DUP3 ADD DUP1 PUSH1 0x40 MSTORE POP DUP2 ADD SWAP1 PUSH2 0xC85 SWAP2 SWAP1 PUSH2 0x3182 JUMP JUMPDEST SWAP4 SWAP3 POP POP POP JUMP JUMPDEST PUSH1 0x4 SLOAD PUSH1 0x1 PUSH1 0x1 PUSH1 0xA0 SHL SUB AND CALLER EQ PUSH2 0xCB6 JUMPI PUSH1 0x40 MLOAD PUSH3 0x461BCD PUSH1 0xE5 SHL DUP2 MSTORE PUSH1 0x4 ADD PUSH2 0x5B8 SWAP1 PUSH2 0x2F31 JUMP JUMPDEST PUSH1 0x0 SLOAD PUSH1 0x40 MLOAD PUSH4 0x2C7157CB PUSH1 0xE1 SHL DUP2 MSTORE PUSH1 0x1 PUSH1 0x1 PUSH1 0xA0 SHL SUB SWAP1 SWAP2 AND SWAP1 PUSH4 0x58E2AF96 SWAP1 PUSH2 0xCF0 SWAP1 DUP10 SWAP1 DUP10 SWAP1 DUP10 SWAP1 DUP10 SWAP1 DUP10 SWAP1 DUP10 SWAP1 PUSH1 0x4 ADD PUSH2 0x31FD JUMP JUMPDEST PUSH1 0x0 PUSH1 0x40 MLOAD DUP1 DUP4 SUB DUP2 PUSH1 0x0 DUP8 DUP1 EXTCODESIZE ISZERO DUP1 ISZERO PUSH2 0xD0A JUMPI PUSH1 0x0 DUP1 REVERT JUMPDEST POP GAS CALL ISZERO DUP1 ISZERO PUSH2 0xD1E JUMPI RETURNDATASIZE PUSH1 0x0 DUP1 RETURNDATACOPY RETURNDATASIZE PUSH1 0x0 REVERT JUMPDEST POP POP POP POP POP POP POP POP POP POP JUMP JUMPDEST PUSH1 0x4 SLOAD PUSH1 0x1 PUSH1 0x1 PUSH1 0xA0 SHL SUB AND CALLER EQ PUSH2 0xD54 JUMPI PUSH1 0x40 MLOAD PUSH3 0x461BCD PUSH1 0xE5 SHL DUP2 MSTORE PUSH1 0x4 ADD PUSH2 0x5B8 SWAP1 PUSH2 0x2F31 JUMP JUMPDEST PUSH1 0x0 SLOAD PUSH1 0x40 MLOAD PUSH4 0x5F3A3CF1 PUSH1 0xE0 SHL DUP2 MSTORE PUSH1 0x1 PUSH1 0x1 PUSH1 0xA0 SHL SUB SWAP1 SWAP2 AND SWAP1 PUSH4 0x5F3A3CF1 SWAP1 PUSH2 0xD8C SWAP1 DUP9 SWAP1 DUP9 SWAP1 DUP9 SWAP1 DUP9 SWAP1 DUP9 SWAP1 PUSH1 0x4 ADD PUSH2 0x3228 JUMP JUMPDEST PUSH1 0x0 PUSH1 0x40 MLOAD DUP1 DUP4 SUB DUP2 PUSH1 0x0 DUP8 DUP1 EXTCODESIZE ISZERO DUP1 ISZERO PUSH2 0xDA6 JUMPI PUSH1 0x0 DUP1 REVERT JUMPDEST POP GAS CALL ISZERO DUP1 ISZERO PUSH2 0xDBA JUMPI RETURNDATASIZE PUSH1 0x0 DUP1 RETURNDATACOPY RETURNDATASIZE PUSH1 0x0 REVERT JUMPDEST POP POP POP POP POP POP POP POP POP JUMP JUMPDEST PUSH1 0x4 SLOAD PUSH1 0x60 SWAP1 DUP2 SWAP1 DUP2 SWAP1 PUSH1 0x0 SWAP1 DUP2 SWAP1 PUSH1 0x1 PUSH1 0x1 PUSH1 0xA0 SHL SUB AND CALLER EQ PUSH2 0xDFB JUMPI PUSH1 0x40 MLOAD PUSH3 0x461BCD PUSH1 0xE5 SHL DUP2 MSTORE PUSH1 0x4 ADD PUSH2 0x5B8 SWAP1 PUSH2 0x2F31 JUMP JUMPDEST PUSH1 0x1 SLOAD PUSH1 0x40 MLOAD PUSH4 0xA18BAF3 PUSH1 0xE2 SHL DUP2 MSTORE PUSH1 0x4 DUP2 ADD DUP9 SWAP1 MSTORE PUSH1 0x0 SWAP2 PUSH1 0x1 PUSH1 0x1 PUSH1 0xA0 SHL SUB AND SWAP1 PUSH4 0x2862EBCC SWAP1 PUSH1 0x24 ADD PUSH1 0x0 PUSH1 0x40 MLOAD DUP1 DUP4 SUB DUP2 DUP7 GAS STATICCALL ISZERO DUP1 ISZERO PUSH2 0xE45 JUMPI RETURNDATASIZE PUSH1 0x0 DUP1 RETURNDATACOPY RETURNDATASIZE PUSH1 0x0 REVERT JUMPDEST POP POP POP POP PUSH1 0x40 MLOAD RETURNDATASIZE PUSH1 0x0 DUP3 RETURNDATACOPY PUSH1 0x1F RETURNDATASIZE SWAP1 DUP2 ADD PUSH1 0x1F NOT AND DUP3 ADD PUSH1 0x40 MSTORE PUSH2 0xE6D SWAP2 SWAP1 DUP2 ADD SWAP1 PUSH2 0x31C9 JUMP JUMPDEST PUSH1 0x1 SLOAD PUSH1 0x40 MLOAD PUSH4 0x5EB86B95 PUSH1 0xE0 SHL DUP2 MSTORE PUSH1 0x4 DUP2 ADD DUP11 SWAP1 MSTORE SWAP2 SWAP3 POP PUSH1 0x0 SWAP2 PUSH1 0x1 PUSH1 0x1 PUSH1 0xA0 SHL SUB SWAP1 SWAP2 AND SWAP1 PUSH4 0x5EB86B95 SWAP1 PUSH1 0x24 ADD PUSH1 0x0 PUSH1 0x40 MLOAD DUP1 DUP4 SUB DUP2 DUP7 GAS STATICCALL ISZERO DUP1 ISZERO PUSH2 0xEBC JUMPI RETURNDATASIZE PUSH1 0x0 DUP1 RETURNDATACOPY RETURNDATASIZE PUSH1 0x0 REVERT JUMPDEST POP POP POP POP PUSH1 0x40 MLOAD RETURNDATASIZE PUSH1 0x0 DUP3 RETURNDATACOPY PUSH1 0x1F RETURNDATASIZE SWAP1 DUP2 ADD PUSH1 0x1F NOT AND DUP3 ADD PUSH1 0x40 MSTORE PUSH2 0xEE4 SWAP2 SWAP1 DUP2 ADD SWAP1 PUSH2 0x31C9 JUMP JUMPDEST PUSH1 0x1 SLOAD PUSH1 0x40 MLOAD PUSH4 0xECDE1405 PUSH1 0xE0 SHL DUP2 MSTORE PUSH1 0x4 DUP2 ADD DUP12 SWAP1 MSTORE SWAP2 SWAP3 POP PUSH1 0x0 SWAP2 PUSH1 0x1 PUSH1 0x1 PUSH1 0xA0 SHL SUB SWAP1 SWAP2 AND SWAP1 PUSH4 0xECDE1405 SWAP1 PUSH1 0x24 ADD PUSH1 0x0 PUSH1 0x40 MLOAD DUP1 DUP4 SUB DUP2 DUP7 GAS STATICCALL ISZERO DUP1 ISZERO PUSH2 0xF33 JUMPI RETURNDATASIZE PUSH1 0x0 DUP1 RETURNDATACOPY RETURNDATASIZE PUSH1 0x0 REVERT JUMPDEST POP POP POP POP PUSH1 0x40 MLOAD RETURNDATASIZE PUSH1 0x0 DUP3 RETURNDATACOPY PUSH1 0x1F RETURNDATASIZE SWAP1 DUP2 ADD PUSH1 0x1F NOT AND DUP3 ADD PUSH1 0x40 MSTORE PUSH2 0xF5B SWAP2 SWAP1 DUP2 ADD SWAP1 PUSH2 0x31C9 JUMP JUMPDEST PUSH1 0x1 SLOAD PUSH1 0x40 MLOAD PUSH4 0x7DFA3649 PUSH1 0xE0 SHL DUP2 MSTORE PUSH1 0x4 DUP2 ADD DUP13 SWAP1 MSTORE SWAP2 SWAP3 POP PUSH1 0x0 SWAP2 PUSH1 0x1 PUSH1 0x1 PUSH1 0xA0 SHL SUB SWAP1 SWAP2 AND SWAP1 PUSH4 0x7DFA3649 SWAP1 PUSH1 0x24 ADD PUSH1 0x20 PUSH1 0x40 MLOAD DUP1 DUP4 SUB DUP2 DUP7 GAS STATICCALL ISZERO DUP1 ISZERO PUSH2 0xFAA JUMPI RETURNDATASIZE PUSH1 0x0 DUP1 RETURNDATACOPY RETURNDATASIZE PUSH1 0x0 REVERT JUMPDEST POP POP POP POP PUSH1 0x40 MLOAD RETURNDATASIZE PUSH1 0x1F NOT PUSH1 0x1F DUP3 ADD AND DUP3 ADD DUP1 PUSH1 0x40 MSTORE POP DUP2 ADD SWAP1 PUSH2 0xFCE SWAP2 SWAP1 PUSH2 0x3182 JUMP JUMPDEST PUSH1 0x1 SLOAD PUSH1 0x40 MLOAD PUSH4 0x67379D49 PUSH1 0xE1 SHL DUP2 MSTORE PUSH1 0x4 DUP2 ADD DUP14 SWAP1 MSTORE SWAP2 SWAP3 POP PUSH1 0x0 SWAP2 PUSH1 0x1 PUSH1 0x1 PUSH1 0xA0 SHL SUB SWAP1 SWAP2 AND SWAP1 PUSH4 0xCE6F3A92 SWAP1 PUSH1 0x24 ADD PUSH1 0x20 PUSH1 0x40 MLOAD DUP1 DUP4 SUB DUP2 DUP7 GAS STATICCALL ISZERO DUP1 ISZERO PUSH2 0x101D JUMPI RETURNDATASIZE PUSH1 0x0 DUP1 RETURNDATACOPY RETURNDATASIZE PUSH1 0x0 REVERT JUMPDEST POP POP POP POP PUSH1 0x40 MLOAD RETURNDATASIZE PUSH1 0x1F NOT PUSH1 0x1F DUP3 ADD AND DUP3 ADD DUP1 PUSH1 0x40 MSTORE POP DUP2 ADD SWAP1 PUSH2 0x1041 SWAP2 SWAP1 PUSH2 0x3182 JUMP JUMPDEST SWAP5 SWAP12 SWAP4 SWAP11 POP SWAP2 SWAP9 POP SWAP7 POP SWAP2 SWAP5 POP SWAP3 POP POP POP JUMP JUMPDEST PUSH1 0x4 SLOAD PUSH1 0x60 SWAP1 DUP2 SWAP1 PUSH1 0x1 PUSH1 0x1 PUSH1 0xA0 SHL SUB AND CALLER EQ PUSH2 0x1083 JUMPI PUSH1 0x40 MLOAD PUSH3 0x461BCD PUSH1 0xE5 SHL DUP2 MSTORE PUSH1 0x4 ADD PUSH2 0x5B8 SWAP1 PUSH2 0x2F31 JUMP JUMPDEST PUSH1 0x0 SLOAD PUSH1 0x40 MLOAD PUSH4 0x2C324BFB PUSH1 0xE1 SHL DUP2 MSTORE PUSH1 0x4 DUP2 ADD DUP6 SWAP1 MSTORE PUSH1 0x1 PUSH1 0x1 PUSH1 0xA0 SHL SUB SWAP1 SWAP2 AND SWAP1 PUSH4 0x586497F6 SWAP1 PUSH1 0x24 ADD PUSH1 0x0 PUSH1 0x40 MLOAD DUP1 DUP4 SUB DUP2 DUP7 GAS STATICCALL ISZERO DUP1 ISZERO PUSH2 0x10CC JUMPI RETURNDATASIZE PUSH1 0x0 DUP1 RETURNDATACOPY RETURNDATASIZE PUSH1 0x0 REVERT JUMPDEST POP POP POP POP PUSH1 0x40 MLOAD RETURNDATASIZE PUSH1 0x0 DUP3 RETURNDATACOPY PUSH1 0x1F RETURNDATASIZE SWAP1 DUP2 ADD PUSH1 0x1F NOT AND DUP3 ADD PUSH1 0x40 MSTORE PUSH2 0x10F4 SWAP2 SWAP1 DUP2 ADD SWAP1 PUSH2 0x325F JUMP JUMPDEST SWAP2 POP SWAP2 POP SWAP2 POP SWAP2 JUMP JUMPDEST PUSH1 0x4 SLOAD PUSH1 0x0 SWAP1 DUP2 SWAP1 DUP2 SWAP1 PUSH1 0x1 PUSH1 0x1 PUSH1 0xA0 SHL SUB AND CALLER EQ PUSH2 0x112E JUMPI PUSH1 0x40 MLOAD PUSH3 0x461BCD PUSH1 0xE5 SHL DUP2 MSTORE PUSH1 0x4 ADD PUSH2 0x5B8 SWAP1 PUSH2 0x2F31 JUMP JUMPDEST PUSH1 0x0 DUP1 PUSH1 0x0 SWAP1 SLOAD SWAP1 PUSH2 0x100 EXP SWAP1 DIV PUSH1 0x1 PUSH1 0x1 PUSH1 0xA0 SHL SUB AND PUSH1 0x1 PUSH1 0x1 PUSH1 0xA0 SHL SUB AND PUSH4 0xE581F9EE PUSH1 0x40 MLOAD DUP2 PUSH4 0xFFFFFFFF AND PUSH1 0xE0 SHL DUP2 MSTORE PUSH1 0x4 ADD PUSH1 0x20 PUSH1 0x40 MLOAD DUP1 DUP4 SUB DUP2 DUP7 GAS STATICCALL ISZERO DUP1 ISZERO PUSH2 0x1182 JUMPI RETURNDATASIZE PUSH1 0x0 DUP1 RETURNDATACOPY RETURNDATASIZE PUSH1 0x0 REVERT JUMPDEST POP POP POP POP PUSH1 0x40 MLOAD RETURNDATASIZE PUSH1 0x1F NOT PUSH1 0x1F DUP3 ADD AND DUP3 ADD DUP1 PUSH1 0x40 MSTORE POP DUP2 ADD SWAP1 PUSH2 0x11A6 SWAP2 SWAP1 PUSH2 0x3182 JUMP JUMPDEST PUSH1 0x5 SLOAD PUSH1 0x6 SLOAD SWAP2 SWAP6 POP SWAP4 POP SWAP2 POP POP SWAP1 SWAP2 SWAP3 JUMP JUMPDEST PUSH1 0x4 SLOAD PUSH1 0x0 SWAP1 PUSH1 0x1 PUSH1 0x1 PUSH1 0xA0 SHL SUB AND CALLER EQ PUSH2 0x11E6 JUMPI PUSH1 0x40 MLOAD PUSH3 0x461BCD PUSH1 0xE5 SHL DUP2 MSTORE PUSH1 0x4 ADD PUSH2 0x5B8 SWAP1 PUSH2 0x2F31 JUMP JUMPDEST PUSH1 0x0 DUP1 SLOAD PUSH1 0x40 MLOAD PUSH4 0x39BC4959 PUSH1 0xE1 SHL DUP2 MSTORE PUSH1 0x4 DUP2 ADD DUP6 SWAP1 MSTORE PUSH1 0x1 PUSH1 0x1 PUSH1 0xA0 SHL SUB SWAP1 SWAP2 AND SWAP1 PUSH4 0x737892B2 SWAP1 PUSH1 0x24 ADD PUSH1 0x20 PUSH1 0x40 MLOAD DUP1 DUP4 SUB DUP2 DUP7 GAS STATICCALL ISZERO DUP1 ISZERO PUSH2 0xC61 JUMPI RETURNDATASIZE PUSH1 0x0 DUP1 RETURNDATACOPY RETURNDATASIZE PUSH1 0x0 REVERT JUMPDEST PUSH1 0x1 SLOAD PUSH1 0x40 MLOAD PUSH4 0x7C663E4D PUSH1 0xE0 SHL DUP2 MSTORE PUSH1 0x0 SWAP2 PUSH1 0x1 PUSH1 0x1 PUSH1 0xA0 SHL SUB AND SWAP1 PUSH4 0x7C663E4D SWAP1 PUSH2 0x1267 SWAP1 DUP9 SWAP1 DUP9 SWAP1 DUP9 SWAP1 DUP9 SWAP1 PUSH1 0x4 ADD PUSH2 0x32B8 JUMP JUMPDEST PUSH1 0x20 PUSH1 0x40 MLOAD DUP1 DUP4 SUB DUP2 PUSH1 0x0 DUP8 GAS CALL ISZERO DUP1 ISZERO PUSH2 0x1286 JUMPI RETURNDATASIZE PUSH1 0x0 DUP1 RETURNDATACOPY RETURNDATASIZE PUSH1 0x0 REVERT JUMPDEST POP POP POP POP PUSH1 0x40 MLOAD RETURNDATASIZE PUSH1 0x1F NOT PUSH1 0x1F DUP3 ADD AND DUP3 ADD DUP1 PUSH1 0x40 MSTORE POP DUP2 ADD SWAP1 PUSH2 0x12AA SWAP2 SWAP1 PUSH2 0x3182 JUMP JUMPDEST SWAP1 POP DUP2 DUP6 DUP3 PUSH32 0x60CF56E8CD40D30413F6042836CFD24582EAF95589047F0883AA7209FFEE9E33 PUSH1 0x40 MLOAD PUSH1 0x40 MLOAD DUP1 SWAP2 SUB SWAP1 LOG4 POP POP POP POP POP JUMP JUMPDEST PUSH1 0x4 SLOAD PUSH1 0x60 SWAP1 PUSH1 0x0 SWAP1 PUSH1 0x1 PUSH1 0x1 PUSH1 0xA0 SHL SUB AND CALLER EQ PUSH2 0x1312 JUMPI PUSH1 0x40 MLOAD PUSH3 0x461BCD PUSH1 0xE5 SHL DUP2 MSTORE PUSH1 0x4 ADD PUSH2 0x5B8 SWAP1 PUSH2 0x2F31 JUMP JUMPDEST PUSH1 0x1 SLOAD PUSH1 0x40 DUP1 MLOAD PUSH4 0xF57C6491 PUSH1 0xE0 SHL DUP2 MSTORE SWAP1 MLOAD PUSH1 0x0 SWAP3 PUSH1 0x1 PUSH1 0x1 PUSH1 0xA0 SHL SUB AND SWAP2 PUSH4 0xF57C6491 SWAP2 PUSH1 0x4 DUP1 DUP4 ADD SWAP3 PUSH1 0x20 SWAP3 SWAP2 SWAP1 DUP3 SWAP1 SUB ADD DUP2 DUP7 GAS STATICCALL ISZERO DUP1 ISZERO PUSH2 0x135C JUMPI RETURNDATASIZE PUSH1 0x0 DUP1 RETURNDATACOPY RETURNDATASIZE PUSH1 0x0 REVERT JUMPDEST POP POP POP POP PUSH1 0x40 MLOAD RETURNDATASIZE PUSH1 0x1F NOT PUSH1 0x1F DUP3 ADD AND DUP3 ADD DUP1 PUSH1 0x40 MSTORE POP DUP2 ADD SWAP1 PUSH2 0x1380 SWAP2 SWAP1 PUSH2 0x3182 JUMP JUMPDEST SWAP1 POP DUP1 JUMPDEST DUP1 ISZERO PUSH2 0x15AB JUMPI PUSH1 0x1 SLOAD PUSH1 0x40 MLOAD PUSH4 0x69D5213B PUSH1 0xE0 SHL DUP2 MSTORE PUSH1 0x4 DUP2 ADD DUP4 SWAP1 MSTORE DUP7 SWAP2 PUSH1 0x1 PUSH1 0x1 PUSH1 0xA0 SHL SUB AND SWAP1 PUSH4 0x69D5213B SWAP1 PUSH1 0x24 ADD PUSH1 0x20 PUSH1 0x40 MLOAD DUP1 DUP4 SUB DUP2 DUP7 GAS STATICCALL ISZERO DUP1 ISZERO PUSH2 0x13D3 JUMPI RETURNDATASIZE PUSH1 0x0 DUP1 RETURNDATACOPY RETURNDATASIZE PUSH1 0x0 REVERT JUMPDEST POP POP POP POP PUSH1 0x40 MLOAD RETURNDATASIZE PUSH1 0x1F NOT PUSH1 0x1F DUP3 ADD AND DUP3 ADD DUP1 PUSH1 0x40 MSTORE POP DUP2 ADD SWAP1 PUSH2 0x13F7 SWAP2 SWAP1 PUSH2 0x3182 JUMP JUMPDEST EQ DUP1 ISZERO PUSH2 0x14AA JUMPI POP PUSH1 0x40 DUP1 MLOAD PUSH1 0x0 DUP2 MSTORE PUSH1 0x20 DUP2 ADD SWAP2 DUP3 SWAP1 MSTORE DUP1 MLOAD DUP3 KECCAK256 PUSH1 0x1 SLOAD PUSH4 0x61590D55 PUSH1 0xE0 SHL SWAP1 SWAP4 MSTORE PUSH1 0x24 DUP3 ADD DUP5 SWAP1 MSTORE SWAP2 PUSH1 0x1 PUSH1 0x1 PUSH1 0xA0 SHL SUB AND SWAP1 PUSH4 0x61590D55 SWAP1 PUSH1 0x44 ADD PUSH1 0x0 PUSH1 0x40 MLOAD DUP1 DUP4 SUB DUP2 DUP7 GAS STATICCALL ISZERO DUP1 ISZERO PUSH2 0x1459 JUMPI RETURNDATASIZE PUSH1 0x0 DUP1 RETURNDATACOPY RETURNDATASIZE PUSH1 0x0 REVERT JUMPDEST POP POP POP POP PUSH1 0x40 MLOAD RETURNDATASIZE PUSH1 0x0 DUP3 RETURNDATACOPY PUSH1 0x1F RETURNDATASIZE SWAP1 DUP2 ADD PUSH1 0x1F NOT AND DUP3 ADD PUSH1 0x40 MSTORE PUSH2 0x1481 SWAP2 SWAP1 DUP2 ADD SWAP1 PUSH2 0x31C9 JUMP JUMPDEST PUSH1 0x40 MLOAD PUSH1 0x20 ADD PUSH2 0x1491 SWAP2 SWAP1 PUSH2 0x32E8 JUMP JUMPDEST PUSH1 0x40 MLOAD PUSH1 0x20 DUP2 DUP4 SUB SUB DUP2 MSTORE SWAP1 PUSH1 0x40 MSTORE DUP1 MLOAD SWAP1 PUSH1 0x20 ADD KECCAK256 EQ ISZERO JUMPDEST ISZERO PUSH2 0x1599 JUMPI PUSH1 0x1 SLOAD PUSH1 0x40 MLOAD PUSH4 0x4273DB49 PUSH1 0xE1 SHL DUP2 MSTORE PUSH1 0x4 DUP2 ADD DUP4 SWAP1 MSTORE PUSH1 0x1 PUSH1 0x1 PUSH1 0xA0 SHL SUB SWAP1 SWAP2 AND SWAP1 PUSH4 0x84E7B692 SWAP1 PUSH1 0x24 ADD JUMPDEST PUSH1 0x0 PUSH1 0x40 MLOAD DUP1 DUP4 SUB DUP2 DUP7 GAS STATICCALL ISZERO DUP1 ISZERO PUSH2 0x14F9 JUMPI RETURNDATASIZE PUSH1 0x0 DUP1 RETURNDATACOPY RETURNDATASIZE PUSH1 0x0 REVERT JUMPDEST POP POP POP POP PUSH1 0x40 MLOAD RETURNDATASIZE PUSH1 0x0 DUP3 RETURNDATACOPY PUSH1 0x1F RETURNDATASIZE SWAP1 DUP2 ADD PUSH1 0x1F NOT AND DUP3 ADD PUSH1 0x40 MSTORE PUSH2 0x1521 SWAP2 SWAP1 DUP2 ADD SWAP1 PUSH2 0x31C9 JUMP JUMPDEST PUSH1 0x1 SLOAD PUSH1 0x40 MLOAD PUSH4 0x4A0C2303 PUSH1 0xE1 SHL DUP2 MSTORE PUSH1 0x4 DUP2 ADD DUP5 SWAP1 MSTORE PUSH1 0x1 PUSH1 0x1 PUSH1 0xA0 SHL SUB SWAP1 SWAP2 AND SWAP1 PUSH4 0x94184606 SWAP1 PUSH1 0x24 ADD PUSH1 0x20 PUSH1 0x40 MLOAD DUP1 DUP4 SUB DUP2 DUP7 GAS STATICCALL ISZERO DUP1 ISZERO PUSH2 0x156A JUMPI RETURNDATASIZE PUSH1 0x0 DUP1 RETURNDATACOPY RETURNDATASIZE PUSH1 0x0 REVERT JUMPDEST POP POP POP POP PUSH1 0x40 MLOAD RETURNDATASIZE PUSH1 0x1F NOT PUSH1 0x1F DUP3 ADD AND DUP3 ADD DUP1 PUSH1 0x40 MSTORE POP DUP2 ADD SWAP1 PUSH2 0x158E SWAP2 SWAP1 PUSH2 0x3182 JUMP JUMPDEST SWAP4 POP SWAP4 POP POP POP SWAP2 POP SWAP2 JUMP JUMPDEST DUP1 PUSH2 0x15A3 DUP2 PUSH2 0x331A JUMP JUMPDEST SWAP2 POP POP PUSH2 0x1384 JUMP JUMPDEST POP POP PUSH1 0x40 DUP1 MLOAD DUP1 DUP3 ADD SWAP1 SWAP2 MSTORE PUSH1 0x14 DUP2 MSTORE PUSH20 0x151A5B59481D18589B19481B9BDD08199BDD5B99 PUSH1 0x62 SHL PUSH1 0x20 DUP3 ADD MSTORE SWAP4 PUSH1 0x0 SWAP4 POP SWAP2 POP POP JUMP JUMPDEST PUSH1 0x2 SLOAD PUSH1 0x40 MLOAD PUSH4 0x41917AAB PUSH1 0xE1 SHL DUP2 MSTORE PUSH1 0x60 SWAP2 PUSH1 0x0 SWAP2 PUSH1 0x1 PUSH1 0x1 PUSH1 0xA0 SHL SUB SWAP1 SWAP2 AND SWAP1 PUSH4 0x8322F556 SWAP1 PUSH2 0x161A SWAP1 DUP8 SWAP1 DUP8 SWAP1 PUSH1 0x4 ADD PUSH2 0x2948 JUMP JUMPDEST PUSH1 0x0 PUSH1 0x40 MLOAD DUP1 DUP4 SUB DUP2 DUP7 GAS STATICCALL ISZERO DUP1 ISZERO PUSH2 0x1637 JUMPI RETURNDATASIZE PUSH1 0x0 DUP1 RETURNDATACOPY RETURNDATASIZE PUSH1 0x0 REVERT JUMPDEST POP POP POP POP PUSH1 0x40 MLOAD RETURNDATASIZE PUSH1 0x0 DUP3 RETURNDATACOPY PUSH1 0x1F RETURNDATASIZE SWAP1 DUP2 ADD PUSH1 0x1F NOT AND DUP3 ADD PUSH1 0x40 MSTORE PUSH2 0x165F SWAP2 SWAP1 DUP2 ADD SWAP1 PUSH2 0x3331 JUMP JUMPDEST SWAP1 SWAP6 SWAP1 SWAP5 POP SWAP3 POP POP POP JUMP JUMPDEST PUSH1 0x4 SLOAD PUSH1 0x60 SWAP1 PUSH1 0x0 SWAP1 DUP2 SWAP1 DUP2 SWAP1 DUP5 SWAP1 PUSH1 0x1 PUSH1 0x1 PUSH1 0xA0 SHL SUB AND CALLER EQ PUSH2 0x16A0 JUMPI PUSH1 0x40 MLOAD PUSH3 0x461BCD PUSH1 0xE5 SHL DUP2 MSTORE PUSH1 0x4 ADD PUSH2 0x5B8 SWAP1 PUSH2 0x2F31 JUMP JUMPDEST PUSH1 0x0 SLOAD PUSH1 0x40 MLOAD PUSH4 0xC3A356B PUSH1 0xE1 SHL DUP2 MSTORE PUSH1 0x4 DUP2 ADD DUP9 SWAP1 MSTORE PUSH1 0x1 PUSH1 0x1 PUSH1 0xA0 SHL SUB SWAP1 SWAP2 AND SWAP1 PUSH4 0x18746AD6 SWAP1 PUSH1 0x24 ADD PUSH1 0x0 PUSH1 0x40 MLOAD DUP1 DUP4 SUB DUP2 DUP7 GAS STATICCALL ISZERO DUP1 ISZERO PUSH2 0x16E9 JUMPI RETURNDATASIZE PUSH1 0x0 DUP1 RETURNDATACOPY RETURNDATASIZE PUSH1 0x0 REVERT JUMPDEST POP POP POP POP PUSH1 0x40 MLOAD RETURNDATASIZE PUSH1 0x0 DUP3 RETURNDATACOPY PUSH1 0x1F RETURNDATASIZE SWAP1 DUP2 ADD PUSH1 0x1F NOT AND DUP3 ADD PUSH1 0x40 MSTORE PUSH2 0x6D3 SWAP2 SWAP1 DUP2 ADD SWAP1 PUSH2 0x3377 JUMP JUMPDEST PUSH1 0x4 SLOAD PUSH1 0x0 SWAP1 DUP2 SWAP1 PUSH1 0x60 SWAP1 PUSH1 0x1 PUSH1 0x1 PUSH1 0xA0 SHL SUB AND CALLER EQ PUSH2 0x1743 JUMPI PUSH1 0x40 MLOAD PUSH3 0x461BCD PUSH1 0xE5 SHL DUP2 MSTORE PUSH1 0x4 ADD PUSH2 0x5B8 SWAP1 PUSH2 0x2F31 JUMP JUMPDEST PUSH1 0x1 SLOAD PUSH1 0x40 MLOAD PUSH4 0x3CD99969 PUSH1 0xE1 SHL DUP2 MSTORE PUSH1 0x4 DUP2 ADD DUP7 SWAP1 MSTORE PUSH1 0x0 SWAP2 PUSH1 0x1 PUSH1 0x1 PUSH1 0xA0 SHL SUB AND SWAP1 PUSH4 0x79B332D2 SWAP1 PUSH1 0x24 ADD PUSH1 0x20 PUSH1 0x40 MLOAD DUP1 DUP4 SUB DUP2 DUP7 GAS STATICCALL ISZERO DUP1 ISZERO PUSH2 0x178D JUMPI RETURNDATASIZE PUSH1 0x0 DUP1 RETURNDATACOPY RETURNDATASIZE PUSH1 0x0 REVERT JUMPDEST POP POP POP POP PUSH1 0x40 MLOAD RETURNDATASIZE PUSH1 0x1F NOT PUSH1 0x1F DUP3 ADD AND DUP3 ADD DUP1 PUSH1 0x40 MSTORE POP DUP2 ADD SWAP1 PUSH2 0x17B1 SWAP2 SWAP1 PUSH2 0x3182 JUMP JUMPDEST PUSH1 0x1 SLOAD PUSH1 0x40 MLOAD PUSH4 0xC7E674F1 PUSH1 0xE0 SHL DUP2 MSTORE PUSH1 0x4 DUP2 ADD DUP9 SWAP1 MSTORE SWAP2 SWAP3 POP PUSH1 0x0 SWAP2 PUSH1 0x1 PUSH1 0x1 PUSH1 0xA0 SHL SUB SWAP1 SWAP2 AND SWAP1 PUSH4 0xC7E674F1 SWAP1 PUSH1 0x24 ADD PUSH1 0x20 PUSH1 0x40 MLOAD DUP1 DUP4 SUB DUP2 DUP7 GAS STATICCALL ISZERO DUP1 ISZERO PUSH2 0x1800 JUMPI RETURNDATASIZE PUSH1 0x0 DUP1 RETURNDATACOPY RETURNDATASIZE PUSH1 0x0 REVERT JUMPDEST POP POP POP POP PUSH1 0x40 MLOAD RETURNDATASIZE PUSH1 0x1F NOT PUSH1 0x1F DUP3 ADD AND DUP3 ADD DUP1 PUSH1 0x40 MSTORE POP DUP2 ADD SWAP1 PUSH2 0x1824 SWAP2 SWAP1 PUSH2 0x3182 JUMP JUMPDEST PUSH1 0x1 SLOAD PUSH1 0x40 MLOAD PUSH4 0x6338C89F PUSH1 0xE0 SHL DUP2 MSTORE PUSH1 0x4 DUP2 ADD DUP10 SWAP1 MSTORE SWAP2 SWAP3 POP PUSH1 0x0 SWAP2 PUSH1 0x1 PUSH1 0x1 PUSH1 0xA0 SHL SUB SWAP1 SWAP2 AND SWAP1 PUSH4 0x6338C89F SWAP1 PUSH1 0x24 ADD PUSH1 0x0 PUSH1 0x40 MLOAD DUP1 DUP4 SUB DUP2 DUP7 GAS STATICCALL ISZERO DUP1 ISZERO PUSH2 0x1873 JUMPI RETURNDATASIZE PUSH1 0x0 DUP1 RETURNDATACOPY RETURNDATASIZE PUSH1 0x0 REVERT JUMPDEST POP POP POP POP PUSH1 0x40 MLOAD RETURNDATASIZE PUSH1 0x0 DUP3 RETURNDATACOPY PUSH1 0x1F RETURNDATASIZE SWAP1 DUP2 ADD PUSH1 0x1F NOT AND DUP3 ADD PUSH1 0x40 MSTORE PUSH2 0xBD6 SWAP2 SWAP1 DUP2 ADD SWAP1 PUSH2 0x31C9 JUMP JUMPDEST PUSH1 0x1 SLOAD PUSH1 0x40 MLOAD PUSH4 0xAB236DC9 PUSH1 0xE0 SHL DUP2 MSTORE PUSH1 0x0 SWAP2 PUSH1 0x1 PUSH1 0x1 PUSH1 0xA0 SHL SUB AND SWAP1 PUSH4 0xAB236DC9 SWAP1 PUSH2 0x18D4 SWAP1 DUP10 SWAP1 DUP10 SWAP1 DUP10 SWAP1 DUP10 SWAP1 DUP10 SWAP1 PUSH1 0x4 ADD PUSH2 0x33DD JUMP JUMPDEST PUSH1 0x20 PUSH1 0x40 MLOAD DUP1 DUP4 SUB DUP2 PUSH1 0x0 DUP8 GAS CALL ISZERO DUP1 ISZERO PUSH2 0x18F3 JUMPI RETURNDATASIZE PUSH1 0x0 DUP1 RETURNDATACOPY RETURNDATASIZE PUSH1 0x0 REVERT JUMPDEST POP POP POP POP PUSH1 0x40 MLOAD RETURNDATASIZE PUSH1 0x1F NOT PUSH1 0x1F DUP3 ADD AND DUP3 ADD DUP1 PUSH1 0x40 MSTORE POP DUP2 ADD SWAP1 PUSH2 0x1917 SWAP2 SWAP1 PUSH2 0x3182 JUMP JUMPDEST SWAP1 POP DUP2 DUP7 DUP3 PUSH32 0x289EC7E79A70DB9E5A21C4AA4BC91DE5745406FDC5FA52A91224E0F0E8D674AF PUSH1 0x40 MLOAD PUSH1 0x40 MLOAD DUP1 SWAP2 SUB SWAP1 LOG4 POP POP POP POP POP POP JUMP JUMPDEST PUSH1 0x4 SLOAD PUSH1 0x1 PUSH1 0x1 PUSH1 0xA0 SHL SUB AND CALLER EQ PUSH2 0x197A JUMPI PUSH1 0x40 MLOAD PUSH3 0x461BCD PUSH1 0xE5 SHL DUP2 MSTORE PUSH1 0x4 ADD PUSH2 0x5B8 SWAP1 PUSH2 0x2F31 JUMP JUMPDEST PUSH1 0x3 SLOAD PUSH1 0x40 MLOAD PUSH4 0xBF452C59 PUSH1 0xE0 SHL DUP2 MSTORE PUSH1 0x4 DUP2 ADD DUP6 SWAP1 MSTORE PUSH1 0x24 DUP2 ADD DUP5 SWAP1 MSTORE PUSH1 0x44 DUP2 ADD DUP4 SWAP1 MSTORE PUSH1 0x1 PUSH1 0x1 PUSH1 0xA0 SHL SUB SWAP1 SWAP2 AND SWAP1 PUSH4 0xBF452C59 SWAP1 PUSH1 0x64 ADD PUSH1 0x0 PUSH1 0x40 MLOAD DUP1 DUP4 SUB DUP2 PUSH1 0x0 DUP8 DUP1 EXTCODESIZE ISZERO DUP1 ISZERO PUSH2 0x19CE JUMPI PUSH1 0x0 DUP1 REVERT JUMPDEST POP GAS CALL ISZERO DUP1 ISZERO PUSH2 0x19E2 JUMPI RETURNDATASIZE PUSH1 0x0 DUP1 RETURNDATACOPY RETURNDATASIZE PUSH1 0x0 REVERT JUMPDEST POP POP POP POP DUP1 DUP3 DUP5 PUSH32 0x3C00A957D8B0ED88BF0AD892175A6F1B9FA89360787136E23A2FFBC5DC0BAAF9 PUSH1 0x40 MLOAD PUSH1 0x40 MLOAD DUP1 SWAP2 SUB SWAP1 LOG4 POP POP POP JUMP JUMPDEST PUSH1 0x1 SLOAD PUSH1 0x40 MLOAD PUSH4 0xC010F05 PUSH1 0xE4 SHL DUP2 MSTORE PUSH1 0x1 PUSH1 0x1 PUSH1 0xA0 SHL SUB SWAP1 SWAP2 AND SWAP1 PUSH4 0xC010F050 SWAP1 PUSH2 0x7F8 SWAP1 DUP8 SWAP1 DUP8 SWAP1 DUP8 SWAP1 DUP8 SWAP1 PUSH1 0x4 ADD PUSH2 0x342F JUMP JUMPDEST PUSH1 0x4 SLOAD PUSH1 0x1 PUSH1 0x1 PUSH1 0xA0 SHL SUB AND CALLER EQ PUSH2 0x1A7A JUMPI PUSH1 0x40 MLOAD PUSH3 0x461BCD PUSH1 0xE5 SHL DUP2 MSTORE PUSH1 0x4 ADD PUSH2 0x5B8 SWAP1 PUSH2 0x2F31 JUMP JUMPDEST PUSH1 0x0 SLOAD PUSH1 0x40 MLOAD PUSH4 0xC29871D7 PUSH1 0xE0 SHL DUP2 MSTORE PUSH1 0x1 PUSH1 0x1 PUSH1 0xA0 SHL SUB SWAP1 SWAP2 AND SWAP1 PUSH4 0xC29871D7 SWAP1 PUSH2 0xCF0 SWAP1 DUP10 SWAP1 DUP10 SWAP1 DUP10 SWAP1 DUP10 SWAP1 DUP10 SWAP1 DUP10 SWAP1 PUSH1 0x4 ADD PUSH2 0x31FD JUMP JUMPDEST PUSH1 0x4 SLOAD PUSH1 0x1 PUSH1 0x1 PUSH1 0xA0 SHL SUB AND CALLER EQ PUSH2 0x1ADE JUMPI PUSH1 0x40 MLOAD PUSH3 0x461BCD PUSH1 0xE5 SHL DUP2 MSTORE PUSH1 0x4 ADD PUSH2 0x5B8 SWAP1 PUSH2 0x2F31 JUMP JUMPDEST PUSH1 0x0 DUP1 SLOAD PUSH1 0x40 MLOAD PUSH4 0x70CFA985 PUSH1 0xE0 SHL DUP2 MSTORE PUSH1 0x4 DUP2 ADD DUP10 SWAP1 MSTORE PUSH1 0x1 PUSH1 0x1 PUSH1 0xA0 SHL SUB SWAP1 SWAP2 AND SWAP1 PUSH4 0x70CFA985 SWAP1 PUSH1 0x24 ADD PUSH1 0x0 PUSH1 0x40 MLOAD DUP1 DUP4 SUB DUP2 DUP7 GAS STATICCALL ISZERO DUP1 ISZERO PUSH2 0x1B28 JUMPI RETURNDATASIZE PUSH1 0x0 DUP1 RETURNDATACOPY RETURNDATASIZE PUSH1 0x0 REVERT JUMPDEST POP POP POP POP PUSH1 0x40 MLOAD RETURNDATASIZE PUSH1 0x0 DUP3 RETURNDATACOPY PUSH1 0x1F RETURNDATASIZE SWAP1 DUP2 ADD PUSH1 0x1F NOT AND DUP3 ADD PUSH1 0x40 MSTORE PUSH2 0x1B50 SWAP2 SWAP1 DUP2 ADD SWAP1 PUSH2 0x309C JUMP JUMPDEST SWAP5 POP POP POP POP POP PUSH1 0x40 MLOAD PUSH1 0x20 ADD PUSH2 0x1B70 SWAP1 PUSH4 0x6D616C65 PUSH1 0xE0 SHL DUP2 MSTORE PUSH1 0x4 ADD SWAP1 JUMP JUMPDEST PUSH1 0x40 MLOAD PUSH1 0x20 DUP2 DUP4 SUB SUB DUP2 MSTORE SWAP1 PUSH1 0x40 MSTORE DUP1 MLOAD SWAP1 PUSH1 0x20 ADD KECCAK256 DUP2 PUSH1 0x40 MLOAD PUSH1 0x20 ADD PUSH2 0x1B97 SWAP2 SWAP1 PUSH2 0x32E8 JUMP JUMPDEST PUSH1 0x40 MLOAD PUSH1 0x20 DUP2 DUP4 SUB SUB DUP2 MSTORE SWAP1 PUSH1 0x40 MSTORE DUP1 MLOAD SWAP1 PUSH1 0x20 ADD KECCAK256 SUB PUSH2 0x1BC5 JUMPI PUSH1 0x1 PUSH1 0x5 SLOAD PUSH2 0x1BC1 SWAP2 SWAP1 PUSH2 0x346C JUMP JUMPDEST PUSH1 0x5 SSTORE JUMPDEST PUSH1 0x40 MLOAD PUSH6 0x66656D616C65 PUSH1 0xD0 SHL PUSH1 0x20 DUP3 ADD MSTORE PUSH1 0x26 ADD PUSH1 0x40 MLOAD PUSH1 0x20 DUP2 DUP4 SUB SUB DUP2 MSTORE SWAP1 PUSH1 0x40 MSTORE DUP1 MLOAD SWAP1 PUSH1 0x20 ADD KECCAK256 DUP2 PUSH1 0x40 MLOAD PUSH1 0x20 ADD PUSH2 0x1C01 SWAP2 SWAP1 PUSH2 0x32E8 JUMP JUMPDEST PUSH1 0x40 MLOAD PUSH1 0x20 DUP2 DUP4 SUB SUB DUP2 MSTORE SWAP1 PUSH1 0x40 MSTORE DUP1 MLOAD SWAP1 PUSH1 0x20 ADD KECCAK256 SUB PUSH2 0x1C2F JUMPI PUSH1 0x1 PUSH1 0x6 SLOAD PUSH2 0x1C2B SWAP2 SWAP1 PUSH2 0x346C JUMP JUMPDEST PUSH1 0x6 SSTORE JUMPDEST PUSH1 0x40 MLOAD PUSH4 0x6D616C65 PUSH1 0xE0 SHL PUSH1 0x20 DUP3 ADD MSTORE PUSH1 0x24 ADD PUSH1 0x40 MLOAD PUSH1 0x20 DUP2 DUP4 SUB SUB DUP2 MSTORE SWAP1 PUSH1 0x40 MSTORE DUP1 MLOAD SWAP1 PUSH1 0x20 ADD KECCAK256 DUP3 PUSH1 0x40 MLOAD PUSH1 0x20 ADD PUSH2 0x1C69 SWAP2 SWAP1 PUSH2 0x32E8 JUMP JUMPDEST PUSH1 0x40 MLOAD PUSH1 0x20 DUP2 DUP4 SUB SUB DUP2 MSTORE SWAP1 PUSH1 0x40 MSTORE DUP1 MLOAD SWAP1 PUSH1 0x20 ADD KECCAK256 SUB PUSH2 0x1C96 JUMPI PUSH1 0x5 SLOAD PUSH2 0x1C92 SWAP1 PUSH1 0x1 PUSH2 0x3483 JUMP JUMPDEST PUSH1 0x5 SSTORE JUMPDEST PUSH1 0x40 MLOAD PUSH6 0x66656D616C65 PUSH1 0xD0 SHL PUSH1 0x20 DUP3 ADD MSTORE PUSH1 0x26 ADD PUSH1 0x40 MLOAD PUSH1 0x20 DUP2 DUP4 SUB SUB DUP2 MSTORE SWAP1 PUSH1 0x40 MSTORE DUP1 MLOAD SWAP1 PUSH1 0x20 ADD KECCAK256 DUP3 PUSH1 0x40 MLOAD PUSH1 0x20 ADD PUSH2 0x1CD2 SWAP2 SWAP1 PUSH2 0x32E8 JUMP JUMPDEST PUSH1 0x40 MLOAD PUSH1 0x20 DUP2 DUP4 SUB SUB DUP2 MSTORE SWAP1 PUSH1 0x40 MSTORE DUP1 MLOAD SWAP1 PUSH1 0x20 ADD KECCAK256 SUB PUSH2 0x1CFF JUMPI PUSH1 0x6 SLOAD PUSH2 0x1CFB SWAP1 PUSH1 0x1 PUSH2 0x3483 JUMP JUMPDEST PUSH1 0x6 SSTORE JUMPDEST PUSH1 0x0 SLOAD PUSH1 0x40 MLOAD PUSH4 0xC42F4FF PUSH1 0xE4 SHL DUP2 MSTORE PUSH1 0x1 PUSH1 0x1 PUSH1 0xA0 SHL SUB SWAP1 SWAP2 AND SWAP1 PUSH4 0xC42F4FF0 SWAP1 PUSH2 0x1D39 SWAP1 DUP11 SWAP1 DUP11 SWAP1 DUP11 SWAP1 DUP11 SWAP1 DUP11 SWAP1 DUP11 SWAP1 PUSH1 0x4 ADD PUSH2 0x349B JUMP JUMPDEST PUSH1 0x0 PUSH1 0x40 MLOAD DUP1 DUP4 SUB DUP2 PUSH1 0x0 DUP8 DUP1 EXTCODESIZE ISZERO DUP1 ISZERO PUSH2 0x1D53 JUMPI PUSH1 0x0 DUP1 REVERT JUMPDEST POP GAS CALL ISZERO DUP1 ISZERO PUSH2 0x1D67 JUMPI RETURNDATASIZE PUSH1 0x0 DUP1 RETURNDATACOPY RETURNDATASIZE PUSH1 0x0 REVERT JUMPDEST POP POP POP POP POP POP POP POP POP POP POP JUMP JUMPDEST PUSH1 0x4 SLOAD PUSH1 0x60 SWAP1 DUP2 SWAP1 DUP2 SWAP1 PUSH1 0x1 PUSH1 0x1 PUSH1 0xA0 SHL SUB AND CALLER EQ PUSH2 0x1DA5 JUMPI PUSH1 0x40 MLOAD PUSH3 0x461BCD PUSH1 0xE5 SHL DUP2 MSTORE PUSH1 0x4 ADD PUSH2 0x5B8 SWAP1 PUSH2 0x2F31 JUMP JUMPDEST PUSH1 0x0 SLOAD PUSH1 0x40 MLOAD PUSH4 0x670A3447 PUSH1 0xE1 SHL DUP2 MSTORE PUSH1 0x4 DUP2 ADD DUP7 SWAP1 MSTORE PUSH1 0x1 PUSH1 0x1 PUSH1 0xA0 SHL SUB SWAP1 SWAP2 AND SWAP1 PUSH4 0xCE14688E SWAP1 PUSH1 0x24 ADD PUSH1 0x0 PUSH1 0x40 MLOAD DUP1 DUP4 SUB DUP2 DUP7 GAS STATICCALL ISZERO DUP1 ISZERO PUSH2 0x1DEE JUMPI RETURNDATASIZE PUSH1 0x0 DUP1 RETURNDATACOPY RETURNDATASIZE PUSH1 0x0 REVERT JUMPDEST POP POP POP POP PUSH1 0x40 MLOAD RETURNDATASIZE PUSH1 0x0 DUP3 RETURNDATACOPY PUSH1 0x1F RETURNDATASIZE SWAP1 DUP2 ADD PUSH1 0x1F NOT AND DUP3 ADD PUSH1 0x40 MSTORE PUSH2 0xA3F SWAP2 SWAP1 DUP2 ADD SWAP1 PUSH2 0x34F4 JUMP JUMPDEST PUSH1 0x4 SLOAD PUSH1 0x60 SWAP1 PUSH1 0x0 SWAP1 PUSH1 0x1 PUSH1 0x1 PUSH1 0xA0 SHL SUB AND CALLER EQ PUSH2 0x1E46 JUMPI PUSH1 0x40 MLOAD PUSH3 0x461BCD PUSH1 0xE5 SHL DUP2 MSTORE PUSH1 0x4 ADD PUSH2 0x5B8 SWAP1 PUSH2 0x2F31 JUMP JUMPDEST PUSH1 0x1 SLOAD PUSH1 0x40 DUP1 MLOAD PUSH4 0xF57C6491 PUSH1 0xE0 SHL DUP2 MSTORE SWAP1 MLOAD PUSH1 0x0 SWAP3 PUSH1 0x1 PUSH1 0x1 PUSH1 0xA0 SHL SUB AND SWAP2 PUSH4 0xF57C6491 SWAP2 PUSH1 0x4 DUP1 DUP4 ADD SWAP3 PUSH1 0x20 SWAP3 SWAP2 SWAP1 DUP3 SWAP1 SUB ADD DUP2 DUP7 GAS STATICCALL ISZERO DUP1 ISZERO PUSH2 0x1E90 JUMPI RETURNDATASIZE PUSH1 0x0 DUP1 RETURNDATACOPY RETURNDATASIZE PUSH1 0x0 REVERT JUMPDEST POP POP POP POP PUSH1 0x40 MLOAD RETURNDATASIZE PUSH1 0x1F NOT PUSH1 0x1F DUP3 ADD AND DUP3 ADD DUP1 PUSH1 0x40 MSTORE POP DUP2 ADD SWAP1 PUSH2 0x1EB4 SWAP2 SWAP1 PUSH2 0x3182 JUMP JUMPDEST SWAP1 POP DUP1 JUMPDEST DUP1 ISZERO PUSH2 0x15AB JUMPI PUSH1 0x1 SLOAD PUSH1 0x40 MLOAD PUSH4 0x69D5213B PUSH1 0xE0 SHL DUP2 MSTORE PUSH1 0x4 DUP2 ADD DUP4 SWAP1 MSTORE DUP7 SWAP2 PUSH1 0x1 PUSH1 0x1 PUSH1 0xA0 SHL SUB AND SWAP1 PUSH4 0x69D5213B SWAP1 PUSH1 0x24 ADD PUSH1 0x20 PUSH1 0x40 MLOAD DUP1 DUP4 SUB DUP2 DUP7 GAS STATICCALL ISZERO DUP1 ISZERO PUSH2 0x1F07 JUMPI RETURNDATASIZE PUSH1 0x0 DUP1 RETURNDATACOPY RETURNDATASIZE PUSH1 0x0 REVERT JUMPDEST POP POP POP POP PUSH1 0x40 MLOAD RETURNDATASIZE PUSH1 0x1F NOT PUSH1 0x1F DUP3 ADD AND DUP3 ADD DUP1 PUSH1 0x40 MSTORE POP DUP2 ADD SWAP1 PUSH2 0x1F2B SWAP2 SWAP1 PUSH2 0x3182 JUMP JUMPDEST EQ DUP1 ISZERO PUSH2 0x1FDD JUMPI POP PUSH1 0x40 DUP1 MLOAD PUSH1 0x0 DUP2 MSTORE PUSH1 0x20 DUP2 ADD SWAP2 DUP3 SWAP1 MSTORE DUP1 MLOAD DUP3 KECCAK256 PUSH1 0x1 SLOAD PUSH4 0x61590D55 PUSH1 0xE0 SHL SWAP1 SWAP4 MSTORE PUSH1 0x24 DUP3 ADD DUP5 SWAP1 MSTORE SWAP2 PUSH1 0x1 PUSH1 0x1 PUSH1 0xA0 SHL SUB AND SWAP1 PUSH4 0x61590D55 SWAP1 PUSH1 0x44 ADD PUSH1 0x0 PUSH1 0x40 MLOAD DUP1 DUP4 SUB DUP2 DUP7 GAS STATICCALL ISZERO DUP1 ISZERO PUSH2 0x1F8D JUMPI RETURNDATASIZE PUSH1 0x0 DUP1 RETURNDATACOPY RETURNDATASIZE PUSH1 0x0 REVERT JUMPDEST POP POP POP POP PUSH1 0x40 MLOAD RETURNDATASIZE PUSH1 0x0 DUP3 RETURNDATACOPY PUSH1 0x1F RETURNDATASIZE SWAP1 DUP2 ADD PUSH1 0x1F NOT AND DUP3 ADD PUSH1 0x40 MSTORE PUSH2 0x1FB5 SWAP2 SWAP1 DUP2 ADD SWAP1 PUSH2 0x31C9 JUMP JUMPDEST PUSH1 0x40 MLOAD PUSH1 0x20 ADD PUSH2 0x1FC5 SWAP2 SWAP1 PUSH2 0x32E8 JUMP JUMPDEST PUSH1 0x40 MLOAD PUSH1 0x20 DUP2 DUP4 SUB SUB DUP2 MSTORE SWAP1 PUSH1 0x40 MSTORE DUP1 MLOAD SWAP1 PUSH1 0x20 ADD KECCAK256 EQ JUMPDEST ISZERO PUSH2 0x2013 JUMPI PUSH1 0x1 SLOAD PUSH1 0x40 MLOAD PUSH4 0x4273DB49 PUSH1 0xE1 SHL DUP2 MSTORE PUSH1 0x4 DUP2 ADD DUP4 SWAP1 MSTORE PUSH1 0x1 PUSH1 0x1 PUSH1 0xA0 SHL SUB SWAP1 SWAP2 AND SWAP1 PUSH4 0x84E7B692 SWAP1 PUSH1 0x24 ADD PUSH2 0x14DC JUMP JUMPDEST DUP1 PUSH2 0x201D DUP2 PUSH2 0x331A JUMP JUMPDEST SWAP2 POP POP PUSH2 0x1EB8 JUMP JUMPDEST PUSH1 0x4 SLOAD PUSH1 0x1 PUSH1 0x1 PUSH1 0xA0 SHL SUB AND CALLER EQ PUSH2 0x204F JUMPI PUSH1 0x40 MLOAD PUSH3 0x461BCD PUSH1 0xE5 SHL DUP2 MSTORE PUSH1 0x4 ADD PUSH2 0x5B8 SWAP1 PUSH2 0x2F31 JUMP JUMPDEST PUSH1 0x0 SLOAD PUSH1 0x40 MLOAD PUSH4 0xD4CB7CF3 PUSH1 0xE0 SHL DUP2 MSTORE PUSH1 0x1 PUSH1 0x1 PUSH1 0xA0 SHL SUB SWAP1 SWAP2 AND SWAP1 PUSH4 0xD4CB7CF3 SWAP1 PUSH2 0x1D39 SWAP1 DUP11 SWAP1 DUP11 SWAP1 DUP11 SWAP1 DUP11 SWAP1 DUP11 SWAP1 DUP11 SWAP1 DUP11 SWAP1 PUSH1 0x4 ADD PUSH2 0x3571 JUMP JUMPDEST PUSH1 0x4 SLOAD PUSH1 0x1 PUSH1 0x1 PUSH1 0xA0 SHL SUB AND CALLER EQ PUSH2 0x20B5 JUMPI PUSH1 0x40 MLOAD PUSH3 0x461BCD PUSH1 0xE5 SHL DUP2 MSTORE PUSH1 0x4 ADD PUSH2 0x5B8 SWAP1 PUSH2 0x2F31 JUMP JUMPDEST PUSH1 0x0 PUSH2 0x20BF PUSH2 0x890 JUMP JUMPDEST SWAP1 POP PUSH1 0x1 JUMPDEST DUP2 DUP2 GT PUSH2 0x21E7 JUMPI PUSH1 0x0 DUP1 SLOAD PUSH1 0x40 MLOAD PUSH4 0xC3A356B PUSH1 0xE1 SHL DUP2 MSTORE PUSH1 0x4 DUP2 ADD DUP5 SWAP1 MSTORE DUP3 SWAP2 DUP3 SWAP2 PUSH1 0x1 PUSH1 0x1 PUSH1 0xA0 SHL SUB SWAP1 SWAP2 AND SWAP1 PUSH4 0x18746AD6 SWAP1 PUSH1 0x24 ADD PUSH1 0x0 PUSH1 0x40 MLOAD DUP1 DUP4 SUB DUP2 DUP7 GAS STATICCALL ISZERO DUP1 ISZERO PUSH2 0x2119 JUMPI RETURNDATASIZE PUSH1 0x0 DUP1 RETURNDATACOPY RETURNDATASIZE PUSH1 0x0 REVERT JUMPDEST POP POP POP POP PUSH1 0x40 MLOAD RETURNDATASIZE PUSH1 0x0 DUP3 RETURNDATACOPY PUSH1 0x1F RETURNDATASIZE SWAP1 DUP2 ADD PUSH1 0x1F NOT AND DUP3 ADD PUSH1 0x40 MSTORE PUSH2 0x2141 SWAP2 SWAP1 DUP2 ADD SWAP1 PUSH2 0x3377 JUMP JUMPDEST POP SWAP4 POP SWAP4 POP POP SWAP3 POP DUP7 PUSH1 0x40 MLOAD PUSH1 0x20 ADD PUSH2 0x215A SWAP2 SWAP1 PUSH2 0x32E8 JUMP JUMPDEST PUSH1 0x40 MLOAD PUSH1 0x20 DUP2 DUP4 SUB SUB DUP2 MSTORE SWAP1 PUSH1 0x40 MSTORE DUP1 MLOAD SWAP1 PUSH1 0x20 ADD KECCAK256 DUP4 PUSH1 0x40 MLOAD PUSH1 0x20 ADD PUSH2 0x2181 SWAP2 SWAP1 PUSH2 0x32E8 JUMP JUMPDEST PUSH1 0x40 MLOAD PUSH1 0x20 DUP2 DUP4 SUB SUB DUP2 MSTORE SWAP1 PUSH1 0x40 MSTORE DUP1 MLOAD SWAP1 PUSH1 0x20 ADD KECCAK256 SUB PUSH2 0x21D1 JUMPI DUP6 DUP2 SUB PUSH2 0x21D1 JUMPI PUSH1 0x40 MLOAD DUP3 SWAP1 DUP6 SWAP1 PUSH32 0x78A5F595BAA9B25B7A730211C5CF18E46D8C54F6CD7558AB36FF8EF5CF76D19E SWAP1 PUSH1 0x0 SWAP1 LOG3 JUMPDEST POP POP POP DUP1 DUP1 PUSH2 0x21DF SWAP1 PUSH2 0x35FA JUMP JUMPDEST SWAP2 POP POP PUSH2 0x20C4 JUMP JUMPDEST POP POP POP POP JUMP JUMPDEST PUSH1 0x4 SLOAD PUSH1 0x1 PUSH1 0x1 PUSH1 0xA0 SHL SUB AND CALLER EQ PUSH2 0x2217 JUMPI PUSH1 0x40 MLOAD PUSH3 0x461BCD PUSH1 0xE5 SHL DUP2 MSTORE PUSH1 0x4 ADD PUSH2 0x5B8 SWAP1 PUSH2 0x2F31 JUMP JUMPDEST PUSH1 0x0 DUP1 SLOAD PUSH1 0x40 MLOAD PUSH4 0x36075DC1 PUSH1 0xE2 SHL DUP2 MSTORE PUSH1 0x1 PUSH1 0x1 PUSH1 0xA0 SHL SUB SWAP1 SWAP2 AND SWAP1 PUSH4 0xD81D7704 SWAP1 PUSH2 0x2250 SWAP1 DUP10 SWAP1 DUP10 SWAP1 DUP10 SWAP1 DUP10 SWAP1 DUP10 SWAP1 PUSH1 0x4 ADD PUSH2 0x2A52 JUMP JUMPDEST PUSH1 0x20 PUSH1 0x40 MLOAD DUP1 DUP4 SUB DUP2 PUSH1 0x0 DUP8 GAS CALL ISZERO DUP1 ISZERO PUSH2 0x226F JUMPI RETURNDATASIZE PUSH1 0x0 DUP1 RETURNDATACOPY RETURNDATASIZE PUSH1 0x0 REVERT JUMPDEST POP POP POP POP PUSH1 0x40 MLOAD RETURNDATASIZE PUSH1 0x1F NOT PUSH1 0x1F DUP3 ADD AND DUP3 ADD DUP1 PUSH1 0x40 MSTORE POP DUP2 ADD SWAP1 PUSH2 0x2293 SWAP2 SWAP1 PUSH2 0x3182 JUMP JUMPDEST SWAP1 POP DUP3 DUP5 DUP3 PUSH32 0x8914BE557F12C8B4EC80D2DE1BBD0CE352F4E74DAE0FC548A0FD56AC07B66044 PUSH1 0x40 MLOAD PUSH1 0x40 MLOAD DUP1 SWAP2 SUB SWAP1 LOG4 POP POP POP POP POP POP JUMP JUMPDEST PUSH1 0x1 SLOAD PUSH1 0x40 MLOAD PUSH4 0xD83463C9 PUSH1 0xE0 SHL DUP2 MSTORE PUSH1 0x0 SWAP2 PUSH1 0x1 PUSH1 0x1 PUSH1 0xA0 SHL SUB AND SWAP1 PUSH4 0xD83463C9 SWAP1 PUSH2 0x2301 SWAP1 DUP8 SWAP1 DUP8 SWAP1 DUP8 SWAP1 PUSH1 0x4 ADD PUSH2 0x3613 JUMP JUMPDEST PUSH1 0x20 PUSH1 0x40 MLOAD DUP1 DUP4 SUB DUP2 PUSH1 0x0 DUP8 GAS CALL ISZERO DUP1 ISZERO PUSH2 0x2320 JUMPI RETURNDATASIZE PUSH1 0x0 DUP1 RETURNDATACOPY RETURNDATASIZE PUSH1 0x0 REVERT JUMPDEST POP POP POP POP PUSH1 0x40 MLOAD RETURNDATASIZE PUSH1 0x1F NOT PUSH1 0x1F DUP3 ADD AND DUP3 ADD DUP1 PUSH1 0x40 MSTORE POP DUP2 ADD SWAP1 PUSH2 0x2344 SWAP2 SWAP1 PUSH2 0x3182 JUMP JUMPDEST SWAP1 POP DUP2 DUP2 DUP6 PUSH32 0xAD6D3ADECC8B5201D9897B24894EE0092797E79BE758B09F0DF6EECB2D105B9 PUSH1 0x40 MLOAD PUSH1 0x40 MLOAD DUP1 SWAP2 SUB SWAP1 LOG4 POP POP POP POP JUMP JUMPDEST PUSH1 0x4 SLOAD PUSH1 0x60 SWAP1 DUP2 SWAP1 DUP2 SWAP1 DUP2 SWAP1 DUP2 SWAP1 DUP2 SWAP1 PUSH1 0x1 PUSH1 0x1 PUSH1 0xA0 SHL SUB AND CALLER EQ PUSH2 0x23B2 JUMPI PUSH1 0x40 MLOAD PUSH3 0x461BCD PUSH1 0xE5 SHL DUP2 MSTORE PUSH1 0x4 ADD PUSH2 0x5B8 SWAP1 PUSH2 0x2F31 JUMP JUMPDEST PUSH1 0x0 SLOAD PUSH1 0x40 MLOAD PUSH4 0x10EB2CF9 PUSH1 0xE3 SHL DUP2 MSTORE PUSH1 0x4 DUP2 ADD DUP10 SWAP1 MSTORE PUSH1 0x1 PUSH1 0x1 PUSH1 0xA0 SHL SUB SWAP1 SWAP2 AND SWAP1 PUSH4 0x875967C8 SWAP1 PUSH1 0x24 ADD PUSH1 0x0 PUSH1 0x40 MLOAD DUP1 DUP4 SUB DUP2 DUP7 GAS STATICCALL ISZERO DUP1 ISZERO PUSH2 0x23FB JUMPI RETURNDATASIZE PUSH1 0x0 DUP1 RETURNDATACOPY RETURNDATASIZE PUSH1 0x0 REVERT JUMPDEST POP POP POP POP PUSH1 0x40 MLOAD RETURNDATASIZE PUSH1 0x0 DUP3 RETURNDATACOPY PUSH1 0x1F RETURNDATASIZE SWAP1 DUP2 ADD PUSH1 0x1F NOT AND DUP3 ADD PUSH1 0x40 MSTORE PUSH2 0x2423 SWAP2 SWAP1 DUP2 ADD SWAP1 PUSH2 0x363C JUMP JUMPDEST SWAP5 SWAP13 SWAP4 SWAP12 POP SWAP2 SWAP10 POP SWAP8 POP SWAP6 POP SWAP1 SWAP4 POP SWAP2 POP POP JUMP JUMPDEST PUSH4 0x4E487B71 PUSH1 0xE0 SHL PUSH1 0x0 MSTORE PUSH1 0x41 PUSH1 0x4 MSTORE PUSH1 0x24 PUSH1 0x0 REVERT JUMPDEST PUSH1 0x40 MLOAD PUSH1 0x1F DUP3 ADD PUSH1 0x1F NOT AND DUP2 ADD PUSH1 0x1 PUSH1 0x1 PUSH1 0x40 SHL SUB DUP2 GT DUP3 DUP3 LT OR ISZERO PUSH2 0x2475 JUMPI PUSH2 0x2475 PUSH2 0x2437 JUMP JUMPDEST PUSH1 0x40 MSTORE SWAP2 SWAP1 POP JUMP JUMPDEST PUSH1 0x0 PUSH1 0x1 PUSH1 0x1 PUSH1 0x40 SHL SUB DUP3 GT ISZERO PUSH2 0x2496 JUMPI PUSH2 0x2496 PUSH2 0x2437 JUMP JUMPDEST POP PUSH1 0x1F ADD PUSH1 0x1F NOT AND PUSH1 0x20 ADD SWAP1 JUMP JUMPDEST PUSH1 0x0 DUP3 PUSH1 0x1F DUP4 ADD SLT PUSH2 0x24B5 JUMPI PUSH1 0x0 DUP1 REVERT JUMPDEST DUP2 CALLDATALOAD PUSH2 0x24C8 PUSH2 0x24C3 DUP3 PUSH2 0x247D JUMP JUMPDEST PUSH2 0x244D JUMP JUMPDEST DUP2 DUP2 MSTORE DUP5 PUSH1 0x20 DUP4 DUP7 ADD ADD GT ISZERO PUSH2 0x24DD JUMPI PUSH1 0x0 DUP1 REVERT JUMPDEST DUP2 PUSH1 0x20 DUP6 ADD PUSH1 0x20 DUP4 ADD CALLDATACOPY PUSH1 0x0 SWAP2 DUP2 ADD PUSH1 0x20 ADD SWAP2 SWAP1 SWAP2 MSTORE SWAP4 SWAP3 POP POP POP JUMP JUMPDEST PUSH1 0x0 DUP1 PUSH1 0x0 PUSH1 0x60 DUP5 DUP7 SUB SLT ISZERO PUSH2 0x250F JUMPI PUSH1 0x0 DUP1 REVERT JUMPDEST DUP4 CALLDATALOAD SWAP3 POP PUSH1 0x20 DUP5 ADD CALLDATALOAD PUSH1 0x1 PUSH1 0x1 PUSH1 0x40 SHL SUB DUP1 DUP3 GT ISZERO PUSH2 0x252D JUMPI PUSH1 0x0 DUP1 REVERT JUMPDEST PUSH2 0x2539 DUP8 DUP4 DUP9 ADD PUSH2 0x24A4 JUMP JUMPDEST SWAP4 POP PUSH1 0x40 DUP7 ADD CALLDATALOAD SWAP2 POP DUP1 DUP3 GT ISZERO PUSH2 0x254F JUMPI PUSH1 0x0 DUP1 REVERT JUMPDEST POP PUSH2 0x255C DUP7 DUP3 DUP8 ADD PUSH2 0x24A4 JUMP JUMPDEST SWAP2 POP POP SWAP3 POP SWAP3 POP SWAP3 JUMP JUMPDEST PUSH1 0x0 PUSH1 0x20 DUP3 DUP5 SUB SLT ISZERO PUSH2 0x2578 JUMPI PUSH1 0x0 DUP1 REVERT JUMPDEST POP CALLDATALOAD SWAP2 SWAP1 POP JUMP JUMPDEST PUSH1 0x0 JUMPDEST DUP4 DUP2 LT ISZERO PUSH2 0x259A JUMPI DUP2 DUP2 ADD MLOAD DUP4 DUP3 ADD MSTORE PUSH1 0x20 ADD PUSH2 0x2582 JUMP JUMPDEST DUP4 DUP2 GT ISZERO PUSH2 0x21E7 JUMPI POP POP PUSH1 0x0 SWAP2 ADD MSTORE JUMP JUMPDEST PUSH1 0x0 DUP2 MLOAD DUP1 DUP5 MSTORE PUSH2 0x25C3 DUP2 PUSH1 0x20 DUP7 ADD PUSH1 0x20 DUP7 ADD PUSH2 0x257F JUMP JUMPDEST PUSH1 0x1F ADD PUSH1 0x1F NOT AND SWAP3 SWAP1 SWAP3 ADD PUSH1 0x20 ADD SWAP3 SWAP2 POP POP JUMP JUMPDEST PUSH1 0xA0 DUP2 MSTORE PUSH1 0x0 PUSH2 0x25EA PUSH1 0xA0 DUP4 ADD DUP9 PUSH2 0x25AB JUMP JUMPDEST DUP3 DUP2 SUB PUSH1 0x20 DUP5 ADD MSTORE PUSH2 0x25FC DUP2 DUP9 PUSH2 0x25AB JUMP JUMPDEST SWAP1 POP DUP3 DUP2 SUB PUSH1 0x40 DUP5 ADD MSTORE PUSH2 0x2610 DUP2 DUP8 PUSH2 0x25AB JUMP JUMPDEST SWAP1 POP DUP3 DUP2 SUB PUSH1 0x60 DUP5 ADD MSTORE PUSH2 0x2624 DUP2 DUP7 PUSH2 0x25AB JUMP JUMPDEST SWAP1 POP DUP3 DUP2 SUB PUSH1 0x80 DUP5 ADD MSTORE PUSH2 0x2638 DUP2 DUP6 PUSH2 0x25AB JUMP JUMPDEST SWAP9 SWAP8 POP POP POP POP POP POP POP POP JUMP JUMPDEST PUSH1 0xA0 DUP2 MSTORE PUSH1 0x0 PUSH2 0x2657 PUSH1 0xA0 DUP4 ADD DUP9 PUSH2 0x25AB JUMP JUMPDEST DUP3 DUP2 SUB PUSH1 0x20 DUP5 ADD MSTORE PUSH2 0x2669 DUP2 DUP9 PUSH2 0x25AB JUMP JUMPDEST SWAP1 POP DUP3 DUP2 SUB PUSH1 0x40 DUP5 ADD MSTORE PUSH2 0x267D DUP2 DUP8 PUSH2 0x25AB JUMP JUMPDEST SWAP1 POP DUP5 PUSH1 0x60 DUP5 ADD MSTORE DUP3 DUP2 SUB PUSH1 0x80 DUP5 ADD MSTORE PUSH2 0x2638 DUP2 DUP6 PUSH2 0x25AB JUMP JUMPDEST PUSH1 0x0 DUP1 PUSH1 0x0 DUP1 PUSH1 0x80 DUP6 DUP8 SUB SLT ISZERO PUSH2 0x26AD JUMPI PUSH1 0x0 DUP1 REVERT JUMPDEST POP POP DUP3 CALLDATALOAD SWAP5 PUSH1 0x20 DUP5 ADD CALLDATALOAD SWAP5 POP PUSH1 0x40 DUP5 ADD CALLDATALOAD SWAP4 PUSH1 0x60 ADD CALLDATALOAD SWAP3 POP SWAP1 POP JUMP JUMPDEST PUSH1 0x0 DUP1 PUSH1 0x0 DUP1 PUSH1 0x80 DUP6 DUP8 SUB SLT ISZERO PUSH2 0x26DF JUMPI PUSH1 0x0 DUP1 REVERT JUMPDEST DUP5 CALLDATALOAD SWAP4 POP PUSH1 0x20 DUP6 ADD CALLDATALOAD PUSH1 0x1 PUSH1 0x1 PUSH1 0x40 SHL SUB DUP1 DUP3 GT ISZERO PUSH2 0x26FD JUMPI PUSH1 0x0 DUP1 REVERT JUMPDEST PUSH2 0x2709 DUP9 DUP4 DUP10 ADD PUSH2 0x24A4 JUMP JUMPDEST SWAP5 POP PUSH1 0x40 DUP8 ADD CALLDATALOAD SWAP2 POP DUP1 DUP3 GT ISZERO PUSH2 0x271F JUMPI PUSH1 0x0 DUP1 REVERT JUMPDEST PUSH2 0x272B DUP9 DUP4 DUP10 ADD PUSH2 0x24A4 JUMP JUMPDEST SWAP4 POP PUSH1 0x60 DUP8 ADD CALLDATALOAD SWAP2 POP DUP1 DUP3 GT ISZERO PUSH2 0x2741 JUMPI PUSH1 0x0 DUP1 REVERT JUMPDEST POP PUSH2 0x274E DUP8 DUP3 DUP9 ADD PUSH2 0x24A4 JUMP JUMPDEST SWAP2 POP POP SWAP3 SWAP6 SWAP2 SWAP5 POP SWAP3 POP JUMP JUMPDEST PUSH1 0x60 DUP2 MSTORE PUSH1 0x0 PUSH2 0x276D PUSH1 0x60 DUP4 ADD DUP7 PUSH2 0x25AB JUMP JUMPDEST PUSH1 0x20 DUP4 ADD SWAP5 SWAP1 SWAP5 MSTORE POP PUSH1 0x40 ADD MSTORE SWAP2 SWAP1 POP JUMP JUMPDEST PUSH1 0x0 DUP1 PUSH1 0x40 DUP4 DUP6 SUB SLT ISZERO PUSH2 0x2792 JUMPI PUSH1 0x0 DUP1 REVERT JUMPDEST POP POP DUP1 CALLDATALOAD SWAP3 PUSH1 0x20 SWAP1 SWAP2 ADD CALLDATALOAD SWAP2 POP JUMP JUMPDEST PUSH1 0x0 DUP1 PUSH1 0x0 DUP1 PUSH1 0x0 DUP1 PUSH1 0xC0 DUP8 DUP10 SUB SLT ISZERO PUSH2 0x27BA JUMPI PUSH1 0x0 DUP1 REVERT JUMPDEST DUP7 CALLDATALOAD SWAP6 POP PUSH1 0x20 DUP8 ADD CALLDATALOAD PUSH1 0x1 PUSH1 0x1 PUSH1 0x40 SHL SUB DUP1 DUP3 GT ISZERO PUSH2 0x27D8 JUMPI PUSH1 0x0 DUP1 REVERT JUMPDEST PUSH2 0x27E4 DUP11 DUP4 DUP12 ADD PUSH2 0x24A4 JUMP JUMPDEST SWAP7 POP PUSH1 0x40 DUP10 ADD CALLDATALOAD SWAP2 POP DUP1 DUP3 GT ISZERO PUSH2 0x27FA JUMPI PUSH1 0x0 DUP1 REVERT JUMPDEST PUSH2 0x2806 DUP11 DUP4 DUP12 ADD PUSH2 0x24A4 JUMP JUMPDEST SWAP6 POP PUSH1 0x60 DUP10 ADD CALLDATALOAD SWAP2 POP DUP1 DUP3 GT ISZERO PUSH2 0x281C JUMPI PUSH1 0x0 DUP1 REVERT JUMPDEST PUSH2 0x2828 DUP11 DUP4 DUP12 ADD PUSH2 0x24A4 JUMP JUMPDEST SWAP5 POP PUSH1 0x80 DUP10 ADD CALLDATALOAD SWAP2 POP DUP1 DUP3 GT ISZERO PUSH2 0x283E JUMPI PUSH1 0x0 DUP1 REVERT JUMPDEST PUSH2 0x284A DUP11 DUP4 DUP12 ADD PUSH2 0x24A4 JUMP JUMPDEST SWAP4 POP PUSH1 0xA0 DUP10 ADD CALLDATALOAD SWAP2 POP DUP1 DUP3 GT ISZERO PUSH2 0x2860 JUMPI PUSH1 0x0 DUP1 REVERT JUMPDEST POP PUSH2 0x286D DUP10 DUP3 DUP11 ADD PUSH2 0x24A4 JUMP JUMPDEST SWAP2 POP POP SWAP3 SWAP6 POP SWAP3 SWAP6 POP SWAP3 SWAP6 JUMP JUMPDEST PUSH1 0x0 DUP1 PUSH1 0x0 DUP1 PUSH1 0x0 PUSH1 0xA0 DUP7 DUP9 SUB SLT ISZERO PUSH2 0x2892 JUMPI PUSH1 0x0 DUP1 REVERT JUMPDEST DUP6 CALLDATALOAD SWAP5 POP PUSH1 0x20 DUP7 ADD CALLDATALOAD PUSH1 0x1 PUSH1 0x1 PUSH1 0x40 SHL SUB DUP1 DUP3 GT ISZERO PUSH2 0x28B0 JUMPI PUSH1 0x0 DUP1 REVERT JUMPDEST PUSH2 0x28BC DUP10 DUP4 DUP11 ADD PUSH2 0x24A4 JUMP JUMPDEST SWAP6 POP PUSH1 0x40 DUP9 ADD CALLDATALOAD SWAP5 POP PUSH1 0x60 DUP9 ADD CALLDATALOAD SWAP4 POP PUSH1 0x80 DUP9 ADD CALLDATALOAD SWAP2 POP DUP1 DUP3 GT ISZERO PUSH2 0x28E0 JUMPI PUSH1 0x0 DUP1 REVERT JUMPDEST POP PUSH2 0x28ED DUP9 DUP3 DUP10 ADD PUSH2 0x24A4 JUMP JUMPDEST SWAP2 POP POP SWAP3 SWAP6 POP SWAP3 SWAP6 SWAP1 SWAP4 POP JUMP JUMPDEST PUSH1 0xA0 DUP2 MSTORE PUSH1 0x0 PUSH2 0x290D PUSH1 0xA0 DUP4 ADD DUP9 PUSH2 0x25AB JUMP JUMPDEST DUP3 DUP2 SUB PUSH1 0x20 DUP5 ADD MSTORE PUSH2 0x291F DUP2 DUP9 PUSH2 0x25AB JUMP JUMPDEST SWAP1 POP DUP3 DUP2 SUB PUSH1 0x40 DUP5 ADD MSTORE PUSH2 0x2933 DUP2 DUP8 PUSH2 0x25AB JUMP JUMPDEST PUSH1 0x60 DUP5 ADD SWAP6 SWAP1 SWAP6 MSTORE POP POP PUSH1 0x80 ADD MSTORE SWAP4 SWAP3 POP POP POP JUMP JUMPDEST PUSH1 0x40 DUP2 MSTORE PUSH1 0x0 PUSH2 0x295B PUSH1 0x40 DUP4 ADD DUP6 PUSH2 0x25AB JUMP JUMPDEST DUP3 DUP2 SUB PUSH1 0x20 DUP5 ADD MSTORE PUSH2 0x296D DUP2 DUP6 PUSH2 0x25AB JUMP JUMPDEST SWAP6 SWAP5 POP POP POP POP POP JUMP JUMPDEST PUSH1 0x0 DUP1 PUSH1 0x0 DUP1 PUSH1 0x80 DUP6 DUP8 SUB SLT ISZERO PUSH2 0x298C JUMPI PUSH1 0x0 DUP1 REVERT JUMPDEST DUP5 CALLDATALOAD SWAP4 POP PUSH1 0x20 DUP6 ADD CALLDATALOAD SWAP3 POP PUSH1 0x40 DUP6 ADD CALLDATALOAD PUSH1 0x1 PUSH1 0x1 PUSH1 0x40 SHL SUB DUP2 GT ISZERO PUSH2 0x29B0 JUMPI PUSH1 0x0 DUP1 REVERT JUMPDEST PUSH2 0x29BC DUP8 DUP3 DUP9 ADD PUSH2 0x24A4 JUMP JUMPDEST SWAP5 SWAP8 SWAP4 SWAP7 POP SWAP4 SWAP5 PUSH1 0x60 ADD CALLDATALOAD SWAP4 POP POP POP JUMP JUMPDEST PUSH1 0x40 DUP2 MSTORE PUSH1 0x0 PUSH2 0x29E0 PUSH1 0x40 DUP4 ADD DUP6 PUSH2 0x25AB JUMP JUMPDEST SWAP1 POP DUP3 PUSH1 0x20 DUP4 ADD MSTORE SWAP4 SWAP3 POP POP POP JUMP JUMPDEST PUSH1 0x0 DUP1 PUSH1 0x40 DUP4 DUP6 SUB SLT ISZERO PUSH2 0x2A02 JUMPI PUSH1 0x0 DUP1 REVERT JUMPDEST DUP3 CALLDATALOAD PUSH1 0x1 PUSH1 0x1 PUSH1 0x40 SHL SUB DUP1 DUP3 GT ISZERO PUSH2 0x2A19 JUMPI PUSH1 0x0 DUP1 REVERT JUMPDEST PUSH2 0x2A25 DUP7 DUP4 DUP8 ADD PUSH2 0x24A4 JUMP JUMPDEST SWAP4 POP PUSH1 0x20 DUP6 ADD CALLDATALOAD SWAP2 POP DUP1 DUP3 GT ISZERO PUSH2 0x2A3B JUMPI PUSH1 0x0 DUP1 REVERT JUMPDEST POP PUSH2 0x2A48 DUP6 DUP3 DUP7 ADD PUSH2 0x24A4 JUMP JUMPDEST SWAP2 POP POP SWAP3 POP SWAP3 SWAP1 POP JUMP JUMPDEST PUSH1 0xA0 DUP2 MSTORE PUSH1 0x0 PUSH2 0x2A65 PUSH1 0xA0 DUP4 ADD DUP9 PUSH2 0x25AB JUMP JUMPDEST DUP7 PUSH1 0x20 DUP5 ADD MSTORE DUP6 PUSH1 0x40 DUP5 ADD MSTORE DUP5 PUSH1 0x60 DUP5 ADD MSTORE DUP3 DUP2 SUB PUSH1 0x80 DUP5 ADD MSTORE PUSH2 0x2638 DUP2 DUP6 PUSH2 0x25AB JUMP JUMPDEST DUP4 DUP2 MSTORE DUP3 PUSH1 0x20 DUP3 ADD MSTORE PUSH1 0x60 PUSH1 0x40 DUP3 ADD MSTORE PUSH1 0x0 PUSH2 0x296D PUSH1 0x60 DUP4 ADD DUP5 PUSH2 0x25AB JUMP JUMPDEST PUSH1 0x0 DUP1 PUSH1 0x0 DUP1 PUSH1 0x0 PUSH1 0xA0 DUP7 DUP9 SUB SLT ISZERO PUSH2 0x2AC0 JUMPI PUSH1 0x0 DUP1 REVERT JUMPDEST DUP6 CALLDATALOAD SWAP5 POP PUSH1 0x20 DUP7 ADD CALLDATALOAD PUSH1 0x1 PUSH1 0x1 PUSH1 0x40 SHL SUB DUP1 DUP3 GT ISZERO PUSH2 0x2ADE JUMPI PUSH1 0x0 DUP1 REVERT JUMPDEST PUSH2 0x2AEA DUP10 DUP4 DUP11 ADD PUSH2 0x24A4 JUMP JUMPDEST SWAP6 POP PUSH1 0x40 DUP9 ADD CALLDATALOAD SWAP2 POP DUP1 DUP3 GT ISZERO PUSH2 0x2B00 JUMPI PUSH1 0x0 DUP1 REVERT JUMPDEST PUSH2 0x2B0C DUP10 DUP4 DUP11 ADD PUSH2 0x24A4 JUMP JUMPDEST SWAP5 POP PUSH1 0x60 DUP9 ADD CALLDATALOAD SWAP2 POP DUP1 DUP3 GT ISZERO PUSH2 0x2B22 JUMPI PUSH1 0x0 DUP1 REVERT JUMPDEST POP PUSH2 0x2B2F DUP9 DUP3 DUP10 ADD PUSH2 0x24A4 JUMP JUMPDEST SWAP6 SWAP9 SWAP5 SWAP8 POP SWAP3 SWAP6 PUSH1 0x80 ADD CALLDATALOAD SWAP4 SWAP3 POP POP POP JUMP JUMPDEST PUSH1 0x0 DUP1 PUSH1 0x0 PUSH1 0x60 DUP5 DUP7 SUB SLT ISZERO PUSH2 0x2B56 JUMPI PUSH1 0x0 DUP1 REVERT JUMPDEST POP POP DUP2 CALLDATALOAD SWAP4 PUSH1 0x20 DUP4 ADD CALLDATALOAD SWAP4 POP PUSH1 0x40 SWAP1 SWAP3 ADD CALLDATALOAD SWAP2 SWAP1 POP JUMP JUMPDEST PUSH1 0x0 DUP1 PUSH1 0x0 DUP1 PUSH1 0x80 DUP6 DUP8 SUB SLT ISZERO PUSH2 0x2B83 JUMPI PUSH1 0x0 DUP1 REVERT JUMPDEST DUP5 CALLDATALOAD SWAP4 POP PUSH1 0x20 DUP6 ADD CALLDATALOAD PUSH1 0x1 PUSH1 0x1 PUSH1 0x40 SHL SUB DUP1 DUP3 GT ISZERO PUSH2 0x2BA1 JUMPI PUSH1 0x0 DUP1 REVERT JUMPDEST PUSH2 0x2BAD DUP9 DUP4 DUP10 ADD PUSH2 0x24A4 JUMP JUMPDEST SWAP5 POP PUSH1 0x40 DUP8 ADD CALLDATALOAD SWAP2 POP DUP1 DUP3 GT ISZERO PUSH2 0x2BC3 JUMPI PUSH1 0x0 DUP1 REVERT JUMPDEST POP PUSH2 0x29BC DUP8 DUP3 DUP9 ADD PUSH2 0x24A4 JUMP JUMPDEST PUSH1 0x0 DUP1 PUSH1 0x0 DUP1 PUSH1 0x0 DUP1 PUSH1 0xC0 DUP8 DUP10 SUB SLT ISZERO PUSH2 0x2BE9 JUMPI PUSH1 0x0 DUP1 REVERT JUMPDEST DUP7 CALLDATALOAD SWAP6 POP PUSH1 0x20 DUP8 ADD CALLDATALOAD PUSH1 0x1 PUSH1 0x1 PUSH1 0x40 SHL SUB DUP1 DUP3 GT ISZERO PUSH2 0x2C07 JUMPI PUSH1 0x0 DUP1 REVERT JUMPDEST PUSH2 0x2C13 DUP11 DUP4 DUP12 ADD PUSH2 0x24A4 JUMP JUMPDEST SWAP7 POP PUSH1 0x40 DUP10 ADD CALLDATALOAD SWAP2 POP DUP1 DUP3 GT ISZERO PUSH2 0x2C29 JUMPI PUSH1 0x0 DUP1 REVERT JUMPDEST PUSH2 0x2C35 DUP11 DUP4 DUP12 ADD PUSH2 0x24A4 JUMP JUMPDEST SWAP6 POP PUSH1 0x60 DUP10 ADD CALLDATALOAD SWAP2 POP DUP1 DUP3 GT ISZERO PUSH2 0x2C4B JUMPI PUSH1 0x0 DUP1 REVERT JUMPDEST PUSH2 0x2C57 DUP11 DUP4 DUP12 ADD PUSH2 0x24A4 JUMP JUMPDEST SWAP5 POP PUSH1 0x80 DUP10 ADD CALLDATALOAD SWAP4 POP PUSH1 0xA0 DUP10 ADD CALLDATALOAD SWAP2 POP DUP1 DUP3 GT ISZERO PUSH2 0x2860 JUMPI PUSH1 0x0 DUP1 REVERT JUMPDEST PUSH1 0x60 DUP2 MSTORE PUSH1 0x0 PUSH2 0x2C87 PUSH1 0x60 DUP4 ADD DUP7 PUSH2 0x25AB JUMP JUMPDEST DUP3 DUP2 SUB PUSH1 0x20 DUP5 ADD MSTORE PUSH2 0x2C99 DUP2 DUP7 PUSH2 0x25AB JUMP JUMPDEST SWAP1 POP DUP3 DUP2 SUB PUSH1 0x40 DUP5 ADD MSTORE PUSH2 0x2CAD DUP2 DUP6 PUSH2 0x25AB JUMP JUMPDEST SWAP7 SWAP6 POP POP POP POP POP POP JUMP JUMPDEST PUSH1 0x0 DUP1 PUSH1 0x0 DUP1 PUSH1 0x0 DUP1 PUSH1 0x0 PUSH1 0xE0 DUP9 DUP11 SUB SLT ISZERO PUSH2 0x2CD2 JUMPI PUSH1 0x0 DUP1 REVERT JUMPDEST DUP8 CALLDATALOAD SWAP7 POP PUSH1 0x20 DUP9 ADD CALLDATALOAD PUSH1 0x1 PUSH1 0x1 PUSH1 0x40 SHL SUB DUP1 DUP3 GT ISZERO PUSH2 0x2CF0 JUMPI PUSH1 0x0 DUP1 REVERT JUMPDEST PUSH2 0x2CFC DUP12 DUP4 DUP13 ADD PUSH2 0x24A4 JUMP JUMPDEST SWAP8 POP PUSH1 0x40 DUP11 ADD CALLDATALOAD SWAP2 POP DUP1 DUP3 GT ISZERO PUSH2 0x2D12 JUMPI PUSH1 0x0 DUP1 REVERT JUMPDEST PUSH2 0x2D1E DUP12 DUP4 DUP13 ADD PUSH2 0x24A4 JUMP JUMPDEST SWAP7 POP PUSH1 0x60 DUP11 ADD CALLDATALOAD SWAP2 POP DUP1 DUP3 GT ISZERO PUSH2 0x2D34 JUMPI PUSH1 0x0 DUP1 REVERT JUMPDEST PUSH2 0x2D40 DUP12 DUP4 DUP13 ADD PUSH2 0x24A4 JUMP JUMPDEST SWAP6 POP PUSH1 0x80 DUP11 ADD CALLDATALOAD SWAP2 POP DUP1 DUP3 GT ISZERO PUSH2 0x2D56 JUMPI PUSH1 0x0 DUP1 REVERT JUMPDEST PUSH2 0x2D62 DUP12 DUP4 DUP13 ADD PUSH2 0x24A4 JUMP JUMPDEST SWAP5 POP PUSH1 0xA0 DUP11 ADD CALLDATALOAD SWAP2 POP DUP1 DUP3 GT ISZERO PUSH2 0x2D78 JUMPI PUSH1 0x0 DUP1 REVERT JUMPDEST PUSH2 0x2D84 DUP12 DUP4 DUP13 ADD PUSH2 0x24A4 JUMP JUMPDEST SWAP4 POP PUSH1 0xC0 DUP11 ADD CALLDATALOAD SWAP2 POP DUP1 DUP3 GT ISZERO PUSH2 0x2D9A JUMPI PUSH1 0x0 DUP1 REVERT JUMPDEST POP PUSH2 0x2DA7 DUP11 DUP3 DUP12 ADD PUSH2 0x24A4 JUMP JUMPDEST SWAP2 POP POP SWAP3 SWAP6 SWAP9 SWAP2 SWAP5 SWAP8 POP SWAP3 SWAP6 POP JUMP JUMPDEST PUSH1 0x0 DUP1 PUSH1 0x40 DUP4 DUP6 SUB SLT ISZERO PUSH2 0x2DC9 JUMPI PUSH1 0x0 DUP1 REVERT JUMPDEST DUP3 CALLDATALOAD PUSH1 0x1 PUSH1 0x1 PUSH1 0x40 SHL SUB DUP2 GT ISZERO PUSH2 0x2DDF JUMPI PUSH1 0x0 DUP1 REVERT JUMPDEST PUSH2 0x2DEB DUP6 DUP3 DUP7 ADD PUSH2 0x24A4 JUMP JUMPDEST SWAP6 PUSH1 0x20 SWAP5 SWAP1 SWAP5 ADD CALLDATALOAD SWAP5 POP POP POP POP JUMP JUMPDEST PUSH1 0x0 DUP1 PUSH1 0x0 DUP1 PUSH1 0x0 PUSH1 0xA0 DUP7 DUP9 SUB SLT ISZERO PUSH2 0x2E12 JUMPI PUSH1 0x0 DUP1 REVERT JUMPDEST DUP6 CALLDATALOAD PUSH1 0x1 PUSH1 0x1 PUSH1 0x40 SHL SUB DUP1 DUP3 GT ISZERO PUSH2 0x2E29 JUMPI PUSH1 0x0 DUP1 REVERT JUMPDEST PUSH2 0x2E35 DUP10 DUP4 DUP11 ADD PUSH2 0x24A4 JUMP JUMPDEST SWAP7 POP PUSH1 0x20 DUP9 ADD CALLDATALOAD SWAP6 POP PUSH1 0x40 DUP9 ADD CALLDATALOAD SWAP5 POP PUSH1 0x60 DUP9 ADD CALLDATALOAD SWAP4 POP PUSH1 0x80 DUP9 ADD CALLDATALOAD SWAP2 POP DUP1 DUP3 GT ISZERO PUSH2 0x28E0 JUMPI PUSH1 0x0 DUP1 REVERT JUMPDEST PUSH1 0x0 DUP1 PUSH1 0x0 PUSH1 0x60 DUP5 DUP7 SUB SLT ISZERO PUSH2 0x2E75 JUMPI PUSH1 0x0 DUP1 REVERT JUMPDEST DUP4 CALLDATALOAD SWAP3 POP PUSH1 0x20 DUP5 ADD CALLDATALOAD PUSH1 0x1 PUSH1 0x1 PUSH1 0x40 SHL SUB DUP2 GT ISZERO PUSH2 0x2E92 JUMPI PUSH1 0x0 DUP1 REVERT JUMPDEST PUSH2 0x2E9E DUP7 DUP3 DUP8 ADD PUSH2 0x24A4 JUMP JUMPDEST SWAP3 POP POP PUSH1 0x40 DUP5 ADD CALLDATALOAD SWAP1 POP SWAP3 POP SWAP3 POP SWAP3 JUMP JUMPDEST PUSH1 0xC0 DUP2 MSTORE PUSH1 0x0 PUSH2 0x2EC2 PUSH1 0xC0 DUP4 ADD DUP10 PUSH2 0x25AB JUMP JUMPDEST DUP3 DUP2 SUB PUSH1 0x20 DUP5 ADD MSTORE PUSH2 0x2ED4 DUP2 DUP10 PUSH2 0x25AB JUMP JUMPDEST SWAP1 POP DUP3 DUP2 SUB PUSH1 0x40 DUP5 ADD MSTORE PUSH2 0x2EE8 DUP2 DUP9 PUSH2 0x25AB JUMP JUMPDEST SWAP1 POP DUP3 DUP2 SUB PUSH1 0x60 DUP5 ADD MSTORE PUSH2 0x2EFC DUP2 DUP8 PUSH2 0x25AB JUMP JUMPDEST SWAP1 POP DUP3 DUP2 SUB PUSH1 0x80 DUP5 ADD MSTORE PUSH2 0x2F10 DUP2 DUP7 PUSH2 0x25AB JUMP JUMPDEST SWAP1 POP DUP3 DUP2 SUB PUSH1 0xA0 DUP5 ADD MSTORE PUSH2 0x2F24 DUP2 DUP6 PUSH2 0x25AB JUMP JUMPDEST SWAP10 SWAP9 POP POP POP POP POP POP POP POP POP JUMP JUMPDEST PUSH1 0x20 DUP1 DUP3 MSTORE PUSH1 0x15 SWAP1 DUP3 ADD MSTORE PUSH21 0x2CB7BA9030B932903737BA103A34329030B236B4B7 PUSH1 0x59 SHL PUSH1 0x40 DUP3 ADD MSTORE PUSH1 0x60 ADD SWAP1 JUMP JUMPDEST DUP4 DUP2 MSTORE PUSH1 0x60 PUSH1 0x20 DUP3 ADD MSTORE PUSH1 0x0 PUSH2 0x2F79 PUSH1 0x60 DUP4 ADD DUP6 PUSH2 0x25AB JUMP JUMPDEST DUP3 DUP2 SUB PUSH1 0x40 DUP5 ADD MSTORE PUSH2 0x2CAD DUP2 DUP6 PUSH2 0x25AB JUMP JUMPDEST PUSH1 0x0 DUP3 PUSH1 0x1F DUP4 ADD SLT PUSH2 0x2F9C JUMPI PUSH1 0x0 DUP1 REVERT JUMPDEST DUP2 MLOAD PUSH2 0x2FAA PUSH2 0x24C3 DUP3 PUSH2 0x247D JUMP JUMPDEST DUP2 DUP2 MSTORE DUP5 PUSH1 0x20 DUP4 DUP7 ADD ADD GT ISZERO PUSH2 0x2FBF JUMPI PUSH1 0x0 DUP1 REVERT JUMPDEST PUSH2 0x2FD0 DUP3 PUSH1 0x20 DUP4 ADD PUSH1 0x20 DUP8 ADD PUSH2 0x257F JUMP JUMPDEST SWAP5 SWAP4 POP POP POP POP JUMP JUMPDEST PUSH1 0x0 DUP1 PUSH1 0x0 DUP1 PUSH1 0x0 PUSH1 0xA0 DUP7 DUP9 SUB SLT ISZERO PUSH2 0x2FF0 JUMPI PUSH1 0x0 DUP1 REVERT JUMPDEST DUP6 MLOAD PUSH1 0x1 PUSH1 0x1 PUSH1 0x40 SHL SUB DUP1 DUP3 GT ISZERO PUSH2 0x3007 JUMPI PUSH1 0x0 DUP1 REVERT JUMPDEST PUSH2 0x3013 DUP10 DUP4 DUP11 ADD PUSH2 0x2F8B JUMP JUMPDEST SWAP7 POP PUSH1 0x20 DUP9 ADD MLOAD SWAP2 POP DUP1 DUP3 GT ISZERO PUSH2 0x3029 JUMPI PUSH1 0x0 DUP1 REVERT JUMPDEST PUSH2 0x3035 DUP10 DUP4 DUP11 ADD PUSH2 0x2F8B JUMP JUMPDEST SWAP6 POP PUSH1 0x40 DUP9 ADD MLOAD SWAP2 POP DUP1 DUP3 GT ISZERO PUSH2 0x304B JUMPI PUSH1 0x0 DUP1 REVERT JUMPDEST PUSH2 0x3057 DUP10 DUP4 DUP11 ADD PUSH2 0x2F8B JUMP JUMPDEST SWAP5 POP PUSH1 0x60 DUP9 ADD MLOAD SWAP2 POP DUP1 DUP3 GT ISZERO PUSH2 0x306D JUMPI PUSH1 0x0 DUP1 REVERT JUMPDEST PUSH2 0x3079 DUP10 DUP4 DUP11 ADD PUSH2 0x2F8B JUMP JUMPDEST SWAP4 POP PUSH1 0x80 DUP9 ADD MLOAD SWAP2 POP DUP1 DUP3 GT ISZERO PUSH2 0x308F JUMPI PUSH1 0x0 DUP1 REVERT JUMPDEST POP PUSH2 0x28ED DUP9 DUP3 DUP10 ADD PUSH2 0x2F8B JUMP JUMPDEST PUSH1 0x0 DUP1 PUSH1 0x0 DUP1 PUSH1 0x0 PUSH1 0xA0 DUP7 DUP9 SUB SLT ISZERO PUSH2 0x30B4 JUMPI PUSH1 0x0 DUP1 REVERT JUMPDEST DUP6 MLOAD PUSH1 0x1 PUSH1 0x1 PUSH1 0x40 SHL SUB DUP1 DUP3 GT ISZERO PUSH2 0x30CB JUMPI PUSH1 0x0 DUP1 REVERT JUMPDEST PUSH2 0x30D7 DUP10 DUP4 DUP11 ADD PUSH2 0x2F8B JUMP JUMPDEST SWAP7 POP PUSH1 0x20 DUP9 ADD MLOAD SWAP2 POP DUP1 DUP3 GT ISZERO PUSH2 0x30ED JUMPI PUSH1 0x0 DUP1 REVERT JUMPDEST PUSH2 0x30F9 DUP10 DUP4 DUP11 ADD PUSH2 0x2F8B JUMP JUMPDEST SWAP6 POP PUSH1 0x40 DUP9 ADD MLOAD SWAP2 POP DUP1 DUP3 GT ISZERO PUSH2 0x310F JUMPI PUSH1 0x0 DUP1 REVERT JUMPDEST PUSH2 0x311B DUP10 DUP4 DUP11 ADD PUSH2 0x2F8B JUMP JUMPDEST SWAP5 POP PUSH1 0x60 DUP9 ADD MLOAD SWAP4 POP PUSH1 0x80 DUP9 ADD MLOAD SWAP2 POP DUP1 DUP3 GT ISZERO PUSH2 0x308F JUMPI PUSH1 0x0 DUP1 REVERT JUMPDEST DUP5 DUP2 MSTORE PUSH1 0x80 PUSH1 0x20 DUP3 ADD MSTORE PUSH1 0x0 PUSH2 0x3151 PUSH1 0x80 DUP4 ADD DUP7 PUSH2 0x25AB JUMP JUMPDEST DUP3 DUP2 SUB PUSH1 0x40 DUP5 ADD MSTORE PUSH2 0x3163 DUP2 DUP7 PUSH2 0x25AB JUMP JUMPDEST SWAP1 POP DUP3 DUP2 SUB PUSH1 0x60 DUP5 ADD MSTORE PUSH2 0x3177 DUP2 DUP6 PUSH2 0x25AB JUMP JUMPDEST SWAP8 SWAP7 POP POP POP POP POP POP POP JUMP JUMPDEST PUSH1 0x0 PUSH1 0x20 DUP3 DUP5 SUB SLT ISZERO PUSH2 0x3194 JUMPI PUSH1 0x0 DUP1 REVERT JUMPDEST POP MLOAD SWAP2 SWAP1 POP JUMP JUMPDEST PUSH1 0x0 DUP1 PUSH1 0x0 PUSH1 0x60 DUP5 DUP7 SUB SLT ISZERO PUSH2 0x31B0 JUMPI PUSH1 0x0 DUP1 REVERT JUMPDEST DUP4 MLOAD SWAP3 POP PUSH1 0x20 DUP5 ADD MLOAD SWAP2 POP PUSH1 0x40 DUP5 ADD MLOAD SWAP1 POP SWAP3 POP SWAP3 POP SWAP3 JUMP JUMPDEST PUSH1 0x0 PUSH1 0x20 DUP3 DUP5 SUB SLT ISZERO PUSH2 0x31DB JUMPI PUSH1 0x0 DUP1 REVERT JUMPDEST DUP2 MLOAD PUSH1 0x1 PUSH1 0x1 PUSH1 0x40 SHL SUB DUP2 GT ISZERO PUSH2 0x31F1 JUMPI PUSH1 0x0 DUP1 REVERT JUMPDEST PUSH2 0x2FD0 DUP5 DUP3 DUP6 ADD PUSH2 0x2F8B JUMP JUMPDEST DUP7 DUP2 MSTORE PUSH1 0xC0 PUSH1 0x20 DUP3 ADD MSTORE PUSH1 0x0 PUSH2 0x3216 PUSH1 0xC0 DUP4 ADD DUP9 PUSH2 0x25AB JUMP JUMPDEST DUP3 DUP2 SUB PUSH1 0x40 DUP5 ADD MSTORE PUSH2 0x2EE8 DUP2 DUP9 PUSH2 0x25AB JUMP JUMPDEST DUP6 DUP2 MSTORE PUSH1 0xA0 PUSH1 0x20 DUP3 ADD MSTORE PUSH1 0x0 PUSH2 0x3241 PUSH1 0xA0 DUP4 ADD DUP8 PUSH2 0x25AB JUMP JUMPDEST DUP6 PUSH1 0x40 DUP5 ADD MSTORE DUP5 PUSH1 0x60 DUP5 ADD MSTORE DUP3 DUP2 SUB PUSH1 0x80 DUP5 ADD MSTORE PUSH2 0x2638 DUP2 DUP6 PUSH2 0x25AB JUMP JUMPDEST PUSH1 0x0 DUP1 PUSH1 0x40 DUP4 DUP6 SUB SLT ISZERO PUSH2 0x3272 JUMPI PUSH1 0x0 DUP1 REVERT JUMPDEST DUP3 MLOAD PUSH1 0x1 PUSH1 0x1 PUSH1 0x40 SHL SUB DUP1 DUP3 GT ISZERO PUSH2 0x3289 JUMPI PUSH1 0x0 DUP1 REVERT JUMPDEST PUSH2 0x3295 DUP7 DUP4 DUP8 ADD PUSH2 0x2F8B JUMP JUMPDEST SWAP4 POP PUSH1 0x20 DUP6 ADD MLOAD SWAP2 POP DUP1 DUP3 GT ISZERO PUSH2 0x32AB JUMPI PUSH1 0x0 DUP1 REVERT JUMPDEST POP PUSH2 0x2A48 DUP6 DUP3 DUP7 ADD PUSH2 0x2F8B JUMP JUMPDEST DUP5 DUP2 MSTORE DUP4 PUSH1 0x20 DUP3 ADD MSTORE PUSH1 0x80 PUSH1 0x40 DUP3 ADD MSTORE PUSH1 0x0 PUSH2 0x32D7 PUSH1 0x80 DUP4 ADD DUP6 PUSH2 0x25AB JUMP JUMPDEST SWAP1 POP DUP3 PUSH1 0x60 DUP4 ADD MSTORE SWAP6 SWAP5 POP POP POP POP POP JUMP JUMPDEST PUSH1 0x0 DUP3 MLOAD PUSH2 0x32FA DUP2 DUP5 PUSH1 0x20 DUP8 ADD PUSH2 0x257F JUMP JUMPDEST SWAP2 SWAP1 SWAP2 ADD SWAP3 SWAP2 POP POP JUMP JUMPDEST PUSH4 0x4E487B71 PUSH1 0xE0 SHL PUSH1 0x0 MSTORE PUSH1 0x11 PUSH1 0x4 MSTORE PUSH1 0x24 PUSH1 0x0 REVERT JUMPDEST PUSH1 0x0 DUP2 PUSH2 0x3329 JUMPI PUSH2 0x3329 PUSH2 0x3304 JUMP JUMPDEST POP PUSH1 0x0 NOT ADD SWAP1 JUMP JUMPDEST PUSH1 0x0 DUP1 PUSH1 0x40 DUP4 DUP6 SUB SLT ISZERO PUSH2 0x3344 JUMPI PUSH1 0x0 DUP1 REVERT JUMPDEST DUP3 MLOAD PUSH1 0x1 PUSH1 0x1 PUSH1 0x40 SHL SUB DUP2 GT ISZERO PUSH2 0x335A JUMPI PUSH1 0x0 DUP1 REVERT JUMPDEST PUSH2 0x3366 DUP6 DUP3 DUP7 ADD PUSH2 0x2F8B JUMP JUMPDEST SWAP3 POP POP PUSH1 0x20 DUP4 ADD MLOAD SWAP1 POP SWAP3 POP SWAP3 SWAP1 POP JUMP JUMPDEST PUSH1 0x0 DUP1 PUSH1 0x0 DUP1 PUSH1 0x0 PUSH1 0xA0 DUP7 DUP9 SUB SLT ISZERO PUSH2 0x338F JUMPI PUSH1 0x0 DUP1 REVERT JUMPDEST DUP6 MLOAD PUSH1 0x1 PUSH1 0x1 PUSH1 0x40 SHL SUB DUP1 DUP3 GT ISZERO PUSH2 0x33A6 JUMPI PUSH1 0x0 DUP1 REVERT JUMPDEST PUSH2 0x33B2 DUP10 DUP4 DUP11 ADD PUSH2 0x2F8B JUMP JUMPDEST SWAP7 POP PUSH1 0x20 DUP9 ADD MLOAD SWAP6 POP PUSH1 0x40 DUP9 ADD MLOAD SWAP5 POP PUSH1 0x60 DUP9 ADD MLOAD SWAP4 POP PUSH1 0x80 DUP9 ADD MLOAD SWAP2 POP DUP1 DUP3 GT ISZERO PUSH2 0x308F JUMPI PUSH1 0x0 DUP1 REVERT JUMPDEST DUP6 DUP2 MSTORE PUSH1 0xA0 PUSH1 0x20 DUP3 ADD MSTORE PUSH1 0x0 PUSH2 0x33F6 PUSH1 0xA0 DUP4 ADD DUP8 PUSH2 0x25AB JUMP JUMPDEST DUP3 DUP2 SUB PUSH1 0x40 DUP5 ADD MSTORE PUSH2 0x3408 DUP2 DUP8 PUSH2 0x25AB JUMP JUMPDEST SWAP1 POP DUP3 DUP2 SUB PUSH1 0x60 DUP5 ADD MSTORE PUSH2 0x341C DUP2 DUP7 PUSH2 0x25AB JUMP JUMPDEST SWAP2 POP POP DUP3 PUSH1 0x80 DUP4 ADD MSTORE SWAP7 SWAP6 POP POP POP POP POP POP JUMP JUMPDEST DUP5 DUP2 MSTORE PUSH1 0x80 PUSH1 0x20 DUP3 ADD MSTORE PUSH1 0x0 PUSH2 0x3448 PUSH1 0x80 DUP4 ADD DUP7 PUSH2 0x25AB JUMP JUMPDEST DUP3 DUP2 SUB PUSH1 0x40 DUP5 ADD MSTORE PUSH2 0x345A DUP2 DUP7 PUSH2 0x25AB JUMP JUMPDEST SWAP2 POP POP DUP3 PUSH1 0x60 DUP4 ADD MSTORE SWAP6 SWAP5 POP POP POP POP POP JUMP JUMPDEST PUSH1 0x0 DUP3 DUP3 LT ISZERO PUSH2 0x347E JUMPI PUSH2 0x347E PUSH2 0x3304 JUMP JUMPDEST POP SUB SWAP1 JUMP JUMPDEST PUSH1 0x0 DUP3 NOT DUP3 GT ISZERO PUSH2 0x3496 JUMPI PUSH2 0x3496 PUSH2 0x3304 JUMP JUMPDEST POP ADD SWAP1 JUMP JUMPDEST DUP7 DUP2 MSTORE PUSH1 0xC0 PUSH1 0x20 DUP3 ADD MSTORE PUSH1 0x0 PUSH2 0x34B4 PUSH1 0xC0 DUP4 ADD DUP9 PUSH2 0x25AB JUMP JUMPDEST DUP3 DUP2 SUB PUSH1 0x40 DUP5 ADD MSTORE PUSH2 0x34C6 DUP2 DUP9 PUSH2 0x25AB JUMP JUMPDEST SWAP1 POP DUP3 DUP2 SUB PUSH1 0x60 DUP5 ADD MSTORE PUSH2 0x34DA DUP2 DUP8 PUSH2 0x25AB JUMP JUMPDEST SWAP1 POP DUP5 PUSH1 0x80 DUP5 ADD MSTORE DUP3 DUP2 SUB PUSH1 0xA0 DUP5 ADD MSTORE PUSH2 0x2F24 DUP2 DUP6 PUSH2 0x25AB JUMP JUMPDEST PUSH1 0x0 DUP1 PUSH1 0x0 PUSH1 0x60 DUP5 DUP7 SUB SLT ISZERO PUSH2 0x3509 JUMPI PUSH1 0x0 DUP1 REVERT JUMPDEST DUP4 MLOAD PUSH1 0x1 PUSH1 0x1 PUSH1 0x40 SHL SUB DUP1 DUP3 GT ISZERO PUSH2 0x3520 JUMPI PUSH1 0x0 DUP1 REVERT JUMPDEST PUSH2 0x352C DUP8 DUP4 DUP9 ADD PUSH2 0x2F8B JUMP JUMPDEST SWAP5 POP PUSH1 0x20 DUP7 ADD MLOAD SWAP2 POP DUP1 DUP3 GT ISZERO PUSH2 0x3542 JUMPI PUSH1 0x0 DUP1 REVERT JUMPDEST PUSH2 0x354E DUP8 DUP4 DUP9 ADD PUSH2 0x2F8B JUMP JUMPDEST SWAP4 POP PUSH1 0x40 DUP7 ADD MLOAD SWAP2 POP DUP1 DUP3 GT ISZERO PUSH2 0x3564 JUMPI PUSH1 0x0 DUP1 REVERT JUMPDEST POP PUSH2 0x255C DUP7 DUP3 DUP8 ADD PUSH2 0x2F8B JUMP JUMPDEST DUP8 DUP2 MSTORE PUSH1 0xE0 PUSH1 0x20 DUP3 ADD MSTORE PUSH1 0x0 PUSH2 0x358A PUSH1 0xE0 DUP4 ADD DUP10 PUSH2 0x25AB JUMP JUMPDEST DUP3 DUP2 SUB PUSH1 0x40 DUP5 ADD MSTORE PUSH2 0x359C DUP2 DUP10 PUSH2 0x25AB JUMP JUMPDEST SWAP1 POP DUP3 DUP2 SUB PUSH1 0x60 DUP5 ADD MSTORE PUSH2 0x35B0 DUP2 DUP9 PUSH2 0x25AB JUMP JUMPDEST SWAP1 POP DUP3 DUP2 SUB PUSH1 0x80 DUP5 ADD MSTORE PUSH2 0x35C4 DUP2 DUP8 PUSH2 0x25AB JUMP JUMPDEST SWAP1 POP DUP3 DUP2 SUB PUSH1 0xA0 DUP5 ADD MSTORE PUSH2 0x35D8 DUP2 DUP7 PUSH2 0x25AB JUMP JUMPDEST SWAP1 POP DUP3 DUP2 SUB PUSH1 0xC0 DUP5 ADD MSTORE PUSH2 0x35EC DUP2 DUP6 PUSH2 0x25AB JUMP JUMPDEST SWAP11 SWAP10 POP POP POP POP POP POP POP POP POP POP JUMP JUMPDEST PUSH1 0x0 PUSH1 0x1 DUP3 ADD PUSH2 0x360C JUMPI PUSH2 0x360C PUSH2 0x3304 JUMP JUMPDEST POP PUSH1 0x1 ADD SWAP1 JUMP JUMPDEST DUP4 DUP2 MSTORE PUSH1 0x60 PUSH1 0x20 DUP3 ADD MSTORE PUSH1 0x0 PUSH2 0x362C PUSH1 0x60 DUP4 ADD DUP6 PUSH2 0x25AB JUMP JUMPDEST SWAP1 POP DUP3 PUSH1 0x40 DUP4 ADD MSTORE SWAP5 SWAP4 POP POP POP POP JUMP JUMPDEST PUSH1 0x0 DUP1 PUSH1 0x0 DUP1 PUSH1 0x0 DUP1 PUSH1 0xC0 DUP8 DUP10 SUB SLT ISZERO PUSH2 0x3655 JUMPI PUSH1 0x0 DUP1 REVERT JUMPDEST DUP7 MLOAD PUSH1 0x1 PUSH1 0x1 PUSH1 0x40 SHL SUB DUP1 DUP3 GT ISZERO PUSH2 0x366C JUMPI PUSH1 0x0 DUP1 REVERT JUMPDEST PUSH2 0x3678 DUP11 DUP4 DUP12 ADD PUSH2 0x2F8B JUMP JUMPDEST SWAP8 POP PUSH1 0x20 DUP10 ADD MLOAD SWAP2 POP DUP1 DUP3 GT ISZERO PUSH2 0x368E JUMPI PUSH1 0x0 DUP1 REVERT JUMPDEST PUSH2 0x369A DUP11 DUP4 DUP12 ADD PUSH2 0x2F8B JUMP JUMPDEST SWAP7 POP PUSH1 0x40 DUP10 ADD MLOAD SWAP2 POP DUP1 DUP3 GT ISZERO PUSH2 0x36B0 JUMPI PUSH1 0x0 DUP1 REVERT JUMPDEST PUSH2 0x36BC DUP11 DUP4 DUP12 ADD PUSH2 0x2F8B JUMP JUMPDEST SWAP6 POP PUSH1 0x60 DUP10 ADD MLOAD SWAP2 POP DUP1 DUP3 GT ISZERO PUSH2 0x36D2 JUMPI PUSH1 0x0 DUP1 REVERT JUMPDEST PUSH2 0x36DE DUP11 DUP4 DUP12 ADD PUSH2 0x2F8B JUMP JUMPDEST SWAP5 POP PUSH1 0x80 DUP10 ADD MLOAD SWAP2 POP DUP1 DUP3 GT ISZERO PUSH2 0x36F4 JUMPI PUSH1 0x0 DUP1 REVERT JUMPDEST PUSH2 0x3700 DUP11 DUP4 DUP12 ADD PUSH2 0x2F8B JUMP JUMPDEST SWAP4 POP PUSH1 0xA0 DUP10 ADD MLOAD SWAP2 POP DUP1 DUP3 GT ISZERO PUSH2 0x3716 JUMPI PUSH1 0x0 DUP1 REVERT JUMPDEST POP PUSH2 0x286D DUP10 DUP3 DUP11 ADD PUSH2 0x2F8B JUMP INVALID LOG2 PUSH5 0x6970667358 0x22 SLT KECCAK256 JUMPDEST SWAP12 0xF8 0xB7 0xC1 0xB8 CALLDATALOAD 0xD9 OR 0xC4 0xBB INVALID POP SWAP11 SMOD 0x25 CREATE2 SDIV CALLDATALOAD SELFDESTRUCT 0xED 0x5C PUSH23 0x9B66C965CEC8C98A6864736F6C634300080F0033000000 ","sha1":"5fe5b2252f27095e14a9bc2d37fbf19a337c7fc2","source":"// SPDX-License-Identifier: MIT\n\npragma solidity 0.8.15;\n\nimport \"./studentData.sol\";\nimport \"./schoolFiles.sol\";\nimport \"./login.sol\";\nimport \"./attendance.sol\";\n\ncontract SchoolAdmin {\n    StudentData studentData;\n    SchoolFiles schoolFiles;\n    Login login;\n    Attendance attendance;\n    address public admin;\n    uint256 public maleStudents;\n    uint256 public femaleStudents;\n\n    event studentAdded(\n        uint256 indexed _studentId,\n        uint256 indexed _rollNumber,\n        uint256 indexed _class\n    );\n    event studentFound(uint256 indexed _studentId, uint256 indexed _rollNumber);\n    event assignmentAdded(\n        uint256 indexed _assignmentId,\n        uint256 indexed _class,\n        uint256 indexed _expiry\n    );\n    event assignmentSolutionAdded(\n        uint256 indexed _assignmentId,\n        uint256 indexed _solutionId,\n        uint256 indexed _studentId\n    );\n    event marksCardAdded(\n        uint256 indexed _marksCardId,\n        uint256 indexed _studentId,\n        uint256 indexed _expiry\n    );\n\n    event attendanceMarked(\n        uint256 indexed _studentId,\n        uint256 indexed _attendanceValue,\n        uint256 indexed _date\n    );\n\n    constructor(\n        address _studentData,\n        address _schoolFiles,\n        address _login,\n        address _attendance\n    ) {\n        studentData = StudentData(_studentData);\n        schoolFiles = SchoolFiles(_schoolFiles);\n        login = Login(_login);\n        attendance = Attendance(_attendance);\n        admin = msg.sender;\n    }\n\n    modifier isAdmin() {\n        require(msg.sender == admin, \"You are not the admin\");\n        _;\n    }\n\n    function getStudentCount()\n        public\n        view\n        isAdmin\n        returns (uint256 studentCount)\n    {\n        uint256 _studentCount = studentData.studentCount();\n        return _studentCount;\n    }\n\n    function rollNumberToStudentId(uint256 _rollNumber)\n        public\n        view\n        isAdmin\n        returns (uint256 studentId)\n    {\n        uint256 _studentId = studentData.rollNumberToStudentId(_rollNumber);\n        return _studentId;\n    }\n\n    function getGenderKPI()\n        public\n        view\n        isAdmin\n        returns (\n            uint256 totalNumber,\n            uint256 maleNumber,\n            uint256 femaleNumber\n        )\n    {\n        uint256 _studentCount = studentData.studentCount();\n        return (_studentCount, maleStudents, femaleStudents);\n    }\n\n    function getPrimaryDetails(uint256 _studentId)\n        public\n        view\n        isAdmin\n        returns (\n            string memory _studentName,\n            uint256 _dob,\n            uint256 _rollNumber,\n            uint256 _grade,\n            string memory _email\n        )\n    {\n        return studentData.studentIdToPrimaryDetails(_studentId);\n    }\n\n    function getPersonalDetails(uint256 _studentId)\n        public\n        view\n        isAdmin\n        returns (\n            string memory _religion,\n            string memory _caste,\n            string memory _nationality,\n            uint256 _aadharNumber,\n            string memory _gender\n        )\n    {\n        return studentData.studentIdToPersonalDetails(_studentId);\n    }\n\n    function getPaternalDetails(uint256 _studentId)\n        public\n        view\n        isAdmin\n        returns (\n            string memory _fatherName,\n            string memory _currentAddress,\n            string memory _officeAddress,\n            string memory _fatherOccupation,\n            string memory _fatherEducation\n        )\n    {\n        return studentData.studentIdToPaternalDetails(_studentId);\n    }\n\n    function getMaternalDetails(uint256 _studentId)\n        public\n        view\n        isAdmin\n        returns (\n            string memory _motherName,\n            string memory _motherOccupation,\n            string memory _motherEducation\n        )\n    {\n        return studentData.studentIdToMaternalDetails(_studentId);\n    }\n\n    function getGuardianDetails(uint256 _studentId)\n        public\n        view\n        isAdmin\n        returns (string memory _guardianName, string memory _guardianAddress)\n    {\n        return studentData.studentIdToGuardianDetails(_studentId);\n    }\n\n    function getFamilyDetails(uint256 _studentId)\n        public\n        view\n        isAdmin\n        returns (\n            uint256 _familyIncome,\n            uint256 _primaryContact,\n            uint256 _secondaryContact\n        )\n    {\n        return studentData.studentIdToFamilyDetails(_studentId);\n    }\n\n    function getFiles(uint256 _studentId)\n        public\n        view\n        isAdmin\n        returns (\n            string memory _uploadAadharFront,\n            string memory _uploadAadharBack,\n            string memory _uploadIncomeCertificate,\n            string memory _uploadBirthCertificate,\n            string memory _uploadCasteCertificate\n        )\n    {\n        return studentData.studentIdToFiles(_studentId);\n    }\n\n    function getNonAcademic(uint256 _studentId)\n        public\n        view\n        isAdmin\n        returns (\n            string memory _sportsInvolved,\n            string memory _sportsAchievements,\n            string memory _extraCurricullum,\n            string memory _extraCurricullumAchievements,\n            string memory _personalityDevelopment,\n            string memory _personalityDevelopmentAchievements\n        )\n    {\n        return studentData.studentIdToNonAcademic(_studentId);\n    }\n\n    function addStudent(\n        string memory _studentName,\n        uint256 _dob,\n        uint256 _rollNumber,\n        uint256 _grade,\n        string memory _email\n    ) public isAdmin {\n        uint256 _studentId = studentData.addStudent(\n            _studentName,\n            _dob,\n            _rollNumber,\n            _grade,\n            _email\n        );\n        emit studentAdded(_studentId, _rollNumber, _grade);\n    }\n\n    function modifyPrimaryDetails(\n        uint256 _studentId,\n        string memory _studentName,\n        uint256 _dob,\n        uint256 _grade,\n        string memory _email\n    ) public isAdmin {\n        studentData.modifyPrimaryDetails(\n            _studentId,\n            _studentName,\n            _dob,\n            _grade,\n            _email\n        );\n    }\n\n    function addPersonalDetails(\n        uint256 _studentId,\n        string memory _religion,\n        string memory _caste,\n        string memory _nationality,\n        uint256 _aadharNumber,\n        string memory _gender\n    ) public isAdmin {\n        (, , , , string memory existingGender) = studentData\n            .studentIdToPersonalDetails(_studentId);\n\n        if (\n            keccak256(abi.encodePacked(existingGender)) ==\n            keccak256(abi.encodePacked(\"male\"))\n        ) {\n            maleStudents = maleStudents - 1;\n        }\n        if (\n            keccak256(abi.encodePacked(existingGender)) ==\n            keccak256(abi.encodePacked(\"female\"))\n        ) {\n            femaleStudents = femaleStudents - 1;\n        }\n        if (\n            keccak256(abi.encodePacked(_gender)) ==\n            keccak256(abi.encodePacked(\"male\"))\n        ) {\n            maleStudents = maleStudents + 1;\n        }\n        if (\n            keccak256(abi.encodePacked(_gender)) ==\n            keccak256(abi.encodePacked(\"female\"))\n        ) {\n            femaleStudents = femaleStudents + 1;\n        }\n\n        studentData.addPersonalDetails(\n            _studentId,\n            _religion,\n            _caste,\n            _nationality,\n            _aadharNumber,\n            _gender\n        );\n    }\n\n    function addPaternalDetails(\n        uint256 _studentId,\n        string memory _fatherName,\n        string memory _currentAddress,\n        string memory _officeAddress,\n        string memory _fatherOccupation,\n        string memory _fatherEducation\n    ) public isAdmin {\n        studentData.addPaternalDetails(\n            _studentId,\n            _fatherName,\n            _currentAddress,\n            _officeAddress,\n            _fatherOccupation,\n            _fatherEducation\n        );\n    }\n\n    function addMaternalDetails(\n        uint256 _studentId,\n        string memory _motherName,\n        string memory _motherOccupation,\n        string memory _motherEducation\n    ) public isAdmin {\n        studentData.addMaternalDetails(\n            _studentId,\n            _motherName,\n            _motherOccupation,\n            _motherEducation\n        );\n    }\n\n    function addGuardianDetails(\n        uint256 _studentId,\n        string memory _guardianName,\n        string memory _guardianAddress\n    ) public isAdmin {\n        studentData.addGuardianDetails(\n            _studentId,\n            _guardianName,\n            _guardianAddress\n        );\n    }\n\n    function addFamilyDetails(\n        uint256 _studentId,\n        uint256 _familyIncome,\n        uint256 _primaryContact,\n        uint256 _secondaryContact\n    ) public isAdmin {\n        studentData.addFamilyDetails(\n            _studentId,\n            _familyIncome,\n            _primaryContact,\n            _secondaryContact\n        );\n    }\n\n    function addFiles(\n        uint256 _studentId,\n        string memory _uploadAadharFront,\n        string memory _uploadAadharBack,\n        string memory _uploadIncomeCertificate,\n        string memory _uploadBirthCertificate,\n        string memory _uploadCasteCertificate\n    ) public isAdmin {\n        studentData.addFiles(\n            _studentId,\n            _uploadAadharFront,\n            _uploadAadharBack,\n            _uploadIncomeCertificate,\n            _uploadBirthCertificate,\n            _uploadCasteCertificate\n        );\n    }\n\n    function addNonAcademic(\n        uint256 _studentId,\n        string memory _sportsInvolved,\n        string memory _sportsAchievements,\n        string memory _extraCurricullum,\n        string memory _extraCurricullumAchievements,\n        string memory _personalityDevelopment,\n        string memory _personalityDevelopmentAchievements\n    ) public isAdmin {\n        studentData.addNonAcademic(\n            _studentId,\n            _sportsInvolved,\n            _sportsAchievements,\n            _extraCurricullum,\n            _extraCurricullumAchievements,\n            _personalityDevelopment,\n            _personalityDevelopmentAchievements\n        );\n    }\n\n    function searchStudent(string memory _name, uint256 _class) public isAdmin {\n        uint256 studentCount = getStudentCount();\n        for (uint256 studentId = 1; studentId <= studentCount; studentId++) {\n            (\n                string memory studentName,\n                ,\n                uint256 studentRollNumber,\n                uint256 studentClass,\n\n            ) = studentData.studentIdToPrimaryDetails(studentId);\n            if (\n                keccak256(abi.encodePacked(studentName)) ==\n                keccak256(abi.encodePacked(_name))\n            ) {\n                if (studentClass == _class) {\n                    emit studentFound(studentId, studentRollNumber);\n                }\n            }\n        }\n    }\n\n    function addAssignmentSolution(\n        uint256 _assignmentId,\n        string memory _file,\n        uint256 _studentId\n    ) public {\n        uint256 assignmentSolutionId = schoolFiles.addAssignmentSolution(\n            _assignmentId,\n            _file,\n            _studentId\n        );\n        emit assignmentSolutionAdded(\n            _assignmentId,\n            assignmentSolutionId,\n            _studentId\n        );\n    }\n\n    function addAssignment(\n        uint256 _class,\n        string memory _subject,\n        string memory _file,\n        string memory _topic,\n        uint256 _expiry\n    ) public {\n        uint256 assignmentId = schoolFiles.addAssignment(\n            _class,\n            _subject,\n            _file,\n            _topic,\n            _expiry\n        );\n        emit assignmentAdded(assignmentId, _class, _expiry);\n    }\n\n    function addMarksCard(\n        uint256 _studentId,\n        uint256 _class,\n        string memory _file,\n        uint256 _expiry\n    ) public {\n        uint256 _marksCardId = schoolFiles.addMarksCard(\n            _studentId,\n            _class,\n            _file,\n            _expiry\n        );\n        emit marksCardAdded(_marksCardId, _studentId, _expiry);\n    }\n\n    function addTimeTable(\n        uint256 _class,\n        string memory _exam,\n        string memory _file,\n        uint256 _uploadTime\n    ) public {\n        schoolFiles.addTimeTable(_class, _exam, _file, _uploadTime);\n    }\n\n    function getAssignmentSolutionData(uint256 _assignmentSolutionId)\n        public\n        view\n        isAdmin\n        returns (\n            string memory file,\n            uint256 assignmentId,\n            uint256 studentId\n        )\n    {\n        string memory _file = schoolFiles.assignmentSolutionIdTofile(\n            _assignmentSolutionId\n        );\n        uint256 _assignmentId = schoolFiles.assignmentSolutionIdToAssignmentId(\n            _assignmentSolutionId\n        );\n        uint256 _studentId = schoolFiles.assignmentSolutionIdToStudentId(\n            _assignmentSolutionId\n        );\n        return (_file, _assignmentId, _studentId);\n    }\n\n    function getAssignmentData(uint256 _assignmentId)\n        public\n        view\n        isAdmin\n        returns (\n            string memory subject,\n            string memory topic,\n            string memory file,\n            uint256 class,\n            uint256 expiry\n        )\n    {\n        string memory _subject = schoolFiles.assignmentIdTosubject(\n            _assignmentId\n        );\n        string memory _topic = schoolFiles.assignmentIdToTopic(_assignmentId);\n        string memory _file = schoolFiles.assignmentIdTofile(_assignmentId);\n        uint256 _class = schoolFiles.assignmentIdToclass(_assignmentId);\n        uint256 _expiry = schoolFiles.assignmentIdToExpiry(_assignmentId);\n        return (_subject, _topic, _file, _class, _expiry);\n    }\n\n    function getMarksCardData(uint256 _marksCardId)\n        public\n        view\n        isAdmin\n        returns (\n            uint256 studentId,\n            uint256 class,\n            string memory file\n        )\n    {\n        uint256 _studentId = schoolFiles.marksCardIdTostudentId(_marksCardId);\n        uint256 _class = schoolFiles.marksCardIdToclass(_marksCardId);\n        string memory _file = schoolFiles.marksCardIdTofile(_marksCardId);\n        return (_studentId, _class, _file);\n    }\n\n    function viewClassTimeTable(uint256 _class)\n        public\n        view\n        isAdmin\n        returns (string memory timeTableFile, uint256 uploadTime)\n    {\n        uint256 timetableCount = schoolFiles.timetableCount();\n        for (\n            uint256 timeTableId = timetableCount;\n            timeTableId > 0;\n            timeTableId--\n        ) {\n            if (\n                schoolFiles.timeTableIdToclass(timeTableId) == _class &&\n                keccak256(\n                    abi.encodePacked(schoolFiles.timeTableIdToexam(timeTableId))\n                ) ==\n                keccak256(abi.encodePacked(\"\"))\n            ) {\n                {\n                    return (\n                        schoolFiles.timeTableIdTofile(timeTableId),\n                        schoolFiles.timeTableIdToUploadTime(timeTableId)\n                    );\n                }\n            }\n        }\n        return (\"Time table not found\", 0);\n    }\n\n    function viewExamTimeTable(uint256 _class)\n        public\n        view\n        isAdmin\n        returns (string memory timeTableFile, uint256 uploadTime)\n    {\n        uint256 timetableCount = schoolFiles.timetableCount();\n        for (\n            uint256 timeTableId = timetableCount;\n            timeTableId > 0;\n            timeTableId--\n        ) {\n            if (\n                schoolFiles.timeTableIdToclass(timeTableId) == _class &&\n                keccak256(\n                    abi.encodePacked(schoolFiles.timeTableIdToexam(timeTableId))\n                ) !=\n                keccak256(abi.encodePacked(\"\"))\n            ) {\n                {\n                    return (\n                        schoolFiles.timeTableIdTofile(timeTableId),\n                        schoolFiles.timeTableIdToUploadTime(timeTableId)\n                    );\n                }\n            }\n        }\n        return (\"Time table not found\", 0);\n    }\n\n    function loginCheck(string memory _name, string memory _password)\n        public\n        view\n        returns (string memory _loginType, uint256 _id)\n    {\n        (_loginType, _id) = login.loginCheck(_name, _password);\n        return (_loginType, _id);\n    }\n\n    function markAttendance(\n        uint256 _studentId,\n        uint256 _attendanceValue,\n        uint256 _date\n    ) public isAdmin {\n        attendance.markAttendance(_studentId, _attendanceValue, _date);\n        emit attendanceMarked(_studentId, _attendanceValue, _date);\n    }\n\n    function getAttendance(uint256 _studentId, uint256 _date)\n        public\n        view\n        isAdmin\n        returns (uint256 attendanceMark)\n    {\n        return attendance.getAttendance(_studentId, _date);\n    }\n}\n","sourcePath":"contracts/schoolAdmin.sol","type":"contract"}