{"abi":[{"inputs":[{"internalType":"address","name":"_studentData","type":"address"},{"internalType":"address","name":"_schoolFiles","type":"address"},{"internalType":"address","name":"_login","type":"address"},{"internalType":"address","name":"_attendance","type":"address"}],"stateMutability":"nonpayable","type":"constructor"},{"anonymous":false,"inputs":[{"indexed":true,"internalType":"uint256","name":"_assignmentId","type":"uint256"},{"indexed":true,"internalType":"uint256","name":"_class","type":"uint256"},{"indexed":true,"internalType":"uint256","name":"_expiry","type":"uint256"}],"name":"assignmentAdded","type":"event"},{"anonymous":false,"inputs":[{"indexed":true,"internalType":"uint256","name":"_assignmentId","type":"uint256"},{"indexed":true,"internalType":"uint256","name":"_solutionId","type":"uint256"},{"indexed":true,"internalType":"uint256","name":"_studentId","type":"uint256"}],"name":"assignmentSolutionAdded","type":"event"},{"anonymous":false,"inputs":[{"indexed":true,"internalType":"uint256","name":"_studentId","type":"uint256"},{"indexed":true,"internalType":"uint256","name":"_attendanceValue","type":"uint256"},{"indexed":true,"internalType":"uint256","name":"_date","type":"uint256"}],"name":"attendanceMarked","type":"event"},{"anonymous":false,"inputs":[{"indexed":true,"internalType":"uint256","name":"_marksCardId","type":"uint256"},{"indexed":true,"internalType":"uint256","name":"_studentId","type":"uint256"},{"indexed":true,"internalType":"uint256","name":"_expiry","type":"uint256"}],"name":"marksCardAdded","type":"event"},{"anonymous":false,"inputs":[{"indexed":true,"internalType":"uint256","name":"_studentId","type":"uint256"},{"indexed":true,"internalType":"uint256","name":"_rollNumber","type":"uint256"},{"indexed":true,"internalType":"uint256","name":"_class","type":"uint256"}],"name":"studentAdded","type":"event"},{"anonymous":false,"inputs":[{"indexed":true,"internalType":"uint256","name":"_studentId","type":"uint256"},{"indexed":true,"internalType":"uint256","name":"_rollNumber","type":"uint256"}],"name":"studentFound","type":"event"},{"inputs":[{"internalType":"uint256","name":"_class","type":"uint256"},{"internalType":"string","name":"_subject","type":"string"},{"internalType":"string","name":"_file","type":"string"},{"internalType":"string","name":"_topic","type":"string"},{"internalType":"uint256","name":"_expiry","type":"uint256"}],"name":"addAssignment","outputs":[],"stateMutability":"nonpayable","type":"function"},{"inputs":[{"internalType":"uint256","name":"_assignmentId","type":"uint256"},{"internalType":"string","name":"_file","type":"string"},{"internalType":"uint256","name":"_studentId","type":"uint256"}],"name":"addAssignmentSolution","outputs":[],"stateMutability":"nonpayable","type":"function"},{"inputs":[{"internalType":"uint256","name":"_studentId","type":"uint256"},{"internalType":"uint256","name":"_familyIncome","type":"uint256"},{"internalType":"uint256","name":"_primaryContact","type":"uint256"},{"internalType":"uint256","name":"_secondaryContact","type":"uint256"}],"name":"addFamilyDetails","outputs":[],"stateMutability":"nonpayable","type":"function"},{"inputs":[{"internalType":"uint256","name":"_studentId","type":"uint256"},{"internalType":"string","name":"_uploadAadharFront","type":"string"},{"internalType":"string","name":"_uploadAadharBack","type":"string"},{"internalType":"string","name":"_uploadIncomeCertificate","type":"string"},{"internalType":"string","name":"_uploadBirthCertificate","type":"string"},{"internalType":"string","name":"_uploadCasteCertificate","type":"string"}],"name":"addFiles","outputs":[],"stateMutability":"nonpayable","type":"function"},{"inputs":[{"internalType":"uint256","name":"_studentId","type":"uint256"},{"internalType":"string","name":"_guardianName","type":"string"},{"internalType":"string","name":"_guardianAddress","type":"string"}],"name":"addGuardianDetails","outputs":[],"stateMutability":"nonpayable","type":"function"},{"inputs":[{"internalType":"uint256","name":"_studentId","type":"uint256"},{"internalType":"uint256","name":"_class","type":"uint256"},{"internalType":"string","name":"_file","type":"string"},{"internalType":"uint256","name":"_expiry","type":"uint256"}],"name":"addMarksCard","outputs":[],"stateMutability":"nonpayable","type":"function"},{"inputs":[{"internalType":"uint256","name":"_studentId","type":"uint256"},{"internalType":"string","name":"_motherName","type":"string"},{"internalType":"string","name":"_motherOccupation","type":"string"},{"internalType":"string","name":"_motherEducation","type":"string"}],"name":"addMaternalDetails","outputs":[],"stateMutability":"nonpayable","type":"function"},{"inputs":[{"internalType":"uint256","name":"_studentId","type":"uint256"},{"internalType":"string","name":"_sportsInvolved","type":"string"},{"internalType":"string","name":"_sportsAchievements","type":"string"},{"internalType":"string","name":"_extraCurricullum","type":"string"},{"internalType":"string","name":"_extraCurricullumAchievements","type":"string"},{"internalType":"string","name":"_personalityDevelopment","type":"string"},{"internalType":"string","name":"_personalityDevelopmentAchievements","type":"string"}],"name":"addNonAcademic","outputs":[],"stateMutability":"nonpayable","type":"function"},{"inputs":[{"internalType":"uint256","name":"_studentId","type":"uint256"},{"internalType":"string","name":"_fatherName","type":"string"},{"internalType":"string","name":"_currentAddress","type":"string"},{"internalType":"string","name":"_officeAddress","type":"string"},{"internalType":"string","name":"_fatherOccupation","type":"string"},{"internalType":"string","name":"_fatherEducation","type":"string"}],"name":"addPaternalDetails","outputs":[],"stateMutability":"nonpayable","type":"function"},{"inputs":[{"internalType":"uint256","name":"_studentId","type":"uint256"},{"internalType":"string","name":"_religion","type":"string"},{"internalType":"string","name":"_caste","type":"string"},{"internalType":"string","name":"_nationality","type":"string"},{"internalType":"uint256","name":"_aadharNumber","type":"uint256"},{"internalType":"string","name":"_gender","type":"string"}],"name":"addPersonalDetails","outputs":[],"stateMutability":"nonpayable","type":"function"},{"inputs":[{"internalType":"string","name":"_studentName","type":"string"},{"internalType":"uint256","name":"_dob","type":"uint256"},{"internalType":"uint256","name":"_rollNumber","type":"uint256"},{"internalType":"uint256","name":"_grade","type":"uint256"},{"internalType":"string","name":"_email","type":"string"}],"name":"addStudent","outputs":[],"stateMutability":"nonpayable","type":"function"},{"inputs":[{"internalType":"uint256","name":"_class","type":"uint256"},{"internalType":"string","name":"_exam","type":"string"},{"internalType":"string","name":"_file","type":"string"},{"internalType":"uint256","name":"_uploadTime","type":"uint256"}],"name":"addTimeTable","outputs":[],"stateMutability":"nonpayable","type":"function"},{"inputs":[],"name":"admin","outputs":[{"internalType":"address","name":"","type":"address"}],"stateMutability":"view","type":"function"},{"inputs":[],"name":"femaleStudents","outputs":[{"internalType":"uint256","name":"","type":"uint256"}],"stateMutability":"view","type":"function"},{"inputs":[{"internalType":"uint256","name":"_assignmentId","type":"uint256"}],"name":"getAssignmentData","outputs":[{"internalType":"string","name":"subject","type":"string"},{"internalType":"string","name":"topic","type":"string"},{"internalType":"string","name":"file","type":"string"},{"internalType":"uint256","name":"class","type":"uint256"},{"internalType":"uint256","name":"expiry","type":"uint256"}],"stateMutability":"view","type":"function"},{"inputs":[{"internalType":"uint256","name":"_assignmentSolutionId","type":"uint256"}],"name":"getAssignmentSolutionData","outputs":[{"internalType":"string","name":"file","type":"string"},{"internalType":"uint256","name":"assignmentId","type":"uint256"},{"internalType":"uint256","name":"studentId","type":"uint256"}],"stateMutability":"view","type":"function"},{"inputs":[{"internalType":"uint256","name":"_studentId","type":"uint256"},{"internalType":"uint256","name":"_date","type":"uint256"}],"name":"getAttendance","outputs":[{"internalType":"uint256","name":"attendanceMark","type":"uint256"}],"stateMutability":"view","type":"function"},{"inputs":[{"internalType":"uint256","name":"_studentId","type":"uint256"}],"name":"getFamilyDetails","outputs":[{"internalType":"uint256","name":"_familyIncome","type":"uint256"},{"internalType":"uint256","name":"_primaryContact","type":"uint256"},{"internalType":"uint256","name":"_secondaryContact","type":"uint256"}],"stateMutability":"view","type":"function"},{"inputs":[{"internalType":"uint256","name":"_studentId","type":"uint256"}],"name":"getFiles","outputs":[{"internalType":"string","name":"_uploadAadharFront","type":"string"},{"internalType":"string","name":"_uploadAadharBack","type":"string"},{"internalType":"string","name":"_uploadIncomeCertificate","type":"string"},{"internalType":"string","name":"_uploadBirthCertificate","type":"string"},{"internalType":"string","name":"_uploadCasteCertificate","type":"string"}],"stateMutability":"view","type":"function"},{"inputs":[{"internalType":"uint256","name":"_studentId","type":"uint256"}],"name":"getGuardianDetails","outputs":[{"internalType":"string","name":"_guardianName","type":"string"},{"internalType":"string","name":"_guardianAddress","type":"string"}],"stateMutability":"view","type":"function"},{"inputs":[{"internalType":"uint256","name":"_marksCardId","type":"uint256"}],"name":"getMarksCardData","outputs":[{"internalType":"uint256","name":"studentId","type":"uint256"},{"internalType":"uint256","name":"class","type":"uint256"},{"internalType":"string","name":"file","type":"string"}],"stateMutability":"view","type":"function"},{"inputs":[{"internalType":"uint256","name":"_studentId","type":"uint256"}],"name":"getMaternalDetails","outputs":[{"internalType":"string","name":"_motherName","type":"string"},{"internalType":"string","name":"_motherOccupation","type":"string"},{"internalType":"string","name":"_motherEducation","type":"string"}],"stateMutability":"view","type":"function"},{"inputs":[{"internalType":"uint256","name":"_studentId","type":"uint256"}],"name":"getNonAcademic","outputs":[{"internalType":"string","name":"_sportsInvolved","type":"string"},{"internalType":"string","name":"_sportsAchievements","type":"string"},{"internalType":"string","name":"_extraCurricullum","type":"string"},{"internalType":"string","name":"_extraCurricullumAchievements","type":"string"},{"internalType":"string","name":"_personalityDevelopment","type":"string"},{"internalType":"string","name":"_personalityDevelopmentAchievements","type":"string"}],"stateMutability":"view","type":"function"},{"inputs":[{"internalType":"uint256","name":"_studentId","type":"uint256"}],"name":"getPaternalDetails","outputs":[{"internalType":"string","name":"_fatherName","type":"string"},{"internalType":"string","name":"_currentAddress","type":"string"},{"internalType":"string","name":"_officeAddress","type":"string"},{"internalType":"string","name":"_fatherOccupation","type":"string"},{"internalType":"string","name":"_fatherEducation","type":"string"}],"stateMutability":"view","type":"function"},{"inputs":[{"internalType":"uint256","name":"_studentId","type":"uint256"}],"name":"getPersonalDetails","outputs":[{"internalType":"string","name":"_religion","type":"string"},{"internalType":"string","name":"_caste","type":"string"},{"internalType":"string","name":"_nationality","type":"string"},{"internalType":"uint256","name":"_aadharNumber","type":"uint256"},{"internalType":"string","name":"_gender","type":"string"}],"stateMutability":"view","type":"function"},{"inputs":[{"internalType":"uint256","name":"_studentId","type":"uint256"}],"name":"getPrimaryDetails","outputs":[{"internalType":"string","name":"_studentName","type":"string"},{"internalType":"uint256","name":"_dob","type":"uint256"},{"internalType":"uint256","name":"_rollNumber","type":"uint256"},{"internalType":"uint256","name":"_grade","type":"uint256"},{"internalType":"string","name":"_email","type":"string"}],"stateMutability":"view","type":"function"},{"inputs":[],"name":"getStudentCount","outputs":[{"internalType":"uint256","name":"studentCount","type":"uint256"}],"stateMutability":"view","type":"function"},{"inputs":[{"internalType":"string","name":"_name","type":"string"},{"internalType":"string","name":"_password","type":"string"}],"name":"loginCheck","outputs":[{"internalType":"string","name":"_loginType","type":"string"},{"internalType":"uint256","name":"_id","type":"uint256"}],"stateMutability":"view","type":"function"},{"inputs":[],"name":"maleStudents","outputs":[{"internalType":"uint256","name":"","type":"uint256"}],"stateMutability":"view","type":"function"},{"inputs":[{"internalType":"uint256","name":"_studentId","type":"uint256"},{"internalType":"uint256","name":"_attendanceValue","type":"uint256"},{"internalType":"uint256","name":"_date","type":"uint256"}],"name":"markAttendance","outputs":[],"stateMutability":"nonpayable","type":"function"},{"inputs":[{"internalType":"uint256","name":"_studentId","type":"uint256"},{"internalType":"string","name":"_studentName","type":"string"},{"internalType":"uint256","name":"_dob","type":"uint256"},{"internalType":"uint256","name":"_grade","type":"uint256"},{"internalType":"string","name":"_email","type":"string"}],"name":"modifyPrimaryDetails","outputs":[],"stateMutability":"nonpayable","type":"function"},{"inputs":[{"internalType":"uint256","name":"_rollNumber","type":"uint256"}],"name":"rollNumberToStudentId","outputs":[{"internalType":"uint256","name":"studentId","type":"uint256"}],"stateMutability":"view","type":"function"},{"inputs":[{"internalType":"string","name":"_name","type":"string"},{"internalType":"uint256","name":"_class","type":"uint256"}],"name":"searchStudent","outputs":[],"stateMutability":"nonpayable","type":"function"},{"inputs":[{"internalType":"uint256","name":"_class","type":"uint256"}],"name":"viewClassTimeTable","outputs":[{"internalType":"string","name":"timeTableFile","type":"string"},{"internalType":"uint256","name":"uploadTime","type":"uint256"}],"stateMutability":"view","type":"function"},{"inputs":[{"internalType":"uint256","name":"_class","type":"uint256"}],"name":"viewExamTimeTable","outputs":[{"internalType":"string","name":"timeTableFile","type":"string"},{"internalType":"uint256","name":"uploadTime","type":"uint256"}],"stateMutability":"view","type":"function"}],"bytecode":"60806040523480156200001157600080fd5b5060405162003558380380620035588339810160408190526200003491620000b1565b600080546001600160a01b03199081166001600160a01b039687161790915560018054821694861694909417909355600280548416928516929092179091556003805483169190931617909155600480543392169190911790556200010e565b80516001600160a01b0381168114620000ac57600080fd5b919050565b60008060008060808587031215620000c857600080fd5b620000d38562000094565b9350620000e36020860162000094565b9250620000f36040860162000094565b9150620001036060860162000094565b905092959194509250565b61343a806200011e6000396000f3fe608060405234801561001057600080fd5b50600436106102115760003560e01c806380f7cdce11610125578063c42f4ff0116100ad578063d6e546271161007c578063d6e54627146104f2578063d81d770414610505578063d83463c914610518578063f15ec62d1461052b578063f851a4401461055057600080fd5b8063c42f4ff014610497578063c4cdc4b6146104aa578063c7c62f6f146104cc578063d4cb7cf3146104df57600080fd5b8063ab236dc9116100f4578063ab236dc914610442578063b93a694214610455578063bf452c591461045e578063c010f05014610471578063c29871d71461048457600080fd5b806380f7cdce146103c85780638322f556146103e95780639cdf2316146103fc578063a44675c91461042057600080fd5b806347f9009e116101a85780635f3a3cf1116101775780635f3a3cf11461034a57806361920ee11461035d57806361dea39314610381578063737892b2146103a25780637c663e4d146103b557600080fd5b806347f9009e146102d45780634bdce352146103025780634d7b41391461032457806358e2af961461033757600080fd5b8063299f81e0116101e4578063299f81e01461028f57806329ee6be1146102a257806341e0c407146102b9578063469ff627146102c157600080fd5b80630c96262d1461021657806312506f4d1461022b57806323415c111461025857806328973f6c1461027c575b600080fd5b61022961022436600461220a565b61057b565b005b61023e610239366004612276565b610619565b60405161024f9594939291906122e7565b60405180910390f35b61026b610266366004612276565b6106d2565b60405161024f959493929190612354565b61022961028a3660046123a7565b610779565b61022961029d3660046123d9565b61081d565b6102ab60065481565b60405190815260200161024f565b6102ab61087d565b61023e6102cf366004612276565b610928565b6102e76102e2366004612276565b61098e565b6040805193845260208401929092529082015260600161024f565b610315610310366004612276565b610a39565b60405161024f9392919061246a565b6102ab61033236600461248f565b610bd1565b6102296103453660046124b1565b610c79565b61022961035836600461258a565b610d17565b61037061036b366004612276565b610db2565b60405161024f95949392919061260a565b61039461038f366004612276565b611041565b60405161024f929190612658565b6102ab6103b0366004612276565b6110ea565b6102296103c3366004612686565b611161565b6103db6103d6366004612276565b611213565b60405161024f9291906126dd565b6103db6103f73660046126ff565b611513565b61040f61040a366004612276565b61159b565b60405161024f959493929190612762565b61043361042e366004612276565b611642565b60405161024f93929190612799565b6102296104503660046127b8565b6117cc565b6102ab60055481565b61022961046c366004612851565b611881565b61022961047f36600461287d565b61194b565b6102296104923660046124b1565b611981565b6102296104a53660046128e0565b6119e5565b6104bd6104b8366004612276565b611a49565b60405161024f93929190612984565b6103db6104da366004612276565b611aeb565b6102296104ed3660046129c7565b611cfa565b610229610500366004612ac6565b611d9b565b610229610513366004612b0a565b611efd565b610229610526366004612b70565b611fdc565b61053e610539366004612276565b61208b565b60405161024f96959493929190612bbf565b600454610563906001600160a01b031681565b6040516001600160a01b03909116815260200161024f565b6004546001600160a01b031633146105ae5760405162461bcd60e51b81526004016105a590612c41565b60405180910390fd5b600054604051630c96262d60e01b81526001600160a01b0390911690630c96262d906105e290869086908690600401612c70565b600060405180830381600087803b1580156105fc57600080fd5b505af1158015610610573d6000803e3d6000fd5b50505050505050565b60045460609081908190819081906001600160a01b0316331461064e5760405162461bcd60e51b81526004016105a590612c41565b60005460405163126ea08560e31b8152600481018890526001600160a01b03909116906393750428906024015b600060405180830381865afa158015610698573d6000803e3d6000fd5b505050506040513d6000823e601f3d908101601f191682016040526106c09190810190612ce8565b939a9299509097509550909350915050565b6004546060908190819060009082906001600160a01b031633146107085760405162461bcd60e51b81526004016105a590612c41565b6000546040516370cfa98560e01b8152600481018890526001600160a01b03909116906370cfa98590602401600060405180830381865afa158015610751573d6000803e3d6000fd5b505050506040513d6000823e601f3d908101601f191682016040526106c09190810190612dac565b6004546001600160a01b031633146107a35760405162461bcd60e51b81526004016105a590612c41565b600054604051630a25cfdb60e21b8152600481018690526024810185905260448101849052606481018390526001600160a01b03909116906328973f6c906084015b600060405180830381600087803b1580156107ff57600080fd5b505af1158015610813573d6000803e3d6000fd5b5050505050505050565b6004546001600160a01b031633146108475760405162461bcd60e51b81526004016105a590612c41565b60005460405163014cfc0f60e51b81526001600160a01b039091169063299f81e0906107e5908790879087908790600401612e48565b6004546000906001600160a01b031633146108aa5760405162461bcd60e51b81526004016105a590612c41565b60008060009054906101000a90046001600160a01b03166001600160a01b031663e581f9ee6040518163ffffffff1660e01b8152600401602060405180830381865afa1580156108fe573d6000803e3d6000fd5b505050506040513d601f19601f820116820180604052508101906109229190612e92565b91505090565b60045460609081908190819081906001600160a01b0316331461095d5760405162461bcd60e51b81526004016105a590612c41565b60005460405163b1e6328d60e01b8152600481018890526001600160a01b039091169063b1e6328d9060240161067b565b600454600090819081906001600160a01b031633146109bf5760405162461bcd60e51b81526004016105a590612c41565b6000546040516330267d3160e11b8152600481018690526001600160a01b039091169063604cfa6290602401606060405180830381865afa158015610a08573d6000803e3d6000fd5b505050506040513d601f19601f82011682018060405250810190610a2c9190612eab565b9250925092509193909250565b60045460609060009081906001600160a01b03163314610a6b5760405162461bcd60e51b81526004016105a590612c41565b6001546040516369e5ae0f60e01b8152600481018690526000916001600160a01b0316906369e5ae0f90602401600060405180830381865afa158015610ab5573d6000803e3d6000fd5b505050506040513d6000823e601f3d908101601f19168201604052610add9190810190612ed9565b60015460405163c493adc760e01b8152600481018890529192506000916001600160a01b039091169063c493adc790602401602060405180830381865afa158015610b2c573d6000803e3d6000fd5b505050506040513d601f19601f82011682018060405250810190610b509190612e92565b60015460405163077f807f60e01b8152600481018990529192506000916001600160a01b039091169063077f807f90602401602060405180830381865afa158015610b9f573d6000803e3d6000fd5b505050506040513d601f19601f82011682018060405250810190610bc39190612e92565b929791965091945092505050565b6004546000906001600160a01b03163314610bfe5760405162461bcd60e51b81526004016105a590612c41565b600354604051634d7b413960e01b815260048101859052602481018490526001600160a01b0390911690634d7b413990604401602060405180830381865afa158015610c4e573d6000803e3d6000fd5b505050506040513d601f19601f82011682018060405250810190610c729190612e92565b9392505050565b6004546001600160a01b03163314610ca35760405162461bcd60e51b81526004016105a590612c41565b600054604051632c7157cb60e11b81526001600160a01b03909116906358e2af9690610cdd90899089908990899089908990600401612f0d565b600060405180830381600087803b158015610cf757600080fd5b505af1158015610d0b573d6000803e3d6000fd5b50505050505050505050565b6004546001600160a01b03163314610d415760405162461bcd60e51b81526004016105a590612c41565b600054604051635f3a3cf160e01b81526001600160a01b0390911690635f3a3cf190610d799088908890889088908890600401612f38565b600060405180830381600087803b158015610d9357600080fd5b505af1158015610da7573d6000803e3d6000fd5b505050505050505050565b6004546060908190819060009081906001600160a01b03163314610de85760405162461bcd60e51b81526004016105a590612c41565b600154604051630a18baf360e21b8152600481018890526000916001600160a01b031690632862ebcc90602401600060405180830381865afa158015610e32573d6000803e3d6000fd5b505050506040513d6000823e601f3d908101601f19168201604052610e5a9190810190612ed9565b600154604051635eb86b9560e01b8152600481018a90529192506000916001600160a01b0390911690635eb86b9590602401600060405180830381865afa158015610ea9573d6000803e3d6000fd5b505050506040513d6000823e601f3d908101601f19168201604052610ed19190810190612ed9565b60015460405163ecde140560e01b8152600481018b90529192506000916001600160a01b039091169063ecde140590602401600060405180830381865afa158015610f20573d6000803e3d6000fd5b505050506040513d6000823e601f3d908101601f19168201604052610f489190810190612ed9565b600154604051637dfa364960e01b8152600481018c90529192506000916001600160a01b0390911690637dfa364990602401602060405180830381865afa158015610f97573d6000803e3d6000fd5b505050506040513d601f19601f82011682018060405250810190610fbb9190612e92565b6001546040516367379d4960e11b8152600481018d90529192506000916001600160a01b039091169063ce6f3a9290602401602060405180830381865afa15801561100a573d6000803e3d6000fd5b505050506040513d601f19601f8201168201806040525081019061102e9190612e92565b949b939a50919850965091945092505050565b60045460609081906001600160a01b031633146110705760405162461bcd60e51b81526004016105a590612c41565b600054604051632c324bfb60e11b8152600481018590526001600160a01b039091169063586497f690602401600060405180830381865afa1580156110b9573d6000803e3d6000fd5b505050506040513d6000823e601f3d908101601f191682016040526110e19190810190612f6f565b91509150915091565b6004546000906001600160a01b031633146111175760405162461bcd60e51b81526004016105a590612c41565b600080546040516339bc495960e11b8152600481018590526001600160a01b039091169063737892b290602401602060405180830381865afa158015610c4e573d6000803e3d6000fd5b600154604051637c663e4d60e01b81526000916001600160a01b031690637c663e4d90611198908890889088908890600401612fc8565b6020604051808303816000875af11580156111b7573d6000803e3d6000fd5b505050506040513d601f19601f820116820180604052508101906111db9190612e92565b90508185827f60cf56e8cd40d30413f6042836cfd24582eaf95589047f0883aa7209ffee9e3360405160405180910390a45050505050565b6004546060906000906001600160a01b031633146112435760405162461bcd60e51b81526004016105a590612c41565b6001546040805163f57c649160e01b815290516000926001600160a01b03169163f57c64919160048083019260209291908290030181865afa15801561128d573d6000803e3d6000fd5b505050506040513d601f19601f820116820180604052508101906112b19190612e92565b9050805b80156114dc576001546040516369d5213b60e01b81526004810183905286916001600160a01b0316906369d5213b90602401602060405180830381865afa158015611304573d6000803e3d6000fd5b505050506040513d601f19601f820116820180604052508101906113289190612e92565b1480156113db575060408051600081526020810191829052805182206001546361590d5560e01b90935260248201849052916001600160a01b0316906361590d5590604401600060405180830381865afa15801561138a573d6000803e3d6000fd5b505050506040513d6000823e601f3d908101601f191682016040526113b29190810190612ed9565b6040516020016113c29190612ff8565b6040516020818303038152906040528051906020012014155b156114ca57600154604051634273db4960e11b8152600481018390526001600160a01b03909116906384e7b692906024015b600060405180830381865afa15801561142a573d6000803e3d6000fd5b505050506040513d6000823e601f3d908101601f191682016040526114529190810190612ed9565b600154604051634a0c230360e11b8152600481018490526001600160a01b0390911690639418460690602401602060405180830381865afa15801561149b573d6000803e3d6000fd5b505050506040513d601f19601f820116820180604052508101906114bf9190612e92565b935093505050915091565b806114d48161302a565b9150506112b5565b5050604080518082019091526014815273151a5b59481d18589b19481b9bdd08199bdd5b9960621b60208201529360009350915050565b6002546040516341917aab60e11b81526060916000916001600160a01b0390911690638322f5569061154b9087908790600401612658565b600060405180830381865afa158015611568573d6000803e3d6000fd5b505050506040513d6000823e601f3d908101601f191682016040526115909190810190613041565b909590945092505050565b6004546060906000908190819084906001600160a01b031633146115d15760405162461bcd60e51b81526004016105a590612c41565b600054604051630c3a356b60e11b8152600481018890526001600160a01b03909116906318746ad690602401600060405180830381865afa15801561161a573d6000803e3d6000fd5b505050506040513d6000823e601f3d908101601f191682016040526106c09190810190613087565b60045460009081906060906001600160a01b031633146116745760405162461bcd60e51b81526004016105a590612c41565b600154604051633cd9996960e11b8152600481018690526000916001600160a01b0316906379b332d290602401602060405180830381865afa1580156116be573d6000803e3d6000fd5b505050506040513d601f19601f820116820180604052508101906116e29190612e92565b60015460405163c7e674f160e01b8152600481018890529192506000916001600160a01b039091169063c7e674f190602401602060405180830381865afa158015611731573d6000803e3d6000fd5b505050506040513d601f19601f820116820180604052508101906117559190612e92565b600154604051636338c89f60e01b8152600481018990529192506000916001600160a01b0390911690636338c89f90602401600060405180830381865afa1580156117a4573d6000803e3d6000fd5b505050506040513d6000823e601f3d908101601f19168201604052610bc39190810190612ed9565b60015460405163ab236dc960e01b81526000916001600160a01b03169063ab236dc99061180590899089908990899089906004016130ed565b6020604051808303816000875af1158015611824573d6000803e3d6000fd5b505050506040513d601f19601f820116820180604052508101906118489190612e92565b90508186827f289ec7e79a70db9e5a21c4aa4bc91de5745406fdc5fa52a91224e0f0e8d674af60405160405180910390a4505050505050565b6004546001600160a01b031633146118ab5760405162461bcd60e51b81526004016105a590612c41565b60035460405163bf452c5960e01b81526004810185905260248101849052604481018390526001600160a01b039091169063bf452c5990606401600060405180830381600087803b1580156118ff57600080fd5b505af1158015611913573d6000803e3d6000fd5b505050508082847f3c00a957d8b0ed88bf0ad892175a6f1b9fa89360787136e23a2ffbc5dc0baaf960405160405180910390a4505050565b600154604051630c010f0560e41b81526001600160a01b039091169063c010f050906107e590879087908790879060040161313f565b6004546001600160a01b031633146119ab5760405162461bcd60e51b81526004016105a590612c41565b60005460405163c29871d760e01b81526001600160a01b039091169063c29871d790610cdd90899089908990899089908990600401612f0d565b6004546001600160a01b03163314611a0f5760405162461bcd60e51b81526004016105a590612c41565b600054604051630c42f4ff60e41b81526001600160a01b039091169063c42f4ff090610cdd9089908990899089908990899060040161317c565b600454606090819081906001600160a01b03163314611a7a5760405162461bcd60e51b81526004016105a590612c41565b60005460405163670a344760e11b8152600481018690526001600160a01b039091169063ce14688e90602401600060405180830381865afa158015611ac3573d6000803e3d6000fd5b505050506040513d6000823e601f3d908101601f19168201604052610a2c91908101906131d5565b6004546060906000906001600160a01b03163314611b1b5760405162461bcd60e51b81526004016105a590612c41565b6001546040805163f57c649160e01b815290516000926001600160a01b03169163f57c64919160048083019260209291908290030181865afa158015611b65573d6000803e3d6000fd5b505050506040513d601f19601f82011682018060405250810190611b899190612e92565b9050805b80156114dc576001546040516369d5213b60e01b81526004810183905286916001600160a01b0316906369d5213b90602401602060405180830381865afa158015611bdc573d6000803e3d6000fd5b505050506040513d601f19601f82011682018060405250810190611c009190612e92565b148015611cb2575060408051600081526020810191829052805182206001546361590d5560e01b90935260248201849052916001600160a01b0316906361590d5590604401600060405180830381865afa158015611c62573d6000803e3d6000fd5b505050506040513d6000823e601f3d908101601f19168201604052611c8a9190810190612ed9565b604051602001611c9a9190612ff8565b60405160208183030381529060405280519060200120145b15611ce857600154604051634273db4960e11b8152600481018390526001600160a01b03909116906384e7b6929060240161140d565b80611cf28161302a565b915050611b8d565b6004546001600160a01b03163314611d245760405162461bcd60e51b81526004016105a590612c41565b60005460405163d4cb7cf360e01b81526001600160a01b039091169063d4cb7cf390611d60908a908a908a908a908a908a908a90600401613252565b600060405180830381600087803b158015611d7a57600080fd5b505af1158015611d8e573d6000803e3d6000fd5b5050505050505050505050565b6004546001600160a01b03163314611dc55760405162461bcd60e51b81526004016105a590612c41565b6000611dcf61087d565b905060015b818111611ef75760008054604051630c3a356b60e11b815260048101849052829182916001600160a01b03909116906318746ad690602401600060405180830381865afa158015611e29573d6000803e3d6000fd5b505050506040513d6000823e601f3d908101601f19168201604052611e519190810190613087565b509350935050925086604051602001611e6a9190612ff8565b6040516020818303038152906040528051906020012083604051602001611e919190612ff8565b6040516020818303038152906040528051906020012003611ee157858103611ee157604051829085907f78a5f595baa9b25b7a730211c5cf18e46d8c54f6cd7558ab36ff8ef5cf76d19e90600090a35b5050508080611eef906132db565b915050611dd4565b50505050565b6004546001600160a01b03163314611f275760405162461bcd60e51b81526004016105a590612c41565b600080546040516336075dc160e21b81526001600160a01b039091169063d81d770490611f609089908990899089908990600401612762565b6020604051808303816000875af1158015611f7f573d6000803e3d6000fd5b505050506040513d601f19601f82011682018060405250810190611fa39190612e92565b90508284827f8914be557f12c8b4ec80d2de1bbd0ce352f4e74dae0fc548a0fd56ac07b6604460405160405180910390a4505050505050565b60015460405163d83463c960e01b81526000916001600160a01b03169063d83463c990612011908790879087906004016132f4565b6020604051808303816000875af1158015612030573d6000803e3d6000fd5b505050506040513d601f19601f820116820180604052508101906120549190612e92565b90508181857f0ad6d3adecc8b5201d9897b24894ee0092797e79be758b09f0df6eecb2d105b960405160405180910390a450505050565b600454606090819081908190819081906001600160a01b031633146120c25760405162461bcd60e51b81526004016105a590612c41565b6000546040516310eb2cf960e31b8152600481018990526001600160a01b039091169063875967c890602401600060405180830381865afa15801561210b573d6000803e3d6000fd5b505050506040513d6000823e601f3d908101601f19168201604052612133919081019061331d565b949c939b5091995097509550909350915050565b634e487b7160e01b600052604160045260246000fd5b604051601f8201601f191681016001600160401b038111828210171561218557612185612147565b604052919050565b60006001600160401b038211156121a6576121a6612147565b50601f01601f191660200190565b600082601f8301126121c557600080fd5b81356121d86121d38261218d565b61215d565b8181528460208386010111156121ed57600080fd5b816020850160208301376000918101602001919091529392505050565b60008060006060848603121561221f57600080fd5b8335925060208401356001600160401b038082111561223d57600080fd5b612249878388016121b4565b9350604086013591508082111561225f57600080fd5b5061226c868287016121b4565b9150509250925092565b60006020828403121561228857600080fd5b5035919050565b60005b838110156122aa578181015183820152602001612292565b83811115611ef75750506000910152565b600081518084526122d381602086016020860161228f565b601f01601f19169290920160200192915050565b60a0815260006122fa60a08301886122bb565b828103602084015261230c81886122bb565b9050828103604084015261232081876122bb565b9050828103606084015261233481866122bb565b9050828103608084015261234881856122bb565b98975050505050505050565b60a08152600061236760a08301886122bb565b828103602084015261237981886122bb565b9050828103604084015261238d81876122bb565b9050846060840152828103608084015261234881856122bb565b600080600080608085870312156123bd57600080fd5b5050823594602084013594506040840135936060013592509050565b600080600080608085870312156123ef57600080fd5b8435935060208501356001600160401b038082111561240d57600080fd5b612419888389016121b4565b9450604087013591508082111561242f57600080fd5b61243b888389016121b4565b9350606087013591508082111561245157600080fd5b5061245e878288016121b4565b91505092959194509250565b60608152600061247d60608301866122bb565b60208301949094525060400152919050565b600080604083850312156124a257600080fd5b50508035926020909101359150565b60008060008060008060c087890312156124ca57600080fd5b8635955060208701356001600160401b03808211156124e857600080fd5b6124f48a838b016121b4565b9650604089013591508082111561250a57600080fd5b6125168a838b016121b4565b9550606089013591508082111561252c57600080fd5b6125388a838b016121b4565b9450608089013591508082111561254e57600080fd5b61255a8a838b016121b4565b935060a089013591508082111561257057600080fd5b5061257d89828a016121b4565b9150509295509295509295565b600080600080600060a086880312156125a257600080fd5b8535945060208601356001600160401b03808211156125c057600080fd5b6125cc89838a016121b4565b9550604088013594506060880135935060808801359150808211156125f057600080fd5b506125fd888289016121b4565b9150509295509295909350565b60a08152600061261d60a08301886122bb565b828103602084015261262f81886122bb565b9050828103604084015261264381876122bb565b60608401959095525050608001529392505050565b60408152600061266b60408301856122bb565b828103602084015261267d81856122bb565b95945050505050565b6000806000806080858703121561269c57600080fd5b843593506020850135925060408501356001600160401b038111156126c057600080fd5b6126cc878288016121b4565b949793965093946060013593505050565b6040815260006126f060408301856122bb565b90508260208301529392505050565b6000806040838503121561271257600080fd5b82356001600160401b038082111561272957600080fd5b612735868387016121b4565b9350602085013591508082111561274b57600080fd5b50612758858286016121b4565b9150509250929050565b60a08152600061277560a08301886122bb565b866020840152856040840152846060840152828103608084015261234881856122bb565b83815282602082015260606040820152600061267d60608301846122bb565b600080600080600060a086880312156127d057600080fd5b8535945060208601356001600160401b03808211156127ee57600080fd5b6127fa89838a016121b4565b9550604088013591508082111561281057600080fd5b61281c89838a016121b4565b9450606088013591508082111561283257600080fd5b5061283f888289016121b4565b95989497509295608001359392505050565b60008060006060848603121561286657600080fd5b505081359360208301359350604090920135919050565b6000806000806080858703121561289357600080fd5b8435935060208501356001600160401b03808211156128b157600080fd5b6128bd888389016121b4565b945060408701359150808211156128d357600080fd5b506126cc878288016121b4565b60008060008060008060c087890312156128f957600080fd5b8635955060208701356001600160401b038082111561291757600080fd5b6129238a838b016121b4565b9650604089013591508082111561293957600080fd5b6129458a838b016121b4565b9550606089013591508082111561295b57600080fd5b6129678a838b016121b4565b94506080890135935060a089013591508082111561257057600080fd5b60608152600061299760608301866122bb565b82810360208401526129a981866122bb565b905082810360408401526129bd81856122bb565b9695505050505050565b600080600080600080600060e0888a0312156129e257600080fd5b8735965060208801356001600160401b0380821115612a0057600080fd5b612a0c8b838c016121b4565b975060408a0135915080821115612a2257600080fd5b612a2e8b838c016121b4565b965060608a0135915080821115612a4457600080fd5b612a508b838c016121b4565b955060808a0135915080821115612a6657600080fd5b612a728b838c016121b4565b945060a08a0135915080821115612a8857600080fd5b612a948b838c016121b4565b935060c08a0135915080821115612aaa57600080fd5b50612ab78a828b016121b4565b91505092959891949750929550565b60008060408385031215612ad957600080fd5b82356001600160401b03811115612aef57600080fd5b612afb858286016121b4565b95602094909401359450505050565b600080600080600060a08688031215612b2257600080fd5b85356001600160401b0380821115612b3957600080fd5b612b4589838a016121b4565b965060208801359550604088013594506060880135935060808801359150808211156125f057600080fd5b600080600060608486031215612b8557600080fd5b8335925060208401356001600160401b03811115612ba257600080fd5b612bae868287016121b4565b925050604084013590509250925092565b60c081526000612bd260c08301896122bb565b8281036020840152612be481896122bb565b90508281036040840152612bf881886122bb565b90508281036060840152612c0c81876122bb565b90508281036080840152612c2081866122bb565b905082810360a0840152612c3481856122bb565b9998505050505050505050565b6020808252601590820152742cb7ba9030b932903737ba103a34329030b236b4b760591b604082015260600190565b838152606060208201526000612c8960608301856122bb565b82810360408401526129bd81856122bb565b600082601f830112612cac57600080fd5b8151612cba6121d38261218d565b818152846020838601011115612ccf57600080fd5b612ce082602083016020870161228f565b949350505050565b600080600080600060a08688031215612d0057600080fd5b85516001600160401b0380821115612d1757600080fd5b612d2389838a01612c9b565b96506020880151915080821115612d3957600080fd5b612d4589838a01612c9b565b95506040880151915080821115612d5b57600080fd5b612d6789838a01612c9b565b94506060880151915080821115612d7d57600080fd5b612d8989838a01612c9b565b93506080880151915080821115612d9f57600080fd5b506125fd88828901612c9b565b600080600080600060a08688031215612dc457600080fd5b85516001600160401b0380821115612ddb57600080fd5b612de789838a01612c9b565b96506020880151915080821115612dfd57600080fd5b612e0989838a01612c9b565b95506040880151915080821115612e1f57600080fd5b612e2b89838a01612c9b565b9450606088015193506080880151915080821115612d9f57600080fd5b848152608060208201526000612e6160808301866122bb565b8281036040840152612e7381866122bb565b90508281036060840152612e8781856122bb565b979650505050505050565b600060208284031215612ea457600080fd5b5051919050565b600080600060608486031215612ec057600080fd5b8351925060208401519150604084015190509250925092565b600060208284031215612eeb57600080fd5b81516001600160401b03811115612f0157600080fd5b612ce084828501612c9b565b86815260c060208201526000612f2660c08301886122bb565b8281036040840152612bf881886122bb565b85815260a060208201526000612f5160a08301876122bb565b856040840152846060840152828103608084015261234881856122bb565b60008060408385031215612f8257600080fd5b82516001600160401b0380821115612f9957600080fd5b612fa586838701612c9b565b93506020850151915080821115612fbb57600080fd5b5061275885828601612c9b565b848152836020820152608060408201526000612fe760808301856122bb565b905082606083015295945050505050565b6000825161300a81846020870161228f565b9190910192915050565b634e487b7160e01b600052601160045260246000fd5b60008161303957613039613014565b506000190190565b6000806040838503121561305457600080fd5b82516001600160401b0381111561306a57600080fd5b61307685828601612c9b565b925050602083015190509250929050565b600080600080600060a0868803121561309f57600080fd5b85516001600160401b03808211156130b657600080fd5b6130c289838a01612c9b565b96506020880151955060408801519450606088015193506080880151915080821115612d9f57600080fd5b85815260a06020820152600061310660a08301876122bb565b828103604084015261311881876122bb565b9050828103606084015261312c81866122bb565b9150508260808301529695505050505050565b84815260806020820152600061315860808301866122bb565b828103604084015261316a81866122bb565b91505082606083015295945050505050565b86815260c06020820152600061319560c08301886122bb565b82810360408401526131a781886122bb565b905082810360608401526131bb81876122bb565b905084608084015282810360a0840152612c3481856122bb565b6000806000606084860312156131ea57600080fd5b83516001600160401b038082111561320157600080fd5b61320d87838801612c9b565b9450602086015191508082111561322357600080fd5b61322f87838801612c9b565b9350604086015191508082111561324557600080fd5b5061226c86828701612c9b565b87815260e06020820152600061326b60e08301896122bb565b828103604084015261327d81896122bb565b9050828103606084015261329181886122bb565b905082810360808401526132a581876122bb565b905082810360a08401526132b981866122bb565b905082810360c08401526132cd81856122bb565b9a9950505050505050505050565b6000600182016132ed576132ed613014565b5060010190565b83815260606020820152600061330d60608301856122bb565b9050826040830152949350505050565b60008060008060008060c0878903121561333657600080fd5b86516001600160401b038082111561334d57600080fd5b6133598a838b01612c9b565b9750602089015191508082111561336f57600080fd5b61337b8a838b01612c9b565b9650604089015191508082111561339157600080fd5b61339d8a838b01612c9b565b955060608901519150808211156133b357600080fd5b6133bf8a838b01612c9b565b945060808901519150808211156133d557600080fd5b6133e18a838b01612c9b565b935060a08901519150808211156133f757600080fd5b5061257d89828a01612c9b56fea264697066735822122028fc6ac75447e7df785c7251f3d2a3413f2c9f1cbb61c45aefb1834930045a8164736f6c634300080f0033","bytecodeSha1":"ad026aca7ad293beb352dabba10bd1baac71467e","compiler":{"evm_version":"istanbul","optimizer":{"enabled":true,"runs":200},"version":"0.8.15+commit.e14f2714"},"contractName":"SchoolAdmin","language":"Solidity","natspec":{"kind":"dev","methods":{},"version":1},"opcodes":"PUSH1 0x80 PUSH1 0x40 MSTORE CALLVALUE DUP1 ISZERO PUSH2 0x10 JUMPI PUSH1 0x0 DUP1 REVERT JUMPDEST POP PUSH1 0x4 CALLDATASIZE LT PUSH2 0x211 JUMPI PUSH1 0x0 CALLDATALOAD PUSH1 0xE0 SHR DUP1 PUSH4 0x80F7CDCE GT PUSH2 0x125 JUMPI DUP1 PUSH4 0xC42F4FF0 GT PUSH2 0xAD JUMPI DUP1 PUSH4 0xD6E54627 GT PUSH2 0x7C JUMPI DUP1 PUSH4 0xD6E54627 EQ PUSH2 0x4F2 JUMPI DUP1 PUSH4 0xD81D7704 EQ PUSH2 0x505 JUMPI DUP1 PUSH4 0xD83463C9 EQ PUSH2 0x518 JUMPI DUP1 PUSH4 0xF15EC62D EQ PUSH2 0x52B JUMPI DUP1 PUSH4 0xF851A440 EQ PUSH2 0x550 JUMPI PUSH1 0x0 DUP1 REVERT JUMPDEST DUP1 PUSH4 0xC42F4FF0 EQ PUSH2 0x497 JUMPI DUP1 PUSH4 0xC4CDC4B6 EQ PUSH2 0x4AA JUMPI DUP1 PUSH4 0xC7C62F6F EQ PUSH2 0x4CC JUMPI DUP1 PUSH4 0xD4CB7CF3 EQ PUSH2 0x4DF JUMPI PUSH1 0x0 DUP1 REVERT JUMPDEST DUP1 PUSH4 0xAB236DC9 GT PUSH2 0xF4 JUMPI DUP1 PUSH4 0xAB236DC9 EQ PUSH2 0x442 JUMPI DUP1 PUSH4 0xB93A6942 EQ PUSH2 0x455 JUMPI DUP1 PUSH4 0xBF452C59 EQ PUSH2 0x45E JUMPI DUP1 PUSH4 0xC010F050 EQ PUSH2 0x471 JUMPI DUP1 PUSH4 0xC29871D7 EQ PUSH2 0x484 JUMPI PUSH1 0x0 DUP1 REVERT JUMPDEST DUP1 PUSH4 0x80F7CDCE EQ PUSH2 0x3C8 JUMPI DUP1 PUSH4 0x8322F556 EQ PUSH2 0x3E9 JUMPI DUP1 PUSH4 0x9CDF2316 EQ PUSH2 0x3FC JUMPI DUP1 PUSH4 0xA44675C9 EQ PUSH2 0x420 JUMPI PUSH1 0x0 DUP1 REVERT JUMPDEST DUP1 PUSH4 0x47F9009E GT PUSH2 0x1A8 JUMPI DUP1 PUSH4 0x5F3A3CF1 GT PUSH2 0x177 JUMPI DUP1 PUSH4 0x5F3A3CF1 EQ PUSH2 0x34A JUMPI DUP1 PUSH4 0x61920EE1 EQ PUSH2 0x35D JUMPI DUP1 PUSH4 0x61DEA393 EQ PUSH2 0x381 JUMPI DUP1 PUSH4 0x737892B2 EQ PUSH2 0x3A2 JUMPI DUP1 PUSH4 0x7C663E4D EQ PUSH2 0x3B5 JUMPI PUSH1 0x0 DUP1 REVERT JUMPDEST DUP1 PUSH4 0x47F9009E EQ PUSH2 0x2D4 JUMPI DUP1 PUSH4 0x4BDCE352 EQ PUSH2 0x302 JUMPI DUP1 PUSH4 0x4D7B4139 EQ PUSH2 0x324 JUMPI DUP1 PUSH4 0x58E2AF96 EQ PUSH2 0x337 JUMPI PUSH1 0x0 DUP1 REVERT JUMPDEST DUP1 PUSH4 0x299F81E0 GT PUSH2 0x1E4 JUMPI DUP1 PUSH4 0x299F81E0 EQ PUSH2 0x28F JUMPI DUP1 PUSH4 0x29EE6BE1 EQ PUSH2 0x2A2 JUMPI DUP1 PUSH4 0x41E0C407 EQ PUSH2 0x2B9 JUMPI DUP1 PUSH4 0x469FF627 EQ PUSH2 0x2C1 JUMPI PUSH1 0x0 DUP1 REVERT JUMPDEST DUP1 PUSH4 0xC96262D EQ PUSH2 0x216 JUMPI DUP1 PUSH4 0x12506F4D EQ PUSH2 0x22B JUMPI DUP1 PUSH4 0x23415C11 EQ PUSH2 0x258 JUMPI DUP1 PUSH4 0x28973F6C EQ PUSH2 0x27C JUMPI JUMPDEST PUSH1 0x0 DUP1 REVERT JUMPDEST PUSH2 0x229 PUSH2 0x224 CALLDATASIZE PUSH1 0x4 PUSH2 0x220A JUMP JUMPDEST PUSH2 0x57B JUMP JUMPDEST STOP JUMPDEST PUSH2 0x23E PUSH2 0x239 CALLDATASIZE PUSH1 0x4 PUSH2 0x2276 JUMP JUMPDEST PUSH2 0x619 JUMP JUMPDEST PUSH1 0x40 MLOAD PUSH2 0x24F SWAP6 SWAP5 SWAP4 SWAP3 SWAP2 SWAP1 PUSH2 0x22E7 JUMP JUMPDEST PUSH1 0x40 MLOAD DUP1 SWAP2 SUB SWAP1 RETURN JUMPDEST PUSH2 0x26B PUSH2 0x266 CALLDATASIZE PUSH1 0x4 PUSH2 0x2276 JUMP JUMPDEST PUSH2 0x6D2 JUMP JUMPDEST PUSH1 0x40 MLOAD PUSH2 0x24F SWAP6 SWAP5 SWAP4 SWAP3 SWAP2 SWAP1 PUSH2 0x2354 JUMP JUMPDEST PUSH2 0x229 PUSH2 0x28A CALLDATASIZE PUSH1 0x4 PUSH2 0x23A7 JUMP JUMPDEST PUSH2 0x779 JUMP JUMPDEST PUSH2 0x229 PUSH2 0x29D CALLDATASIZE PUSH1 0x4 PUSH2 0x23D9 JUMP JUMPDEST PUSH2 0x81D JUMP JUMPDEST PUSH2 0x2AB PUSH1 0x6 SLOAD DUP2 JUMP JUMPDEST PUSH1 0x40 MLOAD SWAP1 DUP2 MSTORE PUSH1 0x20 ADD PUSH2 0x24F JUMP JUMPDEST PUSH2 0x2AB PUSH2 0x87D JUMP JUMPDEST PUSH2 0x23E PUSH2 0x2CF CALLDATASIZE PUSH1 0x4 PUSH2 0x2276 JUMP JUMPDEST PUSH2 0x928 JUMP JUMPDEST PUSH2 0x2E7 PUSH2 0x2E2 CALLDATASIZE PUSH1 0x4 PUSH2 0x2276 JUMP JUMPDEST PUSH2 0x98E JUMP JUMPDEST PUSH1 0x40 DUP1 MLOAD SWAP4 DUP5 MSTORE PUSH1 0x20 DUP5 ADD SWAP3 SWAP1 SWAP3 MSTORE SWAP1 DUP3 ADD MSTORE PUSH1 0x60 ADD PUSH2 0x24F JUMP JUMPDEST PUSH2 0x315 PUSH2 0x310 CALLDATASIZE PUSH1 0x4 PUSH2 0x2276 JUMP JUMPDEST PUSH2 0xA39 JUMP JUMPDEST PUSH1 0x40 MLOAD PUSH2 0x24F SWAP4 SWAP3 SWAP2 SWAP1 PUSH2 0x246A JUMP JUMPDEST PUSH2 0x2AB PUSH2 0x332 CALLDATASIZE PUSH1 0x4 PUSH2 0x248F JUMP JUMPDEST PUSH2 0xBD1 JUMP JUMPDEST PUSH2 0x229 PUSH2 0x345 CALLDATASIZE PUSH1 0x4 PUSH2 0x24B1 JUMP JUMPDEST PUSH2 0xC79 JUMP JUMPDEST PUSH2 0x229 PUSH2 0x358 CALLDATASIZE PUSH1 0x4 PUSH2 0x258A JUMP JUMPDEST PUSH2 0xD17 JUMP JUMPDEST PUSH2 0x370 PUSH2 0x36B CALLDATASIZE PUSH1 0x4 PUSH2 0x2276 JUMP JUMPDEST PUSH2 0xDB2 JUMP JUMPDEST PUSH1 0x40 MLOAD PUSH2 0x24F SWAP6 SWAP5 SWAP4 SWAP3 SWAP2 SWAP1 PUSH2 0x260A JUMP JUMPDEST PUSH2 0x394 PUSH2 0x38F CALLDATASIZE PUSH1 0x4 PUSH2 0x2276 JUMP JUMPDEST PUSH2 0x1041 JUMP JUMPDEST PUSH1 0x40 MLOAD PUSH2 0x24F SWAP3 SWAP2 SWAP1 PUSH2 0x2658 JUMP JUMPDEST PUSH2 0x2AB PUSH2 0x3B0 CALLDATASIZE PUSH1 0x4 PUSH2 0x2276 JUMP JUMPDEST PUSH2 0x10EA JUMP JUMPDEST PUSH2 0x229 PUSH2 0x3C3 CALLDATASIZE PUSH1 0x4 PUSH2 0x2686 JUMP JUMPDEST PUSH2 0x1161 JUMP JUMPDEST PUSH2 0x3DB PUSH2 0x3D6 CALLDATASIZE PUSH1 0x4 PUSH2 0x2276 JUMP JUMPDEST PUSH2 0x1213 JUMP JUMPDEST PUSH1 0x40 MLOAD PUSH2 0x24F SWAP3 SWAP2 SWAP1 PUSH2 0x26DD JUMP JUMPDEST PUSH2 0x3DB PUSH2 0x3F7 CALLDATASIZE PUSH1 0x4 PUSH2 0x26FF JUMP JUMPDEST PUSH2 0x1513 JUMP JUMPDEST PUSH2 0x40F PUSH2 0x40A CALLDATASIZE PUSH1 0x4 PUSH2 0x2276 JUMP JUMPDEST PUSH2 0x159B JUMP JUMPDEST PUSH1 0x40 MLOAD PUSH2 0x24F SWAP6 SWAP5 SWAP4 SWAP3 SWAP2 SWAP1 PUSH2 0x2762 JUMP JUMPDEST PUSH2 0x433 PUSH2 0x42E CALLDATASIZE PUSH1 0x4 PUSH2 0x2276 JUMP JUMPDEST PUSH2 0x1642 JUMP JUMPDEST PUSH1 0x40 MLOAD PUSH2 0x24F SWAP4 SWAP3 SWAP2 SWAP1 PUSH2 0x2799 JUMP JUMPDEST PUSH2 0x229 PUSH2 0x450 CALLDATASIZE PUSH1 0x4 PUSH2 0x27B8 JUMP JUMPDEST PUSH2 0x17CC JUMP JUMPDEST PUSH2 0x2AB PUSH1 0x5 SLOAD DUP2 JUMP JUMPDEST PUSH2 0x229 PUSH2 0x46C CALLDATASIZE PUSH1 0x4 PUSH2 0x2851 JUMP JUMPDEST PUSH2 0x1881 JUMP JUMPDEST PUSH2 0x229 PUSH2 0x47F CALLDATASIZE PUSH1 0x4 PUSH2 0x287D JUMP JUMPDEST PUSH2 0x194B JUMP JUMPDEST PUSH2 0x229 PUSH2 0x492 CALLDATASIZE PUSH1 0x4 PUSH2 0x24B1 JUMP JUMPDEST PUSH2 0x1981 JUMP JUMPDEST PUSH2 0x229 PUSH2 0x4A5 CALLDATASIZE PUSH1 0x4 PUSH2 0x28E0 JUMP JUMPDEST PUSH2 0x19E5 JUMP JUMPDEST PUSH2 0x4BD PUSH2 0x4B8 CALLDATASIZE PUSH1 0x4 PUSH2 0x2276 JUMP JUMPDEST PUSH2 0x1A49 JUMP JUMPDEST PUSH1 0x40 MLOAD PUSH2 0x24F SWAP4 SWAP3 SWAP2 SWAP1 PUSH2 0x2984 JUMP JUMPDEST PUSH2 0x3DB PUSH2 0x4DA CALLDATASIZE PUSH1 0x4 PUSH2 0x2276 JUMP JUMPDEST PUSH2 0x1AEB JUMP JUMPDEST PUSH2 0x229 PUSH2 0x4ED CALLDATASIZE PUSH1 0x4 PUSH2 0x29C7 JUMP JUMPDEST PUSH2 0x1CFA JUMP JUMPDEST PUSH2 0x229 PUSH2 0x500 CALLDATASIZE PUSH1 0x4 PUSH2 0x2AC6 JUMP JUMPDEST PUSH2 0x1D9B JUMP JUMPDEST PUSH2 0x229 PUSH2 0x513 CALLDATASIZE PUSH1 0x4 PUSH2 0x2B0A JUMP JUMPDEST PUSH2 0x1EFD JUMP JUMPDEST PUSH2 0x229 PUSH2 0x526 CALLDATASIZE PUSH1 0x4 PUSH2 0x2B70 JUMP JUMPDEST PUSH2 0x1FDC JUMP JUMPDEST PUSH2 0x53E PUSH2 0x539 CALLDATASIZE PUSH1 0x4 PUSH2 0x2276 JUMP JUMPDEST PUSH2 0x208B JUMP JUMPDEST PUSH1 0x40 MLOAD PUSH2 0x24F SWAP7 SWAP6 SWAP5 SWAP4 SWAP3 SWAP2 SWAP1 PUSH2 0x2BBF JUMP JUMPDEST PUSH1 0x4 SLOAD PUSH2 0x563 SWAP1 PUSH1 0x1 PUSH1 0x1 PUSH1 0xA0 SHL SUB AND DUP2 JUMP JUMPDEST PUSH1 0x40 MLOAD PUSH1 0x1 PUSH1 0x1 PUSH1 0xA0 SHL SUB SWAP1 SWAP2 AND DUP2 MSTORE PUSH1 0x20 ADD PUSH2 0x24F JUMP JUMPDEST PUSH1 0x4 SLOAD PUSH1 0x1 PUSH1 0x1 PUSH1 0xA0 SHL SUB AND CALLER EQ PUSH2 0x5AE JUMPI PUSH1 0x40 MLOAD PUSH3 0x461BCD PUSH1 0xE5 SHL DUP2 MSTORE PUSH1 0x4 ADD PUSH2 0x5A5 SWAP1 PUSH2 0x2C41 JUMP JUMPDEST PUSH1 0x40 MLOAD DUP1 SWAP2 SUB SWAP1 REVERT JUMPDEST PUSH1 0x0 SLOAD PUSH1 0x40 MLOAD PUSH4 0xC96262D PUSH1 0xE0 SHL DUP2 MSTORE PUSH1 0x1 PUSH1 0x1 PUSH1 0xA0 SHL SUB SWAP1 SWAP2 AND SWAP1 PUSH4 0xC96262D SWAP1 PUSH2 0x5E2 SWAP1 DUP7 SWAP1 DUP7 SWAP1 DUP7 SWAP1 PUSH1 0x4 ADD PUSH2 0x2C70 JUMP JUMPDEST PUSH1 0x0 PUSH1 0x40 MLOAD DUP1 DUP4 SUB DUP2 PUSH1 0x0 DUP8 DUP1 EXTCODESIZE ISZERO DUP1 ISZERO PUSH2 0x5FC JUMPI PUSH1 0x0 DUP1 REVERT JUMPDEST POP GAS CALL ISZERO DUP1 ISZERO PUSH2 0x610 JUMPI RETURNDATASIZE PUSH1 0x0 DUP1 RETURNDATACOPY RETURNDATASIZE PUSH1 0x0 REVERT JUMPDEST POP POP POP POP POP POP POP JUMP JUMPDEST PUSH1 0x4 SLOAD PUSH1 0x60 SWAP1 DUP2 SWAP1 DUP2 SWAP1 DUP2 SWAP1 DUP2 SWAP1 PUSH1 0x1 PUSH1 0x1 PUSH1 0xA0 SHL SUB AND CALLER EQ PUSH2 0x64E JUMPI PUSH1 0x40 MLOAD PUSH3 0x461BCD PUSH1 0xE5 SHL DUP2 MSTORE PUSH1 0x4 ADD PUSH2 0x5A5 SWAP1 PUSH2 0x2C41 JUMP JUMPDEST PUSH1 0x0 SLOAD PUSH1 0x40 MLOAD PUSH4 0x126EA085 PUSH1 0xE3 SHL DUP2 MSTORE PUSH1 0x4 DUP2 ADD DUP9 SWAP1 MSTORE PUSH1 0x1 PUSH1 0x1 PUSH1 0xA0 SHL SUB SWAP1 SWAP2 AND SWAP1 PUSH4 0x93750428 SWAP1 PUSH1 0x24 ADD JUMPDEST PUSH1 0x0 PUSH1 0x40 MLOAD DUP1 DUP4 SUB DUP2 DUP7 GAS STATICCALL ISZERO DUP1 ISZERO PUSH2 0x698 JUMPI RETURNDATASIZE PUSH1 0x0 DUP1 RETURNDATACOPY RETURNDATASIZE PUSH1 0x0 REVERT JUMPDEST POP POP POP POP PUSH1 0x40 MLOAD RETURNDATASIZE PUSH1 0x0 DUP3 RETURNDATACOPY PUSH1 0x1F RETURNDATASIZE SWAP1 DUP2 ADD PUSH1 0x1F NOT AND DUP3 ADD PUSH1 0x40 MSTORE PUSH2 0x6C0 SWAP2 SWAP1 DUP2 ADD SWAP1 PUSH2 0x2CE8 JUMP JUMPDEST SWAP4 SWAP11 SWAP3 SWAP10 POP SWAP1 SWAP8 POP SWAP6 POP SWAP1 SWAP4 POP SWAP2 POP POP JUMP JUMPDEST PUSH1 0x4 SLOAD PUSH1 0x60 SWAP1 DUP2 SWAP1 DUP2 SWAP1 PUSH1 0x0 SWAP1 DUP3 SWAP1 PUSH1 0x1 PUSH1 0x1 PUSH1 0xA0 SHL SUB AND CALLER EQ PUSH2 0x708 JUMPI PUSH1 0x40 MLOAD PUSH3 0x461BCD PUSH1 0xE5 SHL DUP2 MSTORE PUSH1 0x4 ADD PUSH2 0x5A5 SWAP1 PUSH2 0x2C41 JUMP JUMPDEST PUSH1 0x0 SLOAD PUSH1 0x40 MLOAD PUSH4 0x70CFA985 PUSH1 0xE0 SHL DUP2 MSTORE PUSH1 0x4 DUP2 ADD DUP9 SWAP1 MSTORE PUSH1 0x1 PUSH1 0x1 PUSH1 0xA0 SHL SUB SWAP1 SWAP2 AND SWAP1 PUSH4 0x70CFA985 SWAP1 PUSH1 0x24 ADD PUSH1 0x0 PUSH1 0x40 MLOAD DUP1 DUP4 SUB DUP2 DUP7 GAS STATICCALL ISZERO DUP1 ISZERO PUSH2 0x751 JUMPI RETURNDATASIZE PUSH1 0x0 DUP1 RETURNDATACOPY RETURNDATASIZE PUSH1 0x0 REVERT JUMPDEST POP POP POP POP PUSH1 0x40 MLOAD RETURNDATASIZE PUSH1 0x0 DUP3 RETURNDATACOPY PUSH1 0x1F RETURNDATASIZE SWAP1 DUP2 ADD PUSH1 0x1F NOT AND DUP3 ADD PUSH1 0x40 MSTORE PUSH2 0x6C0 SWAP2 SWAP1 DUP2 ADD SWAP1 PUSH2 0x2DAC JUMP JUMPDEST PUSH1 0x4 SLOAD PUSH1 0x1 PUSH1 0x1 PUSH1 0xA0 SHL SUB AND CALLER EQ PUSH2 0x7A3 JUMPI PUSH1 0x40 MLOAD PUSH3 0x461BCD PUSH1 0xE5 SHL DUP2 MSTORE PUSH1 0x4 ADD PUSH2 0x5A5 SWAP1 PUSH2 0x2C41 JUMP JUMPDEST PUSH1 0x0 SLOAD PUSH1 0x40 MLOAD PUSH4 0xA25CFDB PUSH1 0xE2 SHL DUP2 MSTORE PUSH1 0x4 DUP2 ADD DUP7 SWAP1 MSTORE PUSH1 0x24 DUP2 ADD DUP6 SWAP1 MSTORE PUSH1 0x44 DUP2 ADD DUP5 SWAP1 MSTORE PUSH1 0x64 DUP2 ADD DUP4 SWAP1 MSTORE PUSH1 0x1 PUSH1 0x1 PUSH1 0xA0 SHL SUB SWAP1 SWAP2 AND SWAP1 PUSH4 0x28973F6C SWAP1 PUSH1 0x84 ADD JUMPDEST PUSH1 0x0 PUSH1 0x40 MLOAD DUP1 DUP4 SUB DUP2 PUSH1 0x0 DUP8 DUP1 EXTCODESIZE ISZERO DUP1 ISZERO PUSH2 0x7FF JUMPI PUSH1 0x0 DUP1 REVERT JUMPDEST POP GAS CALL ISZERO DUP1 ISZERO PUSH2 0x813 JUMPI RETURNDATASIZE PUSH1 0x0 DUP1 RETURNDATACOPY RETURNDATASIZE PUSH1 0x0 REVERT JUMPDEST POP POP POP POP POP POP POP POP JUMP JUMPDEST PUSH1 0x4 SLOAD PUSH1 0x1 PUSH1 0x1 PUSH1 0xA0 SHL SUB AND CALLER EQ PUSH2 0x847 JUMPI PUSH1 0x40 MLOAD PUSH3 0x461BCD PUSH1 0xE5 SHL DUP2 MSTORE PUSH1 0x4 ADD PUSH2 0x5A5 SWAP1 PUSH2 0x2C41 JUMP JUMPDEST PUSH1 0x0 SLOAD PUSH1 0x40 MLOAD PUSH4 0x14CFC0F PUSH1 0xE5 SHL DUP2 MSTORE PUSH1 0x1 PUSH1 0x1 PUSH1 0xA0 SHL SUB SWAP1 SWAP2 AND SWAP1 PUSH4 0x299F81E0 SWAP1 PUSH2 0x7E5 SWAP1 DUP8 SWAP1 DUP8 SWAP1 DUP8 SWAP1 DUP8 SWAP1 PUSH1 0x4 ADD PUSH2 0x2E48 JUMP JUMPDEST PUSH1 0x4 SLOAD PUSH1 0x0 SWAP1 PUSH1 0x1 PUSH1 0x1 PUSH1 0xA0 SHL SUB AND CALLER EQ PUSH2 0x8AA JUMPI PUSH1 0x40 MLOAD PUSH3 0x461BCD PUSH1 0xE5 SHL DUP2 MSTORE PUSH1 0x4 ADD PUSH2 0x5A5 SWAP1 PUSH2 0x2C41 JUMP JUMPDEST PUSH1 0x0 DUP1 PUSH1 0x0 SWAP1 SLOAD SWAP1 PUSH2 0x100 EXP SWAP1 DIV PUSH1 0x1 PUSH1 0x1 PUSH1 0xA0 SHL SUB AND PUSH1 0x1 PUSH1 0x1 PUSH1 0xA0 SHL SUB AND PUSH4 0xE581F9EE PUSH1 0x40 MLOAD DUP2 PUSH4 0xFFFFFFFF AND PUSH1 0xE0 SHL DUP2 MSTORE PUSH1 0x4 ADD PUSH1 0x20 PUSH1 0x40 MLOAD DUP1 DUP4 SUB DUP2 DUP7 GAS STATICCALL ISZERO DUP1 ISZERO PUSH2 0x8FE JUMPI RETURNDATASIZE PUSH1 0x0 DUP1 RETURNDATACOPY RETURNDATASIZE PUSH1 0x0 REVERT JUMPDEST POP POP POP POP PUSH1 0x40 MLOAD RETURNDATASIZE PUSH1 0x1F NOT PUSH1 0x1F DUP3 ADD AND DUP3 ADD DUP1 PUSH1 0x40 MSTORE POP DUP2 ADD SWAP1 PUSH2 0x922 SWAP2 SWAP1 PUSH2 0x2E92 JUMP JUMPDEST SWAP2 POP POP SWAP1 JUMP JUMPDEST PUSH1 0x4 SLOAD PUSH1 0x60 SWAP1 DUP2 SWAP1 DUP2 SWAP1 DUP2 SWAP1 DUP2 SWAP1 PUSH1 0x1 PUSH1 0x1 PUSH1 0xA0 SHL SUB AND CALLER EQ PUSH2 0x95D JUMPI PUSH1 0x40 MLOAD PUSH3 0x461BCD PUSH1 0xE5 SHL DUP2 MSTORE PUSH1 0x4 ADD PUSH2 0x5A5 SWAP1 PUSH2 0x2C41 JUMP JUMPDEST PUSH1 0x0 SLOAD PUSH1 0x40 MLOAD PUSH4 0xB1E6328D PUSH1 0xE0 SHL DUP2 MSTORE PUSH1 0x4 DUP2 ADD DUP9 SWAP1 MSTORE PUSH1 0x1 PUSH1 0x1 PUSH1 0xA0 SHL SUB SWAP1 SWAP2 AND SWAP1 PUSH4 0xB1E6328D SWAP1 PUSH1 0x24 ADD PUSH2 0x67B JUMP JUMPDEST PUSH1 0x4 SLOAD PUSH1 0x0 SWAP1 DUP2 SWAP1 DUP2 SWAP1 PUSH1 0x1 PUSH1 0x1 PUSH1 0xA0 SHL SUB AND CALLER EQ PUSH2 0x9BF JUMPI PUSH1 0x40 MLOAD PUSH3 0x461BCD PUSH1 0xE5 SHL DUP2 MSTORE PUSH1 0x4 ADD PUSH2 0x5A5 SWAP1 PUSH2 0x2C41 JUMP JUMPDEST PUSH1 0x0 SLOAD PUSH1 0x40 MLOAD PUSH4 0x30267D31 PUSH1 0xE1 SHL DUP2 MSTORE PUSH1 0x4 DUP2 ADD DUP7 SWAP1 MSTORE PUSH1 0x1 PUSH1 0x1 PUSH1 0xA0 SHL SUB SWAP1 SWAP2 AND SWAP1 PUSH4 0x604CFA62 SWAP1 PUSH1 0x24 ADD PUSH1 0x60 PUSH1 0x40 MLOAD DUP1 DUP4 SUB DUP2 DUP7 GAS STATICCALL ISZERO DUP1 ISZERO PUSH2 0xA08 JUMPI RETURNDATASIZE PUSH1 0x0 DUP1 RETURNDATACOPY RETURNDATASIZE PUSH1 0x0 REVERT JUMPDEST POP POP POP POP PUSH1 0x40 MLOAD RETURNDATASIZE PUSH1 0x1F NOT PUSH1 0x1F DUP3 ADD AND DUP3 ADD DUP1 PUSH1 0x40 MSTORE POP DUP2 ADD SWAP1 PUSH2 0xA2C SWAP2 SWAP1 PUSH2 0x2EAB JUMP JUMPDEST SWAP3 POP SWAP3 POP SWAP3 POP SWAP2 SWAP4 SWAP1 SWAP3 POP JUMP JUMPDEST PUSH1 0x4 SLOAD PUSH1 0x60 SWAP1 PUSH1 0x0 SWAP1 DUP2 SWAP1 PUSH1 0x1 PUSH1 0x1 PUSH1 0xA0 SHL SUB AND CALLER EQ PUSH2 0xA6B JUMPI PUSH1 0x40 MLOAD PUSH3 0x461BCD PUSH1 0xE5 SHL DUP2 MSTORE PUSH1 0x4 ADD PUSH2 0x5A5 SWAP1 PUSH2 0x2C41 JUMP JUMPDEST PUSH1 0x1 SLOAD PUSH1 0x40 MLOAD PUSH4 0x69E5AE0F PUSH1 0xE0 SHL DUP2 MSTORE PUSH1 0x4 DUP2 ADD DUP7 SWAP1 MSTORE PUSH1 0x0 SWAP2 PUSH1 0x1 PUSH1 0x1 PUSH1 0xA0 SHL SUB AND SWAP1 PUSH4 0x69E5AE0F SWAP1 PUSH1 0x24 ADD PUSH1 0x0 PUSH1 0x40 MLOAD DUP1 DUP4 SUB DUP2 DUP7 GAS STATICCALL ISZERO DUP1 ISZERO PUSH2 0xAB5 JUMPI RETURNDATASIZE PUSH1 0x0 DUP1 RETURNDATACOPY RETURNDATASIZE PUSH1 0x0 REVERT JUMPDEST POP POP POP POP PUSH1 0x40 MLOAD RETURNDATASIZE PUSH1 0x0 DUP3 RETURNDATACOPY PUSH1 0x1F RETURNDATASIZE SWAP1 DUP2 ADD PUSH1 0x1F NOT AND DUP3 ADD PUSH1 0x40 MSTORE PUSH2 0xADD SWAP2 SWAP1 DUP2 ADD SWAP1 PUSH2 0x2ED9 JUMP JUMPDEST PUSH1 0x1 SLOAD PUSH1 0x40 MLOAD PUSH4 0xC493ADC7 PUSH1 0xE0 SHL DUP2 MSTORE PUSH1 0x4 DUP2 ADD DUP9 SWAP1 MSTORE SWAP2 SWAP3 POP PUSH1 0x0 SWAP2 PUSH1 0x1 PUSH1 0x1 PUSH1 0xA0 SHL SUB SWAP1 SWAP2 AND SWAP1 PUSH4 0xC493ADC7 SWAP1 PUSH1 0x24 ADD PUSH1 0x20 PUSH1 0x40 MLOAD DUP1 DUP4 SUB DUP2 DUP7 GAS STATICCALL ISZERO DUP1 ISZERO PUSH2 0xB2C JUMPI RETURNDATASIZE PUSH1 0x0 DUP1 RETURNDATACOPY RETURNDATASIZE PUSH1 0x0 REVERT JUMPDEST POP POP POP POP PUSH1 0x40 MLOAD RETURNDATASIZE PUSH1 0x1F NOT PUSH1 0x1F DUP3 ADD AND DUP3 ADD DUP1 PUSH1 0x40 MSTORE POP DUP2 ADD SWAP1 PUSH2 0xB50 SWAP2 SWAP1 PUSH2 0x2E92 JUMP JUMPDEST PUSH1 0x1 SLOAD PUSH1 0x40 MLOAD PUSH4 0x77F807F PUSH1 0xE0 SHL DUP2 MSTORE PUSH1 0x4 DUP2 ADD DUP10 SWAP1 MSTORE SWAP2 SWAP3 POP PUSH1 0x0 SWAP2 PUSH1 0x1 PUSH1 0x1 PUSH1 0xA0 SHL SUB SWAP1 SWAP2 AND SWAP1 PUSH4 0x77F807F SWAP1 PUSH1 0x24 ADD PUSH1 0x20 PUSH1 0x40 MLOAD DUP1 DUP4 SUB DUP2 DUP7 GAS STATICCALL ISZERO DUP1 ISZERO PUSH2 0xB9F JUMPI RETURNDATASIZE PUSH1 0x0 DUP1 RETURNDATACOPY RETURNDATASIZE PUSH1 0x0 REVERT JUMPDEST POP POP POP POP PUSH1 0x40 MLOAD RETURNDATASIZE PUSH1 0x1F NOT PUSH1 0x1F DUP3 ADD AND DUP3 ADD DUP1 PUSH1 0x40 MSTORE POP DUP2 ADD SWAP1 PUSH2 0xBC3 SWAP2 SWAP1 PUSH2 0x2E92 JUMP JUMPDEST SWAP3 SWAP8 SWAP2 SWAP7 POP SWAP2 SWAP5 POP SWAP3 POP POP POP JUMP JUMPDEST PUSH1 0x4 SLOAD PUSH1 0x0 SWAP1 PUSH1 0x1 PUSH1 0x1 PUSH1 0xA0 SHL SUB AND CALLER EQ PUSH2 0xBFE JUMPI PUSH1 0x40 MLOAD PUSH3 0x461BCD PUSH1 0xE5 SHL DUP2 MSTORE PUSH1 0x4 ADD PUSH2 0x5A5 SWAP1 PUSH2 0x2C41 JUMP JUMPDEST PUSH1 0x3 SLOAD PUSH1 0x40 MLOAD PUSH4 0x4D7B4139 PUSH1 0xE0 SHL DUP2 MSTORE PUSH1 0x4 DUP2 ADD DUP6 SWAP1 MSTORE PUSH1 0x24 DUP2 ADD DUP5 SWAP1 MSTORE PUSH1 0x1 PUSH1 0x1 PUSH1 0xA0 SHL SUB SWAP1 SWAP2 AND SWAP1 PUSH4 0x4D7B4139 SWAP1 PUSH1 0x44 ADD PUSH1 0x20 PUSH1 0x40 MLOAD DUP1 DUP4 SUB DUP2 DUP7 GAS STATICCALL ISZERO DUP1 ISZERO PUSH2 0xC4E JUMPI RETURNDATASIZE PUSH1 0x0 DUP1 RETURNDATACOPY RETURNDATASIZE PUSH1 0x0 REVERT JUMPDEST POP POP POP POP PUSH1 0x40 MLOAD RETURNDATASIZE PUSH1 0x1F NOT PUSH1 0x1F DUP3 ADD AND DUP3 ADD DUP1 PUSH1 0x40 MSTORE POP DUP2 ADD SWAP1 PUSH2 0xC72 SWAP2 SWAP1 PUSH2 0x2E92 JUMP JUMPDEST SWAP4 SWAP3 POP POP POP JUMP JUMPDEST PUSH1 0x4 SLOAD PUSH1 0x1 PUSH1 0x1 PUSH1 0xA0 SHL SUB AND CALLER EQ PUSH2 0xCA3 JUMPI PUSH1 0x40 MLOAD PUSH3 0x461BCD PUSH1 0xE5 SHL DUP2 MSTORE PUSH1 0x4 ADD PUSH2 0x5A5 SWAP1 PUSH2 0x2C41 JUMP JUMPDEST PUSH1 0x0 SLOAD PUSH1 0x40 MLOAD PUSH4 0x2C7157CB PUSH1 0xE1 SHL DUP2 MSTORE PUSH1 0x1 PUSH1 0x1 PUSH1 0xA0 SHL SUB SWAP1 SWAP2 AND SWAP1 PUSH4 0x58E2AF96 SWAP1 PUSH2 0xCDD SWAP1 DUP10 SWAP1 DUP10 SWAP1 DUP10 SWAP1 DUP10 SWAP1 DUP10 SWAP1 DUP10 SWAP1 PUSH1 0x4 ADD PUSH2 0x2F0D JUMP JUMPDEST PUSH1 0x0 PUSH1 0x40 MLOAD DUP1 DUP4 SUB DUP2 PUSH1 0x0 DUP8 DUP1 EXTCODESIZE ISZERO DUP1 ISZERO PUSH2 0xCF7 JUMPI PUSH1 0x0 DUP1 REVERT JUMPDEST POP GAS CALL ISZERO DUP1 ISZERO PUSH2 0xD0B JUMPI RETURNDATASIZE PUSH1 0x0 DUP1 RETURNDATACOPY RETURNDATASIZE PUSH1 0x0 REVERT JUMPDEST POP POP POP POP POP POP POP POP POP POP JUMP JUMPDEST PUSH1 0x4 SLOAD PUSH1 0x1 PUSH1 0x1 PUSH1 0xA0 SHL SUB AND CALLER EQ PUSH2 0xD41 JUMPI PUSH1 0x40 MLOAD PUSH3 0x461BCD PUSH1 0xE5 SHL DUP2 MSTORE PUSH1 0x4 ADD PUSH2 0x5A5 SWAP1 PUSH2 0x2C41 JUMP JUMPDEST PUSH1 0x0 SLOAD PUSH1 0x40 MLOAD PUSH4 0x5F3A3CF1 PUSH1 0xE0 SHL DUP2 MSTORE PUSH1 0x1 PUSH1 0x1 PUSH1 0xA0 SHL SUB SWAP1 SWAP2 AND SWAP1 PUSH4 0x5F3A3CF1 SWAP1 PUSH2 0xD79 SWAP1 DUP9 SWAP1 DUP9 SWAP1 DUP9 SWAP1 DUP9 SWAP1 DUP9 SWAP1 PUSH1 0x4 ADD PUSH2 0x2F38 JUMP JUMPDEST PUSH1 0x0 PUSH1 0x40 MLOAD DUP1 DUP4 SUB DUP2 PUSH1 0x0 DUP8 DUP1 EXTCODESIZE ISZERO DUP1 ISZERO PUSH2 0xD93 JUMPI PUSH1 0x0 DUP1 REVERT JUMPDEST POP GAS CALL ISZERO DUP1 ISZERO PUSH2 0xDA7 JUMPI RETURNDATASIZE PUSH1 0x0 DUP1 RETURNDATACOPY RETURNDATASIZE PUSH1 0x0 REVERT JUMPDEST POP POP POP POP POP POP POP POP POP JUMP JUMPDEST PUSH1 0x4 SLOAD PUSH1 0x60 SWAP1 DUP2 SWAP1 DUP2 SWAP1 PUSH1 0x0 SWAP1 DUP2 SWAP1 PUSH1 0x1 PUSH1 0x1 PUSH1 0xA0 SHL SUB AND CALLER EQ PUSH2 0xDE8 JUMPI PUSH1 0x40 MLOAD PUSH3 0x461BCD PUSH1 0xE5 SHL DUP2 MSTORE PUSH1 0x4 ADD PUSH2 0x5A5 SWAP1 PUSH2 0x2C41 JUMP JUMPDEST PUSH1 0x1 SLOAD PUSH1 0x40 MLOAD PUSH4 0xA18BAF3 PUSH1 0xE2 SHL DUP2 MSTORE PUSH1 0x4 DUP2 ADD DUP9 SWAP1 MSTORE PUSH1 0x0 SWAP2 PUSH1 0x1 PUSH1 0x1 PUSH1 0xA0 SHL SUB AND SWAP1 PUSH4 0x2862EBCC SWAP1 PUSH1 0x24 ADD PUSH1 0x0 PUSH1 0x40 MLOAD DUP1 DUP4 SUB DUP2 DUP7 GAS STATICCALL ISZERO DUP1 ISZERO PUSH2 0xE32 JUMPI RETURNDATASIZE PUSH1 0x0 DUP1 RETURNDATACOPY RETURNDATASIZE PUSH1 0x0 REVERT JUMPDEST POP POP POP POP PUSH1 0x40 MLOAD RETURNDATASIZE PUSH1 0x0 DUP3 RETURNDATACOPY PUSH1 0x1F RETURNDATASIZE SWAP1 DUP2 ADD PUSH1 0x1F NOT AND DUP3 ADD PUSH1 0x40 MSTORE PUSH2 0xE5A SWAP2 SWAP1 DUP2 ADD SWAP1 PUSH2 0x2ED9 JUMP JUMPDEST PUSH1 0x1 SLOAD PUSH1 0x40 MLOAD PUSH4 0x5EB86B95 PUSH1 0xE0 SHL DUP2 MSTORE PUSH1 0x4 DUP2 ADD DUP11 SWAP1 MSTORE SWAP2 SWAP3 POP PUSH1 0x0 SWAP2 PUSH1 0x1 PUSH1 0x1 PUSH1 0xA0 SHL SUB SWAP1 SWAP2 AND SWAP1 PUSH4 0x5EB86B95 SWAP1 PUSH1 0x24 ADD PUSH1 0x0 PUSH1 0x40 MLOAD DUP1 DUP4 SUB DUP2 DUP7 GAS STATICCALL ISZERO DUP1 ISZERO PUSH2 0xEA9 JUMPI RETURNDATASIZE PUSH1 0x0 DUP1 RETURNDATACOPY RETURNDATASIZE PUSH1 0x0 REVERT JUMPDEST POP POP POP POP PUSH1 0x40 MLOAD RETURNDATASIZE PUSH1 0x0 DUP3 RETURNDATACOPY PUSH1 0x1F RETURNDATASIZE SWAP1 DUP2 ADD PUSH1 0x1F NOT AND DUP3 ADD PUSH1 0x40 MSTORE PUSH2 0xED1 SWAP2 SWAP1 DUP2 ADD SWAP1 PUSH2 0x2ED9 JUMP JUMPDEST PUSH1 0x1 SLOAD PUSH1 0x40 MLOAD PUSH4 0xECDE1405 PUSH1 0xE0 SHL DUP2 MSTORE PUSH1 0x4 DUP2 ADD DUP12 SWAP1 MSTORE SWAP2 SWAP3 POP PUSH1 0x0 SWAP2 PUSH1 0x1 PUSH1 0x1 PUSH1 0xA0 SHL SUB SWAP1 SWAP2 AND SWAP1 PUSH4 0xECDE1405 SWAP1 PUSH1 0x24 ADD PUSH1 0x0 PUSH1 0x40 MLOAD DUP1 DUP4 SUB DUP2 DUP7 GAS STATICCALL ISZERO DUP1 ISZERO PUSH2 0xF20 JUMPI RETURNDATASIZE PUSH1 0x0 DUP1 RETURNDATACOPY RETURNDATASIZE PUSH1 0x0 REVERT JUMPDEST POP POP POP POP PUSH1 0x40 MLOAD RETURNDATASIZE PUSH1 0x0 DUP3 RETURNDATACOPY PUSH1 0x1F RETURNDATASIZE SWAP1 DUP2 ADD PUSH1 0x1F NOT AND DUP3 ADD PUSH1 0x40 MSTORE PUSH2 0xF48 SWAP2 SWAP1 DUP2 ADD SWAP1 PUSH2 0x2ED9 JUMP JUMPDEST PUSH1 0x1 SLOAD PUSH1 0x40 MLOAD PUSH4 0x7DFA3649 PUSH1 0xE0 SHL DUP2 MSTORE PUSH1 0x4 DUP2 ADD DUP13 SWAP1 MSTORE SWAP2 SWAP3 POP PUSH1 0x0 SWAP2 PUSH1 0x1 PUSH1 0x1 PUSH1 0xA0 SHL SUB SWAP1 SWAP2 AND SWAP1 PUSH4 0x7DFA3649 SWAP1 PUSH1 0x24 ADD PUSH1 0x20 PUSH1 0x40 MLOAD DUP1 DUP4 SUB DUP2 DUP7 GAS STATICCALL ISZERO DUP1 ISZERO PUSH2 0xF97 JUMPI RETURNDATASIZE PUSH1 0x0 DUP1 RETURNDATACOPY RETURNDATASIZE PUSH1 0x0 REVERT JUMPDEST POP POP POP POP PUSH1 0x40 MLOAD RETURNDATASIZE PUSH1 0x1F NOT PUSH1 0x1F DUP3 ADD AND DUP3 ADD DUP1 PUSH1 0x40 MSTORE POP DUP2 ADD SWAP1 PUSH2 0xFBB SWAP2 SWAP1 PUSH2 0x2E92 JUMP JUMPDEST PUSH1 0x1 SLOAD PUSH1 0x40 MLOAD PUSH4 0x67379D49 PUSH1 0xE1 SHL DUP2 MSTORE PUSH1 0x4 DUP2 ADD DUP14 SWAP1 MSTORE SWAP2 SWAP3 POP PUSH1 0x0 SWAP2 PUSH1 0x1 PUSH1 0x1 PUSH1 0xA0 SHL SUB SWAP1 SWAP2 AND SWAP1 PUSH4 0xCE6F3A92 SWAP1 PUSH1 0x24 ADD PUSH1 0x20 PUSH1 0x40 MLOAD DUP1 DUP4 SUB DUP2 DUP7 GAS STATICCALL ISZERO DUP1 ISZERO PUSH2 0x100A JUMPI RETURNDATASIZE PUSH1 0x0 DUP1 RETURNDATACOPY RETURNDATASIZE PUSH1 0x0 REVERT JUMPDEST POP POP POP POP PUSH1 0x40 MLOAD RETURNDATASIZE PUSH1 0x1F NOT PUSH1 0x1F DUP3 ADD AND DUP3 ADD DUP1 PUSH1 0x40 MSTORE POP DUP2 ADD SWAP1 PUSH2 0x102E SWAP2 SWAP1 PUSH2 0x2E92 JUMP JUMPDEST SWAP5 SWAP12 SWAP4 SWAP11 POP SWAP2 SWAP9 POP SWAP7 POP SWAP2 SWAP5 POP SWAP3 POP POP POP JUMP JUMPDEST PUSH1 0x4 SLOAD PUSH1 0x60 SWAP1 DUP2 SWAP1 PUSH1 0x1 PUSH1 0x1 PUSH1 0xA0 SHL SUB AND CALLER EQ PUSH2 0x1070 JUMPI PUSH1 0x40 MLOAD PUSH3 0x461BCD PUSH1 0xE5 SHL DUP2 MSTORE PUSH1 0x4 ADD PUSH2 0x5A5 SWAP1 PUSH2 0x2C41 JUMP JUMPDEST PUSH1 0x0 SLOAD PUSH1 0x40 MLOAD PUSH4 0x2C324BFB PUSH1 0xE1 SHL DUP2 MSTORE PUSH1 0x4 DUP2 ADD DUP6 SWAP1 MSTORE PUSH1 0x1 PUSH1 0x1 PUSH1 0xA0 SHL SUB SWAP1 SWAP2 AND SWAP1 PUSH4 0x586497F6 SWAP1 PUSH1 0x24 ADD PUSH1 0x0 PUSH1 0x40 MLOAD DUP1 DUP4 SUB DUP2 DUP7 GAS STATICCALL ISZERO DUP1 ISZERO PUSH2 0x10B9 JUMPI RETURNDATASIZE PUSH1 0x0 DUP1 RETURNDATACOPY RETURNDATASIZE PUSH1 0x0 REVERT JUMPDEST POP POP POP POP PUSH1 0x40 MLOAD RETURNDATASIZE PUSH1 0x0 DUP3 RETURNDATACOPY PUSH1 0x1F RETURNDATASIZE SWAP1 DUP2 ADD PUSH1 0x1F NOT AND DUP3 ADD PUSH1 0x40 MSTORE PUSH2 0x10E1 SWAP2 SWAP1 DUP2 ADD SWAP1 PUSH2 0x2F6F JUMP JUMPDEST SWAP2 POP SWAP2 POP SWAP2 POP SWAP2 JUMP JUMPDEST PUSH1 0x4 SLOAD PUSH1 0x0 SWAP1 PUSH1 0x1 PUSH1 0x1 PUSH1 0xA0 SHL SUB AND CALLER EQ PUSH2 0x1117 JUMPI PUSH1 0x40 MLOAD PUSH3 0x461BCD PUSH1 0xE5 SHL DUP2 MSTORE PUSH1 0x4 ADD PUSH2 0x5A5 SWAP1 PUSH2 0x2C41 JUMP JUMPDEST PUSH1 0x0 DUP1 SLOAD PUSH1 0x40 MLOAD PUSH4 0x39BC4959 PUSH1 0xE1 SHL DUP2 MSTORE PUSH1 0x4 DUP2 ADD DUP6 SWAP1 MSTORE PUSH1 0x1 PUSH1 0x1 PUSH1 0xA0 SHL SUB SWAP1 SWAP2 AND SWAP1 PUSH4 0x737892B2 SWAP1 PUSH1 0x24 ADD PUSH1 0x20 PUSH1 0x40 MLOAD DUP1 DUP4 SUB DUP2 DUP7 GAS STATICCALL ISZERO DUP1 ISZERO PUSH2 0xC4E JUMPI RETURNDATASIZE PUSH1 0x0 DUP1 RETURNDATACOPY RETURNDATASIZE PUSH1 0x0 REVERT JUMPDEST PUSH1 0x1 SLOAD PUSH1 0x40 MLOAD PUSH4 0x7C663E4D PUSH1 0xE0 SHL DUP2 MSTORE PUSH1 0x0 SWAP2 PUSH1 0x1 PUSH1 0x1 PUSH1 0xA0 SHL SUB AND SWAP1 PUSH4 0x7C663E4D SWAP1 PUSH2 0x1198 SWAP1 DUP9 SWAP1 DUP9 SWAP1 DUP9 SWAP1 DUP9 SWAP1 PUSH1 0x4 ADD PUSH2 0x2FC8 JUMP JUMPDEST PUSH1 0x20 PUSH1 0x40 MLOAD DUP1 DUP4 SUB DUP2 PUSH1 0x0 DUP8 GAS CALL ISZERO DUP1 ISZERO PUSH2 0x11B7 JUMPI RETURNDATASIZE PUSH1 0x0 DUP1 RETURNDATACOPY RETURNDATASIZE PUSH1 0x0 REVERT JUMPDEST POP POP POP POP PUSH1 0x40 MLOAD RETURNDATASIZE PUSH1 0x1F NOT PUSH1 0x1F DUP3 ADD AND DUP3 ADD DUP1 PUSH1 0x40 MSTORE POP DUP2 ADD SWAP1 PUSH2 0x11DB SWAP2 SWAP1 PUSH2 0x2E92 JUMP JUMPDEST SWAP1 POP DUP2 DUP6 DUP3 PUSH32 0x60CF56E8CD40D30413F6042836CFD24582EAF95589047F0883AA7209FFEE9E33 PUSH1 0x40 MLOAD PUSH1 0x40 MLOAD DUP1 SWAP2 SUB SWAP1 LOG4 POP POP POP POP POP JUMP JUMPDEST PUSH1 0x4 SLOAD PUSH1 0x60 SWAP1 PUSH1 0x0 SWAP1 PUSH1 0x1 PUSH1 0x1 PUSH1 0xA0 SHL SUB AND CALLER EQ PUSH2 0x1243 JUMPI PUSH1 0x40 MLOAD PUSH3 0x461BCD PUSH1 0xE5 SHL DUP2 MSTORE PUSH1 0x4 ADD PUSH2 0x5A5 SWAP1 PUSH2 0x2C41 JUMP JUMPDEST PUSH1 0x1 SLOAD PUSH1 0x40 DUP1 MLOAD PUSH4 0xF57C6491 PUSH1 0xE0 SHL DUP2 MSTORE SWAP1 MLOAD PUSH1 0x0 SWAP3 PUSH1 0x1 PUSH1 0x1 PUSH1 0xA0 SHL SUB AND SWAP2 PUSH4 0xF57C6491 SWAP2 PUSH1 0x4 DUP1 DUP4 ADD SWAP3 PUSH1 0x20 SWAP3 SWAP2 SWAP1 DUP3 SWAP1 SUB ADD DUP2 DUP7 GAS STATICCALL ISZERO DUP1 ISZERO PUSH2 0x128D JUMPI RETURNDATASIZE PUSH1 0x0 DUP1 RETURNDATACOPY RETURNDATASIZE PUSH1 0x0 REVERT JUMPDEST POP POP POP POP PUSH1 0x40 MLOAD RETURNDATASIZE PUSH1 0x1F NOT PUSH1 0x1F DUP3 ADD AND DUP3 ADD DUP1 PUSH1 0x40 MSTORE POP DUP2 ADD SWAP1 PUSH2 0x12B1 SWAP2 SWAP1 PUSH2 0x2E92 JUMP JUMPDEST SWAP1 POP DUP1 JUMPDEST DUP1 ISZERO PUSH2 0x14DC JUMPI PUSH1 0x1 SLOAD PUSH1 0x40 MLOAD PUSH4 0x69D5213B PUSH1 0xE0 SHL DUP2 MSTORE PUSH1 0x4 DUP2 ADD DUP4 SWAP1 MSTORE DUP7 SWAP2 PUSH1 0x1 PUSH1 0x1 PUSH1 0xA0 SHL SUB AND SWAP1 PUSH4 0x69D5213B SWAP1 PUSH1 0x24 ADD PUSH1 0x20 PUSH1 0x40 MLOAD DUP1 DUP4 SUB DUP2 DUP7 GAS STATICCALL ISZERO DUP1 ISZERO PUSH2 0x1304 JUMPI RETURNDATASIZE PUSH1 0x0 DUP1 RETURNDATACOPY RETURNDATASIZE PUSH1 0x0 REVERT JUMPDEST POP POP POP POP PUSH1 0x40 MLOAD RETURNDATASIZE PUSH1 0x1F NOT PUSH1 0x1F DUP3 ADD AND DUP3 ADD DUP1 PUSH1 0x40 MSTORE POP DUP2 ADD SWAP1 PUSH2 0x1328 SWAP2 SWAP1 PUSH2 0x2E92 JUMP JUMPDEST EQ DUP1 ISZERO PUSH2 0x13DB JUMPI POP PUSH1 0x40 DUP1 MLOAD PUSH1 0x0 DUP2 MSTORE PUSH1 0x20 DUP2 ADD SWAP2 DUP3 SWAP1 MSTORE DUP1 MLOAD DUP3 KECCAK256 PUSH1 0x1 SLOAD PUSH4 0x61590D55 PUSH1 0xE0 SHL SWAP1 SWAP4 MSTORE PUSH1 0x24 DUP3 ADD DUP5 SWAP1 MSTORE SWAP2 PUSH1 0x1 PUSH1 0x1 PUSH1 0xA0 SHL SUB AND SWAP1 PUSH4 0x61590D55 SWAP1 PUSH1 0x44 ADD PUSH1 0x0 PUSH1 0x40 MLOAD DUP1 DUP4 SUB DUP2 DUP7 GAS STATICCALL ISZERO DUP1 ISZERO PUSH2 0x138A JUMPI RETURNDATASIZE PUSH1 0x0 DUP1 RETURNDATACOPY RETURNDATASIZE PUSH1 0x0 REVERT JUMPDEST POP POP POP POP PUSH1 0x40 MLOAD RETURNDATASIZE PUSH1 0x0 DUP3 RETURNDATACOPY PUSH1 0x1F RETURNDATASIZE SWAP1 DUP2 ADD PUSH1 0x1F NOT AND DUP3 ADD PUSH1 0x40 MSTORE PUSH2 0x13B2 SWAP2 SWAP1 DUP2 ADD SWAP1 PUSH2 0x2ED9 JUMP JUMPDEST PUSH1 0x40 MLOAD PUSH1 0x20 ADD PUSH2 0x13C2 SWAP2 SWAP1 PUSH2 0x2FF8 JUMP JUMPDEST PUSH1 0x40 MLOAD PUSH1 0x20 DUP2 DUP4 SUB SUB DUP2 MSTORE SWAP1 PUSH1 0x40 MSTORE DUP1 MLOAD SWAP1 PUSH1 0x20 ADD KECCAK256 EQ ISZERO JUMPDEST ISZERO PUSH2 0x14CA JUMPI PUSH1 0x1 SLOAD PUSH1 0x40 MLOAD PUSH4 0x4273DB49 PUSH1 0xE1 SHL DUP2 MSTORE PUSH1 0x4 DUP2 ADD DUP4 SWAP1 MSTORE PUSH1 0x1 PUSH1 0x1 PUSH1 0xA0 SHL SUB SWAP1 SWAP2 AND SWAP1 PUSH4 0x84E7B692 SWAP1 PUSH1 0x24 ADD JUMPDEST PUSH1 0x0 PUSH1 0x40 MLOAD DUP1 DUP4 SUB DUP2 DUP7 GAS STATICCALL ISZERO DUP1 ISZERO PUSH2 0x142A JUMPI RETURNDATASIZE PUSH1 0x0 DUP1 RETURNDATACOPY RETURNDATASIZE PUSH1 0x0 REVERT JUMPDEST POP POP POP POP PUSH1 0x40 MLOAD RETURNDATASIZE PUSH1 0x0 DUP3 RETURNDATACOPY PUSH1 0x1F RETURNDATASIZE SWAP1 DUP2 ADD PUSH1 0x1F NOT AND DUP3 ADD PUSH1 0x40 MSTORE PUSH2 0x1452 SWAP2 SWAP1 DUP2 ADD SWAP1 PUSH2 0x2ED9 JUMP JUMPDEST PUSH1 0x1 SLOAD PUSH1 0x40 MLOAD PUSH4 0x4A0C2303 PUSH1 0xE1 SHL DUP2 MSTORE PUSH1 0x4 DUP2 ADD DUP5 SWAP1 MSTORE PUSH1 0x1 PUSH1 0x1 PUSH1 0xA0 SHL SUB SWAP1 SWAP2 AND SWAP1 PUSH4 0x94184606 SWAP1 PUSH1 0x24 ADD PUSH1 0x20 PUSH1 0x40 MLOAD DUP1 DUP4 SUB DUP2 DUP7 GAS STATICCALL ISZERO DUP1 ISZERO PUSH2 0x149B JUMPI RETURNDATASIZE PUSH1 0x0 DUP1 RETURNDATACOPY RETURNDATASIZE PUSH1 0x0 REVERT JUMPDEST POP POP POP POP PUSH1 0x40 MLOAD RETURNDATASIZE PUSH1 0x1F NOT PUSH1 0x1F DUP3 ADD AND DUP3 ADD DUP1 PUSH1 0x40 MSTORE POP DUP2 ADD SWAP1 PUSH2 0x14BF SWAP2 SWAP1 PUSH2 0x2E92 JUMP JUMPDEST SWAP4 POP SWAP4 POP POP POP SWAP2 POP SWAP2 JUMP JUMPDEST DUP1 PUSH2 0x14D4 DUP2 PUSH2 0x302A JUMP JUMPDEST SWAP2 POP POP PUSH2 0x12B5 JUMP JUMPDEST POP POP PUSH1 0x40 DUP1 MLOAD DUP1 DUP3 ADD SWAP1 SWAP2 MSTORE PUSH1 0x14 DUP2 MSTORE PUSH20 0x151A5B59481D18589B19481B9BDD08199BDD5B99 PUSH1 0x62 SHL PUSH1 0x20 DUP3 ADD MSTORE SWAP4 PUSH1 0x0 SWAP4 POP SWAP2 POP POP JUMP JUMPDEST PUSH1 0x2 SLOAD PUSH1 0x40 MLOAD PUSH4 0x41917AAB PUSH1 0xE1 SHL DUP2 MSTORE PUSH1 0x60 SWAP2 PUSH1 0x0 SWAP2 PUSH1 0x1 PUSH1 0x1 PUSH1 0xA0 SHL SUB SWAP1 SWAP2 AND SWAP1 PUSH4 0x8322F556 SWAP1 PUSH2 0x154B SWAP1 DUP8 SWAP1 DUP8 SWAP1 PUSH1 0x4 ADD PUSH2 0x2658 JUMP JUMPDEST PUSH1 0x0 PUSH1 0x40 MLOAD DUP1 DUP4 SUB DUP2 DUP7 GAS STATICCALL ISZERO DUP1 ISZERO PUSH2 0x1568 JUMPI RETURNDATASIZE PUSH1 0x0 DUP1 RETURNDATACOPY RETURNDATASIZE PUSH1 0x0 REVERT JUMPDEST POP POP POP POP PUSH1 0x40 MLOAD RETURNDATASIZE PUSH1 0x0 DUP3 RETURNDATACOPY PUSH1 0x1F RETURNDATASIZE SWAP1 DUP2 ADD PUSH1 0x1F NOT AND DUP3 ADD PUSH1 0x40 MSTORE PUSH2 0x1590 SWAP2 SWAP1 DUP2 ADD SWAP1 PUSH2 0x3041 JUMP JUMPDEST SWAP1 SWAP6 SWAP1 SWAP5 POP SWAP3 POP POP POP JUMP JUMPDEST PUSH1 0x4 SLOAD PUSH1 0x60 SWAP1 PUSH1 0x0 SWAP1 DUP2 SWAP1 DUP2 SWAP1 DUP5 SWAP1 PUSH1 0x1 PUSH1 0x1 PUSH1 0xA0 SHL SUB AND CALLER EQ PUSH2 0x15D1 JUMPI PUSH1 0x40 MLOAD PUSH3 0x461BCD PUSH1 0xE5 SHL DUP2 MSTORE PUSH1 0x4 ADD PUSH2 0x5A5 SWAP1 PUSH2 0x2C41 JUMP JUMPDEST PUSH1 0x0 SLOAD PUSH1 0x40 MLOAD PUSH4 0xC3A356B PUSH1 0xE1 SHL DUP2 MSTORE PUSH1 0x4 DUP2 ADD DUP9 SWAP1 MSTORE PUSH1 0x1 PUSH1 0x1 PUSH1 0xA0 SHL SUB SWAP1 SWAP2 AND SWAP1 PUSH4 0x18746AD6 SWAP1 PUSH1 0x24 ADD PUSH1 0x0 PUSH1 0x40 MLOAD DUP1 DUP4 SUB DUP2 DUP7 GAS STATICCALL ISZERO DUP1 ISZERO PUSH2 0x161A JUMPI RETURNDATASIZE PUSH1 0x0 DUP1 RETURNDATACOPY RETURNDATASIZE PUSH1 0x0 REVERT JUMPDEST POP POP POP POP PUSH1 0x40 MLOAD RETURNDATASIZE PUSH1 0x0 DUP3 RETURNDATACOPY PUSH1 0x1F RETURNDATASIZE SWAP1 DUP2 ADD PUSH1 0x1F NOT AND DUP3 ADD PUSH1 0x40 MSTORE PUSH2 0x6C0 SWAP2 SWAP1 DUP2 ADD SWAP1 PUSH2 0x3087 JUMP JUMPDEST PUSH1 0x4 SLOAD PUSH1 0x0 SWAP1 DUP2 SWAP1 PUSH1 0x60 SWAP1 PUSH1 0x1 PUSH1 0x1 PUSH1 0xA0 SHL SUB AND CALLER EQ PUSH2 0x1674 JUMPI PUSH1 0x40 MLOAD PUSH3 0x461BCD PUSH1 0xE5 SHL DUP2 MSTORE PUSH1 0x4 ADD PUSH2 0x5A5 SWAP1 PUSH2 0x2C41 JUMP JUMPDEST PUSH1 0x1 SLOAD PUSH1 0x40 MLOAD PUSH4 0x3CD99969 PUSH1 0xE1 SHL DUP2 MSTORE PUSH1 0x4 DUP2 ADD DUP7 SWAP1 MSTORE PUSH1 0x0 SWAP2 PUSH1 0x1 PUSH1 0x1 PUSH1 0xA0 SHL SUB AND SWAP1 PUSH4 0x79B332D2 SWAP1 PUSH1 0x24 ADD PUSH1 0x20 PUSH1 0x40 MLOAD DUP1 DUP4 SUB DUP2 DUP7 GAS STATICCALL ISZERO DUP1 ISZERO PUSH2 0x16BE JUMPI RETURNDATASIZE PUSH1 0x0 DUP1 RETURNDATACOPY RETURNDATASIZE PUSH1 0x0 REVERT JUMPDEST POP POP POP POP PUSH1 0x40 MLOAD RETURNDATASIZE PUSH1 0x1F NOT PUSH1 0x1F DUP3 ADD AND DUP3 ADD DUP1 PUSH1 0x40 MSTORE POP DUP2 ADD SWAP1 PUSH2 0x16E2 SWAP2 SWAP1 PUSH2 0x2E92 JUMP JUMPDEST PUSH1 0x1 SLOAD PUSH1 0x40 MLOAD PUSH4 0xC7E674F1 PUSH1 0xE0 SHL DUP2 MSTORE PUSH1 0x4 DUP2 ADD DUP9 SWAP1 MSTORE SWAP2 SWAP3 POP PUSH1 0x0 SWAP2 PUSH1 0x1 PUSH1 0x1 PUSH1 0xA0 SHL SUB SWAP1 SWAP2 AND SWAP1 PUSH4 0xC7E674F1 SWAP1 PUSH1 0x24 ADD PUSH1 0x20 PUSH1 0x40 MLOAD DUP1 DUP4 SUB DUP2 DUP7 GAS STATICCALL ISZERO DUP1 ISZERO PUSH2 0x1731 JUMPI RETURNDATASIZE PUSH1 0x0 DUP1 RETURNDATACOPY RETURNDATASIZE PUSH1 0x0 REVERT JUMPDEST POP POP POP POP PUSH1 0x40 MLOAD RETURNDATASIZE PUSH1 0x1F NOT PUSH1 0x1F DUP3 ADD AND DUP3 ADD DUP1 PUSH1 0x40 MSTORE POP DUP2 ADD SWAP1 PUSH2 0x1755 SWAP2 SWAP1 PUSH2 0x2E92 JUMP JUMPDEST PUSH1 0x1 SLOAD PUSH1 0x40 MLOAD PUSH4 0x6338C89F PUSH1 0xE0 SHL DUP2 MSTORE PUSH1 0x4 DUP2 ADD DUP10 SWAP1 MSTORE SWAP2 SWAP3 POP PUSH1 0x0 SWAP2 PUSH1 0x1 PUSH1 0x1 PUSH1 0xA0 SHL SUB SWAP1 SWAP2 AND SWAP1 PUSH4 0x6338C89F SWAP1 PUSH1 0x24 ADD PUSH1 0x0 PUSH1 0x40 MLOAD DUP1 DUP4 SUB DUP2 DUP7 GAS STATICCALL ISZERO DUP1 ISZERO PUSH2 0x17A4 JUMPI RETURNDATASIZE PUSH1 0x0 DUP1 RETURNDATACOPY RETURNDATASIZE PUSH1 0x0 REVERT JUMPDEST POP POP POP POP PUSH1 0x40 MLOAD RETURNDATASIZE PUSH1 0x0 DUP3 RETURNDATACOPY PUSH1 0x1F RETURNDATASIZE SWAP1 DUP2 ADD PUSH1 0x1F NOT AND DUP3 ADD PUSH1 0x40 MSTORE PUSH2 0xBC3 SWAP2 SWAP1 DUP2 ADD SWAP1 PUSH2 0x2ED9 JUMP JUMPDEST PUSH1 0x1 SLOAD PUSH1 0x40 MLOAD PUSH4 0xAB236DC9 PUSH1 0xE0 SHL DUP2 MSTORE PUSH1 0x0 SWAP2 PUSH1 0x1 PUSH1 0x1 PUSH1 0xA0 SHL SUB AND SWAP1 PUSH4 0xAB236DC9 SWAP1 PUSH2 0x1805 SWAP1 DUP10 SWAP1 DUP10 SWAP1 DUP10 SWAP1 DUP10 SWAP1 DUP10 SWAP1 PUSH1 0x4 ADD PUSH2 0x30ED JUMP JUMPDEST PUSH1 0x20 PUSH1 0x40 MLOAD DUP1 DUP4 SUB DUP2 PUSH1 0x0 DUP8 GAS CALL ISZERO DUP1 ISZERO PUSH2 0x1824 JUMPI RETURNDATASIZE PUSH1 0x0 DUP1 RETURNDATACOPY RETURNDATASIZE PUSH1 0x0 REVERT JUMPDEST POP POP POP POP PUSH1 0x40 MLOAD RETURNDATASIZE PUSH1 0x1F NOT PUSH1 0x1F DUP3 ADD AND DUP3 ADD DUP1 PUSH1 0x40 MSTORE POP DUP2 ADD SWAP1 PUSH2 0x1848 SWAP2 SWAP1 PUSH2 0x2E92 JUMP JUMPDEST SWAP1 POP DUP2 DUP7 DUP3 PUSH32 0x289EC7E79A70DB9E5A21C4AA4BC91DE5745406FDC5FA52A91224E0F0E8D674AF PUSH1 0x40 MLOAD PUSH1 0x40 MLOAD DUP1 SWAP2 SUB SWAP1 LOG4 POP POP POP POP POP POP JUMP JUMPDEST PUSH1 0x4 SLOAD PUSH1 0x1 PUSH1 0x1 PUSH1 0xA0 SHL SUB AND CALLER EQ PUSH2 0x18AB JUMPI PUSH1 0x40 MLOAD PUSH3 0x461BCD PUSH1 0xE5 SHL DUP2 MSTORE PUSH1 0x4 ADD PUSH2 0x5A5 SWAP1 PUSH2 0x2C41 JUMP JUMPDEST PUSH1 0x3 SLOAD PUSH1 0x40 MLOAD PUSH4 0xBF452C59 PUSH1 0xE0 SHL DUP2 MSTORE PUSH1 0x4 DUP2 ADD DUP6 SWAP1 MSTORE PUSH1 0x24 DUP2 ADD DUP5 SWAP1 MSTORE PUSH1 0x44 DUP2 ADD DUP4 SWAP1 MSTORE PUSH1 0x1 PUSH1 0x1 PUSH1 0xA0 SHL SUB SWAP1 SWAP2 AND SWAP1 PUSH4 0xBF452C59 SWAP1 PUSH1 0x64 ADD PUSH1 0x0 PUSH1 0x40 MLOAD DUP1 DUP4 SUB DUP2 PUSH1 0x0 DUP8 DUP1 EXTCODESIZE ISZERO DUP1 ISZERO PUSH2 0x18FF JUMPI PUSH1 0x0 DUP1 REVERT JUMPDEST POP GAS CALL ISZERO DUP1 ISZERO PUSH2 0x1913 JUMPI RETURNDATASIZE PUSH1 0x0 DUP1 RETURNDATACOPY RETURNDATASIZE PUSH1 0x0 REVERT JUMPDEST POP POP POP POP DUP1 DUP3 DUP5 PUSH32 0x3C00A957D8B0ED88BF0AD892175A6F1B9FA89360787136E23A2FFBC5DC0BAAF9 PUSH1 0x40 MLOAD PUSH1 0x40 MLOAD DUP1 SWAP2 SUB SWAP1 LOG4 POP POP POP JUMP JUMPDEST PUSH1 0x1 SLOAD PUSH1 0x40 MLOAD PUSH4 0xC010F05 PUSH1 0xE4 SHL DUP2 MSTORE PUSH1 0x1 PUSH1 0x1 PUSH1 0xA0 SHL SUB SWAP1 SWAP2 AND SWAP1 PUSH4 0xC010F050 SWAP1 PUSH2 0x7E5 SWAP1 DUP8 SWAP1 DUP8 SWAP1 DUP8 SWAP1 DUP8 SWAP1 PUSH1 0x4 ADD PUSH2 0x313F JUMP JUMPDEST PUSH1 0x4 SLOAD PUSH1 0x1 PUSH1 0x1 PUSH1 0xA0 SHL SUB AND CALLER EQ PUSH2 0x19AB JUMPI PUSH1 0x40 MLOAD PUSH3 0x461BCD PUSH1 0xE5 SHL DUP2 MSTORE PUSH1 0x4 ADD PUSH2 0x5A5 SWAP1 PUSH2 0x2C41 JUMP JUMPDEST PUSH1 0x0 SLOAD PUSH1 0x40 MLOAD PUSH4 0xC29871D7 PUSH1 0xE0 SHL DUP2 MSTORE PUSH1 0x1 PUSH1 0x1 PUSH1 0xA0 SHL SUB SWAP1 SWAP2 AND SWAP1 PUSH4 0xC29871D7 SWAP1 PUSH2 0xCDD SWAP1 DUP10 SWAP1 DUP10 SWAP1 DUP10 SWAP1 DUP10 SWAP1 DUP10 SWAP1 DUP10 SWAP1 PUSH1 0x4 ADD PUSH2 0x2F0D JUMP JUMPDEST PUSH1 0x4 SLOAD PUSH1 0x1 PUSH1 0x1 PUSH1 0xA0 SHL SUB AND CALLER EQ PUSH2 0x1A0F JUMPI PUSH1 0x40 MLOAD PUSH3 0x461BCD PUSH1 0xE5 SHL DUP2 MSTORE PUSH1 0x4 ADD PUSH2 0x5A5 SWAP1 PUSH2 0x2C41 JUMP JUMPDEST PUSH1 0x0 SLOAD PUSH1 0x40 MLOAD PUSH4 0xC42F4FF PUSH1 0xE4 SHL DUP2 MSTORE PUSH1 0x1 PUSH1 0x1 PUSH1 0xA0 SHL SUB SWAP1 SWAP2 AND SWAP1 PUSH4 0xC42F4FF0 SWAP1 PUSH2 0xCDD SWAP1 DUP10 SWAP1 DUP10 SWAP1 DUP10 SWAP1 DUP10 SWAP1 DUP10 SWAP1 DUP10 SWAP1 PUSH1 0x4 ADD PUSH2 0x317C JUMP JUMPDEST PUSH1 0x4 SLOAD PUSH1 0x60 SWAP1 DUP2 SWAP1 DUP2 SWAP1 PUSH1 0x1 PUSH1 0x1 PUSH1 0xA0 SHL SUB AND CALLER EQ PUSH2 0x1A7A JUMPI PUSH1 0x40 MLOAD PUSH3 0x461BCD PUSH1 0xE5 SHL DUP2 MSTORE PUSH1 0x4 ADD PUSH2 0x5A5 SWAP1 PUSH2 0x2C41 JUMP JUMPDEST PUSH1 0x0 SLOAD PUSH1 0x40 MLOAD PUSH4 0x670A3447 PUSH1 0xE1 SHL DUP2 MSTORE PUSH1 0x4 DUP2 ADD DUP7 SWAP1 MSTORE PUSH1 0x1 PUSH1 0x1 PUSH1 0xA0 SHL SUB SWAP1 SWAP2 AND SWAP1 PUSH4 0xCE14688E SWAP1 PUSH1 0x24 ADD PUSH1 0x0 PUSH1 0x40 MLOAD DUP1 DUP4 SUB DUP2 DUP7 GAS STATICCALL ISZERO DUP1 ISZERO PUSH2 0x1AC3 JUMPI RETURNDATASIZE PUSH1 0x0 DUP1 RETURNDATACOPY RETURNDATASIZE PUSH1 0x0 REVERT JUMPDEST POP POP POP POP PUSH1 0x40 MLOAD RETURNDATASIZE PUSH1 0x0 DUP3 RETURNDATACOPY PUSH1 0x1F RETURNDATASIZE SWAP1 DUP2 ADD PUSH1 0x1F NOT AND DUP3 ADD PUSH1 0x40 MSTORE PUSH2 0xA2C SWAP2 SWAP1 DUP2 ADD SWAP1 PUSH2 0x31D5 JUMP JUMPDEST PUSH1 0x4 SLOAD PUSH1 0x60 SWAP1 PUSH1 0x0 SWAP1 PUSH1 0x1 PUSH1 0x1 PUSH1 0xA0 SHL SUB AND CALLER EQ PUSH2 0x1B1B JUMPI PUSH1 0x40 MLOAD PUSH3 0x461BCD PUSH1 0xE5 SHL DUP2 MSTORE PUSH1 0x4 ADD PUSH2 0x5A5 SWAP1 PUSH2 0x2C41 JUMP JUMPDEST PUSH1 0x1 SLOAD PUSH1 0x40 DUP1 MLOAD PUSH4 0xF57C6491 PUSH1 0xE0 SHL DUP2 MSTORE SWAP1 MLOAD PUSH1 0x0 SWAP3 PUSH1 0x1 PUSH1 0x1 PUSH1 0xA0 SHL SUB AND SWAP2 PUSH4 0xF57C6491 SWAP2 PUSH1 0x4 DUP1 DUP4 ADD SWAP3 PUSH1 0x20 SWAP3 SWAP2 SWAP1 DUP3 SWAP1 SUB ADD DUP2 DUP7 GAS STATICCALL ISZERO DUP1 ISZERO PUSH2 0x1B65 JUMPI RETURNDATASIZE PUSH1 0x0 DUP1 RETURNDATACOPY RETURNDATASIZE PUSH1 0x0 REVERT JUMPDEST POP POP POP POP PUSH1 0x40 MLOAD RETURNDATASIZE PUSH1 0x1F NOT PUSH1 0x1F DUP3 ADD AND DUP3 ADD DUP1 PUSH1 0x40 MSTORE POP DUP2 ADD SWAP1 PUSH2 0x1B89 SWAP2 SWAP1 PUSH2 0x2E92 JUMP JUMPDEST SWAP1 POP DUP1 JUMPDEST DUP1 ISZERO PUSH2 0x14DC JUMPI PUSH1 0x1 SLOAD PUSH1 0x40 MLOAD PUSH4 0x69D5213B PUSH1 0xE0 SHL DUP2 MSTORE PUSH1 0x4 DUP2 ADD DUP4 SWAP1 MSTORE DUP7 SWAP2 PUSH1 0x1 PUSH1 0x1 PUSH1 0xA0 SHL SUB AND SWAP1 PUSH4 0x69D5213B SWAP1 PUSH1 0x24 ADD PUSH1 0x20 PUSH1 0x40 MLOAD DUP1 DUP4 SUB DUP2 DUP7 GAS STATICCALL ISZERO DUP1 ISZERO PUSH2 0x1BDC JUMPI RETURNDATASIZE PUSH1 0x0 DUP1 RETURNDATACOPY RETURNDATASIZE PUSH1 0x0 REVERT JUMPDEST POP POP POP POP PUSH1 0x40 MLOAD RETURNDATASIZE PUSH1 0x1F NOT PUSH1 0x1F DUP3 ADD AND DUP3 ADD DUP1 PUSH1 0x40 MSTORE POP DUP2 ADD SWAP1 PUSH2 0x1C00 SWAP2 SWAP1 PUSH2 0x2E92 JUMP JUMPDEST EQ DUP1 ISZERO PUSH2 0x1CB2 JUMPI POP PUSH1 0x40 DUP1 MLOAD PUSH1 0x0 DUP2 MSTORE PUSH1 0x20 DUP2 ADD SWAP2 DUP3 SWAP1 MSTORE DUP1 MLOAD DUP3 KECCAK256 PUSH1 0x1 SLOAD PUSH4 0x61590D55 PUSH1 0xE0 SHL SWAP1 SWAP4 MSTORE PUSH1 0x24 DUP3 ADD DUP5 SWAP1 MSTORE SWAP2 PUSH1 0x1 PUSH1 0x1 PUSH1 0xA0 SHL SUB AND SWAP1 PUSH4 0x61590D55 SWAP1 PUSH1 0x44 ADD PUSH1 0x0 PUSH1 0x40 MLOAD DUP1 DUP4 SUB DUP2 DUP7 GAS STATICCALL ISZERO DUP1 ISZERO PUSH2 0x1C62 JUMPI RETURNDATASIZE PUSH1 0x0 DUP1 RETURNDATACOPY RETURNDATASIZE PUSH1 0x0 REVERT JUMPDEST POP POP POP POP PUSH1 0x40 MLOAD RETURNDATASIZE PUSH1 0x0 DUP3 RETURNDATACOPY PUSH1 0x1F RETURNDATASIZE SWAP1 DUP2 ADD PUSH1 0x1F NOT AND DUP3 ADD PUSH1 0x40 MSTORE PUSH2 0x1C8A SWAP2 SWAP1 DUP2 ADD SWAP1 PUSH2 0x2ED9 JUMP JUMPDEST PUSH1 0x40 MLOAD PUSH1 0x20 ADD PUSH2 0x1C9A SWAP2 SWAP1 PUSH2 0x2FF8 JUMP JUMPDEST PUSH1 0x40 MLOAD PUSH1 0x20 DUP2 DUP4 SUB SUB DUP2 MSTORE SWAP1 PUSH1 0x40 MSTORE DUP1 MLOAD SWAP1 PUSH1 0x20 ADD KECCAK256 EQ JUMPDEST ISZERO PUSH2 0x1CE8 JUMPI PUSH1 0x1 SLOAD PUSH1 0x40 MLOAD PUSH4 0x4273DB49 PUSH1 0xE1 SHL DUP2 MSTORE PUSH1 0x4 DUP2 ADD DUP4 SWAP1 MSTORE PUSH1 0x1 PUSH1 0x1 PUSH1 0xA0 SHL SUB SWAP1 SWAP2 AND SWAP1 PUSH4 0x84E7B692 SWAP1 PUSH1 0x24 ADD PUSH2 0x140D JUMP JUMPDEST DUP1 PUSH2 0x1CF2 DUP2 PUSH2 0x302A JUMP JUMPDEST SWAP2 POP POP PUSH2 0x1B8D JUMP JUMPDEST PUSH1 0x4 SLOAD PUSH1 0x1 PUSH1 0x1 PUSH1 0xA0 SHL SUB AND CALLER EQ PUSH2 0x1D24 JUMPI PUSH1 0x40 MLOAD PUSH3 0x461BCD PUSH1 0xE5 SHL DUP2 MSTORE PUSH1 0x4 ADD PUSH2 0x5A5 SWAP1 PUSH2 0x2C41 JUMP JUMPDEST PUSH1 0x0 SLOAD PUSH1 0x40 MLOAD PUSH4 0xD4CB7CF3 PUSH1 0xE0 SHL DUP2 MSTORE PUSH1 0x1 PUSH1 0x1 PUSH1 0xA0 SHL SUB SWAP1 SWAP2 AND SWAP1 PUSH4 0xD4CB7CF3 SWAP1 PUSH2 0x1D60 SWAP1 DUP11 SWAP1 DUP11 SWAP1 DUP11 SWAP1 DUP11 SWAP1 DUP11 SWAP1 DUP11 SWAP1 DUP11 SWAP1 PUSH1 0x4 ADD PUSH2 0x3252 JUMP JUMPDEST PUSH1 0x0 PUSH1 0x40 MLOAD DUP1 DUP4 SUB DUP2 PUSH1 0x0 DUP8 DUP1 EXTCODESIZE ISZERO DUP1 ISZERO PUSH2 0x1D7A JUMPI PUSH1 0x0 DUP1 REVERT JUMPDEST POP GAS CALL ISZERO DUP1 ISZERO PUSH2 0x1D8E JUMPI RETURNDATASIZE PUSH1 0x0 DUP1 RETURNDATACOPY RETURNDATASIZE PUSH1 0x0 REVERT JUMPDEST POP POP POP POP POP POP POP POP POP POP POP JUMP JUMPDEST PUSH1 0x4 SLOAD PUSH1 0x1 PUSH1 0x1 PUSH1 0xA0 SHL SUB AND CALLER EQ PUSH2 0x1DC5 JUMPI PUSH1 0x40 MLOAD PUSH3 0x461BCD PUSH1 0xE5 SHL DUP2 MSTORE PUSH1 0x4 ADD PUSH2 0x5A5 SWAP1 PUSH2 0x2C41 JUMP JUMPDEST PUSH1 0x0 PUSH2 0x1DCF PUSH2 0x87D JUMP JUMPDEST SWAP1 POP PUSH1 0x1 JUMPDEST DUP2 DUP2 GT PUSH2 0x1EF7 JUMPI PUSH1 0x0 DUP1 SLOAD PUSH1 0x40 MLOAD PUSH4 0xC3A356B PUSH1 0xE1 SHL DUP2 MSTORE PUSH1 0x4 DUP2 ADD DUP5 SWAP1 MSTORE DUP3 SWAP2 DUP3 SWAP2 PUSH1 0x1 PUSH1 0x1 PUSH1 0xA0 SHL SUB SWAP1 SWAP2 AND SWAP1 PUSH4 0x18746AD6 SWAP1 PUSH1 0x24 ADD PUSH1 0x0 PUSH1 0x40 MLOAD DUP1 DUP4 SUB DUP2 DUP7 GAS STATICCALL ISZERO DUP1 ISZERO PUSH2 0x1E29 JUMPI RETURNDATASIZE PUSH1 0x0 DUP1 RETURNDATACOPY RETURNDATASIZE PUSH1 0x0 REVERT JUMPDEST POP POP POP POP PUSH1 0x40 MLOAD RETURNDATASIZE PUSH1 0x0 DUP3 RETURNDATACOPY PUSH1 0x1F RETURNDATASIZE SWAP1 DUP2 ADD PUSH1 0x1F NOT AND DUP3 ADD PUSH1 0x40 MSTORE PUSH2 0x1E51 SWAP2 SWAP1 DUP2 ADD SWAP1 PUSH2 0x3087 JUMP JUMPDEST POP SWAP4 POP SWAP4 POP POP SWAP3 POP DUP7 PUSH1 0x40 MLOAD PUSH1 0x20 ADD PUSH2 0x1E6A SWAP2 SWAP1 PUSH2 0x2FF8 JUMP JUMPDEST PUSH1 0x40 MLOAD PUSH1 0x20 DUP2 DUP4 SUB SUB DUP2 MSTORE SWAP1 PUSH1 0x40 MSTORE DUP1 MLOAD SWAP1 PUSH1 0x20 ADD KECCAK256 DUP4 PUSH1 0x40 MLOAD PUSH1 0x20 ADD PUSH2 0x1E91 SWAP2 SWAP1 PUSH2 0x2FF8 JUMP JUMPDEST PUSH1 0x40 MLOAD PUSH1 0x20 DUP2 DUP4 SUB SUB DUP2 MSTORE SWAP1 PUSH1 0x40 MSTORE DUP1 MLOAD SWAP1 PUSH1 0x20 ADD KECCAK256 SUB PUSH2 0x1EE1 JUMPI DUP6 DUP2 SUB PUSH2 0x1EE1 JUMPI PUSH1 0x40 MLOAD DUP3 SWAP1 DUP6 SWAP1 PUSH32 0x78A5F595BAA9B25B7A730211C5CF18E46D8C54F6CD7558AB36FF8EF5CF76D19E SWAP1 PUSH1 0x0 SWAP1 LOG3 JUMPDEST POP POP POP DUP1 DUP1 PUSH2 0x1EEF SWAP1 PUSH2 0x32DB JUMP JUMPDEST SWAP2 POP POP PUSH2 0x1DD4 JUMP JUMPDEST POP POP POP POP JUMP JUMPDEST PUSH1 0x4 SLOAD PUSH1 0x1 PUSH1 0x1 PUSH1 0xA0 SHL SUB AND CALLER EQ PUSH2 0x1F27 JUMPI PUSH1 0x40 MLOAD PUSH3 0x461BCD PUSH1 0xE5 SHL DUP2 MSTORE PUSH1 0x4 ADD PUSH2 0x5A5 SWAP1 PUSH2 0x2C41 JUMP JUMPDEST PUSH1 0x0 DUP1 SLOAD PUSH1 0x40 MLOAD PUSH4 0x36075DC1 PUSH1 0xE2 SHL DUP2 MSTORE PUSH1 0x1 PUSH1 0x1 PUSH1 0xA0 SHL SUB SWAP1 SWAP2 AND SWAP1 PUSH4 0xD81D7704 SWAP1 PUSH2 0x1F60 SWAP1 DUP10 SWAP1 DUP10 SWAP1 DUP10 SWAP1 DUP10 SWAP1 DUP10 SWAP1 PUSH1 0x4 ADD PUSH2 0x2762 JUMP JUMPDEST PUSH1 0x20 PUSH1 0x40 MLOAD DUP1 DUP4 SUB DUP2 PUSH1 0x0 DUP8 GAS CALL ISZERO DUP1 ISZERO PUSH2 0x1F7F JUMPI RETURNDATASIZE PUSH1 0x0 DUP1 RETURNDATACOPY RETURNDATASIZE PUSH1 0x0 REVERT JUMPDEST POP POP POP POP PUSH1 0x40 MLOAD RETURNDATASIZE PUSH1 0x1F NOT PUSH1 0x1F DUP3 ADD AND DUP3 ADD DUP1 PUSH1 0x40 MSTORE POP DUP2 ADD SWAP1 PUSH2 0x1FA3 SWAP2 SWAP1 PUSH2 0x2E92 JUMP JUMPDEST SWAP1 POP DUP3 DUP5 DUP3 PUSH32 0x8914BE557F12C8B4EC80D2DE1BBD0CE352F4E74DAE0FC548A0FD56AC07B66044 PUSH1 0x40 MLOAD PUSH1 0x40 MLOAD DUP1 SWAP2 SUB SWAP1 LOG4 POP POP POP POP POP POP JUMP JUMPDEST PUSH1 0x1 SLOAD PUSH1 0x40 MLOAD PUSH4 0xD83463C9 PUSH1 0xE0 SHL DUP2 MSTORE PUSH1 0x0 SWAP2 PUSH1 0x1 PUSH1 0x1 PUSH1 0xA0 SHL SUB AND SWAP1 PUSH4 0xD83463C9 SWAP1 PUSH2 0x2011 SWAP1 DUP8 SWAP1 DUP8 SWAP1 DUP8 SWAP1 PUSH1 0x4 ADD PUSH2 0x32F4 JUMP JUMPDEST PUSH1 0x20 PUSH1 0x40 MLOAD DUP1 DUP4 SUB DUP2 PUSH1 0x0 DUP8 GAS CALL ISZERO DUP1 ISZERO PUSH2 0x2030 JUMPI RETURNDATASIZE PUSH1 0x0 DUP1 RETURNDATACOPY RETURNDATASIZE PUSH1 0x0 REVERT JUMPDEST POP POP POP POP PUSH1 0x40 MLOAD RETURNDATASIZE PUSH1 0x1F NOT PUSH1 0x1F DUP3 ADD AND DUP3 ADD DUP1 PUSH1 0x40 MSTORE POP DUP2 ADD SWAP1 PUSH2 0x2054 SWAP2 SWAP1 PUSH2 0x2E92 JUMP JUMPDEST SWAP1 POP DUP2 DUP2 DUP6 PUSH32 0xAD6D3ADECC8B5201D9897B24894EE0092797E79BE758B09F0DF6EECB2D105B9 PUSH1 0x40 MLOAD PUSH1 0x40 MLOAD DUP1 SWAP2 SUB SWAP1 LOG4 POP POP POP POP JUMP JUMPDEST PUSH1 0x4 SLOAD PUSH1 0x60 SWAP1 DUP2 SWAP1 DUP2 SWAP1 DUP2 SWAP1 DUP2 SWAP1 DUP2 SWAP1 PUSH1 0x1 PUSH1 0x1 PUSH1 0xA0 SHL SUB AND CALLER EQ PUSH2 0x20C2 JUMPI PUSH1 0x40 MLOAD PUSH3 0x461BCD PUSH1 0xE5 SHL DUP2 MSTORE PUSH1 0x4 ADD PUSH2 0x5A5 SWAP1 PUSH2 0x2C41 JUMP JUMPDEST PUSH1 0x0 SLOAD PUSH1 0x40 MLOAD PUSH4 0x10EB2CF9 PUSH1 0xE3 SHL DUP2 MSTORE PUSH1 0x4 DUP2 ADD DUP10 SWAP1 MSTORE PUSH1 0x1 PUSH1 0x1 PUSH1 0xA0 SHL SUB SWAP1 SWAP2 AND SWAP1 PUSH4 0x875967C8 SWAP1 PUSH1 0x24 ADD PUSH1 0x0 PUSH1 0x40 MLOAD DUP1 DUP4 SUB DUP2 DUP7 GAS STATICCALL ISZERO DUP1 ISZERO PUSH2 0x210B JUMPI RETURNDATASIZE PUSH1 0x0 DUP1 RETURNDATACOPY RETURNDATASIZE PUSH1 0x0 REVERT JUMPDEST POP POP POP POP PUSH1 0x40 MLOAD RETURNDATASIZE PUSH1 0x0 DUP3 RETURNDATACOPY PUSH1 0x1F RETURNDATASIZE SWAP1 DUP2 ADD PUSH1 0x1F NOT AND DUP3 ADD PUSH1 0x40 MSTORE PUSH2 0x2133 SWAP2 SWAP1 DUP2 ADD SWAP1 PUSH2 0x331D JUMP JUMPDEST SWAP5 SWAP13 SWAP4 SWAP12 POP SWAP2 SWAP10 POP SWAP8 POP SWAP6 POP SWAP1 SWAP4 POP SWAP2 POP POP JUMP JUMPDEST PUSH4 0x4E487B71 PUSH1 0xE0 SHL PUSH1 0x0 MSTORE PUSH1 0x41 PUSH1 0x4 MSTORE PUSH1 0x24 PUSH1 0x0 REVERT JUMPDEST PUSH1 0x40 MLOAD PUSH1 0x1F DUP3 ADD PUSH1 0x1F NOT AND DUP2 ADD PUSH1 0x1 PUSH1 0x1 PUSH1 0x40 SHL SUB DUP2 GT DUP3 DUP3 LT OR ISZERO PUSH2 0x2185 JUMPI PUSH2 0x2185 PUSH2 0x2147 JUMP JUMPDEST PUSH1 0x40 MSTORE SWAP2 SWAP1 POP JUMP JUMPDEST PUSH1 0x0 PUSH1 0x1 PUSH1 0x1 PUSH1 0x40 SHL SUB DUP3 GT ISZERO PUSH2 0x21A6 JUMPI PUSH2 0x21A6 PUSH2 0x2147 JUMP JUMPDEST POP PUSH1 0x1F ADD PUSH1 0x1F NOT AND PUSH1 0x20 ADD SWAP1 JUMP JUMPDEST PUSH1 0x0 DUP3 PUSH1 0x1F DUP4 ADD SLT PUSH2 0x21C5 JUMPI PUSH1 0x0 DUP1 REVERT JUMPDEST DUP2 CALLDATALOAD PUSH2 0x21D8 PUSH2 0x21D3 DUP3 PUSH2 0x218D JUMP JUMPDEST PUSH2 0x215D JUMP JUMPDEST DUP2 DUP2 MSTORE DUP5 PUSH1 0x20 DUP4 DUP7 ADD ADD GT ISZERO PUSH2 0x21ED JUMPI PUSH1 0x0 DUP1 REVERT JUMPDEST DUP2 PUSH1 0x20 DUP6 ADD PUSH1 0x20 DUP4 ADD CALLDATACOPY PUSH1 0x0 SWAP2 DUP2 ADD PUSH1 0x20 ADD SWAP2 SWAP1 SWAP2 MSTORE SWAP4 SWAP3 POP POP POP JUMP JUMPDEST PUSH1 0x0 DUP1 PUSH1 0x0 PUSH1 0x60 DUP5 DUP7 SUB SLT ISZERO PUSH2 0x221F JUMPI PUSH1 0x0 DUP1 REVERT JUMPDEST DUP4 CALLDATALOAD SWAP3 POP PUSH1 0x20 DUP5 ADD CALLDATALOAD PUSH1 0x1 PUSH1 0x1 PUSH1 0x40 SHL SUB DUP1 DUP3 GT ISZERO PUSH2 0x223D JUMPI PUSH1 0x0 DUP1 REVERT JUMPDEST PUSH2 0x2249 DUP8 DUP4 DUP9 ADD PUSH2 0x21B4 JUMP JUMPDEST SWAP4 POP PUSH1 0x40 DUP7 ADD CALLDATALOAD SWAP2 POP DUP1 DUP3 GT ISZERO PUSH2 0x225F JUMPI PUSH1 0x0 DUP1 REVERT JUMPDEST POP PUSH2 0x226C DUP7 DUP3 DUP8 ADD PUSH2 0x21B4 JUMP JUMPDEST SWAP2 POP POP SWAP3 POP SWAP3 POP SWAP3 JUMP JUMPDEST PUSH1 0x0 PUSH1 0x20 DUP3 DUP5 SUB SLT ISZERO PUSH2 0x2288 JUMPI PUSH1 0x0 DUP1 REVERT JUMPDEST POP CALLDATALOAD SWAP2 SWAP1 POP JUMP JUMPDEST PUSH1 0x0 JUMPDEST DUP4 DUP2 LT ISZERO PUSH2 0x22AA JUMPI DUP2 DUP2 ADD MLOAD DUP4 DUP3 ADD MSTORE PUSH1 0x20 ADD PUSH2 0x2292 JUMP JUMPDEST DUP4 DUP2 GT ISZERO PUSH2 0x1EF7 JUMPI POP POP PUSH1 0x0 SWAP2 ADD MSTORE JUMP JUMPDEST PUSH1 0x0 DUP2 MLOAD DUP1 DUP5 MSTORE PUSH2 0x22D3 DUP2 PUSH1 0x20 DUP7 ADD PUSH1 0x20 DUP7 ADD PUSH2 0x228F JUMP JUMPDEST PUSH1 0x1F ADD PUSH1 0x1F NOT AND SWAP3 SWAP1 SWAP3 ADD PUSH1 0x20 ADD SWAP3 SWAP2 POP POP JUMP JUMPDEST PUSH1 0xA0 DUP2 MSTORE PUSH1 0x0 PUSH2 0x22FA PUSH1 0xA0 DUP4 ADD DUP9 PUSH2 0x22BB JUMP JUMPDEST DUP3 DUP2 SUB PUSH1 0x20 DUP5 ADD MSTORE PUSH2 0x230C DUP2 DUP9 PUSH2 0x22BB JUMP JUMPDEST SWAP1 POP DUP3 DUP2 SUB PUSH1 0x40 DUP5 ADD MSTORE PUSH2 0x2320 DUP2 DUP8 PUSH2 0x22BB JUMP JUMPDEST SWAP1 POP DUP3 DUP2 SUB PUSH1 0x60 DUP5 ADD MSTORE PUSH2 0x2334 DUP2 DUP7 PUSH2 0x22BB JUMP JUMPDEST SWAP1 POP DUP3 DUP2 SUB PUSH1 0x80 DUP5 ADD MSTORE PUSH2 0x2348 DUP2 DUP6 PUSH2 0x22BB JUMP JUMPDEST SWAP9 SWAP8 POP POP POP POP POP POP POP POP JUMP JUMPDEST PUSH1 0xA0 DUP2 MSTORE PUSH1 0x0 PUSH2 0x2367 PUSH1 0xA0 DUP4 ADD DUP9 PUSH2 0x22BB JUMP JUMPDEST DUP3 DUP2 SUB PUSH1 0x20 DUP5 ADD MSTORE PUSH2 0x2379 DUP2 DUP9 PUSH2 0x22BB JUMP JUMPDEST SWAP1 POP DUP3 DUP2 SUB PUSH1 0x40 DUP5 ADD MSTORE PUSH2 0x238D DUP2 DUP8 PUSH2 0x22BB JUMP JUMPDEST SWAP1 POP DUP5 PUSH1 0x60 DUP5 ADD MSTORE DUP3 DUP2 SUB PUSH1 0x80 DUP5 ADD MSTORE PUSH2 0x2348 DUP2 DUP6 PUSH2 0x22BB JUMP JUMPDEST PUSH1 0x0 DUP1 PUSH1 0x0 DUP1 PUSH1 0x80 DUP6 DUP8 SUB SLT ISZERO PUSH2 0x23BD JUMPI PUSH1 0x0 DUP1 REVERT JUMPDEST POP POP DUP3 CALLDATALOAD SWAP5 PUSH1 0x20 DUP5 ADD CALLDATALOAD SWAP5 POP PUSH1 0x40 DUP5 ADD CALLDATALOAD SWAP4 PUSH1 0x60 ADD CALLDATALOAD SWAP3 POP SWAP1 POP JUMP JUMPDEST PUSH1 0x0 DUP1 PUSH1 0x0 DUP1 PUSH1 0x80 DUP6 DUP8 SUB SLT ISZERO PUSH2 0x23EF JUMPI PUSH1 0x0 DUP1 REVERT JUMPDEST DUP5 CALLDATALOAD SWAP4 POP PUSH1 0x20 DUP6 ADD CALLDATALOAD PUSH1 0x1 PUSH1 0x1 PUSH1 0x40 SHL SUB DUP1 DUP3 GT ISZERO PUSH2 0x240D JUMPI PUSH1 0x0 DUP1 REVERT JUMPDEST PUSH2 0x2419 DUP9 DUP4 DUP10 ADD PUSH2 0x21B4 JUMP JUMPDEST SWAP5 POP PUSH1 0x40 DUP8 ADD CALLDATALOAD SWAP2 POP DUP1 DUP3 GT ISZERO PUSH2 0x242F JUMPI PUSH1 0x0 DUP1 REVERT JUMPDEST PUSH2 0x243B DUP9 DUP4 DUP10 ADD PUSH2 0x21B4 JUMP JUMPDEST SWAP4 POP PUSH1 0x60 DUP8 ADD CALLDATALOAD SWAP2 POP DUP1 DUP3 GT ISZERO PUSH2 0x2451 JUMPI PUSH1 0x0 DUP1 REVERT JUMPDEST POP PUSH2 0x245E DUP8 DUP3 DUP9 ADD PUSH2 0x21B4 JUMP JUMPDEST SWAP2 POP POP SWAP3 SWAP6 SWAP2 SWAP5 POP SWAP3 POP JUMP JUMPDEST PUSH1 0x60 DUP2 MSTORE PUSH1 0x0 PUSH2 0x247D PUSH1 0x60 DUP4 ADD DUP7 PUSH2 0x22BB JUMP JUMPDEST PUSH1 0x20 DUP4 ADD SWAP5 SWAP1 SWAP5 MSTORE POP PUSH1 0x40 ADD MSTORE SWAP2 SWAP1 POP JUMP JUMPDEST PUSH1 0x0 DUP1 PUSH1 0x40 DUP4 DUP6 SUB SLT ISZERO PUSH2 0x24A2 JUMPI PUSH1 0x0 DUP1 REVERT JUMPDEST POP POP DUP1 CALLDATALOAD SWAP3 PUSH1 0x20 SWAP1 SWAP2 ADD CALLDATALOAD SWAP2 POP JUMP JUMPDEST PUSH1 0x0 DUP1 PUSH1 0x0 DUP1 PUSH1 0x0 DUP1 PUSH1 0xC0 DUP8 DUP10 SUB SLT ISZERO PUSH2 0x24CA JUMPI PUSH1 0x0 DUP1 REVERT JUMPDEST DUP7 CALLDATALOAD SWAP6 POP PUSH1 0x20 DUP8 ADD CALLDATALOAD PUSH1 0x1 PUSH1 0x1 PUSH1 0x40 SHL SUB DUP1 DUP3 GT ISZERO PUSH2 0x24E8 JUMPI PUSH1 0x0 DUP1 REVERT JUMPDEST PUSH2 0x24F4 DUP11 DUP4 DUP12 ADD PUSH2 0x21B4 JUMP JUMPDEST SWAP7 POP PUSH1 0x40 DUP10 ADD CALLDATALOAD SWAP2 POP DUP1 DUP3 GT ISZERO PUSH2 0x250A JUMPI PUSH1 0x0 DUP1 REVERT JUMPDEST PUSH2 0x2516 DUP11 DUP4 DUP12 ADD PUSH2 0x21B4 JUMP JUMPDEST SWAP6 POP PUSH1 0x60 DUP10 ADD CALLDATALOAD SWAP2 POP DUP1 DUP3 GT ISZERO PUSH2 0x252C JUMPI PUSH1 0x0 DUP1 REVERT JUMPDEST PUSH2 0x2538 DUP11 DUP4 DUP12 ADD PUSH2 0x21B4 JUMP JUMPDEST SWAP5 POP PUSH1 0x80 DUP10 ADD CALLDATALOAD SWAP2 POP DUP1 DUP3 GT ISZERO PUSH2 0x254E JUMPI PUSH1 0x0 DUP1 REVERT JUMPDEST PUSH2 0x255A DUP11 DUP4 DUP12 ADD PUSH2 0x21B4 JUMP JUMPDEST SWAP4 POP PUSH1 0xA0 DUP10 ADD CALLDATALOAD SWAP2 POP DUP1 DUP3 GT ISZERO PUSH2 0x2570 JUMPI PUSH1 0x0 DUP1 REVERT JUMPDEST POP PUSH2 0x257D DUP10 DUP3 DUP11 ADD PUSH2 0x21B4 JUMP JUMPDEST SWAP2 POP POP SWAP3 SWAP6 POP SWAP3 SWAP6 POP SWAP3 SWAP6 JUMP JUMPDEST PUSH1 0x0 DUP1 PUSH1 0x0 DUP1 PUSH1 0x0 PUSH1 0xA0 DUP7 DUP9 SUB SLT ISZERO PUSH2 0x25A2 JUMPI PUSH1 0x0 DUP1 REVERT JUMPDEST DUP6 CALLDATALOAD SWAP5 POP PUSH1 0x20 DUP7 ADD CALLDATALOAD PUSH1 0x1 PUSH1 0x1 PUSH1 0x40 SHL SUB DUP1 DUP3 GT ISZERO PUSH2 0x25C0 JUMPI PUSH1 0x0 DUP1 REVERT JUMPDEST PUSH2 0x25CC DUP10 DUP4 DUP11 ADD PUSH2 0x21B4 JUMP JUMPDEST SWAP6 POP PUSH1 0x40 DUP9 ADD CALLDATALOAD SWAP5 POP PUSH1 0x60 DUP9 ADD CALLDATALOAD SWAP4 POP PUSH1 0x80 DUP9 ADD CALLDATALOAD SWAP2 POP DUP1 DUP3 GT ISZERO PUSH2 0x25F0 JUMPI PUSH1 0x0 DUP1 REVERT JUMPDEST POP PUSH2 0x25FD DUP9 DUP3 DUP10 ADD PUSH2 0x21B4 JUMP JUMPDEST SWAP2 POP POP SWAP3 SWAP6 POP SWAP3 SWAP6 SWAP1 SWAP4 POP JUMP JUMPDEST PUSH1 0xA0 DUP2 MSTORE PUSH1 0x0 PUSH2 0x261D PUSH1 0xA0 DUP4 ADD DUP9 PUSH2 0x22BB JUMP JUMPDEST DUP3 DUP2 SUB PUSH1 0x20 DUP5 ADD MSTORE PUSH2 0x262F DUP2 DUP9 PUSH2 0x22BB JUMP JUMPDEST SWAP1 POP DUP3 DUP2 SUB PUSH1 0x40 DUP5 ADD MSTORE PUSH2 0x2643 DUP2 DUP8 PUSH2 0x22BB JUMP JUMPDEST PUSH1 0x60 DUP5 ADD SWAP6 SWAP1 SWAP6 MSTORE POP POP PUSH1 0x80 ADD MSTORE SWAP4 SWAP3 POP POP POP JUMP JUMPDEST PUSH1 0x40 DUP2 MSTORE PUSH1 0x0 PUSH2 0x266B PUSH1 0x40 DUP4 ADD DUP6 PUSH2 0x22BB JUMP JUMPDEST DUP3 DUP2 SUB PUSH1 0x20 DUP5 ADD MSTORE PUSH2 0x267D DUP2 DUP6 PUSH2 0x22BB JUMP JUMPDEST SWAP6 SWAP5 POP POP POP POP POP JUMP JUMPDEST PUSH1 0x0 DUP1 PUSH1 0x0 DUP1 PUSH1 0x80 DUP6 DUP8 SUB SLT ISZERO PUSH2 0x269C JUMPI PUSH1 0x0 DUP1 REVERT JUMPDEST DUP5 CALLDATALOAD SWAP4 POP PUSH1 0x20 DUP6 ADD CALLDATALOAD SWAP3 POP PUSH1 0x40 DUP6 ADD CALLDATALOAD PUSH1 0x1 PUSH1 0x1 PUSH1 0x40 SHL SUB DUP2 GT ISZERO PUSH2 0x26C0 JUMPI PUSH1 0x0 DUP1 REVERT JUMPDEST PUSH2 0x26CC DUP8 DUP3 DUP9 ADD PUSH2 0x21B4 JUMP JUMPDEST SWAP5 SWAP8 SWAP4 SWAP7 POP SWAP4 SWAP5 PUSH1 0x60 ADD CALLDATALOAD SWAP4 POP POP POP JUMP JUMPDEST PUSH1 0x40 DUP2 MSTORE PUSH1 0x0 PUSH2 0x26F0 PUSH1 0x40 DUP4 ADD DUP6 PUSH2 0x22BB JUMP JUMPDEST SWAP1 POP DUP3 PUSH1 0x20 DUP4 ADD MSTORE SWAP4 SWAP3 POP POP POP JUMP JUMPDEST PUSH1 0x0 DUP1 PUSH1 0x40 DUP4 DUP6 SUB SLT ISZERO PUSH2 0x2712 JUMPI PUSH1 0x0 DUP1 REVERT JUMPDEST DUP3 CALLDATALOAD PUSH1 0x1 PUSH1 0x1 PUSH1 0x40 SHL SUB DUP1 DUP3 GT ISZERO PUSH2 0x2729 JUMPI PUSH1 0x0 DUP1 REVERT JUMPDEST PUSH2 0x2735 DUP7 DUP4 DUP8 ADD PUSH2 0x21B4 JUMP JUMPDEST SWAP4 POP PUSH1 0x20 DUP6 ADD CALLDATALOAD SWAP2 POP DUP1 DUP3 GT ISZERO PUSH2 0x274B JUMPI PUSH1 0x0 DUP1 REVERT JUMPDEST POP PUSH2 0x2758 DUP6 DUP3 DUP7 ADD PUSH2 0x21B4 JUMP JUMPDEST SWAP2 POP POP SWAP3 POP SWAP3 SWAP1 POP JUMP JUMPDEST PUSH1 0xA0 DUP2 MSTORE PUSH1 0x0 PUSH2 0x2775 PUSH1 0xA0 DUP4 ADD DUP9 PUSH2 0x22BB JUMP JUMPDEST DUP7 PUSH1 0x20 DUP5 ADD MSTORE DUP6 PUSH1 0x40 DUP5 ADD MSTORE DUP5 PUSH1 0x60 DUP5 ADD MSTORE DUP3 DUP2 SUB PUSH1 0x80 DUP5 ADD MSTORE PUSH2 0x2348 DUP2 DUP6 PUSH2 0x22BB JUMP JUMPDEST DUP4 DUP2 MSTORE DUP3 PUSH1 0x20 DUP3 ADD MSTORE PUSH1 0x60 PUSH1 0x40 DUP3 ADD MSTORE PUSH1 0x0 PUSH2 0x267D PUSH1 0x60 DUP4 ADD DUP5 PUSH2 0x22BB JUMP JUMPDEST PUSH1 0x0 DUP1 PUSH1 0x0 DUP1 PUSH1 0x0 PUSH1 0xA0 DUP7 DUP9 SUB SLT ISZERO PUSH2 0x27D0 JUMPI PUSH1 0x0 DUP1 REVERT JUMPDEST DUP6 CALLDATALOAD SWAP5 POP PUSH1 0x20 DUP7 ADD CALLDATALOAD PUSH1 0x1 PUSH1 0x1 PUSH1 0x40 SHL SUB DUP1 DUP3 GT ISZERO PUSH2 0x27EE JUMPI PUSH1 0x0 DUP1 REVERT JUMPDEST PUSH2 0x27FA DUP10 DUP4 DUP11 ADD PUSH2 0x21B4 JUMP JUMPDEST SWAP6 POP PUSH1 0x40 DUP9 ADD CALLDATALOAD SWAP2 POP DUP1 DUP3 GT ISZERO PUSH2 0x2810 JUMPI PUSH1 0x0 DUP1 REVERT JUMPDEST PUSH2 0x281C DUP10 DUP4 DUP11 ADD PUSH2 0x21B4 JUMP JUMPDEST SWAP5 POP PUSH1 0x60 DUP9 ADD CALLDATALOAD SWAP2 POP DUP1 DUP3 GT ISZERO PUSH2 0x2832 JUMPI PUSH1 0x0 DUP1 REVERT JUMPDEST POP PUSH2 0x283F DUP9 DUP3 DUP10 ADD PUSH2 0x21B4 JUMP JUMPDEST SWAP6 SWAP9 SWAP5 SWAP8 POP SWAP3 SWAP6 PUSH1 0x80 ADD CALLDATALOAD SWAP4 SWAP3 POP POP POP JUMP JUMPDEST PUSH1 0x0 DUP1 PUSH1 0x0 PUSH1 0x60 DUP5 DUP7 SUB SLT ISZERO PUSH2 0x2866 JUMPI PUSH1 0x0 DUP1 REVERT JUMPDEST POP POP DUP2 CALLDATALOAD SWAP4 PUSH1 0x20 DUP4 ADD CALLDATALOAD SWAP4 POP PUSH1 0x40 SWAP1 SWAP3 ADD CALLDATALOAD SWAP2 SWAP1 POP JUMP JUMPDEST PUSH1 0x0 DUP1 PUSH1 0x0 DUP1 PUSH1 0x80 DUP6 DUP8 SUB SLT ISZERO PUSH2 0x2893 JUMPI PUSH1 0x0 DUP1 REVERT JUMPDEST DUP5 CALLDATALOAD SWAP4 POP PUSH1 0x20 DUP6 ADD CALLDATALOAD PUSH1 0x1 PUSH1 0x1 PUSH1 0x40 SHL SUB DUP1 DUP3 GT ISZERO PUSH2 0x28B1 JUMPI PUSH1 0x0 DUP1 REVERT JUMPDEST PUSH2 0x28BD DUP9 DUP4 DUP10 ADD PUSH2 0x21B4 JUMP JUMPDEST SWAP5 POP PUSH1 0x40 DUP8 ADD CALLDATALOAD SWAP2 POP DUP1 DUP3 GT ISZERO PUSH2 0x28D3 JUMPI PUSH1 0x0 DUP1 REVERT JUMPDEST POP PUSH2 0x26CC DUP8 DUP3 DUP9 ADD PUSH2 0x21B4 JUMP JUMPDEST PUSH1 0x0 DUP1 PUSH1 0x0 DUP1 PUSH1 0x0 DUP1 PUSH1 0xC0 DUP8 DUP10 SUB SLT ISZERO PUSH2 0x28F9 JUMPI PUSH1 0x0 DUP1 REVERT JUMPDEST DUP7 CALLDATALOAD SWAP6 POP PUSH1 0x20 DUP8 ADD CALLDATALOAD PUSH1 0x1 PUSH1 0x1 PUSH1 0x40 SHL SUB DUP1 DUP3 GT ISZERO PUSH2 0x2917 JUMPI PUSH1 0x0 DUP1 REVERT JUMPDEST PUSH2 0x2923 DUP11 DUP4 DUP12 ADD PUSH2 0x21B4 JUMP JUMPDEST SWAP7 POP PUSH1 0x40 DUP10 ADD CALLDATALOAD SWAP2 POP DUP1 DUP3 GT ISZERO PUSH2 0x2939 JUMPI PUSH1 0x0 DUP1 REVERT JUMPDEST PUSH2 0x2945 DUP11 DUP4 DUP12 ADD PUSH2 0x21B4 JUMP JUMPDEST SWAP6 POP PUSH1 0x60 DUP10 ADD CALLDATALOAD SWAP2 POP DUP1 DUP3 GT ISZERO PUSH2 0x295B JUMPI PUSH1 0x0 DUP1 REVERT JUMPDEST PUSH2 0x2967 DUP11 DUP4 DUP12 ADD PUSH2 0x21B4 JUMP JUMPDEST SWAP5 POP PUSH1 0x80 DUP10 ADD CALLDATALOAD SWAP4 POP PUSH1 0xA0 DUP10 ADD CALLDATALOAD SWAP2 POP DUP1 DUP3 GT ISZERO PUSH2 0x2570 JUMPI PUSH1 0x0 DUP1 REVERT JUMPDEST PUSH1 0x60 DUP2 MSTORE PUSH1 0x0 PUSH2 0x2997 PUSH1 0x60 DUP4 ADD DUP7 PUSH2 0x22BB JUMP JUMPDEST DUP3 DUP2 SUB PUSH1 0x20 DUP5 ADD MSTORE PUSH2 0x29A9 DUP2 DUP7 PUSH2 0x22BB JUMP JUMPDEST SWAP1 POP DUP3 DUP2 SUB PUSH1 0x40 DUP5 ADD MSTORE PUSH2 0x29BD DUP2 DUP6 PUSH2 0x22BB JUMP JUMPDEST SWAP7 SWAP6 POP POP POP POP POP POP JUMP JUMPDEST PUSH1 0x0 DUP1 PUSH1 0x0 DUP1 PUSH1 0x0 DUP1 PUSH1 0x0 PUSH1 0xE0 DUP9 DUP11 SUB SLT ISZERO PUSH2 0x29E2 JUMPI PUSH1 0x0 DUP1 REVERT JUMPDEST DUP8 CALLDATALOAD SWAP7 POP PUSH1 0x20 DUP9 ADD CALLDATALOAD PUSH1 0x1 PUSH1 0x1 PUSH1 0x40 SHL SUB DUP1 DUP3 GT ISZERO PUSH2 0x2A00 JUMPI PUSH1 0x0 DUP1 REVERT JUMPDEST PUSH2 0x2A0C DUP12 DUP4 DUP13 ADD PUSH2 0x21B4 JUMP JUMPDEST SWAP8 POP PUSH1 0x40 DUP11 ADD CALLDATALOAD SWAP2 POP DUP1 DUP3 GT ISZERO PUSH2 0x2A22 JUMPI PUSH1 0x0 DUP1 REVERT JUMPDEST PUSH2 0x2A2E DUP12 DUP4 DUP13 ADD PUSH2 0x21B4 JUMP JUMPDEST SWAP7 POP PUSH1 0x60 DUP11 ADD CALLDATALOAD SWAP2 POP DUP1 DUP3 GT ISZERO PUSH2 0x2A44 JUMPI PUSH1 0x0 DUP1 REVERT JUMPDEST PUSH2 0x2A50 DUP12 DUP4 DUP13 ADD PUSH2 0x21B4 JUMP JUMPDEST SWAP6 POP PUSH1 0x80 DUP11 ADD CALLDATALOAD SWAP2 POP DUP1 DUP3 GT ISZERO PUSH2 0x2A66 JUMPI PUSH1 0x0 DUP1 REVERT JUMPDEST PUSH2 0x2A72 DUP12 DUP4 DUP13 ADD PUSH2 0x21B4 JUMP JUMPDEST SWAP5 POP PUSH1 0xA0 DUP11 ADD CALLDATALOAD SWAP2 POP DUP1 DUP3 GT ISZERO PUSH2 0x2A88 JUMPI PUSH1 0x0 DUP1 REVERT JUMPDEST PUSH2 0x2A94 DUP12 DUP4 DUP13 ADD PUSH2 0x21B4 JUMP JUMPDEST SWAP4 POP PUSH1 0xC0 DUP11 ADD CALLDATALOAD SWAP2 POP DUP1 DUP3 GT ISZERO PUSH2 0x2AAA JUMPI PUSH1 0x0 DUP1 REVERT JUMPDEST POP PUSH2 0x2AB7 DUP11 DUP3 DUP12 ADD PUSH2 0x21B4 JUMP JUMPDEST SWAP2 POP POP SWAP3 SWAP6 SWAP9 SWAP2 SWAP5 SWAP8 POP SWAP3 SWAP6 POP JUMP JUMPDEST PUSH1 0x0 DUP1 PUSH1 0x40 DUP4 DUP6 SUB SLT ISZERO PUSH2 0x2AD9 JUMPI PUSH1 0x0 DUP1 REVERT JUMPDEST DUP3 CALLDATALOAD PUSH1 0x1 PUSH1 0x1 PUSH1 0x40 SHL SUB DUP2 GT ISZERO PUSH2 0x2AEF JUMPI PUSH1 0x0 DUP1 REVERT JUMPDEST PUSH2 0x2AFB DUP6 DUP3 DUP7 ADD PUSH2 0x21B4 JUMP JUMPDEST SWAP6 PUSH1 0x20 SWAP5 SWAP1 SWAP5 ADD CALLDATALOAD SWAP5 POP POP POP POP JUMP JUMPDEST PUSH1 0x0 DUP1 PUSH1 0x0 DUP1 PUSH1 0x0 PUSH1 0xA0 DUP7 DUP9 SUB SLT ISZERO PUSH2 0x2B22 JUMPI PUSH1 0x0 DUP1 REVERT JUMPDEST DUP6 CALLDATALOAD PUSH1 0x1 PUSH1 0x1 PUSH1 0x40 SHL SUB DUP1 DUP3 GT ISZERO PUSH2 0x2B39 JUMPI PUSH1 0x0 DUP1 REVERT JUMPDEST PUSH2 0x2B45 DUP10 DUP4 DUP11 ADD PUSH2 0x21B4 JUMP JUMPDEST SWAP7 POP PUSH1 0x20 DUP9 ADD CALLDATALOAD SWAP6 POP PUSH1 0x40 DUP9 ADD CALLDATALOAD SWAP5 POP PUSH1 0x60 DUP9 ADD CALLDATALOAD SWAP4 POP PUSH1 0x80 DUP9 ADD CALLDATALOAD SWAP2 POP DUP1 DUP3 GT ISZERO PUSH2 0x25F0 JUMPI PUSH1 0x0 DUP1 REVERT JUMPDEST PUSH1 0x0 DUP1 PUSH1 0x0 PUSH1 0x60 DUP5 DUP7 SUB SLT ISZERO PUSH2 0x2B85 JUMPI PUSH1 0x0 DUP1 REVERT JUMPDEST DUP4 CALLDATALOAD SWAP3 POP PUSH1 0x20 DUP5 ADD CALLDATALOAD PUSH1 0x1 PUSH1 0x1 PUSH1 0x40 SHL SUB DUP2 GT ISZERO PUSH2 0x2BA2 JUMPI PUSH1 0x0 DUP1 REVERT JUMPDEST PUSH2 0x2BAE DUP7 DUP3 DUP8 ADD PUSH2 0x21B4 JUMP JUMPDEST SWAP3 POP POP PUSH1 0x40 DUP5 ADD CALLDATALOAD SWAP1 POP SWAP3 POP SWAP3 POP SWAP3 JUMP JUMPDEST PUSH1 0xC0 DUP2 MSTORE PUSH1 0x0 PUSH2 0x2BD2 PUSH1 0xC0 DUP4 ADD DUP10 PUSH2 0x22BB JUMP JUMPDEST DUP3 DUP2 SUB PUSH1 0x20 DUP5 ADD MSTORE PUSH2 0x2BE4 DUP2 DUP10 PUSH2 0x22BB JUMP JUMPDEST SWAP1 POP DUP3 DUP2 SUB PUSH1 0x40 DUP5 ADD MSTORE PUSH2 0x2BF8 DUP2 DUP9 PUSH2 0x22BB JUMP JUMPDEST SWAP1 POP DUP3 DUP2 SUB PUSH1 0x60 DUP5 ADD MSTORE PUSH2 0x2C0C DUP2 DUP8 PUSH2 0x22BB JUMP JUMPDEST SWAP1 POP DUP3 DUP2 SUB PUSH1 0x80 DUP5 ADD MSTORE PUSH2 0x2C20 DUP2 DUP7 PUSH2 0x22BB JUMP JUMPDEST SWAP1 POP DUP3 DUP2 SUB PUSH1 0xA0 DUP5 ADD MSTORE PUSH2 0x2C34 DUP2 DUP6 PUSH2 0x22BB JUMP JUMPDEST SWAP10 SWAP9 POP POP POP POP POP POP POP POP POP JUMP JUMPDEST PUSH1 0x20 DUP1 DUP3 MSTORE PUSH1 0x15 SWAP1 DUP3 ADD MSTORE PUSH21 0x2CB7BA9030B932903737BA103A34329030B236B4B7 PUSH1 0x59 SHL PUSH1 0x40 DUP3 ADD MSTORE PUSH1 0x60 ADD SWAP1 JUMP JUMPDEST DUP4 DUP2 MSTORE PUSH1 0x60 PUSH1 0x20 DUP3 ADD MSTORE PUSH1 0x0 PUSH2 0x2C89 PUSH1 0x60 DUP4 ADD DUP6 PUSH2 0x22BB JUMP JUMPDEST DUP3 DUP2 SUB PUSH1 0x40 DUP5 ADD MSTORE PUSH2 0x29BD DUP2 DUP6 PUSH2 0x22BB JUMP JUMPDEST PUSH1 0x0 DUP3 PUSH1 0x1F DUP4 ADD SLT PUSH2 0x2CAC JUMPI PUSH1 0x0 DUP1 REVERT JUMPDEST DUP2 MLOAD PUSH2 0x2CBA PUSH2 0x21D3 DUP3 PUSH2 0x218D JUMP JUMPDEST DUP2 DUP2 MSTORE DUP5 PUSH1 0x20 DUP4 DUP7 ADD ADD GT ISZERO PUSH2 0x2CCF JUMPI PUSH1 0x0 DUP1 REVERT JUMPDEST PUSH2 0x2CE0 DUP3 PUSH1 0x20 DUP4 ADD PUSH1 0x20 DUP8 ADD PUSH2 0x228F JUMP JUMPDEST SWAP5 SWAP4 POP POP POP POP JUMP JUMPDEST PUSH1 0x0 DUP1 PUSH1 0x0 DUP1 PUSH1 0x0 PUSH1 0xA0 DUP7 DUP9 SUB SLT ISZERO PUSH2 0x2D00 JUMPI PUSH1 0x0 DUP1 REVERT JUMPDEST DUP6 MLOAD PUSH1 0x1 PUSH1 0x1 PUSH1 0x40 SHL SUB DUP1 DUP3 GT ISZERO PUSH2 0x2D17 JUMPI PUSH1 0x0 DUP1 REVERT JUMPDEST PUSH2 0x2D23 DUP10 DUP4 DUP11 ADD PUSH2 0x2C9B JUMP JUMPDEST SWAP7 POP PUSH1 0x20 DUP9 ADD MLOAD SWAP2 POP DUP1 DUP3 GT ISZERO PUSH2 0x2D39 JUMPI PUSH1 0x0 DUP1 REVERT JUMPDEST PUSH2 0x2D45 DUP10 DUP4 DUP11 ADD PUSH2 0x2C9B JUMP JUMPDEST SWAP6 POP PUSH1 0x40 DUP9 ADD MLOAD SWAP2 POP DUP1 DUP3 GT ISZERO PUSH2 0x2D5B JUMPI PUSH1 0x0 DUP1 REVERT JUMPDEST PUSH2 0x2D67 DUP10 DUP4 DUP11 ADD PUSH2 0x2C9B JUMP JUMPDEST SWAP5 POP PUSH1 0x60 DUP9 ADD MLOAD SWAP2 POP DUP1 DUP3 GT ISZERO PUSH2 0x2D7D JUMPI PUSH1 0x0 DUP1 REVERT JUMPDEST PUSH2 0x2D89 DUP10 DUP4 DUP11 ADD PUSH2 0x2C9B JUMP JUMPDEST SWAP4 POP PUSH1 0x80 DUP9 ADD MLOAD SWAP2 POP DUP1 DUP3 GT ISZERO PUSH2 0x2D9F JUMPI PUSH1 0x0 DUP1 REVERT JUMPDEST POP PUSH2 0x25FD DUP9 DUP3 DUP10 ADD PUSH2 0x2C9B JUMP JUMPDEST PUSH1 0x0 DUP1 PUSH1 0x0 DUP1 PUSH1 0x0 PUSH1 0xA0 DUP7 DUP9 SUB SLT ISZERO PUSH2 0x2DC4 JUMPI PUSH1 0x0 DUP1 REVERT JUMPDEST DUP6 MLOAD PUSH1 0x1 PUSH1 0x1 PUSH1 0x40 SHL SUB DUP1 DUP3 GT ISZERO PUSH2 0x2DDB JUMPI PUSH1 0x0 DUP1 REVERT JUMPDEST PUSH2 0x2DE7 DUP10 DUP4 DUP11 ADD PUSH2 0x2C9B JUMP JUMPDEST SWAP7 POP PUSH1 0x20 DUP9 ADD MLOAD SWAP2 POP DUP1 DUP3 GT ISZERO PUSH2 0x2DFD JUMPI PUSH1 0x0 DUP1 REVERT JUMPDEST PUSH2 0x2E09 DUP10 DUP4 DUP11 ADD PUSH2 0x2C9B JUMP JUMPDEST SWAP6 POP PUSH1 0x40 DUP9 ADD MLOAD SWAP2 POP DUP1 DUP3 GT ISZERO PUSH2 0x2E1F JUMPI PUSH1 0x0 DUP1 REVERT JUMPDEST PUSH2 0x2E2B DUP10 DUP4 DUP11 ADD PUSH2 0x2C9B JUMP JUMPDEST SWAP5 POP PUSH1 0x60 DUP9 ADD MLOAD SWAP4 POP PUSH1 0x80 DUP9 ADD MLOAD SWAP2 POP DUP1 DUP3 GT ISZERO PUSH2 0x2D9F JUMPI PUSH1 0x0 DUP1 REVERT JUMPDEST DUP5 DUP2 MSTORE PUSH1 0x80 PUSH1 0x20 DUP3 ADD MSTORE PUSH1 0x0 PUSH2 0x2E61 PUSH1 0x80 DUP4 ADD DUP7 PUSH2 0x22BB JUMP JUMPDEST DUP3 DUP2 SUB PUSH1 0x40 DUP5 ADD MSTORE PUSH2 0x2E73 DUP2 DUP7 PUSH2 0x22BB JUMP JUMPDEST SWAP1 POP DUP3 DUP2 SUB PUSH1 0x60 DUP5 ADD MSTORE PUSH2 0x2E87 DUP2 DUP6 PUSH2 0x22BB JUMP JUMPDEST SWAP8 SWAP7 POP POP POP POP POP POP POP JUMP JUMPDEST PUSH1 0x0 PUSH1 0x20 DUP3 DUP5 SUB SLT ISZERO PUSH2 0x2EA4 JUMPI PUSH1 0x0 DUP1 REVERT JUMPDEST POP MLOAD SWAP2 SWAP1 POP JUMP JUMPDEST PUSH1 0x0 DUP1 PUSH1 0x0 PUSH1 0x60 DUP5 DUP7 SUB SLT ISZERO PUSH2 0x2EC0 JUMPI PUSH1 0x0 DUP1 REVERT JUMPDEST DUP4 MLOAD SWAP3 POP PUSH1 0x20 DUP5 ADD MLOAD SWAP2 POP PUSH1 0x40 DUP5 ADD MLOAD SWAP1 POP SWAP3 POP SWAP3 POP SWAP3 JUMP JUMPDEST PUSH1 0x0 PUSH1 0x20 DUP3 DUP5 SUB SLT ISZERO PUSH2 0x2EEB JUMPI PUSH1 0x0 DUP1 REVERT JUMPDEST DUP2 MLOAD PUSH1 0x1 PUSH1 0x1 PUSH1 0x40 SHL SUB DUP2 GT ISZERO PUSH2 0x2F01 JUMPI PUSH1 0x0 DUP1 REVERT JUMPDEST PUSH2 0x2CE0 DUP5 DUP3 DUP6 ADD PUSH2 0x2C9B JUMP JUMPDEST DUP7 DUP2 MSTORE PUSH1 0xC0 PUSH1 0x20 DUP3 ADD MSTORE PUSH1 0x0 PUSH2 0x2F26 PUSH1 0xC0 DUP4 ADD DUP9 PUSH2 0x22BB JUMP JUMPDEST DUP3 DUP2 SUB PUSH1 0x40 DUP5 ADD MSTORE PUSH2 0x2BF8 DUP2 DUP9 PUSH2 0x22BB JUMP JUMPDEST DUP6 DUP2 MSTORE PUSH1 0xA0 PUSH1 0x20 DUP3 ADD MSTORE PUSH1 0x0 PUSH2 0x2F51 PUSH1 0xA0 DUP4 ADD DUP8 PUSH2 0x22BB JUMP JUMPDEST DUP6 PUSH1 0x40 DUP5 ADD MSTORE DUP5 PUSH1 0x60 DUP5 ADD MSTORE DUP3 DUP2 SUB PUSH1 0x80 DUP5 ADD MSTORE PUSH2 0x2348 DUP2 DUP6 PUSH2 0x22BB JUMP JUMPDEST PUSH1 0x0 DUP1 PUSH1 0x40 DUP4 DUP6 SUB SLT ISZERO PUSH2 0x2F82 JUMPI PUSH1 0x0 DUP1 REVERT JUMPDEST DUP3 MLOAD PUSH1 0x1 PUSH1 0x1 PUSH1 0x40 SHL SUB DUP1 DUP3 GT ISZERO PUSH2 0x2F99 JUMPI PUSH1 0x0 DUP1 REVERT JUMPDEST PUSH2 0x2FA5 DUP7 DUP4 DUP8 ADD PUSH2 0x2C9B JUMP JUMPDEST SWAP4 POP PUSH1 0x20 DUP6 ADD MLOAD SWAP2 POP DUP1 DUP3 GT ISZERO PUSH2 0x2FBB JUMPI PUSH1 0x0 DUP1 REVERT JUMPDEST POP PUSH2 0x2758 DUP6 DUP3 DUP7 ADD PUSH2 0x2C9B JUMP JUMPDEST DUP5 DUP2 MSTORE DUP4 PUSH1 0x20 DUP3 ADD MSTORE PUSH1 0x80 PUSH1 0x40 DUP3 ADD MSTORE PUSH1 0x0 PUSH2 0x2FE7 PUSH1 0x80 DUP4 ADD DUP6 PUSH2 0x22BB JUMP JUMPDEST SWAP1 POP DUP3 PUSH1 0x60 DUP4 ADD MSTORE SWAP6 SWAP5 POP POP POP POP POP JUMP JUMPDEST PUSH1 0x0 DUP3 MLOAD PUSH2 0x300A DUP2 DUP5 PUSH1 0x20 DUP8 ADD PUSH2 0x228F JUMP JUMPDEST SWAP2 SWAP1 SWAP2 ADD SWAP3 SWAP2 POP POP JUMP JUMPDEST PUSH4 0x4E487B71 PUSH1 0xE0 SHL PUSH1 0x0 MSTORE PUSH1 0x11 PUSH1 0x4 MSTORE PUSH1 0x24 PUSH1 0x0 REVERT JUMPDEST PUSH1 0x0 DUP2 PUSH2 0x3039 JUMPI PUSH2 0x3039 PUSH2 0x3014 JUMP JUMPDEST POP PUSH1 0x0 NOT ADD SWAP1 JUMP JUMPDEST PUSH1 0x0 DUP1 PUSH1 0x40 DUP4 DUP6 SUB SLT ISZERO PUSH2 0x3054 JUMPI PUSH1 0x0 DUP1 REVERT JUMPDEST DUP3 MLOAD PUSH1 0x1 PUSH1 0x1 PUSH1 0x40 SHL SUB DUP2 GT ISZERO PUSH2 0x306A JUMPI PUSH1 0x0 DUP1 REVERT JUMPDEST PUSH2 0x3076 DUP6 DUP3 DUP7 ADD PUSH2 0x2C9B JUMP JUMPDEST SWAP3 POP POP PUSH1 0x20 DUP4 ADD MLOAD SWAP1 POP SWAP3 POP SWAP3 SWAP1 POP JUMP JUMPDEST PUSH1 0x0 DUP1 PUSH1 0x0 DUP1 PUSH1 0x0 PUSH1 0xA0 DUP7 DUP9 SUB SLT ISZERO PUSH2 0x309F JUMPI PUSH1 0x0 DUP1 REVERT JUMPDEST DUP6 MLOAD PUSH1 0x1 PUSH1 0x1 PUSH1 0x40 SHL SUB DUP1 DUP3 GT ISZERO PUSH2 0x30B6 JUMPI PUSH1 0x0 DUP1 REVERT JUMPDEST PUSH2 0x30C2 DUP10 DUP4 DUP11 ADD PUSH2 0x2C9B JUMP JUMPDEST SWAP7 POP PUSH1 0x20 DUP9 ADD MLOAD SWAP6 POP PUSH1 0x40 DUP9 ADD MLOAD SWAP5 POP PUSH1 0x60 DUP9 ADD MLOAD SWAP4 POP PUSH1 0x80 DUP9 ADD MLOAD SWAP2 POP DUP1 DUP3 GT ISZERO PUSH2 0x2D9F JUMPI PUSH1 0x0 DUP1 REVERT JUMPDEST DUP6 DUP2 MSTORE PUSH1 0xA0 PUSH1 0x20 DUP3 ADD MSTORE PUSH1 0x0 PUSH2 0x3106 PUSH1 0xA0 DUP4 ADD DUP8 PUSH2 0x22BB JUMP JUMPDEST DUP3 DUP2 SUB PUSH1 0x40 DUP5 ADD MSTORE PUSH2 0x3118 DUP2 DUP8 PUSH2 0x22BB JUMP JUMPDEST SWAP1 POP DUP3 DUP2 SUB PUSH1 0x60 DUP5 ADD MSTORE PUSH2 0x312C DUP2 DUP7 PUSH2 0x22BB JUMP JUMPDEST SWAP2 POP POP DUP3 PUSH1 0x80 DUP4 ADD MSTORE SWAP7 SWAP6 POP POP POP POP POP POP JUMP JUMPDEST DUP5 DUP2 MSTORE PUSH1 0x80 PUSH1 0x20 DUP3 ADD MSTORE PUSH1 0x0 PUSH2 0x3158 PUSH1 0x80 DUP4 ADD DUP7 PUSH2 0x22BB JUMP JUMPDEST DUP3 DUP2 SUB PUSH1 0x40 DUP5 ADD MSTORE PUSH2 0x316A DUP2 DUP7 PUSH2 0x22BB JUMP JUMPDEST SWAP2 POP POP DUP3 PUSH1 0x60 DUP4 ADD MSTORE SWAP6 SWAP5 POP POP POP POP POP JUMP JUMPDEST DUP7 DUP2 MSTORE PUSH1 0xC0 PUSH1 0x20 DUP3 ADD MSTORE PUSH1 0x0 PUSH2 0x3195 PUSH1 0xC0 DUP4 ADD DUP9 PUSH2 0x22BB JUMP JUMPDEST DUP3 DUP2 SUB PUSH1 0x40 DUP5 ADD MSTORE PUSH2 0x31A7 DUP2 DUP9 PUSH2 0x22BB JUMP JUMPDEST SWAP1 POP DUP3 DUP2 SUB PUSH1 0x60 DUP5 ADD MSTORE PUSH2 0x31BB DUP2 DUP8 PUSH2 0x22BB JUMP JUMPDEST SWAP1 POP DUP5 PUSH1 0x80 DUP5 ADD MSTORE DUP3 DUP2 SUB PUSH1 0xA0 DUP5 ADD MSTORE PUSH2 0x2C34 DUP2 DUP6 PUSH2 0x22BB JUMP JUMPDEST PUSH1 0x0 DUP1 PUSH1 0x0 PUSH1 0x60 DUP5 DUP7 SUB SLT ISZERO PUSH2 0x31EA JUMPI PUSH1 0x0 DUP1 REVERT JUMPDEST DUP4 MLOAD PUSH1 0x1 PUSH1 0x1 PUSH1 0x40 SHL SUB DUP1 DUP3 GT ISZERO PUSH2 0x3201 JUMPI PUSH1 0x0 DUP1 REVERT JUMPDEST PUSH2 0x320D DUP8 DUP4 DUP9 ADD PUSH2 0x2C9B JUMP JUMPDEST SWAP5 POP PUSH1 0x20 DUP7 ADD MLOAD SWAP2 POP DUP1 DUP3 GT ISZERO PUSH2 0x3223 JUMPI PUSH1 0x0 DUP1 REVERT JUMPDEST PUSH2 0x322F DUP8 DUP4 DUP9 ADD PUSH2 0x2C9B JUMP JUMPDEST SWAP4 POP PUSH1 0x40 DUP7 ADD MLOAD SWAP2 POP DUP1 DUP3 GT ISZERO PUSH2 0x3245 JUMPI PUSH1 0x0 DUP1 REVERT JUMPDEST POP PUSH2 0x226C DUP7 DUP3 DUP8 ADD PUSH2 0x2C9B JUMP JUMPDEST DUP8 DUP2 MSTORE PUSH1 0xE0 PUSH1 0x20 DUP3 ADD MSTORE PUSH1 0x0 PUSH2 0x326B PUSH1 0xE0 DUP4 ADD DUP10 PUSH2 0x22BB JUMP JUMPDEST DUP3 DUP2 SUB PUSH1 0x40 DUP5 ADD MSTORE PUSH2 0x327D DUP2 DUP10 PUSH2 0x22BB JUMP JUMPDEST SWAP1 POP DUP3 DUP2 SUB PUSH1 0x60 DUP5 ADD MSTORE PUSH2 0x3291 DUP2 DUP9 PUSH2 0x22BB JUMP JUMPDEST SWAP1 POP DUP3 DUP2 SUB PUSH1 0x80 DUP5 ADD MSTORE PUSH2 0x32A5 DUP2 DUP8 PUSH2 0x22BB JUMP JUMPDEST SWAP1 POP DUP3 DUP2 SUB PUSH1 0xA0 DUP5 ADD MSTORE PUSH2 0x32B9 DUP2 DUP7 PUSH2 0x22BB JUMP JUMPDEST SWAP1 POP DUP3 DUP2 SUB PUSH1 0xC0 DUP5 ADD MSTORE PUSH2 0x32CD DUP2 DUP6 PUSH2 0x22BB JUMP JUMPDEST SWAP11 SWAP10 POP POP POP POP POP POP POP POP POP POP JUMP JUMPDEST PUSH1 0x0 PUSH1 0x1 DUP3 ADD PUSH2 0x32ED JUMPI PUSH2 0x32ED PUSH2 0x3014 JUMP JUMPDEST POP PUSH1 0x1 ADD SWAP1 JUMP JUMPDEST DUP4 DUP2 MSTORE PUSH1 0x60 PUSH1 0x20 DUP3 ADD MSTORE PUSH1 0x0 PUSH2 0x330D PUSH1 0x60 DUP4 ADD DUP6 PUSH2 0x22BB JUMP JUMPDEST SWAP1 POP DUP3 PUSH1 0x40 DUP4 ADD MSTORE SWAP5 SWAP4 POP POP POP POP JUMP JUMPDEST PUSH1 0x0 DUP1 PUSH1 0x0 DUP1 PUSH1 0x0 DUP1 PUSH1 0xC0 DUP8 DUP10 SUB SLT ISZERO PUSH2 0x3336 JUMPI PUSH1 0x0 DUP1 REVERT JUMPDEST DUP7 MLOAD PUSH1 0x1 PUSH1 0x1 PUSH1 0x40 SHL SUB DUP1 DUP3 GT ISZERO PUSH2 0x334D JUMPI PUSH1 0x0 DUP1 REVERT JUMPDEST PUSH2 0x3359 DUP11 DUP4 DUP12 ADD PUSH2 0x2C9B JUMP JUMPDEST SWAP8 POP PUSH1 0x20 DUP10 ADD MLOAD SWAP2 POP DUP1 DUP3 GT ISZERO PUSH2 0x336F JUMPI PUSH1 0x0 DUP1 REVERT JUMPDEST PUSH2 0x337B DUP11 DUP4 DUP12 ADD PUSH2 0x2C9B JUMP JUMPDEST SWAP7 POP PUSH1 0x40 DUP10 ADD MLOAD SWAP2 POP DUP1 DUP3 GT ISZERO PUSH2 0x3391 JUMPI PUSH1 0x0 DUP1 REVERT JUMPDEST PUSH2 0x339D DUP11 DUP4 DUP12 ADD PUSH2 0x2C9B JUMP JUMPDEST SWAP6 POP PUSH1 0x60 DUP10 ADD MLOAD SWAP2 POP DUP1 DUP3 GT ISZERO PUSH2 0x33B3 JUMPI PUSH1 0x0 DUP1 REVERT JUMPDEST PUSH2 0x33BF DUP11 DUP4 DUP12 ADD PUSH2 0x2C9B JUMP JUMPDEST SWAP5 POP PUSH1 0x80 DUP10 ADD MLOAD SWAP2 POP DUP1 DUP3 GT ISZERO PUSH2 0x33D5 JUMPI PUSH1 0x0 DUP1 REVERT JUMPDEST PUSH2 0x33E1 DUP11 DUP4 DUP12 ADD PUSH2 0x2C9B JUMP JUMPDEST SWAP4 POP PUSH1 0xA0 DUP10 ADD MLOAD SWAP2 POP DUP1 DUP3 GT ISZERO PUSH2 0x33F7 JUMPI PUSH1 0x0 DUP1 REVERT JUMPDEST POP PUSH2 0x257D DUP10 DUP3 DUP11 ADD PUSH2 0x2C9B JUMP INVALID LOG2 PUSH5 0x6970667358 0x22 SLT KECCAK256 0x28 0xFC PUSH11 0xC75447E7DF785C7251F3D2 LOG3 COINBASE EXTCODEHASH 0x2C SWAP16 SHR 0xBB PUSH2 0xC45A 0xEF 0xB1 DUP4 0x49 ADDRESS DIV GAS DUP2 PUSH5 0x736F6C6343 STOP ADDMOD 0xF STOP CALLER ","sha1":"3b21e625ba5b42c0a1ec9695a9cd7d348966677d","source":"// SPDX-License-Identifier: MIT\n\npragma solidity 0.8.15;\n\nimport \"./studentData.sol\";\nimport \"./schoolFiles.sol\";\nimport \"./login.sol\";\nimport \"./attendance.sol\";\n\ncontract SchoolAdmin {\n    StudentData studentData;\n    SchoolFiles schoolFiles;\n    Login login;\n    Attendance attendance;\n    address public admin;\n    uint256 public maleStudents;\n    uint256 public femaleStudents;\n\n    event studentAdded(\n        uint256 indexed _studentId,\n        uint256 indexed _rollNumber,\n        uint256 indexed _class\n    );\n    event studentFound(uint256 indexed _studentId, uint256 indexed _rollNumber);\n    event assignmentAdded(\n        uint256 indexed _assignmentId,\n        uint256 indexed _class,\n        uint256 indexed _expiry\n    );\n    event assignmentSolutionAdded(\n        uint256 indexed _assignmentId,\n        uint256 indexed _solutionId,\n        uint256 indexed _studentId\n    );\n    event marksCardAdded(\n        uint256 indexed _marksCardId,\n        uint256 indexed _studentId,\n        uint256 indexed _expiry\n    );\n\n    event attendanceMarked(\n        uint256 indexed _studentId,\n        uint256 indexed _attendanceValue,\n        uint256 indexed _date\n    );\n\n    constructor(\n        address _studentData,\n        address _schoolFiles,\n        address _login,\n        address _attendance\n    ) {\n        studentData = StudentData(_studentData);\n        schoolFiles = SchoolFiles(_schoolFiles);\n        login = Login(_login);\n        attendance = Attendance(_attendance);\n        admin = msg.sender;\n    }\n\n    modifier isAdmin() {\n        require(msg.sender == admin, \"You are not the admin\");\n        _;\n    }\n\n    function getStudentCount()\n        public\n        view\n        isAdmin\n        returns (uint256 studentCount)\n    {\n        uint256 _studentCount = studentData.studentCount();\n        return _studentCount;\n    }\n\n    function rollNumberToStudentId(uint256 _rollNumber)\n        public\n        view\n        isAdmin\n        returns (uint256 studentId)\n    {\n        uint256 _studentId = studentData.rollNumberToStudentId(_rollNumber);\n        return _studentId;\n    }\n\n    function getPrimaryDetails(uint256 _studentId)\n        public\n        view\n        isAdmin\n        returns (\n            string memory _studentName,\n            uint256 _dob,\n            uint256 _rollNumber,\n            uint256 _grade,\n            string memory _email\n        )\n    {\n        return studentData.studentIdToPrimaryDetails(_studentId);\n    }\n\n    function getPersonalDetails(uint256 _studentId)\n        public\n        view\n        isAdmin\n        returns (\n            string memory _religion,\n            string memory _caste,\n            string memory _nationality,\n            uint256 _aadharNumber,\n            string memory _gender\n        )\n    {\n        return studentData.studentIdToPersonalDetails(_studentId);\n    }\n\n    function getPaternalDetails(uint256 _studentId)\n        public\n        view\n        isAdmin\n        returns (\n            string memory _fatherName,\n            string memory _currentAddress,\n            string memory _officeAddress,\n            string memory _fatherOccupation,\n            string memory _fatherEducation\n        )\n    {\n        return studentData.studentIdToPaternalDetails(_studentId);\n    }\n\n    function getMaternalDetails(uint256 _studentId)\n        public\n        view\n        isAdmin\n        returns (\n            string memory _motherName,\n            string memory _motherOccupation,\n            string memory _motherEducation\n        )\n    {\n        return studentData.studentIdToMaternalDetails(_studentId);\n    }\n\n    function getGuardianDetails(uint256 _studentId)\n        public\n        view\n        isAdmin\n        returns (string memory _guardianName, string memory _guardianAddress)\n    {\n        return studentData.studentIdToGuardianDetails(_studentId);\n    }\n\n    function getFamilyDetails(uint256 _studentId)\n        public\n        view\n        isAdmin\n        returns (\n            uint256 _familyIncome,\n            uint256 _primaryContact,\n            uint256 _secondaryContact\n        )\n    {\n        return studentData.studentIdToFamilyDetails(_studentId);\n    }\n\n    function getFiles(uint256 _studentId)\n        public\n        view\n        isAdmin\n        returns (\n            string memory _uploadAadharFront,\n            string memory _uploadAadharBack,\n            string memory _uploadIncomeCertificate,\n            string memory _uploadBirthCertificate,\n            string memory _uploadCasteCertificate\n        )\n    {\n        return studentData.studentIdToFiles(_studentId);\n    }\n\n    function getNonAcademic(uint256 _studentId)\n        public\n        view\n        isAdmin\n        returns (\n            string memory _sportsInvolved,\n            string memory _sportsAchievements,\n            string memory _extraCurricullum,\n            string memory _extraCurricullumAchievements,\n            string memory _personalityDevelopment,\n            string memory _personalityDevelopmentAchievements\n        )\n    {\n        return studentData.studentIdToNonAcademic(_studentId);\n    }\n\n    function addStudent(\n        string memory _studentName,\n        uint256 _dob,\n        uint256 _rollNumber,\n        uint256 _grade,\n        string memory _email\n    ) public isAdmin {\n        uint256 _studentId = studentData.addStudent(\n            _studentName,\n            _dob,\n            _rollNumber,\n            _grade,\n            _email\n        );\n        emit studentAdded(_studentId, _rollNumber, _grade);\n    }\n\n    function modifyPrimaryDetails(\n        uint256 _studentId,\n        string memory _studentName,\n        uint256 _dob,\n        uint256 _grade,\n        string memory _email\n    ) public isAdmin {\n        studentData.modifyPrimaryDetails(\n            _studentId,\n            _studentName,\n            _dob,\n            _grade,\n            _email\n        );\n    }\n\n    function addPersonalDetails(\n        uint256 _studentId,\n        string memory _religion,\n        string memory _caste,\n        string memory _nationality,\n        uint256 _aadharNumber,\n        string memory _gender\n    ) public isAdmin {\n        studentData.addPersonalDetails(\n            _studentId,\n            _religion,\n            _caste,\n            _nationality,\n            _aadharNumber,\n            _gender\n        );\n    }\n\n    function addPaternalDetails(\n        uint256 _studentId,\n        string memory _fatherName,\n        string memory _currentAddress,\n        string memory _officeAddress,\n        string memory _fatherOccupation,\n        string memory _fatherEducation\n    ) public isAdmin {\n        studentData.addPaternalDetails(\n            _studentId,\n            _fatherName,\n            _currentAddress,\n            _officeAddress,\n            _fatherOccupation,\n            _fatherEducation\n        );\n    }\n\n    function addMaternalDetails(\n        uint256 _studentId,\n        string memory _motherName,\n        string memory _motherOccupation,\n        string memory _motherEducation\n    ) public isAdmin {\n        studentData.addMaternalDetails(\n            _studentId,\n            _motherName,\n            _motherOccupation,\n            _motherEducation\n        );\n    }\n\n    function addGuardianDetails(\n        uint256 _studentId,\n        string memory _guardianName,\n        string memory _guardianAddress\n    ) public isAdmin {\n        studentData.addGuardianDetails(\n            _studentId,\n            _guardianName,\n            _guardianAddress\n        );\n    }\n\n    function addFamilyDetails(\n        uint256 _studentId,\n        uint256 _familyIncome,\n        uint256 _primaryContact,\n        uint256 _secondaryContact\n    ) public isAdmin {\n        studentData.addFamilyDetails(\n            _studentId,\n            _familyIncome,\n            _primaryContact,\n            _secondaryContact\n        );\n    }\n\n    function addFiles(\n        uint256 _studentId,\n        string memory _uploadAadharFront,\n        string memory _uploadAadharBack,\n        string memory _uploadIncomeCertificate,\n        string memory _uploadBirthCertificate,\n        string memory _uploadCasteCertificate\n    ) public isAdmin {\n        studentData.addFiles(\n            _studentId,\n            _uploadAadharFront,\n            _uploadAadharBack,\n            _uploadIncomeCertificate,\n            _uploadBirthCertificate,\n            _uploadCasteCertificate\n        );\n    }\n\n    function addNonAcademic(\n        uint256 _studentId,\n        string memory _sportsInvolved,\n        string memory _sportsAchievements,\n        string memory _extraCurricullum,\n        string memory _extraCurricullumAchievements,\n        string memory _personalityDevelopment,\n        string memory _personalityDevelopmentAchievements\n    ) public isAdmin {\n        studentData.addNonAcademic(\n            _studentId,\n            _sportsInvolved,\n            _sportsAchievements,\n            _extraCurricullum,\n            _extraCurricullumAchievements,\n            _personalityDevelopment,\n            _personalityDevelopmentAchievements\n        );\n    }\n\n    function searchStudent(string memory _name, uint256 _class) public isAdmin {\n        uint256 studentCount = getStudentCount();\n        for (uint256 studentId = 1; studentId <= studentCount; studentId++) {\n            (\n                string memory studentName,\n                ,\n                uint256 studentRollNumber,\n                uint256 studentClass,\n\n            ) = studentData.studentIdToPrimaryDetails(studentId);\n            if (\n                keccak256(abi.encodePacked(studentName)) ==\n                keccak256(abi.encodePacked(_name))\n            ) {\n                if (studentClass == _class) {\n                    emit studentFound(studentId, studentRollNumber);\n                }\n            }\n        }\n    }\n\n    function addAssignmentSolution(\n        uint256 _assignmentId,\n        string memory _file,\n        uint256 _studentId\n    ) public {\n        uint256 assignmentSolutionId = schoolFiles.addAssignmentSolution(\n            _assignmentId,\n            _file,\n            _studentId\n        );\n        emit assignmentSolutionAdded(\n            _assignmentId,\n            assignmentSolutionId,\n            _studentId\n        );\n    }\n\n    function addAssignment(\n        uint256 _class,\n        string memory _subject,\n        string memory _file,\n        string memory _topic,\n        uint256 _expiry\n    ) public {\n        uint256 assignmentId = schoolFiles.addAssignment(\n            _class,\n            _subject,\n            _file,\n            _topic,\n            _expiry\n        );\n        emit assignmentAdded(assignmentId, _class, _expiry);\n    }\n\n    function addMarksCard(\n        uint256 _studentId,\n        uint256 _class,\n        string memory _file,\n        uint256 _expiry\n    ) public {\n        uint256 _marksCardId = schoolFiles.addMarksCard(\n            _studentId,\n            _class,\n            _file,\n            _expiry\n        );\n        emit marksCardAdded(_marksCardId, _studentId, _expiry);\n    }\n\n    function addTimeTable(\n        uint256 _class,\n        string memory _exam,\n        string memory _file,\n        uint256 _uploadTime\n    ) public {\n        schoolFiles.addTimeTable(_class, _exam, _file, _uploadTime);\n    }\n\n    function getAssignmentSolutionData(uint256 _assignmentSolutionId)\n        public\n        view\n        isAdmin\n        returns (\n            string memory file,\n            uint256 assignmentId,\n            uint256 studentId\n        )\n    {\n        string memory _file = schoolFiles.assignmentSolutionIdTofile(\n            _assignmentSolutionId\n        );\n        uint256 _assignmentId = schoolFiles.assignmentSolutionIdToAssignmentId(\n            _assignmentSolutionId\n        );\n        uint256 _studentId = schoolFiles.assignmentSolutionIdToStudentId(\n            _assignmentSolutionId\n        );\n        return (_file, _assignmentId, _studentId);\n    }\n\n    function getAssignmentData(uint256 _assignmentId)\n        public\n        view\n        isAdmin\n        returns (\n            string memory subject,\n            string memory topic,\n            string memory file,\n            uint256 class,\n            uint256 expiry\n        )\n    {\n        string memory _subject = schoolFiles.assignmentIdTosubject(\n            _assignmentId\n        );\n        string memory _topic = schoolFiles.assignmentIdToTopic(_assignmentId);\n        string memory _file = schoolFiles.assignmentIdTofile(_assignmentId);\n        uint256 _class = schoolFiles.assignmentIdToclass(_assignmentId);\n        uint256 _expiry = schoolFiles.assignmentIdToExpiry(_assignmentId);\n        return (_subject, _topic, _file, _class, _expiry);\n    }\n\n    function getMarksCardData(uint256 _marksCardId)\n        public\n        view\n        isAdmin\n        returns (\n            uint256 studentId,\n            uint256 class,\n            string memory file\n        )\n    {\n        uint256 _studentId = schoolFiles.marksCardIdTostudentId(_marksCardId);\n        uint256 _class = schoolFiles.marksCardIdToclass(_marksCardId);\n        string memory _file = schoolFiles.marksCardIdTofile(_marksCardId);\n        return (_studentId, _class, _file);\n    }\n\n    function viewClassTimeTable(uint256 _class)\n        public\n        view\n        isAdmin\n        returns (string memory timeTableFile, uint256 uploadTime)\n    {\n        uint256 timetableCount = schoolFiles.timetableCount();\n        for (\n            uint256 timeTableId = timetableCount;\n            timeTableId > 0;\n            timeTableId--\n        ) {\n            if (\n                schoolFiles.timeTableIdToclass(timeTableId) == _class &&\n                keccak256(\n                    abi.encodePacked(schoolFiles.timeTableIdToexam(timeTableId))\n                ) ==\n                keccak256(abi.encodePacked(\"\"))\n            ) {\n                {\n                    return (\n                        schoolFiles.timeTableIdTofile(timeTableId),\n                        schoolFiles.timeTableIdToUploadTime(timeTableId)\n                    );\n                }\n            }\n        }\n        return (\"Time table not found\", 0);\n    }\n\n    function viewExamTimeTable(uint256 _class)\n        public\n        view\n        isAdmin\n        returns (string memory timeTableFile, uint256 uploadTime)\n    {\n        uint256 timetableCount = schoolFiles.timetableCount();\n        for (\n            uint256 timeTableId = timetableCount;\n            timeTableId > 0;\n            timeTableId--\n        ) {\n            if (\n                schoolFiles.timeTableIdToclass(timeTableId) == _class &&\n                keccak256(\n                    abi.encodePacked(schoolFiles.timeTableIdToexam(timeTableId))\n                ) !=\n                keccak256(abi.encodePacked(\"\"))\n            ) {\n                {\n                    return (\n                        schoolFiles.timeTableIdTofile(timeTableId),\n                        schoolFiles.timeTableIdToUploadTime(timeTableId)\n                    );\n                }\n            }\n        }\n        return (\"Time table not found\", 0);\n    }\n\n    function loginCheck(string memory _name, string memory _password)\n        public\n        view\n        returns (string memory _loginType, uint256 _id)\n    {\n        (_loginType, _id) = login.loginCheck(_name, _password);\n        return (_loginType, _id);\n    }\n\n    function markAttendance(\n        uint256 _studentId,\n        uint256 _attendanceValue,\n        uint256 _date\n    ) public isAdmin {\n        attendance.markAttendance(_studentId, _attendanceValue, _date);\n        emit attendanceMarked(_studentId, _attendanceValue, _date);\n    }\n\n    function getAttendance(uint256 _studentId, uint256 _date)\n        public\n        view\n        isAdmin\n        returns (uint256 attendanceMark)\n    {\n        return attendance.getAttendance(_studentId, _date);\n    }\n}\n","sourcePath":"contracts/schoolAdmin.sol","type":"contract"}