{"abi":[{"inputs":[{"internalType":"address","name":"_studentData","type":"address"},{"internalType":"address","name":"_schoolFiles","type":"address"},{"internalType":"address","name":"_login","type":"address"},{"internalType":"address","name":"_attendance","type":"address"}],"stateMutability":"nonpayable","type":"constructor"},{"anonymous":false,"inputs":[{"indexed":true,"internalType":"uint256","name":"_assignmentId","type":"uint256"},{"indexed":true,"internalType":"uint256","name":"_class","type":"uint256"},{"indexed":true,"internalType":"uint256","name":"_expiry","type":"uint256"}],"name":"assignmentAdded","type":"event"},{"anonymous":false,"inputs":[{"indexed":true,"internalType":"uint256","name":"_assignmentId","type":"uint256"},{"indexed":true,"internalType":"uint256","name":"_solutionId","type":"uint256"},{"indexed":true,"internalType":"uint256","name":"_studentId","type":"uint256"}],"name":"assignmentSolutionAdded","type":"event"},{"anonymous":false,"inputs":[{"indexed":true,"internalType":"uint256","name":"_studentId","type":"uint256"},{"indexed":true,"internalType":"uint256","name":"_attendanceValue","type":"uint256"},{"indexed":true,"internalType":"uint256","name":"_date","type":"uint256"}],"name":"attendanceMarked","type":"event"},{"anonymous":false,"inputs":[{"indexed":true,"internalType":"uint256","name":"_marksCardId","type":"uint256"},{"indexed":true,"internalType":"uint256","name":"_studentId","type":"uint256"},{"indexed":true,"internalType":"uint256","name":"_expiry","type":"uint256"}],"name":"marksCardAdded","type":"event"},{"anonymous":false,"inputs":[{"indexed":true,"internalType":"uint256","name":"_studentId","type":"uint256"},{"indexed":true,"internalType":"uint256","name":"_rollNumber","type":"uint256"},{"indexed":true,"internalType":"uint256","name":"_class","type":"uint256"}],"name":"studentAdded","type":"event"},{"anonymous":false,"inputs":[{"indexed":true,"internalType":"uint256","name":"_studentId","type":"uint256"},{"indexed":true,"internalType":"uint256","name":"_rollNumber","type":"uint256"}],"name":"studentFound","type":"event"},{"inputs":[{"internalType":"uint256","name":"_class","type":"uint256"},{"internalType":"string","name":"_subject","type":"string"},{"internalType":"string","name":"_file","type":"string"},{"internalType":"string","name":"_topic","type":"string"},{"internalType":"uint256","name":"_expiry","type":"uint256"}],"name":"addAssignment","outputs":[],"stateMutability":"nonpayable","type":"function"},{"inputs":[{"internalType":"uint256","name":"_assignmentId","type":"uint256"},{"internalType":"string","name":"_file","type":"string"},{"internalType":"uint256","name":"_studentId","type":"uint256"}],"name":"addAssignmentSolution","outputs":[],"stateMutability":"nonpayable","type":"function"},{"inputs":[{"internalType":"uint256","name":"_studentId","type":"uint256"},{"internalType":"uint256","name":"_familyIncome","type":"uint256"},{"internalType":"uint256","name":"_primaryContact","type":"uint256"},{"internalType":"uint256","name":"_secondaryContact","type":"uint256"}],"name":"addFamilyDetails","outputs":[],"stateMutability":"nonpayable","type":"function"},{"inputs":[{"internalType":"uint256","name":"_studentId","type":"uint256"},{"internalType":"string","name":"_uploadAadharFront","type":"string"},{"internalType":"string","name":"_uploadAadharBack","type":"string"},{"internalType":"string","name":"_uploadIncomeCertificate","type":"string"},{"internalType":"string","name":"_uploadBirthCertificate","type":"string"},{"internalType":"string","name":"_uploadCasteCertificate","type":"string"}],"name":"addFiles","outputs":[],"stateMutability":"nonpayable","type":"function"},{"inputs":[{"internalType":"uint256","name":"_studentId","type":"uint256"},{"internalType":"string","name":"_guardianName","type":"string"},{"internalType":"string","name":"_guardianAddress","type":"string"}],"name":"addGuardianDetails","outputs":[],"stateMutability":"nonpayable","type":"function"},{"inputs":[{"internalType":"uint256","name":"_studentId","type":"uint256"},{"internalType":"uint256","name":"_class","type":"uint256"},{"internalType":"string","name":"_file","type":"string"},{"internalType":"uint256","name":"_expiry","type":"uint256"}],"name":"addMarksCard","outputs":[],"stateMutability":"nonpayable","type":"function"},{"inputs":[{"internalType":"uint256","name":"_studentId","type":"uint256"},{"internalType":"string","name":"_motherName","type":"string"},{"internalType":"string","name":"_motherOccupation","type":"string"},{"internalType":"string","name":"_motherEducation","type":"string"}],"name":"addMaternalDetails","outputs":[],"stateMutability":"nonpayable","type":"function"},{"inputs":[{"internalType":"uint256","name":"_studentId","type":"uint256"},{"internalType":"string","name":"_sportsInvolved","type":"string"},{"internalType":"string","name":"_sportsAchievements","type":"string"},{"internalType":"string","name":"_extraCurricullum","type":"string"},{"internalType":"string","name":"_extraCurricullumAchievements","type":"string"},{"internalType":"string","name":"_personalityDevelopment","type":"string"},{"internalType":"string","name":"_personalityDevelopmentAchievements","type":"string"}],"name":"addNonAcademic","outputs":[],"stateMutability":"nonpayable","type":"function"},{"inputs":[{"internalType":"uint256","name":"_studentId","type":"uint256"},{"internalType":"string","name":"_fatherName","type":"string"},{"internalType":"string","name":"_currentAddress","type":"string"},{"internalType":"string","name":"_officeAddress","type":"string"},{"internalType":"string","name":"_fatherOccupation","type":"string"},{"internalType":"string","name":"_fatherEducation","type":"string"}],"name":"addPaternalDetails","outputs":[],"stateMutability":"nonpayable","type":"function"},{"inputs":[{"internalType":"uint256","name":"_studentId","type":"uint256"},{"internalType":"string","name":"_religion","type":"string"},{"internalType":"string","name":"_caste","type":"string"},{"internalType":"string","name":"_nationality","type":"string"},{"internalType":"uint256","name":"_aadharNumber","type":"uint256"},{"internalType":"string","name":"_gender","type":"string"}],"name":"addPersonalDetails","outputs":[],"stateMutability":"nonpayable","type":"function"},{"inputs":[{"internalType":"string","name":"_studentName","type":"string"},{"internalType":"uint256","name":"_dob","type":"uint256"},{"internalType":"uint256","name":"_rollNumber","type":"uint256"},{"internalType":"uint256","name":"_grade","type":"uint256"},{"internalType":"string","name":"_email","type":"string"}],"name":"addStudent","outputs":[],"stateMutability":"nonpayable","type":"function"},{"inputs":[{"internalType":"uint256","name":"_class","type":"uint256"},{"internalType":"string","name":"_exam","type":"string"},{"internalType":"string","name":"_file","type":"string"},{"internalType":"uint256","name":"_uploadTime","type":"uint256"}],"name":"addTimeTable","outputs":[],"stateMutability":"nonpayable","type":"function"},{"inputs":[],"name":"admin","outputs":[{"internalType":"address","name":"","type":"address"}],"stateMutability":"view","type":"function"},{"inputs":[],"name":"femaleStudents","outputs":[{"internalType":"uint256","name":"","type":"uint256"}],"stateMutability":"view","type":"function"},{"inputs":[{"internalType":"uint256","name":"_assignmentId","type":"uint256"}],"name":"getAssignmentData","outputs":[{"internalType":"string","name":"subject","type":"string"},{"internalType":"string","name":"topic","type":"string"},{"internalType":"string","name":"file","type":"string"},{"internalType":"uint256","name":"class","type":"uint256"},{"internalType":"uint256","name":"expiry","type":"uint256"}],"stateMutability":"view","type":"function"},{"inputs":[{"internalType":"uint256","name":"_assignmentSolutionId","type":"uint256"}],"name":"getAssignmentSolutionData","outputs":[{"internalType":"string","name":"file","type":"string"},{"internalType":"uint256","name":"assignmentId","type":"uint256"},{"internalType":"uint256","name":"studentId","type":"uint256"}],"stateMutability":"view","type":"function"},{"inputs":[{"internalType":"uint256","name":"_studentId","type":"uint256"}],"name":"getFamilyDetails","outputs":[{"internalType":"uint256","name":"_familyIncome","type":"uint256"},{"internalType":"uint256","name":"_primaryContact","type":"uint256"},{"internalType":"uint256","name":"_secondaryContact","type":"uint256"}],"stateMutability":"view","type":"function"},{"inputs":[{"internalType":"uint256","name":"_studentId","type":"uint256"}],"name":"getFiles","outputs":[{"internalType":"string","name":"_uploadAadharFront","type":"string"},{"internalType":"string","name":"_uploadAadharBack","type":"string"},{"internalType":"string","name":"_uploadIncomeCertificate","type":"string"},{"internalType":"string","name":"_uploadBirthCertificate","type":"string"},{"internalType":"string","name":"_uploadCasteCertificate","type":"string"}],"stateMutability":"view","type":"function"},{"inputs":[{"internalType":"uint256","name":"_studentId","type":"uint256"}],"name":"getGuardianDetails","outputs":[{"internalType":"string","name":"_guardianName","type":"string"},{"internalType":"string","name":"_guardianAddress","type":"string"}],"stateMutability":"view","type":"function"},{"inputs":[{"internalType":"uint256","name":"_marksCardId","type":"uint256"}],"name":"getMarksCardData","outputs":[{"internalType":"uint256","name":"studentId","type":"uint256"},{"internalType":"uint256","name":"class","type":"uint256"},{"internalType":"string","name":"file","type":"string"}],"stateMutability":"view","type":"function"},{"inputs":[{"internalType":"uint256","name":"_studentId","type":"uint256"}],"name":"getMaternalDetails","outputs":[{"internalType":"string","name":"_motherName","type":"string"},{"internalType":"string","name":"_motherOccupation","type":"string"},{"internalType":"string","name":"_motherEducation","type":"string"}],"stateMutability":"view","type":"function"},{"inputs":[{"internalType":"uint256","name":"_studentId","type":"uint256"}],"name":"getNonAcademic","outputs":[{"internalType":"string","name":"_sportsInvolved","type":"string"},{"internalType":"string","name":"_sportsAchievements","type":"string"},{"internalType":"string","name":"_extraCurricullum","type":"string"},{"internalType":"string","name":"_extraCurricullumAchievements","type":"string"},{"internalType":"string","name":"_personalityDevelopment","type":"string"},{"internalType":"string","name":"_personalityDevelopmentAchievements","type":"string"}],"stateMutability":"view","type":"function"},{"inputs":[{"internalType":"uint256","name":"_studentId","type":"uint256"}],"name":"getPaternalDetails","outputs":[{"internalType":"string","name":"_fatherName","type":"string"},{"internalType":"string","name":"_currentAddress","type":"string"},{"internalType":"string","name":"_officeAddress","type":"string"},{"internalType":"string","name":"_fatherOccupation","type":"string"},{"internalType":"string","name":"_fatherEducation","type":"string"}],"stateMutability":"view","type":"function"},{"inputs":[{"internalType":"uint256","name":"_studentId","type":"uint256"}],"name":"getPersonalDetails","outputs":[{"internalType":"string","name":"_religion","type":"string"},{"internalType":"string","name":"_caste","type":"string"},{"internalType":"string","name":"_nationality","type":"string"},{"internalType":"uint256","name":"_aadharNumber","type":"uint256"},{"internalType":"string","name":"_gender","type":"string"}],"stateMutability":"view","type":"function"},{"inputs":[{"internalType":"uint256","name":"_studentId","type":"uint256"}],"name":"getPrimaryDetails","outputs":[{"internalType":"string","name":"_studentName","type":"string"},{"internalType":"uint256","name":"_dob","type":"uint256"},{"internalType":"uint256","name":"_rollNumber","type":"uint256"},{"internalType":"uint256","name":"_grade","type":"uint256"},{"internalType":"string","name":"_email","type":"string"}],"stateMutability":"view","type":"function"},{"inputs":[],"name":"getStudentCount","outputs":[{"internalType":"uint256","name":"studentCount","type":"uint256"}],"stateMutability":"view","type":"function"},{"inputs":[{"internalType":"string","name":"_name","type":"string"},{"internalType":"string","name":"_password","type":"string"}],"name":"loginCheck","outputs":[{"internalType":"string","name":"_loginType","type":"string"},{"internalType":"uint256","name":"_id","type":"uint256"}],"stateMutability":"view","type":"function"},{"inputs":[],"name":"maleStudents","outputs":[{"internalType":"uint256","name":"","type":"uint256"}],"stateMutability":"view","type":"function"},{"inputs":[{"internalType":"uint256","name":"_studentId","type":"uint256"},{"internalType":"uint256","name":"_attendanceValue","type":"uint256"},{"internalType":"uint256","name":"_date","type":"uint256"}],"name":"markAttendance","outputs":[],"stateMutability":"nonpayable","type":"function"},{"inputs":[{"internalType":"uint256","name":"_studentId","type":"uint256"},{"internalType":"string","name":"_studentName","type":"string"},{"internalType":"uint256","name":"_dob","type":"uint256"},{"internalType":"uint256","name":"_grade","type":"uint256"},{"internalType":"string","name":"_email","type":"string"}],"name":"modifyPrimaryDetails","outputs":[],"stateMutability":"nonpayable","type":"function"},{"inputs":[{"internalType":"uint256","name":"_rollNumber","type":"uint256"}],"name":"rollNumberToStudentId","outputs":[{"internalType":"uint256","name":"studentId","type":"uint256"}],"stateMutability":"view","type":"function"},{"inputs":[{"internalType":"string","name":"_name","type":"string"},{"internalType":"uint256","name":"_class","type":"uint256"}],"name":"searchStudent","outputs":[],"stateMutability":"nonpayable","type":"function"},{"inputs":[{"internalType":"uint256","name":"_class","type":"uint256"}],"name":"viewClassTimeTable","outputs":[{"internalType":"string","name":"timeTableFile","type":"string"},{"internalType":"uint256","name":"uploadTime","type":"uint256"}],"stateMutability":"view","type":"function"},{"inputs":[{"internalType":"uint256","name":"_class","type":"uint256"}],"name":"viewExamTimeTable","outputs":[{"internalType":"string","name":"timeTableFile","type":"string"},{"internalType":"uint256","name":"uploadTime","type":"uint256"}],"stateMutability":"view","type":"function"}],"bytecode":"60806040523480156200001157600080fd5b506040516200349b3803806200349b8339810160408190526200003491620000b1565b600080546001600160a01b03199081166001600160a01b039687161790915560018054821694861694909417909355600280548416928516929092179091556003805483169190931617909155600480543392169190911790556200010e565b80516001600160a01b0381168114620000ac57600080fd5b919050565b60008060008060808587031215620000c857600080fd5b620000d38562000094565b9350620000e36020860162000094565b9250620000f36040860162000094565b9150620001036060860162000094565b905092959194509250565b61337d806200011e6000396000f3fe608060405234801561001057600080fd5b50600436106102065760003560e01c80638322f5561161011a578063c42f4ff0116100ad578063d6e546271161007c578063d6e54627146104d4578063d81d7704146104e7578063d83463c9146104fa578063f15ec62d1461050d578063f851a4401461053257600080fd5b8063c42f4ff014610479578063c4cdc4b61461048c578063c7c62f6f146104ae578063d4cb7cf3146104c157600080fd5b8063b93a6942116100e9578063b93a694214610437578063bf452c5914610440578063c010f05014610453578063c29871d71461046657600080fd5b80638322f556146103cb5780639cdf2316146103de578063a44675c914610402578063ab236dc91461042457600080fd5b806347f9009e1161019d57806361920ee11161016c57806361920ee11461033f57806361dea39314610363578063737892b2146103845780637c663e4d1461039757806380f7cdce146103aa57600080fd5b806347f9009e146102c95780634bdce352146102f757806358e2af96146103195780635f3a3cf11461032c57600080fd5b8063299f81e0116101d9578063299f81e01461028457806329ee6be11461029757806341e0c407146102ae578063469ff627146102b657600080fd5b80630c96262d1461020b57806312506f4d1461022057806323415c111461024d57806328973f6c14610271575b600080fd5b61021e61021936600461216f565b61055d565b005b61023361022e3660046121db565b6105fb565b60405161024495949392919061224c565b60405180910390f35b61026061025b3660046121db565b6106b4565b6040516102449594939291906122b9565b61021e61027f36600461230c565b61075b565b61021e61029236600461233e565b6107ff565b6102a060065481565b604051908152602001610244565b6102a061085f565b6102336102c43660046121db565b61090a565b6102dc6102d73660046121db565b610970565b60408051938452602084019290925290820152606001610244565b61030a6103053660046121db565b610a1b565b604051610244939291906123cf565b61021e6103273660046123f4565b610bb3565b61021e61033a3660046124cd565b610c51565b61035261034d3660046121db565b610cec565b60405161024495949392919061254d565b6103766103713660046121db565b610f7b565b60405161024492919061259b565b6102a06103923660046121db565b611024565b61021e6103a53660046125c9565b6110c6565b6103bd6103b83660046121db565b611178565b604051610244929190612620565b6103bd6103d9366004612642565b611478565b6103f16103ec3660046121db565b611500565b6040516102449594939291906126a5565b6104156104103660046121db565b6115a7565b604051610244939291906126dc565b61021e6104323660046126fb565b611731565b6102a060055481565b61021e61044e366004612794565b6117e6565b61021e6104613660046127c0565b6118b0565b61021e6104743660046123f4565b6118e6565b61021e610487366004612823565b61194a565b61049f61049a3660046121db565b6119ae565b604051610244939291906128c7565b6103bd6104bc3660046121db565b611a50565b61021e6104cf36600461290a565b611c5f565b61021e6104e2366004612a09565b611d00565b61021e6104f5366004612a4d565b611e62565b61021e610508366004612ab3565b611f41565b61052061051b3660046121db565b611ff0565b60405161024496959493929190612b02565b600454610545906001600160a01b031681565b6040516001600160a01b039091168152602001610244565b6004546001600160a01b031633146105905760405162461bcd60e51b815260040161058790612b84565b60405180910390fd5b600054604051630c96262d60e01b81526001600160a01b0390911690630c96262d906105c490869086908690600401612bb3565b600060405180830381600087803b1580156105de57600080fd5b505af11580156105f2573d6000803e3d6000fd5b50505050505050565b60045460609081908190819081906001600160a01b031633146106305760405162461bcd60e51b815260040161058790612b84565b60005460405163126ea08560e31b8152600481018890526001600160a01b03909116906393750428906024015b600060405180830381865afa15801561067a573d6000803e3d6000fd5b505050506040513d6000823e601f3d908101601f191682016040526106a29190810190612c2b565b939a9299509097509550909350915050565b6004546060908190819060009082906001600160a01b031633146106ea5760405162461bcd60e51b815260040161058790612b84565b6000546040516370cfa98560e01b8152600481018890526001600160a01b03909116906370cfa98590602401600060405180830381865afa158015610733573d6000803e3d6000fd5b505050506040513d6000823e601f3d908101601f191682016040526106a29190810190612cef565b6004546001600160a01b031633146107855760405162461bcd60e51b815260040161058790612b84565b600054604051630a25cfdb60e21b8152600481018690526024810185905260448101849052606481018390526001600160a01b03909116906328973f6c906084015b600060405180830381600087803b1580156107e157600080fd5b505af11580156107f5573d6000803e3d6000fd5b5050505050505050565b6004546001600160a01b031633146108295760405162461bcd60e51b815260040161058790612b84565b60005460405163014cfc0f60e51b81526001600160a01b039091169063299f81e0906107c7908790879087908790600401612d8b565b6004546000906001600160a01b0316331461088c5760405162461bcd60e51b815260040161058790612b84565b60008060009054906101000a90046001600160a01b03166001600160a01b031663e581f9ee6040518163ffffffff1660e01b8152600401602060405180830381865afa1580156108e0573d6000803e3d6000fd5b505050506040513d601f19601f820116820180604052508101906109049190612dd5565b91505090565b60045460609081908190819081906001600160a01b0316331461093f5760405162461bcd60e51b815260040161058790612b84565b60005460405163b1e6328d60e01b8152600481018890526001600160a01b039091169063b1e6328d9060240161065d565b600454600090819081906001600160a01b031633146109a15760405162461bcd60e51b815260040161058790612b84565b6000546040516330267d3160e11b8152600481018690526001600160a01b039091169063604cfa6290602401606060405180830381865afa1580156109ea573d6000803e3d6000fd5b505050506040513d601f19601f82011682018060405250810190610a0e9190612dee565b9250925092509193909250565b60045460609060009081906001600160a01b03163314610a4d5760405162461bcd60e51b815260040161058790612b84565b6001546040516369e5ae0f60e01b8152600481018690526000916001600160a01b0316906369e5ae0f90602401600060405180830381865afa158015610a97573d6000803e3d6000fd5b505050506040513d6000823e601f3d908101601f19168201604052610abf9190810190612e1c565b60015460405163c493adc760e01b8152600481018890529192506000916001600160a01b039091169063c493adc790602401602060405180830381865afa158015610b0e573d6000803e3d6000fd5b505050506040513d601f19601f82011682018060405250810190610b329190612dd5565b60015460405163077f807f60e01b8152600481018990529192506000916001600160a01b039091169063077f807f90602401602060405180830381865afa158015610b81573d6000803e3d6000fd5b505050506040513d601f19601f82011682018060405250810190610ba59190612dd5565b929791965091945092505050565b6004546001600160a01b03163314610bdd5760405162461bcd60e51b815260040161058790612b84565b600054604051632c7157cb60e11b81526001600160a01b03909116906358e2af9690610c1790899089908990899089908990600401612e50565b600060405180830381600087803b158015610c3157600080fd5b505af1158015610c45573d6000803e3d6000fd5b50505050505050505050565b6004546001600160a01b03163314610c7b5760405162461bcd60e51b815260040161058790612b84565b600054604051635f3a3cf160e01b81526001600160a01b0390911690635f3a3cf190610cb39088908890889088908890600401612e7b565b600060405180830381600087803b158015610ccd57600080fd5b505af1158015610ce1573d6000803e3d6000fd5b505050505050505050565b6004546060908190819060009081906001600160a01b03163314610d225760405162461bcd60e51b815260040161058790612b84565b600154604051630a18baf360e21b8152600481018890526000916001600160a01b031690632862ebcc90602401600060405180830381865afa158015610d6c573d6000803e3d6000fd5b505050506040513d6000823e601f3d908101601f19168201604052610d949190810190612e1c565b600154604051635eb86b9560e01b8152600481018a90529192506000916001600160a01b0390911690635eb86b9590602401600060405180830381865afa158015610de3573d6000803e3d6000fd5b505050506040513d6000823e601f3d908101601f19168201604052610e0b9190810190612e1c565b60015460405163ecde140560e01b8152600481018b90529192506000916001600160a01b039091169063ecde140590602401600060405180830381865afa158015610e5a573d6000803e3d6000fd5b505050506040513d6000823e601f3d908101601f19168201604052610e829190810190612e1c565b600154604051637dfa364960e01b8152600481018c90529192506000916001600160a01b0390911690637dfa364990602401602060405180830381865afa158015610ed1573d6000803e3d6000fd5b505050506040513d601f19601f82011682018060405250810190610ef59190612dd5565b6001546040516367379d4960e11b8152600481018d90529192506000916001600160a01b039091169063ce6f3a9290602401602060405180830381865afa158015610f44573d6000803e3d6000fd5b505050506040513d601f19601f82011682018060405250810190610f689190612dd5565b949b939a50919850965091945092505050565b60045460609081906001600160a01b03163314610faa5760405162461bcd60e51b815260040161058790612b84565b600054604051632c324bfb60e11b8152600481018590526001600160a01b039091169063586497f690602401600060405180830381865afa158015610ff3573d6000803e3d6000fd5b505050506040513d6000823e601f3d908101601f1916820160405261101b9190810190612eb2565b91509150915091565b6004546000906001600160a01b031633146110515760405162461bcd60e51b815260040161058790612b84565b600080546040516339bc495960e11b8152600481018590526001600160a01b039091169063737892b290602401602060405180830381865afa15801561109b573d6000803e3d6000fd5b505050506040513d601f19601f820116820180604052508101906110bf9190612dd5565b9392505050565b600154604051637c663e4d60e01b81526000916001600160a01b031690637c663e4d906110fd908890889088908890600401612f0b565b6020604051808303816000875af115801561111c573d6000803e3d6000fd5b505050506040513d601f19601f820116820180604052508101906111409190612dd5565b90508185827f60cf56e8cd40d30413f6042836cfd24582eaf95589047f0883aa7209ffee9e3360405160405180910390a45050505050565b6004546060906000906001600160a01b031633146111a85760405162461bcd60e51b815260040161058790612b84565b6001546040805163f57c649160e01b815290516000926001600160a01b03169163f57c64919160048083019260209291908290030181865afa1580156111f2573d6000803e3d6000fd5b505050506040513d601f19601f820116820180604052508101906112169190612dd5565b9050805b8015611441576001546040516369d5213b60e01b81526004810183905286916001600160a01b0316906369d5213b90602401602060405180830381865afa158015611269573d6000803e3d6000fd5b505050506040513d601f19601f8201168201806040525081019061128d9190612dd5565b148015611340575060408051600081526020810191829052805182206001546361590d5560e01b90935260248201849052916001600160a01b0316906361590d5590604401600060405180830381865afa1580156112ef573d6000803e3d6000fd5b505050506040513d6000823e601f3d908101601f191682016040526113179190810190612e1c565b6040516020016113279190612f3b565b6040516020818303038152906040528051906020012014155b1561142f57600154604051634273db4960e11b8152600481018390526001600160a01b03909116906384e7b692906024015b600060405180830381865afa15801561138f573d6000803e3d6000fd5b505050506040513d6000823e601f3d908101601f191682016040526113b79190810190612e1c565b600154604051634a0c230360e11b8152600481018490526001600160a01b0390911690639418460690602401602060405180830381865afa158015611400573d6000803e3d6000fd5b505050506040513d601f19601f820116820180604052508101906114249190612dd5565b935093505050915091565b8061143981612f6d565b91505061121a565b5050604080518082019091526014815273151a5b59481d18589b19481b9bdd08199bdd5b9960621b60208201529360009350915050565b6002546040516341917aab60e11b81526060916000916001600160a01b0390911690638322f556906114b0908790879060040161259b565b600060405180830381865afa1580156114cd573d6000803e3d6000fd5b505050506040513d6000823e601f3d908101601f191682016040526114f59190810190612f84565b909590945092505050565b6004546060906000908190819084906001600160a01b031633146115365760405162461bcd60e51b815260040161058790612b84565b600054604051630c3a356b60e11b8152600481018890526001600160a01b03909116906318746ad690602401600060405180830381865afa15801561157f573d6000803e3d6000fd5b505050506040513d6000823e601f3d908101601f191682016040526106a29190810190612fca565b60045460009081906060906001600160a01b031633146115d95760405162461bcd60e51b815260040161058790612b84565b600154604051633cd9996960e11b8152600481018690526000916001600160a01b0316906379b332d290602401602060405180830381865afa158015611623573d6000803e3d6000fd5b505050506040513d601f19601f820116820180604052508101906116479190612dd5565b60015460405163c7e674f160e01b8152600481018890529192506000916001600160a01b039091169063c7e674f190602401602060405180830381865afa158015611696573d6000803e3d6000fd5b505050506040513d601f19601f820116820180604052508101906116ba9190612dd5565b600154604051636338c89f60e01b8152600481018990529192506000916001600160a01b0390911690636338c89f90602401600060405180830381865afa158015611709573d6000803e3d6000fd5b505050506040513d6000823e601f3d908101601f19168201604052610ba59190810190612e1c565b60015460405163ab236dc960e01b81526000916001600160a01b03169063ab236dc99061176a9089908990899089908990600401613030565b6020604051808303816000875af1158015611789573d6000803e3d6000fd5b505050506040513d601f19601f820116820180604052508101906117ad9190612dd5565b90508186827f289ec7e79a70db9e5a21c4aa4bc91de5745406fdc5fa52a91224e0f0e8d674af60405160405180910390a4505050505050565b6004546001600160a01b031633146118105760405162461bcd60e51b815260040161058790612b84565b60035460405163bf452c5960e01b81526004810185905260248101849052604481018390526001600160a01b039091169063bf452c5990606401600060405180830381600087803b15801561186457600080fd5b505af1158015611878573d6000803e3d6000fd5b505050508082847f3c00a957d8b0ed88bf0ad892175a6f1b9fa89360787136e23a2ffbc5dc0baaf960405160405180910390a4505050565b600154604051630c010f0560e41b81526001600160a01b039091169063c010f050906107c7908790879087908790600401613082565b6004546001600160a01b031633146119105760405162461bcd60e51b815260040161058790612b84565b60005460405163c29871d760e01b81526001600160a01b039091169063c29871d790610c1790899089908990899089908990600401612e50565b6004546001600160a01b031633146119745760405162461bcd60e51b815260040161058790612b84565b600054604051630c42f4ff60e41b81526001600160a01b039091169063c42f4ff090610c17908990899089908990899089906004016130bf565b600454606090819081906001600160a01b031633146119df5760405162461bcd60e51b815260040161058790612b84565b60005460405163670a344760e11b8152600481018690526001600160a01b039091169063ce14688e90602401600060405180830381865afa158015611a28573d6000803e3d6000fd5b505050506040513d6000823e601f3d908101601f19168201604052610a0e9190810190613118565b6004546060906000906001600160a01b03163314611a805760405162461bcd60e51b815260040161058790612b84565b6001546040805163f57c649160e01b815290516000926001600160a01b03169163f57c64919160048083019260209291908290030181865afa158015611aca573d6000803e3d6000fd5b505050506040513d601f19601f82011682018060405250810190611aee9190612dd5565b9050805b8015611441576001546040516369d5213b60e01b81526004810183905286916001600160a01b0316906369d5213b90602401602060405180830381865afa158015611b41573d6000803e3d6000fd5b505050506040513d601f19601f82011682018060405250810190611b659190612dd5565b148015611c17575060408051600081526020810191829052805182206001546361590d5560e01b90935260248201849052916001600160a01b0316906361590d5590604401600060405180830381865afa158015611bc7573d6000803e3d6000fd5b505050506040513d6000823e601f3d908101601f19168201604052611bef9190810190612e1c565b604051602001611bff9190612f3b565b60405160208183030381529060405280519060200120145b15611c4d57600154604051634273db4960e11b8152600481018390526001600160a01b03909116906384e7b69290602401611372565b80611c5781612f6d565b915050611af2565b6004546001600160a01b03163314611c895760405162461bcd60e51b815260040161058790612b84565b60005460405163d4cb7cf360e01b81526001600160a01b039091169063d4cb7cf390611cc5908a908a908a908a908a908a908a90600401613195565b600060405180830381600087803b158015611cdf57600080fd5b505af1158015611cf3573d6000803e3d6000fd5b5050505050505050505050565b6004546001600160a01b03163314611d2a5760405162461bcd60e51b815260040161058790612b84565b6000611d3461085f565b905060015b818111611e5c5760008054604051630c3a356b60e11b815260048101849052829182916001600160a01b03909116906318746ad690602401600060405180830381865afa158015611d8e573d6000803e3d6000fd5b505050506040513d6000823e601f3d908101601f19168201604052611db69190810190612fca565b509350935050925086604051602001611dcf9190612f3b565b6040516020818303038152906040528051906020012083604051602001611df69190612f3b565b6040516020818303038152906040528051906020012003611e4657858103611e4657604051829085907f78a5f595baa9b25b7a730211c5cf18e46d8c54f6cd7558ab36ff8ef5cf76d19e90600090a35b5050508080611e549061321e565b915050611d39565b50505050565b6004546001600160a01b03163314611e8c5760405162461bcd60e51b815260040161058790612b84565b600080546040516336075dc160e21b81526001600160a01b039091169063d81d770490611ec590899089908990899089906004016126a5565b6020604051808303816000875af1158015611ee4573d6000803e3d6000fd5b505050506040513d601f19601f82011682018060405250810190611f089190612dd5565b90508284827f8914be557f12c8b4ec80d2de1bbd0ce352f4e74dae0fc548a0fd56ac07b6604460405160405180910390a4505050505050565b60015460405163d83463c960e01b81526000916001600160a01b03169063d83463c990611f7690879087908790600401613237565b6020604051808303816000875af1158015611f95573d6000803e3d6000fd5b505050506040513d601f19601f82011682018060405250810190611fb99190612dd5565b90508181857f0ad6d3adecc8b5201d9897b24894ee0092797e79be758b09f0df6eecb2d105b960405160405180910390a450505050565b600454606090819081908190819081906001600160a01b031633146120275760405162461bcd60e51b815260040161058790612b84565b6000546040516310eb2cf960e31b8152600481018990526001600160a01b039091169063875967c890602401600060405180830381865afa158015612070573d6000803e3d6000fd5b505050506040513d6000823e601f3d908101601f191682016040526120989190810190613260565b949c939b5091995097509550909350915050565b634e487b7160e01b600052604160045260246000fd5b604051601f8201601f191681016001600160401b03811182821017156120ea576120ea6120ac565b604052919050565b60006001600160401b0382111561210b5761210b6120ac565b50601f01601f191660200190565b600082601f83011261212a57600080fd5b813561213d612138826120f2565b6120c2565b81815284602083860101111561215257600080fd5b816020850160208301376000918101602001919091529392505050565b60008060006060848603121561218457600080fd5b8335925060208401356001600160401b03808211156121a257600080fd5b6121ae87838801612119565b935060408601359150808211156121c457600080fd5b506121d186828701612119565b9150509250925092565b6000602082840312156121ed57600080fd5b5035919050565b60005b8381101561220f5781810151838201526020016121f7565b83811115611e5c5750506000910152565b600081518084526122388160208601602086016121f4565b601f01601f19169290920160200192915050565b60a08152600061225f60a0830188612220565b82810360208401526122718188612220565b905082810360408401526122858187612220565b905082810360608401526122998186612220565b905082810360808401526122ad8185612220565b98975050505050505050565b60a0815260006122cc60a0830188612220565b82810360208401526122de8188612220565b905082810360408401526122f28187612220565b905084606084015282810360808401526122ad8185612220565b6000806000806080858703121561232257600080fd5b5050823594602084013594506040840135936060013592509050565b6000806000806080858703121561235457600080fd5b8435935060208501356001600160401b038082111561237257600080fd5b61237e88838901612119565b9450604087013591508082111561239457600080fd5b6123a088838901612119565b935060608701359150808211156123b657600080fd5b506123c387828801612119565b91505092959194509250565b6060815260006123e26060830186612220565b60208301949094525060400152919050565b60008060008060008060c0878903121561240d57600080fd5b8635955060208701356001600160401b038082111561242b57600080fd5b6124378a838b01612119565b9650604089013591508082111561244d57600080fd5b6124598a838b01612119565b9550606089013591508082111561246f57600080fd5b61247b8a838b01612119565b9450608089013591508082111561249157600080fd5b61249d8a838b01612119565b935060a08901359150808211156124b357600080fd5b506124c089828a01612119565b9150509295509295509295565b600080600080600060a086880312156124e557600080fd5b8535945060208601356001600160401b038082111561250357600080fd5b61250f89838a01612119565b95506040880135945060608801359350608088013591508082111561253357600080fd5b5061254088828901612119565b9150509295509295909350565b60a08152600061256060a0830188612220565b82810360208401526125728188612220565b905082810360408401526125868187612220565b60608401959095525050608001529392505050565b6040815260006125ae6040830185612220565b82810360208401526125c08185612220565b95945050505050565b600080600080608085870312156125df57600080fd5b843593506020850135925060408501356001600160401b0381111561260357600080fd5b61260f87828801612119565b949793965093946060013593505050565b6040815260006126336040830185612220565b90508260208301529392505050565b6000806040838503121561265557600080fd5b82356001600160401b038082111561266c57600080fd5b61267886838701612119565b9350602085013591508082111561268e57600080fd5b5061269b85828601612119565b9150509250929050565b60a0815260006126b860a0830188612220565b86602084015285604084015284606084015282810360808401526122ad8185612220565b8381528260208201526060604082015260006125c06060830184612220565b600080600080600060a0868803121561271357600080fd5b8535945060208601356001600160401b038082111561273157600080fd5b61273d89838a01612119565b9550604088013591508082111561275357600080fd5b61275f89838a01612119565b9450606088013591508082111561277557600080fd5b5061278288828901612119565b95989497509295608001359392505050565b6000806000606084860312156127a957600080fd5b505081359360208301359350604090920135919050565b600080600080608085870312156127d657600080fd5b8435935060208501356001600160401b03808211156127f457600080fd5b61280088838901612119565b9450604087013591508082111561281657600080fd5b5061260f87828801612119565b60008060008060008060c0878903121561283c57600080fd5b8635955060208701356001600160401b038082111561285a57600080fd5b6128668a838b01612119565b9650604089013591508082111561287c57600080fd5b6128888a838b01612119565b9550606089013591508082111561289e57600080fd5b6128aa8a838b01612119565b94506080890135935060a08901359150808211156124b357600080fd5b6060815260006128da6060830186612220565b82810360208401526128ec8186612220565b905082810360408401526129008185612220565b9695505050505050565b600080600080600080600060e0888a03121561292557600080fd5b8735965060208801356001600160401b038082111561294357600080fd5b61294f8b838c01612119565b975060408a013591508082111561296557600080fd5b6129718b838c01612119565b965060608a013591508082111561298757600080fd5b6129938b838c01612119565b955060808a01359150808211156129a957600080fd5b6129b58b838c01612119565b945060a08a01359150808211156129cb57600080fd5b6129d78b838c01612119565b935060c08a01359150808211156129ed57600080fd5b506129fa8a828b01612119565b91505092959891949750929550565b60008060408385031215612a1c57600080fd5b82356001600160401b03811115612a3257600080fd5b612a3e85828601612119565b95602094909401359450505050565b600080600080600060a08688031215612a6557600080fd5b85356001600160401b0380821115612a7c57600080fd5b612a8889838a01612119565b9650602088013595506040880135945060608801359350608088013591508082111561253357600080fd5b600080600060608486031215612ac857600080fd5b8335925060208401356001600160401b03811115612ae557600080fd5b612af186828701612119565b925050604084013590509250925092565b60c081526000612b1560c0830189612220565b8281036020840152612b278189612220565b90508281036040840152612b3b8188612220565b90508281036060840152612b4f8187612220565b90508281036080840152612b638186612220565b905082810360a0840152612b778185612220565b9998505050505050505050565b6020808252601590820152742cb7ba9030b932903737ba103a34329030b236b4b760591b604082015260600190565b838152606060208201526000612bcc6060830185612220565b82810360408401526129008185612220565b600082601f830112612bef57600080fd5b8151612bfd612138826120f2565b818152846020838601011115612c1257600080fd5b612c238260208301602087016121f4565b949350505050565b600080600080600060a08688031215612c4357600080fd5b85516001600160401b0380821115612c5a57600080fd5b612c6689838a01612bde565b96506020880151915080821115612c7c57600080fd5b612c8889838a01612bde565b95506040880151915080821115612c9e57600080fd5b612caa89838a01612bde565b94506060880151915080821115612cc057600080fd5b612ccc89838a01612bde565b93506080880151915080821115612ce257600080fd5b5061254088828901612bde565b600080600080600060a08688031215612d0757600080fd5b85516001600160401b0380821115612d1e57600080fd5b612d2a89838a01612bde565b96506020880151915080821115612d4057600080fd5b612d4c89838a01612bde565b95506040880151915080821115612d6257600080fd5b612d6e89838a01612bde565b9450606088015193506080880151915080821115612ce257600080fd5b848152608060208201526000612da46080830186612220565b8281036040840152612db68186612220565b90508281036060840152612dca8185612220565b979650505050505050565b600060208284031215612de757600080fd5b5051919050565b600080600060608486031215612e0357600080fd5b8351925060208401519150604084015190509250925092565b600060208284031215612e2e57600080fd5b81516001600160401b03811115612e4457600080fd5b612c2384828501612bde565b86815260c060208201526000612e6960c0830188612220565b8281036040840152612b3b8188612220565b85815260a060208201526000612e9460a0830187612220565b85604084015284606084015282810360808401526122ad8185612220565b60008060408385031215612ec557600080fd5b82516001600160401b0380821115612edc57600080fd5b612ee886838701612bde565b93506020850151915080821115612efe57600080fd5b5061269b85828601612bde565b848152836020820152608060408201526000612f2a6080830185612220565b905082606083015295945050505050565b60008251612f4d8184602087016121f4565b9190910192915050565b634e487b7160e01b600052601160045260246000fd5b600081612f7c57612f7c612f57565b506000190190565b60008060408385031215612f9757600080fd5b82516001600160401b03811115612fad57600080fd5b612fb985828601612bde565b925050602083015190509250929050565b600080600080600060a08688031215612fe257600080fd5b85516001600160401b0380821115612ff957600080fd5b61300589838a01612bde565b96506020880151955060408801519450606088015193506080880151915080821115612ce257600080fd5b85815260a06020820152600061304960a0830187612220565b828103604084015261305b8187612220565b9050828103606084015261306f8186612220565b9150508260808301529695505050505050565b84815260806020820152600061309b6080830186612220565b82810360408401526130ad8186612220565b91505082606083015295945050505050565b86815260c0602082015260006130d860c0830188612220565b82810360408401526130ea8188612220565b905082810360608401526130fe8187612220565b905084608084015282810360a0840152612b778185612220565b60008060006060848603121561312d57600080fd5b83516001600160401b038082111561314457600080fd5b61315087838801612bde565b9450602086015191508082111561316657600080fd5b61317287838801612bde565b9350604086015191508082111561318857600080fd5b506121d186828701612bde565b87815260e0602082015260006131ae60e0830189612220565b82810360408401526131c08189612220565b905082810360608401526131d48188612220565b905082810360808401526131e88187612220565b905082810360a08401526131fc8186612220565b905082810360c08401526132108185612220565b9a9950505050505050505050565b60006001820161323057613230612f57565b5060010190565b8381526060602082015260006132506060830185612220565b9050826040830152949350505050565b60008060008060008060c0878903121561327957600080fd5b86516001600160401b038082111561329057600080fd5b61329c8a838b01612bde565b975060208901519150808211156132b257600080fd5b6132be8a838b01612bde565b965060408901519150808211156132d457600080fd5b6132e08a838b01612bde565b955060608901519150808211156132f657600080fd5b6133028a838b01612bde565b9450608089015191508082111561331857600080fd5b6133248a838b01612bde565b935060a089015191508082111561333a57600080fd5b506124c089828a01612bde56fea264697066735822122083557e02bd1b9a896c4901cf5b2bab5e94405a6ee332f70058386a3f4e5b9fa864736f6c634300080f0033","bytecodeSha1":"27dabb63ce79ac148cb42710fe431f6dfda8cf6c","compiler":{"evm_version":"istanbul","optimizer":{"enabled":true,"runs":200},"version":"0.8.15+commit.e14f2714"},"contractName":"SchoolAdmin","language":"Solidity","natspec":{"kind":"dev","methods":{},"version":1},"opcodes":"PUSH1 0x80 PUSH1 0x40 MSTORE CALLVALUE DUP1 ISZERO PUSH2 0x10 JUMPI PUSH1 0x0 DUP1 REVERT JUMPDEST POP PUSH1 0x4 CALLDATASIZE LT PUSH2 0x206 JUMPI PUSH1 0x0 CALLDATALOAD PUSH1 0xE0 SHR DUP1 PUSH4 0x8322F556 GT PUSH2 0x11A JUMPI DUP1 PUSH4 0xC42F4FF0 GT PUSH2 0xAD JUMPI DUP1 PUSH4 0xD6E54627 GT PUSH2 0x7C JUMPI DUP1 PUSH4 0xD6E54627 EQ PUSH2 0x4D4 JUMPI DUP1 PUSH4 0xD81D7704 EQ PUSH2 0x4E7 JUMPI DUP1 PUSH4 0xD83463C9 EQ PUSH2 0x4FA JUMPI DUP1 PUSH4 0xF15EC62D EQ PUSH2 0x50D JUMPI DUP1 PUSH4 0xF851A440 EQ PUSH2 0x532 JUMPI PUSH1 0x0 DUP1 REVERT JUMPDEST DUP1 PUSH4 0xC42F4FF0 EQ PUSH2 0x479 JUMPI DUP1 PUSH4 0xC4CDC4B6 EQ PUSH2 0x48C JUMPI DUP1 PUSH4 0xC7C62F6F EQ PUSH2 0x4AE JUMPI DUP1 PUSH4 0xD4CB7CF3 EQ PUSH2 0x4C1 JUMPI PUSH1 0x0 DUP1 REVERT JUMPDEST DUP1 PUSH4 0xB93A6942 GT PUSH2 0xE9 JUMPI DUP1 PUSH4 0xB93A6942 EQ PUSH2 0x437 JUMPI DUP1 PUSH4 0xBF452C59 EQ PUSH2 0x440 JUMPI DUP1 PUSH4 0xC010F050 EQ PUSH2 0x453 JUMPI DUP1 PUSH4 0xC29871D7 EQ PUSH2 0x466 JUMPI PUSH1 0x0 DUP1 REVERT JUMPDEST DUP1 PUSH4 0x8322F556 EQ PUSH2 0x3CB JUMPI DUP1 PUSH4 0x9CDF2316 EQ PUSH2 0x3DE JUMPI DUP1 PUSH4 0xA44675C9 EQ PUSH2 0x402 JUMPI DUP1 PUSH4 0xAB236DC9 EQ PUSH2 0x424 JUMPI PUSH1 0x0 DUP1 REVERT JUMPDEST DUP1 PUSH4 0x47F9009E GT PUSH2 0x19D JUMPI DUP1 PUSH4 0x61920EE1 GT PUSH2 0x16C JUMPI DUP1 PUSH4 0x61920EE1 EQ PUSH2 0x33F JUMPI DUP1 PUSH4 0x61DEA393 EQ PUSH2 0x363 JUMPI DUP1 PUSH4 0x737892B2 EQ PUSH2 0x384 JUMPI DUP1 PUSH4 0x7C663E4D EQ PUSH2 0x397 JUMPI DUP1 PUSH4 0x80F7CDCE EQ PUSH2 0x3AA JUMPI PUSH1 0x0 DUP1 REVERT JUMPDEST DUP1 PUSH4 0x47F9009E EQ PUSH2 0x2C9 JUMPI DUP1 PUSH4 0x4BDCE352 EQ PUSH2 0x2F7 JUMPI DUP1 PUSH4 0x58E2AF96 EQ PUSH2 0x319 JUMPI DUP1 PUSH4 0x5F3A3CF1 EQ PUSH2 0x32C JUMPI PUSH1 0x0 DUP1 REVERT JUMPDEST DUP1 PUSH4 0x299F81E0 GT PUSH2 0x1D9 JUMPI DUP1 PUSH4 0x299F81E0 EQ PUSH2 0x284 JUMPI DUP1 PUSH4 0x29EE6BE1 EQ PUSH2 0x297 JUMPI DUP1 PUSH4 0x41E0C407 EQ PUSH2 0x2AE JUMPI DUP1 PUSH4 0x469FF627 EQ PUSH2 0x2B6 JUMPI PUSH1 0x0 DUP1 REVERT JUMPDEST DUP1 PUSH4 0xC96262D EQ PUSH2 0x20B JUMPI DUP1 PUSH4 0x12506F4D EQ PUSH2 0x220 JUMPI DUP1 PUSH4 0x23415C11 EQ PUSH2 0x24D JUMPI DUP1 PUSH4 0x28973F6C EQ PUSH2 0x271 JUMPI JUMPDEST PUSH1 0x0 DUP1 REVERT JUMPDEST PUSH2 0x21E PUSH2 0x219 CALLDATASIZE PUSH1 0x4 PUSH2 0x216F JUMP JUMPDEST PUSH2 0x55D JUMP JUMPDEST STOP JUMPDEST PUSH2 0x233 PUSH2 0x22E CALLDATASIZE PUSH1 0x4 PUSH2 0x21DB JUMP JUMPDEST PUSH2 0x5FB JUMP JUMPDEST PUSH1 0x40 MLOAD PUSH2 0x244 SWAP6 SWAP5 SWAP4 SWAP3 SWAP2 SWAP1 PUSH2 0x224C JUMP JUMPDEST PUSH1 0x40 MLOAD DUP1 SWAP2 SUB SWAP1 RETURN JUMPDEST PUSH2 0x260 PUSH2 0x25B CALLDATASIZE PUSH1 0x4 PUSH2 0x21DB JUMP JUMPDEST PUSH2 0x6B4 JUMP JUMPDEST PUSH1 0x40 MLOAD PUSH2 0x244 SWAP6 SWAP5 SWAP4 SWAP3 SWAP2 SWAP1 PUSH2 0x22B9 JUMP JUMPDEST PUSH2 0x21E PUSH2 0x27F CALLDATASIZE PUSH1 0x4 PUSH2 0x230C JUMP JUMPDEST PUSH2 0x75B JUMP JUMPDEST PUSH2 0x21E PUSH2 0x292 CALLDATASIZE PUSH1 0x4 PUSH2 0x233E JUMP JUMPDEST PUSH2 0x7FF JUMP JUMPDEST PUSH2 0x2A0 PUSH1 0x6 SLOAD DUP2 JUMP JUMPDEST PUSH1 0x40 MLOAD SWAP1 DUP2 MSTORE PUSH1 0x20 ADD PUSH2 0x244 JUMP JUMPDEST PUSH2 0x2A0 PUSH2 0x85F JUMP JUMPDEST PUSH2 0x233 PUSH2 0x2C4 CALLDATASIZE PUSH1 0x4 PUSH2 0x21DB JUMP JUMPDEST PUSH2 0x90A JUMP JUMPDEST PUSH2 0x2DC PUSH2 0x2D7 CALLDATASIZE PUSH1 0x4 PUSH2 0x21DB JUMP JUMPDEST PUSH2 0x970 JUMP JUMPDEST PUSH1 0x40 DUP1 MLOAD SWAP4 DUP5 MSTORE PUSH1 0x20 DUP5 ADD SWAP3 SWAP1 SWAP3 MSTORE SWAP1 DUP3 ADD MSTORE PUSH1 0x60 ADD PUSH2 0x244 JUMP JUMPDEST PUSH2 0x30A PUSH2 0x305 CALLDATASIZE PUSH1 0x4 PUSH2 0x21DB JUMP JUMPDEST PUSH2 0xA1B JUMP JUMPDEST PUSH1 0x40 MLOAD PUSH2 0x244 SWAP4 SWAP3 SWAP2 SWAP1 PUSH2 0x23CF JUMP JUMPDEST PUSH2 0x21E PUSH2 0x327 CALLDATASIZE PUSH1 0x4 PUSH2 0x23F4 JUMP JUMPDEST PUSH2 0xBB3 JUMP JUMPDEST PUSH2 0x21E PUSH2 0x33A CALLDATASIZE PUSH1 0x4 PUSH2 0x24CD JUMP JUMPDEST PUSH2 0xC51 JUMP JUMPDEST PUSH2 0x352 PUSH2 0x34D CALLDATASIZE PUSH1 0x4 PUSH2 0x21DB JUMP JUMPDEST PUSH2 0xCEC JUMP JUMPDEST PUSH1 0x40 MLOAD PUSH2 0x244 SWAP6 SWAP5 SWAP4 SWAP3 SWAP2 SWAP1 PUSH2 0x254D JUMP JUMPDEST PUSH2 0x376 PUSH2 0x371 CALLDATASIZE PUSH1 0x4 PUSH2 0x21DB JUMP JUMPDEST PUSH2 0xF7B JUMP JUMPDEST PUSH1 0x40 MLOAD PUSH2 0x244 SWAP3 SWAP2 SWAP1 PUSH2 0x259B JUMP JUMPDEST PUSH2 0x2A0 PUSH2 0x392 CALLDATASIZE PUSH1 0x4 PUSH2 0x21DB JUMP JUMPDEST PUSH2 0x1024 JUMP JUMPDEST PUSH2 0x21E PUSH2 0x3A5 CALLDATASIZE PUSH1 0x4 PUSH2 0x25C9 JUMP JUMPDEST PUSH2 0x10C6 JUMP JUMPDEST PUSH2 0x3BD PUSH2 0x3B8 CALLDATASIZE PUSH1 0x4 PUSH2 0x21DB JUMP JUMPDEST PUSH2 0x1178 JUMP JUMPDEST PUSH1 0x40 MLOAD PUSH2 0x244 SWAP3 SWAP2 SWAP1 PUSH2 0x2620 JUMP JUMPDEST PUSH2 0x3BD PUSH2 0x3D9 CALLDATASIZE PUSH1 0x4 PUSH2 0x2642 JUMP JUMPDEST PUSH2 0x1478 JUMP JUMPDEST PUSH2 0x3F1 PUSH2 0x3EC CALLDATASIZE PUSH1 0x4 PUSH2 0x21DB JUMP JUMPDEST PUSH2 0x1500 JUMP JUMPDEST PUSH1 0x40 MLOAD PUSH2 0x244 SWAP6 SWAP5 SWAP4 SWAP3 SWAP2 SWAP1 PUSH2 0x26A5 JUMP JUMPDEST PUSH2 0x415 PUSH2 0x410 CALLDATASIZE PUSH1 0x4 PUSH2 0x21DB JUMP JUMPDEST PUSH2 0x15A7 JUMP JUMPDEST PUSH1 0x40 MLOAD PUSH2 0x244 SWAP4 SWAP3 SWAP2 SWAP1 PUSH2 0x26DC JUMP JUMPDEST PUSH2 0x21E PUSH2 0x432 CALLDATASIZE PUSH1 0x4 PUSH2 0x26FB JUMP JUMPDEST PUSH2 0x1731 JUMP JUMPDEST PUSH2 0x2A0 PUSH1 0x5 SLOAD DUP2 JUMP JUMPDEST PUSH2 0x21E PUSH2 0x44E CALLDATASIZE PUSH1 0x4 PUSH2 0x2794 JUMP JUMPDEST PUSH2 0x17E6 JUMP JUMPDEST PUSH2 0x21E PUSH2 0x461 CALLDATASIZE PUSH1 0x4 PUSH2 0x27C0 JUMP JUMPDEST PUSH2 0x18B0 JUMP JUMPDEST PUSH2 0x21E PUSH2 0x474 CALLDATASIZE PUSH1 0x4 PUSH2 0x23F4 JUMP JUMPDEST PUSH2 0x18E6 JUMP JUMPDEST PUSH2 0x21E PUSH2 0x487 CALLDATASIZE PUSH1 0x4 PUSH2 0x2823 JUMP JUMPDEST PUSH2 0x194A JUMP JUMPDEST PUSH2 0x49F PUSH2 0x49A CALLDATASIZE PUSH1 0x4 PUSH2 0x21DB JUMP JUMPDEST PUSH2 0x19AE JUMP JUMPDEST PUSH1 0x40 MLOAD PUSH2 0x244 SWAP4 SWAP3 SWAP2 SWAP1 PUSH2 0x28C7 JUMP JUMPDEST PUSH2 0x3BD PUSH2 0x4BC CALLDATASIZE PUSH1 0x4 PUSH2 0x21DB JUMP JUMPDEST PUSH2 0x1A50 JUMP JUMPDEST PUSH2 0x21E PUSH2 0x4CF CALLDATASIZE PUSH1 0x4 PUSH2 0x290A JUMP JUMPDEST PUSH2 0x1C5F JUMP JUMPDEST PUSH2 0x21E PUSH2 0x4E2 CALLDATASIZE PUSH1 0x4 PUSH2 0x2A09 JUMP JUMPDEST PUSH2 0x1D00 JUMP JUMPDEST PUSH2 0x21E PUSH2 0x4F5 CALLDATASIZE PUSH1 0x4 PUSH2 0x2A4D JUMP JUMPDEST PUSH2 0x1E62 JUMP JUMPDEST PUSH2 0x21E PUSH2 0x508 CALLDATASIZE PUSH1 0x4 PUSH2 0x2AB3 JUMP JUMPDEST PUSH2 0x1F41 JUMP JUMPDEST PUSH2 0x520 PUSH2 0x51B CALLDATASIZE PUSH1 0x4 PUSH2 0x21DB JUMP JUMPDEST PUSH2 0x1FF0 JUMP JUMPDEST PUSH1 0x40 MLOAD PUSH2 0x244 SWAP7 SWAP6 SWAP5 SWAP4 SWAP3 SWAP2 SWAP1 PUSH2 0x2B02 JUMP JUMPDEST PUSH1 0x4 SLOAD PUSH2 0x545 SWAP1 PUSH1 0x1 PUSH1 0x1 PUSH1 0xA0 SHL SUB AND DUP2 JUMP JUMPDEST PUSH1 0x40 MLOAD PUSH1 0x1 PUSH1 0x1 PUSH1 0xA0 SHL SUB SWAP1 SWAP2 AND DUP2 MSTORE PUSH1 0x20 ADD PUSH2 0x244 JUMP JUMPDEST PUSH1 0x4 SLOAD PUSH1 0x1 PUSH1 0x1 PUSH1 0xA0 SHL SUB AND CALLER EQ PUSH2 0x590 JUMPI PUSH1 0x40 MLOAD PUSH3 0x461BCD PUSH1 0xE5 SHL DUP2 MSTORE PUSH1 0x4 ADD PUSH2 0x587 SWAP1 PUSH2 0x2B84 JUMP JUMPDEST PUSH1 0x40 MLOAD DUP1 SWAP2 SUB SWAP1 REVERT JUMPDEST PUSH1 0x0 SLOAD PUSH1 0x40 MLOAD PUSH4 0xC96262D PUSH1 0xE0 SHL DUP2 MSTORE PUSH1 0x1 PUSH1 0x1 PUSH1 0xA0 SHL SUB SWAP1 SWAP2 AND SWAP1 PUSH4 0xC96262D SWAP1 PUSH2 0x5C4 SWAP1 DUP7 SWAP1 DUP7 SWAP1 DUP7 SWAP1 PUSH1 0x4 ADD PUSH2 0x2BB3 JUMP JUMPDEST PUSH1 0x0 PUSH1 0x40 MLOAD DUP1 DUP4 SUB DUP2 PUSH1 0x0 DUP8 DUP1 EXTCODESIZE ISZERO DUP1 ISZERO PUSH2 0x5DE JUMPI PUSH1 0x0 DUP1 REVERT JUMPDEST POP GAS CALL ISZERO DUP1 ISZERO PUSH2 0x5F2 JUMPI RETURNDATASIZE PUSH1 0x0 DUP1 RETURNDATACOPY RETURNDATASIZE PUSH1 0x0 REVERT JUMPDEST POP POP POP POP POP POP POP JUMP JUMPDEST PUSH1 0x4 SLOAD PUSH1 0x60 SWAP1 DUP2 SWAP1 DUP2 SWAP1 DUP2 SWAP1 DUP2 SWAP1 PUSH1 0x1 PUSH1 0x1 PUSH1 0xA0 SHL SUB AND CALLER EQ PUSH2 0x630 JUMPI PUSH1 0x40 MLOAD PUSH3 0x461BCD PUSH1 0xE5 SHL DUP2 MSTORE PUSH1 0x4 ADD PUSH2 0x587 SWAP1 PUSH2 0x2B84 JUMP JUMPDEST PUSH1 0x0 SLOAD PUSH1 0x40 MLOAD PUSH4 0x126EA085 PUSH1 0xE3 SHL DUP2 MSTORE PUSH1 0x4 DUP2 ADD DUP9 SWAP1 MSTORE PUSH1 0x1 PUSH1 0x1 PUSH1 0xA0 SHL SUB SWAP1 SWAP2 AND SWAP1 PUSH4 0x93750428 SWAP1 PUSH1 0x24 ADD JUMPDEST PUSH1 0x0 PUSH1 0x40 MLOAD DUP1 DUP4 SUB DUP2 DUP7 GAS STATICCALL ISZERO DUP1 ISZERO PUSH2 0x67A JUMPI RETURNDATASIZE PUSH1 0x0 DUP1 RETURNDATACOPY RETURNDATASIZE PUSH1 0x0 REVERT JUMPDEST POP POP POP POP PUSH1 0x40 MLOAD RETURNDATASIZE PUSH1 0x0 DUP3 RETURNDATACOPY PUSH1 0x1F RETURNDATASIZE SWAP1 DUP2 ADD PUSH1 0x1F NOT AND DUP3 ADD PUSH1 0x40 MSTORE PUSH2 0x6A2 SWAP2 SWAP1 DUP2 ADD SWAP1 PUSH2 0x2C2B JUMP JUMPDEST SWAP4 SWAP11 SWAP3 SWAP10 POP SWAP1 SWAP8 POP SWAP6 POP SWAP1 SWAP4 POP SWAP2 POP POP JUMP JUMPDEST PUSH1 0x4 SLOAD PUSH1 0x60 SWAP1 DUP2 SWAP1 DUP2 SWAP1 PUSH1 0x0 SWAP1 DUP3 SWAP1 PUSH1 0x1 PUSH1 0x1 PUSH1 0xA0 SHL SUB AND CALLER EQ PUSH2 0x6EA JUMPI PUSH1 0x40 MLOAD PUSH3 0x461BCD PUSH1 0xE5 SHL DUP2 MSTORE PUSH1 0x4 ADD PUSH2 0x587 SWAP1 PUSH2 0x2B84 JUMP JUMPDEST PUSH1 0x0 SLOAD PUSH1 0x40 MLOAD PUSH4 0x70CFA985 PUSH1 0xE0 SHL DUP2 MSTORE PUSH1 0x4 DUP2 ADD DUP9 SWAP1 MSTORE PUSH1 0x1 PUSH1 0x1 PUSH1 0xA0 SHL SUB SWAP1 SWAP2 AND SWAP1 PUSH4 0x70CFA985 SWAP1 PUSH1 0x24 ADD PUSH1 0x0 PUSH1 0x40 MLOAD DUP1 DUP4 SUB DUP2 DUP7 GAS STATICCALL ISZERO DUP1 ISZERO PUSH2 0x733 JUMPI RETURNDATASIZE PUSH1 0x0 DUP1 RETURNDATACOPY RETURNDATASIZE PUSH1 0x0 REVERT JUMPDEST POP POP POP POP PUSH1 0x40 MLOAD RETURNDATASIZE PUSH1 0x0 DUP3 RETURNDATACOPY PUSH1 0x1F RETURNDATASIZE SWAP1 DUP2 ADD PUSH1 0x1F NOT AND DUP3 ADD PUSH1 0x40 MSTORE PUSH2 0x6A2 SWAP2 SWAP1 DUP2 ADD SWAP1 PUSH2 0x2CEF JUMP JUMPDEST PUSH1 0x4 SLOAD PUSH1 0x1 PUSH1 0x1 PUSH1 0xA0 SHL SUB AND CALLER EQ PUSH2 0x785 JUMPI PUSH1 0x40 MLOAD PUSH3 0x461BCD PUSH1 0xE5 SHL DUP2 MSTORE PUSH1 0x4 ADD PUSH2 0x587 SWAP1 PUSH2 0x2B84 JUMP JUMPDEST PUSH1 0x0 SLOAD PUSH1 0x40 MLOAD PUSH4 0xA25CFDB PUSH1 0xE2 SHL DUP2 MSTORE PUSH1 0x4 DUP2 ADD DUP7 SWAP1 MSTORE PUSH1 0x24 DUP2 ADD DUP6 SWAP1 MSTORE PUSH1 0x44 DUP2 ADD DUP5 SWAP1 MSTORE PUSH1 0x64 DUP2 ADD DUP4 SWAP1 MSTORE PUSH1 0x1 PUSH1 0x1 PUSH1 0xA0 SHL SUB SWAP1 SWAP2 AND SWAP1 PUSH4 0x28973F6C SWAP1 PUSH1 0x84 ADD JUMPDEST PUSH1 0x0 PUSH1 0x40 MLOAD DUP1 DUP4 SUB DUP2 PUSH1 0x0 DUP8 DUP1 EXTCODESIZE ISZERO DUP1 ISZERO PUSH2 0x7E1 JUMPI PUSH1 0x0 DUP1 REVERT JUMPDEST POP GAS CALL ISZERO DUP1 ISZERO PUSH2 0x7F5 JUMPI RETURNDATASIZE PUSH1 0x0 DUP1 RETURNDATACOPY RETURNDATASIZE PUSH1 0x0 REVERT JUMPDEST POP POP POP POP POP POP POP POP JUMP JUMPDEST PUSH1 0x4 SLOAD PUSH1 0x1 PUSH1 0x1 PUSH1 0xA0 SHL SUB AND CALLER EQ PUSH2 0x829 JUMPI PUSH1 0x40 MLOAD PUSH3 0x461BCD PUSH1 0xE5 SHL DUP2 MSTORE PUSH1 0x4 ADD PUSH2 0x587 SWAP1 PUSH2 0x2B84 JUMP JUMPDEST PUSH1 0x0 SLOAD PUSH1 0x40 MLOAD PUSH4 0x14CFC0F PUSH1 0xE5 SHL DUP2 MSTORE PUSH1 0x1 PUSH1 0x1 PUSH1 0xA0 SHL SUB SWAP1 SWAP2 AND SWAP1 PUSH4 0x299F81E0 SWAP1 PUSH2 0x7C7 SWAP1 DUP8 SWAP1 DUP8 SWAP1 DUP8 SWAP1 DUP8 SWAP1 PUSH1 0x4 ADD PUSH2 0x2D8B JUMP JUMPDEST PUSH1 0x4 SLOAD PUSH1 0x0 SWAP1 PUSH1 0x1 PUSH1 0x1 PUSH1 0xA0 SHL SUB AND CALLER EQ PUSH2 0x88C JUMPI PUSH1 0x40 MLOAD PUSH3 0x461BCD PUSH1 0xE5 SHL DUP2 MSTORE PUSH1 0x4 ADD PUSH2 0x587 SWAP1 PUSH2 0x2B84 JUMP JUMPDEST PUSH1 0x0 DUP1 PUSH1 0x0 SWAP1 SLOAD SWAP1 PUSH2 0x100 EXP SWAP1 DIV PUSH1 0x1 PUSH1 0x1 PUSH1 0xA0 SHL SUB AND PUSH1 0x1 PUSH1 0x1 PUSH1 0xA0 SHL SUB AND PUSH4 0xE581F9EE PUSH1 0x40 MLOAD DUP2 PUSH4 0xFFFFFFFF AND PUSH1 0xE0 SHL DUP2 MSTORE PUSH1 0x4 ADD PUSH1 0x20 PUSH1 0x40 MLOAD DUP1 DUP4 SUB DUP2 DUP7 GAS STATICCALL ISZERO DUP1 ISZERO PUSH2 0x8E0 JUMPI RETURNDATASIZE PUSH1 0x0 DUP1 RETURNDATACOPY RETURNDATASIZE PUSH1 0x0 REVERT JUMPDEST POP POP POP POP PUSH1 0x40 MLOAD RETURNDATASIZE PUSH1 0x1F NOT PUSH1 0x1F DUP3 ADD AND DUP3 ADD DUP1 PUSH1 0x40 MSTORE POP DUP2 ADD SWAP1 PUSH2 0x904 SWAP2 SWAP1 PUSH2 0x2DD5 JUMP JUMPDEST SWAP2 POP POP SWAP1 JUMP JUMPDEST PUSH1 0x4 SLOAD PUSH1 0x60 SWAP1 DUP2 SWAP1 DUP2 SWAP1 DUP2 SWAP1 DUP2 SWAP1 PUSH1 0x1 PUSH1 0x1 PUSH1 0xA0 SHL SUB AND CALLER EQ PUSH2 0x93F JUMPI PUSH1 0x40 MLOAD PUSH3 0x461BCD PUSH1 0xE5 SHL DUP2 MSTORE PUSH1 0x4 ADD PUSH2 0x587 SWAP1 PUSH2 0x2B84 JUMP JUMPDEST PUSH1 0x0 SLOAD PUSH1 0x40 MLOAD PUSH4 0xB1E6328D PUSH1 0xE0 SHL DUP2 MSTORE PUSH1 0x4 DUP2 ADD DUP9 SWAP1 MSTORE PUSH1 0x1 PUSH1 0x1 PUSH1 0xA0 SHL SUB SWAP1 SWAP2 AND SWAP1 PUSH4 0xB1E6328D SWAP1 PUSH1 0x24 ADD PUSH2 0x65D JUMP JUMPDEST PUSH1 0x4 SLOAD PUSH1 0x0 SWAP1 DUP2 SWAP1 DUP2 SWAP1 PUSH1 0x1 PUSH1 0x1 PUSH1 0xA0 SHL SUB AND CALLER EQ PUSH2 0x9A1 JUMPI PUSH1 0x40 MLOAD PUSH3 0x461BCD PUSH1 0xE5 SHL DUP2 MSTORE PUSH1 0x4 ADD PUSH2 0x587 SWAP1 PUSH2 0x2B84 JUMP JUMPDEST PUSH1 0x0 SLOAD PUSH1 0x40 MLOAD PUSH4 0x30267D31 PUSH1 0xE1 SHL DUP2 MSTORE PUSH1 0x4 DUP2 ADD DUP7 SWAP1 MSTORE PUSH1 0x1 PUSH1 0x1 PUSH1 0xA0 SHL SUB SWAP1 SWAP2 AND SWAP1 PUSH4 0x604CFA62 SWAP1 PUSH1 0x24 ADD PUSH1 0x60 PUSH1 0x40 MLOAD DUP1 DUP4 SUB DUP2 DUP7 GAS STATICCALL ISZERO DUP1 ISZERO PUSH2 0x9EA JUMPI RETURNDATASIZE PUSH1 0x0 DUP1 RETURNDATACOPY RETURNDATASIZE PUSH1 0x0 REVERT JUMPDEST POP POP POP POP PUSH1 0x40 MLOAD RETURNDATASIZE PUSH1 0x1F NOT PUSH1 0x1F DUP3 ADD AND DUP3 ADD DUP1 PUSH1 0x40 MSTORE POP DUP2 ADD SWAP1 PUSH2 0xA0E SWAP2 SWAP1 PUSH2 0x2DEE JUMP JUMPDEST SWAP3 POP SWAP3 POP SWAP3 POP SWAP2 SWAP4 SWAP1 SWAP3 POP JUMP JUMPDEST PUSH1 0x4 SLOAD PUSH1 0x60 SWAP1 PUSH1 0x0 SWAP1 DUP2 SWAP1 PUSH1 0x1 PUSH1 0x1 PUSH1 0xA0 SHL SUB AND CALLER EQ PUSH2 0xA4D JUMPI PUSH1 0x40 MLOAD PUSH3 0x461BCD PUSH1 0xE5 SHL DUP2 MSTORE PUSH1 0x4 ADD PUSH2 0x587 SWAP1 PUSH2 0x2B84 JUMP JUMPDEST PUSH1 0x1 SLOAD PUSH1 0x40 MLOAD PUSH4 0x69E5AE0F PUSH1 0xE0 SHL DUP2 MSTORE PUSH1 0x4 DUP2 ADD DUP7 SWAP1 MSTORE PUSH1 0x0 SWAP2 PUSH1 0x1 PUSH1 0x1 PUSH1 0xA0 SHL SUB AND SWAP1 PUSH4 0x69E5AE0F SWAP1 PUSH1 0x24 ADD PUSH1 0x0 PUSH1 0x40 MLOAD DUP1 DUP4 SUB DUP2 DUP7 GAS STATICCALL ISZERO DUP1 ISZERO PUSH2 0xA97 JUMPI RETURNDATASIZE PUSH1 0x0 DUP1 RETURNDATACOPY RETURNDATASIZE PUSH1 0x0 REVERT JUMPDEST POP POP POP POP PUSH1 0x40 MLOAD RETURNDATASIZE PUSH1 0x0 DUP3 RETURNDATACOPY PUSH1 0x1F RETURNDATASIZE SWAP1 DUP2 ADD PUSH1 0x1F NOT AND DUP3 ADD PUSH1 0x40 MSTORE PUSH2 0xABF SWAP2 SWAP1 DUP2 ADD SWAP1 PUSH2 0x2E1C JUMP JUMPDEST PUSH1 0x1 SLOAD PUSH1 0x40 MLOAD PUSH4 0xC493ADC7 PUSH1 0xE0 SHL DUP2 MSTORE PUSH1 0x4 DUP2 ADD DUP9 SWAP1 MSTORE SWAP2 SWAP3 POP PUSH1 0x0 SWAP2 PUSH1 0x1 PUSH1 0x1 PUSH1 0xA0 SHL SUB SWAP1 SWAP2 AND SWAP1 PUSH4 0xC493ADC7 SWAP1 PUSH1 0x24 ADD PUSH1 0x20 PUSH1 0x40 MLOAD DUP1 DUP4 SUB DUP2 DUP7 GAS STATICCALL ISZERO DUP1 ISZERO PUSH2 0xB0E JUMPI RETURNDATASIZE PUSH1 0x0 DUP1 RETURNDATACOPY RETURNDATASIZE PUSH1 0x0 REVERT JUMPDEST POP POP POP POP PUSH1 0x40 MLOAD RETURNDATASIZE PUSH1 0x1F NOT PUSH1 0x1F DUP3 ADD AND DUP3 ADD DUP1 PUSH1 0x40 MSTORE POP DUP2 ADD SWAP1 PUSH2 0xB32 SWAP2 SWAP1 PUSH2 0x2DD5 JUMP JUMPDEST PUSH1 0x1 SLOAD PUSH1 0x40 MLOAD PUSH4 0x77F807F PUSH1 0xE0 SHL DUP2 MSTORE PUSH1 0x4 DUP2 ADD DUP10 SWAP1 MSTORE SWAP2 SWAP3 POP PUSH1 0x0 SWAP2 PUSH1 0x1 PUSH1 0x1 PUSH1 0xA0 SHL SUB SWAP1 SWAP2 AND SWAP1 PUSH4 0x77F807F SWAP1 PUSH1 0x24 ADD PUSH1 0x20 PUSH1 0x40 MLOAD DUP1 DUP4 SUB DUP2 DUP7 GAS STATICCALL ISZERO DUP1 ISZERO PUSH2 0xB81 JUMPI RETURNDATASIZE PUSH1 0x0 DUP1 RETURNDATACOPY RETURNDATASIZE PUSH1 0x0 REVERT JUMPDEST POP POP POP POP PUSH1 0x40 MLOAD RETURNDATASIZE PUSH1 0x1F NOT PUSH1 0x1F DUP3 ADD AND DUP3 ADD DUP1 PUSH1 0x40 MSTORE POP DUP2 ADD SWAP1 PUSH2 0xBA5 SWAP2 SWAP1 PUSH2 0x2DD5 JUMP JUMPDEST SWAP3 SWAP8 SWAP2 SWAP7 POP SWAP2 SWAP5 POP SWAP3 POP POP POP JUMP JUMPDEST PUSH1 0x4 SLOAD PUSH1 0x1 PUSH1 0x1 PUSH1 0xA0 SHL SUB AND CALLER EQ PUSH2 0xBDD JUMPI PUSH1 0x40 MLOAD PUSH3 0x461BCD PUSH1 0xE5 SHL DUP2 MSTORE PUSH1 0x4 ADD PUSH2 0x587 SWAP1 PUSH2 0x2B84 JUMP JUMPDEST PUSH1 0x0 SLOAD PUSH1 0x40 MLOAD PUSH4 0x2C7157CB PUSH1 0xE1 SHL DUP2 MSTORE PUSH1 0x1 PUSH1 0x1 PUSH1 0xA0 SHL SUB SWAP1 SWAP2 AND SWAP1 PUSH4 0x58E2AF96 SWAP1 PUSH2 0xC17 SWAP1 DUP10 SWAP1 DUP10 SWAP1 DUP10 SWAP1 DUP10 SWAP1 DUP10 SWAP1 DUP10 SWAP1 PUSH1 0x4 ADD PUSH2 0x2E50 JUMP JUMPDEST PUSH1 0x0 PUSH1 0x40 MLOAD DUP1 DUP4 SUB DUP2 PUSH1 0x0 DUP8 DUP1 EXTCODESIZE ISZERO DUP1 ISZERO PUSH2 0xC31 JUMPI PUSH1 0x0 DUP1 REVERT JUMPDEST POP GAS CALL ISZERO DUP1 ISZERO PUSH2 0xC45 JUMPI RETURNDATASIZE PUSH1 0x0 DUP1 RETURNDATACOPY RETURNDATASIZE PUSH1 0x0 REVERT JUMPDEST POP POP POP POP POP POP POP POP POP POP JUMP JUMPDEST PUSH1 0x4 SLOAD PUSH1 0x1 PUSH1 0x1 PUSH1 0xA0 SHL SUB AND CALLER EQ PUSH2 0xC7B JUMPI PUSH1 0x40 MLOAD PUSH3 0x461BCD PUSH1 0xE5 SHL DUP2 MSTORE PUSH1 0x4 ADD PUSH2 0x587 SWAP1 PUSH2 0x2B84 JUMP JUMPDEST PUSH1 0x0 SLOAD PUSH1 0x40 MLOAD PUSH4 0x5F3A3CF1 PUSH1 0xE0 SHL DUP2 MSTORE PUSH1 0x1 PUSH1 0x1 PUSH1 0xA0 SHL SUB SWAP1 SWAP2 AND SWAP1 PUSH4 0x5F3A3CF1 SWAP1 PUSH2 0xCB3 SWAP1 DUP9 SWAP1 DUP9 SWAP1 DUP9 SWAP1 DUP9 SWAP1 DUP9 SWAP1 PUSH1 0x4 ADD PUSH2 0x2E7B JUMP JUMPDEST PUSH1 0x0 PUSH1 0x40 MLOAD DUP1 DUP4 SUB DUP2 PUSH1 0x0 DUP8 DUP1 EXTCODESIZE ISZERO DUP1 ISZERO PUSH2 0xCCD JUMPI PUSH1 0x0 DUP1 REVERT JUMPDEST POP GAS CALL ISZERO DUP1 ISZERO PUSH2 0xCE1 JUMPI RETURNDATASIZE PUSH1 0x0 DUP1 RETURNDATACOPY RETURNDATASIZE PUSH1 0x0 REVERT JUMPDEST POP POP POP POP POP POP POP POP POP JUMP JUMPDEST PUSH1 0x4 SLOAD PUSH1 0x60 SWAP1 DUP2 SWAP1 DUP2 SWAP1 PUSH1 0x0 SWAP1 DUP2 SWAP1 PUSH1 0x1 PUSH1 0x1 PUSH1 0xA0 SHL SUB AND CALLER EQ PUSH2 0xD22 JUMPI PUSH1 0x40 MLOAD PUSH3 0x461BCD PUSH1 0xE5 SHL DUP2 MSTORE PUSH1 0x4 ADD PUSH2 0x587 SWAP1 PUSH2 0x2B84 JUMP JUMPDEST PUSH1 0x1 SLOAD PUSH1 0x40 MLOAD PUSH4 0xA18BAF3 PUSH1 0xE2 SHL DUP2 MSTORE PUSH1 0x4 DUP2 ADD DUP9 SWAP1 MSTORE PUSH1 0x0 SWAP2 PUSH1 0x1 PUSH1 0x1 PUSH1 0xA0 SHL SUB AND SWAP1 PUSH4 0x2862EBCC SWAP1 PUSH1 0x24 ADD PUSH1 0x0 PUSH1 0x40 MLOAD DUP1 DUP4 SUB DUP2 DUP7 GAS STATICCALL ISZERO DUP1 ISZERO PUSH2 0xD6C JUMPI RETURNDATASIZE PUSH1 0x0 DUP1 RETURNDATACOPY RETURNDATASIZE PUSH1 0x0 REVERT JUMPDEST POP POP POP POP PUSH1 0x40 MLOAD RETURNDATASIZE PUSH1 0x0 DUP3 RETURNDATACOPY PUSH1 0x1F RETURNDATASIZE SWAP1 DUP2 ADD PUSH1 0x1F NOT AND DUP3 ADD PUSH1 0x40 MSTORE PUSH2 0xD94 SWAP2 SWAP1 DUP2 ADD SWAP1 PUSH2 0x2E1C JUMP JUMPDEST PUSH1 0x1 SLOAD PUSH1 0x40 MLOAD PUSH4 0x5EB86B95 PUSH1 0xE0 SHL DUP2 MSTORE PUSH1 0x4 DUP2 ADD DUP11 SWAP1 MSTORE SWAP2 SWAP3 POP PUSH1 0x0 SWAP2 PUSH1 0x1 PUSH1 0x1 PUSH1 0xA0 SHL SUB SWAP1 SWAP2 AND SWAP1 PUSH4 0x5EB86B95 SWAP1 PUSH1 0x24 ADD PUSH1 0x0 PUSH1 0x40 MLOAD DUP1 DUP4 SUB DUP2 DUP7 GAS STATICCALL ISZERO DUP1 ISZERO PUSH2 0xDE3 JUMPI RETURNDATASIZE PUSH1 0x0 DUP1 RETURNDATACOPY RETURNDATASIZE PUSH1 0x0 REVERT JUMPDEST POP POP POP POP PUSH1 0x40 MLOAD RETURNDATASIZE PUSH1 0x0 DUP3 RETURNDATACOPY PUSH1 0x1F RETURNDATASIZE SWAP1 DUP2 ADD PUSH1 0x1F NOT AND DUP3 ADD PUSH1 0x40 MSTORE PUSH2 0xE0B SWAP2 SWAP1 DUP2 ADD SWAP1 PUSH2 0x2E1C JUMP JUMPDEST PUSH1 0x1 SLOAD PUSH1 0x40 MLOAD PUSH4 0xECDE1405 PUSH1 0xE0 SHL DUP2 MSTORE PUSH1 0x4 DUP2 ADD DUP12 SWAP1 MSTORE SWAP2 SWAP3 POP PUSH1 0x0 SWAP2 PUSH1 0x1 PUSH1 0x1 PUSH1 0xA0 SHL SUB SWAP1 SWAP2 AND SWAP1 PUSH4 0xECDE1405 SWAP1 PUSH1 0x24 ADD PUSH1 0x0 PUSH1 0x40 MLOAD DUP1 DUP4 SUB DUP2 DUP7 GAS STATICCALL ISZERO DUP1 ISZERO PUSH2 0xE5A JUMPI RETURNDATASIZE PUSH1 0x0 DUP1 RETURNDATACOPY RETURNDATASIZE PUSH1 0x0 REVERT JUMPDEST POP POP POP POP PUSH1 0x40 MLOAD RETURNDATASIZE PUSH1 0x0 DUP3 RETURNDATACOPY PUSH1 0x1F RETURNDATASIZE SWAP1 DUP2 ADD PUSH1 0x1F NOT AND DUP3 ADD PUSH1 0x40 MSTORE PUSH2 0xE82 SWAP2 SWAP1 DUP2 ADD SWAP1 PUSH2 0x2E1C JUMP JUMPDEST PUSH1 0x1 SLOAD PUSH1 0x40 MLOAD PUSH4 0x7DFA3649 PUSH1 0xE0 SHL DUP2 MSTORE PUSH1 0x4 DUP2 ADD DUP13 SWAP1 MSTORE SWAP2 SWAP3 POP PUSH1 0x0 SWAP2 PUSH1 0x1 PUSH1 0x1 PUSH1 0xA0 SHL SUB SWAP1 SWAP2 AND SWAP1 PUSH4 0x7DFA3649 SWAP1 PUSH1 0x24 ADD PUSH1 0x20 PUSH1 0x40 MLOAD DUP1 DUP4 SUB DUP2 DUP7 GAS STATICCALL ISZERO DUP1 ISZERO PUSH2 0xED1 JUMPI RETURNDATASIZE PUSH1 0x0 DUP1 RETURNDATACOPY RETURNDATASIZE PUSH1 0x0 REVERT JUMPDEST POP POP POP POP PUSH1 0x40 MLOAD RETURNDATASIZE PUSH1 0x1F NOT PUSH1 0x1F DUP3 ADD AND DUP3 ADD DUP1 PUSH1 0x40 MSTORE POP DUP2 ADD SWAP1 PUSH2 0xEF5 SWAP2 SWAP1 PUSH2 0x2DD5 JUMP JUMPDEST PUSH1 0x1 SLOAD PUSH1 0x40 MLOAD PUSH4 0x67379D49 PUSH1 0xE1 SHL DUP2 MSTORE PUSH1 0x4 DUP2 ADD DUP14 SWAP1 MSTORE SWAP2 SWAP3 POP PUSH1 0x0 SWAP2 PUSH1 0x1 PUSH1 0x1 PUSH1 0xA0 SHL SUB SWAP1 SWAP2 AND SWAP1 PUSH4 0xCE6F3A92 SWAP1 PUSH1 0x24 ADD PUSH1 0x20 PUSH1 0x40 MLOAD DUP1 DUP4 SUB DUP2 DUP7 GAS STATICCALL ISZERO DUP1 ISZERO PUSH2 0xF44 JUMPI RETURNDATASIZE PUSH1 0x0 DUP1 RETURNDATACOPY RETURNDATASIZE PUSH1 0x0 REVERT JUMPDEST POP POP POP POP PUSH1 0x40 MLOAD RETURNDATASIZE PUSH1 0x1F NOT PUSH1 0x1F DUP3 ADD AND DUP3 ADD DUP1 PUSH1 0x40 MSTORE POP DUP2 ADD SWAP1 PUSH2 0xF68 SWAP2 SWAP1 PUSH2 0x2DD5 JUMP JUMPDEST SWAP5 SWAP12 SWAP4 SWAP11 POP SWAP2 SWAP9 POP SWAP7 POP SWAP2 SWAP5 POP SWAP3 POP POP POP JUMP JUMPDEST PUSH1 0x4 SLOAD PUSH1 0x60 SWAP1 DUP2 SWAP1 PUSH1 0x1 PUSH1 0x1 PUSH1 0xA0 SHL SUB AND CALLER EQ PUSH2 0xFAA JUMPI PUSH1 0x40 MLOAD PUSH3 0x461BCD PUSH1 0xE5 SHL DUP2 MSTORE PUSH1 0x4 ADD PUSH2 0x587 SWAP1 PUSH2 0x2B84 JUMP JUMPDEST PUSH1 0x0 SLOAD PUSH1 0x40 MLOAD PUSH4 0x2C324BFB PUSH1 0xE1 SHL DUP2 MSTORE PUSH1 0x4 DUP2 ADD DUP6 SWAP1 MSTORE PUSH1 0x1 PUSH1 0x1 PUSH1 0xA0 SHL SUB SWAP1 SWAP2 AND SWAP1 PUSH4 0x586497F6 SWAP1 PUSH1 0x24 ADD PUSH1 0x0 PUSH1 0x40 MLOAD DUP1 DUP4 SUB DUP2 DUP7 GAS STATICCALL ISZERO DUP1 ISZERO PUSH2 0xFF3 JUMPI RETURNDATASIZE PUSH1 0x0 DUP1 RETURNDATACOPY RETURNDATASIZE PUSH1 0x0 REVERT JUMPDEST POP POP POP POP PUSH1 0x40 MLOAD RETURNDATASIZE PUSH1 0x0 DUP3 RETURNDATACOPY PUSH1 0x1F RETURNDATASIZE SWAP1 DUP2 ADD PUSH1 0x1F NOT AND DUP3 ADD PUSH1 0x40 MSTORE PUSH2 0x101B SWAP2 SWAP1 DUP2 ADD SWAP1 PUSH2 0x2EB2 JUMP JUMPDEST SWAP2 POP SWAP2 POP SWAP2 POP SWAP2 JUMP JUMPDEST PUSH1 0x4 SLOAD PUSH1 0x0 SWAP1 PUSH1 0x1 PUSH1 0x1 PUSH1 0xA0 SHL SUB AND CALLER EQ PUSH2 0x1051 JUMPI PUSH1 0x40 MLOAD PUSH3 0x461BCD PUSH1 0xE5 SHL DUP2 MSTORE PUSH1 0x4 ADD PUSH2 0x587 SWAP1 PUSH2 0x2B84 JUMP JUMPDEST PUSH1 0x0 DUP1 SLOAD PUSH1 0x40 MLOAD PUSH4 0x39BC4959 PUSH1 0xE1 SHL DUP2 MSTORE PUSH1 0x4 DUP2 ADD DUP6 SWAP1 MSTORE PUSH1 0x1 PUSH1 0x1 PUSH1 0xA0 SHL SUB SWAP1 SWAP2 AND SWAP1 PUSH4 0x737892B2 SWAP1 PUSH1 0x24 ADD PUSH1 0x20 PUSH1 0x40 MLOAD DUP1 DUP4 SUB DUP2 DUP7 GAS STATICCALL ISZERO DUP1 ISZERO PUSH2 0x109B JUMPI RETURNDATASIZE PUSH1 0x0 DUP1 RETURNDATACOPY RETURNDATASIZE PUSH1 0x0 REVERT JUMPDEST POP POP POP POP PUSH1 0x40 MLOAD RETURNDATASIZE PUSH1 0x1F NOT PUSH1 0x1F DUP3 ADD AND DUP3 ADD DUP1 PUSH1 0x40 MSTORE POP DUP2 ADD SWAP1 PUSH2 0x10BF SWAP2 SWAP1 PUSH2 0x2DD5 JUMP JUMPDEST SWAP4 SWAP3 POP POP POP JUMP JUMPDEST PUSH1 0x1 SLOAD PUSH1 0x40 MLOAD PUSH4 0x7C663E4D PUSH1 0xE0 SHL DUP2 MSTORE PUSH1 0x0 SWAP2 PUSH1 0x1 PUSH1 0x1 PUSH1 0xA0 SHL SUB AND SWAP1 PUSH4 0x7C663E4D SWAP1 PUSH2 0x10FD SWAP1 DUP9 SWAP1 DUP9 SWAP1 DUP9 SWAP1 DUP9 SWAP1 PUSH1 0x4 ADD PUSH2 0x2F0B JUMP JUMPDEST PUSH1 0x20 PUSH1 0x40 MLOAD DUP1 DUP4 SUB DUP2 PUSH1 0x0 DUP8 GAS CALL ISZERO DUP1 ISZERO PUSH2 0x111C JUMPI RETURNDATASIZE PUSH1 0x0 DUP1 RETURNDATACOPY RETURNDATASIZE PUSH1 0x0 REVERT JUMPDEST POP POP POP POP PUSH1 0x40 MLOAD RETURNDATASIZE PUSH1 0x1F NOT PUSH1 0x1F DUP3 ADD AND DUP3 ADD DUP1 PUSH1 0x40 MSTORE POP DUP2 ADD SWAP1 PUSH2 0x1140 SWAP2 SWAP1 PUSH2 0x2DD5 JUMP JUMPDEST SWAP1 POP DUP2 DUP6 DUP3 PUSH32 0x60CF56E8CD40D30413F6042836CFD24582EAF95589047F0883AA7209FFEE9E33 PUSH1 0x40 MLOAD PUSH1 0x40 MLOAD DUP1 SWAP2 SUB SWAP1 LOG4 POP POP POP POP POP JUMP JUMPDEST PUSH1 0x4 SLOAD PUSH1 0x60 SWAP1 PUSH1 0x0 SWAP1 PUSH1 0x1 PUSH1 0x1 PUSH1 0xA0 SHL SUB AND CALLER EQ PUSH2 0x11A8 JUMPI PUSH1 0x40 MLOAD PUSH3 0x461BCD PUSH1 0xE5 SHL DUP2 MSTORE PUSH1 0x4 ADD PUSH2 0x587 SWAP1 PUSH2 0x2B84 JUMP JUMPDEST PUSH1 0x1 SLOAD PUSH1 0x40 DUP1 MLOAD PUSH4 0xF57C6491 PUSH1 0xE0 SHL DUP2 MSTORE SWAP1 MLOAD PUSH1 0x0 SWAP3 PUSH1 0x1 PUSH1 0x1 PUSH1 0xA0 SHL SUB AND SWAP2 PUSH4 0xF57C6491 SWAP2 PUSH1 0x4 DUP1 DUP4 ADD SWAP3 PUSH1 0x20 SWAP3 SWAP2 SWAP1 DUP3 SWAP1 SUB ADD DUP2 DUP7 GAS STATICCALL ISZERO DUP1 ISZERO PUSH2 0x11F2 JUMPI RETURNDATASIZE PUSH1 0x0 DUP1 RETURNDATACOPY RETURNDATASIZE PUSH1 0x0 REVERT JUMPDEST POP POP POP POP PUSH1 0x40 MLOAD RETURNDATASIZE PUSH1 0x1F NOT PUSH1 0x1F DUP3 ADD AND DUP3 ADD DUP1 PUSH1 0x40 MSTORE POP DUP2 ADD SWAP1 PUSH2 0x1216 SWAP2 SWAP1 PUSH2 0x2DD5 JUMP JUMPDEST SWAP1 POP DUP1 JUMPDEST DUP1 ISZERO PUSH2 0x1441 JUMPI PUSH1 0x1 SLOAD PUSH1 0x40 MLOAD PUSH4 0x69D5213B PUSH1 0xE0 SHL DUP2 MSTORE PUSH1 0x4 DUP2 ADD DUP4 SWAP1 MSTORE DUP7 SWAP2 PUSH1 0x1 PUSH1 0x1 PUSH1 0xA0 SHL SUB AND SWAP1 PUSH4 0x69D5213B SWAP1 PUSH1 0x24 ADD PUSH1 0x20 PUSH1 0x40 MLOAD DUP1 DUP4 SUB DUP2 DUP7 GAS STATICCALL ISZERO DUP1 ISZERO PUSH2 0x1269 JUMPI RETURNDATASIZE PUSH1 0x0 DUP1 RETURNDATACOPY RETURNDATASIZE PUSH1 0x0 REVERT JUMPDEST POP POP POP POP PUSH1 0x40 MLOAD RETURNDATASIZE PUSH1 0x1F NOT PUSH1 0x1F DUP3 ADD AND DUP3 ADD DUP1 PUSH1 0x40 MSTORE POP DUP2 ADD SWAP1 PUSH2 0x128D SWAP2 SWAP1 PUSH2 0x2DD5 JUMP JUMPDEST EQ DUP1 ISZERO PUSH2 0x1340 JUMPI POP PUSH1 0x40 DUP1 MLOAD PUSH1 0x0 DUP2 MSTORE PUSH1 0x20 DUP2 ADD SWAP2 DUP3 SWAP1 MSTORE DUP1 MLOAD DUP3 KECCAK256 PUSH1 0x1 SLOAD PUSH4 0x61590D55 PUSH1 0xE0 SHL SWAP1 SWAP4 MSTORE PUSH1 0x24 DUP3 ADD DUP5 SWAP1 MSTORE SWAP2 PUSH1 0x1 PUSH1 0x1 PUSH1 0xA0 SHL SUB AND SWAP1 PUSH4 0x61590D55 SWAP1 PUSH1 0x44 ADD PUSH1 0x0 PUSH1 0x40 MLOAD DUP1 DUP4 SUB DUP2 DUP7 GAS STATICCALL ISZERO DUP1 ISZERO PUSH2 0x12EF JUMPI RETURNDATASIZE PUSH1 0x0 DUP1 RETURNDATACOPY RETURNDATASIZE PUSH1 0x0 REVERT JUMPDEST POP POP POP POP PUSH1 0x40 MLOAD RETURNDATASIZE PUSH1 0x0 DUP3 RETURNDATACOPY PUSH1 0x1F RETURNDATASIZE SWAP1 DUP2 ADD PUSH1 0x1F NOT AND DUP3 ADD PUSH1 0x40 MSTORE PUSH2 0x1317 SWAP2 SWAP1 DUP2 ADD SWAP1 PUSH2 0x2E1C JUMP JUMPDEST PUSH1 0x40 MLOAD PUSH1 0x20 ADD PUSH2 0x1327 SWAP2 SWAP1 PUSH2 0x2F3B JUMP JUMPDEST PUSH1 0x40 MLOAD PUSH1 0x20 DUP2 DUP4 SUB SUB DUP2 MSTORE SWAP1 PUSH1 0x40 MSTORE DUP1 MLOAD SWAP1 PUSH1 0x20 ADD KECCAK256 EQ ISZERO JUMPDEST ISZERO PUSH2 0x142F JUMPI PUSH1 0x1 SLOAD PUSH1 0x40 MLOAD PUSH4 0x4273DB49 PUSH1 0xE1 SHL DUP2 MSTORE PUSH1 0x4 DUP2 ADD DUP4 SWAP1 MSTORE PUSH1 0x1 PUSH1 0x1 PUSH1 0xA0 SHL SUB SWAP1 SWAP2 AND SWAP1 PUSH4 0x84E7B692 SWAP1 PUSH1 0x24 ADD JUMPDEST PUSH1 0x0 PUSH1 0x40 MLOAD DUP1 DUP4 SUB DUP2 DUP7 GAS STATICCALL ISZERO DUP1 ISZERO PUSH2 0x138F JUMPI RETURNDATASIZE PUSH1 0x0 DUP1 RETURNDATACOPY RETURNDATASIZE PUSH1 0x0 REVERT JUMPDEST POP POP POP POP PUSH1 0x40 MLOAD RETURNDATASIZE PUSH1 0x0 DUP3 RETURNDATACOPY PUSH1 0x1F RETURNDATASIZE SWAP1 DUP2 ADD PUSH1 0x1F NOT AND DUP3 ADD PUSH1 0x40 MSTORE PUSH2 0x13B7 SWAP2 SWAP1 DUP2 ADD SWAP1 PUSH2 0x2E1C JUMP JUMPDEST PUSH1 0x1 SLOAD PUSH1 0x40 MLOAD PUSH4 0x4A0C2303 PUSH1 0xE1 SHL DUP2 MSTORE PUSH1 0x4 DUP2 ADD DUP5 SWAP1 MSTORE PUSH1 0x1 PUSH1 0x1 PUSH1 0xA0 SHL SUB SWAP1 SWAP2 AND SWAP1 PUSH4 0x94184606 SWAP1 PUSH1 0x24 ADD PUSH1 0x20 PUSH1 0x40 MLOAD DUP1 DUP4 SUB DUP2 DUP7 GAS STATICCALL ISZERO DUP1 ISZERO PUSH2 0x1400 JUMPI RETURNDATASIZE PUSH1 0x0 DUP1 RETURNDATACOPY RETURNDATASIZE PUSH1 0x0 REVERT JUMPDEST POP POP POP POP PUSH1 0x40 MLOAD RETURNDATASIZE PUSH1 0x1F NOT PUSH1 0x1F DUP3 ADD AND DUP3 ADD DUP1 PUSH1 0x40 MSTORE POP DUP2 ADD SWAP1 PUSH2 0x1424 SWAP2 SWAP1 PUSH2 0x2DD5 JUMP JUMPDEST SWAP4 POP SWAP4 POP POP POP SWAP2 POP SWAP2 JUMP JUMPDEST DUP1 PUSH2 0x1439 DUP2 PUSH2 0x2F6D JUMP JUMPDEST SWAP2 POP POP PUSH2 0x121A JUMP JUMPDEST POP POP PUSH1 0x40 DUP1 MLOAD DUP1 DUP3 ADD SWAP1 SWAP2 MSTORE PUSH1 0x14 DUP2 MSTORE PUSH20 0x151A5B59481D18589B19481B9BDD08199BDD5B99 PUSH1 0x62 SHL PUSH1 0x20 DUP3 ADD MSTORE SWAP4 PUSH1 0x0 SWAP4 POP SWAP2 POP POP JUMP JUMPDEST PUSH1 0x2 SLOAD PUSH1 0x40 MLOAD PUSH4 0x41917AAB PUSH1 0xE1 SHL DUP2 MSTORE PUSH1 0x60 SWAP2 PUSH1 0x0 SWAP2 PUSH1 0x1 PUSH1 0x1 PUSH1 0xA0 SHL SUB SWAP1 SWAP2 AND SWAP1 PUSH4 0x8322F556 SWAP1 PUSH2 0x14B0 SWAP1 DUP8 SWAP1 DUP8 SWAP1 PUSH1 0x4 ADD PUSH2 0x259B JUMP JUMPDEST PUSH1 0x0 PUSH1 0x40 MLOAD DUP1 DUP4 SUB DUP2 DUP7 GAS STATICCALL ISZERO DUP1 ISZERO PUSH2 0x14CD JUMPI RETURNDATASIZE PUSH1 0x0 DUP1 RETURNDATACOPY RETURNDATASIZE PUSH1 0x0 REVERT JUMPDEST POP POP POP POP PUSH1 0x40 MLOAD RETURNDATASIZE PUSH1 0x0 DUP3 RETURNDATACOPY PUSH1 0x1F RETURNDATASIZE SWAP1 DUP2 ADD PUSH1 0x1F NOT AND DUP3 ADD PUSH1 0x40 MSTORE PUSH2 0x14F5 SWAP2 SWAP1 DUP2 ADD SWAP1 PUSH2 0x2F84 JUMP JUMPDEST SWAP1 SWAP6 SWAP1 SWAP5 POP SWAP3 POP POP POP JUMP JUMPDEST PUSH1 0x4 SLOAD PUSH1 0x60 SWAP1 PUSH1 0x0 SWAP1 DUP2 SWAP1 DUP2 SWAP1 DUP5 SWAP1 PUSH1 0x1 PUSH1 0x1 PUSH1 0xA0 SHL SUB AND CALLER EQ PUSH2 0x1536 JUMPI PUSH1 0x40 MLOAD PUSH3 0x461BCD PUSH1 0xE5 SHL DUP2 MSTORE PUSH1 0x4 ADD PUSH2 0x587 SWAP1 PUSH2 0x2B84 JUMP JUMPDEST PUSH1 0x0 SLOAD PUSH1 0x40 MLOAD PUSH4 0xC3A356B PUSH1 0xE1 SHL DUP2 MSTORE PUSH1 0x4 DUP2 ADD DUP9 SWAP1 MSTORE PUSH1 0x1 PUSH1 0x1 PUSH1 0xA0 SHL SUB SWAP1 SWAP2 AND SWAP1 PUSH4 0x18746AD6 SWAP1 PUSH1 0x24 ADD PUSH1 0x0 PUSH1 0x40 MLOAD DUP1 DUP4 SUB DUP2 DUP7 GAS STATICCALL ISZERO DUP1 ISZERO PUSH2 0x157F JUMPI RETURNDATASIZE PUSH1 0x0 DUP1 RETURNDATACOPY RETURNDATASIZE PUSH1 0x0 REVERT JUMPDEST POP POP POP POP PUSH1 0x40 MLOAD RETURNDATASIZE PUSH1 0x0 DUP3 RETURNDATACOPY PUSH1 0x1F RETURNDATASIZE SWAP1 DUP2 ADD PUSH1 0x1F NOT AND DUP3 ADD PUSH1 0x40 MSTORE PUSH2 0x6A2 SWAP2 SWAP1 DUP2 ADD SWAP1 PUSH2 0x2FCA JUMP JUMPDEST PUSH1 0x4 SLOAD PUSH1 0x0 SWAP1 DUP2 SWAP1 PUSH1 0x60 SWAP1 PUSH1 0x1 PUSH1 0x1 PUSH1 0xA0 SHL SUB AND CALLER EQ PUSH2 0x15D9 JUMPI PUSH1 0x40 MLOAD PUSH3 0x461BCD PUSH1 0xE5 SHL DUP2 MSTORE PUSH1 0x4 ADD PUSH2 0x587 SWAP1 PUSH2 0x2B84 JUMP JUMPDEST PUSH1 0x1 SLOAD PUSH1 0x40 MLOAD PUSH4 0x3CD99969 PUSH1 0xE1 SHL DUP2 MSTORE PUSH1 0x4 DUP2 ADD DUP7 SWAP1 MSTORE PUSH1 0x0 SWAP2 PUSH1 0x1 PUSH1 0x1 PUSH1 0xA0 SHL SUB AND SWAP1 PUSH4 0x79B332D2 SWAP1 PUSH1 0x24 ADD PUSH1 0x20 PUSH1 0x40 MLOAD DUP1 DUP4 SUB DUP2 DUP7 GAS STATICCALL ISZERO DUP1 ISZERO PUSH2 0x1623 JUMPI RETURNDATASIZE PUSH1 0x0 DUP1 RETURNDATACOPY RETURNDATASIZE PUSH1 0x0 REVERT JUMPDEST POP POP POP POP PUSH1 0x40 MLOAD RETURNDATASIZE PUSH1 0x1F NOT PUSH1 0x1F DUP3 ADD AND DUP3 ADD DUP1 PUSH1 0x40 MSTORE POP DUP2 ADD SWAP1 PUSH2 0x1647 SWAP2 SWAP1 PUSH2 0x2DD5 JUMP JUMPDEST PUSH1 0x1 SLOAD PUSH1 0x40 MLOAD PUSH4 0xC7E674F1 PUSH1 0xE0 SHL DUP2 MSTORE PUSH1 0x4 DUP2 ADD DUP9 SWAP1 MSTORE SWAP2 SWAP3 POP PUSH1 0x0 SWAP2 PUSH1 0x1 PUSH1 0x1 PUSH1 0xA0 SHL SUB SWAP1 SWAP2 AND SWAP1 PUSH4 0xC7E674F1 SWAP1 PUSH1 0x24 ADD PUSH1 0x20 PUSH1 0x40 MLOAD DUP1 DUP4 SUB DUP2 DUP7 GAS STATICCALL ISZERO DUP1 ISZERO PUSH2 0x1696 JUMPI RETURNDATASIZE PUSH1 0x0 DUP1 RETURNDATACOPY RETURNDATASIZE PUSH1 0x0 REVERT JUMPDEST POP POP POP POP PUSH1 0x40 MLOAD RETURNDATASIZE PUSH1 0x1F NOT PUSH1 0x1F DUP3 ADD AND DUP3 ADD DUP1 PUSH1 0x40 MSTORE POP DUP2 ADD SWAP1 PUSH2 0x16BA SWAP2 SWAP1 PUSH2 0x2DD5 JUMP JUMPDEST PUSH1 0x1 SLOAD PUSH1 0x40 MLOAD PUSH4 0x6338C89F PUSH1 0xE0 SHL DUP2 MSTORE PUSH1 0x4 DUP2 ADD DUP10 SWAP1 MSTORE SWAP2 SWAP3 POP PUSH1 0x0 SWAP2 PUSH1 0x1 PUSH1 0x1 PUSH1 0xA0 SHL SUB SWAP1 SWAP2 AND SWAP1 PUSH4 0x6338C89F SWAP1 PUSH1 0x24 ADD PUSH1 0x0 PUSH1 0x40 MLOAD DUP1 DUP4 SUB DUP2 DUP7 GAS STATICCALL ISZERO DUP1 ISZERO PUSH2 0x1709 JUMPI RETURNDATASIZE PUSH1 0x0 DUP1 RETURNDATACOPY RETURNDATASIZE PUSH1 0x0 REVERT JUMPDEST POP POP POP POP PUSH1 0x40 MLOAD RETURNDATASIZE PUSH1 0x0 DUP3 RETURNDATACOPY PUSH1 0x1F RETURNDATASIZE SWAP1 DUP2 ADD PUSH1 0x1F NOT AND DUP3 ADD PUSH1 0x40 MSTORE PUSH2 0xBA5 SWAP2 SWAP1 DUP2 ADD SWAP1 PUSH2 0x2E1C JUMP JUMPDEST PUSH1 0x1 SLOAD PUSH1 0x40 MLOAD PUSH4 0xAB236DC9 PUSH1 0xE0 SHL DUP2 MSTORE PUSH1 0x0 SWAP2 PUSH1 0x1 PUSH1 0x1 PUSH1 0xA0 SHL SUB AND SWAP1 PUSH4 0xAB236DC9 SWAP1 PUSH2 0x176A SWAP1 DUP10 SWAP1 DUP10 SWAP1 DUP10 SWAP1 DUP10 SWAP1 DUP10 SWAP1 PUSH1 0x4 ADD PUSH2 0x3030 JUMP JUMPDEST PUSH1 0x20 PUSH1 0x40 MLOAD DUP1 DUP4 SUB DUP2 PUSH1 0x0 DUP8 GAS CALL ISZERO DUP1 ISZERO PUSH2 0x1789 JUMPI RETURNDATASIZE PUSH1 0x0 DUP1 RETURNDATACOPY RETURNDATASIZE PUSH1 0x0 REVERT JUMPDEST POP POP POP POP PUSH1 0x40 MLOAD RETURNDATASIZE PUSH1 0x1F NOT PUSH1 0x1F DUP3 ADD AND DUP3 ADD DUP1 PUSH1 0x40 MSTORE POP DUP2 ADD SWAP1 PUSH2 0x17AD SWAP2 SWAP1 PUSH2 0x2DD5 JUMP JUMPDEST SWAP1 POP DUP2 DUP7 DUP3 PUSH32 0x289EC7E79A70DB9E5A21C4AA4BC91DE5745406FDC5FA52A91224E0F0E8D674AF PUSH1 0x40 MLOAD PUSH1 0x40 MLOAD DUP1 SWAP2 SUB SWAP1 LOG4 POP POP POP POP POP POP JUMP JUMPDEST PUSH1 0x4 SLOAD PUSH1 0x1 PUSH1 0x1 PUSH1 0xA0 SHL SUB AND CALLER EQ PUSH2 0x1810 JUMPI PUSH1 0x40 MLOAD PUSH3 0x461BCD PUSH1 0xE5 SHL DUP2 MSTORE PUSH1 0x4 ADD PUSH2 0x587 SWAP1 PUSH2 0x2B84 JUMP JUMPDEST PUSH1 0x3 SLOAD PUSH1 0x40 MLOAD PUSH4 0xBF452C59 PUSH1 0xE0 SHL DUP2 MSTORE PUSH1 0x4 DUP2 ADD DUP6 SWAP1 MSTORE PUSH1 0x24 DUP2 ADD DUP5 SWAP1 MSTORE PUSH1 0x44 DUP2 ADD DUP4 SWAP1 MSTORE PUSH1 0x1 PUSH1 0x1 PUSH1 0xA0 SHL SUB SWAP1 SWAP2 AND SWAP1 PUSH4 0xBF452C59 SWAP1 PUSH1 0x64 ADD PUSH1 0x0 PUSH1 0x40 MLOAD DUP1 DUP4 SUB DUP2 PUSH1 0x0 DUP8 DUP1 EXTCODESIZE ISZERO DUP1 ISZERO PUSH2 0x1864 JUMPI PUSH1 0x0 DUP1 REVERT JUMPDEST POP GAS CALL ISZERO DUP1 ISZERO PUSH2 0x1878 JUMPI RETURNDATASIZE PUSH1 0x0 DUP1 RETURNDATACOPY RETURNDATASIZE PUSH1 0x0 REVERT JUMPDEST POP POP POP POP DUP1 DUP3 DUP5 PUSH32 0x3C00A957D8B0ED88BF0AD892175A6F1B9FA89360787136E23A2FFBC5DC0BAAF9 PUSH1 0x40 MLOAD PUSH1 0x40 MLOAD DUP1 SWAP2 SUB SWAP1 LOG4 POP POP POP JUMP JUMPDEST PUSH1 0x1 SLOAD PUSH1 0x40 MLOAD PUSH4 0xC010F05 PUSH1 0xE4 SHL DUP2 MSTORE PUSH1 0x1 PUSH1 0x1 PUSH1 0xA0 SHL SUB SWAP1 SWAP2 AND SWAP1 PUSH4 0xC010F050 SWAP1 PUSH2 0x7C7 SWAP1 DUP8 SWAP1 DUP8 SWAP1 DUP8 SWAP1 DUP8 SWAP1 PUSH1 0x4 ADD PUSH2 0x3082 JUMP JUMPDEST PUSH1 0x4 SLOAD PUSH1 0x1 PUSH1 0x1 PUSH1 0xA0 SHL SUB AND CALLER EQ PUSH2 0x1910 JUMPI PUSH1 0x40 MLOAD PUSH3 0x461BCD PUSH1 0xE5 SHL DUP2 MSTORE PUSH1 0x4 ADD PUSH2 0x587 SWAP1 PUSH2 0x2B84 JUMP JUMPDEST PUSH1 0x0 SLOAD PUSH1 0x40 MLOAD PUSH4 0xC29871D7 PUSH1 0xE0 SHL DUP2 MSTORE PUSH1 0x1 PUSH1 0x1 PUSH1 0xA0 SHL SUB SWAP1 SWAP2 AND SWAP1 PUSH4 0xC29871D7 SWAP1 PUSH2 0xC17 SWAP1 DUP10 SWAP1 DUP10 SWAP1 DUP10 SWAP1 DUP10 SWAP1 DUP10 SWAP1 DUP10 SWAP1 PUSH1 0x4 ADD PUSH2 0x2E50 JUMP JUMPDEST PUSH1 0x4 SLOAD PUSH1 0x1 PUSH1 0x1 PUSH1 0xA0 SHL SUB AND CALLER EQ PUSH2 0x1974 JUMPI PUSH1 0x40 MLOAD PUSH3 0x461BCD PUSH1 0xE5 SHL DUP2 MSTORE PUSH1 0x4 ADD PUSH2 0x587 SWAP1 PUSH2 0x2B84 JUMP JUMPDEST PUSH1 0x0 SLOAD PUSH1 0x40 MLOAD PUSH4 0xC42F4FF PUSH1 0xE4 SHL DUP2 MSTORE PUSH1 0x1 PUSH1 0x1 PUSH1 0xA0 SHL SUB SWAP1 SWAP2 AND SWAP1 PUSH4 0xC42F4FF0 SWAP1 PUSH2 0xC17 SWAP1 DUP10 SWAP1 DUP10 SWAP1 DUP10 SWAP1 DUP10 SWAP1 DUP10 SWAP1 DUP10 SWAP1 PUSH1 0x4 ADD PUSH2 0x30BF JUMP JUMPDEST PUSH1 0x4 SLOAD PUSH1 0x60 SWAP1 DUP2 SWAP1 DUP2 SWAP1 PUSH1 0x1 PUSH1 0x1 PUSH1 0xA0 SHL SUB AND CALLER EQ PUSH2 0x19DF JUMPI PUSH1 0x40 MLOAD PUSH3 0x461BCD PUSH1 0xE5 SHL DUP2 MSTORE PUSH1 0x4 ADD PUSH2 0x587 SWAP1 PUSH2 0x2B84 JUMP JUMPDEST PUSH1 0x0 SLOAD PUSH1 0x40 MLOAD PUSH4 0x670A3447 PUSH1 0xE1 SHL DUP2 MSTORE PUSH1 0x4 DUP2 ADD DUP7 SWAP1 MSTORE PUSH1 0x1 PUSH1 0x1 PUSH1 0xA0 SHL SUB SWAP1 SWAP2 AND SWAP1 PUSH4 0xCE14688E SWAP1 PUSH1 0x24 ADD PUSH1 0x0 PUSH1 0x40 MLOAD DUP1 DUP4 SUB DUP2 DUP7 GAS STATICCALL ISZERO DUP1 ISZERO PUSH2 0x1A28 JUMPI RETURNDATASIZE PUSH1 0x0 DUP1 RETURNDATACOPY RETURNDATASIZE PUSH1 0x0 REVERT JUMPDEST POP POP POP POP PUSH1 0x40 MLOAD RETURNDATASIZE PUSH1 0x0 DUP3 RETURNDATACOPY PUSH1 0x1F RETURNDATASIZE SWAP1 DUP2 ADD PUSH1 0x1F NOT AND DUP3 ADD PUSH1 0x40 MSTORE PUSH2 0xA0E SWAP2 SWAP1 DUP2 ADD SWAP1 PUSH2 0x3118 JUMP JUMPDEST PUSH1 0x4 SLOAD PUSH1 0x60 SWAP1 PUSH1 0x0 SWAP1 PUSH1 0x1 PUSH1 0x1 PUSH1 0xA0 SHL SUB AND CALLER EQ PUSH2 0x1A80 JUMPI PUSH1 0x40 MLOAD PUSH3 0x461BCD PUSH1 0xE5 SHL DUP2 MSTORE PUSH1 0x4 ADD PUSH2 0x587 SWAP1 PUSH2 0x2B84 JUMP JUMPDEST PUSH1 0x1 SLOAD PUSH1 0x40 DUP1 MLOAD PUSH4 0xF57C6491 PUSH1 0xE0 SHL DUP2 MSTORE SWAP1 MLOAD PUSH1 0x0 SWAP3 PUSH1 0x1 PUSH1 0x1 PUSH1 0xA0 SHL SUB AND SWAP2 PUSH4 0xF57C6491 SWAP2 PUSH1 0x4 DUP1 DUP4 ADD SWAP3 PUSH1 0x20 SWAP3 SWAP2 SWAP1 DUP3 SWAP1 SUB ADD DUP2 DUP7 GAS STATICCALL ISZERO DUP1 ISZERO PUSH2 0x1ACA JUMPI RETURNDATASIZE PUSH1 0x0 DUP1 RETURNDATACOPY RETURNDATASIZE PUSH1 0x0 REVERT JUMPDEST POP POP POP POP PUSH1 0x40 MLOAD RETURNDATASIZE PUSH1 0x1F NOT PUSH1 0x1F DUP3 ADD AND DUP3 ADD DUP1 PUSH1 0x40 MSTORE POP DUP2 ADD SWAP1 PUSH2 0x1AEE SWAP2 SWAP1 PUSH2 0x2DD5 JUMP JUMPDEST SWAP1 POP DUP1 JUMPDEST DUP1 ISZERO PUSH2 0x1441 JUMPI PUSH1 0x1 SLOAD PUSH1 0x40 MLOAD PUSH4 0x69D5213B PUSH1 0xE0 SHL DUP2 MSTORE PUSH1 0x4 DUP2 ADD DUP4 SWAP1 MSTORE DUP7 SWAP2 PUSH1 0x1 PUSH1 0x1 PUSH1 0xA0 SHL SUB AND SWAP1 PUSH4 0x69D5213B SWAP1 PUSH1 0x24 ADD PUSH1 0x20 PUSH1 0x40 MLOAD DUP1 DUP4 SUB DUP2 DUP7 GAS STATICCALL ISZERO DUP1 ISZERO PUSH2 0x1B41 JUMPI RETURNDATASIZE PUSH1 0x0 DUP1 RETURNDATACOPY RETURNDATASIZE PUSH1 0x0 REVERT JUMPDEST POP POP POP POP PUSH1 0x40 MLOAD RETURNDATASIZE PUSH1 0x1F NOT PUSH1 0x1F DUP3 ADD AND DUP3 ADD DUP1 PUSH1 0x40 MSTORE POP DUP2 ADD SWAP1 PUSH2 0x1B65 SWAP2 SWAP1 PUSH2 0x2DD5 JUMP JUMPDEST EQ DUP1 ISZERO PUSH2 0x1C17 JUMPI POP PUSH1 0x40 DUP1 MLOAD PUSH1 0x0 DUP2 MSTORE PUSH1 0x20 DUP2 ADD SWAP2 DUP3 SWAP1 MSTORE DUP1 MLOAD DUP3 KECCAK256 PUSH1 0x1 SLOAD PUSH4 0x61590D55 PUSH1 0xE0 SHL SWAP1 SWAP4 MSTORE PUSH1 0x24 DUP3 ADD DUP5 SWAP1 MSTORE SWAP2 PUSH1 0x1 PUSH1 0x1 PUSH1 0xA0 SHL SUB AND SWAP1 PUSH4 0x61590D55 SWAP1 PUSH1 0x44 ADD PUSH1 0x0 PUSH1 0x40 MLOAD DUP1 DUP4 SUB DUP2 DUP7 GAS STATICCALL ISZERO DUP1 ISZERO PUSH2 0x1BC7 JUMPI RETURNDATASIZE PUSH1 0x0 DUP1 RETURNDATACOPY RETURNDATASIZE PUSH1 0x0 REVERT JUMPDEST POP POP POP POP PUSH1 0x40 MLOAD RETURNDATASIZE PUSH1 0x0 DUP3 RETURNDATACOPY PUSH1 0x1F RETURNDATASIZE SWAP1 DUP2 ADD PUSH1 0x1F NOT AND DUP3 ADD PUSH1 0x40 MSTORE PUSH2 0x1BEF SWAP2 SWAP1 DUP2 ADD SWAP1 PUSH2 0x2E1C JUMP JUMPDEST PUSH1 0x40 MLOAD PUSH1 0x20 ADD PUSH2 0x1BFF SWAP2 SWAP1 PUSH2 0x2F3B JUMP JUMPDEST PUSH1 0x40 MLOAD PUSH1 0x20 DUP2 DUP4 SUB SUB DUP2 MSTORE SWAP1 PUSH1 0x40 MSTORE DUP1 MLOAD SWAP1 PUSH1 0x20 ADD KECCAK256 EQ JUMPDEST ISZERO PUSH2 0x1C4D JUMPI PUSH1 0x1 SLOAD PUSH1 0x40 MLOAD PUSH4 0x4273DB49 PUSH1 0xE1 SHL DUP2 MSTORE PUSH1 0x4 DUP2 ADD DUP4 SWAP1 MSTORE PUSH1 0x1 PUSH1 0x1 PUSH1 0xA0 SHL SUB SWAP1 SWAP2 AND SWAP1 PUSH4 0x84E7B692 SWAP1 PUSH1 0x24 ADD PUSH2 0x1372 JUMP JUMPDEST DUP1 PUSH2 0x1C57 DUP2 PUSH2 0x2F6D JUMP JUMPDEST SWAP2 POP POP PUSH2 0x1AF2 JUMP JUMPDEST PUSH1 0x4 SLOAD PUSH1 0x1 PUSH1 0x1 PUSH1 0xA0 SHL SUB AND CALLER EQ PUSH2 0x1C89 JUMPI PUSH1 0x40 MLOAD PUSH3 0x461BCD PUSH1 0xE5 SHL DUP2 MSTORE PUSH1 0x4 ADD PUSH2 0x587 SWAP1 PUSH2 0x2B84 JUMP JUMPDEST PUSH1 0x0 SLOAD PUSH1 0x40 MLOAD PUSH4 0xD4CB7CF3 PUSH1 0xE0 SHL DUP2 MSTORE PUSH1 0x1 PUSH1 0x1 PUSH1 0xA0 SHL SUB SWAP1 SWAP2 AND SWAP1 PUSH4 0xD4CB7CF3 SWAP1 PUSH2 0x1CC5 SWAP1 DUP11 SWAP1 DUP11 SWAP1 DUP11 SWAP1 DUP11 SWAP1 DUP11 SWAP1 DUP11 SWAP1 DUP11 SWAP1 PUSH1 0x4 ADD PUSH2 0x3195 JUMP JUMPDEST PUSH1 0x0 PUSH1 0x40 MLOAD DUP1 DUP4 SUB DUP2 PUSH1 0x0 DUP8 DUP1 EXTCODESIZE ISZERO DUP1 ISZERO PUSH2 0x1CDF JUMPI PUSH1 0x0 DUP1 REVERT JUMPDEST POP GAS CALL ISZERO DUP1 ISZERO PUSH2 0x1CF3 JUMPI RETURNDATASIZE PUSH1 0x0 DUP1 RETURNDATACOPY RETURNDATASIZE PUSH1 0x0 REVERT JUMPDEST POP POP POP POP POP POP POP POP POP POP POP JUMP JUMPDEST PUSH1 0x4 SLOAD PUSH1 0x1 PUSH1 0x1 PUSH1 0xA0 SHL SUB AND CALLER EQ PUSH2 0x1D2A JUMPI PUSH1 0x40 MLOAD PUSH3 0x461BCD PUSH1 0xE5 SHL DUP2 MSTORE PUSH1 0x4 ADD PUSH2 0x587 SWAP1 PUSH2 0x2B84 JUMP JUMPDEST PUSH1 0x0 PUSH2 0x1D34 PUSH2 0x85F JUMP JUMPDEST SWAP1 POP PUSH1 0x1 JUMPDEST DUP2 DUP2 GT PUSH2 0x1E5C JUMPI PUSH1 0x0 DUP1 SLOAD PUSH1 0x40 MLOAD PUSH4 0xC3A356B PUSH1 0xE1 SHL DUP2 MSTORE PUSH1 0x4 DUP2 ADD DUP5 SWAP1 MSTORE DUP3 SWAP2 DUP3 SWAP2 PUSH1 0x1 PUSH1 0x1 PUSH1 0xA0 SHL SUB SWAP1 SWAP2 AND SWAP1 PUSH4 0x18746AD6 SWAP1 PUSH1 0x24 ADD PUSH1 0x0 PUSH1 0x40 MLOAD DUP1 DUP4 SUB DUP2 DUP7 GAS STATICCALL ISZERO DUP1 ISZERO PUSH2 0x1D8E JUMPI RETURNDATASIZE PUSH1 0x0 DUP1 RETURNDATACOPY RETURNDATASIZE PUSH1 0x0 REVERT JUMPDEST POP POP POP POP PUSH1 0x40 MLOAD RETURNDATASIZE PUSH1 0x0 DUP3 RETURNDATACOPY PUSH1 0x1F RETURNDATASIZE SWAP1 DUP2 ADD PUSH1 0x1F NOT AND DUP3 ADD PUSH1 0x40 MSTORE PUSH2 0x1DB6 SWAP2 SWAP1 DUP2 ADD SWAP1 PUSH2 0x2FCA JUMP JUMPDEST POP SWAP4 POP SWAP4 POP POP SWAP3 POP DUP7 PUSH1 0x40 MLOAD PUSH1 0x20 ADD PUSH2 0x1DCF SWAP2 SWAP1 PUSH2 0x2F3B JUMP JUMPDEST PUSH1 0x40 MLOAD PUSH1 0x20 DUP2 DUP4 SUB SUB DUP2 MSTORE SWAP1 PUSH1 0x40 MSTORE DUP1 MLOAD SWAP1 PUSH1 0x20 ADD KECCAK256 DUP4 PUSH1 0x40 MLOAD PUSH1 0x20 ADD PUSH2 0x1DF6 SWAP2 SWAP1 PUSH2 0x2F3B JUMP JUMPDEST PUSH1 0x40 MLOAD PUSH1 0x20 DUP2 DUP4 SUB SUB DUP2 MSTORE SWAP1 PUSH1 0x40 MSTORE DUP1 MLOAD SWAP1 PUSH1 0x20 ADD KECCAK256 SUB PUSH2 0x1E46 JUMPI DUP6 DUP2 SUB PUSH2 0x1E46 JUMPI PUSH1 0x40 MLOAD DUP3 SWAP1 DUP6 SWAP1 PUSH32 0x78A5F595BAA9B25B7A730211C5CF18E46D8C54F6CD7558AB36FF8EF5CF76D19E SWAP1 PUSH1 0x0 SWAP1 LOG3 JUMPDEST POP POP POP DUP1 DUP1 PUSH2 0x1E54 SWAP1 PUSH2 0x321E JUMP JUMPDEST SWAP2 POP POP PUSH2 0x1D39 JUMP JUMPDEST POP POP POP POP JUMP JUMPDEST PUSH1 0x4 SLOAD PUSH1 0x1 PUSH1 0x1 PUSH1 0xA0 SHL SUB AND CALLER EQ PUSH2 0x1E8C JUMPI PUSH1 0x40 MLOAD PUSH3 0x461BCD PUSH1 0xE5 SHL DUP2 MSTORE PUSH1 0x4 ADD PUSH2 0x587 SWAP1 PUSH2 0x2B84 JUMP JUMPDEST PUSH1 0x0 DUP1 SLOAD PUSH1 0x40 MLOAD PUSH4 0x36075DC1 PUSH1 0xE2 SHL DUP2 MSTORE PUSH1 0x1 PUSH1 0x1 PUSH1 0xA0 SHL SUB SWAP1 SWAP2 AND SWAP1 PUSH4 0xD81D7704 SWAP1 PUSH2 0x1EC5 SWAP1 DUP10 SWAP1 DUP10 SWAP1 DUP10 SWAP1 DUP10 SWAP1 DUP10 SWAP1 PUSH1 0x4 ADD PUSH2 0x26A5 JUMP JUMPDEST PUSH1 0x20 PUSH1 0x40 MLOAD DUP1 DUP4 SUB DUP2 PUSH1 0x0 DUP8 GAS CALL ISZERO DUP1 ISZERO PUSH2 0x1EE4 JUMPI RETURNDATASIZE PUSH1 0x0 DUP1 RETURNDATACOPY RETURNDATASIZE PUSH1 0x0 REVERT JUMPDEST POP POP POP POP PUSH1 0x40 MLOAD RETURNDATASIZE PUSH1 0x1F NOT PUSH1 0x1F DUP3 ADD AND DUP3 ADD DUP1 PUSH1 0x40 MSTORE POP DUP2 ADD SWAP1 PUSH2 0x1F08 SWAP2 SWAP1 PUSH2 0x2DD5 JUMP JUMPDEST SWAP1 POP DUP3 DUP5 DUP3 PUSH32 0x8914BE557F12C8B4EC80D2DE1BBD0CE352F4E74DAE0FC548A0FD56AC07B66044 PUSH1 0x40 MLOAD PUSH1 0x40 MLOAD DUP1 SWAP2 SUB SWAP1 LOG4 POP POP POP POP POP POP JUMP JUMPDEST PUSH1 0x1 SLOAD PUSH1 0x40 MLOAD PUSH4 0xD83463C9 PUSH1 0xE0 SHL DUP2 MSTORE PUSH1 0x0 SWAP2 PUSH1 0x1 PUSH1 0x1 PUSH1 0xA0 SHL SUB AND SWAP1 PUSH4 0xD83463C9 SWAP1 PUSH2 0x1F76 SWAP1 DUP8 SWAP1 DUP8 SWAP1 DUP8 SWAP1 PUSH1 0x4 ADD PUSH2 0x3237 JUMP JUMPDEST PUSH1 0x20 PUSH1 0x40 MLOAD DUP1 DUP4 SUB DUP2 PUSH1 0x0 DUP8 GAS CALL ISZERO DUP1 ISZERO PUSH2 0x1F95 JUMPI RETURNDATASIZE PUSH1 0x0 DUP1 RETURNDATACOPY RETURNDATASIZE PUSH1 0x0 REVERT JUMPDEST POP POP POP POP PUSH1 0x40 MLOAD RETURNDATASIZE PUSH1 0x1F NOT PUSH1 0x1F DUP3 ADD AND DUP3 ADD DUP1 PUSH1 0x40 MSTORE POP DUP2 ADD SWAP1 PUSH2 0x1FB9 SWAP2 SWAP1 PUSH2 0x2DD5 JUMP JUMPDEST SWAP1 POP DUP2 DUP2 DUP6 PUSH32 0xAD6D3ADECC8B5201D9897B24894EE0092797E79BE758B09F0DF6EECB2D105B9 PUSH1 0x40 MLOAD PUSH1 0x40 MLOAD DUP1 SWAP2 SUB SWAP1 LOG4 POP POP POP POP JUMP JUMPDEST PUSH1 0x4 SLOAD PUSH1 0x60 SWAP1 DUP2 SWAP1 DUP2 SWAP1 DUP2 SWAP1 DUP2 SWAP1 DUP2 SWAP1 PUSH1 0x1 PUSH1 0x1 PUSH1 0xA0 SHL SUB AND CALLER EQ PUSH2 0x2027 JUMPI PUSH1 0x40 MLOAD PUSH3 0x461BCD PUSH1 0xE5 SHL DUP2 MSTORE PUSH1 0x4 ADD PUSH2 0x587 SWAP1 PUSH2 0x2B84 JUMP JUMPDEST PUSH1 0x0 SLOAD PUSH1 0x40 MLOAD PUSH4 0x10EB2CF9 PUSH1 0xE3 SHL DUP2 MSTORE PUSH1 0x4 DUP2 ADD DUP10 SWAP1 MSTORE PUSH1 0x1 PUSH1 0x1 PUSH1 0xA0 SHL SUB SWAP1 SWAP2 AND SWAP1 PUSH4 0x875967C8 SWAP1 PUSH1 0x24 ADD PUSH1 0x0 PUSH1 0x40 MLOAD DUP1 DUP4 SUB DUP2 DUP7 GAS STATICCALL ISZERO DUP1 ISZERO PUSH2 0x2070 JUMPI RETURNDATASIZE PUSH1 0x0 DUP1 RETURNDATACOPY RETURNDATASIZE PUSH1 0x0 REVERT JUMPDEST POP POP POP POP PUSH1 0x40 MLOAD RETURNDATASIZE PUSH1 0x0 DUP3 RETURNDATACOPY PUSH1 0x1F RETURNDATASIZE SWAP1 DUP2 ADD PUSH1 0x1F NOT AND DUP3 ADD PUSH1 0x40 MSTORE PUSH2 0x2098 SWAP2 SWAP1 DUP2 ADD SWAP1 PUSH2 0x3260 JUMP JUMPDEST SWAP5 SWAP13 SWAP4 SWAP12 POP SWAP2 SWAP10 POP SWAP8 POP SWAP6 POP SWAP1 SWAP4 POP SWAP2 POP POP JUMP JUMPDEST PUSH4 0x4E487B71 PUSH1 0xE0 SHL PUSH1 0x0 MSTORE PUSH1 0x41 PUSH1 0x4 MSTORE PUSH1 0x24 PUSH1 0x0 REVERT JUMPDEST PUSH1 0x40 MLOAD PUSH1 0x1F DUP3 ADD PUSH1 0x1F NOT AND DUP2 ADD PUSH1 0x1 PUSH1 0x1 PUSH1 0x40 SHL SUB DUP2 GT DUP3 DUP3 LT OR ISZERO PUSH2 0x20EA JUMPI PUSH2 0x20EA PUSH2 0x20AC JUMP JUMPDEST PUSH1 0x40 MSTORE SWAP2 SWAP1 POP JUMP JUMPDEST PUSH1 0x0 PUSH1 0x1 PUSH1 0x1 PUSH1 0x40 SHL SUB DUP3 GT ISZERO PUSH2 0x210B JUMPI PUSH2 0x210B PUSH2 0x20AC JUMP JUMPDEST POP PUSH1 0x1F ADD PUSH1 0x1F NOT AND PUSH1 0x20 ADD SWAP1 JUMP JUMPDEST PUSH1 0x0 DUP3 PUSH1 0x1F DUP4 ADD SLT PUSH2 0x212A JUMPI PUSH1 0x0 DUP1 REVERT JUMPDEST DUP2 CALLDATALOAD PUSH2 0x213D PUSH2 0x2138 DUP3 PUSH2 0x20F2 JUMP JUMPDEST PUSH2 0x20C2 JUMP JUMPDEST DUP2 DUP2 MSTORE DUP5 PUSH1 0x20 DUP4 DUP7 ADD ADD GT ISZERO PUSH2 0x2152 JUMPI PUSH1 0x0 DUP1 REVERT JUMPDEST DUP2 PUSH1 0x20 DUP6 ADD PUSH1 0x20 DUP4 ADD CALLDATACOPY PUSH1 0x0 SWAP2 DUP2 ADD PUSH1 0x20 ADD SWAP2 SWAP1 SWAP2 MSTORE SWAP4 SWAP3 POP POP POP JUMP JUMPDEST PUSH1 0x0 DUP1 PUSH1 0x0 PUSH1 0x60 DUP5 DUP7 SUB SLT ISZERO PUSH2 0x2184 JUMPI PUSH1 0x0 DUP1 REVERT JUMPDEST DUP4 CALLDATALOAD SWAP3 POP PUSH1 0x20 DUP5 ADD CALLDATALOAD PUSH1 0x1 PUSH1 0x1 PUSH1 0x40 SHL SUB DUP1 DUP3 GT ISZERO PUSH2 0x21A2 JUMPI PUSH1 0x0 DUP1 REVERT JUMPDEST PUSH2 0x21AE DUP8 DUP4 DUP9 ADD PUSH2 0x2119 JUMP JUMPDEST SWAP4 POP PUSH1 0x40 DUP7 ADD CALLDATALOAD SWAP2 POP DUP1 DUP3 GT ISZERO PUSH2 0x21C4 JUMPI PUSH1 0x0 DUP1 REVERT JUMPDEST POP PUSH2 0x21D1 DUP7 DUP3 DUP8 ADD PUSH2 0x2119 JUMP JUMPDEST SWAP2 POP POP SWAP3 POP SWAP3 POP SWAP3 JUMP JUMPDEST PUSH1 0x0 PUSH1 0x20 DUP3 DUP5 SUB SLT ISZERO PUSH2 0x21ED JUMPI PUSH1 0x0 DUP1 REVERT JUMPDEST POP CALLDATALOAD SWAP2 SWAP1 POP JUMP JUMPDEST PUSH1 0x0 JUMPDEST DUP4 DUP2 LT ISZERO PUSH2 0x220F JUMPI DUP2 DUP2 ADD MLOAD DUP4 DUP3 ADD MSTORE PUSH1 0x20 ADD PUSH2 0x21F7 JUMP JUMPDEST DUP4 DUP2 GT ISZERO PUSH2 0x1E5C JUMPI POP POP PUSH1 0x0 SWAP2 ADD MSTORE JUMP JUMPDEST PUSH1 0x0 DUP2 MLOAD DUP1 DUP5 MSTORE PUSH2 0x2238 DUP2 PUSH1 0x20 DUP7 ADD PUSH1 0x20 DUP7 ADD PUSH2 0x21F4 JUMP JUMPDEST PUSH1 0x1F ADD PUSH1 0x1F NOT AND SWAP3 SWAP1 SWAP3 ADD PUSH1 0x20 ADD SWAP3 SWAP2 POP POP JUMP JUMPDEST PUSH1 0xA0 DUP2 MSTORE PUSH1 0x0 PUSH2 0x225F PUSH1 0xA0 DUP4 ADD DUP9 PUSH2 0x2220 JUMP JUMPDEST DUP3 DUP2 SUB PUSH1 0x20 DUP5 ADD MSTORE PUSH2 0x2271 DUP2 DUP9 PUSH2 0x2220 JUMP JUMPDEST SWAP1 POP DUP3 DUP2 SUB PUSH1 0x40 DUP5 ADD MSTORE PUSH2 0x2285 DUP2 DUP8 PUSH2 0x2220 JUMP JUMPDEST SWAP1 POP DUP3 DUP2 SUB PUSH1 0x60 DUP5 ADD MSTORE PUSH2 0x2299 DUP2 DUP7 PUSH2 0x2220 JUMP JUMPDEST SWAP1 POP DUP3 DUP2 SUB PUSH1 0x80 DUP5 ADD MSTORE PUSH2 0x22AD DUP2 DUP6 PUSH2 0x2220 JUMP JUMPDEST SWAP9 SWAP8 POP POP POP POP POP POP POP POP JUMP JUMPDEST PUSH1 0xA0 DUP2 MSTORE PUSH1 0x0 PUSH2 0x22CC PUSH1 0xA0 DUP4 ADD DUP9 PUSH2 0x2220 JUMP JUMPDEST DUP3 DUP2 SUB PUSH1 0x20 DUP5 ADD MSTORE PUSH2 0x22DE DUP2 DUP9 PUSH2 0x2220 JUMP JUMPDEST SWAP1 POP DUP3 DUP2 SUB PUSH1 0x40 DUP5 ADD MSTORE PUSH2 0x22F2 DUP2 DUP8 PUSH2 0x2220 JUMP JUMPDEST SWAP1 POP DUP5 PUSH1 0x60 DUP5 ADD MSTORE DUP3 DUP2 SUB PUSH1 0x80 DUP5 ADD MSTORE PUSH2 0x22AD DUP2 DUP6 PUSH2 0x2220 JUMP JUMPDEST PUSH1 0x0 DUP1 PUSH1 0x0 DUP1 PUSH1 0x80 DUP6 DUP8 SUB SLT ISZERO PUSH2 0x2322 JUMPI PUSH1 0x0 DUP1 REVERT JUMPDEST POP POP DUP3 CALLDATALOAD SWAP5 PUSH1 0x20 DUP5 ADD CALLDATALOAD SWAP5 POP PUSH1 0x40 DUP5 ADD CALLDATALOAD SWAP4 PUSH1 0x60 ADD CALLDATALOAD SWAP3 POP SWAP1 POP JUMP JUMPDEST PUSH1 0x0 DUP1 PUSH1 0x0 DUP1 PUSH1 0x80 DUP6 DUP8 SUB SLT ISZERO PUSH2 0x2354 JUMPI PUSH1 0x0 DUP1 REVERT JUMPDEST DUP5 CALLDATALOAD SWAP4 POP PUSH1 0x20 DUP6 ADD CALLDATALOAD PUSH1 0x1 PUSH1 0x1 PUSH1 0x40 SHL SUB DUP1 DUP3 GT ISZERO PUSH2 0x2372 JUMPI PUSH1 0x0 DUP1 REVERT JUMPDEST PUSH2 0x237E DUP9 DUP4 DUP10 ADD PUSH2 0x2119 JUMP JUMPDEST SWAP5 POP PUSH1 0x40 DUP8 ADD CALLDATALOAD SWAP2 POP DUP1 DUP3 GT ISZERO PUSH2 0x2394 JUMPI PUSH1 0x0 DUP1 REVERT JUMPDEST PUSH2 0x23A0 DUP9 DUP4 DUP10 ADD PUSH2 0x2119 JUMP JUMPDEST SWAP4 POP PUSH1 0x60 DUP8 ADD CALLDATALOAD SWAP2 POP DUP1 DUP3 GT ISZERO PUSH2 0x23B6 JUMPI PUSH1 0x0 DUP1 REVERT JUMPDEST POP PUSH2 0x23C3 DUP8 DUP3 DUP9 ADD PUSH2 0x2119 JUMP JUMPDEST SWAP2 POP POP SWAP3 SWAP6 SWAP2 SWAP5 POP SWAP3 POP JUMP JUMPDEST PUSH1 0x60 DUP2 MSTORE PUSH1 0x0 PUSH2 0x23E2 PUSH1 0x60 DUP4 ADD DUP7 PUSH2 0x2220 JUMP JUMPDEST PUSH1 0x20 DUP4 ADD SWAP5 SWAP1 SWAP5 MSTORE POP PUSH1 0x40 ADD MSTORE SWAP2 SWAP1 POP JUMP JUMPDEST PUSH1 0x0 DUP1 PUSH1 0x0 DUP1 PUSH1 0x0 DUP1 PUSH1 0xC0 DUP8 DUP10 SUB SLT ISZERO PUSH2 0x240D JUMPI PUSH1 0x0 DUP1 REVERT JUMPDEST DUP7 CALLDATALOAD SWAP6 POP PUSH1 0x20 DUP8 ADD CALLDATALOAD PUSH1 0x1 PUSH1 0x1 PUSH1 0x40 SHL SUB DUP1 DUP3 GT ISZERO PUSH2 0x242B JUMPI PUSH1 0x0 DUP1 REVERT JUMPDEST PUSH2 0x2437 DUP11 DUP4 DUP12 ADD PUSH2 0x2119 JUMP JUMPDEST SWAP7 POP PUSH1 0x40 DUP10 ADD CALLDATALOAD SWAP2 POP DUP1 DUP3 GT ISZERO PUSH2 0x244D JUMPI PUSH1 0x0 DUP1 REVERT JUMPDEST PUSH2 0x2459 DUP11 DUP4 DUP12 ADD PUSH2 0x2119 JUMP JUMPDEST SWAP6 POP PUSH1 0x60 DUP10 ADD CALLDATALOAD SWAP2 POP DUP1 DUP3 GT ISZERO PUSH2 0x246F JUMPI PUSH1 0x0 DUP1 REVERT JUMPDEST PUSH2 0x247B DUP11 DUP4 DUP12 ADD PUSH2 0x2119 JUMP JUMPDEST SWAP5 POP PUSH1 0x80 DUP10 ADD CALLDATALOAD SWAP2 POP DUP1 DUP3 GT ISZERO PUSH2 0x2491 JUMPI PUSH1 0x0 DUP1 REVERT JUMPDEST PUSH2 0x249D DUP11 DUP4 DUP12 ADD PUSH2 0x2119 JUMP JUMPDEST SWAP4 POP PUSH1 0xA0 DUP10 ADD CALLDATALOAD SWAP2 POP DUP1 DUP3 GT ISZERO PUSH2 0x24B3 JUMPI PUSH1 0x0 DUP1 REVERT JUMPDEST POP PUSH2 0x24C0 DUP10 DUP3 DUP11 ADD PUSH2 0x2119 JUMP JUMPDEST SWAP2 POP POP SWAP3 SWAP6 POP SWAP3 SWAP6 POP SWAP3 SWAP6 JUMP JUMPDEST PUSH1 0x0 DUP1 PUSH1 0x0 DUP1 PUSH1 0x0 PUSH1 0xA0 DUP7 DUP9 SUB SLT ISZERO PUSH2 0x24E5 JUMPI PUSH1 0x0 DUP1 REVERT JUMPDEST DUP6 CALLDATALOAD SWAP5 POP PUSH1 0x20 DUP7 ADD CALLDATALOAD PUSH1 0x1 PUSH1 0x1 PUSH1 0x40 SHL SUB DUP1 DUP3 GT ISZERO PUSH2 0x2503 JUMPI PUSH1 0x0 DUP1 REVERT JUMPDEST PUSH2 0x250F DUP10 DUP4 DUP11 ADD PUSH2 0x2119 JUMP JUMPDEST SWAP6 POP PUSH1 0x40 DUP9 ADD CALLDATALOAD SWAP5 POP PUSH1 0x60 DUP9 ADD CALLDATALOAD SWAP4 POP PUSH1 0x80 DUP9 ADD CALLDATALOAD SWAP2 POP DUP1 DUP3 GT ISZERO PUSH2 0x2533 JUMPI PUSH1 0x0 DUP1 REVERT JUMPDEST POP PUSH2 0x2540 DUP9 DUP3 DUP10 ADD PUSH2 0x2119 JUMP JUMPDEST SWAP2 POP POP SWAP3 SWAP6 POP SWAP3 SWAP6 SWAP1 SWAP4 POP JUMP JUMPDEST PUSH1 0xA0 DUP2 MSTORE PUSH1 0x0 PUSH2 0x2560 PUSH1 0xA0 DUP4 ADD DUP9 PUSH2 0x2220 JUMP JUMPDEST DUP3 DUP2 SUB PUSH1 0x20 DUP5 ADD MSTORE PUSH2 0x2572 DUP2 DUP9 PUSH2 0x2220 JUMP JUMPDEST SWAP1 POP DUP3 DUP2 SUB PUSH1 0x40 DUP5 ADD MSTORE PUSH2 0x2586 DUP2 DUP8 PUSH2 0x2220 JUMP JUMPDEST PUSH1 0x60 DUP5 ADD SWAP6 SWAP1 SWAP6 MSTORE POP POP PUSH1 0x80 ADD MSTORE SWAP4 SWAP3 POP POP POP JUMP JUMPDEST PUSH1 0x40 DUP2 MSTORE PUSH1 0x0 PUSH2 0x25AE PUSH1 0x40 DUP4 ADD DUP6 PUSH2 0x2220 JUMP JUMPDEST DUP3 DUP2 SUB PUSH1 0x20 DUP5 ADD MSTORE PUSH2 0x25C0 DUP2 DUP6 PUSH2 0x2220 JUMP JUMPDEST SWAP6 SWAP5 POP POP POP POP POP JUMP JUMPDEST PUSH1 0x0 DUP1 PUSH1 0x0 DUP1 PUSH1 0x80 DUP6 DUP8 SUB SLT ISZERO PUSH2 0x25DF JUMPI PUSH1 0x0 DUP1 REVERT JUMPDEST DUP5 CALLDATALOAD SWAP4 POP PUSH1 0x20 DUP6 ADD CALLDATALOAD SWAP3 POP PUSH1 0x40 DUP6 ADD CALLDATALOAD PUSH1 0x1 PUSH1 0x1 PUSH1 0x40 SHL SUB DUP2 GT ISZERO PUSH2 0x2603 JUMPI PUSH1 0x0 DUP1 REVERT JUMPDEST PUSH2 0x260F DUP8 DUP3 DUP9 ADD PUSH2 0x2119 JUMP JUMPDEST SWAP5 SWAP8 SWAP4 SWAP7 POP SWAP4 SWAP5 PUSH1 0x60 ADD CALLDATALOAD SWAP4 POP POP POP JUMP JUMPDEST PUSH1 0x40 DUP2 MSTORE PUSH1 0x0 PUSH2 0x2633 PUSH1 0x40 DUP4 ADD DUP6 PUSH2 0x2220 JUMP JUMPDEST SWAP1 POP DUP3 PUSH1 0x20 DUP4 ADD MSTORE SWAP4 SWAP3 POP POP POP JUMP JUMPDEST PUSH1 0x0 DUP1 PUSH1 0x40 DUP4 DUP6 SUB SLT ISZERO PUSH2 0x2655 JUMPI PUSH1 0x0 DUP1 REVERT JUMPDEST DUP3 CALLDATALOAD PUSH1 0x1 PUSH1 0x1 PUSH1 0x40 SHL SUB DUP1 DUP3 GT ISZERO PUSH2 0x266C JUMPI PUSH1 0x0 DUP1 REVERT JUMPDEST PUSH2 0x2678 DUP7 DUP4 DUP8 ADD PUSH2 0x2119 JUMP JUMPDEST SWAP4 POP PUSH1 0x20 DUP6 ADD CALLDATALOAD SWAP2 POP DUP1 DUP3 GT ISZERO PUSH2 0x268E JUMPI PUSH1 0x0 DUP1 REVERT JUMPDEST POP PUSH2 0x269B DUP6 DUP3 DUP7 ADD PUSH2 0x2119 JUMP JUMPDEST SWAP2 POP POP SWAP3 POP SWAP3 SWAP1 POP JUMP JUMPDEST PUSH1 0xA0 DUP2 MSTORE PUSH1 0x0 PUSH2 0x26B8 PUSH1 0xA0 DUP4 ADD DUP9 PUSH2 0x2220 JUMP JUMPDEST DUP7 PUSH1 0x20 DUP5 ADD MSTORE DUP6 PUSH1 0x40 DUP5 ADD MSTORE DUP5 PUSH1 0x60 DUP5 ADD MSTORE DUP3 DUP2 SUB PUSH1 0x80 DUP5 ADD MSTORE PUSH2 0x22AD DUP2 DUP6 PUSH2 0x2220 JUMP JUMPDEST DUP4 DUP2 MSTORE DUP3 PUSH1 0x20 DUP3 ADD MSTORE PUSH1 0x60 PUSH1 0x40 DUP3 ADD MSTORE PUSH1 0x0 PUSH2 0x25C0 PUSH1 0x60 DUP4 ADD DUP5 PUSH2 0x2220 JUMP JUMPDEST PUSH1 0x0 DUP1 PUSH1 0x0 DUP1 PUSH1 0x0 PUSH1 0xA0 DUP7 DUP9 SUB SLT ISZERO PUSH2 0x2713 JUMPI PUSH1 0x0 DUP1 REVERT JUMPDEST DUP6 CALLDATALOAD SWAP5 POP PUSH1 0x20 DUP7 ADD CALLDATALOAD PUSH1 0x1 PUSH1 0x1 PUSH1 0x40 SHL SUB DUP1 DUP3 GT ISZERO PUSH2 0x2731 JUMPI PUSH1 0x0 DUP1 REVERT JUMPDEST PUSH2 0x273D DUP10 DUP4 DUP11 ADD PUSH2 0x2119 JUMP JUMPDEST SWAP6 POP PUSH1 0x40 DUP9 ADD CALLDATALOAD SWAP2 POP DUP1 DUP3 GT ISZERO PUSH2 0x2753 JUMPI PUSH1 0x0 DUP1 REVERT JUMPDEST PUSH2 0x275F DUP10 DUP4 DUP11 ADD PUSH2 0x2119 JUMP JUMPDEST SWAP5 POP PUSH1 0x60 DUP9 ADD CALLDATALOAD SWAP2 POP DUP1 DUP3 GT ISZERO PUSH2 0x2775 JUMPI PUSH1 0x0 DUP1 REVERT JUMPDEST POP PUSH2 0x2782 DUP9 DUP3 DUP10 ADD PUSH2 0x2119 JUMP JUMPDEST SWAP6 SWAP9 SWAP5 SWAP8 POP SWAP3 SWAP6 PUSH1 0x80 ADD CALLDATALOAD SWAP4 SWAP3 POP POP POP JUMP JUMPDEST PUSH1 0x0 DUP1 PUSH1 0x0 PUSH1 0x60 DUP5 DUP7 SUB SLT ISZERO PUSH2 0x27A9 JUMPI PUSH1 0x0 DUP1 REVERT JUMPDEST POP POP DUP2 CALLDATALOAD SWAP4 PUSH1 0x20 DUP4 ADD CALLDATALOAD SWAP4 POP PUSH1 0x40 SWAP1 SWAP3 ADD CALLDATALOAD SWAP2 SWAP1 POP JUMP JUMPDEST PUSH1 0x0 DUP1 PUSH1 0x0 DUP1 PUSH1 0x80 DUP6 DUP8 SUB SLT ISZERO PUSH2 0x27D6 JUMPI PUSH1 0x0 DUP1 REVERT JUMPDEST DUP5 CALLDATALOAD SWAP4 POP PUSH1 0x20 DUP6 ADD CALLDATALOAD PUSH1 0x1 PUSH1 0x1 PUSH1 0x40 SHL SUB DUP1 DUP3 GT ISZERO PUSH2 0x27F4 JUMPI PUSH1 0x0 DUP1 REVERT JUMPDEST PUSH2 0x2800 DUP9 DUP4 DUP10 ADD PUSH2 0x2119 JUMP JUMPDEST SWAP5 POP PUSH1 0x40 DUP8 ADD CALLDATALOAD SWAP2 POP DUP1 DUP3 GT ISZERO PUSH2 0x2816 JUMPI PUSH1 0x0 DUP1 REVERT JUMPDEST POP PUSH2 0x260F DUP8 DUP3 DUP9 ADD PUSH2 0x2119 JUMP JUMPDEST PUSH1 0x0 DUP1 PUSH1 0x0 DUP1 PUSH1 0x0 DUP1 PUSH1 0xC0 DUP8 DUP10 SUB SLT ISZERO PUSH2 0x283C JUMPI PUSH1 0x0 DUP1 REVERT JUMPDEST DUP7 CALLDATALOAD SWAP6 POP PUSH1 0x20 DUP8 ADD CALLDATALOAD PUSH1 0x1 PUSH1 0x1 PUSH1 0x40 SHL SUB DUP1 DUP3 GT ISZERO PUSH2 0x285A JUMPI PUSH1 0x0 DUP1 REVERT JUMPDEST PUSH2 0x2866 DUP11 DUP4 DUP12 ADD PUSH2 0x2119 JUMP JUMPDEST SWAP7 POP PUSH1 0x40 DUP10 ADD CALLDATALOAD SWAP2 POP DUP1 DUP3 GT ISZERO PUSH2 0x287C JUMPI PUSH1 0x0 DUP1 REVERT JUMPDEST PUSH2 0x2888 DUP11 DUP4 DUP12 ADD PUSH2 0x2119 JUMP JUMPDEST SWAP6 POP PUSH1 0x60 DUP10 ADD CALLDATALOAD SWAP2 POP DUP1 DUP3 GT ISZERO PUSH2 0x289E JUMPI PUSH1 0x0 DUP1 REVERT JUMPDEST PUSH2 0x28AA DUP11 DUP4 DUP12 ADD PUSH2 0x2119 JUMP JUMPDEST SWAP5 POP PUSH1 0x80 DUP10 ADD CALLDATALOAD SWAP4 POP PUSH1 0xA0 DUP10 ADD CALLDATALOAD SWAP2 POP DUP1 DUP3 GT ISZERO PUSH2 0x24B3 JUMPI PUSH1 0x0 DUP1 REVERT JUMPDEST PUSH1 0x60 DUP2 MSTORE PUSH1 0x0 PUSH2 0x28DA PUSH1 0x60 DUP4 ADD DUP7 PUSH2 0x2220 JUMP JUMPDEST DUP3 DUP2 SUB PUSH1 0x20 DUP5 ADD MSTORE PUSH2 0x28EC DUP2 DUP7 PUSH2 0x2220 JUMP JUMPDEST SWAP1 POP DUP3 DUP2 SUB PUSH1 0x40 DUP5 ADD MSTORE PUSH2 0x2900 DUP2 DUP6 PUSH2 0x2220 JUMP JUMPDEST SWAP7 SWAP6 POP POP POP POP POP POP JUMP JUMPDEST PUSH1 0x0 DUP1 PUSH1 0x0 DUP1 PUSH1 0x0 DUP1 PUSH1 0x0 PUSH1 0xE0 DUP9 DUP11 SUB SLT ISZERO PUSH2 0x2925 JUMPI PUSH1 0x0 DUP1 REVERT JUMPDEST DUP8 CALLDATALOAD SWAP7 POP PUSH1 0x20 DUP9 ADD CALLDATALOAD PUSH1 0x1 PUSH1 0x1 PUSH1 0x40 SHL SUB DUP1 DUP3 GT ISZERO PUSH2 0x2943 JUMPI PUSH1 0x0 DUP1 REVERT JUMPDEST PUSH2 0x294F DUP12 DUP4 DUP13 ADD PUSH2 0x2119 JUMP JUMPDEST SWAP8 POP PUSH1 0x40 DUP11 ADD CALLDATALOAD SWAP2 POP DUP1 DUP3 GT ISZERO PUSH2 0x2965 JUMPI PUSH1 0x0 DUP1 REVERT JUMPDEST PUSH2 0x2971 DUP12 DUP4 DUP13 ADD PUSH2 0x2119 JUMP JUMPDEST SWAP7 POP PUSH1 0x60 DUP11 ADD CALLDATALOAD SWAP2 POP DUP1 DUP3 GT ISZERO PUSH2 0x2987 JUMPI PUSH1 0x0 DUP1 REVERT JUMPDEST PUSH2 0x2993 DUP12 DUP4 DUP13 ADD PUSH2 0x2119 JUMP JUMPDEST SWAP6 POP PUSH1 0x80 DUP11 ADD CALLDATALOAD SWAP2 POP DUP1 DUP3 GT ISZERO PUSH2 0x29A9 JUMPI PUSH1 0x0 DUP1 REVERT JUMPDEST PUSH2 0x29B5 DUP12 DUP4 DUP13 ADD PUSH2 0x2119 JUMP JUMPDEST SWAP5 POP PUSH1 0xA0 DUP11 ADD CALLDATALOAD SWAP2 POP DUP1 DUP3 GT ISZERO PUSH2 0x29CB JUMPI PUSH1 0x0 DUP1 REVERT JUMPDEST PUSH2 0x29D7 DUP12 DUP4 DUP13 ADD PUSH2 0x2119 JUMP JUMPDEST SWAP4 POP PUSH1 0xC0 DUP11 ADD CALLDATALOAD SWAP2 POP DUP1 DUP3 GT ISZERO PUSH2 0x29ED JUMPI PUSH1 0x0 DUP1 REVERT JUMPDEST POP PUSH2 0x29FA DUP11 DUP3 DUP12 ADD PUSH2 0x2119 JUMP JUMPDEST SWAP2 POP POP SWAP3 SWAP6 SWAP9 SWAP2 SWAP5 SWAP8 POP SWAP3 SWAP6 POP JUMP JUMPDEST PUSH1 0x0 DUP1 PUSH1 0x40 DUP4 DUP6 SUB SLT ISZERO PUSH2 0x2A1C JUMPI PUSH1 0x0 DUP1 REVERT JUMPDEST DUP3 CALLDATALOAD PUSH1 0x1 PUSH1 0x1 PUSH1 0x40 SHL SUB DUP2 GT ISZERO PUSH2 0x2A32 JUMPI PUSH1 0x0 DUP1 REVERT JUMPDEST PUSH2 0x2A3E DUP6 DUP3 DUP7 ADD PUSH2 0x2119 JUMP JUMPDEST SWAP6 PUSH1 0x20 SWAP5 SWAP1 SWAP5 ADD CALLDATALOAD SWAP5 POP POP POP POP JUMP JUMPDEST PUSH1 0x0 DUP1 PUSH1 0x0 DUP1 PUSH1 0x0 PUSH1 0xA0 DUP7 DUP9 SUB SLT ISZERO PUSH2 0x2A65 JUMPI PUSH1 0x0 DUP1 REVERT JUMPDEST DUP6 CALLDATALOAD PUSH1 0x1 PUSH1 0x1 PUSH1 0x40 SHL SUB DUP1 DUP3 GT ISZERO PUSH2 0x2A7C JUMPI PUSH1 0x0 DUP1 REVERT JUMPDEST PUSH2 0x2A88 DUP10 DUP4 DUP11 ADD PUSH2 0x2119 JUMP JUMPDEST SWAP7 POP PUSH1 0x20 DUP9 ADD CALLDATALOAD SWAP6 POP PUSH1 0x40 DUP9 ADD CALLDATALOAD SWAP5 POP PUSH1 0x60 DUP9 ADD CALLDATALOAD SWAP4 POP PUSH1 0x80 DUP9 ADD CALLDATALOAD SWAP2 POP DUP1 DUP3 GT ISZERO PUSH2 0x2533 JUMPI PUSH1 0x0 DUP1 REVERT JUMPDEST PUSH1 0x0 DUP1 PUSH1 0x0 PUSH1 0x60 DUP5 DUP7 SUB SLT ISZERO PUSH2 0x2AC8 JUMPI PUSH1 0x0 DUP1 REVERT JUMPDEST DUP4 CALLDATALOAD SWAP3 POP PUSH1 0x20 DUP5 ADD CALLDATALOAD PUSH1 0x1 PUSH1 0x1 PUSH1 0x40 SHL SUB DUP2 GT ISZERO PUSH2 0x2AE5 JUMPI PUSH1 0x0 DUP1 REVERT JUMPDEST PUSH2 0x2AF1 DUP7 DUP3 DUP8 ADD PUSH2 0x2119 JUMP JUMPDEST SWAP3 POP POP PUSH1 0x40 DUP5 ADD CALLDATALOAD SWAP1 POP SWAP3 POP SWAP3 POP SWAP3 JUMP JUMPDEST PUSH1 0xC0 DUP2 MSTORE PUSH1 0x0 PUSH2 0x2B15 PUSH1 0xC0 DUP4 ADD DUP10 PUSH2 0x2220 JUMP JUMPDEST DUP3 DUP2 SUB PUSH1 0x20 DUP5 ADD MSTORE PUSH2 0x2B27 DUP2 DUP10 PUSH2 0x2220 JUMP JUMPDEST SWAP1 POP DUP3 DUP2 SUB PUSH1 0x40 DUP5 ADD MSTORE PUSH2 0x2B3B DUP2 DUP9 PUSH2 0x2220 JUMP JUMPDEST SWAP1 POP DUP3 DUP2 SUB PUSH1 0x60 DUP5 ADD MSTORE PUSH2 0x2B4F DUP2 DUP8 PUSH2 0x2220 JUMP JUMPDEST SWAP1 POP DUP3 DUP2 SUB PUSH1 0x80 DUP5 ADD MSTORE PUSH2 0x2B63 DUP2 DUP7 PUSH2 0x2220 JUMP JUMPDEST SWAP1 POP DUP3 DUP2 SUB PUSH1 0xA0 DUP5 ADD MSTORE PUSH2 0x2B77 DUP2 DUP6 PUSH2 0x2220 JUMP JUMPDEST SWAP10 SWAP9 POP POP POP POP POP POP POP POP POP JUMP JUMPDEST PUSH1 0x20 DUP1 DUP3 MSTORE PUSH1 0x15 SWAP1 DUP3 ADD MSTORE PUSH21 0x2CB7BA9030B932903737BA103A34329030B236B4B7 PUSH1 0x59 SHL PUSH1 0x40 DUP3 ADD MSTORE PUSH1 0x60 ADD SWAP1 JUMP JUMPDEST DUP4 DUP2 MSTORE PUSH1 0x60 PUSH1 0x20 DUP3 ADD MSTORE PUSH1 0x0 PUSH2 0x2BCC PUSH1 0x60 DUP4 ADD DUP6 PUSH2 0x2220 JUMP JUMPDEST DUP3 DUP2 SUB PUSH1 0x40 DUP5 ADD MSTORE PUSH2 0x2900 DUP2 DUP6 PUSH2 0x2220 JUMP JUMPDEST PUSH1 0x0 DUP3 PUSH1 0x1F DUP4 ADD SLT PUSH2 0x2BEF JUMPI PUSH1 0x0 DUP1 REVERT JUMPDEST DUP2 MLOAD PUSH2 0x2BFD PUSH2 0x2138 DUP3 PUSH2 0x20F2 JUMP JUMPDEST DUP2 DUP2 MSTORE DUP5 PUSH1 0x20 DUP4 DUP7 ADD ADD GT ISZERO PUSH2 0x2C12 JUMPI PUSH1 0x0 DUP1 REVERT JUMPDEST PUSH2 0x2C23 DUP3 PUSH1 0x20 DUP4 ADD PUSH1 0x20 DUP8 ADD PUSH2 0x21F4 JUMP JUMPDEST SWAP5 SWAP4 POP POP POP POP JUMP JUMPDEST PUSH1 0x0 DUP1 PUSH1 0x0 DUP1 PUSH1 0x0 PUSH1 0xA0 DUP7 DUP9 SUB SLT ISZERO PUSH2 0x2C43 JUMPI PUSH1 0x0 DUP1 REVERT JUMPDEST DUP6 MLOAD PUSH1 0x1 PUSH1 0x1 PUSH1 0x40 SHL SUB DUP1 DUP3 GT ISZERO PUSH2 0x2C5A JUMPI PUSH1 0x0 DUP1 REVERT JUMPDEST PUSH2 0x2C66 DUP10 DUP4 DUP11 ADD PUSH2 0x2BDE JUMP JUMPDEST SWAP7 POP PUSH1 0x20 DUP9 ADD MLOAD SWAP2 POP DUP1 DUP3 GT ISZERO PUSH2 0x2C7C JUMPI PUSH1 0x0 DUP1 REVERT JUMPDEST PUSH2 0x2C88 DUP10 DUP4 DUP11 ADD PUSH2 0x2BDE JUMP JUMPDEST SWAP6 POP PUSH1 0x40 DUP9 ADD MLOAD SWAP2 POP DUP1 DUP3 GT ISZERO PUSH2 0x2C9E JUMPI PUSH1 0x0 DUP1 REVERT JUMPDEST PUSH2 0x2CAA DUP10 DUP4 DUP11 ADD PUSH2 0x2BDE JUMP JUMPDEST SWAP5 POP PUSH1 0x60 DUP9 ADD MLOAD SWAP2 POP DUP1 DUP3 GT ISZERO PUSH2 0x2CC0 JUMPI PUSH1 0x0 DUP1 REVERT JUMPDEST PUSH2 0x2CCC DUP10 DUP4 DUP11 ADD PUSH2 0x2BDE JUMP JUMPDEST SWAP4 POP PUSH1 0x80 DUP9 ADD MLOAD SWAP2 POP DUP1 DUP3 GT ISZERO PUSH2 0x2CE2 JUMPI PUSH1 0x0 DUP1 REVERT JUMPDEST POP PUSH2 0x2540 DUP9 DUP3 DUP10 ADD PUSH2 0x2BDE JUMP JUMPDEST PUSH1 0x0 DUP1 PUSH1 0x0 DUP1 PUSH1 0x0 PUSH1 0xA0 DUP7 DUP9 SUB SLT ISZERO PUSH2 0x2D07 JUMPI PUSH1 0x0 DUP1 REVERT JUMPDEST DUP6 MLOAD PUSH1 0x1 PUSH1 0x1 PUSH1 0x40 SHL SUB DUP1 DUP3 GT ISZERO PUSH2 0x2D1E JUMPI PUSH1 0x0 DUP1 REVERT JUMPDEST PUSH2 0x2D2A DUP10 DUP4 DUP11 ADD PUSH2 0x2BDE JUMP JUMPDEST SWAP7 POP PUSH1 0x20 DUP9 ADD MLOAD SWAP2 POP DUP1 DUP3 GT ISZERO PUSH2 0x2D40 JUMPI PUSH1 0x0 DUP1 REVERT JUMPDEST PUSH2 0x2D4C DUP10 DUP4 DUP11 ADD PUSH2 0x2BDE JUMP JUMPDEST SWAP6 POP PUSH1 0x40 DUP9 ADD MLOAD SWAP2 POP DUP1 DUP3 GT ISZERO PUSH2 0x2D62 JUMPI PUSH1 0x0 DUP1 REVERT JUMPDEST PUSH2 0x2D6E DUP10 DUP4 DUP11 ADD PUSH2 0x2BDE JUMP JUMPDEST SWAP5 POP PUSH1 0x60 DUP9 ADD MLOAD SWAP4 POP PUSH1 0x80 DUP9 ADD MLOAD SWAP2 POP DUP1 DUP3 GT ISZERO PUSH2 0x2CE2 JUMPI PUSH1 0x0 DUP1 REVERT JUMPDEST DUP5 DUP2 MSTORE PUSH1 0x80 PUSH1 0x20 DUP3 ADD MSTORE PUSH1 0x0 PUSH2 0x2DA4 PUSH1 0x80 DUP4 ADD DUP7 PUSH2 0x2220 JUMP JUMPDEST DUP3 DUP2 SUB PUSH1 0x40 DUP5 ADD MSTORE PUSH2 0x2DB6 DUP2 DUP7 PUSH2 0x2220 JUMP JUMPDEST SWAP1 POP DUP3 DUP2 SUB PUSH1 0x60 DUP5 ADD MSTORE PUSH2 0x2DCA DUP2 DUP6 PUSH2 0x2220 JUMP JUMPDEST SWAP8 SWAP7 POP POP POP POP POP POP POP JUMP JUMPDEST PUSH1 0x0 PUSH1 0x20 DUP3 DUP5 SUB SLT ISZERO PUSH2 0x2DE7 JUMPI PUSH1 0x0 DUP1 REVERT JUMPDEST POP MLOAD SWAP2 SWAP1 POP JUMP JUMPDEST PUSH1 0x0 DUP1 PUSH1 0x0 PUSH1 0x60 DUP5 DUP7 SUB SLT ISZERO PUSH2 0x2E03 JUMPI PUSH1 0x0 DUP1 REVERT JUMPDEST DUP4 MLOAD SWAP3 POP PUSH1 0x20 DUP5 ADD MLOAD SWAP2 POP PUSH1 0x40 DUP5 ADD MLOAD SWAP1 POP SWAP3 POP SWAP3 POP SWAP3 JUMP JUMPDEST PUSH1 0x0 PUSH1 0x20 DUP3 DUP5 SUB SLT ISZERO PUSH2 0x2E2E JUMPI PUSH1 0x0 DUP1 REVERT JUMPDEST DUP2 MLOAD PUSH1 0x1 PUSH1 0x1 PUSH1 0x40 SHL SUB DUP2 GT ISZERO PUSH2 0x2E44 JUMPI PUSH1 0x0 DUP1 REVERT JUMPDEST PUSH2 0x2C23 DUP5 DUP3 DUP6 ADD PUSH2 0x2BDE JUMP JUMPDEST DUP7 DUP2 MSTORE PUSH1 0xC0 PUSH1 0x20 DUP3 ADD MSTORE PUSH1 0x0 PUSH2 0x2E69 PUSH1 0xC0 DUP4 ADD DUP9 PUSH2 0x2220 JUMP JUMPDEST DUP3 DUP2 SUB PUSH1 0x40 DUP5 ADD MSTORE PUSH2 0x2B3B DUP2 DUP9 PUSH2 0x2220 JUMP JUMPDEST DUP6 DUP2 MSTORE PUSH1 0xA0 PUSH1 0x20 DUP3 ADD MSTORE PUSH1 0x0 PUSH2 0x2E94 PUSH1 0xA0 DUP4 ADD DUP8 PUSH2 0x2220 JUMP JUMPDEST DUP6 PUSH1 0x40 DUP5 ADD MSTORE DUP5 PUSH1 0x60 DUP5 ADD MSTORE DUP3 DUP2 SUB PUSH1 0x80 DUP5 ADD MSTORE PUSH2 0x22AD DUP2 DUP6 PUSH2 0x2220 JUMP JUMPDEST PUSH1 0x0 DUP1 PUSH1 0x40 DUP4 DUP6 SUB SLT ISZERO PUSH2 0x2EC5 JUMPI PUSH1 0x0 DUP1 REVERT JUMPDEST DUP3 MLOAD PUSH1 0x1 PUSH1 0x1 PUSH1 0x40 SHL SUB DUP1 DUP3 GT ISZERO PUSH2 0x2EDC JUMPI PUSH1 0x0 DUP1 REVERT JUMPDEST PUSH2 0x2EE8 DUP7 DUP4 DUP8 ADD PUSH2 0x2BDE JUMP JUMPDEST SWAP4 POP PUSH1 0x20 DUP6 ADD MLOAD SWAP2 POP DUP1 DUP3 GT ISZERO PUSH2 0x2EFE JUMPI PUSH1 0x0 DUP1 REVERT JUMPDEST POP PUSH2 0x269B DUP6 DUP3 DUP7 ADD PUSH2 0x2BDE JUMP JUMPDEST DUP5 DUP2 MSTORE DUP4 PUSH1 0x20 DUP3 ADD MSTORE PUSH1 0x80 PUSH1 0x40 DUP3 ADD MSTORE PUSH1 0x0 PUSH2 0x2F2A PUSH1 0x80 DUP4 ADD DUP6 PUSH2 0x2220 JUMP JUMPDEST SWAP1 POP DUP3 PUSH1 0x60 DUP4 ADD MSTORE SWAP6 SWAP5 POP POP POP POP POP JUMP JUMPDEST PUSH1 0x0 DUP3 MLOAD PUSH2 0x2F4D DUP2 DUP5 PUSH1 0x20 DUP8 ADD PUSH2 0x21F4 JUMP JUMPDEST SWAP2 SWAP1 SWAP2 ADD SWAP3 SWAP2 POP POP JUMP JUMPDEST PUSH4 0x4E487B71 PUSH1 0xE0 SHL PUSH1 0x0 MSTORE PUSH1 0x11 PUSH1 0x4 MSTORE PUSH1 0x24 PUSH1 0x0 REVERT JUMPDEST PUSH1 0x0 DUP2 PUSH2 0x2F7C JUMPI PUSH2 0x2F7C PUSH2 0x2F57 JUMP JUMPDEST POP PUSH1 0x0 NOT ADD SWAP1 JUMP JUMPDEST PUSH1 0x0 DUP1 PUSH1 0x40 DUP4 DUP6 SUB SLT ISZERO PUSH2 0x2F97 JUMPI PUSH1 0x0 DUP1 REVERT JUMPDEST DUP3 MLOAD PUSH1 0x1 PUSH1 0x1 PUSH1 0x40 SHL SUB DUP2 GT ISZERO PUSH2 0x2FAD JUMPI PUSH1 0x0 DUP1 REVERT JUMPDEST PUSH2 0x2FB9 DUP6 DUP3 DUP7 ADD PUSH2 0x2BDE JUMP JUMPDEST SWAP3 POP POP PUSH1 0x20 DUP4 ADD MLOAD SWAP1 POP SWAP3 POP SWAP3 SWAP1 POP JUMP JUMPDEST PUSH1 0x0 DUP1 PUSH1 0x0 DUP1 PUSH1 0x0 PUSH1 0xA0 DUP7 DUP9 SUB SLT ISZERO PUSH2 0x2FE2 JUMPI PUSH1 0x0 DUP1 REVERT JUMPDEST DUP6 MLOAD PUSH1 0x1 PUSH1 0x1 PUSH1 0x40 SHL SUB DUP1 DUP3 GT ISZERO PUSH2 0x2FF9 JUMPI PUSH1 0x0 DUP1 REVERT JUMPDEST PUSH2 0x3005 DUP10 DUP4 DUP11 ADD PUSH2 0x2BDE JUMP JUMPDEST SWAP7 POP PUSH1 0x20 DUP9 ADD MLOAD SWAP6 POP PUSH1 0x40 DUP9 ADD MLOAD SWAP5 POP PUSH1 0x60 DUP9 ADD MLOAD SWAP4 POP PUSH1 0x80 DUP9 ADD MLOAD SWAP2 POP DUP1 DUP3 GT ISZERO PUSH2 0x2CE2 JUMPI PUSH1 0x0 DUP1 REVERT JUMPDEST DUP6 DUP2 MSTORE PUSH1 0xA0 PUSH1 0x20 DUP3 ADD MSTORE PUSH1 0x0 PUSH2 0x3049 PUSH1 0xA0 DUP4 ADD DUP8 PUSH2 0x2220 JUMP JUMPDEST DUP3 DUP2 SUB PUSH1 0x40 DUP5 ADD MSTORE PUSH2 0x305B DUP2 DUP8 PUSH2 0x2220 JUMP JUMPDEST SWAP1 POP DUP3 DUP2 SUB PUSH1 0x60 DUP5 ADD MSTORE PUSH2 0x306F DUP2 DUP7 PUSH2 0x2220 JUMP JUMPDEST SWAP2 POP POP DUP3 PUSH1 0x80 DUP4 ADD MSTORE SWAP7 SWAP6 POP POP POP POP POP POP JUMP JUMPDEST DUP5 DUP2 MSTORE PUSH1 0x80 PUSH1 0x20 DUP3 ADD MSTORE PUSH1 0x0 PUSH2 0x309B PUSH1 0x80 DUP4 ADD DUP7 PUSH2 0x2220 JUMP JUMPDEST DUP3 DUP2 SUB PUSH1 0x40 DUP5 ADD MSTORE PUSH2 0x30AD DUP2 DUP7 PUSH2 0x2220 JUMP JUMPDEST SWAP2 POP POP DUP3 PUSH1 0x60 DUP4 ADD MSTORE SWAP6 SWAP5 POP POP POP POP POP JUMP JUMPDEST DUP7 DUP2 MSTORE PUSH1 0xC0 PUSH1 0x20 DUP3 ADD MSTORE PUSH1 0x0 PUSH2 0x30D8 PUSH1 0xC0 DUP4 ADD DUP9 PUSH2 0x2220 JUMP JUMPDEST DUP3 DUP2 SUB PUSH1 0x40 DUP5 ADD MSTORE PUSH2 0x30EA DUP2 DUP9 PUSH2 0x2220 JUMP JUMPDEST SWAP1 POP DUP3 DUP2 SUB PUSH1 0x60 DUP5 ADD MSTORE PUSH2 0x30FE DUP2 DUP8 PUSH2 0x2220 JUMP JUMPDEST SWAP1 POP DUP5 PUSH1 0x80 DUP5 ADD MSTORE DUP3 DUP2 SUB PUSH1 0xA0 DUP5 ADD MSTORE PUSH2 0x2B77 DUP2 DUP6 PUSH2 0x2220 JUMP JUMPDEST PUSH1 0x0 DUP1 PUSH1 0x0 PUSH1 0x60 DUP5 DUP7 SUB SLT ISZERO PUSH2 0x312D JUMPI PUSH1 0x0 DUP1 REVERT JUMPDEST DUP4 MLOAD PUSH1 0x1 PUSH1 0x1 PUSH1 0x40 SHL SUB DUP1 DUP3 GT ISZERO PUSH2 0x3144 JUMPI PUSH1 0x0 DUP1 REVERT JUMPDEST PUSH2 0x3150 DUP8 DUP4 DUP9 ADD PUSH2 0x2BDE JUMP JUMPDEST SWAP5 POP PUSH1 0x20 DUP7 ADD MLOAD SWAP2 POP DUP1 DUP3 GT ISZERO PUSH2 0x3166 JUMPI PUSH1 0x0 DUP1 REVERT JUMPDEST PUSH2 0x3172 DUP8 DUP4 DUP9 ADD PUSH2 0x2BDE JUMP JUMPDEST SWAP4 POP PUSH1 0x40 DUP7 ADD MLOAD SWAP2 POP DUP1 DUP3 GT ISZERO PUSH2 0x3188 JUMPI PUSH1 0x0 DUP1 REVERT JUMPDEST POP PUSH2 0x21D1 DUP7 DUP3 DUP8 ADD PUSH2 0x2BDE JUMP JUMPDEST DUP8 DUP2 MSTORE PUSH1 0xE0 PUSH1 0x20 DUP3 ADD MSTORE PUSH1 0x0 PUSH2 0x31AE PUSH1 0xE0 DUP4 ADD DUP10 PUSH2 0x2220 JUMP JUMPDEST DUP3 DUP2 SUB PUSH1 0x40 DUP5 ADD MSTORE PUSH2 0x31C0 DUP2 DUP10 PUSH2 0x2220 JUMP JUMPDEST SWAP1 POP DUP3 DUP2 SUB PUSH1 0x60 DUP5 ADD MSTORE PUSH2 0x31D4 DUP2 DUP9 PUSH2 0x2220 JUMP JUMPDEST SWAP1 POP DUP3 DUP2 SUB PUSH1 0x80 DUP5 ADD MSTORE PUSH2 0x31E8 DUP2 DUP8 PUSH2 0x2220 JUMP JUMPDEST SWAP1 POP DUP3 DUP2 SUB PUSH1 0xA0 DUP5 ADD MSTORE PUSH2 0x31FC DUP2 DUP7 PUSH2 0x2220 JUMP JUMPDEST SWAP1 POP DUP3 DUP2 SUB PUSH1 0xC0 DUP5 ADD MSTORE PUSH2 0x3210 DUP2 DUP6 PUSH2 0x2220 JUMP JUMPDEST SWAP11 SWAP10 POP POP POP POP POP POP POP POP POP POP JUMP JUMPDEST PUSH1 0x0 PUSH1 0x1 DUP3 ADD PUSH2 0x3230 JUMPI PUSH2 0x3230 PUSH2 0x2F57 JUMP JUMPDEST POP PUSH1 0x1 ADD SWAP1 JUMP JUMPDEST DUP4 DUP2 MSTORE PUSH1 0x60 PUSH1 0x20 DUP3 ADD MSTORE PUSH1 0x0 PUSH2 0x3250 PUSH1 0x60 DUP4 ADD DUP6 PUSH2 0x2220 JUMP JUMPDEST SWAP1 POP DUP3 PUSH1 0x40 DUP4 ADD MSTORE SWAP5 SWAP4 POP POP POP POP JUMP JUMPDEST PUSH1 0x0 DUP1 PUSH1 0x0 DUP1 PUSH1 0x0 DUP1 PUSH1 0xC0 DUP8 DUP10 SUB SLT ISZERO PUSH2 0x3279 JUMPI PUSH1 0x0 DUP1 REVERT JUMPDEST DUP7 MLOAD PUSH1 0x1 PUSH1 0x1 PUSH1 0x40 SHL SUB DUP1 DUP3 GT ISZERO PUSH2 0x3290 JUMPI PUSH1 0x0 DUP1 REVERT JUMPDEST PUSH2 0x329C DUP11 DUP4 DUP12 ADD PUSH2 0x2BDE JUMP JUMPDEST SWAP8 POP PUSH1 0x20 DUP10 ADD MLOAD SWAP2 POP DUP1 DUP3 GT ISZERO PUSH2 0x32B2 JUMPI PUSH1 0x0 DUP1 REVERT JUMPDEST PUSH2 0x32BE DUP11 DUP4 DUP12 ADD PUSH2 0x2BDE JUMP JUMPDEST SWAP7 POP PUSH1 0x40 DUP10 ADD MLOAD SWAP2 POP DUP1 DUP3 GT ISZERO PUSH2 0x32D4 JUMPI PUSH1 0x0 DUP1 REVERT JUMPDEST PUSH2 0x32E0 DUP11 DUP4 DUP12 ADD PUSH2 0x2BDE JUMP JUMPDEST SWAP6 POP PUSH1 0x60 DUP10 ADD MLOAD SWAP2 POP DUP1 DUP3 GT ISZERO PUSH2 0x32F6 JUMPI PUSH1 0x0 DUP1 REVERT JUMPDEST PUSH2 0x3302 DUP11 DUP4 DUP12 ADD PUSH2 0x2BDE JUMP JUMPDEST SWAP5 POP PUSH1 0x80 DUP10 ADD MLOAD SWAP2 POP DUP1 DUP3 GT ISZERO PUSH2 0x3318 JUMPI PUSH1 0x0 DUP1 REVERT JUMPDEST PUSH2 0x3324 DUP11 DUP4 DUP12 ADD PUSH2 0x2BDE JUMP JUMPDEST SWAP4 POP PUSH1 0xA0 DUP10 ADD MLOAD SWAP2 POP DUP1 DUP3 GT ISZERO PUSH2 0x333A JUMPI PUSH1 0x0 DUP1 REVERT JUMPDEST POP PUSH2 0x24C0 DUP10 DUP3 DUP11 ADD PUSH2 0x2BDE JUMP INVALID LOG2 PUSH5 0x6970667358 0x22 SLT KECCAK256 DUP4 SSTORE PUSH31 0x2BD1B9A896C4901CF5B2BAB5E94405A6EE332F70058386A3F4E5B9FA86473 PUSH16 0x6C634300080F00330000000000000000 ","sha1":"24939b7fbdcf94ab56f0b24251fbfebf89ffce34","source":"// SPDX-License-Identifier: MIT\n\npragma solidity 0.8.15;\n\nimport \"./studentData.sol\";\nimport \"./schoolFiles.sol\";\nimport \"./login.sol\";\nimport \"./attendance.sol\";\n\ncontract SchoolAdmin {\n    StudentData studentData;\n    SchoolFiles schoolFiles;\n    Login login;\n    Attendance attendance;\n    address public admin;\n    uint256 public maleStudents;\n    uint256 public femaleStudents;\n\n    event studentAdded(\n        uint256 indexed _studentId,\n        uint256 indexed _rollNumber,\n        uint256 indexed _class\n    );\n    event studentFound(uint256 indexed _studentId, uint256 indexed _rollNumber);\n    event assignmentAdded(\n        uint256 indexed _assignmentId,\n        uint256 indexed _class,\n        uint256 indexed _expiry\n    );\n    event assignmentSolutionAdded(\n        uint256 indexed _assignmentId,\n        uint256 indexed _solutionId,\n        uint256 indexed _studentId\n    );\n    event marksCardAdded(\n        uint256 indexed _marksCardId,\n        uint256 indexed _studentId,\n        uint256 indexed _expiry\n    );\n\n    event attendanceMarked(\n        uint256 indexed _studentId,\n        uint256 indexed _attendanceValue,\n        uint256 indexed _date\n    );\n\n    constructor(\n        address _studentData,\n        address _schoolFiles,\n        address _login,\n        address _attendance\n    ) {\n        studentData = StudentData(_studentData);\n        schoolFiles = SchoolFiles(_schoolFiles);\n        login = Login(_login);\n        attendance = Attendance(_attendance);\n        admin = msg.sender;\n    }\n\n    modifier isAdmin() {\n        require(msg.sender == admin, \"You are not the admin\");\n        _;\n    }\n\n    function getStudentCount()\n        public\n        view\n        isAdmin\n        returns (uint256 studentCount)\n    {\n        uint256 _studentCount = studentData.studentCount();\n        return _studentCount;\n    }\n\n    function rollNumberToStudentId(uint256 _rollNumber)\n        public\n        view\n        isAdmin\n        returns (uint256 studentId)\n    {\n        uint256 _studentId = studentData.rollNumberToStudentId(_rollNumber);\n        return _studentId;\n    }\n\n    function getPrimaryDetails(uint256 _studentId)\n        public\n        view\n        isAdmin\n        returns (\n            string memory _studentName,\n            uint256 _dob,\n            uint256 _rollNumber,\n            uint256 _grade,\n            string memory _email\n        )\n    {\n        return studentData.studentIdToPrimaryDetails(_studentId);\n    }\n\n    function getPersonalDetails(uint256 _studentId)\n        public\n        view\n        isAdmin\n        returns (\n            string memory _religion,\n            string memory _caste,\n            string memory _nationality,\n            uint256 _aadharNumber,\n            string memory _gender\n        )\n    {\n        return studentData.studentIdToPersonalDetails(_studentId);\n    }\n\n    function getPaternalDetails(uint256 _studentId)\n        public\n        view\n        isAdmin\n        returns (\n            string memory _fatherName,\n            string memory _currentAddress,\n            string memory _officeAddress,\n            string memory _fatherOccupation,\n            string memory _fatherEducation\n        )\n    {\n        return studentData.studentIdToPaternalDetails(_studentId);\n    }\n\n    function getMaternalDetails(uint256 _studentId)\n        public\n        view\n        isAdmin\n        returns (\n            string memory _motherName,\n            string memory _motherOccupation,\n            string memory _motherEducation\n        )\n    {\n        return studentData.studentIdToMaternalDetails(_studentId);\n    }\n\n    function getGuardianDetails(uint256 _studentId)\n        public\n        view\n        isAdmin\n        returns (string memory _guardianName, string memory _guardianAddress)\n    {\n        return studentData.studentIdToGuardianDetails(_studentId);\n    }\n\n    function getFamilyDetails(uint256 _studentId)\n        public\n        view\n        isAdmin\n        returns (\n            uint256 _familyIncome,\n            uint256 _primaryContact,\n            uint256 _secondaryContact\n        )\n    {\n        return studentData.studentIdToFamilyDetails(_studentId);\n    }\n\n    function getFiles(uint256 _studentId)\n        public\n        view\n        isAdmin\n        returns (\n            string memory _uploadAadharFront,\n            string memory _uploadAadharBack,\n            string memory _uploadIncomeCertificate,\n            string memory _uploadBirthCertificate,\n            string memory _uploadCasteCertificate\n        )\n    {\n        return studentData.studentIdToFiles(_studentId);\n    }\n\n    function getNonAcademic(uint256 _studentId)\n        public\n        view\n        isAdmin\n        returns (\n            string memory _sportsInvolved,\n            string memory _sportsAchievements,\n            string memory _extraCurricullum,\n            string memory _extraCurricullumAchievements,\n            string memory _personalityDevelopment,\n            string memory _personalityDevelopmentAchievements\n        )\n    {\n        return studentData.studentIdToNonAcademic(_studentId);\n    }\n\n    function addStudent(\n        string memory _studentName,\n        uint256 _dob,\n        uint256 _rollNumber,\n        uint256 _grade,\n        string memory _email\n    ) public isAdmin {\n        uint256 _studentId = studentData.addStudent(\n            _studentName,\n            _dob,\n            _rollNumber,\n            _grade,\n            _email\n        );\n        emit studentAdded(_studentId, _rollNumber, _grade);\n    }\n\n    function modifyPrimaryDetails(\n        uint256 _studentId,\n        string memory _studentName,\n        uint256 _dob,\n        uint256 _grade,\n        string memory _email\n    ) public isAdmin {\n        studentData.modifyPrimaryDetails(\n            _studentId,\n            _studentName,\n            _dob,\n            _grade,\n            _email\n        );\n    }\n\n    function addPersonalDetails(\n        uint256 _studentId,\n        string memory _religion,\n        string memory _caste,\n        string memory _nationality,\n        uint256 _aadharNumber,\n        string memory _gender\n    ) public isAdmin {\n        studentData.addPersonalDetails(\n            _studentId,\n            _religion,\n            _caste,\n            _nationality,\n            _aadharNumber,\n            _gender\n        );\n    }\n\n    function addPaternalDetails(\n        uint256 _studentId,\n        string memory _fatherName,\n        string memory _currentAddress,\n        string memory _officeAddress,\n        string memory _fatherOccupation,\n        string memory _fatherEducation\n    ) public isAdmin {\n        studentData.addPaternalDetails(\n            _studentId,\n            _fatherName,\n            _currentAddress,\n            _officeAddress,\n            _fatherOccupation,\n            _fatherEducation\n        );\n    }\n\n    function addMaternalDetails(\n        uint256 _studentId,\n        string memory _motherName,\n        string memory _motherOccupation,\n        string memory _motherEducation\n    ) public isAdmin {\n        studentData.addMaternalDetails(\n            _studentId,\n            _motherName,\n            _motherOccupation,\n            _motherEducation\n        );\n    }\n\n    function addGuardianDetails(\n        uint256 _studentId,\n        string memory _guardianName,\n        string memory _guardianAddress\n    ) public isAdmin {\n        studentData.addGuardianDetails(\n            _studentId,\n            _guardianName,\n            _guardianAddress\n        );\n    }\n\n    function addFamilyDetails(\n        uint256 _studentId,\n        uint256 _familyIncome,\n        uint256 _primaryContact,\n        uint256 _secondaryContact\n    ) public isAdmin {\n        studentData.addFamilyDetails(\n            _studentId,\n            _familyIncome,\n            _primaryContact,\n            _secondaryContact\n        );\n    }\n\n    function addFiles(\n        uint256 _studentId,\n        string memory _uploadAadharFront,\n        string memory _uploadAadharBack,\n        string memory _uploadIncomeCertificate,\n        string memory _uploadBirthCertificate,\n        string memory _uploadCasteCertificate\n    ) public isAdmin {\n        studentData.addFiles(\n            _studentId,\n            _uploadAadharFront,\n            _uploadAadharBack,\n            _uploadIncomeCertificate,\n            _uploadBirthCertificate,\n            _uploadCasteCertificate\n        );\n    }\n\n    function addNonAcademic(\n        uint256 _studentId,\n        string memory _sportsInvolved,\n        string memory _sportsAchievements,\n        string memory _extraCurricullum,\n        string memory _extraCurricullumAchievements,\n        string memory _personalityDevelopment,\n        string memory _personalityDevelopmentAchievements\n    ) public isAdmin {\n        studentData.addNonAcademic(\n            _studentId,\n            _sportsInvolved,\n            _sportsAchievements,\n            _extraCurricullum,\n            _extraCurricullumAchievements,\n            _personalityDevelopment,\n            _personalityDevelopmentAchievements\n        );\n    }\n\n    function searchStudent(string memory _name, uint256 _class) public isAdmin {\n        uint256 studentCount = getStudentCount();\n        for (uint256 studentId = 1; studentId <= studentCount; studentId++) {\n            (\n                string memory studentName,\n                ,\n                uint256 studentRollNumber,\n                uint256 studentClass,\n\n            ) = studentData.studentIdToPrimaryDetails(studentId);\n            if (\n                keccak256(abi.encodePacked(studentName)) ==\n                keccak256(abi.encodePacked(_name))\n            ) {\n                if (studentClass == _class) {\n                    emit studentFound(studentId, studentRollNumber);\n                }\n            }\n        }\n    }\n\n    function addAssignmentSolution(\n        uint256 _assignmentId,\n        string memory _file,\n        uint256 _studentId\n    ) public {\n        uint256 assignmentSolutionId = schoolFiles.addAssignmentSolution(\n            _assignmentId,\n            _file,\n            _studentId\n        );\n        emit assignmentSolutionAdded(\n            _assignmentId,\n            assignmentSolutionId,\n            _studentId\n        );\n    }\n\n    function addAssignment(\n        uint256 _class,\n        string memory _subject,\n        string memory _file,\n        string memory _topic,\n        uint256 _expiry\n    ) public {\n        uint256 assignmentId = schoolFiles.addAssignment(\n            _class,\n            _subject,\n            _file,\n            _topic,\n            _expiry\n        );\n        emit assignmentAdded(assignmentId, _class, _expiry);\n    }\n\n    function addMarksCard(\n        uint256 _studentId,\n        uint256 _class,\n        string memory _file,\n        uint256 _expiry\n    ) public {\n        uint256 _marksCardId = schoolFiles.addMarksCard(\n            _studentId,\n            _class,\n            _file,\n            _expiry\n        );\n        emit marksCardAdded(_marksCardId, _studentId, _expiry);\n    }\n\n    function addTimeTable(\n        uint256 _class,\n        string memory _exam,\n        string memory _file,\n        uint256 _uploadTime\n    ) public {\n        schoolFiles.addTimeTable(_class, _exam, _file, _uploadTime);\n    }\n\n    function getAssignmentSolutionData(uint256 _assignmentSolutionId)\n        public\n        view\n        isAdmin\n        returns (\n            string memory file,\n            uint256 assignmentId,\n            uint256 studentId\n        )\n    {\n        string memory _file = schoolFiles.assignmentSolutionIdTofile(\n            _assignmentSolutionId\n        );\n        uint256 _assignmentId = schoolFiles.assignmentSolutionIdToAssignmentId(\n            _assignmentSolutionId\n        );\n        uint256 _studentId = schoolFiles.assignmentSolutionIdToStudentId(\n            _assignmentSolutionId\n        );\n        return (_file, _assignmentId, _studentId);\n    }\n\n    function getAssignmentData(uint256 _assignmentId)\n        public\n        view\n        isAdmin\n        returns (\n            string memory subject,\n            string memory topic,\n            string memory file,\n            uint256 class,\n            uint256 expiry\n        )\n    {\n        string memory _subject = schoolFiles.assignmentIdTosubject(\n            _assignmentId\n        );\n        string memory _topic = schoolFiles.assignmentIdToTopic(_assignmentId);\n        string memory _file = schoolFiles.assignmentIdTofile(_assignmentId);\n        uint256 _class = schoolFiles.assignmentIdToclass(_assignmentId);\n        uint256 _expiry = schoolFiles.assignmentIdToExpiry(_assignmentId);\n        return (_subject, _topic, _file, _class, _expiry);\n    }\n\n    function getMarksCardData(uint256 _marksCardId)\n        public\n        view\n        isAdmin\n        returns (\n            uint256 studentId,\n            uint256 class,\n            string memory file\n        )\n    {\n        uint256 _studentId = schoolFiles.marksCardIdTostudentId(_marksCardId);\n        uint256 _class = schoolFiles.marksCardIdToclass(_marksCardId);\n        string memory _file = schoolFiles.marksCardIdTofile(_marksCardId);\n        return (_studentId, _class, _file);\n    }\n\n    function viewClassTimeTable(uint256 _class)\n        public\n        view\n        isAdmin\n        returns (string memory timeTableFile, uint256 uploadTime)\n    {\n        uint256 timetableCount = schoolFiles.timetableCount();\n        for (\n            uint256 timeTableId = timetableCount;\n            timeTableId > 0;\n            timeTableId--\n        ) {\n            if (\n                schoolFiles.timeTableIdToclass(timeTableId) == _class &&\n                keccak256(\n                    abi.encodePacked(schoolFiles.timeTableIdToexam(timeTableId))\n                ) ==\n                keccak256(abi.encodePacked(\"\"))\n            ) {\n                {\n                    return (\n                        schoolFiles.timeTableIdTofile(timeTableId),\n                        schoolFiles.timeTableIdToUploadTime(timeTableId)\n                    );\n                }\n            }\n        }\n        return (\"Time table not found\", 0);\n    }\n\n    function viewExamTimeTable(uint256 _class)\n        public\n        view\n        isAdmin\n        returns (string memory timeTableFile, uint256 uploadTime)\n    {\n        uint256 timetableCount = schoolFiles.timetableCount();\n        for (\n            uint256 timeTableId = timetableCount;\n            timeTableId > 0;\n            timeTableId--\n        ) {\n            if (\n                schoolFiles.timeTableIdToclass(timeTableId) == _class &&\n                keccak256(\n                    abi.encodePacked(schoolFiles.timeTableIdToexam(timeTableId))\n                ) !=\n                keccak256(abi.encodePacked(\"\"))\n            ) {\n                {\n                    return (\n                        schoolFiles.timeTableIdTofile(timeTableId),\n                        schoolFiles.timeTableIdToUploadTime(timeTableId)\n                    );\n                }\n            }\n        }\n        return (\"Time table not found\", 0);\n    }\n\n    function loginCheck(string memory _name, string memory _password)\n        public\n        view\n        returns (string memory _loginType, uint256 _id)\n    {\n        (_loginType, _id) = login.loginCheck(_name, _password);\n        return (_loginType, _id);\n    }\n\n    function markAttendance(\n        uint256 _studentId,\n        uint256 _attendanceValue,\n        uint256 _date\n    ) public isAdmin {\n        attendance.markAttendance(_studentId, _attendanceValue, _date);\n        emit attendanceMarked(_studentId, _attendanceValue, _date);\n    }\n}\n","sourcePath":"contracts/schoolAdmin.sol","type":"contract"}